{
  "contractName": "ChainBizz",
  "abi": [
    {
      "inputs": [],
      "payable": false,
      "stateMutability": "nonpayable",
      "type": "constructor"
    },
    {
      "anonymous": false,
      "inputs": [
        {
          "indexed": false,
          "internalType": "uint256",
          "name": "id",
          "type": "uint256"
        },
        {
          "indexed": true,
          "internalType": "address",
          "name": "issuer",
          "type": "address"
        },
        {
          "indexed": true,
          "internalType": "address",
          "name": "fulfiller",
          "type": "address"
        },
        {
          "indexed": false,
          "internalType": "string",
          "name": "title",
          "type": "string"
        },
        {
          "indexed": false,
          "internalType": "uint256",
          "name": "price",
          "type": "uint256"
        }
      ],
      "name": "AcceptProposal",
      "type": "event"
    },
    {
      "anonymous": false,
      "inputs": [
        {
          "indexed": false,
          "internalType": "uint256",
          "name": "id",
          "type": "uint256"
        },
        {
          "indexed": true,
          "internalType": "address",
          "name": "issuer",
          "type": "address"
        },
        {
          "indexed": true,
          "internalType": "address",
          "name": "fulfiller",
          "type": "address"
        },
        {
          "indexed": false,
          "internalType": "string",
          "name": "title",
          "type": "string"
        },
        {
          "indexed": false,
          "internalType": "uint256",
          "name": "price",
          "type": "uint256"
        }
      ],
      "name": "ContractCanceled",
      "type": "event"
    },
    {
      "anonymous": false,
      "inputs": [
        {
          "indexed": false,
          "internalType": "uint256",
          "name": "id",
          "type": "uint256"
        },
        {
          "indexed": true,
          "internalType": "address",
          "name": "issuer",
          "type": "address"
        },
        {
          "indexed": true,
          "internalType": "address",
          "name": "fulfiller",
          "type": "address"
        },
        {
          "indexed": false,
          "internalType": "string",
          "name": "title",
          "type": "string"
        },
        {
          "indexed": false,
          "internalType": "uint256",
          "name": "price",
          "type": "uint256"
        }
      ],
      "name": "DeliveryAccepted",
      "type": "event"
    },
    {
      "anonymous": false,
      "inputs": [
        {
          "indexed": false,
          "internalType": "uint256",
          "name": "id",
          "type": "uint256"
        },
        {
          "indexed": true,
          "internalType": "address",
          "name": "issuer",
          "type": "address"
        },
        {
          "indexed": true,
          "internalType": "address",
          "name": "fulfiller",
          "type": "address"
        },
        {
          "indexed": false,
          "internalType": "string",
          "name": "title",
          "type": "string"
        },
        {
          "indexed": false,
          "internalType": "uint256",
          "name": "price",
          "type": "uint256"
        }
      ],
      "name": "DeliveryRejected",
      "type": "event"
    },
    {
      "anonymous": false,
      "inputs": [
        {
          "indexed": false,
          "internalType": "uint256",
          "name": "id",
          "type": "uint256"
        },
        {
          "indexed": true,
          "internalType": "address",
          "name": "issuer",
          "type": "address"
        },
        {
          "indexed": false,
          "internalType": "string",
          "name": "title",
          "type": "string"
        },
        {
          "indexed": false,
          "internalType": "uint256",
          "name": "price",
          "type": "uint256"
        }
      ],
      "name": "NewProject",
      "type": "event"
    },
    {
      "anonymous": false,
      "inputs": [
        {
          "indexed": false,
          "internalType": "uint256",
          "name": "id",
          "type": "uint256"
        },
        {
          "indexed": true,
          "internalType": "address",
          "name": "issuer",
          "type": "address"
        },
        {
          "indexed": true,
          "internalType": "address",
          "name": "fulfiller",
          "type": "address"
        },
        {
          "indexed": false,
          "internalType": "string",
          "name": "title",
          "type": "string"
        },
        {
          "indexed": false,
          "internalType": "uint256",
          "name": "price",
          "type": "uint256"
        }
      ],
      "name": "OfferCanceled",
      "type": "event"
    },
    {
      "anonymous": false,
      "inputs": [
        {
          "indexed": false,
          "internalType": "uint256",
          "name": "id",
          "type": "uint256"
        },
        {
          "indexed": true,
          "internalType": "address",
          "name": "issuer",
          "type": "address"
        },
        {
          "indexed": true,
          "internalType": "address",
          "name": "fulfiller",
          "type": "address"
        },
        {
          "indexed": false,
          "internalType": "string",
          "name": "title",
          "type": "string"
        },
        {
          "indexed": false,
          "internalType": "uint256",
          "name": "price",
          "type": "uint256"
        }
      ],
      "name": "OfferSubmitted",
      "type": "event"
    },
    {
      "anonymous": false,
      "inputs": [
        {
          "indexed": false,
          "internalType": "uint256",
          "name": "id",
          "type": "uint256"
        },
        {
          "indexed": true,
          "internalType": "address",
          "name": "issuer",
          "type": "address"
        },
        {
          "indexed": true,
          "internalType": "address",
          "name": "fulfiller",
          "type": "address"
        },
        {
          "indexed": false,
          "internalType": "string",
          "name": "title",
          "type": "string"
        },
        {
          "indexed": false,
          "internalType": "uint256",
          "name": "price",
          "type": "uint256"
        }
      ],
      "name": "ProjectDelivered",
      "type": "event"
    },
    {
      "anonymous": false,
      "inputs": [
        {
          "indexed": false,
          "internalType": "uint256",
          "name": "id",
          "type": "uint256"
        },
        {
          "indexed": true,
          "internalType": "address",
          "name": "issuer",
          "type": "address"
        },
        {
          "indexed": false,
          "internalType": "string",
          "name": "title",
          "type": "string"
        },
        {
          "indexed": false,
          "internalType": "uint256",
          "name": "price",
          "type": "uint256"
        },
        {
          "indexed": false,
          "internalType": "string",
          "name": "ipfsHash",
          "type": "string"
        }
      ],
      "name": "PublishedProject",
      "type": "event"
    },
    {
      "anonymous": false,
      "inputs": [
        {
          "indexed": false,
          "internalType": "uint256",
          "name": "id",
          "type": "uint256"
        },
        {
          "indexed": true,
          "internalType": "address",
          "name": "issuer",
          "type": "address"
        },
        {
          "indexed": true,
          "internalType": "address",
          "name": "fulfiller",
          "type": "address"
        },
        {
          "indexed": false,
          "internalType": "string",
          "name": "title",
          "type": "string"
        },
        {
          "indexed": false,
          "internalType": "uint256",
          "name": "price",
          "type": "uint256"
        }
      ],
      "name": "RejectProposal",
      "type": "event"
    },
    {
      "anonymous": false,
      "inputs": [
        {
          "indexed": false,
          "internalType": "uint256",
          "name": "id",
          "type": "uint256"
        },
        {
          "indexed": true,
          "internalType": "address",
          "name": "issuer",
          "type": "address"
        },
        {
          "indexed": false,
          "internalType": "string",
          "name": "title",
          "type": "string"
        }
      ],
      "name": "RemoveProject",
      "type": "event"
    },
    {
      "anonymous": false,
      "inputs": [
        {
          "indexed": false,
          "internalType": "uint256",
          "name": "id",
          "type": "uint256"
        },
        {
          "indexed": true,
          "internalType": "address",
          "name": "issuer",
          "type": "address"
        },
        {
          "indexed": true,
          "internalType": "address",
          "name": "fulfiller",
          "type": "address"
        },
        {
          "indexed": false,
          "internalType": "string",
          "name": "title",
          "type": "string"
        },
        {
          "indexed": false,
          "internalType": "uint256",
          "name": "price",
          "type": "uint256"
        }
      ],
      "name": "ServicesCanceled",
      "type": "event"
    },
    {
      "anonymous": false,
      "inputs": [
        {
          "indexed": false,
          "internalType": "uint256",
          "name": "id",
          "type": "uint256"
        },
        {
          "indexed": true,
          "internalType": "address",
          "name": "issuer",
          "type": "address"
        },
        {
          "indexed": false,
          "internalType": "string",
          "name": "title",
          "type": "string"
        },
        {
          "indexed": false,
          "internalType": "uint256",
          "name": "price",
          "type": "uint256"
        }
      ],
      "name": "UnpublishedProject",
      "type": "event"
    },
    {
      "anonymous": false,
      "inputs": [
        {
          "indexed": false,
          "internalType": "uint256",
          "name": "id",
          "type": "uint256"
        },
        {
          "indexed": true,
          "internalType": "address",
          "name": "issuer",
          "type": "address"
        },
        {
          "indexed": false,
          "internalType": "string",
          "name": "title",
          "type": "string"
        },
        {
          "indexed": false,
          "internalType": "uint256",
          "name": "price",
          "type": "uint256"
        }
      ],
      "name": "UpdateProject",
      "type": "event"
    },
    {
      "constant": true,
      "inputs": [
        {
          "internalType": "uint256",
          "name": "",
          "type": "uint256"
        }
      ],
      "name": "projects",
      "outputs": [
        {
          "internalType": "uint256",
          "name": "id",
          "type": "uint256"
        },
        {
          "internalType": "address payable",
          "name": "issuer",
          "type": "address"
        },
        {
          "internalType": "address payable",
          "name": "fulfiller",
          "type": "address"
        },
        {
          "internalType": "string",
          "name": "title",
          "type": "string"
        },
        {
          "internalType": "string",
          "name": "description",
          "type": "string"
        },
        {
          "internalType": "uint256",
          "name": "price",
          "type": "uint256"
        },
        {
          "internalType": "string",
          "name": "ipfsHash",
          "type": "string"
        },
        {
          "internalType": "enum ChainBizz.ProjectStatus",
          "name": "status",
          "type": "uint8"
        }
      ],
      "payable": false,
      "stateMutability": "view",
      "type": "function"
    },
    {
      "constant": false,
      "inputs": [],
      "name": "enableContract",
      "outputs": [],
      "payable": false,
      "stateMutability": "nonpayable",
      "type": "function"
    },
    {
      "constant": false,
      "inputs": [],
      "name": "disableContract",
      "outputs": [],
      "payable": false,
      "stateMutability": "nonpayable",
      "type": "function"
    },
    {
      "constant": false,
      "inputs": [
        {
          "internalType": "string",
          "name": "_title",
          "type": "string"
        },
        {
          "internalType": "string",
          "name": "_description",
          "type": "string"
        },
        {
          "internalType": "uint256",
          "name": "_price",
          "type": "uint256"
        }
      ],
      "name": "addProject",
      "outputs": [],
      "payable": false,
      "stateMutability": "nonpayable",
      "type": "function"
    },
    {
      "constant": false,
      "inputs": [
        {
          "internalType": "uint256",
          "name": "_id",
          "type": "uint256"
        },
        {
          "internalType": "string",
          "name": "_title",
          "type": "string"
        },
        {
          "internalType": "string",
          "name": "_description",
          "type": "string"
        },
        {
          "internalType": "uint256",
          "name": "_price",
          "type": "uint256"
        }
      ],
      "name": "updateProject",
      "outputs": [],
      "payable": false,
      "stateMutability": "nonpayable",
      "type": "function"
    },
    {
      "constant": false,
      "inputs": [
        {
          "internalType": "uint256",
          "name": "_id",
          "type": "uint256"
        }
      ],
      "name": "removeProject",
      "outputs": [],
      "payable": false,
      "stateMutability": "nonpayable",
      "type": "function"
    },
    {
      "constant": false,
      "inputs": [
        {
          "internalType": "string",
          "name": "_title",
          "type": "string"
        },
        {
          "internalType": "string",
          "name": "_description",
          "type": "string"
        },
        {
          "internalType": "uint256",
          "name": "_price",
          "type": "uint256"
        },
        {
          "internalType": "string",
          "name": "_ipfsHash",
          "type": "string"
        }
      ],
      "name": "publishProject",
      "outputs": [],
      "payable": false,
      "stateMutability": "nonpayable",
      "type": "function"
    },
    {
      "constant": false,
      "inputs": [
        {
          "internalType": "uint256",
          "name": "_id",
          "type": "uint256"
        }
      ],
      "name": "publishProjectOld",
      "outputs": [],
      "payable": false,
      "stateMutability": "nonpayable",
      "type": "function"
    },
    {
      "constant": false,
      "inputs": [
        {
          "internalType": "uint256",
          "name": "_id",
          "type": "uint256"
        }
      ],
      "name": "unpublishProject",
      "outputs": [],
      "payable": false,
      "stateMutability": "nonpayable",
      "type": "function"
    },
    {
      "constant": false,
      "inputs": [
        {
          "internalType": "uint256",
          "name": "_id",
          "type": "uint256"
        }
      ],
      "name": "submitOffer",
      "outputs": [],
      "payable": false,
      "stateMutability": "nonpayable",
      "type": "function"
    },
    {
      "constant": false,
      "inputs": [
        {
          "internalType": "uint256",
          "name": "_id",
          "type": "uint256"
        }
      ],
      "name": "cancelOffer",
      "outputs": [],
      "payable": false,
      "stateMutability": "nonpayable",
      "type": "function"
    },
    {
      "constant": false,
      "inputs": [
        {
          "internalType": "uint256",
          "name": "_id",
          "type": "uint256"
        }
      ],
      "name": "acceptProposal",
      "outputs": [],
      "payable": true,
      "stateMutability": "payable",
      "type": "function"
    },
    {
      "constant": false,
      "inputs": [
        {
          "internalType": "uint256",
          "name": "_id",
          "type": "uint256"
        }
      ],
      "name": "rejectProposal",
      "outputs": [],
      "payable": false,
      "stateMutability": "nonpayable",
      "type": "function"
    },
    {
      "constant": false,
      "inputs": [
        {
          "internalType": "uint256",
          "name": "_id",
          "type": "uint256"
        }
      ],
      "name": "deliverProject",
      "outputs": [],
      "payable": false,
      "stateMutability": "nonpayable",
      "type": "function"
    },
    {
      "constant": false,
      "inputs": [
        {
          "internalType": "uint256",
          "name": "_id",
          "type": "uint256"
        }
      ],
      "name": "cancelServices",
      "outputs": [],
      "payable": false,
      "stateMutability": "nonpayable",
      "type": "function"
    },
    {
      "constant": false,
      "inputs": [
        {
          "internalType": "uint256",
          "name": "_id",
          "type": "uint256"
        }
      ],
      "name": "acceptDelivery",
      "outputs": [],
      "payable": false,
      "stateMutability": "nonpayable",
      "type": "function"
    },
    {
      "constant": false,
      "inputs": [
        {
          "internalType": "uint256",
          "name": "_id",
          "type": "uint256"
        }
      ],
      "name": "rejectDelivery",
      "outputs": [],
      "payable": false,
      "stateMutability": "nonpayable",
      "type": "function"
    },
    {
      "constant": false,
      "inputs": [
        {
          "internalType": "uint256",
          "name": "_id",
          "type": "uint256"
        }
      ],
      "name": "cancelContract",
      "outputs": [],
      "payable": false,
      "stateMutability": "nonpayable",
      "type": "function"
    },
    {
      "constant": true,
      "inputs": [],
      "name": "isEnabled",
      "outputs": [
        {
          "internalType": "bool",
          "name": "",
          "type": "bool"
        }
      ],
      "payable": false,
      "stateMutability": "view",
      "type": "function"
    },
    {
      "constant": true,
      "inputs": [
        {
          "internalType": "uint256",
          "name": "_id",
          "type": "uint256"
        }
      ],
      "name": "getProject",
      "outputs": [
        {
          "internalType": "address",
          "name": "issuer",
          "type": "address"
        },
        {
          "internalType": "address",
          "name": "fulfiller",
          "type": "address"
        },
        {
          "internalType": "string",
          "name": "title",
          "type": "string"
        },
        {
          "internalType": "string",
          "name": "description",
          "type": "string"
        },
        {
          "internalType": "uint256",
          "name": "price",
          "type": "uint256"
        },
        {
          "internalType": "enum ChainBizz.ProjectStatus",
          "name": "status",
          "type": "uint8"
        }
      ],
      "payable": false,
      "stateMutability": "view",
      "type": "function"
    },
    {
      "constant": true,
      "inputs": [],
      "name": "getAllProjects",
      "outputs": [
        {
          "internalType": "uint256[]",
          "name": "",
          "type": "uint256[]"
        }
      ],
      "payable": false,
      "stateMutability": "view",
      "type": "function"
    },
    {
      "constant": true,
      "inputs": [],
      "name": "getPublishedProjects",
      "outputs": [
        {
          "internalType": "uint256[]",
          "name": "",
          "type": "uint256[]"
        }
      ],
      "payable": false,
      "stateMutability": "view",
      "type": "function"
    },
    {
      "constant": true,
      "inputs": [],
      "name": "getMyProjects",
      "outputs": [
        {
          "internalType": "uint256[]",
          "name": "",
          "type": "uint256[]"
        }
      ],
      "payable": false,
      "stateMutability": "view",
      "type": "function"
    },
    {
      "constant": true,
      "inputs": [],
      "name": "getMyOffers",
      "outputs": [
        {
          "internalType": "uint256[]",
          "name": "",
          "type": "uint256[]"
        }
      ],
      "payable": false,
      "stateMutability": "view",
      "type": "function"
    },
    {
      "constant": true,
      "inputs": [],
      "name": "getMyReviews",
      "outputs": [
        {
          "internalType": "uint256[]",
          "name": "",
          "type": "uint256[]"
        }
      ],
      "payable": false,
      "stateMutability": "view",
      "type": "function"
    },
    {
      "constant": true,
      "inputs": [],
      "name": "getMyContracts",
      "outputs": [
        {
          "internalType": "uint256[]",
          "name": "",
          "type": "uint256[]"
        }
      ],
      "payable": false,
      "stateMutability": "view",
      "type": "function"
    },
    {
      "constant": true,
      "inputs": [],
      "name": "getDeliveries",
      "outputs": [
        {
          "internalType": "uint256[]",
          "name": "",
          "type": "uint256[]"
        }
      ],
      "payable": false,
      "stateMutability": "view",
      "type": "function"
    },
    {
      "constant": true,
      "inputs": [],
      "name": "getCompleted",
      "outputs": [
        {
          "internalType": "uint256[]",
          "name": "",
          "type": "uint256[]"
        }
      ],
      "payable": false,
      "stateMutability": "view",
      "type": "function"
    },
    {
      "constant": true,
      "inputs": [],
      "name": "getCanceled",
      "outputs": [
        {
          "internalType": "uint256[]",
          "name": "",
          "type": "uint256[]"
        }
      ],
      "payable": false,
      "stateMutability": "view",
      "type": "function"
    }
  ],
  "bytecode": "0x608060405234801561001057600080fd5b5060028054600160ff1990911617610100600160a81b03191661010033021790556145e4806100406000396000f3fe6080604052600436106101c25760003560e01c80636f65c717116100f7578063bc28d87811610095578063ef1b655311610064578063ef1b655314610aa8578063ef706adf14610abd578063f0f3f2c814610ae7578063f7f2ccbf14610c25576101c2565b8063bc28d87814610a3f578063bd140c4b14610a69578063c81bde1514610a7e578063e4f655b014610a93576101c2565b8063894ba833116100d1578063894ba8331461089757806391ed2069146108ac578063a7fa01a7146108d6578063b85a72d214610a15576101c2565b80636f65c7171461082e5780637b422c4c1461085857806380d0382914610882576101c2565b80634beb7e94116101645780635fd4f7581161013e5780635fd4f7581461068657806360c5cc3a146107be578063629a064e146107db5780636aa633b614610805576101c2565b80634beb7e94146106325780635873f998146106475780635b54f98214610671576101c2565b8063138e0b26116101a0578063138e0b261461041b5780631e1061f71461043057806328047450146105f3578063367edd321461061d576101c2565b8063037852c7146101c75780630850cd1e1461022c578063107046bd14610258575b600080fd5b3480156101d357600080fd5b506101dc610c4f565b60408051602080825283518183015283519192839290830191858101910280838360005b83811015610218578181015183820152602001610200565b505050509050019250505060405180910390f35b34801561023857600080fd5b506102566004803603602081101561024f57600080fd5b5035610dbd565b005b34801561026457600080fd5b506102826004803603602081101561027b57600080fd5b5035610faf565b60405180898152602001886001600160a01b03166001600160a01b03168152602001876001600160a01b03166001600160a01b031681526020018060200180602001868152602001806020018560088111156102da57fe5b60ff168152602001848103845289818151815260200191508051906020019080838360005b838110156103175781810151838201526020016102ff565b50505050905090810190601f1680156103445780820380516001836020036101000a031916815260200191505b5084810383528851815288516020918201918a019080838360005b8381101561037757818101518382015260200161035f565b50505050905090810190601f1680156103a45780820380516001836020036101000a031916815260200191505b50848103825286518152865160209182019188019080838360005b838110156103d75781810151838201526020016103bf565b50505050905090810190601f1680156104045780820380516001836020036101000a031916815260200191505b509b50505050505050505050505060405180910390f35b34801561042757600080fd5b506101dc61119e565b34801561043c57600080fd5b506102566004803603608081101561045357600080fd5b810190602081018135600160201b81111561046d57600080fd5b82018360208201111561047f57600080fd5b803590602001918460018302840111600160201b831117156104a057600080fd5b91908080601f0160208091040260200160405190810160405280939291908181526020018383808284376000920191909152509295949360208101935035915050600160201b8111156104f257600080fd5b82018360208201111561050457600080fd5b803590602001918460018302840111600160201b8311171561052557600080fd5b91908080601f01602080910402602001604051908101604052809392919081815260200183838082843760009201919091525092958435959094909350604081019250602001359050600160201b81111561057f57600080fd5b82018360208201111561059157600080fd5b803590602001918460018302840111600160201b831117156105b257600080fd5b91908080601f016020809104026020016040519081016040528093929190818152602001838380828437600092019190915250929550611323945050505050565b3480156105ff57600080fd5b506102566004803603602081101561061657600080fd5b5035611699565b34801561062957600080fd5b5061025661191f565b34801561063e57600080fd5b506101dc61197c565b34801561065357600080fd5b506102566004803603602081101561066a57600080fd5b5035611add565b34801561067d57600080fd5b506101dc611f26565b34801561069257600080fd5b50610256600480360360608110156106a957600080fd5b810190602081018135600160201b8111156106c357600080fd5b8201836020820111156106d557600080fd5b803590602001918460018302840111600160201b831117156106f657600080fd5b91908080601f0160208091040260200160405190810160405280939291908181526020018383808284376000920191909152509295949360208101935035915050600160201b81111561074857600080fd5b82018360208201111561075a57600080fd5b803590602001918460018302840111600160201b8311171561077b57600080fd5b91908080601f01602080910402602001604051908101604052809392919081815260200183838082843760009201919091525092955050913592506120ab915050565b610256600480360360208110156107d457600080fd5b503561236b565b3480156107e757600080fd5b50610256600480360360208110156107fe57600080fd5b503561257e565b34801561081157600080fd5b5061081a612751565b604080519115158252519081900360200190f35b34801561083a57600080fd5b506102566004803603602081101561085157600080fd5b503561275a565b34801561086457600080fd5b506102566004803603602081101561087b57600080fd5b50356128f7565b34801561088e57600080fd5b506101dc612afc565b3480156108a357600080fd5b50610256612c30565b3480156108b857600080fd5b50610256600480360360208110156108cf57600080fd5b5035612dcb565b3480156108e257600080fd5b50610256600480360360808110156108f957600080fd5b81359190810190604081016020820135600160201b81111561091a57600080fd5b82018360208201111561092c57600080fd5b803590602001918460018302840111600160201b8311171561094d57600080fd5b91908080601f0160208091040260200160405190810160405280939291908181526020018383808284376000920191909152509295949360208101935035915050600160201b81111561099f57600080fd5b8201836020820111156109b157600080fd5b803590602001918460018302840111600160201b831117156109d257600080fd5b91908080601f0160208091040260200160405190810160405280939291908181526020018383808284376000920191909152509295505091359250612fce915050565b348015610a2157600080fd5b5061025660048036036020811015610a3857600080fd5b5035613266565b348015610a4b57600080fd5b5061025660048036036020811015610a6257600080fd5b5035613428565b348015610a7557600080fd5b506101dc61364b565b348015610a8a57600080fd5b506101dc6137d0565b348015610a9f57600080fd5b506101dc61397e565b348015610ab457600080fd5b506101dc613b0c565b348015610ac957600080fd5b5061025660048036036020811015610ae057600080fd5b5035613c6d565b348015610af357600080fd5b50610b1160048036036020811015610b0a57600080fd5b5035613e50565b604080516001600160a01b03808916825287166020820152608081018490529081016060820160a08301846008811115610b4757fe5b60ff168152602001838103835287818151815260200191508051906020019080838360005b83811015610b84578181015183820152602001610b6c565b50505050905090810190601f168015610bb15780820380516001836020036101000a031916815260200191505b50838103825286518152865160209182019188019080838360005b83811015610be4578181015183820152602001610bcc565b50505050905090810190601f168015610c115780820380516001836020036101000a031916815260200191505b509850505050505050505060405180910390f35b348015610c3157600080fd5b5061025660048036036020811015610c4857600080fd5b5035614105565b606060015460001415610c765760408051600080825260208201909252905b509050610dba565b6060600154604051908082528060200260200182016040528015610ca4578160200160208202803883390190505b509050600060015b6001548111610d46576000818152602081905260409020600201546001600160a01b031633148015610cfd5750600260008281526020819052604090206007015460ff166008811115610cfb57fe5b145b15610d3e576000818152602081905260409020548351849084908110610d1f57fe5b6020908102919091010152610d3b82600163ffffffff6142e916565b91505b600101610cac565b50606081604051908082528060200260200182016040528015610d73578160200160208202803883390190505b50905060005b82811015610db457838181518110610d8d57fe5b6020026020010151828281518110610da157fe5b6020908102919091010152600101610d79565b50925050505b90565b60025460ff161515600114610e035760405162461bcd60e51b81526004018080602001828103825260228152602001806144c66022913960400191505060405180910390fd5b600081815260208190526040902060018101546001600160a01b0316610e295750610fac565b60018101546001600160a01b03163314610e745760405162461bcd60e51b81526004018080602001828103825260268152602001806145096026913960400191505060405180910390fd5b6001600782015460ff166008811115610e8957fe5b14610ed3576040805162461bcd60e51b815260206004820152601560248201527410d85b9b9bdd081899481d5b9c1d589b1a5cda1959605a1b604482015290519081900360640190fd5b60078101805460ff191690556005810154604080518481529081018290526060602082018181526003850180546002600182161561010002600019019091160492840183905233947f3525d4593ef70f97d7b99dfeab0e0be748aeb51f464f83bf0bbf5ab6badb45c894889492939192909190608083019085908015610f9a5780601f10610f6f57610100808354040283529160200191610f9a565b820191906000526020600020905b815481529060010190602001808311610f7d57829003601f168201915b505094505050505060405180910390a2505b50565b60006020818152918152604090819020805460018083015460028085015460038601805488516101009682161596909602600019011692909204601f810189900489028501890190975286845293966001600160a01b03928316969290941694939091908301828280156110645780601f1061103957610100808354040283529160200191611064565b820191906000526020600020905b81548152906001019060200180831161104757829003601f168201915b5050505060048301805460408051602060026001851615610100026000190190941693909304601f81018490048402820184019092528181529495949350908301828280156110f45780601f106110c9576101008083540402835291602001916110f4565b820191906000526020600020905b8154815290600101906020018083116110d757829003601f168201915b50505050600583015460068401805460408051602060026001851615610100026000190190941693909304601f8101849004840282018401909252818152959693959394509083018282801561118b5780601f106111605761010080835404028352916020019161118b565b820191906000526020600020905b81548152906001019060200180831161116e57829003601f168201915b5050506007909301549192505060ff1688565b6060600154600014156111c1576040805160008082526020820190925290610c6e565b60606001546040519080825280602002602001820160405280156111ef578160200160208202803883390190505b509050600060015b60015481116112b5576000818152602081905260409020600101546001600160a01b031633148061124157506000818152602081905260409020600201546001600160a01b031633145b801561126c5750600460008281526020819052604090206007015460ff16600881111561126a57fe5b145b156112ad57600081815260208190526040902054835184908490811061128e57fe5b60209081029190910101526112aa82600163ffffffff6142e916565b91505b6001016111f7565b506060816040519080825280602002602001820160405280156112e2578160200160208202803883390190505b50905060005b82811015610db4578381815181106112fc57fe5b602002602001015182828151811061131057fe5b60209081029190910101526001016112e8565b60025460ff1615156001146113695760405162461bcd60e51b81526004018080602001828103825260228152602001806144c66022913960400191505060405180910390fd5b835184906113b4576040805162461bcd60e51b815260206004820152601360248201527210481d1a5d1b19481a5cc81c995c5d5a5c9959606a1b604482015290519081900360640190fd5b83518490611405576040805162461bcd60e51b8152602060048201526019602482015278104819195cd8dc9a5c1d1a5bdb881a5cc81c995c5d5a5c9959603a1b604482015290519081900360640190fd5b8251839061145a576040805162461bcd60e51b815260206004820152601a60248201527f41206861736820746f2049504653206973207265717569726564000000000000604482015290519081900360640190fd5b6001805461146d9163ffffffff6142e916565b600181815560408051610100810182528381523360208083019182526000838501818152606085018f8152608086018f905260a086018e905260c086018d905260e0860188905297825281835294902083518155915194820180546001600160a01b039687166001600160a01b0319918216179091559351600283018054919096169416939093179093559251805161150c926003850192019061434a565b506080820151805161152891600484019160209091019061434a565b5060a0820151600582015560c0820151805161154e91600684019160209091019061434a565b5060e082015160078201805460ff1916600183600881111561156c57fe5b0217905550905050336001600160a01b03167fea07c326ec88ddea19d72529e511ce438c2cd368f463f890406ab6582b2dc0db600154898888604051808581526020018060200184815260200180602001838103835286818151815260200191508051906020019080838360005b838110156115f25781810151838201526020016115da565b50505050905090810190601f16801561161f5780820380516001836020036101000a031916815260200191505b50838103825284518152845160209182019186019080838360005b8381101561165257818101518382015260200161163a565b50505050905090810190601f16801561167f5780820380516001836020036101000a031916815260200191505b50965050505050505060405180910390a250505050505050565b60025460ff1615156001146116df5760405162461bcd60e51b81526004018080602001828103825260228152602001806144c66022913960400191505060405180910390fd5b600081815260208190526040902060018101546001600160a01b03166117055750610fac565b60018101546001600160a01b03163314611766576040805162461bcd60e51b815260206004820181905260248201527f596f7520617265206e6f74207468652070726f6a656374277320697373756572604482015290519081900360640190fd5b6003600782015460ff16600881111561177b57fe5b148061179957506004600782015460ff16600881111561179757fe5b145b6117e4576040805162461bcd60e51b815260206004820152601760248201527650726f6a656374206e6f7420696e2070726f677265737360481b604482015290519081900360640190fd5b600181015460058201546040516001600160a01b039092169181156108fc0291906000818181858888f19350505050158015611824573d6000803e3d6000fd5b5060078101805460ff19166006179055600280820154600180840154600585015460408051888152908101829052606060208201818152600389018054610100978116159790970260001901909616979097049082018190526001600160a01b039586169695909316947fbe0490d452ff53df72b8d99df1c2a4711a2429c8dbb450f514d37b0b03e0db37948994909392919060808301908590801561190b5780601f106118e05761010080835404028352916020019161190b565b820191906000526020600020905b8154815290600101906020018083116118ee57829003601f168201915b505094505050505060405180910390a35050565b60025461010090046001600160a01b0316331461196d5760405162461bcd60e51b81526004018080602001828103825260318152602001806145506031913960400191505060405180910390fd5b6002805460ff19166001179055565b60606001546000141561199f576040805160008082526020820190925290610c6e565b60606001546040519080825280602002602001820160405280156119cd578160200160208202803883390190505b509050600060015b6001548111611a6f576000818152602081905260409020600101546001600160a01b031615801590611a265750600160008281526020819052604090206007015460ff166008811115611a2457fe5b145b15611a67576000818152602081905260409020548351849084908110611a4857fe5b6020908102919091010152611a6482600163ffffffff6142e916565b91505b6001016119d5565b50606081604051908082528060200260200182016040528015611a9c578160200160208202803883390190505b50905060005b82811015610db457838181518110611ab657fe5b6020026020010151828281518110611aca57fe5b6020908102919091010152600101611aa2565b60025460ff161515600114611b235760405162461bcd60e51b81526004018080602001828103825260228152602001806144c66022913960400191505060405180910390fd5b611b2b6143c8565b6000828152602081815260409182902082516101008082018552825482526001808401546001600160a01b0390811684870152600280860154909116848801526003850180548851938116159094026000190190931604601f810186900486028201860190965285815291949293606086019390830182828015611bf05780601f10611bc557610100808354040283529160200191611bf0565b820191906000526020600020905b815481529060010190602001808311611bd357829003601f168201915b505050918352505060048201805460408051602060026001851615610100026000190190941693909304601f8101849004840282018401909252818152938201939291830182828015611c845780601f10611c5957610100808354040283529160200191611c84565b820191906000526020600020905b815481529060010190602001808311611c6757829003601f168201915b5050509183525050600582015460208083019190915260068301805460408051601f60026000196101006001871615020190941693909304928301859004850281018501825282815294019392830182828015611d225780601f10611cf757610100808354040283529160200191611d22565b820191906000526020600020905b815481529060010190602001808311611d0557829003601f168201915b5050509183525050600782015460209091019060ff166008811115611d4357fe5b6008811115611d4e57fe5b90525060208101519091506001600160a01b0316611d6c5750610fac565b60208101516001600160a01b03163314611db75760405162461bcd60e51b81526004018080602001828103825260268152602001806145096026913960400191505060405180910390fd5b60008160e001516008811115611dc957fe5b14611e055760405162461bcd60e51b81526004018080602001828103825260218152602001806144e86021913960400191505060405180910390fd5b606081015160008381526020819052604081208181556001810180546001600160a01b0319908116909155600282018054909116905590611e496003830182614429565b611e57600483016000614429565b6005820160009055600682016000611e6f9190614429565b50600701805460ff19169055604080518481526020808201838152845193830193909352835133937f0bac8d70ddda9ec612d317fa2968f6f746b59169d04a223ec870eb6447a7c7f49388938793919291606084019185019080838360005b83811015611ee6578181015183820152602001611ece565b50505050905090810190601f168015611f135780820380516001836020036101000a031916815260200191505b50935050505060405180910390a2505050565b606060015460001415611f49576040805160008082526020820190925290610c6e565b6060600154604051908082528060200260200182016040528015611f77578160200160208202803883390190505b509050600060015b600154811161203d576000818152602081905260409020600101546001600160a01b0316331480611fc957506000818152602081905260409020600201546001600160a01b031633145b8015611ff45750600560008281526020819052604090206007015460ff166008811115611ff257fe5b145b1561203557600081815260208190526040902054835184908490811061201657fe5b602090810291909101015261203282600163ffffffff6142e916565b91505b600101611f7f565b5060608160405190808252806020026020018201604052801561206a578160200160208202803883390190505b50905060005b82811015610db45783818151811061208457fe5b602002602001015182828151811061209857fe5b6020908102919091010152600101612070565b60025460ff1615156001146120f15760405162461bcd60e51b81526004018080602001828103825260228152602001806144c66022913960400191505060405180910390fd5b8251839061213c576040805162461bcd60e51b815260206004820152601360248201527210481d1a5d1b19481a5cc81c995c5d5a5c9959606a1b604482015290519081900360640190fd5b8251839061218d576040805162461bcd60e51b8152602060048201526019602482015278104819195cd8dc9a5c1d1a5bdb881a5cc81c995c5d5a5c9959603a1b604482015290519081900360640190fd5b600180546121a09163ffffffff6142e916565b600181815560408051610100810182528381523360208083019182526000838501818152606085018d8152608086018d905260a086018c90528651808501885283815260c087015260e0860183905297825281835294902083518155915194820180546001600160a01b039687166001600160a01b03199182161790915593516002830180549190961694169390931790935592518051612247926003850192019061434a565b506080820151805161226391600484019160209091019061434a565b5060a0820151600582015560c0820151805161228991600684019160209091019061434a565b5060e082015160078201805460ff191660018360088111156122a757fe5b0217905550905050336001600160a01b03167fc8e7a8f4fbf568a726fe7b162d56bb8a313fa7ec7f274c6390969cb322a0f79460015487866040518084815260200180602001838152602001828103825284818151815260200191508051906020019080838360005b83811015612328578181015183820152602001612310565b50505050905090810190601f1680156123555780820380516001836020036101000a031916815260200191505b5094505050505060405180910390a25050505050565b60025460ff1615156001146123b15760405162461bcd60e51b81526004018080602001828103825260228152602001806144c66022913960400191505060405180910390fd5b600081815260208190526040902060018101546001600160a01b03166123d75750610fac565b60018101546001600160a01b031633146124225760405162461bcd60e51b81526004018080602001828103825260268152602001806145096026913960400191505060405180910390fd5b6002600782015460ff16600881111561243757fe5b14612482576040805162461bcd60e51b815260206004820152601660248201527550726f706f73616c206e6f7420696e2072657669657760501b604482015290519081900360640190fd5b806005015434146124c45760405162461bcd60e51b815260040180806020018281038252602f815260200180614581602f913960400191505060405180910390fd5b60078101805460ff191660039081179091556002808301546001808501546005860154604080518981529081018290526060602082018181529789018054610100968116159690960260001901909516969096049581018690526001600160a01b039485169694909216947fd0ca6107f6c9513954ca859c885b1e8b434687b6cf5e40625574d53dda8422ed948994939160808301908590801561190b5780601f106118e05761010080835404028352916020019161190b565b60025460ff1615156001146125c45760405162461bcd60e51b81526004018080602001828103825260228152602001806144c66022913960400191505060405180910390fd5b600081815260208190526040902060018101546001600160a01b03166125ea5750610fac565b60028101546001600160a01b031633146126355760405162461bcd60e51b81526004018080602001828103825260218152602001806144a56021913960400191505060405180910390fd5b6003600782015460ff16600881111561264a57fe5b14612696576040805162461bcd60e51b815260206004820152601760248201527650726f6a656374206e6f7420696e2070726f677265737360481b604482015290519081900360640190fd5b60078101805460ff19166004179055600280820154600180840154600585015460408051888152908101829052606060208201818152600389018054610100978116159790970260001901909616979097049082018190526001600160a01b039586169695909316947f2c29e86efe7dba61218108fc48fc467f0b2d89a5dd6741ff0df4b17bdf5cab68948994909392919060808301908590801561190b5780601f106118e05761010080835404028352916020019161190b565b60025460ff1690565b60025460ff1615156001146127a05760405162461bcd60e51b81526004018080602001828103825260228152602001806144c66022913960400191505060405180910390fd5b600081815260208190526040902060018101546001600160a01b03166127c65750610fac565b6001600782015460ff1660088111156127db57fe5b1461282d576040805162461bcd60e51b815260206004820152601960248201527f50726f6a656374206e6f206d6f726520617661696c61626c6500000000000000604482015290519081900360640190fd5b600280820180546001600160a01b0319163317905560078201805460ff191660018302179055506001818101546005830154604080518681529081018290526060602082018181526003870180546002610100988216159890980260001901169690960491830182905233956001600160a01b03909516947f337b4516025ec150291d21f457dad5d6d43ea3f7da34432124932cd2a6b700b1948994919390929060808301908590801561190b5780601f106118e05761010080835404028352916020019161190b565b60025460ff16151560011461293d5760405162461bcd60e51b81526004018080602001828103825260228152602001806144c66022913960400191505060405180910390fd5b600081815260208190526040902060018101546001600160a01b03166129635750610fac565b60018101546001600160a01b031633146129ae5760405162461bcd60e51b81526004018080602001828103825260268152602001806145096026913960400191505060405180910390fd5b6004600782015460ff1660088111156129c357fe5b146129ff5760405162461bcd60e51b815260040180806020018281038252602181526020018061452f6021913960400191505060405180910390fd5b600281015460058201546040516001600160a01b039092169181156108fc0291906000818181858888f19350505050158015612a3f573d6000803e3d6000fd5b5060078101805460ff191660059081179091556002808301546001808501549385015460408051888152908101829052606060208201818152600389018054610100968116159690960260001901909516969096049082018190526001600160a01b039485169694909416947f72a87e41eb71c3d97ada3d99bed7a092d856bcdc4f034ef117099e051038cd7a9489949392919060808301908590801561190b5780601f106118e05761010080835404028352916020019161190b565b606060015460001415612b1f576040805160008082526020820190925290610c6e565b6060600154604051908082528060200260200182016040528015612b4d578160200160208202803883390190505b509050600060015b6001548111612bc2576000818152602081905260409020600101546001600160a01b031615612bba576000818152602081905260409020548351849084908110612b9b57fe5b6020908102919091010152612bb782600163ffffffff6142e916565b91505b600101612b55565b50606081604051908082528060200260200182016040528015612bef578160200160208202803883390190505b50905060005b82811015610db457838181518110612c0957fe5b6020026020010151828281518110612c1d57fe5b6020908102919091010152600101612bf5565b60025461010090046001600160a01b03163314612c7e5760405162461bcd60e51b81526004018080602001828103825260318152602001806145506031913960400191505060405180910390fd5b60025460ff161515600114612cc45760405162461bcd60e51b81526004018080602001828103825260228152602001806144c66022913960400191505060405180910390fd5b6002805460ff19169055600154612cda57612dc9565b6060600154604051908082528060200260200182016040528015612d08578160200160208202803883390190505b509050600060015b6001548111612dc55760008181526020819052604090206003600782015460ff166008811115612d3c57fe5b1480612d5a57506004600782015460ff166008811115612d5857fe5b145b15612dbc57600581015415612dab57600181015460058201546040516001600160a01b039092169181156108fc0291906000818181858888f19350505050158015612da9573d6000803e3d6000fd5b505b6007818101805460ff191690911790555b50600101612d10565b5050505b565b60025460ff161515600114612e115760405162461bcd60e51b81526004018080602001828103825260228152602001806144c66022913960400191505060405180910390fd5b600081815260208190526040902060018101546001600160a01b0316612e375750610fac565b60018101546001600160a01b03163314612e825760405162461bcd60e51b81526004018080602001828103825260268152602001806145096026913960400191505060405180910390fd5b6000600782015460ff166008811115612e9757fe5b14612edf576040805162461bcd60e51b815260206004820152601360248201527210d85b9b9bdd081899481c1d589b1a5cda1959606a1b604482015290519081900360640190fd5b60078101805460ff191660019081179091556005820154604080518581529081018290526080602082018181526003860180546002968116156101000260001901169590950491830182905233947fea07c326ec88ddea19d72529e511ce438c2cd368f463f890406ab6582b2dc0db9488949193909290606083019060a084019086908015612faf5780601f10612f8457610100808354040283529160200191612faf565b820191906000526020600020905b815481529060010190602001808311612f9257829003601f168201915b5050928303905250600081526040805191829003019350915050a25050565b60025460ff1615156001146130145760405162461bcd60e51b81526004018080602001828103825260228152602001806144c66022913960400191505060405180910390fd5b600084815260208190526040902060018101546001600160a01b031661303a5750613260565b60018101546001600160a01b031633146130855760405162461bcd60e51b81526004018080602001828103825260268152602001806145096026913960400191505060405180910390fd5b6000600782015460ff16600881111561309a57fe5b146130d65760405162461bcd60e51b81526004018080602001828103825260218152602001806144846021913960400191505060405180910390fd5b83518490613121576040805162461bcd60e51b815260206004820152601360248201527210481d1a5d1b19481a5cc81c995c5d5a5c9959606a1b604482015290519081900360640190fd5b83518490613172576040805162461bcd60e51b8152602060048201526019602482015278104819195cd8dc9a5c1d1a5bdb881a5cc81c995c5d5a5c9959603a1b604482015290519081900360640190fd5b8551613187906003850190602089019061434a565b50845161319d906004850190602088019061434a565b50838360050181905550336001600160a01b03167f78ec34897e7f5ea3506eaaa6dcf2edc5ea8eea1c579f1f3d158e55233c602e6960015488876040518084815260200180602001838152602001828103825284818151815260200191508051906020019080838360005b83811015613220578181015183820152602001613208565b50505050905090810190601f16801561324d5780820380516001836020036101000a031916815260200191505b5094505050505060405180910390a25050505b50505050565b60025460ff1615156001146132ac5760405162461bcd60e51b81526004018080602001828103825260228152602001806144c66022913960400191505060405180910390fd5b600081815260208190526040902060018101546001600160a01b03166132d25750610fac565b60018101546001600160a01b0316331461331d5760405162461bcd60e51b81526004018080602001828103825260268152602001806145096026913960400191505060405180910390fd5b6004600782015460ff16600881111561333257fe5b1461336e5760405162461bcd60e51b815260040180806020018281038252602181526020018061452f6021913960400191505060405180910390fd5b60078101805460ff191660039081179091556002808301546001808501546005860154604080518981529081018290526060602082018181529789018054610100968116159690960260001901909516969096049581018690526001600160a01b039485169694909216947f45db355d424e661e8b7ea210fd36cd8224f4955611152ce93518a27f205467e4948994939160808301908590801561190b5780601f106118e05761010080835404028352916020019161190b565b60025460ff16151560011461346e5760405162461bcd60e51b81526004018080602001828103825260228152602001806144c66022913960400191505060405180910390fd5b600081815260208190526040902060018101546001600160a01b03166134945750610fac565b60018101546001600160a01b031633146134df5760405162461bcd60e51b81526004018080602001828103825260268152602001806145096026913960400191505060405180910390fd5b6002600782015460ff1660088111156134f457fe5b1461353f576040805162461bcd60e51b815260206004820152601660248201527550726f706f73616c206e6f7420696e2072657669657760501b604482015290519081900360640190fd5b6002818101805460078401805460ff191660019081179091556001600160a01b0319821690925581840154600585015460408051888152908101829052606060208201818152600389018054610100988116159890980260001901909716979097049082018190526001600160a01b0394851696879695909416947f4c596893f217ff7756c8fc77bea24399406130928fc25e6ace71d6121fd2643f948a94919391926080830190859080156136365780601f1061360b57610100808354040283529160200191613636565b820191906000526020600020905b81548152906001019060200180831161361957829003601f168201915b505094505050505060405180910390a3505050565b60606001546000141561366e576040805160008082526020820190925290610c6e565b606060015460405190808252806020026020018201604052801561369c578160200160208202803883390190505b509050600060015b6001548111613762576000818152602081905260409020600101546001600160a01b03163314806136ee57506000818152602081905260409020600201546001600160a01b031633145b80156137195750600660008281526020819052604090206007015460ff16600881111561371757fe5b145b1561375a57600081815260208190526040902054835184908490811061373b57fe5b602090810291909101015261375782600163ffffffff6142e916565b91505b6001016136a4565b5060608160405190808252806020026020018201604052801561378f578160200160208202803883390190505b50905060005b82811015610db4578381815181106137a957fe5b60200260200101518282815181106137bd57fe5b6020908102919091010152600101613795565b6060600154600014156137f3576040805160008082526020820190925290610c6e565b6060600154604051908082528060200260200182016040528015613821578160200160208202803883390190505b509050600060015b6001548111613910576000818152602081905260409020600101546001600160a01b031633148061387357506000818152602081905260409020600201546001600160a01b031633145b80156138c75750600360008281526020819052604090206007015460ff16600881111561389c57fe5b14806138c75750600460008281526020819052604090206007015460ff1660088111156138c557fe5b145b156139085760008181526020819052604090205483518490849081106138e957fe5b602090810291909101015261390582600163ffffffff6142e916565b91505b600101613829565b5060608160405190808252806020026020018201604052801561393d578160200160208202803883390190505b50905060005b82811015610db45783818151811061395757fe5b602002602001015182828151811061396b57fe5b6020908102919091010152600101613943565b6060600154600014156139a1576040805160008082526020820190925290610c6e565b60606001546040519080825280602002602001820160405280156139cf578160200160208202803883390190505b509050600060015b6001548111613a9e576000818152602081905260409020600101546001600160a01b031633148015613a295750600560008281526020819052604090206007015460ff166008811115613a2657fe5b14155b8015613a555750600660008281526020819052604090206007015460ff166008811115613a5257fe5b14155b15613a96576000818152602081905260409020548351849084908110613a7757fe5b6020908102919091010152613a9382600163ffffffff6142e916565b91505b6001016139d7565b50606081604051908082528060200260200182016040528015613acb578160200160208202803883390190505b50905060005b82811015610db457838181518110613ae557fe5b6020026020010151828281518110613af957fe5b6020908102919091010152600101613ad1565b606060015460001415613b2f576040805160008082526020820190925290610c6e565b6060600154604051908082528060200260200182016040528015613b5d578160200160208202803883390190505b509050600060015b6001548111613bff576000818152602081905260409020600101546001600160a01b031633148015613bb65750600260008281526020819052604090206007015460ff166008811115613bb457fe5b145b15613bf7576000818152602081905260409020548351849084908110613bd857fe5b6020908102919091010152613bf482600163ffffffff6142e916565b91505b600101613b65565b50606081604051908082528060200260200182016040528015613c2c578160200160208202803883390190505b50905060005b82811015610db457838181518110613c4657fe5b6020026020010151828281518110613c5a57fe5b6020908102919091010152600101613c32565b60025460ff161515600114613cb35760405162461bcd60e51b81526004018080602001828103825260228152602001806144c66022913960400191505060405180910390fd5b600081815260208190526040902060018101546001600160a01b0316613cd95750610fac565b60028101546001600160a01b03163314613d245760405162461bcd60e51b81526004018080602001828103825260218152602001806144a56021913960400191505060405180910390fd5b6002600782015460ff166008811115613d3957fe5b14613d84576040805162461bcd60e51b815260206004820152601660248201527550726f706f73616c206e6f7420696e2072657669657760501b604482015290519081900360640190fd5b6002818101805460078401805460ff191660019081179091556001600160a01b0319821690925581840154600585015460408051888152908101829052606060208201818152600389018054610100988116159890980260001901909716979097049082018190526001600160a01b0394851696879695909416947fda2bae36f5d87ea886fd53cadaade9c848558e3ba0ce0b05a90d6203787fec45948a94919391926080830190859080156136365780601f1061360b57610100808354040283529160200191613636565b600080606080600080613e616143c8565b6000888152602081815260409182902082516101008082018552825482526001808401546001600160a01b0390811684870152600280860154909116848801526003850180548851938116159094026000190190931604601f810186900486028201860190965285815291949293606086019390830182828015613f265780601f10613efb57610100808354040283529160200191613f26565b820191906000526020600020905b815481529060010190602001808311613f0957829003601f168201915b505050918352505060048201805460408051602060026001851615610100026000190190941693909304601f8101849004840282018401909252818152938201939291830182828015613fba5780601f10613f8f57610100808354040283529160200191613fba565b820191906000526020600020905b815481529060010190602001808311613f9d57829003601f168201915b5050509183525050600582015460208083019190915260068301805460408051601f600260001961010060018716150201909416939093049283018590048502810185018252828152940193928301828280156140585780601f1061402d57610100808354040283529160200191614058565b820191906000526020600020905b81548152906001019060200180831161403b57829003601f168201915b5050509183525050600782015460209091019060ff16600881111561407957fe5b600881111561408457fe5b90525060208101519091506001600160a01b03166140cd5750506040805160208082018352600080835283519182019093528281529196508695509350915083905060086140fc565b602081015160408201516060830151608084015160a085015160e090950151939a509198509650945090925090505b91939550919395565b60025460ff16151560011461414b5760405162461bcd60e51b81526004018080602001828103825260228152602001806144c66022913960400191505060405180910390fd5b600081815260208190526040902060018101546001600160a01b03166141715750610fac565b60028101546001600160a01b031633146141bc5760405162461bcd60e51b81526004018080602001828103825260218152602001806144a56021913960400191505060405180910390fd5b6003600782015460ff1660088111156141d157fe5b1461421d576040805162461bcd60e51b815260206004820152601760248201527650726f6a656374206e6f7420696e2070726f677265737360481b604482015290519081900360640190fd5b6002818101805460078401805460ff191660019081179091556001600160a01b0319821690925581840154600585015460408051888152908101829052606060208201818152600389018054610100988116159890980260001901909716979097049082018190526001600160a01b0394851696879695909416947fd1ed06115c7e42f61501cf18bfd02f10359381afe0d93bc31f146a45a4fb78ab948a94919391926080830190859080156136365780601f1061360b57610100808354040283529160200191613636565b600082820183811015614343576040805162461bcd60e51b815260206004820152601b60248201527f536166654d6174683a206164646974696f6e206f766572666c6f770000000000604482015290519081900360640190fd5b9392505050565b828054600181600116156101000203166002900490600052602060002090601f016020900481019282601f1061438b57805160ff19168380011785556143b8565b828001600101855582156143b8579182015b828111156143b857825182559160200191906001019061439d565b506143c4929150614469565b5090565b6040518061010001604052806000815260200160006001600160a01b0316815260200160006001600160a01b03168152602001606081526020016060815260200160008152602001606081526020016000600881111561442457fe5b905290565b50805460018160011615610100020316600290046000825580601f1061444f5750610fac565b601f016020900490600052602060002090810190610fac91905b610dba91905b808211156143c4576000815560010161446f56fe43616e6e6f742062652075706461746564207768696c65207075626c6973686564596f7520617265206e6f742074686520736572766963652066756c66696c6c657254686520636f6e7472616374206973206e6f74206d6f726520617661696c61626c6543616e6e6f742062652072656d6f766564207768696c65207075626c6973686564596f7520617265206e6f742074686520697373756572206f6620746869732070726f6a65637450726f6a656374206e6f7420696e2076616c69646174696f6e2070726f63657373546869732063616c6c206973206f6e6c7920616c6c6f7765722062792074686520636f6e74726163742773206f776e6572596f7572206465706f73697420646f65736e2774206d617463682074686520636f6e74726163742773207072696365a265627a7a72315820b63351f98cfd134f751a4f4f3a85f480d3349b95dce2e87cf3e402b1c76a0dba64736f6c63430005100032",
  "source": "pragma solidity >=0.4.21 <0.7.0;\n\nimport \"openzeppelin-solidity/contracts/math/SafeMath.sol\";\n\n/// @title Decentralised business platform\n/// @author Said Eloudrhiri (ChainSkills) - Devoxx Morocco 2019\n/// @notice Learn how to create a smart contract to simulate a decentralised business platform to issue and fulfill projects\n/// @dev This smart contract is for illustration purpose only and should not be used in the mainNet\ncontract ChainBizz {\n    using SafeMath for uint256;\n\n    /*\n   * Enum\n   */\n\n    // Defines the status of the project\n    enum ProjectStatus {\n        Draft,\n        Available,\n        InReview,\n        OnGoing,\n        Validate,\n        Completed,\n        Canceled,\n        Refunded,\n        Unknown\n    }\n\n    /*\n   * Structs\n   */\n\n    // Description of a project\n    struct ProjectItem {\n        uint256 id; // unique ID\n        address payable issuer;\n        address payable fulfiller;\n        string title;\n        string description;\n        uint256 price; // price in Wei\n        string ipfsHash;\n        ProjectStatus status;\n    }\n\n    /*\n   * Storage\n   */\n\n    // List of projects\n    mapping(uint256 => ProjectItem) public projects;\n\n    // Number of registered projects\n    uint256 projectsCounter;\n\n    // Defines if the contract is still enable or not\n    bool enabledContract;\n\n    // Keep contract's issuer address\n    address owner;\n\n    /*\n   * Modifiers\n   */\n\n    modifier onlyEnable() {\n        require(enabledContract == true, \"The contract is not more available\");\n        _;\n    }\n\n    modifier onlyOwner() {\n        require(\n            msg.sender == owner,\n            \"This call is only allower by the contract's owner\"\n        );\n        _;\n    }\n\n    /*\n   * Events\n   */\n    event NewProject(\n        uint256 id,\n        address indexed issuer,\n        string title,\n        uint256 price\n    );\n    event UpdateProject(\n        uint256 id,\n        address indexed issuer,\n        string title,\n        uint256 price\n    );\n    event RemoveProject(uint256 id, address indexed issuer, string title);\n    event PublishedProject(\n        uint256 id,\n        address indexed issuer,\n        string title,\n        uint256 price,\n        string ipfsHash\n    );\n    event UnpublishedProject(\n        uint256 id,\n        address indexed issuer,\n        string title,\n        uint256 price\n    );\n    event OfferSubmitted(\n        uint256 id,\n        address indexed issuer,\n        address indexed fulfiller,\n        string title,\n        uint256 price\n    );\n    event OfferCanceled(\n        uint256 id,\n        address indexed issuer,\n        address indexed fulfiller,\n        string title,\n        uint256 price\n    );\n    event AcceptProposal(\n        uint256 id,\n        address indexed issuer,\n        address indexed fulfiller,\n        string title,\n        uint256 price\n    );\n    event RejectProposal(\n        uint256 id,\n        address indexed issuer,\n        address indexed fulfiller,\n        string title,\n        uint256 price\n    );\n    event ProjectDelivered(\n        uint256 id,\n        address indexed issuer,\n        address indexed fulfiller,\n        string title,\n        uint256 price\n    );\n    event ServicesCanceled(\n        uint256 id,\n        address indexed issuer,\n        address indexed fulfiller,\n        string title,\n        uint256 price\n    );\n    event DeliveryAccepted(\n        uint256 id,\n        address indexed issuer,\n        address indexed fulfiller,\n        string title,\n        uint256 price\n    );\n    event DeliveryRejected(\n        uint256 id,\n        address indexed issuer,\n        address indexed fulfiller,\n        string title,\n        uint256 price\n    );\n    event ContractCanceled(\n        uint256 id,\n        address indexed issuer,\n        address indexed fulfiller,\n        string title,\n        uint256 price\n    );\n\n    /*\n  * Public functions\n  */\n\n    constructor() public {\n        enabledContract = true;\n        owner = msg.sender;\n    }\n\n    /// @dev Enable the usage of the contract\n    function enableContract() public onlyOwner {\n        enabledContract = true;\n    }\n\n    /// @dev Disable the usage of the contract, change the status of all running projects and payback all issuers\n    function disableContract() public onlyOwner onlyEnable {\n        // First, we disable the contract\n        enabledContract = false;\n\n        // Then, we refund issuers for their running contracts\n\n        // At least one project?\n        if (projectsCounter == 0) {\n            return;\n        }\n\n        // prepare output array\n        uint256[] memory projectIDs = new uint256[](projectsCounter);\n\n        // iterate over projects\n        uint256 numberOfProjects = 0;\n        for (uint256 i = 1; i <= projectsCounter; i++) {\n            // retrieve the project\n            ProjectItem storage project = projects[i];\n\n            // check if this project is published\n            if (\n                (project.status == ProjectStatus.OnGoing) ||\n                (project.status == ProjectStatus.Validate)\n            ) {\n                // Refund the issuer\n                if (project.price > 0) {\n                    // pay back the issuer\n                    project.issuer.transfer(project.price);\n                }\n\n                // project refunded\n                project.status = ProjectStatus.Refunded;\n            }\n        }\n    }\n\n    //\n    // Setters\n    //\n\n    // Add a new project\n    function addProject(\n        string memory _title,\n        string memory _description,\n        uint256 _price\n    ) public onlyEnable {\n        // a title is required\n        bytes memory title = bytes(_title);\n        require(title.length > 0, \"A title is required\");\n\n        // a description is required\n        bytes memory description = bytes(_description);\n        require(description.length > 0, \"A description is required\");\n\n        // new project\n        projectsCounter = projectsCounter.add(1);\n\n        // store the new project\n        projects[projectsCounter] = ProjectItem(\n            projectsCounter,\n            msg.sender,\n            address(0x0),\n            _title,\n            _description,\n            _price,\n            \"\",\n            ProjectStatus.Draft\n        );\n\n        emit NewProject(projectsCounter, msg.sender, _title, _price);\n    }\n\n    // Update an unpublished project\n    function updateProject(\n        uint256 _id,\n        string memory _title,\n        string memory _description,\n        uint256 _price\n    ) public onlyEnable {\n        // retrieve the project\n        ProjectItem storage project = projects[_id];\n\n        // ensure that this project exists\n        if (project.issuer == address(0x0)) {\n            return;\n        }\n\n        // do we own this project?\n        require(\n            project.issuer == msg.sender,\n            \"You are not the issuer of this project\"\n        );\n\n        // ready to be published?\n        require(\n            project.status == ProjectStatus.Draft,\n            \"Cannot be updated while published\"\n        );\n\n        // a title is required\n        bytes memory title = bytes(_title);\n        require(title.length > 0, \"A title is required\");\n\n        // a description is required\n        bytes memory description = bytes(_description);\n        require(description.length > 0, \"A description is required\");\n\n        // update the project\n        project.title = _title;\n        project.description = _description;\n        project.price = _price;\n\n        emit UpdateProject(projectsCounter, msg.sender, _title, _price);\n    }\n\n    // Remove an unpublished project\n    function removeProject(uint256 _id) public onlyEnable {\n        // retrieve the project\n        ProjectItem memory project = projects[_id];\n\n        // ensure that this project exists\n        if (project.issuer == address(0x0)) {\n            return;\n        }\n\n        // do we own this project?\n        require(\n            project.issuer == msg.sender,\n            \"You are not the issuer of this project\"\n        );\n\n        // ready to be removed?\n        require(\n            project.status == ProjectStatus.Draft,\n            \"Cannot be removed while published\"\n        );\n\n        // keep title for future use\n        string memory title = project.title;\n\n        // remove the project\n        delete projects[_id];\n\n        emit RemoveProject(_id, msg.sender, title);\n    }\n\n    // Publish the project to seek for fulfillers\n    function publishProject(\n        string memory _title,\n        string memory _description,\n        uint256 _price,\n        string memory _ipfsHash\n    ) public onlyEnable {\n        // a title is required\n        bytes memory title = bytes(_title);\n        require(title.length > 0, \"A title is required\");\n\n        // a description is required\n        bytes memory description = bytes(_description);\n        require(description.length > 0, \"A description is required\");\n\n        // The hash to IPFS is required\n        bytes memory ipfsHash = bytes(_ipfsHash);\n        require(ipfsHash.length > 0, \"A hash to IPFS is required\");\n\n        // new project\n        projectsCounter = projectsCounter.add(1);\n\n        // store the new project\n        projects[projectsCounter] = ProjectItem(\n            projectsCounter,\n            msg.sender,\n            address(0x0),\n            _title,\n            _description,\n            _price,\n            _ipfsHash,\n            ProjectStatus.Available\n        );\n\n        emit PublishedProject(\n            projectsCounter,\n            msg.sender,\n            _title,\n            _price,\n            _ipfsHash\n        );\n    }\n\n    // Publish the project to seek for fulfillers\n    function publishProjectOld(uint256 _id) public onlyEnable {\n        // retrieve the project\n        ProjectItem storage project = projects[_id];\n\n        // ensure that this project exists\n        if (project.issuer == address(0x0)) {\n            return;\n        }\n\n        // do we own this project?\n        require(\n            project.issuer == msg.sender,\n            \"You are not the issuer of this project\"\n        );\n\n        // ready to be published?\n        require(project.status == ProjectStatus.Draft, \"Cannot be published\");\n\n        // publish the project to be available for services\n        project.status = ProjectStatus.Available;\n\n        emit PublishedProject(\n            _id,\n            msg.sender,\n            project.title,\n            project.price,\n            \"\"\n        );\n    }\n\n    // Unpublish the project\n    // A project can be unpublished ONLY if it's already published and not already part of a contract\n    function unpublishProject(uint256 _id) public onlyEnable {\n        // retrieve the project\n        ProjectItem storage project = projects[_id];\n\n        // ensure that this project exists\n        if (project.issuer == address(0x0)) {\n            return;\n        }\n\n        // do we own this project?\n        require(\n            project.issuer == msg.sender,\n            \"You are not the issuer of this project\"\n        );\n\n        // ready to be unpublished?\n        require(\n            project.status == ProjectStatus.Available,\n            \"Cannot be unpublished\"\n        );\n\n        // unpublish the project\n        project.status = ProjectStatus.Draft;\n\n        emit UnpublishedProject(_id, msg.sender, project.title, project.price);\n    }\n\n    // Offer services for the project\n    // A fulfiller offers his/her services to perform the project\n    function submitOffer(uint256 _id) public onlyEnable {\n        // retrieve the project\n        ProjectItem storage project = projects[_id];\n\n        // ensure that this project exists\n        if (project.issuer == address(0x0)) {\n            return;\n        }\n\n        // is the project available?\n        require(\n            project.status == ProjectStatus.Available,\n            \"Project no more available\"\n        );\n\n        // store the address of the fulfiller\n        project.fulfiller = msg.sender;\n\n        // project is under review\n        project.status = ProjectStatus.InReview;\n\n        emit OfferSubmitted(\n            _id,\n            project.issuer,\n            msg.sender,\n            project.title,\n            project.price\n        );\n    }\n\n    // Cancel offer made by the fulfiller\n    // A fulfiller cancels his/her offer to perform the project\n    function cancelOffer(uint256 _id) public onlyEnable {\n        // retrieve the project\n        ProjectItem storage project = projects[_id];\n\n        // ensure that this project exists\n        if (project.issuer == address(0x0)) {\n            return;\n        }\n\n        // are we the service fulfiller?\n        require(\n            project.fulfiller == msg.sender,\n            \"You are not the service fulfiller\"\n        );\n\n        // is the project in review?\n        require(\n            project.status == ProjectStatus.InReview,\n            \"Proposal not in review\"\n        );\n\n        // project is now available\n        address payable fulfiller = project.fulfiller;\n        project.status = ProjectStatus.Available;\n        project.fulfiller = address(0x0);\n\n        emit OfferCanceled(\n            _id,\n            project.issuer,\n            fulfiller,\n            project.title,\n            project.price\n        );\n    }\n\n    // Accept services from the fulfiller\n    // The issuer accepts the services offered by the fulfiller\n    function acceptProposal(uint256 _id) public payable onlyEnable {\n        // retrieve the project\n        ProjectItem storage project = projects[_id];\n\n        // ensure that this project exists\n        if (project.issuer == address(0x0)) {\n            return;\n        }\n\n        // do we own this project?\n        require(\n            project.issuer == msg.sender,\n            \"You are not the issuer of this project\"\n        );\n\n        // is the project in review?\n        require(\n            project.status == ProjectStatus.InReview,\n            \"Proposal not in review\"\n        );\n\n        // is the issuer has deposit the requeste amount?\n        require(\n            msg.value == project.price,\n            \"Your deposit doesn't match the contract's price\"\n        );\n\n        // project is now ongoing\n        project.status = ProjectStatus.OnGoing;\n\n        emit AcceptProposal(\n            _id,\n            project.issuer,\n            project.fulfiller,\n            project.title,\n            project.price\n        );\n    }\n\n    // Reject proposal from the fulfiller\n    // The issuer rejects the services offered by the fulfiller\n    function rejectProposal(uint256 _id) public onlyEnable {\n        // retrieve the project\n        ProjectItem storage project = projects[_id];\n\n        // ensure that this project exists\n        if (project.issuer == address(0x0)) {\n            return;\n        }\n\n        // do we own this project?\n        require(\n            project.issuer == msg.sender,\n            \"You are not the issuer of this project\"\n        );\n\n        // is the project in review?\n        require(\n            project.status == ProjectStatus.InReview,\n            \"Proposal not in review\"\n        );\n\n        // project is now available\n        address payable fulfiller = project.fulfiller;\n        project.status = ProjectStatus.Available;\n        project.fulfiller = address(0x0);\n\n        emit RejectProposal(\n            _id,\n            project.issuer,\n            fulfiller,\n            project.title,\n            project.price\n        );\n    }\n\n    // Deliver the project to the customer\n    // The fulfiller delivers the project to the issuer\n    function deliverProject(uint256 _id) public onlyEnable {\n        // retrieve the project\n        ProjectItem storage project = projects[_id];\n\n        // ensure that this project exists\n        if (project.issuer == address(0x0)) {\n            return;\n        }\n\n        // are we the service fulfiller?\n        require(\n            project.fulfiller == msg.sender,\n            \"You are not the service fulfiller\"\n        );\n\n        // is the project ongoing?\n        require(\n            project.status == ProjectStatus.OnGoing,\n            \"Project not in progress\"\n        );\n\n        // project is now validation process\n        project.status = ProjectStatus.Validate;\n\n        emit ProjectDelivered(\n            _id,\n            project.issuer,\n            project.fulfiller,\n            project.title,\n            project.price\n        );\n    }\n\n    // Cancel services from the fulfiller\n    // The fulfiller cancels the services performed for the project\n    function cancelServices(uint256 _id) public onlyEnable {\n        // retrieve the project\n        ProjectItem storage project = projects[_id];\n\n        // ensure that this project exists\n        if (project.issuer == address(0x0)) {\n            return;\n        }\n\n        // are we the service fulfiller?\n        require(\n            project.fulfiller == msg.sender,\n            \"You are not the service fulfiller\"\n        );\n\n        // is the project ongoing?\n        require(\n            project.status == ProjectStatus.OnGoing,\n            \"Project not in progress\"\n        );\n\n        // project becomes available\n        address payable fulfiller = project.fulfiller;\n        project.status = ProjectStatus.Available;\n        project.fulfiller = address(0x0);\n\n        emit ServicesCanceled(\n            _id,\n            project.issuer,\n            fulfiller,\n            project.title,\n            project.price\n        );\n    }\n\n    // Accept the project delivery from the fulfiller\n    // The issuer accepts the project delivered by the fulfiller\n    function acceptDelivery(uint256 _id) public onlyEnable {\n        // retrieve the project\n        ProjectItem storage project = projects[_id];\n\n        // ensure that this project exists\n        if (project.issuer == address(0x0)) {\n            return;\n        }\n\n        // do we own this project?\n        require(\n            project.issuer == msg.sender,\n            \"You are not the issuer of this project\"\n        );\n\n        // is the project in review?\n        require(\n            project.status == ProjectStatus.Validate,\n            \"Project not in validation process\"\n        );\n\n        // pay the service provide\n        project.fulfiller.transfer(project.price);\n\n        // project is now completed\n        project.status = ProjectStatus.Completed;\n\n        emit DeliveryAccepted(\n            _id,\n            project.issuer,\n            project.fulfiller,\n            project.title,\n            project.price\n        );\n    }\n\n    // Reject the project delivery from the fulfiller\n    // The issuer rejects the project delivered by the fulfiller\n    function rejectDelivery(uint256 _id) public onlyEnable {\n        // retrieve the project\n        ProjectItem storage project = projects[_id];\n\n        // ensure that this project exists\n        if (project.issuer == address(0x0)) {\n            return;\n        }\n\n        // do we own this project?\n        require(\n            project.issuer == msg.sender,\n            \"You are not the issuer of this project\"\n        );\n\n        // is the project in review?\n        require(\n            project.status == ProjectStatus.Validate,\n            \"Project not in validation process\"\n        );\n\n        // project remains ongoing\n        project.status = ProjectStatus.OnGoing;\n\n        emit DeliveryRejected(\n            _id,\n            project.issuer,\n            project.fulfiller,\n            project.title,\n            project.price\n        );\n    }\n\n    // Contract canceled by the issuer\n    // The issuer cancels the contract\n    function cancelContract(uint256 _id) public onlyEnable {\n        // retrieve the project\n        ProjectItem storage project = projects[_id];\n\n        // ensure that this project exists\n        if (project.issuer == address(0x0)) {\n            return;\n        }\n\n        // are we the service fulfiller?\n        require(\n            project.issuer == msg.sender,\n            \"You are not the project's issuer\"\n        );\n\n        // is the project ongoing?\n        require(\n            (project.status == ProjectStatus.OnGoing) ||\n                (project.status == ProjectStatus.Validate),\n            \"Project not in progress\"\n        );\n\n        // pay back the contract's issuer\n        project.issuer.transfer(project.price);\n\n        // contract becomes canceled\n        project.status = ProjectStatus.Canceled;\n\n        emit ContractCanceled(\n            _id,\n            project.issuer,\n            project.fulfiller,\n            project.title,\n            project.price\n        );\n    }\n\n    //\n    // Getters\n    //\n\n    // Retrieve if the contract is still enable or not\n    function isEnabled() public view returns (bool) {\n        return enabledContract;\n    }\n\n    // Retrieve a project from its id\n    function getProject(uint256 _id)\n        public\n        view\n        returns (\n            address issuer,\n            address fulfiller,\n            string memory title,\n            string memory description,\n            uint256 price,\n            ProjectStatus status\n        )\n    {\n        ProjectItem memory project = projects[_id];\n\n        // ensure that we have a project to fetch\n        if (project.issuer == address(0x0)) {\n            return (\n                address(0x0),\n                address(0x0),\n                \"\",\n                \"\",\n                0,\n                ProjectStatus.Unknown\n            );\n        }\n\n        return (\n            project.issuer,\n            project.fulfiller,\n            project.title,\n            project.description,\n            project.price,\n            project.status\n        );\n    }\n\n    // return all projects\n    function getAllProjects() public view returns (uint256[] memory) {\n        if (projectsCounter == 0) {\n            return new uint256[](0);\n        }\n\n        // prepare output array\n        uint256[] memory projectIDs = new uint256[](projectsCounter);\n\n        // iterate over projects\n        uint256 numberOfProjects = 0;\n        for (uint256 i = 1; i <= projectsCounter; i++) {\n            // skip deleted projects\n            if (projects[i].issuer != address(0x0)) {\n                projectIDs[numberOfProjects] = projects[i].id;\n                numberOfProjects = numberOfProjects.add(1);\n            }\n        }\n\n        // copy the project ID array into a smaller array\n        uint256[] memory allProjects = new uint256[](numberOfProjects);\n        for (uint256 j = 0; j < numberOfProjects; j++) {\n            allProjects[j] = projectIDs[j];\n        }\n\n        return allProjects;\n    }\n\n    // return all published projects\n    function getPublishedProjects() public view returns (uint256[] memory) {\n        if (projectsCounter == 0) {\n            return new uint256[](0);\n        }\n\n        // prepare output array\n        uint256[] memory projectIDs = new uint256[](projectsCounter);\n\n        // iterate over projects\n        uint256 numberOfProjects = 0;\n        for (uint256 i = 1; i <= projectsCounter; i++) {\n            // get only published and active projects\n            if (\n                (projects[i].issuer != address(0x0)) &&\n                (projects[i].status == ProjectStatus.Available)\n            ) {\n                projectIDs[numberOfProjects] = projects[i].id;\n                numberOfProjects = numberOfProjects.add(1);\n            }\n        }\n\n        // copy the project ID array into a smaller array\n        uint256[] memory allProjects = new uint256[](numberOfProjects);\n        for (uint256 j = 0; j < numberOfProjects; j++) {\n            allProjects[j] = projectIDs[j];\n        }\n\n        return allProjects;\n    }\n\n    // return all projects owned by the sender\n    function getMyProjects() public view returns (uint256[] memory) {\n        if (projectsCounter == 0) {\n            return new uint256[](0);\n        }\n\n        // prepare output array\n        uint256[] memory projectIDs = new uint256[](projectsCounter);\n\n        // iterate over projects\n        uint256 numberOfProjects = 0;\n        for (uint256 i = 1; i <= projectsCounter; i++) {\n            // keep the ID of the project owned by the caller\n            if (\n                (projects[i].issuer == msg.sender) &&\n                (projects[i].status != ProjectStatus.Completed) &&\n                (projects[i].status != ProjectStatus.Canceled)\n            ) {\n                projectIDs[numberOfProjects] = projects[i].id;\n\n                numberOfProjects = numberOfProjects.add(1);\n            }\n        }\n\n        // copy the project ID array into a smaller array\n        uint256[] memory myProjects = new uint256[](numberOfProjects);\n        for (uint256 j = 0; j < numberOfProjects; j++) {\n            myProjects[j] = projectIDs[j];\n        }\n\n        return myProjects;\n    }\n\n    // return all my offers waiting for review\n    function getMyOffers() public view returns (uint256[] memory) {\n        if (projectsCounter == 0) {\n            return new uint256[](0);\n        }\n\n        // prepare output array\n        uint256[] memory projectIDs = new uint256[](projectsCounter);\n\n        // iterate over projects\n        uint256 numberOfProjects = 0;\n        for (uint256 i = 1; i <= projectsCounter; i++) {\n            // keep the ID of the project with the sender as fulfiller and the project still in review process\n            if (\n                (projects[i].fulfiller == msg.sender) &&\n                (projects[i].status == ProjectStatus.InReview)\n            ) {\n                projectIDs[numberOfProjects] = projects[i].id;\n\n                numberOfProjects = numberOfProjects.add(1);\n            }\n        }\n\n        // copy the project ID array into a smaller array\n        uint256[] memory myOffers = new uint256[](numberOfProjects);\n        for (uint256 j = 0; j < numberOfProjects; j++) {\n            myOffers[j] = projectIDs[j];\n        }\n\n        return myOffers;\n    }\n\n    // return all projects waiting for review\n    function getMyReviews() public view returns (uint256[] memory) {\n        if (projectsCounter == 0) {\n            return new uint256[](0);\n        }\n\n        // prepare output array\n        uint256[] memory projectIDs = new uint256[](projectsCounter);\n\n        // iterate over projects\n        uint256 numberOfProjects = 0;\n        for (uint256 i = 1; i <= projectsCounter; i++) {\n            // keep the ID of the project owned by the caller and the project still in review process\n            if (\n                (projects[i].issuer == msg.sender) &&\n                (projects[i].status == ProjectStatus.InReview)\n            ) {\n                projectIDs[numberOfProjects] = projects[i].id;\n\n                numberOfProjects = numberOfProjects.add(1);\n            }\n        }\n\n        // copy the project ID array into a smaller array\n        uint256[] memory myReviews = new uint256[](numberOfProjects);\n        for (uint256 j = 0; j < numberOfProjects; j++) {\n            myReviews[j] = projectIDs[j];\n        }\n\n        return myReviews;\n    }\n\n    // return all ongoing contracts\n    function getMyContracts() public view returns (uint256[] memory) {\n        if (projectsCounter == 0) {\n            return new uint256[](0);\n        }\n\n        // prepare output array\n        uint256[] memory projectIDs = new uint256[](projectsCounter);\n\n        // iterate over projects\n        uint256 numberOfProjects = 0;\n        for (uint256 i = 1; i <= projectsCounter; i++) {\n            // get only ongoing and under validation contracts owned by the issuer or the service fulfiller\n            if (\n                ((projects[i].issuer == msg.sender) ||\n                    (projects[i].fulfiller == msg.sender)) &&\n                ((projects[i].status == ProjectStatus.OnGoing) ||\n                    (projects[i].status == ProjectStatus.Validate))\n            ) {\n                projectIDs[numberOfProjects] = projects[i].id;\n                numberOfProjects = numberOfProjects.add(1);\n            }\n        }\n\n        // copy the project ID array into a smaller array\n        uint256[] memory myContracts = new uint256[](numberOfProjects);\n        for (uint256 j = 0; j < numberOfProjects; j++) {\n            myContracts[j] = projectIDs[j];\n        }\n\n        return myContracts;\n    }\n\n    // return all deliveries to review\n    function getDeliveries() public view returns (uint256[] memory) {\n        if (projectsCounter == 0) {\n            return new uint256[](0);\n        }\n\n        // prepare output array\n        uint256[] memory projectIDs = new uint256[](projectsCounter);\n\n        // iterate over projects\n        uint256 numberOfProjects = 0;\n        for (uint256 i = 1; i <= projectsCounter; i++) {\n            // get only ongoing projects issued by the issuer or the fulfiller\n            if (\n                ((projects[i].issuer == msg.sender) ||\n                    (projects[i].fulfiller == msg.sender)) &&\n                (projects[i].status == ProjectStatus.Validate)\n            ) {\n                projectIDs[numberOfProjects] = projects[i].id;\n                numberOfProjects = numberOfProjects.add(1);\n            }\n        }\n\n        // copy the project ID array into a smaller array\n        uint256[] memory myDeliveries = new uint256[](numberOfProjects);\n        for (uint256 j = 0; j < numberOfProjects; j++) {\n            myDeliveries[j] = projectIDs[j];\n        }\n\n        return myDeliveries;\n    }\n\n    // return all completed contracts\n    function getCompleted() public view returns (uint256[] memory) {\n        if (projectsCounter == 0) {\n            return new uint256[](0);\n        }\n\n        // prepare output array\n        uint256[] memory projectIDs = new uint256[](projectsCounter);\n\n        // iterate over projects\n        uint256 numberOfProjects = 0;\n        for (uint256 i = 1; i <= projectsCounter; i++) {\n            // get only ongoing projects issued by the issuer or the fulfiller\n            if (\n                ((projects[i].issuer == msg.sender) ||\n                    (projects[i].fulfiller == msg.sender)) &&\n                (projects[i].status == ProjectStatus.Completed)\n            ) {\n                projectIDs[numberOfProjects] = projects[i].id;\n                numberOfProjects = numberOfProjects.add(1);\n            }\n        }\n\n        // copy the project ID array into a smaller array\n        uint256[] memory myCompleted = new uint256[](numberOfProjects);\n        for (uint256 j = 0; j < numberOfProjects; j++) {\n            myCompleted[j] = projectIDs[j];\n        }\n\n        return myCompleted;\n    }\n\n    // return all canceled contracts\n    function getCanceled() public view returns (uint256[] memory) {\n        if (projectsCounter == 0) {\n            return new uint256[](0);\n        }\n\n        // prepare output array\n        uint256[] memory projectIDs = new uint256[](projectsCounter);\n\n        // iterate over projects\n        uint256 numberOfProjects = 0;\n        for (uint256 i = 1; i <= projectsCounter; i++) {\n            // get only ongoing projects issued by the issuer or the fulfiller\n            if (\n                ((projects[i].issuer == msg.sender) ||\n                    (projects[i].fulfiller == msg.sender)) &&\n                (projects[i].status == ProjectStatus.Canceled)\n            ) {\n                projectIDs[numberOfProjects] = projects[i].id;\n                numberOfProjects = numberOfProjects.add(1);\n            }\n        }\n\n        // copy the project ID array into a smaller array\n        uint256[] memory myCanceled = new uint256[](numberOfProjects);\n        for (uint256 j = 0; j < numberOfProjects; j++) {\n            myCanceled[j] = projectIDs[j];\n        }\n\n        return myCanceled;\n    }\n}\n",
  "sourcePath": "/Users/eloudsa/ChainSkills/chainbizz/contracts/ChainBizz.sol",
  "compiler": {
    "name": "solc",
    "version": "0.5.16+commit.9c3226ce.Emscripten.clang"
  },
  "schemaVersion": "3.0.23",
  "updatedAt": "2020-02-16T19:09:19.694Z",
  "networkType": "ethereum",
  "devdoc": {
    "author": "Said Eloudrhiri (ChainSkills) - Devoxx Morocco 2019",
    "details": "This smart contract is for illustration purpose only and should not be used in the mainNet",
    "methods": {
      "disableContract()": {
        "details": "Disable the usage of the contract, change the status of all running projects and payback all issuers"
      },
      "enableContract()": {
        "details": "Enable the usage of the contract"
      }
    },
    "title": "Decentralised business platform"
  },
  "userdoc": {
    "methods": {},
    "notice": "Learn how to create a smart contract to simulate a decentralised business platform to issue and fulfill projects"
  }
}