{
  "contractName": "ChainBizz",
  "abi": [
    {
      "inputs": [],
      "payable": false,
      "stateMutability": "nonpayable",
      "type": "constructor"
    },
    {
      "anonymous": false,
      "inputs": [
        {
          "indexed": false,
          "internalType": "uint256",
          "name": "id",
          "type": "uint256"
        },
        {
          "indexed": true,
          "internalType": "address",
          "name": "issuer",
          "type": "address"
        },
        {
          "indexed": true,
          "internalType": "address",
          "name": "fulfiller",
          "type": "address"
        },
        {
          "indexed": false,
          "internalType": "string",
          "name": "title",
          "type": "string"
        },
        {
          "indexed": false,
          "internalType": "uint256",
          "name": "price",
          "type": "uint256"
        }
      ],
      "name": "AcceptProposal",
      "type": "event"
    },
    {
      "anonymous": false,
      "inputs": [
        {
          "indexed": false,
          "internalType": "uint256",
          "name": "id",
          "type": "uint256"
        },
        {
          "indexed": true,
          "internalType": "address",
          "name": "issuer",
          "type": "address"
        },
        {
          "indexed": true,
          "internalType": "address",
          "name": "fulfiller",
          "type": "address"
        },
        {
          "indexed": false,
          "internalType": "string",
          "name": "title",
          "type": "string"
        },
        {
          "indexed": false,
          "internalType": "uint256",
          "name": "price",
          "type": "uint256"
        }
      ],
      "name": "ContractCanceled",
      "type": "event"
    },
    {
      "anonymous": false,
      "inputs": [
        {
          "indexed": false,
          "internalType": "uint256",
          "name": "id",
          "type": "uint256"
        },
        {
          "indexed": true,
          "internalType": "address",
          "name": "issuer",
          "type": "address"
        },
        {
          "indexed": true,
          "internalType": "address",
          "name": "fulfiller",
          "type": "address"
        },
        {
          "indexed": false,
          "internalType": "string",
          "name": "title",
          "type": "string"
        },
        {
          "indexed": false,
          "internalType": "uint256",
          "name": "price",
          "type": "uint256"
        }
      ],
      "name": "DeliveryAccepted",
      "type": "event"
    },
    {
      "anonymous": false,
      "inputs": [
        {
          "indexed": false,
          "internalType": "uint256",
          "name": "id",
          "type": "uint256"
        },
        {
          "indexed": true,
          "internalType": "address",
          "name": "issuer",
          "type": "address"
        },
        {
          "indexed": true,
          "internalType": "address",
          "name": "fulfiller",
          "type": "address"
        },
        {
          "indexed": false,
          "internalType": "string",
          "name": "title",
          "type": "string"
        },
        {
          "indexed": false,
          "internalType": "uint256",
          "name": "price",
          "type": "uint256"
        }
      ],
      "name": "DeliveryRejected",
      "type": "event"
    },
    {
      "anonymous": false,
      "inputs": [
        {
          "indexed": false,
          "internalType": "uint256",
          "name": "id",
          "type": "uint256"
        },
        {
          "indexed": true,
          "internalType": "address",
          "name": "issuer",
          "type": "address"
        },
        {
          "indexed": false,
          "internalType": "string",
          "name": "title",
          "type": "string"
        },
        {
          "indexed": false,
          "internalType": "uint256",
          "name": "price",
          "type": "uint256"
        }
      ],
      "name": "NewProject",
      "type": "event"
    },
    {
      "anonymous": false,
      "inputs": [
        {
          "indexed": false,
          "internalType": "uint256",
          "name": "id",
          "type": "uint256"
        },
        {
          "indexed": true,
          "internalType": "address",
          "name": "issuer",
          "type": "address"
        },
        {
          "indexed": true,
          "internalType": "address",
          "name": "fulfiller",
          "type": "address"
        },
        {
          "indexed": false,
          "internalType": "string",
          "name": "title",
          "type": "string"
        },
        {
          "indexed": false,
          "internalType": "uint256",
          "name": "price",
          "type": "uint256"
        }
      ],
      "name": "OfferCanceled",
      "type": "event"
    },
    {
      "anonymous": false,
      "inputs": [
        {
          "indexed": false,
          "internalType": "uint256",
          "name": "id",
          "type": "uint256"
        },
        {
          "indexed": true,
          "internalType": "address",
          "name": "issuer",
          "type": "address"
        },
        {
          "indexed": true,
          "internalType": "address",
          "name": "fulfiller",
          "type": "address"
        },
        {
          "indexed": false,
          "internalType": "string",
          "name": "title",
          "type": "string"
        },
        {
          "indexed": false,
          "internalType": "uint256",
          "name": "price",
          "type": "uint256"
        }
      ],
      "name": "OfferSubmitted",
      "type": "event"
    },
    {
      "anonymous": false,
      "inputs": [
        {
          "indexed": false,
          "internalType": "uint256",
          "name": "id",
          "type": "uint256"
        },
        {
          "indexed": true,
          "internalType": "address",
          "name": "issuer",
          "type": "address"
        },
        {
          "indexed": true,
          "internalType": "address",
          "name": "fulfiller",
          "type": "address"
        },
        {
          "indexed": false,
          "internalType": "string",
          "name": "title",
          "type": "string"
        },
        {
          "indexed": false,
          "internalType": "uint256",
          "name": "price",
          "type": "uint256"
        }
      ],
      "name": "ProjectDelivered",
      "type": "event"
    },
    {
      "anonymous": false,
      "inputs": [
        {
          "indexed": false,
          "internalType": "uint256",
          "name": "id",
          "type": "uint256"
        },
        {
          "indexed": true,
          "internalType": "address",
          "name": "issuer",
          "type": "address"
        },
        {
          "indexed": false,
          "internalType": "string",
          "name": "title",
          "type": "string"
        },
        {
          "indexed": false,
          "internalType": "uint256",
          "name": "price",
          "type": "uint256"
        },
        {
          "indexed": false,
          "internalType": "string",
          "name": "ipfsHash",
          "type": "string"
        }
      ],
      "name": "PublishedProject",
      "type": "event"
    },
    {
      "anonymous": false,
      "inputs": [
        {
          "indexed": false,
          "internalType": "uint256",
          "name": "id",
          "type": "uint256"
        },
        {
          "indexed": true,
          "internalType": "address",
          "name": "issuer",
          "type": "address"
        },
        {
          "indexed": false,
          "internalType": "uint256[]",
          "name": "ratings",
          "type": "uint256[]"
        }
      ],
      "name": "RatingsFulFiller",
      "type": "event"
    },
    {
      "anonymous": false,
      "inputs": [
        {
          "indexed": false,
          "internalType": "uint256",
          "name": "id",
          "type": "uint256"
        },
        {
          "indexed": true,
          "internalType": "address",
          "name": "fulfiller",
          "type": "address"
        },
        {
          "indexed": false,
          "internalType": "uint256[]",
          "name": "ratings",
          "type": "uint256[]"
        }
      ],
      "name": "RatingsIssuer",
      "type": "event"
    },
    {
      "anonymous": false,
      "inputs": [
        {
          "indexed": false,
          "internalType": "uint256",
          "name": "id",
          "type": "uint256"
        },
        {
          "indexed": true,
          "internalType": "address",
          "name": "issuer",
          "type": "address"
        },
        {
          "indexed": true,
          "internalType": "address",
          "name": "fulfiller",
          "type": "address"
        },
        {
          "indexed": false,
          "internalType": "string",
          "name": "title",
          "type": "string"
        },
        {
          "indexed": false,
          "internalType": "uint256",
          "name": "price",
          "type": "uint256"
        }
      ],
      "name": "RejectProposal",
      "type": "event"
    },
    {
      "anonymous": false,
      "inputs": [
        {
          "indexed": false,
          "internalType": "uint256",
          "name": "id",
          "type": "uint256"
        },
        {
          "indexed": true,
          "internalType": "address",
          "name": "issuer",
          "type": "address"
        },
        {
          "indexed": false,
          "internalType": "string",
          "name": "title",
          "type": "string"
        }
      ],
      "name": "RemoveProject",
      "type": "event"
    },
    {
      "anonymous": false,
      "inputs": [
        {
          "indexed": false,
          "internalType": "uint256",
          "name": "id",
          "type": "uint256"
        },
        {
          "indexed": true,
          "internalType": "address",
          "name": "issuer",
          "type": "address"
        },
        {
          "indexed": true,
          "internalType": "address",
          "name": "fulfiller",
          "type": "address"
        },
        {
          "indexed": false,
          "internalType": "string",
          "name": "title",
          "type": "string"
        },
        {
          "indexed": false,
          "internalType": "uint256",
          "name": "price",
          "type": "uint256"
        }
      ],
      "name": "ServicesCanceled",
      "type": "event"
    },
    {
      "anonymous": false,
      "inputs": [
        {
          "indexed": false,
          "internalType": "uint256",
          "name": "id",
          "type": "uint256"
        },
        {
          "indexed": true,
          "internalType": "address",
          "name": "issuer",
          "type": "address"
        },
        {
          "indexed": false,
          "internalType": "string",
          "name": "title",
          "type": "string"
        },
        {
          "indexed": false,
          "internalType": "uint256",
          "name": "price",
          "type": "uint256"
        }
      ],
      "name": "UnpublishedProject",
      "type": "event"
    },
    {
      "anonymous": false,
      "inputs": [
        {
          "indexed": false,
          "internalType": "uint256",
          "name": "id",
          "type": "uint256"
        },
        {
          "indexed": true,
          "internalType": "address",
          "name": "issuer",
          "type": "address"
        },
        {
          "indexed": false,
          "internalType": "string",
          "name": "title",
          "type": "string"
        },
        {
          "indexed": false,
          "internalType": "uint256",
          "name": "price",
          "type": "uint256"
        }
      ],
      "name": "UpdateProject",
      "type": "event"
    },
    {
      "constant": true,
      "inputs": [
        {
          "internalType": "uint256",
          "name": "",
          "type": "uint256"
        }
      ],
      "name": "projects",
      "outputs": [
        {
          "internalType": "uint256",
          "name": "id",
          "type": "uint256"
        },
        {
          "internalType": "address payable",
          "name": "issuer",
          "type": "address"
        },
        {
          "internalType": "address payable",
          "name": "fulfiller",
          "type": "address"
        },
        {
          "internalType": "string",
          "name": "title",
          "type": "string"
        },
        {
          "internalType": "uint256",
          "name": "price",
          "type": "uint256"
        },
        {
          "internalType": "string",
          "name": "ipfsHash",
          "type": "string"
        },
        {
          "internalType": "enum ChainBizz.ProjectStatus",
          "name": "status",
          "type": "uint8"
        },
        {
          "internalType": "bool",
          "name": "ratingsIssuerDone",
          "type": "bool"
        },
        {
          "internalType": "bool",
          "name": "ratingsFulfillerDone",
          "type": "bool"
        }
      ],
      "payable": false,
      "stateMutability": "view",
      "type": "function"
    },
    {
      "constant": false,
      "inputs": [],
      "name": "enableContract",
      "outputs": [],
      "payable": false,
      "stateMutability": "nonpayable",
      "type": "function"
    },
    {
      "constant": false,
      "inputs": [],
      "name": "disableContract",
      "outputs": [],
      "payable": false,
      "stateMutability": "nonpayable",
      "type": "function"
    },
    {
      "constant": false,
      "inputs": [
        {
          "internalType": "string",
          "name": "_title",
          "type": "string"
        },
        {
          "internalType": "uint256",
          "name": "_price",
          "type": "uint256"
        }
      ],
      "name": "addProject",
      "outputs": [],
      "payable": false,
      "stateMutability": "nonpayable",
      "type": "function"
    },
    {
      "constant": false,
      "inputs": [
        {
          "internalType": "uint256",
          "name": "_id",
          "type": "uint256"
        },
        {
          "internalType": "string",
          "name": "_title",
          "type": "string"
        },
        {
          "internalType": "uint256",
          "name": "_price",
          "type": "uint256"
        }
      ],
      "name": "updateProject",
      "outputs": [],
      "payable": false,
      "stateMutability": "nonpayable",
      "type": "function"
    },
    {
      "constant": false,
      "inputs": [
        {
          "internalType": "uint256",
          "name": "_id",
          "type": "uint256"
        }
      ],
      "name": "removeProject",
      "outputs": [],
      "payable": false,
      "stateMutability": "nonpayable",
      "type": "function"
    },
    {
      "constant": false,
      "inputs": [
        {
          "internalType": "string",
          "name": "_title",
          "type": "string"
        },
        {
          "internalType": "uint256",
          "name": "_price",
          "type": "uint256"
        },
        {
          "internalType": "string",
          "name": "_ipfsHash",
          "type": "string"
        }
      ],
      "name": "publishProject",
      "outputs": [],
      "payable": false,
      "stateMutability": "nonpayable",
      "type": "function"
    },
    {
      "constant": false,
      "inputs": [
        {
          "internalType": "uint256",
          "name": "_id",
          "type": "uint256"
        }
      ],
      "name": "publishProjectOld",
      "outputs": [],
      "payable": false,
      "stateMutability": "nonpayable",
      "type": "function"
    },
    {
      "constant": false,
      "inputs": [
        {
          "internalType": "uint256",
          "name": "_id",
          "type": "uint256"
        }
      ],
      "name": "unpublishProject",
      "outputs": [],
      "payable": false,
      "stateMutability": "nonpayable",
      "type": "function"
    },
    {
      "constant": false,
      "inputs": [
        {
          "internalType": "uint256",
          "name": "_id",
          "type": "uint256"
        }
      ],
      "name": "submitOffer",
      "outputs": [],
      "payable": false,
      "stateMutability": "nonpayable",
      "type": "function"
    },
    {
      "constant": false,
      "inputs": [
        {
          "internalType": "uint256",
          "name": "_id",
          "type": "uint256"
        }
      ],
      "name": "cancelOffer",
      "outputs": [],
      "payable": false,
      "stateMutability": "nonpayable",
      "type": "function"
    },
    {
      "constant": false,
      "inputs": [
        {
          "internalType": "uint256",
          "name": "_id",
          "type": "uint256"
        }
      ],
      "name": "acceptProposal",
      "outputs": [],
      "payable": true,
      "stateMutability": "payable",
      "type": "function"
    },
    {
      "constant": false,
      "inputs": [
        {
          "internalType": "uint256",
          "name": "_id",
          "type": "uint256"
        }
      ],
      "name": "rejectProposal",
      "outputs": [],
      "payable": false,
      "stateMutability": "nonpayable",
      "type": "function"
    },
    {
      "constant": false,
      "inputs": [
        {
          "internalType": "uint256",
          "name": "_id",
          "type": "uint256"
        }
      ],
      "name": "deliverProject",
      "outputs": [],
      "payable": false,
      "stateMutability": "nonpayable",
      "type": "function"
    },
    {
      "constant": false,
      "inputs": [
        {
          "internalType": "uint256",
          "name": "_id",
          "type": "uint256"
        }
      ],
      "name": "cancelServices",
      "outputs": [],
      "payable": false,
      "stateMutability": "nonpayable",
      "type": "function"
    },
    {
      "constant": false,
      "inputs": [
        {
          "internalType": "uint256",
          "name": "_id",
          "type": "uint256"
        }
      ],
      "name": "acceptDelivery",
      "outputs": [],
      "payable": false,
      "stateMutability": "nonpayable",
      "type": "function"
    },
    {
      "constant": false,
      "inputs": [
        {
          "internalType": "uint256",
          "name": "_id",
          "type": "uint256"
        },
        {
          "internalType": "uint256[]",
          "name": "_ratings",
          "type": "uint256[]"
        }
      ],
      "name": "setRatingsFulfiller",
      "outputs": [],
      "payable": false,
      "stateMutability": "nonpayable",
      "type": "function"
    },
    {
      "constant": false,
      "inputs": [
        {
          "internalType": "uint256",
          "name": "_id",
          "type": "uint256"
        },
        {
          "internalType": "uint256[]",
          "name": "_ratings",
          "type": "uint256[]"
        }
      ],
      "name": "setRatingsIssuer",
      "outputs": [],
      "payable": false,
      "stateMutability": "nonpayable",
      "type": "function"
    },
    {
      "constant": false,
      "inputs": [
        {
          "internalType": "uint256",
          "name": "_id",
          "type": "uint256"
        }
      ],
      "name": "rejectDelivery",
      "outputs": [],
      "payable": false,
      "stateMutability": "nonpayable",
      "type": "function"
    },
    {
      "constant": false,
      "inputs": [
        {
          "internalType": "uint256",
          "name": "_id",
          "type": "uint256"
        }
      ],
      "name": "cancelContract",
      "outputs": [],
      "payable": false,
      "stateMutability": "nonpayable",
      "type": "function"
    },
    {
      "constant": true,
      "inputs": [],
      "name": "isEnabled",
      "outputs": [
        {
          "internalType": "bool",
          "name": "",
          "type": "bool"
        }
      ],
      "payable": false,
      "stateMutability": "view",
      "type": "function"
    },
    {
      "constant": true,
      "inputs": [
        {
          "internalType": "uint256",
          "name": "_id",
          "type": "uint256"
        }
      ],
      "name": "getProject",
      "outputs": [
        {
          "internalType": "address",
          "name": "issuer",
          "type": "address"
        },
        {
          "internalType": "address",
          "name": "fulfiller",
          "type": "address"
        },
        {
          "internalType": "string",
          "name": "title",
          "type": "string"
        },
        {
          "internalType": "uint256",
          "name": "price",
          "type": "uint256"
        },
        {
          "internalType": "string",
          "name": "ipfsHash",
          "type": "string"
        },
        {
          "internalType": "enum ChainBizz.ProjectStatus",
          "name": "status",
          "type": "uint8"
        },
        {
          "internalType": "bool",
          "name": "ratingsIssuerDone",
          "type": "bool"
        },
        {
          "internalType": "bool",
          "name": "ratingsFulfillerDone",
          "type": "bool"
        },
        {
          "internalType": "uint256[]",
          "name": "ratingsIssuer",
          "type": "uint256[]"
        },
        {
          "internalType": "uint256[]",
          "name": "ratingsFulfiller",
          "type": "uint256[]"
        }
      ],
      "payable": false,
      "stateMutability": "view",
      "type": "function"
    },
    {
      "constant": true,
      "inputs": [],
      "name": "getAllProjects",
      "outputs": [
        {
          "internalType": "uint256[]",
          "name": "",
          "type": "uint256[]"
        }
      ],
      "payable": false,
      "stateMutability": "view",
      "type": "function"
    },
    {
      "constant": true,
      "inputs": [],
      "name": "getPublishedProjects",
      "outputs": [
        {
          "internalType": "uint256[]",
          "name": "",
          "type": "uint256[]"
        }
      ],
      "payable": false,
      "stateMutability": "view",
      "type": "function"
    },
    {
      "constant": true,
      "inputs": [],
      "name": "getMyProjects",
      "outputs": [
        {
          "internalType": "uint256[]",
          "name": "",
          "type": "uint256[]"
        }
      ],
      "payable": false,
      "stateMutability": "view",
      "type": "function"
    },
    {
      "constant": true,
      "inputs": [],
      "name": "getMyOffers",
      "outputs": [
        {
          "internalType": "uint256[]",
          "name": "",
          "type": "uint256[]"
        }
      ],
      "payable": false,
      "stateMutability": "view",
      "type": "function"
    },
    {
      "constant": true,
      "inputs": [],
      "name": "getMyReviews",
      "outputs": [
        {
          "internalType": "uint256[]",
          "name": "",
          "type": "uint256[]"
        }
      ],
      "payable": false,
      "stateMutability": "view",
      "type": "function"
    },
    {
      "constant": true,
      "inputs": [],
      "name": "getMyContracts",
      "outputs": [
        {
          "internalType": "uint256[]",
          "name": "",
          "type": "uint256[]"
        }
      ],
      "payable": false,
      "stateMutability": "view",
      "type": "function"
    },
    {
      "constant": true,
      "inputs": [],
      "name": "getDeliveries",
      "outputs": [
        {
          "internalType": "uint256[]",
          "name": "",
          "type": "uint256[]"
        }
      ],
      "payable": false,
      "stateMutability": "view",
      "type": "function"
    },
    {
      "constant": true,
      "inputs": [],
      "name": "getCompleted",
      "outputs": [
        {
          "internalType": "uint256[]",
          "name": "",
          "type": "uint256[]"
        }
      ],
      "payable": false,
      "stateMutability": "view",
      "type": "function"
    },
    {
      "constant": true,
      "inputs": [],
      "name": "getCanceled",
      "outputs": [
        {
          "internalType": "uint256[]",
          "name": "",
          "type": "uint256[]"
        }
      ],
      "payable": false,
      "stateMutability": "view",
      "type": "function"
    }
  ],
  "bytecode": "0x608060405234801561001057600080fd5b5060028054600160ff1990911617610100600160a81b0319166101003302179055614cc0806100406000396000f3fe6080604052600436106101d85760003560e01c80636f65c71711610102578063bc28d87811610095578063ef1b655311610064578063ef1b655314610a49578063ef706adf14610a5e578063f0f3f2c814610a88578063f7f2ccbf14610c62576101d8565b8063bc28d878146109e0578063bd140c4b14610a0a578063c81bde1514610a1f578063e4f655b014610a34576101d8565b806380d03829116100d157806380d0382914610962578063894ba8331461097757806391ed20691461098c578063b85a72d2146109b6576101d8565b80636f65c7171461071b57806372f7c34e146107455780637b422c4c146108835780637dde9c6e146108ad576101d8565b806329ba314b1161017a5780635b54f982116101495780635b54f9821461069657806360c5cc3a146106ab578063629a064e146106c85780636aa633b6146106f2576101d8565b806329ba314b1461058f578063367edd32146106425780634beb7e94146106575780635873f9981461066c576101d8565b8063107046bd116101b6578063107046bd14610328578063138e0b261461049b5780632779df25146104b05780632804745014610565576101d8565b8063037852c7146101dd5780630850cd1e146102425780630a9605431461026e575b600080fd5b3480156101e957600080fd5b506101f2610c8c565b60408051602080825283518183015283519192839290830191858101910280838360005b8381101561022e578181015183820152602001610216565b505050509050019250505060405180910390f35b34801561024e57600080fd5b5061026c6004803603602081101561026557600080fd5b5035610dfa565b005b34801561027a57600080fd5b5061026c6004803603606081101561029157600080fd5b81359190810190604081016020820135600160201b8111156102b257600080fd5b8201836020820111156102c457600080fd5b803590602001918460018302840111600160201b831117156102e557600080fd5b91908080601f0160208091040260200160405190810160405280939291908181526020018383808284376000920191909152509295505091359250610fec915050565b34801561033457600080fd5b506103526004803603602081101561034b57600080fd5b503561121b565b604051808a8152602001896001600160a01b03166001600160a01b03168152602001886001600160a01b03166001600160a01b0316815260200180602001878152602001806020018660088111156103a657fe5b60ff1681526020018515151515815260200184151515158152602001838103835289818151815260200191508051906020019080838360005b838110156103f75781810151838201526020016103df565b50505050905090810190601f1680156104245780820380516001836020036101000a031916815260200191505b50838103825287518152875160209182019189019080838360005b8381101561045757818101518382015260200161043f565b50505050905090810190601f1680156104845780820380516001836020036101000a031916815260200191505b509b50505050505050505050505060405180910390f35b3480156104a757600080fd5b506101f261138d565b3480156104bc57600080fd5b5061026c600480360360408110156104d357600080fd5b81359190810190604081016020820135600160201b8111156104f457600080fd5b82018360208201111561050657600080fd5b803590602001918460208302840111600160201b8311171561052757600080fd5b919080806020026020016040519081016040528093929190818152602001838360200280828437600092019190915250929550611512945050505050565b34801561057157600080fd5b5061026c6004803603602081101561058857600080fd5b5035611795565b34801561059b57600080fd5b5061026c600480360360408110156105b257600080fd5b810190602081018135600160201b8111156105cc57600080fd5b8201836020820111156105de57600080fd5b803590602001918460018302840111600160201b831117156105ff57600080fd5b91908080601f0160208091040260200160405190810160405280939291908181526020018383808284376000920191909152509295505091359250611a1c915050565b34801561064e57600080fd5b5061026c611d45565b34801561066357600080fd5b506101f2611da2565b34801561067857600080fd5b5061026c6004803603602081101561068f57600080fd5b5035611f03565b3480156106a257600080fd5b506101f2612364565b61026c600480360360208110156106c157600080fd5b50356124e9565b3480156106d457600080fd5b5061026c600480360360208110156106eb57600080fd5b50356126fc565b3480156106fe57600080fd5b506107076128d0565b604080519115158252519081900360200190f35b34801561072757600080fd5b5061026c6004803603602081101561073e57600080fd5b50356128d9565b34801561075157600080fd5b5061026c6004803603606081101561076857600080fd5b810190602081018135600160201b81111561078257600080fd5b82018360208201111561079457600080fd5b803590602001918460018302840111600160201b831117156107b557600080fd5b91908080601f01602080910402602001604051908101604052809392919081815260200183838082843760009201919091525092958435959094909350604081019250602001359050600160201b81111561080f57600080fd5b82018360208201111561082157600080fd5b803590602001918460018302840111600160201b8311171561084257600080fd5b91908080601f016020809104026020016040519081016040528093929190818152602001838380828437600092019190915250929550612a76945050505050565b34801561088f57600080fd5b5061026c600480360360208110156108a657600080fd5b5035612e50565b3480156108b957600080fd5b5061026c600480360360408110156108d057600080fd5b81359190810190604081016020820135600160201b8111156108f157600080fd5b82018360208201111561090357600080fd5b803590602001918460208302840111600160201b8311171561092457600080fd5b919080806020026020016040519081016040528093929190818152602001838360200280828437600092019190915250929550613054945050505050565b34801561096e57600080fd5b506101f26132d1565b34801561098357600080fd5b5061026c613405565b34801561099857600080fd5b5061026c600480360360208110156109af57600080fd5b503561359b565b3480156109c257600080fd5b5061026c600480360360208110156109d957600080fd5b503561379e565b3480156109ec57600080fd5b5061026c60048036036020811015610a0357600080fd5b5035613960565b348015610a1657600080fd5b506101f2613b83565b348015610a2b57600080fd5b506101f2613d08565b348015610a4057600080fd5b506101f2613eb6565b348015610a5557600080fd5b506101f2614044565b348015610a6a57600080fd5b5061026c60048036036020811015610a8157600080fd5b50356141a5565b348015610a9457600080fd5b50610ab260048036036020811015610aab57600080fd5b5035614388565b604080516001600160a01b03808d1682528b166020820152606081018990529081016080820160a08301886008811115610ae857fe5b60ff1681526020018715151515815260200186151515158152602001806020018060200185810385528d818151815260200191508051906020019080838360005b83811015610b41578181015183820152602001610b29565b50505050905090810190601f168015610b6e5780820380516001836020036101000a031916815260200191505b5085810384528b5181528b516020918201918d019080838360005b83811015610ba1578181015183820152602001610b89565b50505050905090810190601f168015610bce5780820380516001836020036101000a031916815260200191505b508581038352875181528751602091820191808a01910280838360005b83811015610c03578181015183820152602001610beb565b50505050905001858103825286818151815260200191508051906020019060200280838360005b83811015610c42578181015183820152602001610c2a565b505050509050019e50505050505050505050505050505060405180910390f35b348015610c6e57600080fd5b5061026c60048036036020811015610c8557600080fd5b503561473e565b606060015460001415610cb35760408051600080825260208201909252905b509050610df7565b6060600154604051908082528060200260200182016040528015610ce1578160200160208202803883390190505b509050600060015b6001548111610d83576000818152602081905260409020600201546001600160a01b031633148015610d3a5750600260008281526020819052604090206006015460ff166008811115610d3857fe5b145b15610d7b576000818152602081905260409020548351849084908110610d5c57fe5b6020908102919091010152610d7882600163ffffffff61492216565b91505b600101610ce9565b50606081604051908082528060200260200182016040528015610db0578160200160208202803883390190505b50905060005b82811015610df157838181518110610dca57fe5b6020026020010151828281518110610dde57fe5b6020908102919091010152600101610db6565b50925050505b90565b60025460ff161515600114610e405760405162461bcd60e51b8152600401808060200182810382526022815260200180614b9a6022913960400191505060405180910390fd5b600081815260208190526040902060018101546001600160a01b0316610e665750610fe9565b60018101546001600160a01b03163314610eb15760405162461bcd60e51b8152600401808060200182810382526026815260200180614bbc6026913960400191505060405180910390fd5b6001600682015460ff166008811115610ec657fe5b14610f10576040805162461bcd60e51b815260206004820152601560248201527410d85b9b9bdd081899481d5b9c1d589b1a5cda1959605a1b604482015290519081900360640190fd5b60068101805460ff191690556004810154604080518481529081018290526060602082018181526003850180546002600182161561010002600019019091160492840183905233947f3525d4593ef70f97d7b99dfeab0e0be748aeb51f464f83bf0bbf5ab6badb45c894889492939192909190608083019085908015610fd75780601f10610fac57610100808354040283529160200191610fd7565b820191906000526020600020905b815481529060010190602001808311610fba57829003601f168201915b505094505050505060405180910390a2505b50565b60025460ff1615156001146110325760405162461bcd60e51b8152600401808060200182810382526022815260200180614b9a6022913960400191505060405180910390fd5b600083815260208190526040902060018101546001600160a01b03166110585750611216565b60018101546001600160a01b031633146110a35760405162461bcd60e51b8152600401808060200182810382526026815260200180614bbc6026913960400191505060405180910390fd5b6000600682015460ff1660088111156110b857fe5b146110f45760405162461bcd60e51b8152600401808060200182810382526021815260200180614b586021913960400191505060405180910390fd5b8251839061113f576040805162461bcd60e51b815260206004820152601360248201527210481d1a5d1b19481a5cc81c995c5d5a5c9959606a1b604482015290519081900360640190fd5b83516111549060038401906020870190614983565b50828260040181905550336001600160a01b03167f78ec34897e7f5ea3506eaaa6dcf2edc5ea8eea1c579f1f3d158e55233c602e6960015486866040518084815260200180602001838152602001828103825284818151815260200191508051906020019080838360005b838110156111d75781810151838201526020016111bf565b50505050905090810190601f1680156112045780820380516001836020036101000a031916815260200191505b5094505050505060405180910390a250505b505050565b60006020818152918152604090819020805460018083015460028085015460038601805488516101009682161596909602600019011692909204601f810189900489028501890190975286845293966001600160a01b03928316969290941694939091908301828280156112d05780601f106112a5576101008083540402835291602001916112d0565b820191906000526020600020905b8154815290600101906020018083116112b357829003601f168201915b50505050600483015460058401805460408051602060026001851615610100026000190190941693909304601f810184900484028201840190925281815295969395939450908301828280156113675780601f1061133c57610100808354040283529160200191611367565b820191906000526020600020905b81548152906001019060200180831161134a57829003601f168201915b5050506006909301549192505060ff808216916101008104821691620100009091041689565b6060600154600014156113b0576040805160008082526020820190925290610cab565b60606001546040519080825280602002602001820160405280156113de578160200160208202803883390190505b509050600060015b60015481116114a4576000818152602081905260409020600101546001600160a01b031633148061143057506000818152602081905260409020600201546001600160a01b031633145b801561145b5750600460008281526020819052604090206006015460ff16600881111561145957fe5b145b1561149c57600081815260208190526040902054835184908490811061147d57fe5b602090810291909101015261149982600163ffffffff61492216565b91505b6001016113e6565b506060816040519080825280602002602001820160405280156114d1578160200160208202803883390190505b50905060005b82811015610df1578381815181106114eb57fe5b60200260200101518282815181106114ff57fe5b60209081029190910101526001016114d7565b60025460ff1615156001146115585760405162461bcd60e51b8152600401808060200182810382526022815260200180614b9a6022913960400191505060405180910390fd5b600082815260208190526040902060068082015460ff16600881111561157a57fe5b148061159857506005600682015460ff16600881111561159657fe5b145b6115e5576040805162461bcd60e51b8152602060048201526019602482015278141c9bda9958dd081b9bdd081e595d08199a5b985b1a5cd959603a1b604482015290519081900360640190fd5b60018101546001600160a01b03166115fd5750611791565b60018101546001600160a01b031633146116485760405162461bcd60e51b8152600401808060200182810382526026815260200180614bbc6026913960400191505060405180910390fd5b600681015462010000900460ff16156116925760405162461bcd60e51b8152600401808060200182810382526026815260200180614b326026913960400191505060405180910390fd5b6006825111156116d35760405162461bcd60e51b8152600401808060200182810382526026815260200180614b0c6026913960400191505060405180910390fd5b81516116e89060088301906020850190614a01565b5060068101805462ff0000191662010000179055600181015460408051858152602081018281526008850180549383018490526001600160a01b03909416937fa1555a03b388d659ecb566f62d10590b459283a0d2829882262a15aaaf04a3c293889391929060608301908490801561178057602002820191906000526020600020905b81548152602001906001019080831161176c575b5050935050505060405180910390a2505b5050565b60025460ff1615156001146117db5760405162461bcd60e51b8152600401808060200182810382526022815260200180614b9a6022913960400191505060405180910390fd5b600081815260208190526040902060018101546001600160a01b03166118015750610fe9565b60018101546001600160a01b03163314611862576040805162461bcd60e51b815260206004820181905260248201527f596f7520617265206e6f74207468652070726f6a656374277320697373756572604482015290519081900360640190fd5b6003600682015460ff16600881111561187757fe5b148061189557506004600682015460ff16600881111561189357fe5b145b6118e0576040805162461bcd60e51b815260206004820152601760248201527650726f6a656374206e6f7420696e2070726f677265737360481b604482015290519081900360640190fd5b600181015460048201546040516001600160a01b039092169181156108fc0291906000818181858888f19350505050158015611920573d6000803e3d6000fd5b506006818101805460ff19169091179055600280820154600180840154600485015460408051888152908101829052606060208201818152600389018054610100978116159790970260001901909616979097049082018190526001600160a01b039586169695909316947fbe0490d452ff53df72b8d99df1c2a4711a2429c8dbb450f514d37b0b03e0db379489949093929190608083019085908015611a085780601f106119dd57610100808354040283529160200191611a08565b820191906000526020600020905b8154815290600101906020018083116119eb57829003601f168201915b505094505050505060405180910390a35050565b60025460ff161515600114611a625760405162461bcd60e51b8152600401808060200182810382526022815260200180614b9a6022913960400191505060405180910390fd5b81518290611aad576040805162461bcd60e51b815260206004820152601360248201527210481d1a5d1b19481a5cc81c995c5d5a5c9959606a1b604482015290519081900360640190fd5b60018054611ac09163ffffffff61492216565b600181905560408051610160810182529182523360208084019190915260008383018190526060840187905260808085018790528351808401855282815260a08087019190915260c0860183905260e08601839052610100860192909252835160048082529281019094526101208501939283019080388339505050815260408051600680825260e08201909252602092830192909190820160c08038833950505090526001805460009081526020818152604091829020845181558482015193810180546001600160a01b03199081166001600160a01b03968716179091559285015160028201805490941694169390931790915560608301518051611bcd9260038501920190614983565b506080820151600482015560a08201518051611bf3916005840191602090910190614983565b5060c082015160068201805460ff19166001836008811115611c1157fe5b021790555060e08201516006820180546101008086015161ff0019909216931515029290921762ff0000191662010000921515929092029190911790556101208201518051611c6a916007840191602090910190614a01565b506101408201518051611c87916008840191602090910190614a01565b50905050336001600160a01b03167fc8e7a8f4fbf568a726fe7b162d56bb8a313fa7ec7f274c6390969cb322a0f79460015485856040518084815260200180602001838152602001828103825284818151815260200191508051906020019080838360005b83811015611d04578181015183820152602001611cec565b50505050905090810190601f168015611d315780820380516001836020036101000a031916815260200191505b5094505050505060405180910390a2505050565b60025461010090046001600160a01b03163314611d935760405162461bcd60e51b8152600401808060200182810382526031815260200180614c036031913960400191505060405180910390fd5b6002805460ff19166001179055565b606060015460001415611dc5576040805160008082526020820190925290610cab565b6060600154604051908082528060200260200182016040528015611df3578160200160208202803883390190505b509050600060015b6001548111611e95576000818152602081905260409020600101546001600160a01b031615801590611e4c5750600160008281526020819052604090206006015460ff166008811115611e4a57fe5b145b15611e8d576000818152602081905260409020548351849084908110611e6e57fe5b6020908102919091010152611e8a82600163ffffffff61492216565b91505b600101611dfb565b50606081604051908082528060200260200182016040528015611ec2578160200160208202803883390190505b50905060005b82811015610df157838181518110611edc57fe5b6020026020010151828281518110611ef057fe5b6020908102919091010152600101611ec8565b60025460ff161515600114611f495760405162461bcd60e51b8152600401808060200182810382526022815260200180614b9a6022913960400191505060405180910390fd5b611f51614a3b565b60008281526020818152604091829020825161016081018452815481526001808301546001600160a01b03908116838601526002808501549091168387015260038401805487516101009482161594909402600019011691909104601f81018690048602830186019096528582529194929360608601939192919083018282801561201d5780601f10611ff25761010080835404028352916020019161201d565b820191906000526020600020905b81548152906001019060200180831161200057829003601f168201915b5050509183525050600482015460208083019190915260058301805460408051601f600260001961010060018716150201909416939093049283018590048502810185018252828152940193928301828280156120bb5780601f10612090576101008083540402835291602001916120bb565b820191906000526020600020905b81548152906001019060200180831161209e57829003601f168201915b5050509183525050600682015460209091019060ff1660088111156120dc57fe5b60088111156120e757fe5b8152600682015460ff61010082048116151560208085019190915262010000909204161515604080840191909152600784018054825181850281018501909352808352606090940193919290919083018282801561216457602002820191906000526020600020905b815481526020019060010190808311612150575b50505050508152602001600882018054806020026020016040519081016040528092919081815260200182805480156121bc57602002820191906000526020600020905b8154815260200190600101908083116121a8575b5050509190925250505060208101519091506001600160a01b03166121e15750610fe9565b60208101516001600160a01b0316331461222c5760405162461bcd60e51b8152600401808060200182810382526026815260200180614bbc6026913960400191505060405180910390fd5b606081015160008381526020819052604081208181556001810180546001600160a01b03199081169091556002820180549091169055906122706003830182614a93565b60048201600090556005820160006122889190614a93565b60068201805462ffffff191690556122a4600783016000614ad7565b6122b2600883016000614ad7565b5050336001600160a01b03167f0bac8d70ddda9ec612d317fa2968f6f746b59169d04a223ec870eb6447a7c7f484836040518083815260200180602001828103825283818151815260200191508051906020019080838360005b8381101561232457818101518382015260200161230c565b50505050905090810190601f1680156123515780820380516001836020036101000a031916815260200191505b50935050505060405180910390a2505050565b606060015460001415612387576040805160008082526020820190925290610cab565b60606001546040519080825280602002602001820160405280156123b5578160200160208202803883390190505b509050600060015b600154811161247b576000818152602081905260409020600101546001600160a01b031633148061240757506000818152602081905260409020600201546001600160a01b031633145b80156124325750600560008281526020819052604090206006015460ff16600881111561243057fe5b145b1561247357600081815260208190526040902054835184908490811061245457fe5b602090810291909101015261247082600163ffffffff61492216565b91505b6001016123bd565b506060816040519080825280602002602001820160405280156124a8578160200160208202803883390190505b50905060005b82811015610df1578381815181106124c257fe5b60200260200101518282815181106124d657fe5b60209081029190910101526001016124ae565b60025460ff16151560011461252f5760405162461bcd60e51b8152600401808060200182810382526022815260200180614b9a6022913960400191505060405180910390fd5b600081815260208190526040902060018101546001600160a01b03166125555750610fe9565b60018101546001600160a01b031633146125a05760405162461bcd60e51b8152600401808060200182810382526026815260200180614bbc6026913960400191505060405180910390fd5b6002600682015460ff1660088111156125b557fe5b14612600576040805162461bcd60e51b815260206004820152601660248201527550726f706f73616c206e6f7420696e2072657669657760501b604482015290519081900360640190fd5b806004015434146126425760405162461bcd60e51b815260040180806020018281038252602f815260200180614c5d602f913960400191505060405180910390fd5b60068101805460ff191660039081179091556002808301546001808501546004860154604080518981529081018290526060602082018181529789018054610100968116159690960260001901909516969096049581018690526001600160a01b039485169694909216947fd0ca6107f6c9513954ca859c885b1e8b434687b6cf5e40625574d53dda8422ed9489949391608083019085908015611a085780601f106119dd57610100808354040283529160200191611a08565b60025460ff1615156001146127425760405162461bcd60e51b8152600401808060200182810382526022815260200180614b9a6022913960400191505060405180910390fd5b600081815260208190526040902060018101546001600160a01b03166127685750610fe9565b60028101546001600160a01b031633146127b35760405162461bcd60e51b8152600401808060200182810382526021815260200180614b796021913960400191505060405180910390fd5b6003600682015460ff1660088111156127c857fe5b14612814576040805162461bcd60e51b815260206004820152601760248201527650726f6a656374206e6f7420696e2070726f677265737360481b604482015290519081900360640190fd5b60068101805460ff191660049081179091556002808301546001808501549385015460408051888152908101829052606060208201818152600389018054610100968116159690960260001901909516969096049082018190526001600160a01b039485169694909416947f2c29e86efe7dba61218108fc48fc467f0b2d89a5dd6741ff0df4b17bdf5cab6894899493929190608083019085908015611a085780601f106119dd57610100808354040283529160200191611a08565b60025460ff1690565b60025460ff16151560011461291f5760405162461bcd60e51b8152600401808060200182810382526022815260200180614b9a6022913960400191505060405180910390fd5b600081815260208190526040902060018101546001600160a01b03166129455750610fe9565b6001600682015460ff16600881111561295a57fe5b146129ac576040805162461bcd60e51b815260206004820152601960248201527f50726f6a656374206e6f206d6f726520617661696c61626c6500000000000000604482015290519081900360640190fd5b600280820180546001600160a01b0319163317905560068201805460ff191660018302179055506001818101546004830154604080518681529081018290526060602082018181526003870180546002610100988216159890980260001901169690960491830182905233956001600160a01b03909516947f337b4516025ec150291d21f457dad5d6d43ea3f7da34432124932cd2a6b700b19489949193909290608083019085908015611a085780601f106119dd57610100808354040283529160200191611a08565b60025460ff161515600114612abc5760405162461bcd60e51b8152600401808060200182810382526022815260200180614b9a6022913960400191505060405180910390fd5b82518390612b07576040805162461bcd60e51b815260206004820152601360248201527210481d1a5d1b19481a5cc81c995c5d5a5c9959606a1b604482015290519081900360640190fd5b81518290612b5c576040805162461bcd60e51b815260206004820152601a60248201527f41206861736820746f2049504653206973207265717569726564000000000000604482015290519081900360640190fd5b60018054612b6f9163ffffffff61492216565b60018181556040805161016081018252928352336020840152600090830152606082018790526080820186905260a0820185905260c08201908152600060208083018290526040808401929092528151600480825260a0820190935260609093019291908201608080388339505050815260408051600680825260e08201909252602092830192909190820160c08038833950505090526001805460009081526020818152604091829020845181558482015193810180546001600160a01b03199081166001600160a01b03968716179091559285015160028201805490941694169390931790915560608301518051612c6f9260038501920190614983565b506080820151600482015560a08201518051612c95916005840191602090910190614983565b5060c082015160068201805460ff19166001836008811115612cb357fe5b021790555060e08201516006820180546101008086015161ff0019909216931515029290921762ff0000191662010000921515929092029190911790556101208201518051612d0c916007840191602090910190614a01565b506101408201518051612d29916008840191602090910190614a01565b50905050336001600160a01b03167fea07c326ec88ddea19d72529e511ce438c2cd368f463f890406ab6582b2dc0db600154878787604051808581526020018060200184815260200180602001838103835286818151815260200191508051906020019080838360005b83811015612dab578181015183820152602001612d93565b50505050905090810190601f168015612dd85780820380516001836020036101000a031916815260200191505b50838103825284518152845160209182019186019080838360005b83811015612e0b578181015183820152602001612df3565b50505050905090810190601f168015612e385780820380516001836020036101000a031916815260200191505b50965050505050505060405180910390a25050505050565b60025460ff161515600114612e965760405162461bcd60e51b8152600401808060200182810382526022815260200180614b9a6022913960400191505060405180910390fd5b600081815260208190526040902060018101546001600160a01b0316612ebc5750610fe9565b60018101546001600160a01b03163314612f075760405162461bcd60e51b8152600401808060200182810382526026815260200180614bbc6026913960400191505060405180910390fd5b6004600682015460ff166008811115612f1c57fe5b14612f585760405162461bcd60e51b8152600401808060200182810382526021815260200180614be26021913960400191505060405180910390fd5b600281015460048201546040516001600160a01b039092169181156108fc0291906000818181858888f19350505050158015612f98573d6000803e3d6000fd5b5060068101805460ff19166005179055600280820154600180840154600485015460408051888152908101829052606060208201818152600389018054610100978116159790970260001901909616979097049082018190526001600160a01b039586169695909316947f72a87e41eb71c3d97ada3d99bed7a092d856bcdc4f034ef117099e051038cd7a9489949093929190608083019085908015611a085780601f106119dd57610100808354040283529160200191611a08565b60025460ff16151560011461309a5760405162461bcd60e51b8152600401808060200182810382526022815260200180614b9a6022913960400191505060405180910390fd5b600082815260208190526040902060068082015460ff1660088111156130bc57fe5b14806130da57506005600682015460ff1660088111156130d857fe5b145b613127576040805162461bcd60e51b8152602060048201526019602482015278141c9bda9958dd081b9bdd081e595d08199a5b985b1a5cd959603a1b604482015290519081900360640190fd5b60018101546001600160a01b031661313f5750611791565b6006810154610100900460ff16156131885760405162461bcd60e51b8152600401808060200182810382526026815260200180614b326026913960400191505060405180910390fd5b60028101546001600160a01b031633146131d35760405162461bcd60e51b8152600401808060200182810382526029815260200180614c346029913960400191505060405180910390fd5b6004825111156132145760405162461bcd60e51b8152600401808060200182810382526026815260200180614b0c6026913960400191505060405180910390fd5b81516132299060078301906020850190614a01565b5060068101805461ff001916610100179055600281015460408051858152602081018281526007850180549383018490526001600160a01b03909416937f302217e0f5d9a629b94eb6808aacbbfb80af259708456e33124728c358460d53938893919290606083019084908015611780576020028201919060005260206000209081548152602001906001019080831161176c575050935050505060405180910390a2505050565b6060600154600014156132f4576040805160008082526020820190925290610cab565b6060600154604051908082528060200260200182016040528015613322578160200160208202803883390190505b509050600060015b6001548111613397576000818152602081905260409020600101546001600160a01b03161561338f57600081815260208190526040902054835184908490811061337057fe5b602090810291909101015261338c82600163ffffffff61492216565b91505b60010161332a565b506060816040519080825280602002602001820160405280156133c4578160200160208202803883390190505b50905060005b82811015610df1578381815181106133de57fe5b60200260200101518282815181106133f257fe5b60209081029190910101526001016133ca565b60025461010090046001600160a01b031633146134535760405162461bcd60e51b8152600401808060200182810382526031815260200180614c036031913960400191505060405180910390fd5b60025460ff1615156001146134995760405162461bcd60e51b8152600401808060200182810382526022815260200180614b9a6022913960400191505060405180910390fd5b6002805460ff191690556001546134af57613599565b60606001546040519080825280602002602001820160405280156134dd578160200160208202803883390190505b509050600060015b60015481116112165760008181526020819052604090206003600682015460ff16600881111561351157fe5b148061352f57506004600682015460ff16600881111561352d57fe5b145b156135905760048101541561358057600181015460048201546040516001600160a01b039092169181156108fc0291906000818181858888f1935050505015801561357e573d6000803e3d6000fd5b505b60068101805460ff191660071790555b506001016134e5565b565b60025460ff1615156001146135e15760405162461bcd60e51b8152600401808060200182810382526022815260200180614b9a6022913960400191505060405180910390fd5b600081815260208190526040902060018101546001600160a01b03166136075750610fe9565b60018101546001600160a01b031633146136525760405162461bcd60e51b8152600401808060200182810382526026815260200180614bbc6026913960400191505060405180910390fd5b6000600682015460ff16600881111561366757fe5b146136af576040805162461bcd60e51b815260206004820152601360248201527210d85b9b9bdd081899481c1d589b1a5cda1959606a1b604482015290519081900360640190fd5b60068101805460ff191660019081179091556004820154604080518581529081018290526080602082018181526003860180546002968116156101000260001901169590950491830182905233947fea07c326ec88ddea19d72529e511ce438c2cd368f463f890406ab6582b2dc0db9488949193909290606083019060a08401908690801561377f5780601f106137545761010080835404028352916020019161377f565b820191906000526020600020905b81548152906001019060200180831161376257829003601f168201915b5050928303905250600081526040805191829003019350915050a25050565b60025460ff1615156001146137e45760405162461bcd60e51b8152600401808060200182810382526022815260200180614b9a6022913960400191505060405180910390fd5b600081815260208190526040902060018101546001600160a01b031661380a5750610fe9565b60018101546001600160a01b031633146138555760405162461bcd60e51b8152600401808060200182810382526026815260200180614bbc6026913960400191505060405180910390fd5b6004600682015460ff16600881111561386a57fe5b146138a65760405162461bcd60e51b8152600401808060200182810382526021815260200180614be26021913960400191505060405180910390fd5b60068101805460ff191660039081179091556002808301546001808501546004860154604080518981529081018290526060602082018181529789018054610100968116159690960260001901909516969096049581018690526001600160a01b039485169694909216947f45db355d424e661e8b7ea210fd36cd8224f4955611152ce93518a27f205467e49489949391608083019085908015611a085780601f106119dd57610100808354040283529160200191611a08565b60025460ff1615156001146139a65760405162461bcd60e51b8152600401808060200182810382526022815260200180614b9a6022913960400191505060405180910390fd5b600081815260208190526040902060018101546001600160a01b03166139cc5750610fe9565b60018101546001600160a01b03163314613a175760405162461bcd60e51b8152600401808060200182810382526026815260200180614bbc6026913960400191505060405180910390fd5b6002600682015460ff166008811115613a2c57fe5b14613a77576040805162461bcd60e51b815260206004820152601660248201527550726f706f73616c206e6f7420696e2072657669657760501b604482015290519081900360640190fd5b6002818101805460068401805460ff191660019081179091556001600160a01b0319821690925581840154600485015460408051888152908101829052606060208201818152600389018054610100988116159890980260001901909716979097049082018190526001600160a01b0394851696879695909416947f4c596893f217ff7756c8fc77bea24399406130928fc25e6ace71d6121fd2643f948a9491939192608083019085908015613b6e5780601f10613b4357610100808354040283529160200191613b6e565b820191906000526020600020905b815481529060010190602001808311613b5157829003601f168201915b505094505050505060405180910390a3505050565b606060015460001415613ba6576040805160008082526020820190925290610cab565b6060600154604051908082528060200260200182016040528015613bd4578160200160208202803883390190505b509050600060015b6001548111613c9a576000818152602081905260409020600101546001600160a01b0316331480613c2657506000818152602081905260409020600201546001600160a01b031633145b8015613c515750600660008281526020819052604090206006015460ff166008811115613c4f57fe5b145b15613c92576000818152602081905260409020548351849084908110613c7357fe5b6020908102919091010152613c8f82600163ffffffff61492216565b91505b600101613bdc565b50606081604051908082528060200260200182016040528015613cc7578160200160208202803883390190505b50905060005b82811015610df157838181518110613ce157fe5b6020026020010151828281518110613cf557fe5b6020908102919091010152600101613ccd565b606060015460001415613d2b576040805160008082526020820190925290610cab565b6060600154604051908082528060200260200182016040528015613d59578160200160208202803883390190505b509050600060015b6001548111613e48576000818152602081905260409020600101546001600160a01b0316331480613dab57506000818152602081905260409020600201546001600160a01b031633145b8015613dff5750600360008281526020819052604090206006015460ff166008811115613dd457fe5b1480613dff5750600460008281526020819052604090206006015460ff166008811115613dfd57fe5b145b15613e40576000818152602081905260409020548351849084908110613e2157fe5b6020908102919091010152613e3d82600163ffffffff61492216565b91505b600101613d61565b50606081604051908082528060200260200182016040528015613e75578160200160208202803883390190505b50905060005b82811015610df157838181518110613e8f57fe5b6020026020010151828281518110613ea357fe5b6020908102919091010152600101613e7b565b606060015460001415613ed9576040805160008082526020820190925290610cab565b6060600154604051908082528060200260200182016040528015613f07578160200160208202803883390190505b509050600060015b6001548111613fd6576000818152602081905260409020600101546001600160a01b031633148015613f615750600560008281526020819052604090206006015460ff166008811115613f5e57fe5b14155b8015613f8d5750600660008281526020819052604090206006015460ff166008811115613f8a57fe5b14155b15613fce576000818152602081905260409020548351849084908110613faf57fe5b6020908102919091010152613fcb82600163ffffffff61492216565b91505b600101613f0f565b50606081604051908082528060200260200182016040528015614003578160200160208202803883390190505b50905060005b82811015610df15783818151811061401d57fe5b602002602001015182828151811061403157fe5b6020908102919091010152600101614009565b606060015460001415614067576040805160008082526020820190925290610cab565b6060600154604051908082528060200260200182016040528015614095578160200160208202803883390190505b509050600060015b6001548111614137576000818152602081905260409020600101546001600160a01b0316331480156140ee5750600260008281526020819052604090206006015460ff1660088111156140ec57fe5b145b1561412f57600081815260208190526040902054835184908490811061411057fe5b602090810291909101015261412c82600163ffffffff61492216565b91505b60010161409d565b50606081604051908082528060200260200182016040528015614164578160200160208202803883390190505b50905060005b82811015610df15783818151811061417e57fe5b602002602001015182828151811061419257fe5b602090810291909101015260010161416a565b60025460ff1615156001146141eb5760405162461bcd60e51b8152600401808060200182810382526022815260200180614b9a6022913960400191505060405180910390fd5b600081815260208190526040902060018101546001600160a01b03166142115750610fe9565b60028101546001600160a01b0316331461425c5760405162461bcd60e51b8152600401808060200182810382526021815260200180614b796021913960400191505060405180910390fd5b6002600682015460ff16600881111561427157fe5b146142bc576040805162461bcd60e51b815260206004820152601660248201527550726f706f73616c206e6f7420696e2072657669657760501b604482015290519081900360640190fd5b6002818101805460068401805460ff191660019081179091556001600160a01b0319821690925581840154600485015460408051888152908101829052606060208201818152600389018054610100988116159890980260001901909716979097049082018190526001600160a01b0394851696879695909416947fda2bae36f5d87ea886fd53cadaade9c848558e3ba0ce0b05a90d6203787fec45948a9491939192608083019085908015613b6e5780601f10613b4357610100808354040283529160200191613b6e565b60008060606000606060008060006060806143a1614a3b565b60008c81526020818152604091829020825161016081018452815481526001808301546001600160a01b03908116838601526002808501549091168387015260038401805487516101009482161594909402600019011691909104601f81018690048602830186019096528582529194929360608601939192919083018282801561446d5780601f106144425761010080835404028352916020019161446d565b820191906000526020600020905b81548152906001019060200180831161445057829003601f168201915b5050509183525050600482015460208083019190915260058301805460408051601f6002600019610100600187161502019094169390930492830185900485028101850182528281529401939283018282801561450b5780601f106144e05761010080835404028352916020019161450b565b820191906000526020600020905b8154815290600101906020018083116144ee57829003601f168201915b5050509183525050600682015460209091019060ff16600881111561452c57fe5b600881111561453757fe5b8152600682015460ff6101008204811615156020808501919091526201000090920416151560408084019190915260078401805482518185028101850190935280835260609094019391929091908301828280156145b457602002820191906000526020600020905b8154815260200190600101908083116145a0575b505050505081526020016008820180548060200260200160405190810160405280929190818152602001828054801561460c57602002820191906000526020600020905b8154815260200190600101908083116145f8575b5050509190925250505060208101519091506001600160a01b03166146d457600080600060086000806004604051908082528060200260200182016040528015614660578160200160208202803883390190505b5060408051600680825260e08201909252906020820160c08038833901905050879750869650604051806020016040528060008152509594939291908595506040518060200160405280600081525094939291908191508090509a509a509a509a509a509a509a509a509a509a5050614731565b80602001518160400151826060015183608001518460a001518560c001518660e001518761010001518861012001518961014001518999508898508797508595508191508090509a509a509a509a509a509a509a509a509a509a50505b9193959799509193959799565b60025460ff1615156001146147845760405162461bcd60e51b8152600401808060200182810382526022815260200180614b9a6022913960400191505060405180910390fd5b600081815260208190526040902060018101546001600160a01b03166147aa5750610fe9565b60028101546001600160a01b031633146147f55760405162461bcd60e51b8152600401808060200182810382526021815260200180614b796021913960400191505060405180910390fd5b6003600682015460ff16600881111561480a57fe5b14614856576040805162461bcd60e51b815260206004820152601760248201527650726f6a656374206e6f7420696e2070726f677265737360481b604482015290519081900360640190fd5b6002818101805460068401805460ff191660019081179091556001600160a01b0319821690925581840154600485015460408051888152908101829052606060208201818152600389018054610100988116159890980260001901909716979097049082018190526001600160a01b0394851696879695909416947fd1ed06115c7e42f61501cf18bfd02f10359381afe0d93bc31f146a45a4fb78ab948a9491939192608083019085908015613b6e5780601f10613b4357610100808354040283529160200191613b6e565b60008282018381101561497c576040805162461bcd60e51b815260206004820152601b60248201527f536166654d6174683a206164646974696f6e206f766572666c6f770000000000604482015290519081900360640190fd5b9392505050565b828054600181600116156101000203166002900490600052602060002090601f016020900481019282601f106149c457805160ff19168380011785556149f1565b828001600101855582156149f1579182015b828111156149f15782518255916020019190600101906149d6565b506149fd929150614af1565b5090565b8280548282559060005260206000209081019282156149f157916020028201828111156149f15782518255916020019190600101906149d6565b604080516101608101825260008082526020820181905291810182905260608082018190526080820183905260a08201529060c082019081526000602082018190526040820152606080820181905260809091015290565b50805460018160011615610100020316600290046000825580601f10614ab95750610fe9565b601f016020900490600052602060002090810190610fe99190614af1565b5080546000825590600052602060002090810190610fe991905b610df791905b808211156149fd5760008155600101614af756fe546865206e756d626572206f6620726174696e67732065786365656420746865206c696d6974596f75206861766520616c72656164792070726f766964656420796f757220726174696e677343616e6e6f742062652075706461746564207768696c65207075626c6973686564596f7520617265206e6f742074686520736572766963652066756c66696c6c657254686520636f6e7472616374206973206e6f74206d6f726520617661696c61626c65596f7520617265206e6f742074686520697373756572206f6620746869732070726f6a65637450726f6a656374206e6f7420696e2076616c69646174696f6e2070726f63657373546869732063616c6c206973206f6e6c7920616c6c6f7765722062792074686520636f6e74726163742773206f776e6572596f7520617265206e6f74207468652066756c66696c6c6572206f6620746869732070726f6a656374596f7572206465706f73697420646f65736e2774206d617463682074686520636f6e74726163742773207072696365a265627a7a72315820fa1c2db1ccb1107a5a2c0cb79bd1b244ac0e78d8c9bd0f20f88abd47584b913164736f6c63430005100032",
  "source": "pragma solidity >=0.4.21 <0.7.0;\n\nimport \"openzeppelin-solidity/contracts/math/SafeMath.sol\";\n\n/// @title Decentralised business platform\n/// @author Said Eloudrhiri (ChainSkills) - Devoxx Morocco 2019\n/// @notice Learn how to create a smart contract to simulate a decentralised business platform to issue and fulfill projects\n/// @dev This smart contract is for illustration purpose only and should not be used in the mainNet\ncontract ChainBizz {\n    using SafeMath for uint256;\n\n    /*\n   * Enum\n   */\n\n    // Defines the status of the project\n    enum ProjectStatus {\n        Draft,\n        Available,\n        InReview,\n        OnGoing,\n        Validate,\n        Completed,\n        Canceled,\n        Refunded,\n        Unknown\n    }\n\n    // Defines the ratings for the fulfiller\n    enum RatingFulfiller {\n        OnTime,\n        OnBudget,\n        HardSkills,\n        SoftSkills,\n        Quality,\n        Recommend\n    }\n\n    uint256 constant MAX_RATINGS_FULFILLER = 6;\n\n    // Defines the ratings for the issuer\n    enum RatingIssuer {Precise, SoftSkills, Serious, Recommend}\n\n    uint256 constant MAX_RATINGS_ISSUER = 4;\n\n    /*\n   * Structs\n   */\n\n    // Description of a project\n    struct ProjectItem {\n        uint256 id; // unique ID\n        address payable issuer;\n        address payable fulfiller;\n        string title;\n        uint256 price; // price in Wei\n        string ipfsHash;\n        ProjectStatus status;\n        bool ratingsIssuerDone;\n        bool ratingsFulfillerDone;\n        uint256[] ratingsIssuer;\n        uint256[] ratingsFulfiller;\n    }\n\n    /*\n   * Storage\n   */\n\n    // List of projects\n    mapping(uint256 => ProjectItem) public projects;\n\n    // Number of registered projects\n    uint256 projectsCounter;\n\n    // Defines if the contract is still enable or not\n    bool enabledContract;\n\n    // Keep contract's issuer address\n    address owner;\n\n    /*\n   * Modifiers\n   */\n\n    modifier onlyEnable() {\n        require(enabledContract == true, \"The contract is not more available\");\n        _;\n    }\n\n    modifier onlyOwner() {\n        require(\n            msg.sender == owner,\n            \"This call is only allower by the contract's owner\"\n        );\n        _;\n    }\n\n    /*\n   * Events\n   */\n    event NewProject(\n        uint256 id,\n        address indexed issuer,\n        string title,\n        uint256 price\n    );\n    event UpdateProject(\n        uint256 id,\n        address indexed issuer,\n        string title,\n        uint256 price\n    );\n    event RemoveProject(uint256 id, address indexed issuer, string title);\n    event PublishedProject(\n        uint256 id,\n        address indexed issuer,\n        string title,\n        uint256 price,\n        string ipfsHash\n    );\n    event UnpublishedProject(\n        uint256 id,\n        address indexed issuer,\n        string title,\n        uint256 price\n    );\n    event OfferSubmitted(\n        uint256 id,\n        address indexed issuer,\n        address indexed fulfiller,\n        string title,\n        uint256 price\n    );\n    event OfferCanceled(\n        uint256 id,\n        address indexed issuer,\n        address indexed fulfiller,\n        string title,\n        uint256 price\n    );\n    event AcceptProposal(\n        uint256 id,\n        address indexed issuer,\n        address indexed fulfiller,\n        string title,\n        uint256 price\n    );\n    event RejectProposal(\n        uint256 id,\n        address indexed issuer,\n        address indexed fulfiller,\n        string title,\n        uint256 price\n    );\n    event ProjectDelivered(\n        uint256 id,\n        address indexed issuer,\n        address indexed fulfiller,\n        string title,\n        uint256 price\n    );\n    event ServicesCanceled(\n        uint256 id,\n        address indexed issuer,\n        address indexed fulfiller,\n        string title,\n        uint256 price\n    );\n    event DeliveryAccepted(\n        uint256 id,\n        address indexed issuer,\n        address indexed fulfiller,\n        string title,\n        uint256 price\n    );\n    event DeliveryRejected(\n        uint256 id,\n        address indexed issuer,\n        address indexed fulfiller,\n        string title,\n        uint256 price\n    );\n    event ContractCanceled(\n        uint256 id,\n        address indexed issuer,\n        address indexed fulfiller,\n        string title,\n        uint256 price\n    );\n    event RatingsIssuer(\n        uint256 id,\n        address indexed fulfiller,\n        uint256[] ratings\n    );\n    event RatingsFulFiller(\n        uint256 id,\n        address indexed issuer,\n        uint256[] ratings\n    );\n\n    /*\n  * Public functions\n  */\n\n    constructor() public {\n        enabledContract = true;\n        owner = msg.sender;\n    }\n\n    /// @dev Enable the usage of the contract\n    function enableContract() public onlyOwner {\n        enabledContract = true;\n    }\n\n    /// @dev Disable the usage of the contract, change the status of all running projects and payback all issuers\n    function disableContract() public onlyOwner onlyEnable {\n        // First, we disable the contract\n        enabledContract = false;\n\n        // Then, we refund issuers for their running contracts\n\n        // At least one project?\n        if (projectsCounter == 0) {\n            return;\n        }\n\n        // prepare output array\n        uint256[] memory projectIDs = new uint256[](projectsCounter);\n\n        // iterate over projects\n        uint256 numberOfProjects = 0;\n        for (uint256 i = 1; i <= projectsCounter; i++) {\n            // retrieve the project\n            ProjectItem storage project = projects[i];\n\n            // check if this project is published\n            if (\n                (project.status == ProjectStatus.OnGoing) ||\n                (project.status == ProjectStatus.Validate)\n            ) {\n                // Refund the issuer\n                if (project.price > 0) {\n                    // pay back the issuer\n                    project.issuer.transfer(project.price);\n                }\n\n                // project refunded\n                project.status = ProjectStatus.Refunded;\n            }\n        }\n    }\n\n    //\n    // Setters\n    //\n\n    // Add a new project\n    function addProject(string memory _title, uint256 _price)\n        public\n        onlyEnable\n    {\n        // a title is required\n        bytes memory title = bytes(_title);\n        require(title.length > 0, \"A title is required\");\n\n        // new project\n        projectsCounter = projectsCounter.add(1);\n\n        // store the new project\n        projects[projectsCounter] = ProjectItem(\n            projectsCounter,\n            msg.sender,\n            address(0x0),\n            _title,\n            _price,\n            \"\",\n            ProjectStatus.Draft,\n            false,\n            false,\n            new uint256[](MAX_RATINGS_ISSUER),\n            new uint256[](MAX_RATINGS_FULFILLER)\n        );\n\n        emit NewProject(projectsCounter, msg.sender, _title, _price);\n    }\n\n    // Update an unpublished project\n    function updateProject(uint256 _id, string memory _title, uint256 _price)\n        public\n        onlyEnable\n    {\n        // retrieve the project\n        ProjectItem storage project = projects[_id];\n\n        // ensure that this project exists\n        if (project.issuer == address(0x0)) {\n            return;\n        }\n\n        // do we own this project?\n        require(\n            project.issuer == msg.sender,\n            \"You are not the issuer of this project\"\n        );\n\n        // ready to be published?\n        require(\n            project.status == ProjectStatus.Draft,\n            \"Cannot be updated while published\"\n        );\n\n        // a title is required\n        bytes memory title = bytes(_title);\n        require(title.length > 0, \"A title is required\");\n\n        // update the project\n        project.title = _title;\n        project.price = _price;\n\n        emit UpdateProject(projectsCounter, msg.sender, _title, _price);\n    }\n\n    // Remove an unpublished project\n    function removeProject(uint256 _id) public onlyEnable {\n        // retrieve the project\n        ProjectItem memory project = projects[_id];\n\n        // ensure that this project exists\n        if (project.issuer == address(0x0)) {\n            return;\n        }\n\n        // do we own this project?\n        require(\n            project.issuer == msg.sender,\n            \"You are not the issuer of this project\"\n        );\n\n        // keep title for future use\n        string memory title = project.title;\n\n        // remove the project\n        delete projects[_id];\n\n        emit RemoveProject(_id, msg.sender, title);\n    }\n\n    // Publish the project to seek for fulfillers\n    function publishProject(\n        string memory _title,\n        uint256 _price,\n        string memory _ipfsHash\n    ) public onlyEnable {\n        // a title is required\n        bytes memory title = bytes(_title);\n        require(title.length > 0, \"A title is required\");\n\n        // The hash to IPFS is required\n        bytes memory ipfsHash = bytes(_ipfsHash);\n        require(ipfsHash.length > 0, \"A hash to IPFS is required\");\n\n        // new project\n        projectsCounter = projectsCounter.add(1);\n\n        // store the new project\n        projects[projectsCounter] = ProjectItem(\n            projectsCounter,\n            msg.sender,\n            address(0x0),\n            _title,\n            _price,\n            _ipfsHash,\n            ProjectStatus.Available,\n            false,\n            false,\n            new uint256[](MAX_RATINGS_ISSUER),\n            new uint256[](MAX_RATINGS_FULFILLER)\n        );\n\n        emit PublishedProject(\n            projectsCounter,\n            msg.sender,\n            _title,\n            _price,\n            _ipfsHash\n        );\n    }\n\n    // Publish the project to seek for fulfillers\n    function publishProjectOld(uint256 _id) public onlyEnable {\n        // retrieve the project\n        ProjectItem storage project = projects[_id];\n\n        // ensure that this project exists\n        if (project.issuer == address(0x0)) {\n            return;\n        }\n\n        // do we own this project?\n        require(\n            project.issuer == msg.sender,\n            \"You are not the issuer of this project\"\n        );\n\n        // ready to be published?\n        require(project.status == ProjectStatus.Draft, \"Cannot be published\");\n\n        // publish the project to be available for services\n        project.status = ProjectStatus.Available;\n\n        emit PublishedProject(\n            _id,\n            msg.sender,\n            project.title,\n            project.price,\n            \"\"\n        );\n    }\n\n    // Unpublish the project\n    // A project can be unpublished ONLY if it's already published and not already part of a contract\n    function unpublishProject(uint256 _id) public onlyEnable {\n        // retrieve the project\n        ProjectItem storage project = projects[_id];\n\n        // ensure that this project exists\n        if (project.issuer == address(0x0)) {\n            return;\n        }\n\n        // do we own this project?\n        require(\n            project.issuer == msg.sender,\n            \"You are not the issuer of this project\"\n        );\n\n        // ready to be unpublished?\n        require(\n            project.status == ProjectStatus.Available,\n            \"Cannot be unpublished\"\n        );\n\n        // unpublish the project\n        project.status = ProjectStatus.Draft;\n\n        emit UnpublishedProject(_id, msg.sender, project.title, project.price);\n    }\n\n    // Offer services for the project\n    // A fulfiller offers his/her services to perform the project\n    function submitOffer(uint256 _id) public onlyEnable {\n        // retrieve the project\n        ProjectItem storage project = projects[_id];\n\n        // ensure that this project exists\n        if (project.issuer == address(0x0)) {\n            return;\n        }\n\n        // is the project available?\n        require(\n            project.status == ProjectStatus.Available,\n            \"Project no more available\"\n        );\n\n        // store the address of the fulfiller\n        project.fulfiller = msg.sender;\n\n        // project is under review\n        project.status = ProjectStatus.InReview;\n\n        emit OfferSubmitted(\n            _id,\n            project.issuer,\n            msg.sender,\n            project.title,\n            project.price\n        );\n    }\n\n    // Cancel offer made by the fulfiller\n    // A fulfiller cancels his/her offer to perform the project\n    function cancelOffer(uint256 _id) public onlyEnable {\n        // retrieve the project\n        ProjectItem storage project = projects[_id];\n\n        // ensure that this project exists\n        if (project.issuer == address(0x0)) {\n            return;\n        }\n\n        // are we the service fulfiller?\n        require(\n            project.fulfiller == msg.sender,\n            \"You are not the service fulfiller\"\n        );\n\n        // is the project in review?\n        require(\n            project.status == ProjectStatus.InReview,\n            \"Proposal not in review\"\n        );\n\n        // project is now available\n        address payable fulfiller = project.fulfiller;\n        project.status = ProjectStatus.Available;\n        project.fulfiller = address(0x0);\n\n        emit OfferCanceled(\n            _id,\n            project.issuer,\n            fulfiller,\n            project.title,\n            project.price\n        );\n    }\n\n    // Accept services from the fulfiller\n    // The issuer accepts the services offered by the fulfiller\n    function acceptProposal(uint256 _id) public payable onlyEnable {\n        // retrieve the project\n        ProjectItem storage project = projects[_id];\n\n        // ensure that this project exists\n        if (project.issuer == address(0x0)) {\n            return;\n        }\n\n        // do we own this project?\n        require(\n            project.issuer == msg.sender,\n            \"You are not the issuer of this project\"\n        );\n\n        // is the project in review?\n        require(\n            project.status == ProjectStatus.InReview,\n            \"Proposal not in review\"\n        );\n\n        // is the issuer has deposit the requeste amount?\n        require(\n            msg.value == project.price,\n            \"Your deposit doesn't match the contract's price\"\n        );\n\n        // project is now ongoing\n        project.status = ProjectStatus.OnGoing;\n\n        emit AcceptProposal(\n            _id,\n            project.issuer,\n            project.fulfiller,\n            project.title,\n            project.price\n        );\n    }\n\n    // Reject proposal from the fulfiller\n    // The issuer rejects the services offered by the fulfiller\n    function rejectProposal(uint256 _id) public onlyEnable {\n        // retrieve the project\n        ProjectItem storage project = projects[_id];\n\n        // ensure that this project exists\n        if (project.issuer == address(0x0)) {\n            return;\n        }\n\n        // do we own this project?\n        require(\n            project.issuer == msg.sender,\n            \"You are not the issuer of this project\"\n        );\n\n        // is the project in review?\n        require(\n            project.status == ProjectStatus.InReview,\n            \"Proposal not in review\"\n        );\n\n        // project is now available\n        address payable fulfiller = project.fulfiller;\n        project.status = ProjectStatus.Available;\n        project.fulfiller = address(0x0);\n\n        emit RejectProposal(\n            _id,\n            project.issuer,\n            fulfiller,\n            project.title,\n            project.price\n        );\n    }\n\n    // Deliver the project to the customer\n    // The fulfiller delivers the project to the issuer\n    function deliverProject(uint256 _id) public onlyEnable {\n        // retrieve the project\n        ProjectItem storage project = projects[_id];\n\n        // ensure that this project exists\n        if (project.issuer == address(0x0)) {\n            return;\n        }\n\n        // are we the service fulfiller?\n        require(\n            project.fulfiller == msg.sender,\n            \"You are not the service fulfiller\"\n        );\n\n        // is the project ongoing?\n        require(\n            project.status == ProjectStatus.OnGoing,\n            \"Project not in progress\"\n        );\n\n        // project is now validation process\n        project.status = ProjectStatus.Validate;\n\n        emit ProjectDelivered(\n            _id,\n            project.issuer,\n            project.fulfiller,\n            project.title,\n            project.price\n        );\n    }\n\n    // Cancel services from the fulfiller\n    // The fulfiller cancels the services performed for the project\n    function cancelServices(uint256 _id) public onlyEnable {\n        // retrieve the project\n        ProjectItem storage project = projects[_id];\n\n        // ensure that this project exists\n        if (project.issuer == address(0x0)) {\n            return;\n        }\n\n        // are we the service fulfiller?\n        require(\n            project.fulfiller == msg.sender,\n            \"You are not the service fulfiller\"\n        );\n\n        // is the project ongoing?\n        require(\n            project.status == ProjectStatus.OnGoing,\n            \"Project not in progress\"\n        );\n\n        // project becomes available\n        address payable fulfiller = project.fulfiller;\n        project.status = ProjectStatus.Available;\n        project.fulfiller = address(0x0);\n\n        emit ServicesCanceled(\n            _id,\n            project.issuer,\n            fulfiller,\n            project.title,\n            project.price\n        );\n    }\n\n    // Accept the project delivery from the fulfiller\n    // The issuer accepts the project delivered by the fulfiller\n    function acceptDelivery(uint256 _id) public onlyEnable {\n        // retrieve the project\n        ProjectItem storage project = projects[_id];\n\n        // ensure that this project exists\n        if (project.issuer == address(0x0)) {\n            return;\n        }\n\n        // do we own this project?\n        require(\n            project.issuer == msg.sender,\n            \"You are not the issuer of this project\"\n        );\n\n        // is the project in review?\n        require(\n            project.status == ProjectStatus.Validate,\n            \"Project not in validation process\"\n        );\n\n        // pay the service provide\n        project.fulfiller.transfer(project.price);\n\n        // project is now completed\n        project.status = ProjectStatus.Completed;\n\n        emit DeliveryAccepted(\n            _id,\n            project.issuer,\n            project.fulfiller,\n            project.title,\n            project.price\n        );\n    }\n\n    // The issuer evaluates the fulfiller\n    function setRatingsFulfiller(uint256 _id, uint256[] memory _ratings)\n        public\n        onlyEnable\n    {\n        // retrieve the project\n        ProjectItem storage project = projects[_id];\n\n        // is the project completed or cancelled?\n        require(\n            (project.status == ProjectStatus.Canceled) ||\n                (project.status == ProjectStatus.Completed),\n            \"Project not yet finalised\"\n        );\n\n        // ensure that this project exists\n        if (project.issuer == address(0x0)) {\n            return;\n        }\n\n        // do we own this project?\n        require(\n            project.issuer == msg.sender,\n            \"You are not the issuer of this project\"\n        );\n\n        // do not allow changes on ratings\n        require(\n            project.ratingsFulfillerDone == false,\n            \"You have already provided your ratings\"\n        );\n\n        // avoid overflow\n        require(\n            _ratings.length <= MAX_RATINGS_FULFILLER,\n            \"The number of ratings exceed the limit\"\n        );\n\n        // save ratings from the issuer\n        project.ratingsFulfiller = _ratings;\n        project.ratingsFulfillerDone = true;\n\n        emit RatingsFulFiller(_id, project.issuer, project.ratingsFulfiller);\n    }\n\n    // The fulfiller evaluates the issuer\n    function setRatingsIssuer(uint256 _id, uint256[] memory _ratings)\n        public\n        onlyEnable\n    {\n        // retrieve the project\n        ProjectItem storage project = projects[_id];\n\n        // is the project completed or cancelled?\n        require(\n            (project.status == ProjectStatus.Canceled) ||\n                (project.status == ProjectStatus.Completed),\n            \"Project not yet finalised\"\n        );\n\n        // ensure that this project exists\n        if (project.issuer == address(0x0)) {\n            return;\n        }\n\n        // do not allow changes on ratings\n        require(\n            project.ratingsIssuerDone == false,\n            \"You have already provided your ratings\"\n        );\n\n        // do we own this project?\n        require(\n            project.fulfiller == msg.sender,\n            \"You are not the fulfiller of this project\"\n        );\n\n        // avoid overflow\n        require(\n            _ratings.length <= MAX_RATINGS_ISSUER,\n            \"The number of ratings exceed the limit\"\n        );\n\n        // save ratings from the fulfiller\n        project.ratingsIssuer = _ratings;\n        project.ratingsIssuerDone = true;\n\n        emit RatingsIssuer(_id, project.fulfiller, project.ratingsIssuer);\n    }\n\n    // Reject the project delivery from the fulfiller\n    // The issuer rejects the project delivered by the fulfiller\n    function rejectDelivery(uint256 _id) public onlyEnable {\n        // retrieve the project\n        ProjectItem storage project = projects[_id];\n\n        // ensure that this project exists\n        if (project.issuer == address(0x0)) {\n            return;\n        }\n\n        // do we own this project?\n        require(\n            project.issuer == msg.sender,\n            \"You are not the issuer of this project\"\n        );\n\n        // is the project in review?\n        require(\n            project.status == ProjectStatus.Validate,\n            \"Project not in validation process\"\n        );\n\n        // project remains ongoing\n        project.status = ProjectStatus.OnGoing;\n\n        emit DeliveryRejected(\n            _id,\n            project.issuer,\n            project.fulfiller,\n            project.title,\n            project.price\n        );\n    }\n\n    // Contract canceled by the issuer\n    // The issuer cancels the contract\n    function cancelContract(uint256 _id) public onlyEnable {\n        // retrieve the project\n        ProjectItem storage project = projects[_id];\n\n        // ensure that this project exists\n        if (project.issuer == address(0x0)) {\n            return;\n        }\n\n        // are we the service fulfiller?\n        require(\n            project.issuer == msg.sender,\n            \"You are not the project's issuer\"\n        );\n\n        // is the project ongoing?\n        require(\n            (project.status == ProjectStatus.OnGoing) ||\n                (project.status == ProjectStatus.Validate),\n            \"Project not in progress\"\n        );\n\n        // pay back the contract's issuer\n        project.issuer.transfer(project.price);\n\n        // contract becomes canceled\n        project.status = ProjectStatus.Canceled;\n\n        emit ContractCanceled(\n            _id,\n            project.issuer,\n            project.fulfiller,\n            project.title,\n            project.price\n        );\n    }\n\n    //\n    // Getters\n    //\n\n    // Retrieve if the contract is still enable or not\n    function isEnabled() public view returns (bool) {\n        return enabledContract;\n    }\n\n    // Retrieve a project from its id\n    function getProject(uint256 _id)\n        public\n        view\n        returns (\n            address issuer,\n            address fulfiller,\n            string memory title,\n            uint256 price,\n            string memory ipfsHash,\n            ProjectStatus status,\n            bool ratingsIssuerDone,\n            bool ratingsFulfillerDone,\n            uint256[] memory ratingsIssuer,\n            uint256[] memory ratingsFulfiller\n        )\n    {\n        ProjectItem memory project = projects[_id];\n\n        // ensure that we have a project to fetch\n        if (project.issuer == address(0x0)) {\n            return (\n                address(0x0),\n                address(0x0),\n                \"\",\n                0,\n                \"\",\n                ProjectStatus.Unknown,\n                false,\n                false,\n                new uint256[](MAX_RATINGS_ISSUER),\n                new uint256[](MAX_RATINGS_FULFILLER)\n            );\n        }\n\n        return (\n            project.issuer,\n            project.fulfiller,\n            project.title,\n            project.price,\n            project.ipfsHash,\n            project.status,\n            project.ratingsIssuerDone,\n            project.ratingsFulfillerDone,\n            project.ratingsIssuer,\n            project.ratingsFulfiller\n        );\n    }\n\n    // return all projects\n    function getAllProjects() public view returns (uint256[] memory) {\n        if (projectsCounter == 0) {\n            return new uint256[](0);\n        }\n\n        // prepare output array\n        uint256[] memory projectIDs = new uint256[](projectsCounter);\n\n        // iterate over projects\n        uint256 numberOfProjects = 0;\n        for (uint256 i = 1; i <= projectsCounter; i++) {\n            // skip deleted projects\n            if (projects[i].issuer != address(0x0)) {\n                projectIDs[numberOfProjects] = projects[i].id;\n                numberOfProjects = numberOfProjects.add(1);\n            }\n        }\n\n        // copy the project ID array into a smaller array\n        uint256[] memory allProjects = new uint256[](numberOfProjects);\n        for (uint256 j = 0; j < numberOfProjects; j++) {\n            allProjects[j] = projectIDs[j];\n        }\n\n        return allProjects;\n    }\n\n    // return all published projects\n    function getPublishedProjects() public view returns (uint256[] memory) {\n        if (projectsCounter == 0) {\n            return new uint256[](0);\n        }\n\n        // prepare output array\n        uint256[] memory projectIDs = new uint256[](projectsCounter);\n\n        // iterate over projects\n        uint256 numberOfProjects = 0;\n        for (uint256 i = 1; i <= projectsCounter; i++) {\n            // get only published and active projects\n            if (\n                (projects[i].issuer != address(0x0)) &&\n                (projects[i].status == ProjectStatus.Available)\n            ) {\n                projectIDs[numberOfProjects] = projects[i].id;\n                numberOfProjects = numberOfProjects.add(1);\n            }\n        }\n\n        // copy the project ID array into a smaller array\n        uint256[] memory allProjects = new uint256[](numberOfProjects);\n        for (uint256 j = 0; j < numberOfProjects; j++) {\n            allProjects[j] = projectIDs[j];\n        }\n\n        return allProjects;\n    }\n\n    // return all projects owned by the sender\n    function getMyProjects() public view returns (uint256[] memory) {\n        if (projectsCounter == 0) {\n            return new uint256[](0);\n        }\n\n        // prepare output array\n        uint256[] memory projectIDs = new uint256[](projectsCounter);\n\n        // iterate over projects\n        uint256 numberOfProjects = 0;\n        for (uint256 i = 1; i <= projectsCounter; i++) {\n            // keep the ID of the project owned by the caller\n            if (\n                (projects[i].issuer == msg.sender) &&\n                (projects[i].status != ProjectStatus.Completed) &&\n                (projects[i].status != ProjectStatus.Canceled)\n            ) {\n                projectIDs[numberOfProjects] = projects[i].id;\n\n                numberOfProjects = numberOfProjects.add(1);\n            }\n        }\n\n        // copy the project ID array into a smaller array\n        uint256[] memory myProjects = new uint256[](numberOfProjects);\n        for (uint256 j = 0; j < numberOfProjects; j++) {\n            myProjects[j] = projectIDs[j];\n        }\n\n        return myProjects;\n    }\n\n    // return all my offers waiting for review\n    function getMyOffers() public view returns (uint256[] memory) {\n        if (projectsCounter == 0) {\n            return new uint256[](0);\n        }\n\n        // prepare output array\n        uint256[] memory projectIDs = new uint256[](projectsCounter);\n\n        // iterate over projects\n        uint256 numberOfProjects = 0;\n        for (uint256 i = 1; i <= projectsCounter; i++) {\n            // keep the ID of the project with the sender as fulfiller and the project still in review process\n            if (\n                (projects[i].fulfiller == msg.sender) &&\n                (projects[i].status == ProjectStatus.InReview)\n            ) {\n                projectIDs[numberOfProjects] = projects[i].id;\n\n                numberOfProjects = numberOfProjects.add(1);\n            }\n        }\n\n        // copy the project ID array into a smaller array\n        uint256[] memory myOffers = new uint256[](numberOfProjects);\n        for (uint256 j = 0; j < numberOfProjects; j++) {\n            myOffers[j] = projectIDs[j];\n        }\n\n        return myOffers;\n    }\n\n    // return all projects waiting for review\n    function getMyReviews() public view returns (uint256[] memory) {\n        if (projectsCounter == 0) {\n            return new uint256[](0);\n        }\n\n        // prepare output array\n        uint256[] memory projectIDs = new uint256[](projectsCounter);\n\n        // iterate over projects\n        uint256 numberOfProjects = 0;\n        for (uint256 i = 1; i <= projectsCounter; i++) {\n            // keep the ID of the project owned by the caller and the project still in review process\n            if (\n                (projects[i].issuer == msg.sender) &&\n                (projects[i].status == ProjectStatus.InReview)\n            ) {\n                projectIDs[numberOfProjects] = projects[i].id;\n\n                numberOfProjects = numberOfProjects.add(1);\n            }\n        }\n\n        // copy the project ID array into a smaller array\n        uint256[] memory myReviews = new uint256[](numberOfProjects);\n        for (uint256 j = 0; j < numberOfProjects; j++) {\n            myReviews[j] = projectIDs[j];\n        }\n\n        return myReviews;\n    }\n\n    // return all ongoing contracts\n    function getMyContracts() public view returns (uint256[] memory) {\n        if (projectsCounter == 0) {\n            return new uint256[](0);\n        }\n\n        // prepare output array\n        uint256[] memory projectIDs = new uint256[](projectsCounter);\n\n        // iterate over projects\n        uint256 numberOfProjects = 0;\n        for (uint256 i = 1; i <= projectsCounter; i++) {\n            // get only ongoing and under validation contracts owned by the issuer or the service fulfiller\n            if (\n                ((projects[i].issuer == msg.sender) ||\n                    (projects[i].fulfiller == msg.sender)) &&\n                ((projects[i].status == ProjectStatus.OnGoing) ||\n                    (projects[i].status == ProjectStatus.Validate))\n            ) {\n                projectIDs[numberOfProjects] = projects[i].id;\n                numberOfProjects = numberOfProjects.add(1);\n            }\n        }\n\n        // copy the project ID array into a smaller array\n        uint256[] memory myContracts = new uint256[](numberOfProjects);\n        for (uint256 j = 0; j < numberOfProjects; j++) {\n            myContracts[j] = projectIDs[j];\n        }\n\n        return myContracts;\n    }\n\n    // return all deliveries to review\n    function getDeliveries() public view returns (uint256[] memory) {\n        if (projectsCounter == 0) {\n            return new uint256[](0);\n        }\n\n        // prepare output array\n        uint256[] memory projectIDs = new uint256[](projectsCounter);\n\n        // iterate over projects\n        uint256 numberOfProjects = 0;\n        for (uint256 i = 1; i <= projectsCounter; i++) {\n            // get only ongoing projects issued by the issuer or the fulfiller\n            if (\n                ((projects[i].issuer == msg.sender) ||\n                    (projects[i].fulfiller == msg.sender)) &&\n                (projects[i].status == ProjectStatus.Validate)\n            ) {\n                projectIDs[numberOfProjects] = projects[i].id;\n                numberOfProjects = numberOfProjects.add(1);\n            }\n        }\n\n        // copy the project ID array into a smaller array\n        uint256[] memory myDeliveries = new uint256[](numberOfProjects);\n        for (uint256 j = 0; j < numberOfProjects; j++) {\n            myDeliveries[j] = projectIDs[j];\n        }\n\n        return myDeliveries;\n    }\n\n    // return all completed contracts\n    function getCompleted() public view returns (uint256[] memory) {\n        if (projectsCounter == 0) {\n            return new uint256[](0);\n        }\n\n        // prepare output array\n        uint256[] memory projectIDs = new uint256[](projectsCounter);\n\n        // iterate over projects\n        uint256 numberOfProjects = 0;\n        for (uint256 i = 1; i <= projectsCounter; i++) {\n            // get only ongoing projects issued by the issuer or the fulfiller\n            if (\n                ((projects[i].issuer == msg.sender) ||\n                    (projects[i].fulfiller == msg.sender)) &&\n                (projects[i].status == ProjectStatus.Completed)\n            ) {\n                projectIDs[numberOfProjects] = projects[i].id;\n                numberOfProjects = numberOfProjects.add(1);\n            }\n        }\n\n        // copy the project ID array into a smaller array\n        uint256[] memory myCompleted = new uint256[](numberOfProjects);\n        for (uint256 j = 0; j < numberOfProjects; j++) {\n            myCompleted[j] = projectIDs[j];\n        }\n\n        return myCompleted;\n    }\n\n    // return all canceled contracts\n    function getCanceled() public view returns (uint256[] memory) {\n        if (projectsCounter == 0) {\n            return new uint256[](0);\n        }\n\n        // prepare output array\n        uint256[] memory projectIDs = new uint256[](projectsCounter);\n\n        // iterate over projects\n        uint256 numberOfProjects = 0;\n        for (uint256 i = 1; i <= projectsCounter; i++) {\n            // get only ongoing projects issued by the issuer or the fulfiller\n            if (\n                ((projects[i].issuer == msg.sender) ||\n                    (projects[i].fulfiller == msg.sender)) &&\n                (projects[i].status == ProjectStatus.Canceled)\n            ) {\n                projectIDs[numberOfProjects] = projects[i].id;\n                numberOfProjects = numberOfProjects.add(1);\n            }\n        }\n\n        // copy the project ID array into a smaller array\n        uint256[] memory myCanceled = new uint256[](numberOfProjects);\n        for (uint256 j = 0; j < numberOfProjects; j++) {\n            myCanceled[j] = projectIDs[j];\n        }\n\n        return myCanceled;\n    }\n}\n",
  "sourcePath": "/Users/saideloudrhiri/Projects/ChainSkills/chainbizz/contracts/ChainBizz.sol",
  "compiler": {
    "name": "solc",
    "version": "0.5.16+commit.9c3226ce.Emscripten.clang"
  },
  "schemaVersion": "3.0.23",
  "updatedAt": "2020-02-29T15:53:06.988Z",
  "networkType": "ethereum",
  "devdoc": {
    "author": "Said Eloudrhiri (ChainSkills) - Devoxx Morocco 2019",
    "details": "This smart contract is for illustration purpose only and should not be used in the mainNet",
    "methods": {
      "disableContract()": {
        "details": "Disable the usage of the contract, change the status of all running projects and payback all issuers"
      },
      "enableContract()": {
        "details": "Enable the usage of the contract"
      }
    },
    "title": "Decentralised business platform"
  },
  "userdoc": {
    "methods": {},
    "notice": "Learn how to create a smart contract to simulate a decentralised business platform to issue and fulfill projects"
  }
}