{
  "contractName": "ChainBizz",
  "abi": [
    {
      "constant": true,
      "inputs": [
        {
          "name": "",
          "type": "uint256"
        }
      ],
      "name": "projects",
      "outputs": [
        {
          "name": "id",
          "type": "uint256"
        },
        {
          "name": "owner",
          "type": "address"
        },
        {
          "name": "provider",
          "type": "address"
        },
        {
          "name": "title",
          "type": "string"
        },
        {
          "name": "description",
          "type": "string"
        },
        {
          "name": "price",
          "type": "uint256"
        },
        {
          "name": "status",
          "type": "uint8"
        }
      ],
      "payable": false,
      "stateMutability": "view",
      "type": "function"
    },
    {
      "anonymous": false,
      "inputs": [
        {
          "indexed": false,
          "name": "id",
          "type": "uint256"
        },
        {
          "indexed": false,
          "name": "owner",
          "type": "address"
        },
        {
          "indexed": false,
          "name": "title",
          "type": "string"
        },
        {
          "indexed": false,
          "name": "price",
          "type": "uint256"
        }
      ],
      "name": "NewProject",
      "type": "event"
    },
    {
      "anonymous": false,
      "inputs": [
        {
          "indexed": false,
          "name": "id",
          "type": "uint256"
        },
        {
          "indexed": false,
          "name": "owner",
          "type": "address"
        },
        {
          "indexed": false,
          "name": "title",
          "type": "string"
        },
        {
          "indexed": false,
          "name": "price",
          "type": "uint256"
        }
      ],
      "name": "UpdateProject",
      "type": "event"
    },
    {
      "anonymous": false,
      "inputs": [
        {
          "indexed": false,
          "name": "id",
          "type": "uint256"
        },
        {
          "indexed": false,
          "name": "owner",
          "type": "address"
        },
        {
          "indexed": false,
          "name": "title",
          "type": "string"
        }
      ],
      "name": "RemoveProject",
      "type": "event"
    },
    {
      "anonymous": false,
      "inputs": [
        {
          "indexed": false,
          "name": "id",
          "type": "uint256"
        },
        {
          "indexed": false,
          "name": "owner",
          "type": "address"
        },
        {
          "indexed": false,
          "name": "title",
          "type": "string"
        },
        {
          "indexed": false,
          "name": "price",
          "type": "uint256"
        }
      ],
      "name": "PublishedProject",
      "type": "event"
    },
    {
      "anonymous": false,
      "inputs": [
        {
          "indexed": false,
          "name": "id",
          "type": "uint256"
        },
        {
          "indexed": false,
          "name": "owner",
          "type": "address"
        },
        {
          "indexed": false,
          "name": "title",
          "type": "string"
        },
        {
          "indexed": false,
          "name": "price",
          "type": "uint256"
        }
      ],
      "name": "UnpublishedProject",
      "type": "event"
    },
    {
      "anonymous": false,
      "inputs": [
        {
          "indexed": false,
          "name": "id",
          "type": "uint256"
        },
        {
          "indexed": false,
          "name": "owner",
          "type": "address"
        },
        {
          "indexed": false,
          "name": "title",
          "type": "string"
        },
        {
          "indexed": false,
          "name": "price",
          "type": "uint256"
        }
      ],
      "name": "OfferServices",
      "type": "event"
    },
    {
      "anonymous": false,
      "inputs": [
        {
          "indexed": false,
          "name": "id",
          "type": "uint256"
        },
        {
          "indexed": false,
          "name": "owner",
          "type": "address"
        },
        {
          "indexed": false,
          "name": "provider",
          "type": "address"
        },
        {
          "indexed": false,
          "name": "title",
          "type": "string"
        },
        {
          "indexed": false,
          "name": "price",
          "type": "uint256"
        }
      ],
      "name": "AcceptProposal",
      "type": "event"
    },
    {
      "anonymous": false,
      "inputs": [
        {
          "indexed": false,
          "name": "id",
          "type": "uint256"
        },
        {
          "indexed": false,
          "name": "owner",
          "type": "address"
        },
        {
          "indexed": false,
          "name": "provider",
          "type": "address"
        },
        {
          "indexed": false,
          "name": "title",
          "type": "string"
        },
        {
          "indexed": false,
          "name": "price",
          "type": "uint256"
        }
      ],
      "name": "RejectProposal",
      "type": "event"
    },
    {
      "anonymous": false,
      "inputs": [
        {
          "indexed": false,
          "name": "id",
          "type": "uint256"
        },
        {
          "indexed": false,
          "name": "owner",
          "type": "address"
        },
        {
          "indexed": false,
          "name": "provider",
          "type": "address"
        },
        {
          "indexed": false,
          "name": "title",
          "type": "string"
        },
        {
          "indexed": false,
          "name": "price",
          "type": "uint256"
        }
      ],
      "name": "ValidateServices",
      "type": "event"
    },
    {
      "anonymous": false,
      "inputs": [
        {
          "indexed": false,
          "name": "id",
          "type": "uint256"
        },
        {
          "indexed": false,
          "name": "owner",
          "type": "address"
        },
        {
          "indexed": false,
          "name": "provider",
          "type": "address"
        },
        {
          "indexed": false,
          "name": "title",
          "type": "string"
        },
        {
          "indexed": false,
          "name": "price",
          "type": "uint256"
        }
      ],
      "name": "CompletedServices",
      "type": "event"
    },
    {
      "anonymous": false,
      "inputs": [
        {
          "indexed": false,
          "name": "id",
          "type": "uint256"
        },
        {
          "indexed": false,
          "name": "owner",
          "type": "address"
        },
        {
          "indexed": false,
          "name": "provider",
          "type": "address"
        },
        {
          "indexed": false,
          "name": "title",
          "type": "string"
        },
        {
          "indexed": false,
          "name": "price",
          "type": "uint256"
        }
      ],
      "name": "RejectServices",
      "type": "event"
    },
    {
      "anonymous": false,
      "inputs": [
        {
          "indexed": false,
          "name": "id",
          "type": "uint256"
        },
        {
          "indexed": false,
          "name": "owner",
          "type": "address"
        },
        {
          "indexed": false,
          "name": "provider",
          "type": "address"
        },
        {
          "indexed": false,
          "name": "title",
          "type": "string"
        },
        {
          "indexed": false,
          "name": "price",
          "type": "uint256"
        }
      ],
      "name": "LeaveServices",
      "type": "event"
    },
    {
      "anonymous": false,
      "inputs": [
        {
          "indexed": false,
          "name": "id",
          "type": "uint256"
        },
        {
          "indexed": false,
          "name": "owner",
          "type": "address"
        },
        {
          "indexed": false,
          "name": "provider",
          "type": "address"
        },
        {
          "indexed": false,
          "name": "title",
          "type": "string"
        },
        {
          "indexed": false,
          "name": "price",
          "type": "uint256"
        }
      ],
      "name": "CancelServices",
      "type": "event"
    },
    {
      "constant": false,
      "inputs": [
        {
          "name": "_title",
          "type": "string"
        },
        {
          "name": "_description",
          "type": "string"
        },
        {
          "name": "_price",
          "type": "uint256"
        }
      ],
      "name": "addProject",
      "outputs": [],
      "payable": false,
      "stateMutability": "nonpayable",
      "type": "function"
    },
    {
      "constant": false,
      "inputs": [
        {
          "name": "_id",
          "type": "uint256"
        },
        {
          "name": "_title",
          "type": "string"
        },
        {
          "name": "_description",
          "type": "string"
        },
        {
          "name": "_price",
          "type": "uint256"
        }
      ],
      "name": "updateProject",
      "outputs": [],
      "payable": false,
      "stateMutability": "nonpayable",
      "type": "function"
    },
    {
      "constant": false,
      "inputs": [
        {
          "name": "_id",
          "type": "uint256"
        }
      ],
      "name": "removeProject",
      "outputs": [],
      "payable": false,
      "stateMutability": "nonpayable",
      "type": "function"
    },
    {
      "constant": false,
      "inputs": [
        {
          "name": "_id",
          "type": "uint256"
        }
      ],
      "name": "publishProject",
      "outputs": [],
      "payable": false,
      "stateMutability": "nonpayable",
      "type": "function"
    },
    {
      "constant": false,
      "inputs": [
        {
          "name": "_id",
          "type": "uint256"
        }
      ],
      "name": "unpublishProject",
      "outputs": [],
      "payable": false,
      "stateMutability": "nonpayable",
      "type": "function"
    },
    {
      "constant": false,
      "inputs": [
        {
          "name": "_id",
          "type": "uint256"
        }
      ],
      "name": "offerServices",
      "outputs": [],
      "payable": false,
      "stateMutability": "nonpayable",
      "type": "function"
    },
    {
      "constant": false,
      "inputs": [
        {
          "name": "_id",
          "type": "uint256"
        }
      ],
      "name": "acceptProposal",
      "outputs": [],
      "payable": false,
      "stateMutability": "nonpayable",
      "type": "function"
    },
    {
      "constant": false,
      "inputs": [
        {
          "name": "_id",
          "type": "uint256"
        }
      ],
      "name": "rejectProposal",
      "outputs": [],
      "payable": false,
      "stateMutability": "nonpayable",
      "type": "function"
    },
    {
      "constant": false,
      "inputs": [
        {
          "name": "_id",
          "type": "uint256"
        }
      ],
      "name": "validateServices",
      "outputs": [],
      "payable": false,
      "stateMutability": "nonpayable",
      "type": "function"
    },
    {
      "constant": false,
      "inputs": [
        {
          "name": "_id",
          "type": "uint256"
        }
      ],
      "name": "acceptServices",
      "outputs": [],
      "payable": false,
      "stateMutability": "nonpayable",
      "type": "function"
    },
    {
      "constant": false,
      "inputs": [
        {
          "name": "_id",
          "type": "uint256"
        }
      ],
      "name": "rejectServices",
      "outputs": [],
      "payable": false,
      "stateMutability": "nonpayable",
      "type": "function"
    },
    {
      "constant": false,
      "inputs": [
        {
          "name": "_id",
          "type": "uint256"
        }
      ],
      "name": "leaveServices",
      "outputs": [],
      "payable": false,
      "stateMutability": "nonpayable",
      "type": "function"
    },
    {
      "constant": false,
      "inputs": [
        {
          "name": "_id",
          "type": "uint256"
        }
      ],
      "name": "cancelServices",
      "outputs": [],
      "payable": false,
      "stateMutability": "nonpayable",
      "type": "function"
    },
    {
      "constant": true,
      "inputs": [
        {
          "name": "_id",
          "type": "uint256"
        }
      ],
      "name": "getProject",
      "outputs": [
        {
          "name": "owner",
          "type": "address"
        },
        {
          "name": "provider",
          "type": "address"
        },
        {
          "name": "title",
          "type": "string"
        },
        {
          "name": "description",
          "type": "string"
        },
        {
          "name": "price",
          "type": "uint256"
        },
        {
          "name": "status",
          "type": "uint8"
        }
      ],
      "payable": false,
      "stateMutability": "view",
      "type": "function"
    },
    {
      "constant": true,
      "inputs": [],
      "name": "getAllProjects",
      "outputs": [
        {
          "name": "",
          "type": "uint256[]"
        }
      ],
      "payable": false,
      "stateMutability": "view",
      "type": "function"
    },
    {
      "constant": true,
      "inputs": [],
      "name": "getPublishedProjects",
      "outputs": [
        {
          "name": "",
          "type": "uint256[]"
        }
      ],
      "payable": false,
      "stateMutability": "view",
      "type": "function"
    },
    {
      "constant": true,
      "inputs": [],
      "name": "getMyProjects",
      "outputs": [
        {
          "name": "",
          "type": "uint256[]"
        }
      ],
      "payable": false,
      "stateMutability": "view",
      "type": "function"
    },
    {
      "constant": true,
      "inputs": [],
      "name": "getMyOffers",
      "outputs": [
        {
          "name": "",
          "type": "uint256[]"
        }
      ],
      "payable": false,
      "stateMutability": "view",
      "type": "function"
    },
    {
      "constant": true,
      "inputs": [],
      "name": "getMyReviews",
      "outputs": [
        {
          "name": "",
          "type": "uint256[]"
        }
      ],
      "payable": false,
      "stateMutability": "view",
      "type": "function"
    },
    {
      "constant": true,
      "inputs": [],
      "name": "getMyContracts",
      "outputs": [
        {
          "name": "",
          "type": "uint256[]"
        }
      ],
      "payable": false,
      "stateMutability": "view",
      "type": "function"
    }
  ],
  "bytecode": "0x608060405234801561001057600080fd5b50612ef3806100206000396000f3fe608060405234801561001057600080fd5b50600436106101375760003560e01c806380d03829116100b8578063cb81244b1161007c578063cb81244b14610643578063df8609e314610660578063e4f655b01461067d578063ef1b655314610685578063f0f3f2c81461068d578063f7f2ccbf146107be57610137565b806380d03829146104c75780638c9e0716146104cf578063a7fa01a7146104ec578063bc28d8781461061e578063c81bde151461063b57610137565b80634beb7e94116100ff5780634beb7e941461033d5780635873f998146103455780635fd4f7581461036257806360c5cc3a1461048d57806364a4277a146104aa57610137565b8063037852c71461013c5780630850cd1e146101945780630d181a29146101b3578063107046bd146101d05780632e8cc9c214610320575b600080fd5b6101446107db565b60408051602080825283518183015283519192839290830191858101910280838360005b83811015610180578181015183820152602001610168565b505050509050019250505060405180910390f35b6101b1600480360360208110156101aa57600080fd5b5035610949565b005b6101b1600480360360208110156101c957600080fd5b5035610b0a565b6101ed600480360360208110156101e657600080fd5b5035610cd3565b60405180888152602001876001600160a01b03166001600160a01b03168152602001866001600160a01b03166001600160a01b03168152602001806020018060200185815260200184600781111561024157fe5b60ff168152602001838103835287818151815260200191508051906020019080838360005b8381101561027e578181015183820152602001610266565b50505050905090810190601f1680156102ab5780820380516001836020036101000a031916815260200191505b50838103825286518152865160209182019188019080838360005b838110156102de5781810151838201526020016102c6565b50505050905090810190601f16801561030b5780820380516001836020036101000a031916815260200191505b50995050505050505050505060405180910390f35b6101b16004803603602081101561033657600080fd5b5035610e32565b610144610f7f565b6101b16004803603602081101561035b57600080fd5b50356110e0565b6101b16004803603606081101561037857600080fd5b810190602081018135600160201b81111561039257600080fd5b8201836020820111156103a457600080fd5b803590602001918460018302840111600160201b831117156103c557600080fd5b91908080601f0160208091040260200160405190810160405280939291908181526020018383808284376000920191909152509295949360208101935035915050600160201b81111561041757600080fd5b82018360208201111561042957600080fd5b803590602001918460018302840111600160201b8311171561044a57600080fd5b91908080601f016020809104026020016040519081016040528093929190818152602001838380828437600092019190915250929550509135925061146a915050565b6101b1600480360360208110156104a357600080fd5b50356116dc565b6101b1600480360360208110156104c057600080fd5b5035611875565b6101446119fa565b6101b1600480360360208110156104e557600080fd5b5035611b2e565b6101b16004803603608081101561050257600080fd5b81359190810190604081016020820135600160201b81111561052357600080fd5b82018360208201111561053557600080fd5b803590602001918460018302840111600160201b8311171561055657600080fd5b91908080601f0160208091040260200160405190810160405280939291908181526020018383808284376000920191909152509295949360208101935035915050600160201b8111156105a857600080fd5b8201836020820111156105ba57600080fd5b803590602001918460018302840111600160201b831117156105db57600080fd5b91908080601f0160208091040260200160405190810160405280939291908181526020018383808284376000920191909152509295505091359250611cdf915050565b6101b16004803603602081101561063457600080fd5b5035611f5b565b610144612151565b6101b16004803603602081101561065957600080fd5b50356122d6565b6101b16004803603602081101561067657600080fd5b50356124a0565b61014461263e565b610144612774565b6106aa600480360360208110156106a357600080fd5b50356128d5565b604080516001600160a01b03808916825287166020820152608081018490529081016060820160a083018460078111156106e057fe5b60ff168152602001838103835287818151815260200191508051906020019080838360005b8381101561071d578181015183820152602001610705565b50505050905090810190601f16801561074a5780820380516001836020036101000a031916815260200191505b50838103825286518152865160209182019188019080838360005b8381101561077d578181015183820152602001610765565b50505050905090810190601f1680156107aa5780820380516001836020036101000a031916815260200191505b509850505050505050505060405180910390f35b6101b1600480360360208110156107d457600080fd5b5035612afc565b6060600154600014156108025760408051600080825260208201909252905b509050610946565b6060600154604051908082528060200260200182016040528015610830578160200160208202803883390190505b509050600060015b60015481116108d2576000818152602081905260409020600201546001600160a01b0316331480156108895750600260008281526020819052604090206006015460ff16600781111561088757fe5b145b156108ca5760008181526020819052604090205483518490849081106108ab57fe5b60209081029190910101526108c782600163ffffffff612cc616565b91505b600101610838565b506060816040519080825280602002602001820160405280156108ff578160200160208202803883390190505b50905060005b828110156109405783818151811061091957fe5b602002602001015182828151811061092d57fe5b6020908102919091010152600101610905565b50925050505b90565b600081815260208190526040902060018101546001600160a01b031661096f5750610b07565b60018101546001600160a01b031633146109bd57604051600160e51b62461bcd028152600401808060200182810382526025815260200180612ea36025913960400191505060405180910390fd5b6001600682015460ff1660078111156109d257fe5b14610a275760408051600160e51b62461bcd02815260206004820152601560248201527f43616e6e6f7420626520756e7075626c69736865640000000000000000000000604482015290519081900360640190fd5b60068101805460ff191690556005810154604080518481523360208201819052606082018490526080928201838152600386018054600260018216156101000260001901909116049484018590527f3525d4593ef70f97d7b99dfeab0e0be748aeb51f464f83bf0bbf5ab6badb45c89588959394919390929060a083019085908015610af45780601f10610ac957610100808354040283529160200191610af4565b820191906000526020600020905b815481529060010190602001808311610ad757829003601f168201915b50509550505050505060405180910390a1505b50565b600081815260208190526040902060018101546001600160a01b0316610b305750610b07565b60018101546001600160a01b03163314610b7e57604051600160e51b62461bcd028152600401808060200182810382526025815260200180612ea36025913960400191505060405180910390fd5b6004600682015460ff166007811115610b9357fe5b14610bd257604051600160e51b62461bcd028152600401808060200182810382526021815260200180612e826021913960400191505060405180910390fd5b60068101805460ff19166005908117909155600280830154918301546040805186815233602082018190526001600160a01b039095169181018290526080810183905260a0606082018181526003880180546101006001821615026000190116969096049183018290527f6cdcff78f8a5212c413686799b2307ab7c23990e6b1278c520cb0ac738ba7aa196899690959093909290919060c083019085908015610cbd5780601f10610c9257610100808354040283529160200191610cbd565b820191906000526020600020905b815481529060010190602001808311610ca057829003601f168201915b5050965050505050505060405180910390a15050565b60006020818152918152604090819020805460018083015460028085015460038601805488516101009682161596909602600019011692909204601f810189900489028501890190975286845293966001600160a01b0392831696929094169493909190830182828015610d885780601f10610d5d57610100808354040283529160200191610d88565b820191906000526020600020905b815481529060010190602001808311610d6b57829003601f168201915b5050505060048301805460408051602060026001851615610100026000190190941693909304601f8101849004840282018401909252818152949594935090830182828015610e185780601f10610ded57610100808354040283529160200191610e18565b820191906000526020600020905b815481529060010190602001808311610dfb57829003601f168201915b50505050600583015460069093015491929160ff16905087565b600081815260208190526040902060018101546001600160a01b0316610e585750610b07565b6001600682015460ff166007811115610e6d57fe5b14610ec25760408051600160e51b62461bcd02815260206004820152601960248201527f50726f6a656374206e6f206d6f726520617661696c61626c6500000000000000604482015290519081900360640190fd5b600280820180546001600160a01b0319163317905560068201805460ff191660018302179055506005810154604080518481523360208201819052606082018490526080928201838152600386018054600260001961010060018416150201909116049484018590527f0d4c28197bc48c30df4838b70fb3f01783519ca93e2e4cbfe0bb5e04d3d85d089588959394919390929060a083019085908015610af45780601f10610ac957610100808354040283529160200191610af4565b606060015460001415610fa25760408051600080825260208201909252906107fa565b6060600154604051908082528060200260200182016040528015610fd0578160200160208202803883390190505b509050600060015b6001548111611072576000818152602081905260409020600101546001600160a01b0316158015906110295750600160008281526020819052604090206006015460ff16600781111561102757fe5b145b1561106a57600081815260208190526040902054835184908490811061104b57fe5b602090810291909101015261106782600163ffffffff612cc616565b91505b600101610fd8565b5060608160405190808252806020026020018201604052801561109f578160200160208202803883390190505b50905060005b82811015610940578381815181106110b957fe5b60200260200101518282815181106110cd57fe5b60209081029190910101526001016110a5565b6110e8612d2a565b60008281526020818152604091829020825160e081018452815481526001808301546001600160a01b03908116838601526002808501549091168387015260038401805487516101009482161594909402600019011691909104601f8101869004860283018601909652858252919492936060860193919291908301828280156111b35780601f10611188576101008083540402835291602001916111b3565b820191906000526020600020905b81548152906001019060200180831161119657829003601f168201915b505050918352505060048201805460408051602060026001851615610100026000190190941693909304601f81018490048402820184019092528181529382019392918301828280156112475780601f1061121c57610100808354040283529160200191611247565b820191906000526020600020905b81548152906001019060200180831161122a57829003601f168201915b505050918352505060058201546020820152600682015460409091019060ff16600781111561127257fe5b600781111561127d57fe5b90525060208101519091506001600160a01b031661129b5750610b07565b60208101516001600160a01b031633146112e957604051600160e51b62461bcd028152600401808060200182810382526025815260200180612ea36025913960400191505060405180910390fd5b60008160c0015160078111156112fb57fe5b1461133a57604051600160e51b62461bcd028152600401808060200182810382526021815260200180612e616021913960400191505060405180910390fd5b606081015160008381526020819052604081208181556001810180546001600160a01b031990811690915560028201805490911690559061137e6003830182612d63565b61138c600483016000612d63565b60058201600090556006820160006101000a81549060ff021916905550507f0bac8d70ddda9ec612d317fa2968f6f746b59169d04a223ec870eb6447a7c7f483338360405180848152602001836001600160a01b03166001600160a01b0316815260200180602001828103825283818151815260200191508051906020019080838360005b83811015611429578181015183820152602001611411565b50505050905090810190601f1680156114565780820380516001836020036101000a031916815260200191505b5094505050505060405180910390a1505050565b825183906114c25760408051600160e51b62461bcd02815260206004820152601360248201527f41207469746c6520697320726571756972656400000000000000000000000000604482015290519081900360640190fd5b8251839061151a5760408051600160e51b62461bcd02815260206004820152601960248201527f41206465736372697074696f6e20697320726571756972656400000000000000604482015290519081900360640190fd5b6001805461152d9163ffffffff612cc616565b60018181556040805160e0810182528381523360208083019182526000838501818152606085018d8152608086018d905260a086018c905260c0860183905297825281835294902083518155915194820180546001600160a01b039687166001600160a01b031991821617909155935160028301805491909616941693909317909355925180516115c49260038501920190612da7565b50608082015180516115e0916004840191602090910190612da7565b5060a0820151600582015560c082015160068201805460ff1916600183600781111561160857fe5b02179055509050507fc8e7a8f4fbf568a726fe7b162d56bb8a313fa7ec7f274c6390969cb322a0f79460015433878660405180858152602001846001600160a01b03166001600160a01b0316815260200180602001838152602001828103825284818151815260200191508051906020019080838360005b83811015611698578181015183820152602001611680565b50505050905090810190601f1680156116c55780820380516001836020036101000a031916815260200191505b509550505050505060405180910390a15050505050565b600081815260208190526040902060018101546001600160a01b03166117025750610b07565b60018101546001600160a01b0316331461175057604051600160e51b62461bcd028152600401808060200182810382526025815260200180612ea36025913960400191505060405180910390fd5b6002600682015460ff16600781111561176557fe5b146117ba5760408051600160e51b62461bcd02815260206004820152601660248201527f50726f706f73616c206e6f7420696e2072657669657700000000000000000000604482015290519081900360640190fd5b60068101805460ff1916600390811790915560028083015460058401546040805187815233602082018190526001600160a01b039094169181018290526080810183905260a06060820181815296880180546101006001821615026000190116969096049082018190527fd0ca6107f6c9513954ca859c885b1e8b434687b6cf5e40625574d53dda8422ed9689969394929160c083019085908015610cbd5780601f10610c9257610100808354040283529160200191610cbd565b600081815260208190526040902060018101546001600160a01b031661189b5750610b07565b60018101546001600160a01b031633146118e957604051600160e51b62461bcd028152600401808060200182810382526025815260200180612ea36025913960400191505060405180910390fd5b6000600682015460ff1660078111156118fe57fe5b146119535760408051600160e51b62461bcd02815260206004820152601360248201527f43616e6e6f74206265207075626c697368656400000000000000000000000000604482015290519081900360640190fd5b60068101805460ff191660019081179091556005820154604080518581523360208201819052606082018490526080928201838152600387018054600297811615610100026000190116969096049383018490527f8312e76cb9523ff197151c20e9aa91aab65c750674f5a0f6df91434fc153adc995889592949093919060a083019085908015610af45780601f10610ac957610100808354040283529160200191610af4565b606060015460001415611a1d5760408051600080825260208201909252906107fa565b6060600154604051908082528060200260200182016040528015611a4b578160200160208202803883390190505b509050600060015b6001548111611ac0576000818152602081905260409020600101546001600160a01b031615611ab8576000818152602081905260409020548351849084908110611a9957fe5b6020908102919091010152611ab582600163ffffffff612cc616565b91505b600101611a53565b50606081604051908082528060200260200182016040528015611aed578160200160208202803883390190505b50905060005b8281101561094057838181518110611b0757fe5b6020026020010151828281518110611b1b57fe5b6020908102919091010152600101611af3565b600081815260208190526040902060018101546001600160a01b0316611b545750610b07565b60028101546001600160a01b03163314611bb85760408051600160e51b62461bcd02815260206004820181905260248201527f596f7520617265206e6f742074686520736572766963652070726f7669646572604482015290519081900360640190fd5b6003600682015460ff166007811115611bcd57fe5b14611c225760408051600160e51b62461bcd02815260206004820152601760248201527f50726f6a656374206e6f7420696e2070726f6772657373000000000000000000604482015290519081900360640190fd5b60068101805460ff1916600417905560028082015460058301546040805186815233602082018190526001600160a01b039094169181018290526080810183905260a0606082018181526003880180546101006001821615026000190116979097049183018290527f81bf827a3cd9698afc9e451ffd06653fd88b7991043f0ffbd5025650e57c643c968996959093909290919060c083019085908015610cbd5780601f10610c9257610100808354040283529160200191610cbd565b600084815260208190526040902060018101546001600160a01b0316611d055750611f55565b60018101546001600160a01b03163314611d5357604051600160e51b62461bcd028152600401808060200182810382526025815260200180612ea36025913960400191505060405180910390fd5b6000600682015460ff166007811115611d6857fe5b14611da757604051600160e51b62461bcd028152600401808060200182810382526021815260200180612e406021913960400191505060405180910390fd5b83518490611dff5760408051600160e51b62461bcd02815260206004820152601360248201527f41207469746c6520697320726571756972656400000000000000000000000000604482015290519081900360640190fd5b83518490611e575760408051600160e51b62461bcd02815260206004820152601960248201527f41206465736372697074696f6e20697320726571756972656400000000000000604482015290519081900360640190fd5b8551611e6c9060038501906020890190612da7565b508451611e829060048501906020880190612da7565b508383600501819055507f78ec34897e7f5ea3506eaaa6dcf2edc5ea8eea1c579f1f3d158e55233c602e6960015433888760405180858152602001846001600160a01b03166001600160a01b0316815260200180602001838152602001828103825284818151815260200191508051906020019080838360005b83811015611f14578181015183820152602001611efc565b50505050905090810190601f168015611f415780820380516001836020036101000a031916815260200191505b509550505050505060405180910390a15050505b50505050565b600081815260208190526040902060018101546001600160a01b0316611f815750610b07565b60018101546001600160a01b03163314611fcf57604051600160e51b62461bcd028152600401808060200182810382526025815260200180612ea36025913960400191505060405180910390fd5b6002600682015460ff166007811115611fe457fe5b146120395760408051600160e51b62461bcd02815260206004820152601660248201527f50726f706f73616c206e6f7420696e2072657669657700000000000000000000604482015290519081900360640190fd5b6002818101805460068401805460ff191660019081179091556001600160a01b0319821690925560058401546040805187815233602082018190526001600160a01b039094169181018290526080810183905260a0606082018181526003890180546101009881161598909802600019019097169790970490820181905291957f4c596893f217ff7756c8fc77bea24399406130928fc25e6ace71d6121fd2643f95899594889491939092909160c08301908590801561213a5780601f1061210f5761010080835404028352916020019161213a565b820191906000526020600020905b81548152906001019060200180831161211d57829003601f168201915b5050965050505050505060405180910390a1505050565b6060600154600014156121745760408051600080825260208201909252906107fa565b60606001546040519080825280602002602001820160405280156121a2578160200160208202803883390190505b509050600060015b6001548111612268576000818152602081905260409020600101546001600160a01b03163314806121f457506000818152602081905260409020600201546001600160a01b031633145b801561221f5750600360008281526020819052604090206006015460ff16600781111561221d57fe5b145b1561226057600081815260208190526040902054835184908490811061224157fe5b602090810291909101015261225d82600163ffffffff612cc616565b91505b6001016121aa565b50606081604051908082528060200260200182016040528015612295578160200160208202803883390190505b50905060005b82811015610940578381815181106122af57fe5b60200260200101518282815181106122c357fe5b602090810291909101015260010161229b565b600081815260208190526040902060018101546001600160a01b03166122fc5750610b07565b60028101546001600160a01b031633146123605760408051600160e51b62461bcd02815260206004820181905260248201527f596f7520617265206e6f742074686520736572766963652070726f7669646572604482015290519081900360640190fd5b6003600682015460ff16600781111561237557fe5b146123ca5760408051600160e51b62461bcd02815260206004820152601760248201527f50726f6a656374206e6f7420696e2070726f6772657373000000000000000000604482015290519081900360640190fd5b6002818101805460068401805460ff191660019081179091556001600160a01b0319821690925560058401546040805187815233602082018190526001600160a01b039094169181018290526080810183905260a0606082018181526003890180546101009881161598909802600019019097169790970490820181905291957fdc035723d0285e3eb28c7a11d142e3be4cb71b3dfa94cc9bca10f118802a6ab395899594889491939092909160c08301908590801561213a5780601f1061210f5761010080835404028352916020019161213a565b600081815260208190526040902060018101546001600160a01b03166124c65750610b07565b60018101546001600160a01b0316331461251457604051600160e51b62461bcd028152600401808060200182810382526025815260200180612ea36025913960400191505060405180910390fd5b6004600682015460ff16600781111561252957fe5b1461256857604051600160e51b62461bcd028152600401808060200182810382526021815260200180612e826021913960400191505060405180910390fd5b6002818101805460068401805460ff191660019081179091556001600160a01b0319821690925560058401546040805187815233602082018190526001600160a01b039094169181018290526080810183905260a0606082018181526003890180546101009881161598909802600019019097169790970490820181905291957f9ff34971c21077ec2e6f5a3b78f4349ae2f01b8e792e14780ad8465159cb4ef595899594889491939092909160c08301908590801561213a5780601f1061210f5761010080835404028352916020019161213a565b6060600154600014156126615760408051600080825260208201909252906107fa565b606060015460405190808252806020026020018201604052801561268f578160200160208202803883390190505b509050600060015b6001548111612706576000818152602081905260409020600101546001600160a01b03163314156126fe5760008181526020819052604090205483518490849081106126df57fe5b60209081029190910101526126fb82600163ffffffff612cc616565b91505b600101612697565b50606081604051908082528060200260200182016040528015612733578160200160208202803883390190505b50905060005b828110156109405783818151811061274d57fe5b602002602001015182828151811061276157fe5b6020908102919091010152600101612739565b6060600154600014156127975760408051600080825260208201909252906107fa565b60606001546040519080825280602002602001820160405280156127c5578160200160208202803883390190505b509050600060015b6001548111612867576000818152602081905260409020600101546001600160a01b03163314801561281e5750600260008281526020819052604090206006015460ff16600781111561281c57fe5b145b1561285f57600081815260208190526040902054835184908490811061284057fe5b602090810291909101015261285c82600163ffffffff612cc616565b91505b6001016127cd565b50606081604051908082528060200260200182016040528015612894578160200160208202803883390190505b50905060005b82811015610940578381815181106128ae57fe5b60200260200101518282815181106128c257fe5b602090810291909101015260010161289a565b6000806060806000806128e6612d2a565b60008881526020818152604091829020825160e081018452815481526001808301546001600160a01b03908116838601526002808501549091168387015260038401805487516101009482161594909402600019011691909104601f8101869004860283018601909652858252919492936060860193919291908301828280156129b15780601f10612986576101008083540402835291602001916129b1565b820191906000526020600020905b81548152906001019060200180831161299457829003601f168201915b505050918352505060048201805460408051602060026001851615610100026000190190941693909304601f8101849004840282018401909252818152938201939291830182828015612a455780601f10612a1a57610100808354040283529160200191612a45565b820191906000526020600020905b815481529060010190602001808311612a2857829003601f168201915b505050918352505060058201546020820152600682015460409091019060ff166007811115612a7057fe5b6007811115612a7b57fe5b90525060208101519091506001600160a01b0316612ac4575050604080516020808201835260008083528351918201909352828152919650869550935091508390506007612af3565b602081015160408201516060830151608084015160a085015160c090950151939a509198509650945090925090505b91939550919395565b600081815260208190526040902060018101546001600160a01b0316612b225750610b07565b60018101546001600160a01b03163314612b865760408051600160e51b62461bcd02815260206004820152601f60248201527f596f7520617265206e6f74207468652070726f6a6563742773206f776e657200604482015290519081900360640190fd5b6003600682015460ff166007811115612b9b57fe5b14612bf05760408051600160e51b62461bcd02815260206004820152601760248201527f50726f6a656374206e6f7420696e2070726f6772657373000000000000000000604482015290519081900360640190fd5b6002818101805460068401805460ff191660019081179091556001600160a01b0319821690925560058401546040805187815233602082018190526001600160a01b039094169181018290526080810183905260a0606082018181526003890180546101009881161598909802600019019097169790970490820181905291957f56cc84d40486a8b8faebeff4c28af8944d0aa781e14e0490b85a4719c1237fc095899594889491939092909160c08301908590801561213a5780601f1061210f5761010080835404028352916020019161213a565b600082820183811015612d235760408051600160e51b62461bcd02815260206004820152601b60248201527f536166654d6174683a206164646974696f6e206f766572666c6f770000000000604482015290519081900360640190fd5b9392505050565b6040805160e0810182526000808252602082018190529181018290526060808201819052608082015260a081018290529060c082015290565b50805460018160011615610100020316600290046000825580601f10612d895750610b07565b601f016020900490600052602060002090810190610b079190612e25565b828054600181600116156101000203166002900490600052602060002090601f016020900481019282601f10612de857805160ff1916838001178555612e15565b82800160010185558215612e15579182015b82811115612e15578251825591602001919060010190612dfa565b50612e21929150612e25565b5090565b61094691905b80821115612e215760008155600101612e2b56fe43616e6e6f742062652075706461746564207768696c65207075626c697368656443616e6e6f742062652072656d6f766564207768696c65207075626c697368656450726f6a656374206e6f7420696e2076616c69646174696f6e2070726f63657373596f7520617265206e6f7420746865206f776e6572206f6620746869732070726f6a656374a165627a7a72305820f59d5ac5b27407a00aa155062ef4859049f9537bfbdb072265693c3747f2c2cb0029",
  "source": "pragma solidity >=0.4.21 <0.6.0;\n\nimport 'openzeppelin-solidity/contracts/math/SafeMath.sol';\n\n// @title Decentralised business platform\ncontract ChainBizz {\n  //\n  // OpenZeppelin specifics\n  //\n  using SafeMath for uint256;\n\n  // Defines the status of the project\n  enum ProjectStatus {\n    Draft,\n    Available, \n    InReview,\n    OnGoing, \n    Validate,\n    Completed,\n    Canceled,\n    Unknown\n  }\n\n  //\n  // State variables\n  //\n\n  // Description of a project\n  struct ProjectItem {\n    uint256 id;               // unique ID\n    address owner;\n    address provider;             \n    string title;\n    string description;\n    uint256 price;            // price in Wei\n    ProjectStatus status;      \n  }\n\n  // List of projects\n  mapping(uint256 => ProjectItem) public projects;\n\n  // Number of registered projects\n  uint256 projectsCounter;\n  \n  //\n  // Events\n  //\n  event NewProject(uint256 id, address owner, string title, uint256 price);\n  event UpdateProject(uint256 id, address owner, string title, uint256 price);\n  event RemoveProject(uint256 id, address owner, string title);\n  event PublishedProject(uint256 id, address owner, string title, uint256 price);\n  event UnpublishedProject(uint256 id, address owner, string title, uint256 price);\n  event OfferServices(uint256 id, address owner, string title, uint256 price);\n  event AcceptProposal(uint256 id, address owner, address provider, string title, uint256 price);\n  event RejectProposal(uint256 id, address owner, address provider, string title, uint256 price);\n  event ValidateServices(uint256 id, address owner, address provider, string title, uint256 price);\n  event CompletedServices(uint256 id, address owner, address provider, string title, uint256 price);\n  event RejectServices(uint256 id, address owner, address provider, string title, uint256 price);\n  event LeaveServices(uint256 id, address owner, address provider, string title, uint256 price);\n  event CancelServices(uint256 id, address owner, address provider, string title, uint256 price);\n\n  //\n  // Implementation\n  //\n\n\n  //\n  // Setters\n  //\n  \n  // Add a new project\n  function addProject(string memory _title, string memory _description, uint256 _price) public {\n    \n    // a title is required\n    bytes memory title = bytes(_title);\n    require(title.length > 0, \"A title is required\");\n\n    // a description is required\n    bytes memory description = bytes(_description);\n    require(description.length > 0, \"A description is required\");\n\n    // new project\n    projectsCounter = projectsCounter.add(1);\n\n    // store the new project\n    projects[projectsCounter] = ProjectItem(projectsCounter, msg.sender, address(0x0), _title,  _description, _price, ProjectStatus.Draft);\n\n    emit NewProject(projectsCounter, msg.sender, _title, _price);\n  }\n\n  // Update an unpublished project\n  function updateProject(uint256 _id, string memory _title, string memory _description, uint256 _price) public {\n    \n    // retrieve the project\n    ProjectItem storage project = projects[_id];\n\n    // ensure that this project exists\n    if (project.owner == address(0x0)) {\n      return;\n    }\n \n    // do we own this project?\n    require(project.owner == msg.sender, \"You are not the owner of this project\");\n\n    // ready to be published?\n    require(project.status == ProjectStatus.Draft, \"Cannot be updated while published\");\n\n    // a title is required\n    bytes memory title = bytes(_title);\n    require(title.length > 0, \"A title is required\");\n\n    // a description is required\n    bytes memory description = bytes(_description);\n    require(description.length > 0, \"A description is required\");\n\n    // update the project\n    project.title = _title;\n    project.description = _description;\n    project.price = _price;\n\n    emit UpdateProject(projectsCounter, msg.sender, _title, _price);\n  }\n\n  // Remove an unpublished project\n  function removeProject(uint256 _id) public {\n    \n    // retrieve the project\n    ProjectItem memory project = projects[_id];\n\n    // ensure that this project exists\n    if (project.owner == address(0x0)) {\n      return;\n    }\n \n    // do we own this project?\n    require(project.owner == msg.sender, \"You are not the owner of this project\");\n\n    // ready to be removed?\n    require(project.status == ProjectStatus.Draft, \"Cannot be removed while published\");\n\n    // keep title for future use\n    string memory title = project.title;\n\n    // remove the project\n    delete projects[_id];\n\n    emit RemoveProject(_id, msg.sender, title);\n  }\n\n  // Publish the project to seek for providers\n  function publishProject(uint256 _id) public {\n    \n    // retrieve the project\n    ProjectItem storage project = projects[_id];\n\n    // ensure that this project exists\n    if (project.owner == address(0x0)) {\n      return;\n    }\n \n    // do we own this project?\n    require(project.owner == msg.sender, \"You are not the owner of this project\");\n\n    // ready to be published?\n    require(project.status == ProjectStatus.Draft, \"Cannot be published\");\n\n    // publish the project to be available for services\n    project.status = ProjectStatus.Available;\n\n    emit PublishedProject(_id, msg.sender, project.title, project.price);\n  }\n\n  // Unpublish the project\n  // A project can be unpublished ONLY if it's already published and not already part of a contract \n  function unpublishProject(uint256 _id) public {\n    \n    // retrieve the project\n    ProjectItem storage project = projects[_id];\n\n    // ensure that this project exists\n    if (project.owner == address(0x0)) {\n      return;\n    }\n \n    // do we own this project?\n    require(project.owner == msg.sender, \"You are not the owner of this project\");\n\n    // ready to be unpublished?\n    require(project.status == ProjectStatus.Available, \"Cannot be unpublished\");\n\n    // unpublish the project\n    project.status = ProjectStatus.Draft;\n\n    emit UnpublishedProject(_id, msg.sender, project.title, project.price);\n  }\n\n  // Offer services for the project\n  // A provider offers his/her services to perform the project \n  function offerServices(uint256 _id) public {\n    \n    // retrieve the project\n    ProjectItem storage project = projects[_id];\n\n    // ensure that this project exists\n    if (project.owner == address(0x0)) {\n      return;\n    }\n \n    // is the project available?\n    require(project.status == ProjectStatus.Available, \"Project no more available\");\n\n    // store the address of the provider\n    project.provider = msg.sender;\n\n    // project is under review\n    project.status = ProjectStatus.InReview;\n\n    emit OfferServices(_id, msg.sender, project.title, project.price);\n  }\n\n\n  // Accept services from the provider\n  // The owner accepts the services offered by the provider \n  function acceptProposal(uint256 _id) public {\n    \n    // retrieve the project\n    ProjectItem storage project = projects[_id];\n\n    // ensure that this project exists\n    if (project.owner == address(0x0)) {\n      return;\n    }\n \n     // do we own this project?\n    require(project.owner == msg.sender, \"You are not the owner of this project\");\n\n    // is the project in review?\n    require(project.status == ProjectStatus.InReview, \"Proposal not in review\");\n\n    // project is now ongoing\n    project.status = ProjectStatus.OnGoing;\n\n    emit AcceptProposal(_id, msg.sender, project.provider, project.title, project.price);\n  }\n\n  // Reject proposal from the provider\n  // The owner rejects the services offered by the provider \n  function rejectProposal(uint256 _id) public {\n    \n    // retrieve the project\n    ProjectItem storage project = projects[_id];\n\n    // ensure that this project exists\n    if (project.owner == address(0x0)) {\n      return;\n    }\n \n     // do we own this project?\n    require(project.owner == msg.sender, \"You are not the owner of this project\");\n\n    // is the project in review?\n    require(project.status == ProjectStatus.InReview , \"Proposal not in review\");\n\n    // project is now available\n    address provider = project.provider;\n    project.status = ProjectStatus.Available;\n    project.provider = address(0x0);\n    \n    emit RejectProposal(_id, msg.sender, provider, project.title, project.price);\n  }\n\n  // Validate services delivered by the provider\n  // The provider request a validation of the services \n  function validateServices(uint256 _id) public {\n    \n    // retrieve the project\n    ProjectItem storage project = projects[_id];\n\n    // ensure that this project exists\n    if (project.owner == address(0x0)) {\n      return;\n    }\n \n    // are we the service provider?\n    require(project.provider == msg.sender, \"You are not the service provider\");\n\n    // is the project ongoing?\n    require(project.status == ProjectStatus.OnGoing, \"Project not in progress\");\n\n    // project is now validation process\n    project.status = ProjectStatus.Validate;\n\n    emit ValidateServices(_id, msg.sender, project.provider, project.title, project.price);\n  }\n\n  // Accept services of the provider\n  // The owner accepts the services delivered by the provider \n  function acceptServices(uint256 _id) public {\n    \n    // retrieve the project\n    ProjectItem storage project = projects[_id];\n\n    // ensure that this project exists\n    if (project.owner == address(0x0)) {\n      return;\n    }\n \n     // do we own this project?\n    require(project.owner == msg.sender, \"You are not the owner of this project\");\n\n    // is the project in review?\n    require(project.status == ProjectStatus.Validate, \"Project not in validation process\");\n\n    // project is now completed\n    project.status = ProjectStatus.Completed;\n\n    emit CompletedServices(_id, msg.sender, project.provider, project.title, project.price);\n  }\n\n  // Reject services from the provider\n  // The owner rejects the services delivered by the provider \n  function rejectServices(uint256 _id) public {\n    \n    // retrieve the project\n    ProjectItem storage project = projects[_id];\n\n    // ensure that this project exists\n    if (project.owner == address(0x0)) {\n      return;\n    }\n \n     // do we own this project?\n    require(project.owner == msg.sender, \"You are not the owner of this project\");\n\n    // is the project in review?\n    require(project.status == ProjectStatus.Validate, \"Project not in validation process\");\n\n    // project becomes available\n    address provider = project.provider;\n    project.status = ProjectStatus.Available;\n    project.provider = address(0x0);\n    \n    emit RejectServices(_id, msg.sender, provider, project.title, project.price);\n  }\n\n\n  // Leave services from the provider\n  // The provider leaves the services \n  function leaveServices(uint256 _id) public {\n    \n    // retrieve the project\n    ProjectItem storage project = projects[_id];\n\n    // ensure that this project exists\n    if (project.owner == address(0x0)) {\n      return;\n    }\n \n    // are we the service provider?\n    require(project.provider == msg.sender, \"You are not the service provider\");\n\n    // is the project ongoing?\n    require(project.status == ProjectStatus.OnGoing, \"Project not in progress\");\n\n    // project becomes available\n    address provider = project.provider;\n    project.status = ProjectStatus.Available;\n    project.provider = address(0x0);\n    \n    emit LeaveServices(_id, msg.sender, provider, project.title, project.price);\n  }\n\n  // Cancel services from the ower\n  // The owner cancels the services \n  function cancelServices(uint256 _id) public {\n    \n    // retrieve the project\n    ProjectItem storage project = projects[_id];\n\n    // ensure that this project exists\n    if (project.owner == address(0x0)) {\n      return;\n    }\n \n    // are we the service provider?\n    require(project.owner == msg.sender, \"You are not the project's owner\");\n\n    // is the project ongoing?\n    require(project.status == ProjectStatus.OnGoing, \"Project not in progress\");\n\n   // project becomes available\n    address provider = project.provider;\n    project.status = ProjectStatus.Available;\n    project.provider = address(0x0);\n    \n    emit CancelServices(_id, msg.sender, provider, project.title, project.price);\n  }\n\n  //\n  // Getters\n  //\n\n  // Retrieve a project from its id\n  function getProject(uint256 _id) public view returns (\n    address owner,\n    address provider,\n    string memory title,\n    string memory description,\n    uint256 price,\n    ProjectStatus status) {\n\n    ProjectItem memory project = projects[_id];\n\n    // ensure that we have a project to fetch\n    if (project.owner == address(0x0)) {\n      return (address(0x0), address(0x0), \"\", \"\", 0, ProjectStatus.Unknown);\n    }\n\n    return (\n      project.owner,\n      project.provider,\n      project.title,\n      project.description,\n      project.price,\n      project.status);\n  }\n\n  // return all projects\n  function getAllProjects() view public returns (uint256[] memory) {\n    if (projectsCounter == 0) {\n      return new uint[](0);\n    }\n\n    // prepare output array\n    uint256[] memory projectIDs = new uint[](projectsCounter);\n\n    // iterate over projects\n    uint256 numberOfProjects = 0;\n    for (uint256 i = 1; i <= projectsCounter; i++) {\n      // skip deleted projects\n      if (projects[i].owner != address(0x0)) {\n        projectIDs[numberOfProjects] = projects[i].id;\n        numberOfProjects = numberOfProjects.add(1);\n      }\n    }\n\n    // copy the project ID array into a smaller array\n    uint256[] memory allProjects = new uint[](numberOfProjects);\n    for (uint j = 0; j < numberOfProjects; j++) {\n      allProjects[j] = projectIDs[j];\n    }\n\n    return allProjects;\n  }\n\n\n  // return all published projects\n  function getPublishedProjects() view public returns (uint256[] memory) {\n    if (projectsCounter == 0) {\n      return new uint[](0);\n    }\n\n    // prepare output array\n    uint256[] memory projectIDs = new uint[](projectsCounter);\n\n    // iterate over projects\n    uint256 numberOfProjects = 0;\n    for (uint256 i = 1; i <= projectsCounter; i++) {\n      // get only published and active projects \n      if ((projects[i].owner != address(0x0)) && (projects[i].status == ProjectStatus.Available)) {\n        projectIDs[numberOfProjects] = projects[i].id;\n        numberOfProjects = numberOfProjects.add(1);\n      }\n    }\n\n    // copy the project ID array into a smaller array\n    uint256[] memory allProjects = new uint[](numberOfProjects);\n    for (uint j = 0; j < numberOfProjects; j++) {\n      allProjects[j] = projectIDs[j];\n    }\n\n    return allProjects;\n  }\n\n\n  // return all projects owned by the sender\n  function getMyProjects() view public returns (uint256[] memory) {\n    if (projectsCounter == 0) {\n      return new uint256[](0);\n    }\n\n    // prepare output array\n    uint256[] memory projectIDs = new uint[](projectsCounter);\n\n    // iterate over projects\n    uint256 numberOfProjects = 0;\n    for (uint i = 1; i <= projectsCounter; i++) {\n      // keep the ID of the project owned by the caller\n      if (projects[i].owner == msg.sender) {\n        projectIDs[numberOfProjects] = projects[i].id;\n\n        numberOfProjects = numberOfProjects.add(1);\n      }\n    }\n\n    // copy the project ID array into a smaller array\n    uint256[] memory myProjects = new uint[](numberOfProjects);\n    for (uint j = 0; j < numberOfProjects; j++) {\n      myProjects[j] = projectIDs[j];\n    }\n\n    return myProjects;\n  }\n\n  // return all my offers waiting for review\n  function getMyOffers() view public returns (uint256[] memory) {\n    if (projectsCounter == 0) {\n      return new uint256[](0);\n    }\n\n    // prepare output array\n    uint256[] memory projectIDs = new uint[](projectsCounter);\n\n    // iterate over projects\n    uint256 numberOfProjects = 0;\n    for (uint i = 1; i <= projectsCounter; i++) {\n      // keep the ID of the project with the sender as provider and the project still in review process\n      if ((projects[i].provider == msg.sender) && (projects[i].status == ProjectStatus.InReview)) {\n        projectIDs[numberOfProjects] = projects[i].id;\n\n        numberOfProjects = numberOfProjects.add(1);\n      }\n    }\n\n    // copy the project ID array into a smaller array\n    uint256[] memory myOffers = new uint[](numberOfProjects);\n    for (uint j = 0; j < numberOfProjects; j++) {\n      myOffers[j] = projectIDs[j];\n    }\n\n    return myOffers;\n  }\n\n\n  // return all projects waiting for review\n  function getMyReviews() view public returns (uint256[] memory) {\n    if (projectsCounter == 0) {\n      return new uint256[](0);\n    }\n\n    // prepare output array\n    uint256[] memory projectIDs = new uint[](projectsCounter);\n\n    // iterate over projects\n    uint256 numberOfProjects = 0;\n    for (uint i = 1; i <= projectsCounter; i++) {\n      // keep the ID of the project owned by the caller and the project still in review process\n      if ((projects[i].owner == msg.sender) && (projects[i].status == ProjectStatus.InReview)) {\n        projectIDs[numberOfProjects] = projects[i].id;\n\n        numberOfProjects = numberOfProjects.add(1);\n      }\n    }\n\n    // copy the project ID array into a smaller array\n    uint256[] memory myReviews = new uint[](numberOfProjects);\n    for (uint j = 0; j < numberOfProjects; j++) {\n      myReviews[j] = projectIDs[j];\n    }\n\n    return myReviews;\n  }\n\n  // return all ongoing contracts\n  function getMyContracts() view public returns (uint256[] memory) {\n    if (projectsCounter == 0) {\n      return new uint[](0);\n    }\n\n    // prepare output array\n    uint256[] memory projectIDs = new uint[](projectsCounter);\n\n    // iterate over projects\n    uint256 numberOfProjects = 0;\n    for (uint256 i = 1; i <= projectsCounter; i++) {\n      // get only ongoing contracts owner by the contract's owner or the service provider \n      if (((projects[i].owner == msg.sender) || (projects[i].provider == msg.sender)) && (projects[i].status == ProjectStatus.OnGoing)) {\n        projectIDs[numberOfProjects] = projects[i].id;\n        numberOfProjects = numberOfProjects.add(1);\n      }\n    }\n\n    // copy the project ID array into a smaller array\n    uint256[] memory myContracts = new uint[](numberOfProjects);\n    for (uint j = 0; j < numberOfProjects; j++) {\n      myContracts[j] = projectIDs[j];\n    }\n\n    return myContracts;\n  }\n}",
  "sourcePath": "/Users/said.eloudrhiri/Projects/Devoxx/chainbizz/contracts/ChainBizz.sol",
  "compiler": {
    "name": "solc",
    "version": "0.5.8+commit.23d335f2.Emscripten.clang"
  },
  "schemaVersion": "3.0.16",
  "updatedAt": "2019-10-11T09:15:17.037Z",
  "devdoc": {
    "methods": {}
  },
  "userdoc": {
    "methods": {}
  }
}