{
  "contractName": "ChainBizz",
  "abi": [
    {
      "constant": true,
      "inputs": [
        {
          "name": "",
          "type": "uint256"
        }
      ],
      "name": "projects",
      "outputs": [
        {
          "name": "id",
          "type": "uint256"
        },
        {
          "name": "owner",
          "type": "address"
        },
        {
          "name": "provider",
          "type": "address"
        },
        {
          "name": "title",
          "type": "string"
        },
        {
          "name": "description",
          "type": "string"
        },
        {
          "name": "price",
          "type": "uint256"
        },
        {
          "name": "status",
          "type": "uint8"
        }
      ],
      "payable": false,
      "stateMutability": "view",
      "type": "function"
    },
    {
      "anonymous": false,
      "inputs": [
        {
          "indexed": false,
          "name": "id",
          "type": "uint256"
        },
        {
          "indexed": false,
          "name": "owner",
          "type": "address"
        },
        {
          "indexed": false,
          "name": "title",
          "type": "string"
        },
        {
          "indexed": false,
          "name": "price",
          "type": "uint256"
        }
      ],
      "name": "NewProject",
      "type": "event"
    },
    {
      "anonymous": false,
      "inputs": [
        {
          "indexed": false,
          "name": "id",
          "type": "uint256"
        },
        {
          "indexed": false,
          "name": "owner",
          "type": "address"
        },
        {
          "indexed": false,
          "name": "title",
          "type": "string"
        },
        {
          "indexed": false,
          "name": "price",
          "type": "uint256"
        }
      ],
      "name": "UpdateProject",
      "type": "event"
    },
    {
      "anonymous": false,
      "inputs": [
        {
          "indexed": false,
          "name": "id",
          "type": "uint256"
        },
        {
          "indexed": false,
          "name": "owner",
          "type": "address"
        },
        {
          "indexed": false,
          "name": "title",
          "type": "string"
        }
      ],
      "name": "RemoveProject",
      "type": "event"
    },
    {
      "anonymous": false,
      "inputs": [
        {
          "indexed": false,
          "name": "id",
          "type": "uint256"
        },
        {
          "indexed": false,
          "name": "owner",
          "type": "address"
        },
        {
          "indexed": false,
          "name": "title",
          "type": "string"
        },
        {
          "indexed": false,
          "name": "price",
          "type": "uint256"
        }
      ],
      "name": "PublishedProject",
      "type": "event"
    },
    {
      "anonymous": false,
      "inputs": [
        {
          "indexed": false,
          "name": "id",
          "type": "uint256"
        },
        {
          "indexed": false,
          "name": "owner",
          "type": "address"
        },
        {
          "indexed": false,
          "name": "title",
          "type": "string"
        },
        {
          "indexed": false,
          "name": "price",
          "type": "uint256"
        }
      ],
      "name": "UnpublishedProject",
      "type": "event"
    },
    {
      "anonymous": false,
      "inputs": [
        {
          "indexed": false,
          "name": "id",
          "type": "uint256"
        },
        {
          "indexed": false,
          "name": "owner",
          "type": "address"
        },
        {
          "indexed": false,
          "name": "title",
          "type": "string"
        },
        {
          "indexed": false,
          "name": "price",
          "type": "uint256"
        }
      ],
      "name": "OfferSubmitted",
      "type": "event"
    },
    {
      "anonymous": false,
      "inputs": [
        {
          "indexed": false,
          "name": "id",
          "type": "uint256"
        },
        {
          "indexed": false,
          "name": "owner",
          "type": "address"
        },
        {
          "indexed": false,
          "name": "provider",
          "type": "address"
        },
        {
          "indexed": false,
          "name": "title",
          "type": "string"
        },
        {
          "indexed": false,
          "name": "price",
          "type": "uint256"
        }
      ],
      "name": "OfferCancelled",
      "type": "event"
    },
    {
      "anonymous": false,
      "inputs": [
        {
          "indexed": false,
          "name": "id",
          "type": "uint256"
        },
        {
          "indexed": false,
          "name": "owner",
          "type": "address"
        },
        {
          "indexed": false,
          "name": "provider",
          "type": "address"
        },
        {
          "indexed": false,
          "name": "title",
          "type": "string"
        },
        {
          "indexed": false,
          "name": "price",
          "type": "uint256"
        }
      ],
      "name": "AcceptProposal",
      "type": "event"
    },
    {
      "anonymous": false,
      "inputs": [
        {
          "indexed": false,
          "name": "id",
          "type": "uint256"
        },
        {
          "indexed": false,
          "name": "owner",
          "type": "address"
        },
        {
          "indexed": false,
          "name": "provider",
          "type": "address"
        },
        {
          "indexed": false,
          "name": "title",
          "type": "string"
        },
        {
          "indexed": false,
          "name": "price",
          "type": "uint256"
        }
      ],
      "name": "RejectProposal",
      "type": "event"
    },
    {
      "anonymous": false,
      "inputs": [
        {
          "indexed": false,
          "name": "id",
          "type": "uint256"
        },
        {
          "indexed": false,
          "name": "owner",
          "type": "address"
        },
        {
          "indexed": false,
          "name": "provider",
          "type": "address"
        },
        {
          "indexed": false,
          "name": "title",
          "type": "string"
        },
        {
          "indexed": false,
          "name": "price",
          "type": "uint256"
        }
      ],
      "name": "ProjectDelivered",
      "type": "event"
    },
    {
      "anonymous": false,
      "inputs": [
        {
          "indexed": false,
          "name": "id",
          "type": "uint256"
        },
        {
          "indexed": false,
          "name": "owner",
          "type": "address"
        },
        {
          "indexed": false,
          "name": "provider",
          "type": "address"
        },
        {
          "indexed": false,
          "name": "title",
          "type": "string"
        },
        {
          "indexed": false,
          "name": "price",
          "type": "uint256"
        }
      ],
      "name": "ServicesCancelled",
      "type": "event"
    },
    {
      "anonymous": false,
      "inputs": [
        {
          "indexed": false,
          "name": "id",
          "type": "uint256"
        },
        {
          "indexed": false,
          "name": "owner",
          "type": "address"
        },
        {
          "indexed": false,
          "name": "provider",
          "type": "address"
        },
        {
          "indexed": false,
          "name": "title",
          "type": "string"
        },
        {
          "indexed": false,
          "name": "price",
          "type": "uint256"
        }
      ],
      "name": "DeliveryAccepted",
      "type": "event"
    },
    {
      "anonymous": false,
      "inputs": [
        {
          "indexed": false,
          "name": "id",
          "type": "uint256"
        },
        {
          "indexed": false,
          "name": "owner",
          "type": "address"
        },
        {
          "indexed": false,
          "name": "provider",
          "type": "address"
        },
        {
          "indexed": false,
          "name": "title",
          "type": "string"
        },
        {
          "indexed": false,
          "name": "price",
          "type": "uint256"
        }
      ],
      "name": "DeliveryRejected",
      "type": "event"
    },
    {
      "anonymous": false,
      "inputs": [
        {
          "indexed": false,
          "name": "id",
          "type": "uint256"
        },
        {
          "indexed": false,
          "name": "owner",
          "type": "address"
        },
        {
          "indexed": false,
          "name": "provider",
          "type": "address"
        },
        {
          "indexed": false,
          "name": "title",
          "type": "string"
        },
        {
          "indexed": false,
          "name": "price",
          "type": "uint256"
        }
      ],
      "name": "ContractCancelled",
      "type": "event"
    },
    {
      "constant": false,
      "inputs": [
        {
          "name": "_title",
          "type": "string"
        },
        {
          "name": "_description",
          "type": "string"
        },
        {
          "name": "_price",
          "type": "uint256"
        }
      ],
      "name": "addProject",
      "outputs": [],
      "payable": false,
      "stateMutability": "nonpayable",
      "type": "function"
    },
    {
      "constant": false,
      "inputs": [
        {
          "name": "_id",
          "type": "uint256"
        },
        {
          "name": "_title",
          "type": "string"
        },
        {
          "name": "_description",
          "type": "string"
        },
        {
          "name": "_price",
          "type": "uint256"
        }
      ],
      "name": "updateProject",
      "outputs": [],
      "payable": false,
      "stateMutability": "nonpayable",
      "type": "function"
    },
    {
      "constant": false,
      "inputs": [
        {
          "name": "_id",
          "type": "uint256"
        }
      ],
      "name": "removeProject",
      "outputs": [],
      "payable": false,
      "stateMutability": "nonpayable",
      "type": "function"
    },
    {
      "constant": false,
      "inputs": [
        {
          "name": "_id",
          "type": "uint256"
        }
      ],
      "name": "publishProject",
      "outputs": [],
      "payable": false,
      "stateMutability": "nonpayable",
      "type": "function"
    },
    {
      "constant": false,
      "inputs": [
        {
          "name": "_id",
          "type": "uint256"
        }
      ],
      "name": "unpublishProject",
      "outputs": [],
      "payable": false,
      "stateMutability": "nonpayable",
      "type": "function"
    },
    {
      "constant": false,
      "inputs": [
        {
          "name": "_id",
          "type": "uint256"
        }
      ],
      "name": "submitOffer",
      "outputs": [],
      "payable": false,
      "stateMutability": "nonpayable",
      "type": "function"
    },
    {
      "constant": false,
      "inputs": [
        {
          "name": "_id",
          "type": "uint256"
        }
      ],
      "name": "cancelOffer",
      "outputs": [],
      "payable": false,
      "stateMutability": "nonpayable",
      "type": "function"
    },
    {
      "constant": false,
      "inputs": [
        {
          "name": "_id",
          "type": "uint256"
        }
      ],
      "name": "acceptProposal",
      "outputs": [],
      "payable": true,
      "stateMutability": "payable",
      "type": "function"
    },
    {
      "constant": false,
      "inputs": [
        {
          "name": "_id",
          "type": "uint256"
        }
      ],
      "name": "rejectProposal",
      "outputs": [],
      "payable": true,
      "stateMutability": "payable",
      "type": "function"
    },
    {
      "constant": false,
      "inputs": [
        {
          "name": "_id",
          "type": "uint256"
        }
      ],
      "name": "deliverProject",
      "outputs": [],
      "payable": false,
      "stateMutability": "nonpayable",
      "type": "function"
    },
    {
      "constant": false,
      "inputs": [
        {
          "name": "_id",
          "type": "uint256"
        }
      ],
      "name": "cancelServices",
      "outputs": [],
      "payable": true,
      "stateMutability": "payable",
      "type": "function"
    },
    {
      "constant": false,
      "inputs": [
        {
          "name": "_id",
          "type": "uint256"
        }
      ],
      "name": "acceptDelivery",
      "outputs": [],
      "payable": false,
      "stateMutability": "nonpayable",
      "type": "function"
    },
    {
      "constant": false,
      "inputs": [
        {
          "name": "_id",
          "type": "uint256"
        }
      ],
      "name": "rejectDelivery",
      "outputs": [],
      "payable": false,
      "stateMutability": "nonpayable",
      "type": "function"
    },
    {
      "constant": false,
      "inputs": [
        {
          "name": "_id",
          "type": "uint256"
        }
      ],
      "name": "cancelContract",
      "outputs": [],
      "payable": false,
      "stateMutability": "nonpayable",
      "type": "function"
    },
    {
      "constant": true,
      "inputs": [
        {
          "name": "_id",
          "type": "uint256"
        }
      ],
      "name": "getProject",
      "outputs": [
        {
          "name": "owner",
          "type": "address"
        },
        {
          "name": "provider",
          "type": "address"
        },
        {
          "name": "title",
          "type": "string"
        },
        {
          "name": "description",
          "type": "string"
        },
        {
          "name": "price",
          "type": "uint256"
        },
        {
          "name": "status",
          "type": "uint8"
        }
      ],
      "payable": false,
      "stateMutability": "view",
      "type": "function"
    },
    {
      "constant": true,
      "inputs": [],
      "name": "getAllProjects",
      "outputs": [
        {
          "name": "",
          "type": "uint256[]"
        }
      ],
      "payable": false,
      "stateMutability": "view",
      "type": "function"
    },
    {
      "constant": true,
      "inputs": [],
      "name": "getPublishedProjects",
      "outputs": [
        {
          "name": "",
          "type": "uint256[]"
        }
      ],
      "payable": false,
      "stateMutability": "view",
      "type": "function"
    },
    {
      "constant": true,
      "inputs": [],
      "name": "getMyProjects",
      "outputs": [
        {
          "name": "",
          "type": "uint256[]"
        }
      ],
      "payable": false,
      "stateMutability": "view",
      "type": "function"
    },
    {
      "constant": true,
      "inputs": [],
      "name": "getMyOffers",
      "outputs": [
        {
          "name": "",
          "type": "uint256[]"
        }
      ],
      "payable": false,
      "stateMutability": "view",
      "type": "function"
    },
    {
      "constant": true,
      "inputs": [],
      "name": "getMyReviews",
      "outputs": [
        {
          "name": "",
          "type": "uint256[]"
        }
      ],
      "payable": false,
      "stateMutability": "view",
      "type": "function"
    },
    {
      "constant": true,
      "inputs": [],
      "name": "getMyContracts",
      "outputs": [
        {
          "name": "",
          "type": "uint256[]"
        }
      ],
      "payable": false,
      "stateMutability": "view",
      "type": "function"
    },
    {
      "constant": true,
      "inputs": [],
      "name": "getDeliveries",
      "outputs": [
        {
          "name": "",
          "type": "uint256[]"
        }
      ],
      "payable": false,
      "stateMutability": "view",
      "type": "function"
    },
    {
      "constant": true,
      "inputs": [],
      "name": "getCompleted",
      "outputs": [
        {
          "name": "",
          "type": "uint256[]"
        }
      ],
      "payable": false,
      "stateMutability": "view",
      "type": "function"
    },
    {
      "constant": true,
      "inputs": [],
      "name": "getCanceled",
      "outputs": [
        {
          "name": "",
          "type": "uint256[]"
        }
      ],
      "payable": false,
      "stateMutability": "view",
      "type": "function"
    }
  ],
  "bytecode": "0x608060405234801561001057600080fd5b5061382f806100206000396000f3fe6080604052600436106101665760003560e01c80636f65c717116100d1578063bd140c4b1161008a578063ef1b655311610064578063ef1b6553146107c3578063ef706adf146107d8578063f0f3f2c814610802578063f7f2ccbf1461094057610166565b8063bd140c4b14610784578063c81bde1514610799578063e4f655b0146107ae57610166565b80636f65c717146105955780637b422c4c146105bf57806380d03829146105e9578063a7fa01a7146105fe578063b85a72d21461073d578063bc28d8781461076757610166565b80635873f998116101235780635873f998146103ad5780635b54f982146103d75780635fd4f758146103ec57806360c5cc3a14610524578063629a064e1461054157806364a4277a1461056b57610166565b8063037852c71461016b5780630850cd1e146101d0578063107046bd146101fc578063138e0b2614610359578063280474501461036e5780634beb7e9414610398575b600080fd5b34801561017757600080fd5b5061018061095d565b60408051602080825283518183015283519192839290830191858101910280838360005b838110156101bc5781810151838201526020016101a4565b505050509050019250505060405180910390f35b3480156101dc57600080fd5b506101fa600480360360208110156101f357600080fd5b5035610acb565b005b34801561020857600080fd5b506102266004803603602081101561021f57600080fd5b5035610c8c565b60405180888152602001876001600160a01b03166001600160a01b03168152602001866001600160a01b03166001600160a01b03168152602001806020018060200185815260200184600781111561027a57fe5b60ff168152602001838103835287818151815260200191508051906020019080838360005b838110156102b757818101518382015260200161029f565b50505050905090810190601f1680156102e45780820380516001836020036101000a031916815260200191505b50838103825286518152865160209182019188019080838360005b838110156103175781810151838201526020016102ff565b50505050905090810190601f1680156103445780820380516001836020036101000a031916815260200191505b50995050505050505050505060405180910390f35b34801561036557600080fd5b50610180610deb565b34801561037a57600080fd5b506101fa6004803603602081101561039157600080fd5b5035610f70565b3480156103a457600080fd5b506101806111c1565b3480156103b957600080fd5b506101fa600480360360208110156103d057600080fd5b5035611322565b3480156103e357600080fd5b506101806116ac565b3480156103f857600080fd5b506101fa6004803603606081101561040f57600080fd5b810190602081018135600160201b81111561042957600080fd5b82018360208201111561043b57600080fd5b803590602001918460018302840111600160201b8311171561045c57600080fd5b91908080601f0160208091040260200160405190810160405280939291908181526020018383808284376000920191909152509295949360208101935035915050600160201b8111156104ae57600080fd5b8201836020820111156104c057600080fd5b803590602001918460018302840111600160201b831117156104e157600080fd5b91908080601f0160208091040260200160405190810160405280939291908181526020018383808284376000920191909152509295505091359250611831915050565b6101fa6004803603602081101561053a57600080fd5b5035611aa3565b34801561054d57600080fd5b506101fa6004803603602081101561056457600080fd5b5035611c81565b34801561057757600080fd5b506101fa6004803603602081101561058e57600080fd5b5035611e32565b3480156105a157600080fd5b506101fa600480360360208110156105b857600080fd5b5035611fb7565b3480156105cb57600080fd5b506101fa600480360360208110156105e257600080fd5b5035612104565b3480156105f557600080fd5b506101806122cd565b34801561060a57600080fd5b506101fa6004803603608081101561062157600080fd5b81359190810190604081016020820135600160201b81111561064257600080fd5b82018360208201111561065457600080fd5b803590602001918460018302840111600160201b8311171561067557600080fd5b91908080601f0160208091040260200160405190810160405280939291908181526020018383808284376000920191909152509295949360208101935035915050600160201b8111156106c757600080fd5b8201836020820111156106d957600080fd5b803590602001918460018302840111600160201b831117156106fa57600080fd5b91908080601f0160208091040260200160405190810160405280939291908181526020018383808284376000920191909152509295505091359250612401915050565b34801561074957600080fd5b506101fa6004803603602081101561076057600080fd5b503561267d565b6101fa6004803603602081101561077d57600080fd5b5035612800565b34801561079057600080fd5b506101806129f6565b3480156107a557600080fd5b50610180612b7b565b3480156107ba57600080fd5b50610180612d29565b3480156107cf57600080fd5b50610180612eb7565b3480156107e457600080fd5b506101fa600480360360208110156107fb57600080fd5b5035613018565b34801561080e57600080fd5b5061082c6004803603602081101561082557600080fd5b50356131e2565b604080516001600160a01b03808916825287166020820152608081018490529081016060820160a0830184600781111561086257fe5b60ff168152602001838103835287818151815260200191508051906020019080838360005b8381101561089f578181015183820152602001610887565b50505050905090810190601f1680156108cc5780820380516001836020036101000a031916815260200191505b50838103825286518152865160209182019188019080838360005b838110156108ff5781810151838201526020016108e7565b50505050905090810190601f16801561092c5780820380516001836020036101000a031916815260200191505b509850505050505050505060405180910390f35b6101fa6004803603602081101561095657600080fd5b5035613409565b6060600154600014156109845760408051600080825260208201909252905b509050610ac8565b60606001546040519080825280602002602001820160405280156109b2578160200160208202803883390190505b509050600060015b6001548111610a54576000818152602081905260409020600201546001600160a01b031633148015610a0b5750600260008281526020819052604090206006015460ff166007811115610a0957fe5b145b15610a4c576000818152602081905260409020548351849084908110610a2d57fe5b6020908102919091010152610a4982600163ffffffff6135d316565b91505b6001016109ba565b50606081604051908082528060200260200182016040528015610a81578160200160208202803883390190505b50905060005b82811015610ac257838181518110610a9b57fe5b6020026020010151828281518110610aaf57fe5b6020908102919091010152600101610a87565b50925050505b90565b600081815260208190526040902060018101546001600160a01b0316610af15750610c89565b60018101546001600160a01b03163314610b3f57604051600160e51b62461bcd0281526004018080602001828103825260258152602001806137b06025913960400191505060405180910390fd5b6001600682015460ff166007811115610b5457fe5b14610ba95760408051600160e51b62461bcd02815260206004820152601560248201527f43616e6e6f7420626520756e7075626c69736865640000000000000000000000604482015290519081900360640190fd5b60068101805460ff191690556005810154604080518481523360208201819052606082018490526080928201838152600386018054600260018216156101000260001901909116049484018590527f3525d4593ef70f97d7b99dfeab0e0be748aeb51f464f83bf0bbf5ab6badb45c89588959394919390929060a083019085908015610c765780601f10610c4b57610100808354040283529160200191610c76565b820191906000526020600020905b815481529060010190602001808311610c5957829003601f168201915b50509550505050505060405180910390a1505b50565b60006020818152918152604090819020805460018083015460028085015460038601805488516101009682161596909602600019011692909204601f810189900489028501890190975286845293966001600160a01b0392831696929094169493909190830182828015610d415780601f10610d1657610100808354040283529160200191610d41565b820191906000526020600020905b815481529060010190602001808311610d2457829003601f168201915b5050505060048301805460408051602060026001851615610100026000190190941693909304601f8101849004840282018401909252818152949594935090830182828015610dd15780601f10610da657610100808354040283529160200191610dd1565b820191906000526020600020905b815481529060010190602001808311610db457829003601f168201915b50505050600583015460069093015491929160ff16905087565b606060015460001415610e0e57604080516000808252602082019092529061097c565b6060600154604051908082528060200260200182016040528015610e3c578160200160208202803883390190505b509050600060015b6001548111610f02576000818152602081905260409020600101546001600160a01b0316331480610e8e57506000818152602081905260409020600201546001600160a01b031633145b8015610eb95750600460008281526020819052604090206006015460ff166007811115610eb757fe5b145b15610efa576000818152602081905260409020548351849084908110610edb57fe5b6020908102919091010152610ef782600163ffffffff6135d316565b91505b600101610e44565b50606081604051908082528060200260200182016040528015610f2f578160200160208202803883390190505b50905060005b82811015610ac257838181518110610f4957fe5b6020026020010151828281518110610f5d57fe5b6020908102919091010152600101610f35565b600081815260208190526040902060018101546001600160a01b0316610f965750610c89565b60018101546001600160a01b03163314610ffa5760408051600160e51b62461bcd02815260206004820152601f60248201527f596f7520617265206e6f74207468652070726f6a6563742773206f776e657200604482015290519081900360640190fd5b6003600682015460ff16600781111561100f57fe5b148061102d57506004600682015460ff16600781111561102b57fe5b145b6110815760408051600160e51b62461bcd02815260206004820152601760248201527f50726f6a656374206e6f7420696e2070726f6772657373000000000000000000604482015290519081900360640190fd5b600181015460058201546040516001600160a01b039092169181156108fc0291906000818181858888f193505050501580156110c1573d6000803e3d6000fd5b506006818101805460ff1916909117905560028082015460058301546040805186815233602082018190526001600160a01b039094169181018290526080810183905260a0606082018181526003880180546101006001821615026000190116979097049183018290527f7b76644116e8a1f5a84d7e45799a76cc9786e73ce63fd83bec96569563cd4212968996959093909290919060c0830190859080156111ab5780601f10611180576101008083540402835291602001916111ab565b820191906000526020600020905b81548152906001019060200180831161118e57829003601f168201915b5050965050505050505060405180910390a15050565b6060600154600014156111e457604080516000808252602082019092529061097c565b6060600154604051908082528060200260200182016040528015611212578160200160208202803883390190505b509050600060015b60015481116112b4576000818152602081905260409020600101546001600160a01b03161580159061126b5750600160008281526020819052604090206006015460ff16600781111561126957fe5b145b156112ac57600081815260208190526040902054835184908490811061128d57fe5b60209081029190910101526112a982600163ffffffff6135d316565b91505b60010161121a565b506060816040519080825280602002602001820160405280156112e1578160200160208202803883390190505b50905060005b82811015610ac2578381815181106112fb57fe5b602002602001015182828151811061130f57fe5b60209081029190910101526001016112e7565b61132a613637565b60008281526020818152604091829020825160e081018452815481526001808301546001600160a01b03908116838601526002808501549091168387015260038401805487516101009482161594909402600019011691909104601f8101869004860283018601909652858252919492936060860193919291908301828280156113f55780601f106113ca576101008083540402835291602001916113f5565b820191906000526020600020905b8154815290600101906020018083116113d857829003601f168201915b505050918352505060048201805460408051602060026001851615610100026000190190941693909304601f81018490048402820184019092528181529382019392918301828280156114895780601f1061145e57610100808354040283529160200191611489565b820191906000526020600020905b81548152906001019060200180831161146c57829003601f168201915b505050918352505060058201546020820152600682015460409091019060ff1660078111156114b457fe5b60078111156114bf57fe5b90525060208101519091506001600160a01b03166114dd5750610c89565b60208101516001600160a01b0316331461152b57604051600160e51b62461bcd0281526004018080602001828103825260258152602001806137b06025913960400191505060405180910390fd5b60008160c00151600781111561153d57fe5b1461157c57604051600160e51b62461bcd02815260040180806020018281038252602181526020018061376e6021913960400191505060405180910390fd5b606081015160008381526020819052604081208181556001810180546001600160a01b03199081169091556002820180549091169055906115c06003830182613670565b6115ce600483016000613670565b60058201600090556006820160006101000a81549060ff021916905550507f0bac8d70ddda9ec612d317fa2968f6f746b59169d04a223ec870eb6447a7c7f483338360405180848152602001836001600160a01b03166001600160a01b0316815260200180602001828103825283818151815260200191508051906020019080838360005b8381101561166b578181015183820152602001611653565b50505050905090810190601f1680156116985780820380516001836020036101000a031916815260200191505b5094505050505060405180910390a1505050565b6060600154600014156116cf57604080516000808252602082019092529061097c565b60606001546040519080825280602002602001820160405280156116fd578160200160208202803883390190505b509050600060015b60015481116117c3576000818152602081905260409020600101546001600160a01b031633148061174f57506000818152602081905260409020600201546001600160a01b031633145b801561177a5750600560008281526020819052604090206006015460ff16600781111561177857fe5b145b156117bb57600081815260208190526040902054835184908490811061179c57fe5b60209081029190910101526117b882600163ffffffff6135d316565b91505b600101611705565b506060816040519080825280602002602001820160405280156117f0578160200160208202803883390190505b50905060005b82811015610ac25783818151811061180a57fe5b602002602001015182828151811061181e57fe5b60209081029190910101526001016117f6565b825183906118895760408051600160e51b62461bcd02815260206004820152601360248201527f41207469746c6520697320726571756972656400000000000000000000000000604482015290519081900360640190fd5b825183906118e15760408051600160e51b62461bcd02815260206004820152601960248201527f41206465736372697074696f6e20697320726571756972656400000000000000604482015290519081900360640190fd5b600180546118f49163ffffffff6135d316565b60018181556040805160e0810182528381523360208083019182526000838501818152606085018d8152608086018d905260a086018c905260c0860183905297825281835294902083518155915194820180546001600160a01b039687166001600160a01b0319918216179091559351600283018054919096169416939093179093559251805161198b92600385019201906136b4565b50608082015180516119a79160048401916020909101906136b4565b5060a0820151600582015560c082015160068201805460ff191660018360078111156119cf57fe5b02179055509050507fc8e7a8f4fbf568a726fe7b162d56bb8a313fa7ec7f274c6390969cb322a0f79460015433878660405180858152602001846001600160a01b03166001600160a01b0316815260200180602001838152602001828103825284818151815260200191508051906020019080838360005b83811015611a5f578181015183820152602001611a47565b50505050905090810190601f168015611a8c5780820380516001836020036101000a031916815260200191505b509550505050505060405180910390a15050505050565b600081815260208190526040902060018101546001600160a01b0316611ac95750610c89565b60018101546001600160a01b03163314611b1757604051600160e51b62461bcd0281526004018080602001828103825260258152602001806137b06025913960400191505060405180910390fd5b6002600682015460ff166007811115611b2c57fe5b14611b815760408051600160e51b62461bcd02815260206004820152601660248201527f50726f706f73616c206e6f7420696e2072657669657700000000000000000000604482015290519081900360640190fd5b80600501543414611bc657604051600160e51b62461bcd02815260040180806020018281038252602f8152602001806137d5602f913960400191505060405180910390fd5b60068101805460ff1916600390811790915560028083015460058401546040805187815233602082018190526001600160a01b039094169181018290526080810183905260a06060820181815296880180546101006001821615026000190116969096049082018190527fd0ca6107f6c9513954ca859c885b1e8b434687b6cf5e40625574d53dda8422ed9689969394929160c0830190859080156111ab5780601f10611180576101008083540402835291602001916111ab565b600081815260208190526040902060018101546001600160a01b0316611ca75750610c89565b60028101546001600160a01b03163314611d0b5760408051600160e51b62461bcd02815260206004820181905260248201527f596f7520617265206e6f742074686520736572766963652070726f7669646572604482015290519081900360640190fd5b6003600682015460ff166007811115611d2057fe5b14611d755760408051600160e51b62461bcd02815260206004820152601760248201527f50726f6a656374206e6f7420696e2070726f6772657373000000000000000000604482015290519081900360640190fd5b60068101805460ff1916600417905560028082015460058301546040805186815233602082018190526001600160a01b039094169181018290526080810183905260a0606082018181526003880180546101006001821615026000190116979097049183018290527f2c29e86efe7dba61218108fc48fc467f0b2d89a5dd6741ff0df4b17bdf5cab68968996959093909290919060c0830190859080156111ab5780601f10611180576101008083540402835291602001916111ab565b600081815260208190526040902060018101546001600160a01b0316611e585750610c89565b60018101546001600160a01b03163314611ea657604051600160e51b62461bcd0281526004018080602001828103825260258152602001806137b06025913960400191505060405180910390fd5b6000600682015460ff166007811115611ebb57fe5b14611f105760408051600160e51b62461bcd02815260206004820152601360248201527f43616e6e6f74206265207075626c697368656400000000000000000000000000604482015290519081900360640190fd5b60068101805460ff191660019081179091556005820154604080518581523360208201819052606082018490526080928201838152600387018054600297811615610100026000190116969096049383018490527f8312e76cb9523ff197151c20e9aa91aab65c750674f5a0f6df91434fc153adc995889592949093919060a083019085908015610c765780601f10610c4b57610100808354040283529160200191610c76565b600081815260208190526040902060018101546001600160a01b0316611fdd5750610c89565b6001600682015460ff166007811115611ff257fe5b146120475760408051600160e51b62461bcd02815260206004820152601960248201527f50726f6a656374206e6f206d6f726520617661696c61626c6500000000000000604482015290519081900360640190fd5b600280820180546001600160a01b0319163317905560068201805460ff191660018302179055506005810154604080518481523360208201819052606082018490526080928201838152600386018054600260001961010060018416150201909116049484018590527f79af99d8f87b40930ee58bf8914b0366fb392a8cd22c3705f2b9a30e2fae31e09588959394919390929060a083019085908015610c765780601f10610c4b57610100808354040283529160200191610c76565b600081815260208190526040902060018101546001600160a01b031661212a5750610c89565b60018101546001600160a01b0316331461217857604051600160e51b62461bcd0281526004018080602001828103825260258152602001806137b06025913960400191505060405180910390fd5b6004600682015460ff16600781111561218d57fe5b146121cc57604051600160e51b62461bcd02815260040180806020018281038252602181526020018061378f6021913960400191505060405180910390fd5b600281015460058201546040516001600160a01b039092169181156108fc0291906000818181858888f1935050505015801561220c573d6000803e3d6000fd5b5060068101805460ff19166005908117909155600280830154918301546040805186815233602082018190526001600160a01b039095169181018290526080810183905260a0606082018181526003880180546101006001821615026000190116969096049183018290527f72a87e41eb71c3d97ada3d99bed7a092d856bcdc4f034ef117099e051038cd7a96899690959093909290919060c0830190859080156111ab5780601f10611180576101008083540402835291602001916111ab565b6060600154600014156122f057604080516000808252602082019092529061097c565b606060015460405190808252806020026020018201604052801561231e578160200160208202803883390190505b509050600060015b6001548111612393576000818152602081905260409020600101546001600160a01b03161561238b57600081815260208190526040902054835184908490811061236c57fe5b602090810291909101015261238882600163ffffffff6135d316565b91505b600101612326565b506060816040519080825280602002602001820160405280156123c0578160200160208202803883390190505b50905060005b82811015610ac2578381815181106123da57fe5b60200260200101518282815181106123ee57fe5b60209081029190910101526001016123c6565b600084815260208190526040902060018101546001600160a01b03166124275750612677565b60018101546001600160a01b0316331461247557604051600160e51b62461bcd0281526004018080602001828103825260258152602001806137b06025913960400191505060405180910390fd5b6000600682015460ff16600781111561248a57fe5b146124c957604051600160e51b62461bcd02815260040180806020018281038252602181526020018061374d6021913960400191505060405180910390fd5b835184906125215760408051600160e51b62461bcd02815260206004820152601360248201527f41207469746c6520697320726571756972656400000000000000000000000000604482015290519081900360640190fd5b835184906125795760408051600160e51b62461bcd02815260206004820152601960248201527f41206465736372697074696f6e20697320726571756972656400000000000000604482015290519081900360640190fd5b855161258e90600385019060208901906136b4565b5084516125a490600485019060208801906136b4565b508383600501819055507f78ec34897e7f5ea3506eaaa6dcf2edc5ea8eea1c579f1f3d158e55233c602e6960015433888760405180858152602001846001600160a01b03166001600160a01b0316815260200180602001838152602001828103825284818151815260200191508051906020019080838360005b8381101561263657818101518382015260200161261e565b50505050905090810190601f1680156126635780820380516001836020036101000a031916815260200191505b509550505050505060405180910390a15050505b50505050565b600081815260208190526040902060018101546001600160a01b03166126a35750610c89565b60018101546001600160a01b031633146126f157604051600160e51b62461bcd0281526004018080602001828103825260258152602001806137b06025913960400191505060405180910390fd5b6004600682015460ff16600781111561270657fe5b1461274557604051600160e51b62461bcd02815260040180806020018281038252602181526020018061378f6021913960400191505060405180910390fd5b60068101805460ff1916600390811790915560028083015460058401546040805187815233602082018190526001600160a01b039094169181018290526080810183905260a06060820181815296880180546101006001821615026000190116969096049082018190527f45db355d424e661e8b7ea210fd36cd8224f4955611152ce93518a27f205467e49689969394929160c0830190859080156111ab5780601f10611180576101008083540402835291602001916111ab565b600081815260208190526040902060018101546001600160a01b03166128265750610c89565b60018101546001600160a01b0316331461287457604051600160e51b62461bcd0281526004018080602001828103825260258152602001806137b06025913960400191505060405180910390fd5b6002600682015460ff16600781111561288957fe5b146128de5760408051600160e51b62461bcd02815260206004820152601660248201527f50726f706f73616c206e6f7420696e2072657669657700000000000000000000604482015290519081900360640190fd5b6002818101805460068401805460ff191660019081179091556001600160a01b0319821690925560058401546040805187815233602082018190526001600160a01b039094169181018290526080810183905260a0606082018181526003890180546101009881161598909802600019019097169790970490820181905291957f4c596893f217ff7756c8fc77bea24399406130928fc25e6ace71d6121fd2643f95899594889491939092909160c0830190859080156129df5780601f106129b4576101008083540402835291602001916129df565b820191906000526020600020905b8154815290600101906020018083116129c257829003601f168201915b5050965050505050505060405180910390a1505050565b606060015460001415612a1957604080516000808252602082019092529061097c565b6060600154604051908082528060200260200182016040528015612a47578160200160208202803883390190505b509050600060015b6001548111612b0d576000818152602081905260409020600101546001600160a01b0316331480612a9957506000818152602081905260409020600201546001600160a01b031633145b8015612ac45750600660008281526020819052604090206006015460ff166007811115612ac257fe5b145b15612b05576000818152602081905260409020548351849084908110612ae657fe5b6020908102919091010152612b0282600163ffffffff6135d316565b91505b600101612a4f565b50606081604051908082528060200260200182016040528015612b3a578160200160208202803883390190505b50905060005b82811015610ac257838181518110612b5457fe5b6020026020010151828281518110612b6857fe5b6020908102919091010152600101612b40565b606060015460001415612b9e57604080516000808252602082019092529061097c565b6060600154604051908082528060200260200182016040528015612bcc578160200160208202803883390190505b509050600060015b6001548111612cbb576000818152602081905260409020600101546001600160a01b0316331480612c1e57506000818152602081905260409020600201546001600160a01b031633145b8015612c725750600360008281526020819052604090206006015460ff166007811115612c4757fe5b1480612c725750600460008281526020819052604090206006015460ff166007811115612c7057fe5b145b15612cb3576000818152602081905260409020548351849084908110612c9457fe5b6020908102919091010152612cb082600163ffffffff6135d316565b91505b600101612bd4565b50606081604051908082528060200260200182016040528015612ce8578160200160208202803883390190505b50905060005b82811015610ac257838181518110612d0257fe5b6020026020010151828281518110612d1657fe5b6020908102919091010152600101612cee565b606060015460001415612d4c57604080516000808252602082019092529061097c565b6060600154604051908082528060200260200182016040528015612d7a578160200160208202803883390190505b509050600060015b6001548111612e49576000818152602081905260409020600101546001600160a01b031633148015612dd45750600560008281526020819052604090206006015460ff166007811115612dd157fe5b14155b8015612e005750600660008281526020819052604090206006015460ff166007811115612dfd57fe5b14155b15612e41576000818152602081905260409020548351849084908110612e2257fe5b6020908102919091010152612e3e82600163ffffffff6135d316565b91505b600101612d82565b50606081604051908082528060200260200182016040528015612e76578160200160208202803883390190505b50905060005b82811015610ac257838181518110612e9057fe5b6020026020010151828281518110612ea457fe5b6020908102919091010152600101612e7c565b606060015460001415612eda57604080516000808252602082019092529061097c565b6060600154604051908082528060200260200182016040528015612f08578160200160208202803883390190505b509050600060015b6001548111612faa576000818152602081905260409020600101546001600160a01b031633148015612f615750600260008281526020819052604090206006015460ff166007811115612f5f57fe5b145b15612fa2576000818152602081905260409020548351849084908110612f8357fe5b6020908102919091010152612f9f82600163ffffffff6135d316565b91505b600101612f10565b50606081604051908082528060200260200182016040528015612fd7578160200160208202803883390190505b50905060005b82811015610ac257838181518110612ff157fe5b602002602001015182828151811061300557fe5b6020908102919091010152600101612fdd565b600081815260208190526040902060018101546001600160a01b031661303e5750610c89565b60028101546001600160a01b031633146130a25760408051600160e51b62461bcd02815260206004820181905260248201527f596f7520617265206e6f742074686520736572766963652070726f7669646572604482015290519081900360640190fd5b6002600682015460ff1660078111156130b757fe5b1461310c5760408051600160e51b62461bcd02815260206004820152601660248201527f50726f706f73616c206e6f7420696e2072657669657700000000000000000000604482015290519081900360640190fd5b6002818101805460068401805460ff191660019081179091556001600160a01b0319821690925560058401546040805187815233602082018190526001600160a01b039094169181018290526080810183905260a0606082018181526003890180546101009881161598909802600019019097169790970490820181905291957f78a50b976d392dc292f12805e95fe0f6835d2adba9ff593aba1702d4b179b8f795899594889491939092909160c0830190859080156129df5780601f106129b4576101008083540402835291602001916129df565b6000806060806000806131f3613637565b60008881526020818152604091829020825160e081018452815481526001808301546001600160a01b03908116838601526002808501549091168387015260038401805487516101009482161594909402600019011691909104601f8101869004860283018601909652858252919492936060860193919291908301828280156132be5780601f10613293576101008083540402835291602001916132be565b820191906000526020600020905b8154815290600101906020018083116132a157829003601f168201915b505050918352505060048201805460408051602060026001851615610100026000190190941693909304601f81018490048402820184019092528181529382019392918301828280156133525780601f1061332757610100808354040283529160200191613352565b820191906000526020600020905b81548152906001019060200180831161333557829003601f168201915b505050918352505060058201546020820152600682015460409091019060ff16600781111561337d57fe5b600781111561338857fe5b90525060208101519091506001600160a01b03166133d1575050604080516020808201835260008083528351918201909352828152919650869550935091508390506007613400565b602081015160408201516060830151608084015160a085015160c090950151939a509198509650945090925090505b91939550919395565b600081815260208190526040902060018101546001600160a01b031661342f5750610c89565b60028101546001600160a01b031633146134935760408051600160e51b62461bcd02815260206004820181905260248201527f596f7520617265206e6f742074686520736572766963652070726f7669646572604482015290519081900360640190fd5b6003600682015460ff1660078111156134a857fe5b146134fd5760408051600160e51b62461bcd02815260206004820152601760248201527f50726f6a656374206e6f7420696e2070726f6772657373000000000000000000604482015290519081900360640190fd5b6002818101805460068401805460ff191660019081179091556001600160a01b0319821690925560058401546040805187815233602082018190526001600160a01b039094169181018290526080810183905260a0606082018181526003890180546101009881161598909802600019019097169790970490820181905291957fedd31b82626c4b504580eae0d067d064d264a97b8a7954e1619807de26ee352595899594889491939092909160c0830190859080156129df5780601f106129b4576101008083540402835291602001916129df565b6000828201838110156136305760408051600160e51b62461bcd02815260206004820152601b60248201527f536166654d6174683a206164646974696f6e206f766572666c6f770000000000604482015290519081900360640190fd5b9392505050565b6040805160e0810182526000808252602082018190529181018290526060808201819052608082015260a081018290529060c082015290565b50805460018160011615610100020316600290046000825580601f106136965750610c89565b601f016020900490600052602060002090810190610c899190613732565b828054600181600116156101000203166002900490600052602060002090601f016020900481019282601f106136f557805160ff1916838001178555613722565b82800160010185558215613722579182015b82811115613722578251825591602001919060010190613707565b5061372e929150613732565b5090565b610ac891905b8082111561372e576000815560010161373856fe43616e6e6f742062652075706461746564207768696c65207075626c697368656443616e6e6f742062652072656d6f766564207768696c65207075626c697368656450726f6a656374206e6f7420696e2076616c69646174696f6e2070726f63657373596f7520617265206e6f7420746865206f776e6572206f6620746869732070726f6a656374596f7572206465706f73697420646f65736e2774206d617463682074686520636f6e74726163742773207072696365a165627a7a7230582055e9c14035ede92d9fa3a7aaf091cc4fd16d94338c533750a629efaeb0d5065f0029",
  "source": "pragma solidity >=0.4.21 <0.6.0;\n\nimport 'openzeppelin-solidity/contracts/math/SafeMath.sol';\n\n// @title Decentralised business platform\ncontract ChainBizz {\n  //\n  // OpenZeppelin specifics\n  //\n  using SafeMath for uint256;\n\n  // Defines the status of the project\n  enum ProjectStatus {\n    Draft,\n    Available, \n    InReview,\n    OnGoing, \n    Validate,\n    Completed,\n    Canceled,\n    Unknown\n  }\n\n  //\n  // State variables\n  //\n\n  // Description of a project\n  struct ProjectItem {\n    uint256 id;               // unique ID\n    address payable owner;\n    address payable provider;             \n    string title;\n    string description;\n    uint256 price;            // price in Wei\n    ProjectStatus status;      \n  }\n\n  // List of projects\n  mapping(uint256 => ProjectItem) public projects;\n\n  // Number of registered projects\n  uint256 projectsCounter;\n  \n  //\n  // Events\n  //\n  event NewProject(uint256 id, address owner, string title, uint256 price);\n  event UpdateProject(uint256 id, address owner, string title, uint256 price);\n  event RemoveProject(uint256 id, address owner, string title);\n  event PublishedProject(uint256 id, address owner, string title, uint256 price);\n  event UnpublishedProject(uint256 id, address owner, string title, uint256 price);\n  event OfferSubmitted(uint256 id, address owner, string title, uint256 price);\n  event OfferCancelled(uint256 id, address owner, address provider, string title, uint256 price);\n  event AcceptProposal(uint256 id, address owner, address provider, string title, uint256 price);\n  event RejectProposal(uint256 id, address owner, address provider, string title, uint256 price);\n  event ProjectDelivered(uint256 id, address owner, address provider, string title, uint256 price);\n  event ServicesCancelled(uint256 id, address owner, address provider, string title, uint256 price);\n  event DeliveryAccepted(uint256 id, address owner, address provider, string title, uint256 price);\n  event DeliveryRejected(uint256 id, address owner, address provider, string title, uint256 price);\n  event ContractCancelled(uint256 id, address owner, address provider, string title, uint256 price);\n\n  //\n  // Implementation\n  //\n\n\n  //\n  // Setters\n  //\n  \n  // Add a new project\n  function addProject(string memory _title, string memory _description, uint256 _price) public {\n    \n    // a title is required\n    bytes memory title = bytes(_title);\n    require(title.length > 0, \"A title is required\");\n\n    // a description is required\n    bytes memory description = bytes(_description);\n    require(description.length > 0, \"A description is required\");\n\n    // new project\n    projectsCounter = projectsCounter.add(1);\n\n    // store the new project\n    projects[projectsCounter] = ProjectItem(projectsCounter, msg.sender, address(0x0), _title,  _description, _price, ProjectStatus.Draft);\n\n    emit NewProject(projectsCounter, msg.sender, _title, _price);\n  }\n\n  // Update an unpublished project\n  function updateProject(uint256 _id, string memory _title, string memory _description, uint256 _price) public {\n    \n    // retrieve the project\n    ProjectItem storage project = projects[_id];\n\n    // ensure that this project exists\n    if (project.owner == address(0x0)) {\n      return;\n    }\n \n    // do we own this project?\n    require(project.owner == msg.sender, \"You are not the owner of this project\");\n\n    // ready to be published?\n    require(project.status == ProjectStatus.Draft, \"Cannot be updated while published\");\n\n    // a title is required\n    bytes memory title = bytes(_title);\n    require(title.length > 0, \"A title is required\");\n\n    // a description is required\n    bytes memory description = bytes(_description);\n    require(description.length > 0, \"A description is required\");\n\n    // update the project\n    project.title = _title;\n    project.description = _description;\n    project.price = _price;\n\n    emit UpdateProject(projectsCounter, msg.sender, _title, _price);\n  }\n\n  // Remove an unpublished project\n  function removeProject(uint256 _id) public {\n    \n    // retrieve the project\n    ProjectItem memory project = projects[_id];\n\n    // ensure that this project exists\n    if (project.owner == address(0x0)) {\n      return;\n    }\n \n    // do we own this project?\n    require(project.owner == msg.sender, \"You are not the owner of this project\");\n\n    // ready to be removed?\n    require(project.status == ProjectStatus.Draft, \"Cannot be removed while published\");\n\n    // keep title for future use\n    string memory title = project.title;\n\n    // remove the project\n    delete projects[_id];\n\n    emit RemoveProject(_id, msg.sender, title);\n  }\n\n  // Publish the project to seek for providers\n  function publishProject(uint256 _id) public {\n    \n    // retrieve the project\n    ProjectItem storage project = projects[_id];\n\n    // ensure that this project exists\n    if (project.owner == address(0x0)) {\n      return;\n    }\n \n    // do we own this project?\n    require(project.owner == msg.sender, \"You are not the owner of this project\");\n\n    // ready to be published?\n    require(project.status == ProjectStatus.Draft, \"Cannot be published\");\n\n    // publish the project to be available for services\n    project.status = ProjectStatus.Available;\n\n    emit PublishedProject(_id, msg.sender, project.title, project.price);\n  }\n\n  // Unpublish the project\n  // A project can be unpublished ONLY if it's already published and not already part of a contract \n  function unpublishProject(uint256 _id) public {\n    \n    // retrieve the project\n    ProjectItem storage project = projects[_id];\n\n    // ensure that this project exists\n    if (project.owner == address(0x0)) {\n      return;\n    }\n \n    // do we own this project?\n    require(project.owner == msg.sender, \"You are not the owner of this project\");\n\n    // ready to be unpublished?\n    require(project.status == ProjectStatus.Available, \"Cannot be unpublished\");\n\n    // unpublish the project\n    project.status = ProjectStatus.Draft;\n\n    emit UnpublishedProject(_id, msg.sender, project.title, project.price);\n  }\n\n  // Offer services for the project\n  // A provider offers his/her services to perform the project \n  function submitOffer(uint256 _id) public {\n    \n    // retrieve the project\n    ProjectItem storage project = projects[_id];\n\n    // ensure that this project exists\n    if (project.owner == address(0x0)) {\n      return;\n    }\n \n    // is the project available?\n    require(project.status == ProjectStatus.Available, \"Project no more available\");\n\n    // store the address of the provider\n    project.provider = msg.sender;\n\n    // project is under review\n    project.status = ProjectStatus.InReview;\n\n    emit OfferSubmitted(_id, msg.sender, project.title, project.price);\n  }\n\n  // Cancel offer made by the provider\n  // A provider cancels his/her offer to perform the project \n  function cancelOffer(uint256 _id) public {\n    \n    // retrieve the project\n    ProjectItem storage project = projects[_id];\n\n    // ensure that this project exists\n    if (project.owner == address(0x0)) {\n      return;\n    }\n \n     // are we the service provider?\n    require(project.provider == msg.sender, \"You are not the service provider\");\n\n    // is the project in review?\n    require(project.status == ProjectStatus.InReview , \"Proposal not in review\");\n\n    // project is now available\n    address provider = project.provider;\n    project.status = ProjectStatus.Available;\n    project.provider = address(0x0);\n\n    emit OfferCancelled(_id, msg.sender, provider, project.title, project.price);\n  }\n\n  // Accept services from the provider\n  // The owner accepts the services offered by the provider \n  function acceptProposal(uint256 _id) payable public {\n    \n    // retrieve the project\n    ProjectItem storage project = projects[_id];\n\n    // ensure that this project exists\n    if (project.owner == address(0x0)) {\n      return;\n    }\n \n     // do we own this project?\n    require(project.owner == msg.sender, \"You are not the owner of this project\");\n\n    // is the project in review?\n    require(project.status == ProjectStatus.InReview, \"Proposal not in review\");\n\n    // is the owner has deposit the requeste amount?\n    require(msg.value == project.price, \"Your deposit doesn't match the contract's price\");\n\n    // project is now ongoing\n    project.status = ProjectStatus.OnGoing;\n\n    emit AcceptProposal(_id, msg.sender, project.provider, project.title, project.price);\n  }\n\n  // Reject proposal from the provider\n  // The owner rejects the services offered by the provider \n  function rejectProposal(uint256 _id) payable public {\n    \n    // retrieve the project\n    ProjectItem storage project = projects[_id];\n\n    // ensure that this project exists\n    if (project.owner == address(0x0)) {\n      return;\n    }\n \n     // do we own this project?\n    require(project.owner == msg.sender, \"You are not the owner of this project\");\n\n    // is the project in review?\n    require(project.status == ProjectStatus.InReview , \"Proposal not in review\");\n\n    // project is now available\n    address provider = project.provider;\n    project.status = ProjectStatus.Available;\n    project.provider = address(0x0);\n    \n    emit RejectProposal(_id, msg.sender, provider, project.title, project.price);\n  }\n\n  // Deliver the project to the customer\n  // The provider delivers the project to the owner \n  function deliverProject(uint256 _id) public {\n    \n    // retrieve the project\n    ProjectItem storage project = projects[_id];\n\n    // ensure that this project exists\n    if (project.owner == address(0x0)) {\n      return;\n    }\n \n    // are we the service provider?\n    require(project.provider == msg.sender, \"You are not the service provider\");\n\n    // is the project ongoing?\n    require(project.status == ProjectStatus.OnGoing, \"Project not in progress\");\n\n    // project is now validation process\n    project.status = ProjectStatus.Validate;\n\n    emit ProjectDelivered(_id, msg.sender, project.provider, project.title, project.price);\n  }\n\n   // Cancel services from the provider\n  // The provider cancels the services performed for the project \n  function cancelServices(uint256 _id) payable public {\n    \n    // retrieve the project\n    ProjectItem storage project = projects[_id];\n\n    // ensure that this project exists\n    if (project.owner == address(0x0)) {\n      return;\n    }\n \n    // are we the service provider?\n    require(project.provider == msg.sender, \"You are not the service provider\");\n\n    // is the project ongoing?\n    require(project.status == ProjectStatus.OnGoing, \"Project not in progress\");\n\n    // project becomes available\n    address provider = project.provider;\n    project.status = ProjectStatus.Available;\n    project.provider = address(0x0);\n    \n    emit ServicesCancelled(_id, msg.sender, provider, project.title, project.price);\n  }\n\n  // Accept the project delivery from the provider\n  // The owner accepts the project delivered by the provider \n  function acceptDelivery(uint256 _id) public {\n    \n    // retrieve the project\n    ProjectItem storage project = projects[_id];\n\n    // ensure that this project exists\n    if (project.owner == address(0x0)) {\n      return;\n    }\n \n     // do we own this project?\n    require(project.owner == msg.sender, \"You are not the owner of this project\");\n\n    // is the project in review?\n    require(project.status == ProjectStatus.Validate, \"Project not in validation process\");\n\n    // pay the service provide\n    project.provider.transfer(project.price);\n\n    // project is now completed\n    project.status = ProjectStatus.Completed;\n\n    emit DeliveryAccepted(_id, msg.sender, project.provider, project.title, project.price);\n  }\n\n  // Reject the project delivery from the provider\n  // The owner rejects the project delivered by the provider \n  function rejectDelivery(uint256 _id) public {\n    \n    // retrieve the project\n    ProjectItem storage project = projects[_id];\n\n    // ensure that this project exists\n    if (project.owner == address(0x0)) {\n      return;\n    }\n \n     // do we own this project?\n    require(project.owner == msg.sender, \"You are not the owner of this project\");\n\n    // is the project in review?\n    require(project.status == ProjectStatus.Validate, \"Project not in validation process\");\n\n    // project remains ongoing\n    project.status = ProjectStatus.OnGoing;\n    \n    emit DeliveryRejected(_id, msg.sender, project.provider, project.title, project.price);\n  }\n\n  // Contract cancelled by the owner\n  // The owner cancels the contract \n  function cancelContract(uint256 _id) public {\n    \n    // retrieve the project\n    ProjectItem storage project = projects[_id];\n\n    // ensure that this project exists\n    if (project.owner == address(0x0)) {\n      return;\n    }\n \n    // are we the service provider?\n    require(project.owner == msg.sender, \"You are not the project's owner\");\n\n    // is the project ongoing?\n    require((project.status == ProjectStatus.OnGoing) || (project.status == ProjectStatus.Validate), \"Project not in progress\");\n\n    // pay back the contract's owner\n    project.owner.transfer(project.price);\n\n    // contract becomes canceled\n    project.status = ProjectStatus.Canceled;\n    \n    emit ContractCancelled(_id, msg.sender, project.provider, project.title, project.price);\n  }\n\n  //\n  // Getters\n  //\n\n  // Retrieve a project from its id\n  function getProject(uint256 _id) public view returns (\n    address owner,\n    address provider,\n    string memory title,\n    string memory description,\n    uint256 price,\n    ProjectStatus status) {\n\n    ProjectItem memory project = projects[_id];\n\n    // ensure that we have a project to fetch\n    if (project.owner == address(0x0)) {\n      return (address(0x0), address(0x0), \"\", \"\", 0, ProjectStatus.Unknown);\n    }\n\n    return (\n      project.owner,\n      project.provider,\n      project.title,\n      project.description,\n      project.price,\n      project.status);\n  }\n\n  // return all projects\n  function getAllProjects() view public returns (uint256[] memory) {\n    if (projectsCounter == 0) {\n      return new uint[](0);\n    }\n\n    // prepare output array\n    uint256[] memory projectIDs = new uint[](projectsCounter);\n\n    // iterate over projects\n    uint256 numberOfProjects = 0;\n    for (uint256 i = 1; i <= projectsCounter; i++) {\n      // skip deleted projects\n      if (projects[i].owner != address(0x0)) {\n        projectIDs[numberOfProjects] = projects[i].id;\n        numberOfProjects = numberOfProjects.add(1);\n      }\n    }\n\n    // copy the project ID array into a smaller array\n    uint256[] memory allProjects = new uint[](numberOfProjects);\n    for (uint j = 0; j < numberOfProjects; j++) {\n      allProjects[j] = projectIDs[j];\n    }\n\n    return allProjects;\n  }\n\n\n  // return all published projects\n  function getPublishedProjects() view public returns (uint256[] memory) {\n    if (projectsCounter == 0) {\n      return new uint[](0);\n    }\n\n    // prepare output array\n    uint256[] memory projectIDs = new uint[](projectsCounter);\n\n    // iterate over projects\n    uint256 numberOfProjects = 0;\n    for (uint256 i = 1; i <= projectsCounter; i++) {\n      // get only published and active projects \n      if ((projects[i].owner != address(0x0)) && (projects[i].status == ProjectStatus.Available)) {\n        projectIDs[numberOfProjects] = projects[i].id;\n        numberOfProjects = numberOfProjects.add(1);\n      }\n    }\n\n    // copy the project ID array into a smaller array\n    uint256[] memory allProjects = new uint[](numberOfProjects);\n    for (uint j = 0; j < numberOfProjects; j++) {\n      allProjects[j] = projectIDs[j];\n    }\n\n    return allProjects;\n  }\n\n\n  // return all projects owned by the sender\n  function getMyProjects() view public returns (uint256[] memory) {\n    if (projectsCounter == 0) {\n      return new uint256[](0);\n    }\n\n    // prepare output array\n    uint256[] memory projectIDs = new uint[](projectsCounter);\n\n    // iterate over projects\n    uint256 numberOfProjects = 0;\n    for (uint i = 1; i <= projectsCounter; i++) {\n      // keep the ID of the project owned by the caller\n      if ((projects[i].owner == msg.sender) && (projects[i].status != ProjectStatus.Completed) && (projects[i].status != ProjectStatus.Canceled)) {\n        projectIDs[numberOfProjects] = projects[i].id;\n\n        numberOfProjects = numberOfProjects.add(1);\n      }\n    }\n\n    // copy the project ID array into a smaller array\n    uint256[] memory myProjects = new uint[](numberOfProjects);\n    for (uint j = 0; j < numberOfProjects; j++) {\n      myProjects[j] = projectIDs[j];\n    }\n\n    return myProjects;\n  }\n\n  // return all my offers waiting for review\n  function getMyOffers() view public returns (uint256[] memory) {\n    if (projectsCounter == 0) {\n      return new uint256[](0);\n    }\n\n    // prepare output array\n    uint256[] memory projectIDs = new uint[](projectsCounter);\n\n    // iterate over projects\n    uint256 numberOfProjects = 0;\n    for (uint i = 1; i <= projectsCounter; i++) {\n      // keep the ID of the project with the sender as provider and the project still in review process\n      if ((projects[i].provider == msg.sender) && (projects[i].status == ProjectStatus.InReview)) {\n        projectIDs[numberOfProjects] = projects[i].id;\n\n        numberOfProjects = numberOfProjects.add(1);\n      }\n    }\n\n    // copy the project ID array into a smaller array\n    uint256[] memory myOffers = new uint[](numberOfProjects);\n    for (uint j = 0; j < numberOfProjects; j++) {\n      myOffers[j] = projectIDs[j];\n    }\n\n    return myOffers;\n  }\n\n\n  // return all projects waiting for review\n  function getMyReviews() view public returns (uint256[] memory) {\n    if (projectsCounter == 0) {\n      return new uint256[](0);\n    }\n\n    // prepare output array\n    uint256[] memory projectIDs = new uint[](projectsCounter);\n\n    // iterate over projects\n    uint256 numberOfProjects = 0;\n    for (uint i = 1; i <= projectsCounter; i++) {\n      // keep the ID of the project owned by the caller and the project still in review process\n      if ((projects[i].owner == msg.sender) && (projects[i].status == ProjectStatus.InReview)) {\n        projectIDs[numberOfProjects] = projects[i].id;\n\n        numberOfProjects = numberOfProjects.add(1);\n      }\n    }\n\n    // copy the project ID array into a smaller array\n    uint256[] memory myReviews = new uint[](numberOfProjects);\n    for (uint j = 0; j < numberOfProjects; j++) {\n      myReviews[j] = projectIDs[j];\n    }\n\n    return myReviews;\n  }\n\n  // return all ongoing contracts\n  function getMyContracts() view public returns (uint256[] memory) {\n    if (projectsCounter == 0) {\n      return new uint[](0);\n    }\n\n    // prepare output array\n    uint256[] memory projectIDs = new uint[](projectsCounter);\n\n    // iterate over projects\n    uint256 numberOfProjects = 0;\n    for (uint256 i = 1; i <= projectsCounter; i++) {\n      // get only ongoing and under validation contracts owned by the contract's owner or the service provider \n      if (((projects[i].owner == msg.sender) || (projects[i].provider == msg.sender)) && \n      ((projects[i].status == ProjectStatus.OnGoing) || (projects[i].status == ProjectStatus.Validate))) {\n        projectIDs[numberOfProjects] = projects[i].id;\n        numberOfProjects = numberOfProjects.add(1);\n      }\n    }\n\n    // copy the project ID array into a smaller array\n    uint256[] memory myContracts = new uint[](numberOfProjects);\n    for (uint j = 0; j < numberOfProjects; j++) {\n      myContracts[j] = projectIDs[j];\n    }\n\n    return myContracts;\n  }\n\n  // return all deliveries to review\n  function getDeliveries() view public returns (uint256[] memory) {\n    if (projectsCounter == 0) {\n      return new uint[](0);\n    }\n\n    // prepare output array\n    uint256[] memory projectIDs = new uint[](projectsCounter);\n\n    // iterate over projects\n    uint256 numberOfProjects = 0;\n    for (uint256 i = 1; i <= projectsCounter; i++) {\n      // get only ongoing contracts owner by the contract's owner or the service provider \n      if (((projects[i].owner == msg.sender) || (projects[i].provider == msg.sender)) && (projects[i].status == ProjectStatus.Validate)) {\n        projectIDs[numberOfProjects] = projects[i].id;\n        numberOfProjects = numberOfProjects.add(1);\n      }\n    }\n\n    // copy the project ID array into a smaller array\n    uint256[] memory myDeliveries = new uint[](numberOfProjects);\n    for (uint j = 0; j < numberOfProjects; j++) {\n      myDeliveries[j] = projectIDs[j];\n    }\n\n    return myDeliveries;\n  }\n\n  // return all completed contracts\n  function getCompleted() view public returns (uint256[] memory) {\n    if (projectsCounter == 0) {\n      return new uint[](0);\n    }\n\n    // prepare output array\n    uint256[] memory projectIDs = new uint[](projectsCounter);\n\n    // iterate over projects\n    uint256 numberOfProjects = 0;\n    for (uint256 i = 1; i <= projectsCounter; i++) {\n      // get only ongoing contracts owner by the contract's owner or the service provider \n      if (((projects[i].owner == msg.sender) || (projects[i].provider == msg.sender)) && (projects[i].status == ProjectStatus.Completed)) {\n        projectIDs[numberOfProjects] = projects[i].id;\n        numberOfProjects = numberOfProjects.add(1);\n      }\n    }\n\n    // copy the project ID array into a smaller array\n    uint256[] memory myCompleted = new uint[](numberOfProjects);\n    for (uint j = 0; j < numberOfProjects; j++) {\n      myCompleted[j] = projectIDs[j];\n    }\n\n    return myCompleted;\n  }\n\n  // return all canceled contracts\n  function getCanceled() view public returns (uint256[] memory) {\n    if (projectsCounter == 0) {\n      return new uint[](0);\n    }\n\n    // prepare output array\n    uint256[] memory projectIDs = new uint[](projectsCounter);\n\n    // iterate over projects\n    uint256 numberOfProjects = 0;\n    for (uint256 i = 1; i <= projectsCounter; i++) {\n      // get only ongoing contracts owner by the contract's owner or the service provider \n      if (((projects[i].owner == msg.sender) || (projects[i].provider == msg.sender)) && (projects[i].status == ProjectStatus.Canceled)) {\n        projectIDs[numberOfProjects] = projects[i].id;\n        numberOfProjects = numberOfProjects.add(1);\n      }\n    }\n\n    // copy the project ID array into a smaller array\n    uint256[] memory myCanceled = new uint[](numberOfProjects);\n    for (uint j = 0; j < numberOfProjects; j++) {\n      myCanceled[j] = projectIDs[j];\n    }\n\n    return myCanceled;\n  }\n}",
  "sourcePath": "/Users/said.eloudrhiri/Projects/Devoxx/chainbizz/contracts/ChainBizz.sol",
  "compiler": {
    "name": "solc",
    "version": "0.5.8+commit.23d335f2.Emscripten.clang"
  },
  "schemaVersion": "3.0.16",
  "updatedAt": "2019-10-13T13:41:21.092Z",
  "devdoc": {
    "methods": {}
  },
  "userdoc": {
    "methods": {}
  }
}