{
  "contractName": "ChainBizz",
  "abi": [
    {
      "constant": true,
      "inputs": [
        {
          "name": "",
          "type": "uint256"
        }
      ],
      "name": "projects",
      "outputs": [
        {
          "name": "id",
          "type": "uint256"
        },
        {
          "name": "issuer",
          "type": "address"
        },
        {
          "name": "fulfiller",
          "type": "address"
        },
        {
          "name": "title",
          "type": "string"
        },
        {
          "name": "description",
          "type": "string"
        },
        {
          "name": "price",
          "type": "uint256"
        },
        {
          "name": "status",
          "type": "uint8"
        }
      ],
      "payable": false,
      "stateMutability": "view",
      "type": "function"
    },
    {
      "inputs": [],
      "payable": false,
      "stateMutability": "nonpayable",
      "type": "constructor"
    },
    {
      "anonymous": false,
      "inputs": [
        {
          "indexed": false,
          "name": "id",
          "type": "uint256"
        },
        {
          "indexed": true,
          "name": "issuer",
          "type": "address"
        },
        {
          "indexed": false,
          "name": "title",
          "type": "string"
        },
        {
          "indexed": false,
          "name": "price",
          "type": "uint256"
        }
      ],
      "name": "NewProject",
      "type": "event"
    },
    {
      "anonymous": false,
      "inputs": [
        {
          "indexed": false,
          "name": "id",
          "type": "uint256"
        },
        {
          "indexed": true,
          "name": "issuer",
          "type": "address"
        },
        {
          "indexed": false,
          "name": "title",
          "type": "string"
        },
        {
          "indexed": false,
          "name": "price",
          "type": "uint256"
        }
      ],
      "name": "UpdateProject",
      "type": "event"
    },
    {
      "anonymous": false,
      "inputs": [
        {
          "indexed": false,
          "name": "id",
          "type": "uint256"
        },
        {
          "indexed": true,
          "name": "issuer",
          "type": "address"
        },
        {
          "indexed": false,
          "name": "title",
          "type": "string"
        }
      ],
      "name": "RemoveProject",
      "type": "event"
    },
    {
      "anonymous": false,
      "inputs": [
        {
          "indexed": false,
          "name": "id",
          "type": "uint256"
        },
        {
          "indexed": true,
          "name": "issuer",
          "type": "address"
        },
        {
          "indexed": false,
          "name": "title",
          "type": "string"
        },
        {
          "indexed": false,
          "name": "price",
          "type": "uint256"
        }
      ],
      "name": "PublishedProject",
      "type": "event"
    },
    {
      "anonymous": false,
      "inputs": [
        {
          "indexed": false,
          "name": "id",
          "type": "uint256"
        },
        {
          "indexed": true,
          "name": "issuer",
          "type": "address"
        },
        {
          "indexed": false,
          "name": "title",
          "type": "string"
        },
        {
          "indexed": false,
          "name": "price",
          "type": "uint256"
        }
      ],
      "name": "UnpublishedProject",
      "type": "event"
    },
    {
      "anonymous": false,
      "inputs": [
        {
          "indexed": false,
          "name": "id",
          "type": "uint256"
        },
        {
          "indexed": true,
          "name": "issuer",
          "type": "address"
        },
        {
          "indexed": true,
          "name": "fulfiller",
          "type": "address"
        },
        {
          "indexed": false,
          "name": "title",
          "type": "string"
        },
        {
          "indexed": false,
          "name": "price",
          "type": "uint256"
        }
      ],
      "name": "OfferSubmitted",
      "type": "event"
    },
    {
      "anonymous": false,
      "inputs": [
        {
          "indexed": false,
          "name": "id",
          "type": "uint256"
        },
        {
          "indexed": true,
          "name": "issuer",
          "type": "address"
        },
        {
          "indexed": true,
          "name": "fulfiller",
          "type": "address"
        },
        {
          "indexed": false,
          "name": "title",
          "type": "string"
        },
        {
          "indexed": false,
          "name": "price",
          "type": "uint256"
        }
      ],
      "name": "OfferCanceled",
      "type": "event"
    },
    {
      "anonymous": false,
      "inputs": [
        {
          "indexed": false,
          "name": "id",
          "type": "uint256"
        },
        {
          "indexed": true,
          "name": "issuer",
          "type": "address"
        },
        {
          "indexed": true,
          "name": "fulfiller",
          "type": "address"
        },
        {
          "indexed": false,
          "name": "title",
          "type": "string"
        },
        {
          "indexed": false,
          "name": "price",
          "type": "uint256"
        }
      ],
      "name": "AcceptProposal",
      "type": "event"
    },
    {
      "anonymous": false,
      "inputs": [
        {
          "indexed": false,
          "name": "id",
          "type": "uint256"
        },
        {
          "indexed": true,
          "name": "issuer",
          "type": "address"
        },
        {
          "indexed": true,
          "name": "fulfiller",
          "type": "address"
        },
        {
          "indexed": false,
          "name": "title",
          "type": "string"
        },
        {
          "indexed": false,
          "name": "price",
          "type": "uint256"
        }
      ],
      "name": "RejectProposal",
      "type": "event"
    },
    {
      "anonymous": false,
      "inputs": [
        {
          "indexed": false,
          "name": "id",
          "type": "uint256"
        },
        {
          "indexed": true,
          "name": "issuer",
          "type": "address"
        },
        {
          "indexed": true,
          "name": "fulfiller",
          "type": "address"
        },
        {
          "indexed": false,
          "name": "title",
          "type": "string"
        },
        {
          "indexed": false,
          "name": "price",
          "type": "uint256"
        }
      ],
      "name": "ProjectDelivered",
      "type": "event"
    },
    {
      "anonymous": false,
      "inputs": [
        {
          "indexed": false,
          "name": "id",
          "type": "uint256"
        },
        {
          "indexed": true,
          "name": "issuer",
          "type": "address"
        },
        {
          "indexed": true,
          "name": "fulfiller",
          "type": "address"
        },
        {
          "indexed": false,
          "name": "title",
          "type": "string"
        },
        {
          "indexed": false,
          "name": "price",
          "type": "uint256"
        }
      ],
      "name": "ServicesCanceled",
      "type": "event"
    },
    {
      "anonymous": false,
      "inputs": [
        {
          "indexed": false,
          "name": "id",
          "type": "uint256"
        },
        {
          "indexed": true,
          "name": "issuer",
          "type": "address"
        },
        {
          "indexed": true,
          "name": "fulfiller",
          "type": "address"
        },
        {
          "indexed": false,
          "name": "title",
          "type": "string"
        },
        {
          "indexed": false,
          "name": "price",
          "type": "uint256"
        }
      ],
      "name": "DeliveryAccepted",
      "type": "event"
    },
    {
      "anonymous": false,
      "inputs": [
        {
          "indexed": false,
          "name": "id",
          "type": "uint256"
        },
        {
          "indexed": true,
          "name": "issuer",
          "type": "address"
        },
        {
          "indexed": true,
          "name": "fulfiller",
          "type": "address"
        },
        {
          "indexed": false,
          "name": "title",
          "type": "string"
        },
        {
          "indexed": false,
          "name": "price",
          "type": "uint256"
        }
      ],
      "name": "DeliveryRejected",
      "type": "event"
    },
    {
      "anonymous": false,
      "inputs": [
        {
          "indexed": false,
          "name": "id",
          "type": "uint256"
        },
        {
          "indexed": true,
          "name": "issuer",
          "type": "address"
        },
        {
          "indexed": true,
          "name": "fulfiller",
          "type": "address"
        },
        {
          "indexed": false,
          "name": "title",
          "type": "string"
        },
        {
          "indexed": false,
          "name": "price",
          "type": "uint256"
        }
      ],
      "name": "ContractCanceled",
      "type": "event"
    },
    {
      "constant": false,
      "inputs": [],
      "name": "enableContract",
      "outputs": [],
      "payable": false,
      "stateMutability": "nonpayable",
      "type": "function"
    },
    {
      "constant": false,
      "inputs": [],
      "name": "disableContract",
      "outputs": [],
      "payable": false,
      "stateMutability": "nonpayable",
      "type": "function"
    },
    {
      "constant": false,
      "inputs": [
        {
          "name": "_title",
          "type": "string"
        },
        {
          "name": "_description",
          "type": "string"
        },
        {
          "name": "_price",
          "type": "uint256"
        }
      ],
      "name": "addProject",
      "outputs": [],
      "payable": false,
      "stateMutability": "nonpayable",
      "type": "function"
    },
    {
      "constant": false,
      "inputs": [
        {
          "name": "_id",
          "type": "uint256"
        },
        {
          "name": "_title",
          "type": "string"
        },
        {
          "name": "_description",
          "type": "string"
        },
        {
          "name": "_price",
          "type": "uint256"
        }
      ],
      "name": "updateProject",
      "outputs": [],
      "payable": false,
      "stateMutability": "nonpayable",
      "type": "function"
    },
    {
      "constant": false,
      "inputs": [
        {
          "name": "_id",
          "type": "uint256"
        }
      ],
      "name": "removeProject",
      "outputs": [],
      "payable": false,
      "stateMutability": "nonpayable",
      "type": "function"
    },
    {
      "constant": false,
      "inputs": [
        {
          "name": "_id",
          "type": "uint256"
        }
      ],
      "name": "publishProject",
      "outputs": [],
      "payable": false,
      "stateMutability": "nonpayable",
      "type": "function"
    },
    {
      "constant": false,
      "inputs": [
        {
          "name": "_id",
          "type": "uint256"
        }
      ],
      "name": "unpublishProject",
      "outputs": [],
      "payable": false,
      "stateMutability": "nonpayable",
      "type": "function"
    },
    {
      "constant": false,
      "inputs": [
        {
          "name": "_id",
          "type": "uint256"
        }
      ],
      "name": "submitOffer",
      "outputs": [],
      "payable": false,
      "stateMutability": "nonpayable",
      "type": "function"
    },
    {
      "constant": false,
      "inputs": [
        {
          "name": "_id",
          "type": "uint256"
        }
      ],
      "name": "cancelOffer",
      "outputs": [],
      "payable": false,
      "stateMutability": "nonpayable",
      "type": "function"
    },
    {
      "constant": false,
      "inputs": [
        {
          "name": "_id",
          "type": "uint256"
        }
      ],
      "name": "acceptProposal",
      "outputs": [],
      "payable": true,
      "stateMutability": "payable",
      "type": "function"
    },
    {
      "constant": false,
      "inputs": [
        {
          "name": "_id",
          "type": "uint256"
        }
      ],
      "name": "rejectProposal",
      "outputs": [],
      "payable": false,
      "stateMutability": "nonpayable",
      "type": "function"
    },
    {
      "constant": false,
      "inputs": [
        {
          "name": "_id",
          "type": "uint256"
        }
      ],
      "name": "deliverProject",
      "outputs": [],
      "payable": false,
      "stateMutability": "nonpayable",
      "type": "function"
    },
    {
      "constant": false,
      "inputs": [
        {
          "name": "_id",
          "type": "uint256"
        }
      ],
      "name": "cancelServices",
      "outputs": [],
      "payable": false,
      "stateMutability": "nonpayable",
      "type": "function"
    },
    {
      "constant": false,
      "inputs": [
        {
          "name": "_id",
          "type": "uint256"
        }
      ],
      "name": "acceptDelivery",
      "outputs": [],
      "payable": false,
      "stateMutability": "nonpayable",
      "type": "function"
    },
    {
      "constant": false,
      "inputs": [
        {
          "name": "_id",
          "type": "uint256"
        }
      ],
      "name": "rejectDelivery",
      "outputs": [],
      "payable": false,
      "stateMutability": "nonpayable",
      "type": "function"
    },
    {
      "constant": false,
      "inputs": [
        {
          "name": "_id",
          "type": "uint256"
        }
      ],
      "name": "cancelContract",
      "outputs": [],
      "payable": false,
      "stateMutability": "nonpayable",
      "type": "function"
    },
    {
      "constant": true,
      "inputs": [],
      "name": "isEnabled",
      "outputs": [
        {
          "name": "",
          "type": "bool"
        }
      ],
      "payable": false,
      "stateMutability": "view",
      "type": "function"
    },
    {
      "constant": true,
      "inputs": [
        {
          "name": "_id",
          "type": "uint256"
        }
      ],
      "name": "getProject",
      "outputs": [
        {
          "name": "issuer",
          "type": "address"
        },
        {
          "name": "fulfiller",
          "type": "address"
        },
        {
          "name": "title",
          "type": "string"
        },
        {
          "name": "description",
          "type": "string"
        },
        {
          "name": "price",
          "type": "uint256"
        },
        {
          "name": "status",
          "type": "uint8"
        }
      ],
      "payable": false,
      "stateMutability": "view",
      "type": "function"
    },
    {
      "constant": true,
      "inputs": [],
      "name": "getAllProjects",
      "outputs": [
        {
          "name": "",
          "type": "uint256[]"
        }
      ],
      "payable": false,
      "stateMutability": "view",
      "type": "function"
    },
    {
      "constant": true,
      "inputs": [],
      "name": "getPublishedProjects",
      "outputs": [
        {
          "name": "",
          "type": "uint256[]"
        }
      ],
      "payable": false,
      "stateMutability": "view",
      "type": "function"
    },
    {
      "constant": true,
      "inputs": [],
      "name": "getMyProjects",
      "outputs": [
        {
          "name": "",
          "type": "uint256[]"
        }
      ],
      "payable": false,
      "stateMutability": "view",
      "type": "function"
    },
    {
      "constant": true,
      "inputs": [],
      "name": "getMyOffers",
      "outputs": [
        {
          "name": "",
          "type": "uint256[]"
        }
      ],
      "payable": false,
      "stateMutability": "view",
      "type": "function"
    },
    {
      "constant": true,
      "inputs": [],
      "name": "getMyReviews",
      "outputs": [
        {
          "name": "",
          "type": "uint256[]"
        }
      ],
      "payable": false,
      "stateMutability": "view",
      "type": "function"
    },
    {
      "constant": true,
      "inputs": [],
      "name": "getMyContracts",
      "outputs": [
        {
          "name": "",
          "type": "uint256[]"
        }
      ],
      "payable": false,
      "stateMutability": "view",
      "type": "function"
    },
    {
      "constant": true,
      "inputs": [],
      "name": "getDeliveries",
      "outputs": [
        {
          "name": "",
          "type": "uint256[]"
        }
      ],
      "payable": false,
      "stateMutability": "view",
      "type": "function"
    },
    {
      "constant": true,
      "inputs": [],
      "name": "getCompleted",
      "outputs": [
        {
          "name": "",
          "type": "uint256[]"
        }
      ],
      "payable": false,
      "stateMutability": "view",
      "type": "function"
    },
    {
      "constant": true,
      "inputs": [],
      "name": "getCanceled",
      "outputs": [
        {
          "name": "",
          "type": "uint256[]"
        }
      ],
      "payable": false,
      "stateMutability": "view",
      "type": "function"
    }
  ],
  "bytecode": "0x608060405234801561001057600080fd5b5060028054600160ff1990911617610100600160a81b0319166101003302179055613eca806100406000396000f3fe6080604052600436106101b75760003560e01c80636f65c717116100ec578063bd140c4b1161008a578063ef1b655311610064578063ef1b655314610874578063ef706adf14610889578063f0f3f2c8146108b3578063f7f2ccbf146109f1576101b7565b8063bd140c4b14610835578063c81bde151461084a578063e4f655b01461085f576101b7565b8063894ba833116100c6578063894ba8331461068d578063a7fa01a7146106a2578063b85a72d2146107e1578063bc28d8781461080b576101b7565b80636f65c717146106245780637b422c4c1461064e57806380d0382914610678576101b7565b80635873f9981161015957806360c5cc3a1161013357806360c5cc3a1461058a578063629a064e146105a757806364a4277a146105d15780636aa633b6146105fb576101b7565b80635873f998146104135780635b54f9821461043d5780635fd4f75814610452576101b7565b8063138e0b2611610195578063138e0b26146103aa57806328047450146103bf578063367edd32146103e95780634beb7e94146103fe576101b7565b8063037852c7146101bc5780630850cd1e14610221578063107046bd1461024d575b600080fd5b3480156101c857600080fd5b506101d1610a1b565b60408051602080825283518183015283519192839290830191858101910280838360005b8381101561020d5781810151838201526020016101f5565b505050509050019250505060405180910390f35b34801561022d57600080fd5b5061024b6004803603602081101561024457600080fd5b5035610b89565b005b34801561025957600080fd5b506102776004803603602081101561027057600080fd5b5035610d8c565b60405180888152602001876001600160a01b03166001600160a01b03168152602001866001600160a01b03166001600160a01b0316815260200180602001806020018581526020018460088111156102cb57fe5b60ff168152602001838103835287818151815260200191508051906020019080838360005b838110156103085781810151838201526020016102f0565b50505050905090810190601f1680156103355780820380516001836020036101000a031916815260200191505b50838103825286518152865160209182019188019080838360005b83811015610368578181015183820152602001610350565b50505050905090810190601f1680156103955780820380516001836020036101000a031916815260200191505b50995050505050505050505060405180910390f35b3480156103b657600080fd5b506101d1610eeb565b3480156103cb57600080fd5b5061024b600480360360208110156103e257600080fd5b5035611070565b3480156103f557600080fd5b5061024b611306565b34801561040a57600080fd5b506101d1611366565b34801561041f57600080fd5b5061024b6004803603602081101561043657600080fd5b50356114c7565b34801561044957600080fd5b506101d161188a565b34801561045e57600080fd5b5061024b6004803603606081101561047557600080fd5b810190602081018135600160201b81111561048f57600080fd5b8201836020820111156104a157600080fd5b803590602001918460018302840111600160201b831117156104c257600080fd5b91908080601f0160208091040260200160405190810160405280939291908181526020018383808284376000920191909152509295949360208101935035915050600160201b81111561051457600080fd5b82018360208201111561052657600080fd5b803590602001918460018302840111600160201b8311171561054757600080fd5b91908080601f0160208091040260200160405190810160405280939291908181526020018383808284376000920191909152509295505091359250611a0f915050565b61024b600480360360208110156105a057600080fd5b5035611cba565b3480156105b357600080fd5b5061024b600480360360208110156105ca57600080fd5b5035611ee0565b3480156105dd57600080fd5b5061024b600480360360208110156105f457600080fd5b50356120c2565b34801561060757600080fd5b50610610612289565b604080519115158252519081900360200190f35b34801561063057600080fd5b5061024b6004803603602081101561064757600080fd5b5035612292565b34801561065a57600080fd5b5061024b6004803603602081101561067157600080fd5b5035612435565b34801561068457600080fd5b506101d1612643565b34801561069957600080fd5b5061024b612777565b3480156106ae57600080fd5b5061024b600480360360808110156106c557600080fd5b81359190810190604081016020820135600160201b8111156106e657600080fd5b8201836020820111156106f857600080fd5b803590602001918460018302840111600160201b8311171561071957600080fd5b91908080601f0160208091040260200160405190810160405280939291908181526020018383808284376000920191909152509295949360208101935035915050600160201b81111561076b57600080fd5b82018360208201111561077d57600080fd5b803590602001918460018302840111600160201b8311171561079e57600080fd5b91908080601f0160208091040260200160405190810160405280939291908181526020018383808284376000920191909152509295505091359250612917915050565b3480156107ed57600080fd5b5061024b6004803603602081101561080457600080fd5b5035612bcc565b34801561081757600080fd5b5061024b6004803603602081101561082e57600080fd5b5035612d97565b34801561084157600080fd5b506101d1612fca565b34801561085657600080fd5b506101d161314f565b34801561086b57600080fd5b506101d16132fd565b34801561088057600080fd5b506101d161348b565b34801561089557600080fd5b5061024b600480360360208110156108ac57600080fd5b50356135ec565b3480156108bf57600080fd5b506108dd600480360360208110156108d657600080fd5b50356137df565b604080516001600160a01b03808916825287166020820152608081018490529081016060820160a0830184600881111561091357fe5b60ff168152602001838103835287818151815260200191508051906020019080838360005b83811015610950578181015183820152602001610938565b50505050905090810190601f16801561097d5780820380516001836020036101000a031916815260200191505b50838103825286518152865160209182019188019080838360005b838110156109b0578181015183820152602001610998565b50505050905090810190601f1680156109dd5780820380516001836020036101000a031916815260200191505b509850505050505050505060405180910390f35b3480156109fd57600080fd5b5061024b60048036036020811015610a1457600080fd5b5035613a06565b606060015460001415610a425760408051600080825260208201909252905b509050610b86565b6060600154604051908082528060200260200182016040528015610a70578160200160208202803883390190505b509050600060015b6001548111610b12576000818152602081905260409020600201546001600160a01b031633148015610ac95750600260008281526020819052604090206006015460ff166008811115610ac757fe5b145b15610b0a576000818152602081905260409020548351849084908110610aeb57fe5b6020908102919091010152610b0782600163ffffffff613bf916565b91505b600101610a78565b50606081604051908082528060200260200182016040528015610b3f578160200160208202803883390190505b50905060005b82811015610b8057838181518110610b5957fe5b6020026020010151828281518110610b6d57fe5b6020908102919091010152600101610b45565b50925050505b90565b60025460ff161515600114610bd257604051600160e51b62461bcd028152600401808060200182810382526022815260200180613db56022913960400191505060405180910390fd5b600081815260208190526040902060018101546001600160a01b0316610bf85750610d89565b60018101546001600160a01b03163314610c4657604051600160e51b62461bcd028152600401808060200182810382526026815260200180613df86026913960400191505060405180910390fd5b6001600682015460ff166008811115610c5b57fe5b14610cb05760408051600160e51b62461bcd02815260206004820152601560248201527f43616e6e6f7420626520756e7075626c69736865640000000000000000000000604482015290519081900360640190fd5b60068101805460ff191690556005810154604080518481529081018290526060602082018181526003850180546002600182161561010002600019019091160492840183905233947f3525d4593ef70f97d7b99dfeab0e0be748aeb51f464f83bf0bbf5ab6badb45c894889492939192909190608083019085908015610d775780601f10610d4c57610100808354040283529160200191610d77565b820191906000526020600020905b815481529060010190602001808311610d5a57829003601f168201915b505094505050505060405180910390a2505b50565b60006020818152918152604090819020805460018083015460028085015460038601805488516101009682161596909602600019011692909204601f810189900489028501890190975286845293966001600160a01b0392831696929094169493909190830182828015610e415780601f10610e1657610100808354040283529160200191610e41565b820191906000526020600020905b815481529060010190602001808311610e2457829003601f168201915b5050505060048301805460408051602060026001851615610100026000190190941693909304601f8101849004840282018401909252818152949594935090830182828015610ed15780601f10610ea657610100808354040283529160200191610ed1565b820191906000526020600020905b815481529060010190602001808311610eb457829003601f168201915b50505050600583015460069093015491929160ff16905087565b606060015460001415610f0e576040805160008082526020820190925290610a3a565b6060600154604051908082528060200260200182016040528015610f3c578160200160208202803883390190505b509050600060015b6001548111611002576000818152602081905260409020600101546001600160a01b0316331480610f8e57506000818152602081905260409020600201546001600160a01b031633145b8015610fb95750600460008281526020819052604090206006015460ff166008811115610fb757fe5b145b15610ffa576000818152602081905260409020548351849084908110610fdb57fe5b6020908102919091010152610ff782600163ffffffff613bf916565b91505b600101610f44565b5060608160405190808252806020026020018201604052801561102f578160200160208202803883390190505b50905060005b82811015610b805783818151811061104957fe5b602002602001015182828151811061105d57fe5b6020908102919091010152600101611035565b60025460ff1615156001146110b957604051600160e51b62461bcd028152600401808060200182810382526022815260200180613db56022913960400191505060405180910390fd5b600081815260208190526040902060018101546001600160a01b03166110df5750610d89565b60018101546001600160a01b031633146111435760408051600160e51b62461bcd02815260206004820181905260248201527f596f7520617265206e6f74207468652070726f6a656374277320697373756572604482015290519081900360640190fd5b6003600682015460ff16600881111561115857fe5b148061117657506004600682015460ff16600881111561117457fe5b145b6111ca5760408051600160e51b62461bcd02815260206004820152601760248201527f50726f6a656374206e6f7420696e2070726f6772657373000000000000000000604482015290519081900360640190fd5b600181015460058201546040516001600160a01b039092169181156108fc0291906000818181858888f1935050505015801561120a573d6000803e3d6000fd5b506006818101805460ff19169091179055600280820154600180840154600585015460408051888152908101829052606060208201818152600389018054610100978116159790970260001901909616979097049082018190526001600160a01b039586169695909316947fbe0490d452ff53df72b8d99df1c2a4711a2429c8dbb450f514d37b0b03e0db3794899490939291906080830190859080156112f25780601f106112c7576101008083540402835291602001916112f2565b820191906000526020600020905b8154815290600101906020018083116112d557829003601f168201915b505094505050505060405180910390a35050565b60025461010090046001600160a01b0316331461135757604051600160e51b62461bcd028152600401808060200182810382526031815260200180613e3f6031913960400191505060405180910390fd5b6002805460ff19166001179055565b606060015460001415611389576040805160008082526020820190925290610a3a565b60606001546040519080825280602002602001820160405280156113b7578160200160208202803883390190505b509050600060015b6001548111611459576000818152602081905260409020600101546001600160a01b0316158015906114105750600160008281526020819052604090206006015460ff16600881111561140e57fe5b145b1561145157600081815260208190526040902054835184908490811061143257fe5b602090810291909101015261144e82600163ffffffff613bf916565b91505b6001016113bf565b50606081604051908082528060200260200182016040528015611486578160200160208202803883390190505b50905060005b82811015610b80578381815181106114a057fe5b60200260200101518282815181106114b457fe5b602090810291909101015260010161148c565b60025460ff16151560011461151057604051600160e51b62461bcd028152600401808060200182810382526022815260200180613db56022913960400191505060405180910390fd5b611518613c5d565b60008281526020818152604091829020825160e081018452815481526001808301546001600160a01b03908116838601526002808501549091168387015260038401805487516101009482161594909402600019011691909104601f8101869004860283018601909652858252919492936060860193919291908301828280156115e35780601f106115b8576101008083540402835291602001916115e3565b820191906000526020600020905b8154815290600101906020018083116115c657829003601f168201915b505050918352505060048201805460408051602060026001851615610100026000190190941693909304601f81018490048402820184019092528181529382019392918301828280156116775780601f1061164c57610100808354040283529160200191611677565b820191906000526020600020905b81548152906001019060200180831161165a57829003601f168201915b505050918352505060058201546020820152600682015460409091019060ff1660088111156116a257fe5b60088111156116ad57fe5b90525060208101519091506001600160a01b03166116cb5750610d89565b60208101516001600160a01b0316331461171957604051600160e51b62461bcd028152600401808060200182810382526026815260200180613df86026913960400191505060405180910390fd5b60008160c00151600881111561172b57fe5b1461176a57604051600160e51b62461bcd028152600401808060200182810382526021815260200180613dd76021913960400191505060405180910390fd5b606081015160008381526020819052604081208181556001810180546001600160a01b03199081169091556002820180549091169055906117ae6003830182613c96565b6117bc600483016000613c96565b60058201600090556006820160006101000a81549060ff02191690555050336001600160a01b03167f0bac8d70ddda9ec612d317fa2968f6f746b59169d04a223ec870eb6447a7c7f484836040518083815260200180602001828103825283818151815260200191508051906020019080838360005b8381101561184a578181015183820152602001611832565b50505050905090810190601f1680156118775780820380516001836020036101000a031916815260200191505b50935050505060405180910390a2505050565b6060600154600014156118ad576040805160008082526020820190925290610a3a565b60606001546040519080825280602002602001820160405280156118db578160200160208202803883390190505b509050600060015b60015481116119a1576000818152602081905260409020600101546001600160a01b031633148061192d57506000818152602081905260409020600201546001600160a01b031633145b80156119585750600560008281526020819052604090206006015460ff16600881111561195657fe5b145b1561199957600081815260208190526040902054835184908490811061197a57fe5b602090810291909101015261199682600163ffffffff613bf916565b91505b6001016118e3565b506060816040519080825280602002602001820160405280156119ce578160200160208202803883390190505b50905060005b82811015610b80578381815181106119e857fe5b60200260200101518282815181106119fc57fe5b60209081029190910101526001016119d4565b60025460ff161515600114611a5857604051600160e51b62461bcd028152600401808060200182810382526022815260200180613db56022913960400191505060405180910390fd5b82518390611ab05760408051600160e51b62461bcd02815260206004820152601360248201527f41207469746c6520697320726571756972656400000000000000000000000000604482015290519081900360640190fd5b82518390611b085760408051600160e51b62461bcd02815260206004820152601960248201527f41206465736372697074696f6e20697320726571756972656400000000000000604482015290519081900360640190fd5b60018054611b1b9163ffffffff613bf916565b60018181556040805160e0810182528381523360208083019182526000838501818152606085018d8152608086018d905260a086018c905260c0860183905297825281835294902083518155915194820180546001600160a01b039687166001600160a01b03199182161790915593516002830180549190961694169390931790935592518051611bb29260038501920190613cda565b5060808201518051611bce916004840191602090910190613cda565b5060a0820151600582015560c082015160068201805460ff19166001836008811115611bf657fe5b0217905550905050336001600160a01b03167fc8e7a8f4fbf568a726fe7b162d56bb8a313fa7ec7f274c6390969cb322a0f79460015487866040518084815260200180602001838152602001828103825284818151815260200191508051906020019080838360005b83811015611c77578181015183820152602001611c5f565b50505050905090810190601f168015611ca45780820380516001836020036101000a031916815260200191505b5094505050505060405180910390a25050505050565b60025460ff161515600114611d0357604051600160e51b62461bcd028152600401808060200182810382526022815260200180613db56022913960400191505060405180910390fd5b600081815260208190526040902060018101546001600160a01b0316611d295750610d89565b60018101546001600160a01b03163314611d7757604051600160e51b62461bcd028152600401808060200182810382526026815260200180613df86026913960400191505060405180910390fd5b6002600682015460ff166008811115611d8c57fe5b14611de15760408051600160e51b62461bcd02815260206004820152601660248201527f50726f706f73616c206e6f7420696e2072657669657700000000000000000000604482015290519081900360640190fd5b80600501543414611e2657604051600160e51b62461bcd02815260040180806020018281038252602f815260200180613e70602f913960400191505060405180910390fd5b60068101805460ff191660039081179091556002808301546001808501546005860154604080518981529081018290526060602082018181529789018054610100968116159690960260001901909516969096049581018690526001600160a01b039485169694909216947fd0ca6107f6c9513954ca859c885b1e8b434687b6cf5e40625574d53dda8422ed94899493916080830190859080156112f25780601f106112c7576101008083540402835291602001916112f2565b60025460ff161515600114611f2957604051600160e51b62461bcd028152600401808060200182810382526022815260200180613db56022913960400191505060405180910390fd5b600081815260208190526040902060018101546001600160a01b0316611f4f5750610d89565b60028101546001600160a01b03163314611f9d57604051600160e51b62461bcd028152600401808060200182810382526021815260200180613d946021913960400191505060405180910390fd5b6003600682015460ff166008811115611fb257fe5b146120075760408051600160e51b62461bcd02815260206004820152601760248201527f50726f6a656374206e6f7420696e2070726f6772657373000000000000000000604482015290519081900360640190fd5b60068101805460ff19166004179055600280820154600180840154600585015460408051888152908101829052606060208201818152600389018054610100978116159790970260001901909616979097049082018190526001600160a01b039586169695909316947f2c29e86efe7dba61218108fc48fc467f0b2d89a5dd6741ff0df4b17bdf5cab6894899490939291906080830190859080156112f25780601f106112c7576101008083540402835291602001916112f2565b60025460ff16151560011461210b57604051600160e51b62461bcd028152600401808060200182810382526022815260200180613db56022913960400191505060405180910390fd5b600081815260208190526040902060018101546001600160a01b03166121315750610d89565b60018101546001600160a01b0316331461217f57604051600160e51b62461bcd028152600401808060200182810382526026815260200180613df86026913960400191505060405180910390fd5b6000600682015460ff16600881111561219457fe5b146121e95760408051600160e51b62461bcd02815260206004820152601360248201527f43616e6e6f74206265207075626c697368656400000000000000000000000000604482015290519081900360640190fd5b60068101805460ff191660019081179091556005820154604080518581529081018290526060602082018181526003860180546002968116156101000260001901169590950491830182905233947f8312e76cb9523ff197151c20e9aa91aab65c750674f5a0f6df91434fc153adc99488949193909290608083019085908015610d775780601f10610d4c57610100808354040283529160200191610d77565b60025460ff1690565b60025460ff1615156001146122db57604051600160e51b62461bcd028152600401808060200182810382526022815260200180613db56022913960400191505060405180910390fd5b600081815260208190526040902060018101546001600160a01b03166123015750610d89565b6001600682015460ff16600881111561231657fe5b1461236b5760408051600160e51b62461bcd02815260206004820152601960248201527f50726f6a656374206e6f206d6f726520617661696c61626c6500000000000000604482015290519081900360640190fd5b600280820180546001600160a01b0319163317905560068201805460ff191660018302179055506001818101546005830154604080518681529081018290526060602082018181526003870180546002610100988216159890980260001901169690960491830182905233956001600160a01b03909516947f337b4516025ec150291d21f457dad5d6d43ea3f7da34432124932cd2a6b700b194899491939092906080830190859080156112f25780601f106112c7576101008083540402835291602001916112f2565b60025460ff16151560011461247e57604051600160e51b62461bcd028152600401808060200182810382526022815260200180613db56022913960400191505060405180910390fd5b600081815260208190526040902060018101546001600160a01b03166124a45750610d89565b60018101546001600160a01b031633146124f257604051600160e51b62461bcd028152600401808060200182810382526026815260200180613df86026913960400191505060405180910390fd5b6004600682015460ff16600881111561250757fe5b1461254657604051600160e51b62461bcd028152600401808060200182810382526021815260200180613e1e6021913960400191505060405180910390fd5b600281015460058201546040516001600160a01b039092169181156108fc0291906000818181858888f19350505050158015612586573d6000803e3d6000fd5b5060068101805460ff191660059081179091556002808301546001808501549385015460408051888152908101829052606060208201818152600389018054610100968116159690960260001901909516969096049082018190526001600160a01b039485169694909416947f72a87e41eb71c3d97ada3d99bed7a092d856bcdc4f034ef117099e051038cd7a948994939291906080830190859080156112f25780601f106112c7576101008083540402835291602001916112f2565b606060015460001415612666576040805160008082526020820190925290610a3a565b6060600154604051908082528060200260200182016040528015612694578160200160208202803883390190505b509050600060015b6001548111612709576000818152602081905260409020600101546001600160a01b0316156127015760008181526020819052604090205483518490849081106126e257fe5b60209081029190910101526126fe82600163ffffffff613bf916565b91505b60010161269c565b50606081604051908082528060200260200182016040528015612736578160200160208202803883390190505b50905060005b82811015610b805783818151811061275057fe5b602002602001015182828151811061276457fe5b602090810291909101015260010161273c565b60025461010090046001600160a01b031633146127c857604051600160e51b62461bcd028152600401808060200182810382526031815260200180613e3f6031913960400191505060405180910390fd5b60025460ff16151560011461281157604051600160e51b62461bcd028152600401808060200182810382526022815260200180613db56022913960400191505060405180910390fd5b6002805460ff1916905560015461282757612915565b6060600154604051908082528060200260200182016040528015612855578160200160208202803883390190505b509050600060015b60015481116129115760008181526020819052604090206003600682015460ff16600881111561288957fe5b14806128a757506004600682015460ff1660088111156128a557fe5b145b15612908576005810154156128f857600181015460058201546040516001600160a01b039092169181156108fc0291906000818181858888f193505050501580156128f6573d6000803e3d6000fd5b505b60068101805460ff191660071790555b5060010161285d565b5050505b565b60025460ff16151560011461296057604051600160e51b62461bcd028152600401808060200182810382526022815260200180613db56022913960400191505060405180910390fd5b600084815260208190526040902060018101546001600160a01b03166129865750612bc6565b60018101546001600160a01b031633146129d457604051600160e51b62461bcd028152600401808060200182810382526026815260200180613df86026913960400191505060405180910390fd5b6000600682015460ff1660088111156129e957fe5b14612a2857604051600160e51b62461bcd028152600401808060200182810382526021815260200180613d736021913960400191505060405180910390fd5b83518490612a805760408051600160e51b62461bcd02815260206004820152601360248201527f41207469746c6520697320726571756972656400000000000000000000000000604482015290519081900360640190fd5b83518490612ad85760408051600160e51b62461bcd02815260206004820152601960248201527f41206465736372697074696f6e20697320726571756972656400000000000000604482015290519081900360640190fd5b8551612aed9060038501906020890190613cda565b508451612b039060048501906020880190613cda565b50838360050181905550336001600160a01b03167f78ec34897e7f5ea3506eaaa6dcf2edc5ea8eea1c579f1f3d158e55233c602e6960015488876040518084815260200180602001838152602001828103825284818151815260200191508051906020019080838360005b83811015612b86578181015183820152602001612b6e565b50505050905090810190601f168015612bb35780820380516001836020036101000a031916815260200191505b5094505050505060405180910390a25050505b50505050565b60025460ff161515600114612c1557604051600160e51b62461bcd028152600401808060200182810382526022815260200180613db56022913960400191505060405180910390fd5b600081815260208190526040902060018101546001600160a01b0316612c3b5750610d89565b60018101546001600160a01b03163314612c8957604051600160e51b62461bcd028152600401808060200182810382526026815260200180613df86026913960400191505060405180910390fd5b6004600682015460ff166008811115612c9e57fe5b14612cdd57604051600160e51b62461bcd028152600401808060200182810382526021815260200180613e1e6021913960400191505060405180910390fd5b60068101805460ff191660039081179091556002808301546001808501546005860154604080518981529081018290526060602082018181529789018054610100968116159690960260001901909516969096049581018690526001600160a01b039485169694909216947f45db355d424e661e8b7ea210fd36cd8224f4955611152ce93518a27f205467e494899493916080830190859080156112f25780601f106112c7576101008083540402835291602001916112f2565b60025460ff161515600114612de057604051600160e51b62461bcd028152600401808060200182810382526022815260200180613db56022913960400191505060405180910390fd5b600081815260208190526040902060018101546001600160a01b0316612e065750610d89565b60018101546001600160a01b03163314612e5457604051600160e51b62461bcd028152600401808060200182810382526026815260200180613df86026913960400191505060405180910390fd5b6002600682015460ff166008811115612e6957fe5b14612ebe5760408051600160e51b62461bcd02815260206004820152601660248201527f50726f706f73616c206e6f7420696e2072657669657700000000000000000000604482015290519081900360640190fd5b6002818101805460068401805460ff191660019081179091556001600160a01b0319821690925581840154600585015460408051888152908101829052606060208201818152600389018054610100988116159890980260001901909716979097049082018190526001600160a01b0394851696879695909416947f4c596893f217ff7756c8fc77bea24399406130928fc25e6ace71d6121fd2643f948a9491939192608083019085908015612fb55780601f10612f8a57610100808354040283529160200191612fb5565b820191906000526020600020905b815481529060010190602001808311612f9857829003601f168201915b505094505050505060405180910390a3505050565b606060015460001415612fed576040805160008082526020820190925290610a3a565b606060015460405190808252806020026020018201604052801561301b578160200160208202803883390190505b509050600060015b60015481116130e1576000818152602081905260409020600101546001600160a01b031633148061306d57506000818152602081905260409020600201546001600160a01b031633145b80156130985750600660008281526020819052604090206006015460ff16600881111561309657fe5b145b156130d95760008181526020819052604090205483518490849081106130ba57fe5b60209081029190910101526130d682600163ffffffff613bf916565b91505b600101613023565b5060608160405190808252806020026020018201604052801561310e578160200160208202803883390190505b50905060005b82811015610b805783818151811061312857fe5b602002602001015182828151811061313c57fe5b6020908102919091010152600101613114565b606060015460001415613172576040805160008082526020820190925290610a3a565b60606001546040519080825280602002602001820160405280156131a0578160200160208202803883390190505b509050600060015b600154811161328f576000818152602081905260409020600101546001600160a01b03163314806131f257506000818152602081905260409020600201546001600160a01b031633145b80156132465750600360008281526020819052604090206006015460ff16600881111561321b57fe5b14806132465750600460008281526020819052604090206006015460ff16600881111561324457fe5b145b1561328757600081815260208190526040902054835184908490811061326857fe5b602090810291909101015261328482600163ffffffff613bf916565b91505b6001016131a8565b506060816040519080825280602002602001820160405280156132bc578160200160208202803883390190505b50905060005b82811015610b80578381815181106132d657fe5b60200260200101518282815181106132ea57fe5b60209081029190910101526001016132c2565b606060015460001415613320576040805160008082526020820190925290610a3a565b606060015460405190808252806020026020018201604052801561334e578160200160208202803883390190505b509050600060015b600154811161341d576000818152602081905260409020600101546001600160a01b0316331480156133a85750600560008281526020819052604090206006015460ff1660088111156133a557fe5b14155b80156133d45750600660008281526020819052604090206006015460ff1660088111156133d157fe5b14155b156134155760008181526020819052604090205483518490849081106133f657fe5b602090810291909101015261341282600163ffffffff613bf916565b91505b600101613356565b5060608160405190808252806020026020018201604052801561344a578160200160208202803883390190505b50905060005b82811015610b805783818151811061346457fe5b602002602001015182828151811061347857fe5b6020908102919091010152600101613450565b6060600154600014156134ae576040805160008082526020820190925290610a3a565b60606001546040519080825280602002602001820160405280156134dc578160200160208202803883390190505b509050600060015b600154811161357e576000818152602081905260409020600101546001600160a01b0316331480156135355750600260008281526020819052604090206006015460ff16600881111561353357fe5b145b1561357657600081815260208190526040902054835184908490811061355757fe5b602090810291909101015261357382600163ffffffff613bf916565b91505b6001016134e4565b506060816040519080825280602002602001820160405280156135ab578160200160208202803883390190505b50905060005b82811015610b80578381815181106135c557fe5b60200260200101518282815181106135d957fe5b60209081029190910101526001016135b1565b60025460ff16151560011461363557604051600160e51b62461bcd028152600401808060200182810382526022815260200180613db56022913960400191505060405180910390fd5b600081815260208190526040902060018101546001600160a01b031661365b5750610d89565b60028101546001600160a01b031633146136a957604051600160e51b62461bcd028152600401808060200182810382526021815260200180613d946021913960400191505060405180910390fd5b6002600682015460ff1660088111156136be57fe5b146137135760408051600160e51b62461bcd02815260206004820152601660248201527f50726f706f73616c206e6f7420696e2072657669657700000000000000000000604482015290519081900360640190fd5b6002818101805460068401805460ff191660019081179091556001600160a01b0319821690925581840154600585015460408051888152908101829052606060208201818152600389018054610100988116159890980260001901909716979097049082018190526001600160a01b0394851696879695909416947fda2bae36f5d87ea886fd53cadaade9c848558e3ba0ce0b05a90d6203787fec45948a9491939192608083019085908015612fb55780601f10612f8a57610100808354040283529160200191612fb5565b6000806060806000806137f0613c5d565b60008881526020818152604091829020825160e081018452815481526001808301546001600160a01b03908116838601526002808501549091168387015260038401805487516101009482161594909402600019011691909104601f8101869004860283018601909652858252919492936060860193919291908301828280156138bb5780601f10613890576101008083540402835291602001916138bb565b820191906000526020600020905b81548152906001019060200180831161389e57829003601f168201915b505050918352505060048201805460408051602060026001851615610100026000190190941693909304601f810184900484028201840190925281815293820193929183018282801561394f5780601f106139245761010080835404028352916020019161394f565b820191906000526020600020905b81548152906001019060200180831161393257829003601f168201915b505050918352505060058201546020820152600682015460409091019060ff16600881111561397a57fe5b600881111561398557fe5b90525060208101519091506001600160a01b03166139ce5750506040805160208082018352600080835283519182019093528281529196508695509350915083905060086139fd565b602081015160408201516060830151608084015160a085015160c090950151939a509198509650945090925090505b91939550919395565b60025460ff161515600114613a4f57604051600160e51b62461bcd028152600401808060200182810382526022815260200180613db56022913960400191505060405180910390fd5b600081815260208190526040902060018101546001600160a01b0316613a755750610d89565b60028101546001600160a01b03163314613ac357604051600160e51b62461bcd028152600401808060200182810382526021815260200180613d946021913960400191505060405180910390fd5b6003600682015460ff166008811115613ad857fe5b14613b2d5760408051600160e51b62461bcd02815260206004820152601760248201527f50726f6a656374206e6f7420696e2070726f6772657373000000000000000000604482015290519081900360640190fd5b6002818101805460068401805460ff191660019081179091556001600160a01b0319821690925581840154600585015460408051888152908101829052606060208201818152600389018054610100988116159890980260001901909716979097049082018190526001600160a01b0394851696879695909416947fd1ed06115c7e42f61501cf18bfd02f10359381afe0d93bc31f146a45a4fb78ab948a9491939192608083019085908015612fb55780601f10612f8a57610100808354040283529160200191612fb5565b600082820183811015613c565760408051600160e51b62461bcd02815260206004820152601b60248201527f536166654d6174683a206164646974696f6e206f766572666c6f770000000000604482015290519081900360640190fd5b9392505050565b6040805160e0810182526000808252602082018190529181018290526060808201819052608082015260a081018290529060c082015290565b50805460018160011615610100020316600290046000825580601f10613cbc5750610d89565b601f016020900490600052602060002090810190610d899190613d58565b828054600181600116156101000203166002900490600052602060002090601f016020900481019282601f10613d1b57805160ff1916838001178555613d48565b82800160010185558215613d48579182015b82811115613d48578251825591602001919060010190613d2d565b50613d54929150613d58565b5090565b610b8691905b80821115613d545760008155600101613d5e56fe43616e6e6f742062652075706461746564207768696c65207075626c6973686564596f7520617265206e6f742074686520736572766963652066756c66696c6c657254686520636f6e7472616374206973206e6f74206d6f726520617661696c61626c6543616e6e6f742062652072656d6f766564207768696c65207075626c6973686564596f7520617265206e6f742074686520697373756572206f6620746869732070726f6a65637450726f6a656374206e6f7420696e2076616c69646174696f6e2070726f63657373546869732063616c6c206973206f6e6c7920616c6c6f7765722062792074686520636f6e74726163742773206f776e6572596f7572206465706f73697420646f65736e2774206d617463682074686520636f6e74726163742773207072696365a165627a7a72305820a1c36d52f1c2b2840be15a340f74a7714143c0e53a40db4b6e7c1c0ee13686e50029",
  "source": "pragma solidity >=0.4.21 <0.6.0;\n\nimport 'openzeppelin-solidity/contracts/math/SafeMath.sol';\n\n/// @title Decentralised business platform\n/// @author Said Eloudrhiri (ChainSkills) - Devoxx Morocco 2019\n/// @notice Learn how to create a smart contract to simulate a decentralised business platform to issue and fulfill projects\n/// @dev This smart contract is for illustration purpose only and should not be used in the mainNet\ncontract ChainBizz {\n\n  using SafeMath for uint256;\n\n  /*\n   * Enum\n   */\n   \n  // Defines the status of the project\n  enum ProjectStatus {\n    Draft,\n    Available, \n    InReview,\n    OnGoing, \n    Validate,\n    Completed,\n    Canceled,\n    Refunded,\n    Unknown\n  }\n\n  /*\n   * Structs\n   */\n\n  // Description of a project\n  struct ProjectItem {\n    uint256 id;               // unique ID\n    address payable issuer;\n    address payable fulfiller;\n    string title;\n    string description;\n    uint256 price;            // price in Wei\n    ProjectStatus status;\n  }\n\n  /*\n   * Storage\n   */\n   \n  // List of projects\n  mapping(uint256 => ProjectItem) public projects;\n\n  // Number of registered projects\n  uint256 projectsCounter;\n\n  // Defines if the contract is still enable or not\n  bool enabledContract;\n\n  // Keep contract's issuer address\n  address owner;\n\n  /*\n   * Modifiers\n   */\n\n  modifier onlyEnable() {\n    require(enabledContract == true, \"The contract is not more available\");\n    _;\n  }\n\n  modifier onlyOwner() {\n    require(msg.sender == owner, \"This call is only allower by the contract's owner\");\n    _;\n  }\n\n  \n  /*\n   * Events\n   */\n  event NewProject(uint256 id, address payable indexed issuer, string title, uint256 price);\n  event UpdateProject(uint256 id, address payable indexed issuer, string title, uint256 price);\n  event RemoveProject(uint256 id, address payable indexed issuer, string title);\n  event PublishedProject(uint256 id, address payable indexed issuer, string title, uint256 price);\n  event UnpublishedProject(uint256 id, address payable indexed issuer, string title, uint256 price);\n  event OfferSubmitted(uint256 id, address payable indexed issuer,address payable indexed fulfiller, string title, uint256 price);\n  event OfferCanceled(uint256 id, address payable indexed issuer, address payable indexed fulfiller, string title, uint256 price);\n  event AcceptProposal(uint256 id, address payable indexed issuer, address payable indexed fulfiller, string title, uint256 price);\n  event RejectProposal(uint256 id, address payable indexed issuer, address payable indexed fulfiller, string title, uint256 price);\n  event ProjectDelivered(uint256 id, address payable indexed issuer, address payable indexed fulfiller, string title, uint256 price);\n  event ServicesCanceled(uint256 id, address payable indexed issuer, address payable indexed fulfiller, string title, uint256 price);\n  event DeliveryAccepted(uint256 id, address payable indexed issuer, address payable indexed fulfiller, string title, uint256 price);\n  event DeliveryRejected(uint256 id, address payable indexed issuer, address payable indexed fulfiller, string title, uint256 price);\n  event ContractCanceled(uint256 id, address payable indexed issuer, address payable indexed fulfiller, string title, uint256 price);\n\n /*\n  * Public functions\n  */\n\n  constructor() public {\n    enabledContract = true;\n    owner = msg.sender;\n  }\n\n  /// @dev Enable the usage of the contract\n  function enableContract() public onlyOwner {\n    enabledContract = true;\n  }\n\n  /// @dev Disable the usage of the contract, change the status of all running projects and payback all issuers\n  function disableContract() public onlyOwner onlyEnable {\n    // First, we disable the contract\n    enabledContract = false;\n\n    // Then, we refund issuers for their running contracts\n\n    // At least one project?\n    if (projectsCounter == 0) {\n      return;\n    }\n\n    // prepare output array\n    uint256[] memory projectIDs = new uint[](projectsCounter);\n\n    // iterate over projects\n    uint256 numberOfProjects = 0;\n    for (uint i = 1; i <= projectsCounter; i++) {\n      // retrieve the project\n      ProjectItem storage project = projects[i];\n\n      // check if this project is published\n      if ((project.status == ProjectStatus.OnGoing) || (project.status == ProjectStatus.Validate)) {\n        // Refund the issuer\n        if (project.price > 0) {\n          // pay back the issuer\n          project.issuer.transfer(project.price);\n        }\n\n        // project refunded\n        project.status = ProjectStatus.Refunded;\n      }\n    }\n  }\n\n\n  //\n  // Setters\n  //\n\n  // Add a new project\n  function addProject(string memory _title, string memory _description, uint256 _price) public onlyEnable {\n    \n    // a title is required\n    bytes memory title = bytes(_title);\n    require(title.length > 0, \"A title is required\");\n\n    // a description is required\n    bytes memory description = bytes(_description);\n    require(description.length > 0, \"A description is required\");\n\n    // new project\n    projectsCounter = projectsCounter.add(1);\n\n    // store the new project\n    projects[projectsCounter] = ProjectItem(projectsCounter, msg.sender, address(0x0), _title,  _description, _price, ProjectStatus.Draft);\n\n    emit NewProject(projectsCounter, msg.sender, _title, _price);\n  }\n\n  // Update an unpublished project\n  function updateProject(uint256 _id, string memory _title, string memory _description, uint256 _price) public onlyEnable {\n    \n    // retrieve the project\n    ProjectItem storage project = projects[_id];\n\n    // ensure that this project exists\n    if (project.issuer == address(0x0)) {\n      return;\n    }\n \n    // do we own this project?\n    require(project.issuer == msg.sender, \"You are not the issuer of this project\");\n\n    // ready to be published?\n    require(project.status == ProjectStatus.Draft, \"Cannot be updated while published\");\n\n    // a title is required\n    bytes memory title = bytes(_title);\n    require(title.length > 0, \"A title is required\");\n\n    // a description is required\n    bytes memory description = bytes(_description);\n    require(description.length > 0, \"A description is required\");\n\n    // update the project\n    project.title = _title;\n    project.description = _description;\n    project.price = _price;\n\n    emit UpdateProject(projectsCounter, msg.sender, _title, _price);\n  }\n\n  // Remove an unpublished project\n  function removeProject(uint256 _id) public onlyEnable {\n    \n    // retrieve the project\n    ProjectItem memory project = projects[_id];\n\n    // ensure that this project exists\n    if (project.issuer == address(0x0)) {\n      return;\n    }\n \n    // do we own this project?\n    require(project.issuer == msg.sender, \"You are not the issuer of this project\");\n\n    // ready to be removed?\n    require(project.status == ProjectStatus.Draft, \"Cannot be removed while published\");\n\n    // keep title for future use\n    string memory title = project.title;\n\n    // remove the project\n    delete projects[_id];\n\n    emit RemoveProject(_id, msg.sender, title);\n  }\n\n  // Publish the project to seek for fulfillers\n  function publishProject(uint256 _id) public onlyEnable {\n    \n    // retrieve the project\n    ProjectItem storage project = projects[_id];\n\n    // ensure that this project exists\n    if (project.issuer == address(0x0)) {\n      return;\n    }\n \n    // do we own this project?\n    require(project.issuer == msg.sender, \"You are not the issuer of this project\");\n\n    // ready to be published?\n    require(project.status == ProjectStatus.Draft, \"Cannot be published\");\n\n    // publish the project to be available for services\n    project.status = ProjectStatus.Available;\n\n    emit PublishedProject(_id, msg.sender, project.title, project.price);\n  }\n\n  // Unpublish the project\n  // A project can be unpublished ONLY if it's already published and not already part of a contract \n  function unpublishProject(uint256 _id) public onlyEnable {\n    \n    // retrieve the project\n    ProjectItem storage project = projects[_id];\n\n    // ensure that this project exists\n    if (project.issuer == address(0x0)) {\n      return;\n    }\n \n    // do we own this project?\n    require(project.issuer == msg.sender, \"You are not the issuer of this project\");\n\n    // ready to be unpublished?\n    require(project.status == ProjectStatus.Available, \"Cannot be unpublished\");\n\n    // unpublish the project\n    project.status = ProjectStatus.Draft;\n\n    emit UnpublishedProject(_id, msg.sender, project.title, project.price);\n  }\n\n  // Offer services for the project\n  // A fulfiller offers his/her services to perform the project \n  function submitOffer(uint256 _id) public onlyEnable {\n    \n    // retrieve the project\n    ProjectItem storage project = projects[_id];\n\n    // ensure that this project exists\n    if (project.issuer == address(0x0)) {\n      return;\n    }\n \n    // is the project available?\n    require(project.status == ProjectStatus.Available, \"Project no more available\");\n\n    // store the address of the fulfiller\n    project.fulfiller = msg.sender;\n\n    // project is under review\n    project.status = ProjectStatus.InReview;\n\n    emit OfferSubmitted(_id, project.issuer, msg.sender, project.title, project.price);\n  }\n\n  // Cancel offer made by the fulfiller\n  // A fulfiller cancels his/her offer to perform the project \n  function cancelOffer(uint256 _id) public onlyEnable {\n    \n    // retrieve the project\n    ProjectItem storage project = projects[_id];\n\n    // ensure that this project exists\n    if (project.issuer == address(0x0)) {\n      return;\n    }\n \n     // are we the service fulfiller?\n    require(project.fulfiller == msg.sender, \"You are not the service fulfiller\");\n\n    // is the project in review?\n    require(project.status == ProjectStatus.InReview , \"Proposal not in review\");\n\n    // project is now available\n    address payable fulfiller = project.fulfiller;\n    project.status = ProjectStatus.Available;\n    project.fulfiller = address(0x0);\n\n    emit OfferCanceled(_id, project.issuer, fulfiller, project.title, project.price);\n  }\n\n  // Accept services from the fulfiller\n  // The issuer accepts the services offered by the fulfiller \n  function acceptProposal(uint256 _id) payable public onlyEnable {\n    \n    // retrieve the project\n    ProjectItem storage project = projects[_id];\n\n    // ensure that this project exists\n    if (project.issuer == address(0x0)) {\n      return;\n    }\n \n     // do we own this project?\n    require(project.issuer == msg.sender, \"You are not the issuer of this project\");\n\n    // is the project in review?\n    require(project.status == ProjectStatus.InReview, \"Proposal not in review\");\n\n    // is the issuer has deposit the requeste amount?\n    require(msg.value == project.price, \"Your deposit doesn't match the contract's price\");\n\n    // project is now ongoing\n    project.status = ProjectStatus.OnGoing;\n\n    emit AcceptProposal(_id, project.issuer, project.fulfiller, project.title, project.price);\n  }\n\n  // Reject proposal from the fulfiller\n  // The issuer rejects the services offered by the fulfiller \n  function rejectProposal(uint256 _id) public onlyEnable {\n    \n    // retrieve the project\n    ProjectItem storage project = projects[_id];\n\n    // ensure that this project exists\n    if (project.issuer == address(0x0)) {\n      return;\n    }\n \n     // do we own this project?\n    require(project.issuer == msg.sender, \"You are not the issuer of this project\");\n\n    // is the project in review?\n    require(project.status == ProjectStatus.InReview , \"Proposal not in review\");\n\n    // project is now available\n    address payable fulfiller = project.fulfiller;\n    project.status = ProjectStatus.Available;\n    project.fulfiller = address(0x0);\n    \n    emit RejectProposal(_id, project.issuer, fulfiller, project.title, project.price);\n  }\n\n  // Deliver the project to the customer\n  // The fulfiller delivers the project to the issuer \n  function deliverProject(uint256 _id) public onlyEnable {\n    \n    // retrieve the project\n    ProjectItem storage project = projects[_id];\n\n    // ensure that this project exists\n    if (project.issuer == address(0x0)) {\n      return;\n    }\n \n    // are we the service fulfiller?\n    require(project.fulfiller == msg.sender, \"You are not the service fulfiller\");\n\n    // is the project ongoing?\n    require(project.status == ProjectStatus.OnGoing, \"Project not in progress\");\n\n    // project is now validation process\n    project.status = ProjectStatus.Validate;\n\n    emit ProjectDelivered(_id, project.issuer, project.fulfiller, project.title, project.price);\n  }\n\n   // Cancel services from the fulfiller\n  // The fulfiller cancels the services performed for the project \n  function cancelServices(uint256 _id) public onlyEnable {\n    \n    // retrieve the project\n    ProjectItem storage project = projects[_id];\n\n    // ensure that this project exists\n    if (project.issuer == address(0x0)) {\n      return;\n    }\n \n    // are we the service fulfiller?\n    require(project.fulfiller == msg.sender, \"You are not the service fulfiller\");\n\n    // is the project ongoing?\n    require(project.status == ProjectStatus.OnGoing, \"Project not in progress\");\n\n    // project becomes available\n    address payable fulfiller = project.fulfiller;\n    project.status = ProjectStatus.Available;\n    project.fulfiller = address(0x0);\n    \n    emit ServicesCanceled(_id, project.issuer, fulfiller, project.title, project.price);\n  }\n\n  // Accept the project delivery from the fulfiller\n  // The issuer accepts the project delivered by the fulfiller \n  function acceptDelivery(uint256 _id) public onlyEnable {\n    \n    // retrieve the project\n    ProjectItem storage project = projects[_id];\n\n    // ensure that this project exists\n    if (project.issuer == address(0x0)) {\n      return;\n    }\n \n     // do we own this project?\n    require(project.issuer == msg.sender, \"You are not the issuer of this project\");\n\n    // is the project in review?\n    require(project.status == ProjectStatus.Validate, \"Project not in validation process\");\n\n    // pay the service provide\n    project.fulfiller.transfer(project.price);\n\n    // project is now completed\n    project.status = ProjectStatus.Completed;\n\n    emit DeliveryAccepted(_id, project.issuer, project.fulfiller, project.title, project.price);\n  }\n\n  // Reject the project delivery from the fulfiller\n  // The issuer rejects the project delivered by the fulfiller \n  function rejectDelivery(uint256 _id) public onlyEnable {\n    \n    // retrieve the project\n    ProjectItem storage project = projects[_id];\n\n    // ensure that this project exists\n    if (project.issuer == address(0x0)) {\n      return;\n    }\n \n     // do we own this project?\n    require(project.issuer == msg.sender, \"You are not the issuer of this project\");\n\n    // is the project in review?\n    require(project.status == ProjectStatus.Validate, \"Project not in validation process\");\n\n    // project remains ongoing\n    project.status = ProjectStatus.OnGoing;\n    \n    emit DeliveryRejected(_id, project.issuer, project.fulfiller, project.title, project.price);\n  }\n\n  // Contract canceled by the issuer\n  // The issuer cancels the contract \n  function cancelContract(uint256 _id) public onlyEnable {\n    \n    // retrieve the project\n    ProjectItem storage project = projects[_id];\n\n    // ensure that this project exists\n    if (project.issuer == address(0x0)) {\n      return;\n    }\n \n    // are we the service fulfiller?\n    require(project.issuer == msg.sender, \"You are not the project's issuer\");\n\n    // is the project ongoing?\n    require((project.status == ProjectStatus.OnGoing) || (project.status == ProjectStatus.Validate), \"Project not in progress\");\n\n    // pay back the contract's issuer\n    project.issuer.transfer(project.price);\n\n    // contract becomes canceled\n    project.status = ProjectStatus.Canceled;\n    \n    emit ContractCanceled(_id, project.issuer, project.fulfiller, project.title, project.price);\n  }\n\n  //\n  // Getters\n  //\n\n  // Retrieve if the contract is still enable or not\n  function isEnabled() public view returns (bool) {\n    return enabledContract;\n  }\n\n  // Retrieve a project from its id\n  function getProject(uint256 _id) public view returns (\n    address issuer,\n    address fulfiller,\n    string memory title,\n    string memory description,\n    uint256 price,\n    ProjectStatus status) {\n\n    ProjectItem memory project = projects[_id];\n\n    // ensure that we have a project to fetch\n    if (project.issuer == address(0x0)) {\n      return (address(0x0), address(0x0), \"\", \"\", 0, ProjectStatus.Unknown);\n    }\n\n    return (\n      project.issuer,\n      project.fulfiller,\n      project.title,\n      project.description,\n      project.price,\n      project.status);\n  }\n\n  // return all projects\n  function getAllProjects() view public returns (uint256[] memory) {\n    if (projectsCounter == 0) {\n      return new uint[](0);\n    }\n\n    // prepare output array\n    uint256[] memory projectIDs = new uint[](projectsCounter);\n\n    // iterate over projects\n    uint256 numberOfProjects = 0;\n    for (uint256 i = 1; i <= projectsCounter; i++) {\n      // skip deleted projects\n      if (projects[i].issuer != address(0x0)) {\n        projectIDs[numberOfProjects] = projects[i].id;\n        numberOfProjects = numberOfProjects.add(1);\n      }\n    }\n\n    // copy the project ID array into a smaller array\n    uint256[] memory allProjects = new uint[](numberOfProjects);\n    for (uint j = 0; j < numberOfProjects; j++) {\n      allProjects[j] = projectIDs[j];\n    }\n\n    return allProjects;\n  }\n\n\n  // return all published projects\n  function getPublishedProjects() view public returns (uint256[] memory) {\n    if (projectsCounter == 0) {\n      return new uint[](0);\n    }\n\n    // prepare output array\n    uint256[] memory projectIDs = new uint[](projectsCounter);\n\n    // iterate over projects\n    uint256 numberOfProjects = 0;\n    for (uint256 i = 1; i <= projectsCounter; i++) {\n      // get only published and active projects \n      if ((projects[i].issuer != address(0x0)) && (projects[i].status == ProjectStatus.Available)) {\n        projectIDs[numberOfProjects] = projects[i].id;\n        numberOfProjects = numberOfProjects.add(1);\n      }\n    }\n\n    // copy the project ID array into a smaller array\n    uint256[] memory allProjects = new uint[](numberOfProjects);\n    for (uint j = 0; j < numberOfProjects; j++) {\n      allProjects[j] = projectIDs[j];\n    }\n\n    return allProjects;\n  }\n\n\n  // return all projects owned by the sender\n  function getMyProjects() view public returns (uint256[] memory) {\n    if (projectsCounter == 0) {\n      return new uint256[](0);\n    }\n\n    // prepare output array\n    uint256[] memory projectIDs = new uint[](projectsCounter);\n\n    // iterate over projects\n    uint256 numberOfProjects = 0;\n    for (uint i = 1; i <= projectsCounter; i++) {\n      // keep the ID of the project owned by the caller\n      if ((projects[i].issuer == msg.sender) && (projects[i].status != ProjectStatus.Completed) && (projects[i].status != ProjectStatus.Canceled)) {\n        projectIDs[numberOfProjects] = projects[i].id;\n\n        numberOfProjects = numberOfProjects.add(1);\n      }\n    }\n\n    // copy the project ID array into a smaller array\n    uint256[] memory myProjects = new uint[](numberOfProjects);\n    for (uint j = 0; j < numberOfProjects; j++) {\n      myProjects[j] = projectIDs[j];\n    }\n\n    return myProjects;\n  }\n\n  // return all my offers waiting for review\n  function getMyOffers() view public returns (uint256[] memory) {\n    if (projectsCounter == 0) {\n      return new uint256[](0);\n    }\n\n    // prepare output array\n    uint256[] memory projectIDs = new uint[](projectsCounter);\n\n    // iterate over projects\n    uint256 numberOfProjects = 0;\n    for (uint i = 1; i <= projectsCounter; i++) {\n      // keep the ID of the project with the sender as fulfiller and the project still in review process\n      if ((projects[i].fulfiller == msg.sender) && (projects[i].status == ProjectStatus.InReview)) {\n        projectIDs[numberOfProjects] = projects[i].id;\n\n        numberOfProjects = numberOfProjects.add(1);\n      }\n    }\n\n    // copy the project ID array into a smaller array\n    uint256[] memory myOffers = new uint[](numberOfProjects);\n    for (uint j = 0; j < numberOfProjects; j++) {\n      myOffers[j] = projectIDs[j];\n    }\n\n    return myOffers;\n  }\n\n\n  // return all projects waiting for review\n  function getMyReviews() view public returns (uint256[] memory) {\n    if (projectsCounter == 0) {\n      return new uint256[](0);\n    }\n\n    // prepare output array\n    uint256[] memory projectIDs = new uint[](projectsCounter);\n\n    // iterate over projects\n    uint256 numberOfProjects = 0;\n    for (uint i = 1; i <= projectsCounter; i++) {\n      // keep the ID of the project owned by the caller and the project still in review process\n      if ((projects[i].issuer == msg.sender) && (projects[i].status == ProjectStatus.InReview)) {\n        projectIDs[numberOfProjects] = projects[i].id;\n\n        numberOfProjects = numberOfProjects.add(1);\n      }\n    }\n\n    // copy the project ID array into a smaller array\n    uint256[] memory myReviews = new uint[](numberOfProjects);\n    for (uint j = 0; j < numberOfProjects; j++) {\n      myReviews[j] = projectIDs[j];\n    }\n\n    return myReviews;\n  }\n\n  // return all ongoing contracts\n  function getMyContracts() view public returns (uint256[] memory) {\n    if (projectsCounter == 0) {\n      return new uint[](0);\n    }\n\n    // prepare output array\n    uint256[] memory projectIDs = new uint[](projectsCounter);\n\n    // iterate over projects\n    uint256 numberOfProjects = 0;\n    for (uint256 i = 1; i <= projectsCounter; i++) {\n      // get only ongoing and under validation contracts owned by the issuer or the service fulfiller \n      if (((projects[i].issuer == msg.sender) || (projects[i].fulfiller == msg.sender)) && \n      ((projects[i].status == ProjectStatus.OnGoing) || (projects[i].status == ProjectStatus.Validate))) {\n        projectIDs[numberOfProjects] = projects[i].id;\n        numberOfProjects = numberOfProjects.add(1);\n      }\n    }\n\n    // copy the project ID array into a smaller array\n    uint256[] memory myContracts = new uint[](numberOfProjects);\n    for (uint j = 0; j < numberOfProjects; j++) {\n      myContracts[j] = projectIDs[j];\n    }\n\n    return myContracts;\n  }\n\n  // return all deliveries to review\n  function getDeliveries() view public returns (uint256[] memory) {\n    if (projectsCounter == 0) {\n      return new uint[](0);\n    }\n\n    // prepare output array\n    uint256[] memory projectIDs = new uint[](projectsCounter);\n\n    // iterate over projects\n    uint256 numberOfProjects = 0;\n    for (uint256 i = 1; i <= projectsCounter; i++) {\n      // get only ongoing projects issued by the issuer or the fulfiller \n      if (((projects[i].issuer == msg.sender) || (projects[i].fulfiller == msg.sender)) && (projects[i].status == ProjectStatus.Validate)) {\n        projectIDs[numberOfProjects] = projects[i].id;\n        numberOfProjects = numberOfProjects.add(1);\n      }\n    }\n\n    // copy the project ID array into a smaller array\n    uint256[] memory myDeliveries = new uint[](numberOfProjects);\n    for (uint j = 0; j < numberOfProjects; j++) {\n      myDeliveries[j] = projectIDs[j];\n    }\n\n    return myDeliveries;\n  }\n\n  // return all completed contracts\n  function getCompleted() view public returns (uint256[] memory) {\n    if (projectsCounter == 0) {\n      return new uint[](0);\n    }\n\n    // prepare output array\n    uint256[] memory projectIDs = new uint[](projectsCounter);\n\n    // iterate over projects\n    uint256 numberOfProjects = 0;\n    for (uint256 i = 1; i <= projectsCounter; i++) {\n      // get only ongoing projects issued by the issuer or the fulfiller \n      if (((projects[i].issuer == msg.sender) || (projects[i].fulfiller == msg.sender)) && (projects[i].status == ProjectStatus.Completed)) {\n        projectIDs[numberOfProjects] = projects[i].id;\n        numberOfProjects = numberOfProjects.add(1);\n      }\n    }\n\n    // copy the project ID array into a smaller array\n    uint256[] memory myCompleted = new uint[](numberOfProjects);\n    for (uint j = 0; j < numberOfProjects; j++) {\n      myCompleted[j] = projectIDs[j];\n    }\n\n    return myCompleted;\n  }\n\n  // return all canceled contracts\n  function getCanceled() view public returns (uint256[] memory) {\n    if (projectsCounter == 0) {\n      return new uint[](0);\n    }\n\n    // prepare output array\n    uint256[] memory projectIDs = new uint[](projectsCounter);\n\n    // iterate over projects\n    uint256 numberOfProjects = 0;\n    for (uint256 i = 1; i <= projectsCounter; i++) {\n      // get only ongoing projects issued by the issuer or the fulfiller \n      if (((projects[i].issuer == msg.sender) || (projects[i].fulfiller == msg.sender)) && (projects[i].status == ProjectStatus.Canceled)) {\n        projectIDs[numberOfProjects] = projects[i].id;\n        numberOfProjects = numberOfProjects.add(1);\n      }\n    }\n\n    // copy the project ID array into a smaller array\n    uint256[] memory myCanceled = new uint[](numberOfProjects);\n    for (uint j = 0; j < numberOfProjects; j++) {\n      myCanceled[j] = projectIDs[j];\n    }\n\n    return myCanceled;\n  }\n}",
  "sourcePath": "/Users/said.eloudrhiri/Projects/Devoxx/chainbizz/contracts/ChainBizz.sol",
  "compiler": {
    "name": "solc",
    "version": "0.5.8+commit.23d335f2.Emscripten.clang"
  },
  "schemaVersion": "3.0.16",
  "updatedAt": "2019-11-01T20:46:32.103Z",
  "devdoc": {
    "author": "Said Eloudrhiri (ChainSkills) - Devoxx Morocco 2019",
    "details": "This smart contract is for illustration purpose only and should not be used in the mainNet",
    "methods": {
      "disableContract()": {
        "details": "Disable the usage of the contract, change the status of all running projects and payback all issuers"
      },
      "enableContract()": {
        "details": "Enable the usage of the contract"
      }
    },
    "title": "Decentralised business platform"
  },
  "userdoc": {
    "methods": {},
    "notice": "Learn how to create a smart contract to simulate a decentralised business platform to issue and fulfill projects"
  }
}