{
  "contractName": "ChainBizz",
  "abi": [
    {
      "constant": true,
      "inputs": [
        {
          "name": "",
          "type": "uint256"
        }
      ],
      "name": "projects",
      "outputs": [
        {
          "name": "id",
          "type": "uint256"
        },
        {
          "name": "owner",
          "type": "address"
        },
        {
          "name": "provider",
          "type": "address"
        },
        {
          "name": "title",
          "type": "string"
        },
        {
          "name": "description",
          "type": "string"
        },
        {
          "name": "price",
          "type": "uint256"
        },
        {
          "name": "status",
          "type": "uint8"
        }
      ],
      "payable": false,
      "stateMutability": "view",
      "type": "function"
    },
    {
      "anonymous": false,
      "inputs": [
        {
          "indexed": false,
          "name": "id",
          "type": "uint256"
        },
        {
          "indexed": false,
          "name": "owner",
          "type": "address"
        },
        {
          "indexed": false,
          "name": "title",
          "type": "string"
        },
        {
          "indexed": false,
          "name": "price",
          "type": "uint256"
        }
      ],
      "name": "NewProject",
      "type": "event"
    },
    {
      "anonymous": false,
      "inputs": [
        {
          "indexed": false,
          "name": "id",
          "type": "uint256"
        },
        {
          "indexed": false,
          "name": "owner",
          "type": "address"
        },
        {
          "indexed": false,
          "name": "title",
          "type": "string"
        },
        {
          "indexed": false,
          "name": "price",
          "type": "uint256"
        }
      ],
      "name": "UpdateProject",
      "type": "event"
    },
    {
      "anonymous": false,
      "inputs": [
        {
          "indexed": false,
          "name": "id",
          "type": "uint256"
        },
        {
          "indexed": false,
          "name": "owner",
          "type": "address"
        },
        {
          "indexed": false,
          "name": "title",
          "type": "string"
        }
      ],
      "name": "RemoveProject",
      "type": "event"
    },
    {
      "anonymous": false,
      "inputs": [
        {
          "indexed": false,
          "name": "id",
          "type": "uint256"
        },
        {
          "indexed": false,
          "name": "owner",
          "type": "address"
        },
        {
          "indexed": false,
          "name": "title",
          "type": "string"
        },
        {
          "indexed": false,
          "name": "price",
          "type": "uint256"
        }
      ],
      "name": "PublishedProject",
      "type": "event"
    },
    {
      "anonymous": false,
      "inputs": [
        {
          "indexed": false,
          "name": "id",
          "type": "uint256"
        },
        {
          "indexed": false,
          "name": "owner",
          "type": "address"
        },
        {
          "indexed": false,
          "name": "title",
          "type": "string"
        },
        {
          "indexed": false,
          "name": "price",
          "type": "uint256"
        }
      ],
      "name": "UnpublishedProject",
      "type": "event"
    },
    {
      "anonymous": false,
      "inputs": [
        {
          "indexed": false,
          "name": "id",
          "type": "uint256"
        },
        {
          "indexed": false,
          "name": "owner",
          "type": "address"
        },
        {
          "indexed": false,
          "name": "title",
          "type": "string"
        },
        {
          "indexed": false,
          "name": "price",
          "type": "uint256"
        }
      ],
      "name": "OfferSubmitted",
      "type": "event"
    },
    {
      "anonymous": false,
      "inputs": [
        {
          "indexed": false,
          "name": "id",
          "type": "uint256"
        },
        {
          "indexed": false,
          "name": "owner",
          "type": "address"
        },
        {
          "indexed": false,
          "name": "provider",
          "type": "address"
        },
        {
          "indexed": false,
          "name": "title",
          "type": "string"
        },
        {
          "indexed": false,
          "name": "price",
          "type": "uint256"
        }
      ],
      "name": "OfferCancelled",
      "type": "event"
    },
    {
      "anonymous": false,
      "inputs": [
        {
          "indexed": false,
          "name": "id",
          "type": "uint256"
        },
        {
          "indexed": false,
          "name": "owner",
          "type": "address"
        },
        {
          "indexed": false,
          "name": "provider",
          "type": "address"
        },
        {
          "indexed": false,
          "name": "title",
          "type": "string"
        },
        {
          "indexed": false,
          "name": "price",
          "type": "uint256"
        }
      ],
      "name": "AcceptProposal",
      "type": "event"
    },
    {
      "anonymous": false,
      "inputs": [
        {
          "indexed": false,
          "name": "id",
          "type": "uint256"
        },
        {
          "indexed": false,
          "name": "owner",
          "type": "address"
        },
        {
          "indexed": false,
          "name": "provider",
          "type": "address"
        },
        {
          "indexed": false,
          "name": "title",
          "type": "string"
        },
        {
          "indexed": false,
          "name": "price",
          "type": "uint256"
        }
      ],
      "name": "RejectProposal",
      "type": "event"
    },
    {
      "anonymous": false,
      "inputs": [
        {
          "indexed": false,
          "name": "id",
          "type": "uint256"
        },
        {
          "indexed": false,
          "name": "owner",
          "type": "address"
        },
        {
          "indexed": false,
          "name": "provider",
          "type": "address"
        },
        {
          "indexed": false,
          "name": "title",
          "type": "string"
        },
        {
          "indexed": false,
          "name": "price",
          "type": "uint256"
        }
      ],
      "name": "ProjectDelivered",
      "type": "event"
    },
    {
      "anonymous": false,
      "inputs": [
        {
          "indexed": false,
          "name": "id",
          "type": "uint256"
        },
        {
          "indexed": false,
          "name": "owner",
          "type": "address"
        },
        {
          "indexed": false,
          "name": "provider",
          "type": "address"
        },
        {
          "indexed": false,
          "name": "title",
          "type": "string"
        },
        {
          "indexed": false,
          "name": "price",
          "type": "uint256"
        }
      ],
      "name": "ServicesCancelled",
      "type": "event"
    },
    {
      "anonymous": false,
      "inputs": [
        {
          "indexed": false,
          "name": "id",
          "type": "uint256"
        },
        {
          "indexed": false,
          "name": "owner",
          "type": "address"
        },
        {
          "indexed": false,
          "name": "provider",
          "type": "address"
        },
        {
          "indexed": false,
          "name": "title",
          "type": "string"
        },
        {
          "indexed": false,
          "name": "price",
          "type": "uint256"
        }
      ],
      "name": "DeliveryAccepted",
      "type": "event"
    },
    {
      "anonymous": false,
      "inputs": [
        {
          "indexed": false,
          "name": "id",
          "type": "uint256"
        },
        {
          "indexed": false,
          "name": "owner",
          "type": "address"
        },
        {
          "indexed": false,
          "name": "provider",
          "type": "address"
        },
        {
          "indexed": false,
          "name": "title",
          "type": "string"
        },
        {
          "indexed": false,
          "name": "price",
          "type": "uint256"
        }
      ],
      "name": "DeliveryRejected",
      "type": "event"
    },
    {
      "anonymous": false,
      "inputs": [
        {
          "indexed": false,
          "name": "id",
          "type": "uint256"
        },
        {
          "indexed": false,
          "name": "owner",
          "type": "address"
        },
        {
          "indexed": false,
          "name": "provider",
          "type": "address"
        },
        {
          "indexed": false,
          "name": "title",
          "type": "string"
        },
        {
          "indexed": false,
          "name": "price",
          "type": "uint256"
        }
      ],
      "name": "ContractCancelled",
      "type": "event"
    },
    {
      "constant": false,
      "inputs": [
        {
          "name": "_title",
          "type": "string"
        },
        {
          "name": "_description",
          "type": "string"
        },
        {
          "name": "_price",
          "type": "uint256"
        }
      ],
      "name": "addProject",
      "outputs": [],
      "payable": false,
      "stateMutability": "nonpayable",
      "type": "function"
    },
    {
      "constant": false,
      "inputs": [
        {
          "name": "_id",
          "type": "uint256"
        },
        {
          "name": "_title",
          "type": "string"
        },
        {
          "name": "_description",
          "type": "string"
        },
        {
          "name": "_price",
          "type": "uint256"
        }
      ],
      "name": "updateProject",
      "outputs": [],
      "payable": false,
      "stateMutability": "nonpayable",
      "type": "function"
    },
    {
      "constant": false,
      "inputs": [
        {
          "name": "_id",
          "type": "uint256"
        }
      ],
      "name": "removeProject",
      "outputs": [],
      "payable": false,
      "stateMutability": "nonpayable",
      "type": "function"
    },
    {
      "constant": false,
      "inputs": [
        {
          "name": "_id",
          "type": "uint256"
        }
      ],
      "name": "publishProject",
      "outputs": [],
      "payable": false,
      "stateMutability": "nonpayable",
      "type": "function"
    },
    {
      "constant": false,
      "inputs": [
        {
          "name": "_id",
          "type": "uint256"
        }
      ],
      "name": "unpublishProject",
      "outputs": [],
      "payable": false,
      "stateMutability": "nonpayable",
      "type": "function"
    },
    {
      "constant": false,
      "inputs": [
        {
          "name": "_id",
          "type": "uint256"
        }
      ],
      "name": "submitOffer",
      "outputs": [],
      "payable": false,
      "stateMutability": "nonpayable",
      "type": "function"
    },
    {
      "constant": false,
      "inputs": [
        {
          "name": "_id",
          "type": "uint256"
        }
      ],
      "name": "cancelOffer",
      "outputs": [],
      "payable": false,
      "stateMutability": "nonpayable",
      "type": "function"
    },
    {
      "constant": false,
      "inputs": [
        {
          "name": "_id",
          "type": "uint256"
        }
      ],
      "name": "acceptProposal",
      "outputs": [],
      "payable": true,
      "stateMutability": "payable",
      "type": "function"
    },
    {
      "constant": false,
      "inputs": [
        {
          "name": "_id",
          "type": "uint256"
        }
      ],
      "name": "rejectProposal",
      "outputs": [],
      "payable": false,
      "stateMutability": "nonpayable",
      "type": "function"
    },
    {
      "constant": false,
      "inputs": [
        {
          "name": "_id",
          "type": "uint256"
        }
      ],
      "name": "deliverProject",
      "outputs": [],
      "payable": false,
      "stateMutability": "nonpayable",
      "type": "function"
    },
    {
      "constant": false,
      "inputs": [
        {
          "name": "_id",
          "type": "uint256"
        }
      ],
      "name": "cancelServices",
      "outputs": [],
      "payable": false,
      "stateMutability": "nonpayable",
      "type": "function"
    },
    {
      "constant": false,
      "inputs": [
        {
          "name": "_id",
          "type": "uint256"
        }
      ],
      "name": "acceptDelivery",
      "outputs": [],
      "payable": false,
      "stateMutability": "nonpayable",
      "type": "function"
    },
    {
      "constant": false,
      "inputs": [
        {
          "name": "_id",
          "type": "uint256"
        }
      ],
      "name": "rejectDelivery",
      "outputs": [],
      "payable": false,
      "stateMutability": "nonpayable",
      "type": "function"
    },
    {
      "constant": false,
      "inputs": [
        {
          "name": "_id",
          "type": "uint256"
        }
      ],
      "name": "cancelContract",
      "outputs": [],
      "payable": false,
      "stateMutability": "nonpayable",
      "type": "function"
    },
    {
      "constant": true,
      "inputs": [
        {
          "name": "_id",
          "type": "uint256"
        }
      ],
      "name": "getProject",
      "outputs": [
        {
          "name": "owner",
          "type": "address"
        },
        {
          "name": "provider",
          "type": "address"
        },
        {
          "name": "title",
          "type": "string"
        },
        {
          "name": "description",
          "type": "string"
        },
        {
          "name": "price",
          "type": "uint256"
        },
        {
          "name": "status",
          "type": "uint8"
        }
      ],
      "payable": false,
      "stateMutability": "view",
      "type": "function"
    },
    {
      "constant": true,
      "inputs": [],
      "name": "getAllProjects",
      "outputs": [
        {
          "name": "",
          "type": "uint256[]"
        }
      ],
      "payable": false,
      "stateMutability": "view",
      "type": "function"
    },
    {
      "constant": true,
      "inputs": [],
      "name": "getPublishedProjects",
      "outputs": [
        {
          "name": "",
          "type": "uint256[]"
        }
      ],
      "payable": false,
      "stateMutability": "view",
      "type": "function"
    },
    {
      "constant": true,
      "inputs": [],
      "name": "getMyProjects",
      "outputs": [
        {
          "name": "",
          "type": "uint256[]"
        }
      ],
      "payable": false,
      "stateMutability": "view",
      "type": "function"
    },
    {
      "constant": true,
      "inputs": [],
      "name": "getMyOffers",
      "outputs": [
        {
          "name": "",
          "type": "uint256[]"
        }
      ],
      "payable": false,
      "stateMutability": "view",
      "type": "function"
    },
    {
      "constant": true,
      "inputs": [],
      "name": "getMyReviews",
      "outputs": [
        {
          "name": "",
          "type": "uint256[]"
        }
      ],
      "payable": false,
      "stateMutability": "view",
      "type": "function"
    },
    {
      "constant": true,
      "inputs": [],
      "name": "getMyContracts",
      "outputs": [
        {
          "name": "",
          "type": "uint256[]"
        }
      ],
      "payable": false,
      "stateMutability": "view",
      "type": "function"
    },
    {
      "constant": true,
      "inputs": [],
      "name": "getDeliveries",
      "outputs": [
        {
          "name": "",
          "type": "uint256[]"
        }
      ],
      "payable": false,
      "stateMutability": "view",
      "type": "function"
    },
    {
      "constant": true,
      "inputs": [],
      "name": "getCompleted",
      "outputs": [
        {
          "name": "",
          "type": "uint256[]"
        }
      ],
      "payable": false,
      "stateMutability": "view",
      "type": "function"
    },
    {
      "constant": true,
      "inputs": [],
      "name": "getCanceled",
      "outputs": [
        {
          "name": "",
          "type": "uint256[]"
        }
      ],
      "payable": false,
      "stateMutability": "view",
      "type": "function"
    }
  ],
  "bytecode": "0x608060405234801561001057600080fd5b50613849806100206000396000f3fe6080604052600436106101665760003560e01c80636f65c717116100d1578063bd140c4b1161008a578063ef1b655311610064578063ef1b6553146107d0578063ef706adf146107e5578063f0f3f2c81461080f578063f7f2ccbf1461094d57610166565b8063bd140c4b14610791578063c81bde15146107a6578063e4f655b0146107bb57610166565b80636f65c717146105955780637b422c4c146105bf57806380d03829146105e9578063a7fa01a7146105fe578063b85a72d21461073d578063bc28d8781461076757610166565b80635873f998116101235780635873f998146103ad5780635b54f982146103d75780635fd4f758146103ec57806360c5cc3a14610524578063629a064e1461054157806364a4277a1461056b57610166565b8063037852c71461016b5780630850cd1e146101d0578063107046bd146101fc578063138e0b2614610359578063280474501461036e5780634beb7e9414610398575b600080fd5b34801561017757600080fd5b50610180610977565b60408051602080825283518183015283519192839290830191858101910280838360005b838110156101bc5781810151838201526020016101a4565b505050509050019250505060405180910390f35b3480156101dc57600080fd5b506101fa600480360360208110156101f357600080fd5b5035610ae5565b005b34801561020857600080fd5b506102266004803603602081101561021f57600080fd5b5035610ca6565b60405180888152602001876001600160a01b03166001600160a01b03168152602001866001600160a01b03166001600160a01b03168152602001806020018060200185815260200184600781111561027a57fe5b60ff168152602001838103835287818151815260200191508051906020019080838360005b838110156102b757818101518382015260200161029f565b50505050905090810190601f1680156102e45780820380516001836020036101000a031916815260200191505b50838103825286518152865160209182019188019080838360005b838110156103175781810151838201526020016102ff565b50505050905090810190601f1680156103445780820380516001836020036101000a031916815260200191505b50995050505050505050505060405180910390f35b34801561036557600080fd5b50610180610e05565b34801561037a57600080fd5b506101fa6004803603602081101561039157600080fd5b5035610f8a565b3480156103a457600080fd5b506101806111db565b3480156103b957600080fd5b506101fa600480360360208110156103d057600080fd5b503561133c565b3480156103e357600080fd5b506101806116c6565b3480156103f857600080fd5b506101fa6004803603606081101561040f57600080fd5b810190602081018135600160201b81111561042957600080fd5b82018360208201111561043b57600080fd5b803590602001918460018302840111600160201b8311171561045c57600080fd5b91908080601f0160208091040260200160405190810160405280939291908181526020018383808284376000920191909152509295949360208101935035915050600160201b8111156104ae57600080fd5b8201836020820111156104c057600080fd5b803590602001918460018302840111600160201b831117156104e157600080fd5b91908080601f016020809104026020016040519081016040528093929190818152602001838380828437600092019190915250929550509135925061184b915050565b6101fa6004803603602081101561053a57600080fd5b5035611abd565b34801561054d57600080fd5b506101fa6004803603602081101561056457600080fd5b5035611c9b565b34801561057757600080fd5b506101fa6004803603602081101561058e57600080fd5b5035611e4c565b3480156105a157600080fd5b506101fa600480360360208110156105b857600080fd5b5035611fd1565b3480156105cb57600080fd5b506101fa600480360360208110156105e257600080fd5b503561211e565b3480156105f557600080fd5b506101806122e7565b34801561060a57600080fd5b506101fa6004803603608081101561062157600080fd5b81359190810190604081016020820135600160201b81111561064257600080fd5b82018360208201111561065457600080fd5b803590602001918460018302840111600160201b8311171561067557600080fd5b91908080601f0160208091040260200160405190810160405280939291908181526020018383808284376000920191909152509295949360208101935035915050600160201b8111156106c757600080fd5b8201836020820111156106d957600080fd5b803590602001918460018302840111600160201b831117156106fa57600080fd5b91908080601f016020809104026020016040519081016040528093929190818152602001838380828437600092019190915250929550509135925061241b915050565b34801561074957600080fd5b506101fa6004803603602081101561076057600080fd5b5035612697565b34801561077357600080fd5b506101fa6004803603602081101561078a57600080fd5b503561281a565b34801561079d57600080fd5b50610180612a10565b3480156107b257600080fd5b50610180612b95565b3480156107c757600080fd5b50610180612d43565b3480156107dc57600080fd5b50610180612ed1565b3480156107f157600080fd5b506101fa6004803603602081101561080857600080fd5b5035613032565b34801561081b57600080fd5b506108396004803603602081101561083257600080fd5b50356131fc565b604080516001600160a01b03808916825287166020820152608081018490529081016060820160a0830184600781111561086f57fe5b60ff168152602001838103835287818151815260200191508051906020019080838360005b838110156108ac578181015183820152602001610894565b50505050905090810190601f1680156108d95780820380516001836020036101000a031916815260200191505b50838103825286518152865160209182019188019080838360005b8381101561090c5781810151838201526020016108f4565b50505050905090810190601f1680156109395780820380516001836020036101000a031916815260200191505b509850505050505050505060405180910390f35b34801561095957600080fd5b506101fa6004803603602081101561097057600080fd5b5035613423565b60606001546000141561099e5760408051600080825260208201909252905b509050610ae2565b60606001546040519080825280602002602001820160405280156109cc578160200160208202803883390190505b509050600060015b6001548111610a6e576000818152602081905260409020600201546001600160a01b031633148015610a255750600260008281526020819052604090206006015460ff166007811115610a2357fe5b145b15610a66576000818152602081905260409020548351849084908110610a4757fe5b6020908102919091010152610a6382600163ffffffff6135ed16565b91505b6001016109d4565b50606081604051908082528060200260200182016040528015610a9b578160200160208202803883390190505b50905060005b82811015610adc57838181518110610ab557fe5b6020026020010151828281518110610ac957fe5b6020908102919091010152600101610aa1565b50925050505b90565b600081815260208190526040902060018101546001600160a01b0316610b0b5750610ca3565b60018101546001600160a01b03163314610b5957604051600160e51b62461bcd0281526004018080602001828103825260258152602001806137ca6025913960400191505060405180910390fd5b6001600682015460ff166007811115610b6e57fe5b14610bc35760408051600160e51b62461bcd02815260206004820152601560248201527f43616e6e6f7420626520756e7075626c69736865640000000000000000000000604482015290519081900360640190fd5b60068101805460ff191690556005810154604080518481523360208201819052606082018490526080928201838152600386018054600260018216156101000260001901909116049484018590527f3525d4593ef70f97d7b99dfeab0e0be748aeb51f464f83bf0bbf5ab6badb45c89588959394919390929060a083019085908015610c905780601f10610c6557610100808354040283529160200191610c90565b820191906000526020600020905b815481529060010190602001808311610c7357829003601f168201915b50509550505050505060405180910390a1505b50565b60006020818152918152604090819020805460018083015460028085015460038601805488516101009682161596909602600019011692909204601f810189900489028501890190975286845293966001600160a01b0392831696929094169493909190830182828015610d5b5780601f10610d3057610100808354040283529160200191610d5b565b820191906000526020600020905b815481529060010190602001808311610d3e57829003601f168201915b5050505060048301805460408051602060026001851615610100026000190190941693909304601f8101849004840282018401909252818152949594935090830182828015610deb5780601f10610dc057610100808354040283529160200191610deb565b820191906000526020600020905b815481529060010190602001808311610dce57829003601f168201915b50505050600583015460069093015491929160ff16905087565b606060015460001415610e28576040805160008082526020820190925290610996565b6060600154604051908082528060200260200182016040528015610e56578160200160208202803883390190505b509050600060015b6001548111610f1c576000818152602081905260409020600101546001600160a01b0316331480610ea857506000818152602081905260409020600201546001600160a01b031633145b8015610ed35750600460008281526020819052604090206006015460ff166007811115610ed157fe5b145b15610f14576000818152602081905260409020548351849084908110610ef557fe5b6020908102919091010152610f1182600163ffffffff6135ed16565b91505b600101610e5e565b50606081604051908082528060200260200182016040528015610f49578160200160208202803883390190505b50905060005b82811015610adc57838181518110610f6357fe5b6020026020010151828281518110610f7757fe5b6020908102919091010152600101610f4f565b600081815260208190526040902060018101546001600160a01b0316610fb05750610ca3565b60018101546001600160a01b031633146110145760408051600160e51b62461bcd02815260206004820152601f60248201527f596f7520617265206e6f74207468652070726f6a6563742773206f776e657200604482015290519081900360640190fd5b6003600682015460ff16600781111561102957fe5b148061104757506004600682015460ff16600781111561104557fe5b145b61109b5760408051600160e51b62461bcd02815260206004820152601760248201527f50726f6a656374206e6f7420696e2070726f6772657373000000000000000000604482015290519081900360640190fd5b600181015460058201546040516001600160a01b039092169181156108fc0291906000818181858888f193505050501580156110db573d6000803e3d6000fd5b506006818101805460ff1916909117905560028082015460058301546040805186815233602082018190526001600160a01b039094169181018290526080810183905260a0606082018181526003880180546101006001821615026000190116979097049183018290527f7b76644116e8a1f5a84d7e45799a76cc9786e73ce63fd83bec96569563cd4212968996959093909290919060c0830190859080156111c55780601f1061119a576101008083540402835291602001916111c5565b820191906000526020600020905b8154815290600101906020018083116111a857829003601f168201915b5050965050505050505060405180910390a15050565b6060600154600014156111fe576040805160008082526020820190925290610996565b606060015460405190808252806020026020018201604052801561122c578160200160208202803883390190505b509050600060015b60015481116112ce576000818152602081905260409020600101546001600160a01b0316158015906112855750600160008281526020819052604090206006015460ff16600781111561128357fe5b145b156112c65760008181526020819052604090205483518490849081106112a757fe5b60209081029190910101526112c382600163ffffffff6135ed16565b91505b600101611234565b506060816040519080825280602002602001820160405280156112fb578160200160208202803883390190505b50905060005b82811015610adc5783818151811061131557fe5b602002602001015182828151811061132957fe5b6020908102919091010152600101611301565b611344613651565b60008281526020818152604091829020825160e081018452815481526001808301546001600160a01b03908116838601526002808501549091168387015260038401805487516101009482161594909402600019011691909104601f81018690048602830186019096528582529194929360608601939192919083018282801561140f5780601f106113e45761010080835404028352916020019161140f565b820191906000526020600020905b8154815290600101906020018083116113f257829003601f168201915b505050918352505060048201805460408051602060026001851615610100026000190190941693909304601f81018490048402820184019092528181529382019392918301828280156114a35780601f10611478576101008083540402835291602001916114a3565b820191906000526020600020905b81548152906001019060200180831161148657829003601f168201915b505050918352505060058201546020820152600682015460409091019060ff1660078111156114ce57fe5b60078111156114d957fe5b90525060208101519091506001600160a01b03166114f75750610ca3565b60208101516001600160a01b0316331461154557604051600160e51b62461bcd0281526004018080602001828103825260258152602001806137ca6025913960400191505060405180910390fd5b60008160c00151600781111561155757fe5b1461159657604051600160e51b62461bcd0281526004018080602001828103825260218152602001806137886021913960400191505060405180910390fd5b606081015160008381526020819052604081208181556001810180546001600160a01b03199081169091556002820180549091169055906115da600383018261368a565b6115e860048301600061368a565b60058201600090556006820160006101000a81549060ff021916905550507f0bac8d70ddda9ec612d317fa2968f6f746b59169d04a223ec870eb6447a7c7f483338360405180848152602001836001600160a01b03166001600160a01b0316815260200180602001828103825283818151815260200191508051906020019080838360005b8381101561168557818101518382015260200161166d565b50505050905090810190601f1680156116b25780820380516001836020036101000a031916815260200191505b5094505050505060405180910390a1505050565b6060600154600014156116e9576040805160008082526020820190925290610996565b6060600154604051908082528060200260200182016040528015611717578160200160208202803883390190505b509050600060015b60015481116117dd576000818152602081905260409020600101546001600160a01b031633148061176957506000818152602081905260409020600201546001600160a01b031633145b80156117945750600560008281526020819052604090206006015460ff16600781111561179257fe5b145b156117d55760008181526020819052604090205483518490849081106117b657fe5b60209081029190910101526117d282600163ffffffff6135ed16565b91505b60010161171f565b5060608160405190808252806020026020018201604052801561180a578160200160208202803883390190505b50905060005b82811015610adc5783818151811061182457fe5b602002602001015182828151811061183857fe5b6020908102919091010152600101611810565b825183906118a35760408051600160e51b62461bcd02815260206004820152601360248201527f41207469746c6520697320726571756972656400000000000000000000000000604482015290519081900360640190fd5b825183906118fb5760408051600160e51b62461bcd02815260206004820152601960248201527f41206465736372697074696f6e20697320726571756972656400000000000000604482015290519081900360640190fd5b6001805461190e9163ffffffff6135ed16565b60018181556040805160e0810182528381523360208083019182526000838501818152606085018d8152608086018d905260a086018c905260c0860183905297825281835294902083518155915194820180546001600160a01b039687166001600160a01b031991821617909155935160028301805491909616941693909317909355925180516119a592600385019201906136ce565b50608082015180516119c19160048401916020909101906136ce565b5060a0820151600582015560c082015160068201805460ff191660018360078111156119e957fe5b02179055509050507fc8e7a8f4fbf568a726fe7b162d56bb8a313fa7ec7f274c6390969cb322a0f79460015433878660405180858152602001846001600160a01b03166001600160a01b0316815260200180602001838152602001828103825284818151815260200191508051906020019080838360005b83811015611a79578181015183820152602001611a61565b50505050905090810190601f168015611aa65780820380516001836020036101000a031916815260200191505b509550505050505060405180910390a15050505050565b600081815260208190526040902060018101546001600160a01b0316611ae35750610ca3565b60018101546001600160a01b03163314611b3157604051600160e51b62461bcd0281526004018080602001828103825260258152602001806137ca6025913960400191505060405180910390fd5b6002600682015460ff166007811115611b4657fe5b14611b9b5760408051600160e51b62461bcd02815260206004820152601660248201527f50726f706f73616c206e6f7420696e2072657669657700000000000000000000604482015290519081900360640190fd5b80600501543414611be057604051600160e51b62461bcd02815260040180806020018281038252602f8152602001806137ef602f913960400191505060405180910390fd5b60068101805460ff1916600390811790915560028083015460058401546040805187815233602082018190526001600160a01b039094169181018290526080810183905260a06060820181815296880180546101006001821615026000190116969096049082018190527fd0ca6107f6c9513954ca859c885b1e8b434687b6cf5e40625574d53dda8422ed9689969394929160c0830190859080156111c55780601f1061119a576101008083540402835291602001916111c5565b600081815260208190526040902060018101546001600160a01b0316611cc15750610ca3565b60028101546001600160a01b03163314611d255760408051600160e51b62461bcd02815260206004820181905260248201527f596f7520617265206e6f742074686520736572766963652070726f7669646572604482015290519081900360640190fd5b6003600682015460ff166007811115611d3a57fe5b14611d8f5760408051600160e51b62461bcd02815260206004820152601760248201527f50726f6a656374206e6f7420696e2070726f6772657373000000000000000000604482015290519081900360640190fd5b60068101805460ff1916600417905560028082015460058301546040805186815233602082018190526001600160a01b039094169181018290526080810183905260a0606082018181526003880180546101006001821615026000190116979097049183018290527f2c29e86efe7dba61218108fc48fc467f0b2d89a5dd6741ff0df4b17bdf5cab68968996959093909290919060c0830190859080156111c55780601f1061119a576101008083540402835291602001916111c5565b600081815260208190526040902060018101546001600160a01b0316611e725750610ca3565b60018101546001600160a01b03163314611ec057604051600160e51b62461bcd0281526004018080602001828103825260258152602001806137ca6025913960400191505060405180910390fd5b6000600682015460ff166007811115611ed557fe5b14611f2a5760408051600160e51b62461bcd02815260206004820152601360248201527f43616e6e6f74206265207075626c697368656400000000000000000000000000604482015290519081900360640190fd5b60068101805460ff191660019081179091556005820154604080518581523360208201819052606082018490526080928201838152600387018054600297811615610100026000190116969096049383018490527f8312e76cb9523ff197151c20e9aa91aab65c750674f5a0f6df91434fc153adc995889592949093919060a083019085908015610c905780601f10610c6557610100808354040283529160200191610c90565b600081815260208190526040902060018101546001600160a01b0316611ff75750610ca3565b6001600682015460ff16600781111561200c57fe5b146120615760408051600160e51b62461bcd02815260206004820152601960248201527f50726f6a656374206e6f206d6f726520617661696c61626c6500000000000000604482015290519081900360640190fd5b600280820180546001600160a01b0319163317905560068201805460ff191660018302179055506005810154604080518481523360208201819052606082018490526080928201838152600386018054600260001961010060018416150201909116049484018590527f79af99d8f87b40930ee58bf8914b0366fb392a8cd22c3705f2b9a30e2fae31e09588959394919390929060a083019085908015610c905780601f10610c6557610100808354040283529160200191610c90565b600081815260208190526040902060018101546001600160a01b03166121445750610ca3565b60018101546001600160a01b0316331461219257604051600160e51b62461bcd0281526004018080602001828103825260258152602001806137ca6025913960400191505060405180910390fd5b6004600682015460ff1660078111156121a757fe5b146121e657604051600160e51b62461bcd0281526004018080602001828103825260218152602001806137a96021913960400191505060405180910390fd5b600281015460058201546040516001600160a01b039092169181156108fc0291906000818181858888f19350505050158015612226573d6000803e3d6000fd5b5060068101805460ff19166005908117909155600280830154918301546040805186815233602082018190526001600160a01b039095169181018290526080810183905260a0606082018181526003880180546101006001821615026000190116969096049183018290527f72a87e41eb71c3d97ada3d99bed7a092d856bcdc4f034ef117099e051038cd7a96899690959093909290919060c0830190859080156111c55780601f1061119a576101008083540402835291602001916111c5565b60606001546000141561230a576040805160008082526020820190925290610996565b6060600154604051908082528060200260200182016040528015612338578160200160208202803883390190505b509050600060015b60015481116123ad576000818152602081905260409020600101546001600160a01b0316156123a557600081815260208190526040902054835184908490811061238657fe5b60209081029190910101526123a282600163ffffffff6135ed16565b91505b600101612340565b506060816040519080825280602002602001820160405280156123da578160200160208202803883390190505b50905060005b82811015610adc578381815181106123f457fe5b602002602001015182828151811061240857fe5b60209081029190910101526001016123e0565b600084815260208190526040902060018101546001600160a01b03166124415750612691565b60018101546001600160a01b0316331461248f57604051600160e51b62461bcd0281526004018080602001828103825260258152602001806137ca6025913960400191505060405180910390fd5b6000600682015460ff1660078111156124a457fe5b146124e357604051600160e51b62461bcd0281526004018080602001828103825260218152602001806137676021913960400191505060405180910390fd5b8351849061253b5760408051600160e51b62461bcd02815260206004820152601360248201527f41207469746c6520697320726571756972656400000000000000000000000000604482015290519081900360640190fd5b835184906125935760408051600160e51b62461bcd02815260206004820152601960248201527f41206465736372697074696f6e20697320726571756972656400000000000000604482015290519081900360640190fd5b85516125a890600385019060208901906136ce565b5084516125be90600485019060208801906136ce565b508383600501819055507f78ec34897e7f5ea3506eaaa6dcf2edc5ea8eea1c579f1f3d158e55233c602e6960015433888760405180858152602001846001600160a01b03166001600160a01b0316815260200180602001838152602001828103825284818151815260200191508051906020019080838360005b83811015612650578181015183820152602001612638565b50505050905090810190601f16801561267d5780820380516001836020036101000a031916815260200191505b509550505050505060405180910390a15050505b50505050565b600081815260208190526040902060018101546001600160a01b03166126bd5750610ca3565b60018101546001600160a01b0316331461270b57604051600160e51b62461bcd0281526004018080602001828103825260258152602001806137ca6025913960400191505060405180910390fd5b6004600682015460ff16600781111561272057fe5b1461275f57604051600160e51b62461bcd0281526004018080602001828103825260218152602001806137a96021913960400191505060405180910390fd5b60068101805460ff1916600390811790915560028083015460058401546040805187815233602082018190526001600160a01b039094169181018290526080810183905260a06060820181815296880180546101006001821615026000190116969096049082018190527f45db355d424e661e8b7ea210fd36cd8224f4955611152ce93518a27f205467e49689969394929160c0830190859080156111c55780601f1061119a576101008083540402835291602001916111c5565b600081815260208190526040902060018101546001600160a01b03166128405750610ca3565b60018101546001600160a01b0316331461288e57604051600160e51b62461bcd0281526004018080602001828103825260258152602001806137ca6025913960400191505060405180910390fd5b6002600682015460ff1660078111156128a357fe5b146128f85760408051600160e51b62461bcd02815260206004820152601660248201527f50726f706f73616c206e6f7420696e2072657669657700000000000000000000604482015290519081900360640190fd5b6002818101805460068401805460ff191660019081179091556001600160a01b0319821690925560058401546040805187815233602082018190526001600160a01b039094169181018290526080810183905260a0606082018181526003890180546101009881161598909802600019019097169790970490820181905291957f4c596893f217ff7756c8fc77bea24399406130928fc25e6ace71d6121fd2643f95899594889491939092909160c0830190859080156129f95780601f106129ce576101008083540402835291602001916129f9565b820191906000526020600020905b8154815290600101906020018083116129dc57829003601f168201915b5050965050505050505060405180910390a1505050565b606060015460001415612a33576040805160008082526020820190925290610996565b6060600154604051908082528060200260200182016040528015612a61578160200160208202803883390190505b509050600060015b6001548111612b27576000818152602081905260409020600101546001600160a01b0316331480612ab357506000818152602081905260409020600201546001600160a01b031633145b8015612ade5750600660008281526020819052604090206006015460ff166007811115612adc57fe5b145b15612b1f576000818152602081905260409020548351849084908110612b0057fe5b6020908102919091010152612b1c82600163ffffffff6135ed16565b91505b600101612a69565b50606081604051908082528060200260200182016040528015612b54578160200160208202803883390190505b50905060005b82811015610adc57838181518110612b6e57fe5b6020026020010151828281518110612b8257fe5b6020908102919091010152600101612b5a565b606060015460001415612bb8576040805160008082526020820190925290610996565b6060600154604051908082528060200260200182016040528015612be6578160200160208202803883390190505b509050600060015b6001548111612cd5576000818152602081905260409020600101546001600160a01b0316331480612c3857506000818152602081905260409020600201546001600160a01b031633145b8015612c8c5750600360008281526020819052604090206006015460ff166007811115612c6157fe5b1480612c8c5750600460008281526020819052604090206006015460ff166007811115612c8a57fe5b145b15612ccd576000818152602081905260409020548351849084908110612cae57fe5b6020908102919091010152612cca82600163ffffffff6135ed16565b91505b600101612bee565b50606081604051908082528060200260200182016040528015612d02578160200160208202803883390190505b50905060005b82811015610adc57838181518110612d1c57fe5b6020026020010151828281518110612d3057fe5b6020908102919091010152600101612d08565b606060015460001415612d66576040805160008082526020820190925290610996565b6060600154604051908082528060200260200182016040528015612d94578160200160208202803883390190505b509050600060015b6001548111612e63576000818152602081905260409020600101546001600160a01b031633148015612dee5750600560008281526020819052604090206006015460ff166007811115612deb57fe5b14155b8015612e1a5750600660008281526020819052604090206006015460ff166007811115612e1757fe5b14155b15612e5b576000818152602081905260409020548351849084908110612e3c57fe5b6020908102919091010152612e5882600163ffffffff6135ed16565b91505b600101612d9c565b50606081604051908082528060200260200182016040528015612e90578160200160208202803883390190505b50905060005b82811015610adc57838181518110612eaa57fe5b6020026020010151828281518110612ebe57fe5b6020908102919091010152600101612e96565b606060015460001415612ef4576040805160008082526020820190925290610996565b6060600154604051908082528060200260200182016040528015612f22578160200160208202803883390190505b509050600060015b6001548111612fc4576000818152602081905260409020600101546001600160a01b031633148015612f7b5750600260008281526020819052604090206006015460ff166007811115612f7957fe5b145b15612fbc576000818152602081905260409020548351849084908110612f9d57fe5b6020908102919091010152612fb982600163ffffffff6135ed16565b91505b600101612f2a565b50606081604051908082528060200260200182016040528015612ff1578160200160208202803883390190505b50905060005b82811015610adc5783818151811061300b57fe5b602002602001015182828151811061301f57fe5b6020908102919091010152600101612ff7565b600081815260208190526040902060018101546001600160a01b03166130585750610ca3565b60028101546001600160a01b031633146130bc5760408051600160e51b62461bcd02815260206004820181905260248201527f596f7520617265206e6f742074686520736572766963652070726f7669646572604482015290519081900360640190fd5b6002600682015460ff1660078111156130d157fe5b146131265760408051600160e51b62461bcd02815260206004820152601660248201527f50726f706f73616c206e6f7420696e2072657669657700000000000000000000604482015290519081900360640190fd5b6002818101805460068401805460ff191660019081179091556001600160a01b0319821690925560058401546040805187815233602082018190526001600160a01b039094169181018290526080810183905260a0606082018181526003890180546101009881161598909802600019019097169790970490820181905291957f78a50b976d392dc292f12805e95fe0f6835d2adba9ff593aba1702d4b179b8f795899594889491939092909160c0830190859080156129f95780601f106129ce576101008083540402835291602001916129f9565b60008060608060008061320d613651565b60008881526020818152604091829020825160e081018452815481526001808301546001600160a01b03908116838601526002808501549091168387015260038401805487516101009482161594909402600019011691909104601f8101869004860283018601909652858252919492936060860193919291908301828280156132d85780601f106132ad576101008083540402835291602001916132d8565b820191906000526020600020905b8154815290600101906020018083116132bb57829003601f168201915b505050918352505060048201805460408051602060026001851615610100026000190190941693909304601f810184900484028201840190925281815293820193929183018282801561336c5780601f106133415761010080835404028352916020019161336c565b820191906000526020600020905b81548152906001019060200180831161334f57829003601f168201915b505050918352505060058201546020820152600682015460409091019060ff16600781111561339757fe5b60078111156133a257fe5b90525060208101519091506001600160a01b03166133eb57505060408051602080820183526000808352835191820190935282815291965086955093509150839050600761341a565b602081015160408201516060830151608084015160a085015160c090950151939a509198509650945090925090505b91939550919395565b600081815260208190526040902060018101546001600160a01b03166134495750610ca3565b60028101546001600160a01b031633146134ad5760408051600160e51b62461bcd02815260206004820181905260248201527f596f7520617265206e6f742074686520736572766963652070726f7669646572604482015290519081900360640190fd5b6003600682015460ff1660078111156134c257fe5b146135175760408051600160e51b62461bcd02815260206004820152601760248201527f50726f6a656374206e6f7420696e2070726f6772657373000000000000000000604482015290519081900360640190fd5b6002818101805460068401805460ff191660019081179091556001600160a01b0319821690925560058401546040805187815233602082018190526001600160a01b039094169181018290526080810183905260a0606082018181526003890180546101009881161598909802600019019097169790970490820181905291957fedd31b82626c4b504580eae0d067d064d264a97b8a7954e1619807de26ee352595899594889491939092909160c0830190859080156129f95780601f106129ce576101008083540402835291602001916129f9565b60008282018381101561364a5760408051600160e51b62461bcd02815260206004820152601b60248201527f536166654d6174683a206164646974696f6e206f766572666c6f770000000000604482015290519081900360640190fd5b9392505050565b6040805160e0810182526000808252602082018190529181018290526060808201819052608082015260a081018290529060c082015290565b50805460018160011615610100020316600290046000825580601f106136b05750610ca3565b601f016020900490600052602060002090810190610ca3919061374c565b828054600181600116156101000203166002900490600052602060002090601f016020900481019282601f1061370f57805160ff191683800117855561373c565b8280016001018555821561373c579182015b8281111561373c578251825591602001919060010190613721565b5061374892915061374c565b5090565b610ae291905b80821115613748576000815560010161375256fe43616e6e6f742062652075706461746564207768696c65207075626c697368656443616e6e6f742062652072656d6f766564207768696c65207075626c697368656450726f6a656374206e6f7420696e2076616c69646174696f6e2070726f63657373596f7520617265206e6f7420746865206f776e6572206f6620746869732070726f6a656374596f7572206465706f73697420646f65736e2774206d617463682074686520636f6e74726163742773207072696365a165627a7a7230582078d39b1f641add4f194ef5072472a27ca995ca0ee0fc4aeaad1c54c2883df8900029",
  "source": "pragma solidity >=0.4.21 <0.6.0;\n\nimport 'openzeppelin-solidity/contracts/math/SafeMath.sol';\n\n// @title Decentralised business platform\ncontract ChainBizz {\n  //\n  // OpenZeppelin specifics\n  //\n  using SafeMath for uint256;\n\n  // Defines the status of the project\n  enum ProjectStatus {\n    Draft,\n    Available, \n    InReview,\n    OnGoing, \n    Validate,\n    Completed,\n    Canceled,\n    Unknown\n  }\n\n  //\n  // State variables\n  //\n\n  // Description of a project\n  struct ProjectItem {\n    uint256 id;               // unique ID\n    address payable owner;\n    address payable provider;             \n    string title;\n    string description;\n    uint256 price;            // price in Wei\n    ProjectStatus status;      \n  }\n\n  // List of projects\n  mapping(uint256 => ProjectItem) public projects;\n\n  // Number of registered projects\n  uint256 projectsCounter;\n  \n  //\n  // Events\n  //\n  event NewProject(uint256 id, address owner, string title, uint256 price);\n  event UpdateProject(uint256 id, address owner, string title, uint256 price);\n  event RemoveProject(uint256 id, address owner, string title);\n  event PublishedProject(uint256 id, address owner, string title, uint256 price);\n  event UnpublishedProject(uint256 id, address owner, string title, uint256 price);\n  event OfferSubmitted(uint256 id, address owner, string title, uint256 price);\n  event OfferCancelled(uint256 id, address owner, address provider, string title, uint256 price);\n  event AcceptProposal(uint256 id, address owner, address provider, string title, uint256 price);\n  event RejectProposal(uint256 id, address owner, address provider, string title, uint256 price);\n  event ProjectDelivered(uint256 id, address owner, address provider, string title, uint256 price);\n  event ServicesCancelled(uint256 id, address owner, address provider, string title, uint256 price);\n  event DeliveryAccepted(uint256 id, address owner, address provider, string title, uint256 price);\n  event DeliveryRejected(uint256 id, address owner, address provider, string title, uint256 price);\n  event ContractCancelled(uint256 id, address owner, address provider, string title, uint256 price);\n\n  //\n  // Implementation\n  //\n\n\n  //\n  // Setters\n  //\n  \n  // Add a new project\n  function addProject(string memory _title, string memory _description, uint256 _price) public {\n    \n    // a title is required\n    bytes memory title = bytes(_title);\n    require(title.length > 0, \"A title is required\");\n\n    // a description is required\n    bytes memory description = bytes(_description);\n    require(description.length > 0, \"A description is required\");\n\n    // new project\n    projectsCounter = projectsCounter.add(1);\n\n    // store the new project\n    projects[projectsCounter] = ProjectItem(projectsCounter, msg.sender, address(0x0), _title,  _description, _price, ProjectStatus.Draft);\n\n    emit NewProject(projectsCounter, msg.sender, _title, _price);\n  }\n\n  // Update an unpublished project\n  function updateProject(uint256 _id, string memory _title, string memory _description, uint256 _price) public {\n    \n    // retrieve the project\n    ProjectItem storage project = projects[_id];\n\n    // ensure that this project exists\n    if (project.owner == address(0x0)) {\n      return;\n    }\n \n    // do we own this project?\n    require(project.owner == msg.sender, \"You are not the owner of this project\");\n\n    // ready to be published?\n    require(project.status == ProjectStatus.Draft, \"Cannot be updated while published\");\n\n    // a title is required\n    bytes memory title = bytes(_title);\n    require(title.length > 0, \"A title is required\");\n\n    // a description is required\n    bytes memory description = bytes(_description);\n    require(description.length > 0, \"A description is required\");\n\n    // update the project\n    project.title = _title;\n    project.description = _description;\n    project.price = _price;\n\n    emit UpdateProject(projectsCounter, msg.sender, _title, _price);\n  }\n\n  // Remove an unpublished project\n  function removeProject(uint256 _id) public {\n    \n    // retrieve the project\n    ProjectItem memory project = projects[_id];\n\n    // ensure that this project exists\n    if (project.owner == address(0x0)) {\n      return;\n    }\n \n    // do we own this project?\n    require(project.owner == msg.sender, \"You are not the owner of this project\");\n\n    // ready to be removed?\n    require(project.status == ProjectStatus.Draft, \"Cannot be removed while published\");\n\n    // keep title for future use\n    string memory title = project.title;\n\n    // remove the project\n    delete projects[_id];\n\n    emit RemoveProject(_id, msg.sender, title);\n  }\n\n  // Publish the project to seek for providers\n  function publishProject(uint256 _id) public {\n    \n    // retrieve the project\n    ProjectItem storage project = projects[_id];\n\n    // ensure that this project exists\n    if (project.owner == address(0x0)) {\n      return;\n    }\n \n    // do we own this project?\n    require(project.owner == msg.sender, \"You are not the owner of this project\");\n\n    // ready to be published?\n    require(project.status == ProjectStatus.Draft, \"Cannot be published\");\n\n    // publish the project to be available for services\n    project.status = ProjectStatus.Available;\n\n    emit PublishedProject(_id, msg.sender, project.title, project.price);\n  }\n\n  // Unpublish the project\n  // A project can be unpublished ONLY if it's already published and not already part of a contract \n  function unpublishProject(uint256 _id) public {\n    \n    // retrieve the project\n    ProjectItem storage project = projects[_id];\n\n    // ensure that this project exists\n    if (project.owner == address(0x0)) {\n      return;\n    }\n \n    // do we own this project?\n    require(project.owner == msg.sender, \"You are not the owner of this project\");\n\n    // ready to be unpublished?\n    require(project.status == ProjectStatus.Available, \"Cannot be unpublished\");\n\n    // unpublish the project\n    project.status = ProjectStatus.Draft;\n\n    emit UnpublishedProject(_id, msg.sender, project.title, project.price);\n  }\n\n  // Offer services for the project\n  // A provider offers his/her services to perform the project \n  function submitOffer(uint256 _id) public {\n    \n    // retrieve the project\n    ProjectItem storage project = projects[_id];\n\n    // ensure that this project exists\n    if (project.owner == address(0x0)) {\n      return;\n    }\n \n    // is the project available?\n    require(project.status == ProjectStatus.Available, \"Project no more available\");\n\n    // store the address of the provider\n    project.provider = msg.sender;\n\n    // project is under review\n    project.status = ProjectStatus.InReview;\n\n    emit OfferSubmitted(_id, msg.sender, project.title, project.price);\n  }\n\n  // Cancel offer made by the provider\n  // A provider cancels his/her offer to perform the project \n  function cancelOffer(uint256 _id) public {\n    \n    // retrieve the project\n    ProjectItem storage project = projects[_id];\n\n    // ensure that this project exists\n    if (project.owner == address(0x0)) {\n      return;\n    }\n \n     // are we the service provider?\n    require(project.provider == msg.sender, \"You are not the service provider\");\n\n    // is the project in review?\n    require(project.status == ProjectStatus.InReview , \"Proposal not in review\");\n\n    // project is now available\n    address provider = project.provider;\n    project.status = ProjectStatus.Available;\n    project.provider = address(0x0);\n\n    emit OfferCancelled(_id, msg.sender, provider, project.title, project.price);\n  }\n\n  // Accept services from the provider\n  // The owner accepts the services offered by the provider \n  function acceptProposal(uint256 _id) payable public {\n    \n    // retrieve the project\n    ProjectItem storage project = projects[_id];\n\n    // ensure that this project exists\n    if (project.owner == address(0x0)) {\n      return;\n    }\n \n     // do we own this project?\n    require(project.owner == msg.sender, \"You are not the owner of this project\");\n\n    // is the project in review?\n    require(project.status == ProjectStatus.InReview, \"Proposal not in review\");\n\n    // is the owner has deposit the requeste amount?\n    require(msg.value == project.price, \"Your deposit doesn't match the contract's price\");\n\n    // project is now ongoing\n    project.status = ProjectStatus.OnGoing;\n\n    emit AcceptProposal(_id, msg.sender, project.provider, project.title, project.price);\n  }\n\n  // Reject proposal from the provider\n  // The owner rejects the services offered by the provider \n  function rejectProposal(uint256 _id) public {\n    \n    // retrieve the project\n    ProjectItem storage project = projects[_id];\n\n    // ensure that this project exists\n    if (project.owner == address(0x0)) {\n      return;\n    }\n \n     // do we own this project?\n    require(project.owner == msg.sender, \"You are not the owner of this project\");\n\n    // is the project in review?\n    require(project.status == ProjectStatus.InReview , \"Proposal not in review\");\n\n    // project is now available\n    address provider = project.provider;\n    project.status = ProjectStatus.Available;\n    project.provider = address(0x0);\n    \n    emit RejectProposal(_id, msg.sender, provider, project.title, project.price);\n  }\n\n  // Deliver the project to the customer\n  // The provider delivers the project to the owner \n  function deliverProject(uint256 _id) public {\n    \n    // retrieve the project\n    ProjectItem storage project = projects[_id];\n\n    // ensure that this project exists\n    if (project.owner == address(0x0)) {\n      return;\n    }\n \n    // are we the service provider?\n    require(project.provider == msg.sender, \"You are not the service provider\");\n\n    // is the project ongoing?\n    require(project.status == ProjectStatus.OnGoing, \"Project not in progress\");\n\n    // project is now validation process\n    project.status = ProjectStatus.Validate;\n\n    emit ProjectDelivered(_id, msg.sender, project.provider, project.title, project.price);\n  }\n\n   // Cancel services from the provider\n  // The provider cancels the services performed for the project \n  function cancelServices(uint256 _id) public {\n    \n    // retrieve the project\n    ProjectItem storage project = projects[_id];\n\n    // ensure that this project exists\n    if (project.owner == address(0x0)) {\n      return;\n    }\n \n    // are we the service provider?\n    require(project.provider == msg.sender, \"You are not the service provider\");\n\n    // is the project ongoing?\n    require(project.status == ProjectStatus.OnGoing, \"Project not in progress\");\n\n    // project becomes available\n    address provider = project.provider;\n    project.status = ProjectStatus.Available;\n    project.provider = address(0x0);\n    \n    emit ServicesCancelled(_id, msg.sender, provider, project.title, project.price);\n  }\n\n  // Accept the project delivery from the provider\n  // The owner accepts the project delivered by the provider \n  function acceptDelivery(uint256 _id) public {\n    \n    // retrieve the project\n    ProjectItem storage project = projects[_id];\n\n    // ensure that this project exists\n    if (project.owner == address(0x0)) {\n      return;\n    }\n \n     // do we own this project?\n    require(project.owner == msg.sender, \"You are not the owner of this project\");\n\n    // is the project in review?\n    require(project.status == ProjectStatus.Validate, \"Project not in validation process\");\n\n    // pay the service provide\n    project.provider.transfer(project.price);\n\n    // project is now completed\n    project.status = ProjectStatus.Completed;\n\n    emit DeliveryAccepted(_id, msg.sender, project.provider, project.title, project.price);\n  }\n\n  // Reject the project delivery from the provider\n  // The owner rejects the project delivered by the provider \n  function rejectDelivery(uint256 _id) public {\n    \n    // retrieve the project\n    ProjectItem storage project = projects[_id];\n\n    // ensure that this project exists\n    if (project.owner == address(0x0)) {\n      return;\n    }\n \n     // do we own this project?\n    require(project.owner == msg.sender, \"You are not the owner of this project\");\n\n    // is the project in review?\n    require(project.status == ProjectStatus.Validate, \"Project not in validation process\");\n\n    // project remains ongoing\n    project.status = ProjectStatus.OnGoing;\n    \n    emit DeliveryRejected(_id, msg.sender, project.provider, project.title, project.price);\n  }\n\n  // Contract cancelled by the owner\n  // The owner cancels the contract \n  function cancelContract(uint256 _id) public {\n    \n    // retrieve the project\n    ProjectItem storage project = projects[_id];\n\n    // ensure that this project exists\n    if (project.owner == address(0x0)) {\n      return;\n    }\n \n    // are we the service provider?\n    require(project.owner == msg.sender, \"You are not the project's owner\");\n\n    // is the project ongoing?\n    require((project.status == ProjectStatus.OnGoing) || (project.status == ProjectStatus.Validate), \"Project not in progress\");\n\n    // pay back the contract's owner\n    project.owner.transfer(project.price);\n\n    // contract becomes canceled\n    project.status = ProjectStatus.Canceled;\n    \n    emit ContractCancelled(_id, msg.sender, project.provider, project.title, project.price);\n  }\n\n  //\n  // Getters\n  //\n\n  // Retrieve a project from its id\n  function getProject(uint256 _id) public view returns (\n    address owner,\n    address provider,\n    string memory title,\n    string memory description,\n    uint256 price,\n    ProjectStatus status) {\n\n    ProjectItem memory project = projects[_id];\n\n    // ensure that we have a project to fetch\n    if (project.owner == address(0x0)) {\n      return (address(0x0), address(0x0), \"\", \"\", 0, ProjectStatus.Unknown);\n    }\n\n    return (\n      project.owner,\n      project.provider,\n      project.title,\n      project.description,\n      project.price,\n      project.status);\n  }\n\n  // return all projects\n  function getAllProjects() view public returns (uint256[] memory) {\n    if (projectsCounter == 0) {\n      return new uint[](0);\n    }\n\n    // prepare output array\n    uint256[] memory projectIDs = new uint[](projectsCounter);\n\n    // iterate over projects\n    uint256 numberOfProjects = 0;\n    for (uint256 i = 1; i <= projectsCounter; i++) {\n      // skip deleted projects\n      if (projects[i].owner != address(0x0)) {\n        projectIDs[numberOfProjects] = projects[i].id;\n        numberOfProjects = numberOfProjects.add(1);\n      }\n    }\n\n    // copy the project ID array into a smaller array\n    uint256[] memory allProjects = new uint[](numberOfProjects);\n    for (uint j = 0; j < numberOfProjects; j++) {\n      allProjects[j] = projectIDs[j];\n    }\n\n    return allProjects;\n  }\n\n\n  // return all published projects\n  function getPublishedProjects() view public returns (uint256[] memory) {\n    if (projectsCounter == 0) {\n      return new uint[](0);\n    }\n\n    // prepare output array\n    uint256[] memory projectIDs = new uint[](projectsCounter);\n\n    // iterate over projects\n    uint256 numberOfProjects = 0;\n    for (uint256 i = 1; i <= projectsCounter; i++) {\n      // get only published and active projects \n      if ((projects[i].owner != address(0x0)) && (projects[i].status == ProjectStatus.Available)) {\n        projectIDs[numberOfProjects] = projects[i].id;\n        numberOfProjects = numberOfProjects.add(1);\n      }\n    }\n\n    // copy the project ID array into a smaller array\n    uint256[] memory allProjects = new uint[](numberOfProjects);\n    for (uint j = 0; j < numberOfProjects; j++) {\n      allProjects[j] = projectIDs[j];\n    }\n\n    return allProjects;\n  }\n\n\n  // return all projects owned by the sender\n  function getMyProjects() view public returns (uint256[] memory) {\n    if (projectsCounter == 0) {\n      return new uint256[](0);\n    }\n\n    // prepare output array\n    uint256[] memory projectIDs = new uint[](projectsCounter);\n\n    // iterate over projects\n    uint256 numberOfProjects = 0;\n    for (uint i = 1; i <= projectsCounter; i++) {\n      // keep the ID of the project owned by the caller\n      if ((projects[i].owner == msg.sender) && (projects[i].status != ProjectStatus.Completed) && (projects[i].status != ProjectStatus.Canceled)) {\n        projectIDs[numberOfProjects] = projects[i].id;\n\n        numberOfProjects = numberOfProjects.add(1);\n      }\n    }\n\n    // copy the project ID array into a smaller array\n    uint256[] memory myProjects = new uint[](numberOfProjects);\n    for (uint j = 0; j < numberOfProjects; j++) {\n      myProjects[j] = projectIDs[j];\n    }\n\n    return myProjects;\n  }\n\n  // return all my offers waiting for review\n  function getMyOffers() view public returns (uint256[] memory) {\n    if (projectsCounter == 0) {\n      return new uint256[](0);\n    }\n\n    // prepare output array\n    uint256[] memory projectIDs = new uint[](projectsCounter);\n\n    // iterate over projects\n    uint256 numberOfProjects = 0;\n    for (uint i = 1; i <= projectsCounter; i++) {\n      // keep the ID of the project with the sender as provider and the project still in review process\n      if ((projects[i].provider == msg.sender) && (projects[i].status == ProjectStatus.InReview)) {\n        projectIDs[numberOfProjects] = projects[i].id;\n\n        numberOfProjects = numberOfProjects.add(1);\n      }\n    }\n\n    // copy the project ID array into a smaller array\n    uint256[] memory myOffers = new uint[](numberOfProjects);\n    for (uint j = 0; j < numberOfProjects; j++) {\n      myOffers[j] = projectIDs[j];\n    }\n\n    return myOffers;\n  }\n\n\n  // return all projects waiting for review\n  function getMyReviews() view public returns (uint256[] memory) {\n    if (projectsCounter == 0) {\n      return new uint256[](0);\n    }\n\n    // prepare output array\n    uint256[] memory projectIDs = new uint[](projectsCounter);\n\n    // iterate over projects\n    uint256 numberOfProjects = 0;\n    for (uint i = 1; i <= projectsCounter; i++) {\n      // keep the ID of the project owned by the caller and the project still in review process\n      if ((projects[i].owner == msg.sender) && (projects[i].status == ProjectStatus.InReview)) {\n        projectIDs[numberOfProjects] = projects[i].id;\n\n        numberOfProjects = numberOfProjects.add(1);\n      }\n    }\n\n    // copy the project ID array into a smaller array\n    uint256[] memory myReviews = new uint[](numberOfProjects);\n    for (uint j = 0; j < numberOfProjects; j++) {\n      myReviews[j] = projectIDs[j];\n    }\n\n    return myReviews;\n  }\n\n  // return all ongoing contracts\n  function getMyContracts() view public returns (uint256[] memory) {\n    if (projectsCounter == 0) {\n      return new uint[](0);\n    }\n\n    // prepare output array\n    uint256[] memory projectIDs = new uint[](projectsCounter);\n\n    // iterate over projects\n    uint256 numberOfProjects = 0;\n    for (uint256 i = 1; i <= projectsCounter; i++) {\n      // get only ongoing and under validation contracts owned by the contract's owner or the service provider \n      if (((projects[i].owner == msg.sender) || (projects[i].provider == msg.sender)) && \n      ((projects[i].status == ProjectStatus.OnGoing) || (projects[i].status == ProjectStatus.Validate))) {\n        projectIDs[numberOfProjects] = projects[i].id;\n        numberOfProjects = numberOfProjects.add(1);\n      }\n    }\n\n    // copy the project ID array into a smaller array\n    uint256[] memory myContracts = new uint[](numberOfProjects);\n    for (uint j = 0; j < numberOfProjects; j++) {\n      myContracts[j] = projectIDs[j];\n    }\n\n    return myContracts;\n  }\n\n  // return all deliveries to review\n  function getDeliveries() view public returns (uint256[] memory) {\n    if (projectsCounter == 0) {\n      return new uint[](0);\n    }\n\n    // prepare output array\n    uint256[] memory projectIDs = new uint[](projectsCounter);\n\n    // iterate over projects\n    uint256 numberOfProjects = 0;\n    for (uint256 i = 1; i <= projectsCounter; i++) {\n      // get only ongoing contracts owner by the contract's owner or the service provider \n      if (((projects[i].owner == msg.sender) || (projects[i].provider == msg.sender)) && (projects[i].status == ProjectStatus.Validate)) {\n        projectIDs[numberOfProjects] = projects[i].id;\n        numberOfProjects = numberOfProjects.add(1);\n      }\n    }\n\n    // copy the project ID array into a smaller array\n    uint256[] memory myDeliveries = new uint[](numberOfProjects);\n    for (uint j = 0; j < numberOfProjects; j++) {\n      myDeliveries[j] = projectIDs[j];\n    }\n\n    return myDeliveries;\n  }\n\n  // return all completed contracts\n  function getCompleted() view public returns (uint256[] memory) {\n    if (projectsCounter == 0) {\n      return new uint[](0);\n    }\n\n    // prepare output array\n    uint256[] memory projectIDs = new uint[](projectsCounter);\n\n    // iterate over projects\n    uint256 numberOfProjects = 0;\n    for (uint256 i = 1; i <= projectsCounter; i++) {\n      // get only ongoing contracts owner by the contract's owner or the service provider \n      if (((projects[i].owner == msg.sender) || (projects[i].provider == msg.sender)) && (projects[i].status == ProjectStatus.Completed)) {\n        projectIDs[numberOfProjects] = projects[i].id;\n        numberOfProjects = numberOfProjects.add(1);\n      }\n    }\n\n    // copy the project ID array into a smaller array\n    uint256[] memory myCompleted = new uint[](numberOfProjects);\n    for (uint j = 0; j < numberOfProjects; j++) {\n      myCompleted[j] = projectIDs[j];\n    }\n\n    return myCompleted;\n  }\n\n  // return all canceled contracts\n  function getCanceled() view public returns (uint256[] memory) {\n    if (projectsCounter == 0) {\n      return new uint[](0);\n    }\n\n    // prepare output array\n    uint256[] memory projectIDs = new uint[](projectsCounter);\n\n    // iterate over projects\n    uint256 numberOfProjects = 0;\n    for (uint256 i = 1; i <= projectsCounter; i++) {\n      // get only ongoing contracts owner by the contract's owner or the service provider \n      if (((projects[i].owner == msg.sender) || (projects[i].provider == msg.sender)) && (projects[i].status == ProjectStatus.Canceled)) {\n        projectIDs[numberOfProjects] = projects[i].id;\n        numberOfProjects = numberOfProjects.add(1);\n      }\n    }\n\n    // copy the project ID array into a smaller array\n    uint256[] memory myCanceled = new uint[](numberOfProjects);\n    for (uint j = 0; j < numberOfProjects; j++) {\n      myCanceled[j] = projectIDs[j];\n    }\n\n    return myCanceled;\n  }\n}",
  "sourcePath": "/Users/said.eloudrhiri/Projects/Devoxx/chainbizz/contracts/ChainBizz.sol",
  "compiler": {
    "name": "solc",
    "version": "0.5.8+commit.23d335f2.Emscripten.clang"
  },
  "schemaVersion": "3.0.16",
  "updatedAt": "2019-10-13T14:12:37.356Z",
  "devdoc": {
    "methods": {}
  },
  "userdoc": {
    "methods": {}
  }
}