{
  "contractName": "ChainBizz",
  "abi": [
    {
      "inputs": [],
      "payable": false,
      "stateMutability": "nonpayable",
      "type": "constructor"
    },
    {
      "anonymous": false,
      "inputs": [
        {
          "indexed": false,
          "internalType": "uint256",
          "name": "id",
          "type": "uint256"
        },
        {
          "indexed": true,
          "internalType": "address",
          "name": "issuer",
          "type": "address"
        },
        {
          "indexed": true,
          "internalType": "address",
          "name": "fulfiller",
          "type": "address"
        },
        {
          "indexed": false,
          "internalType": "string",
          "name": "title",
          "type": "string"
        },
        {
          "indexed": false,
          "internalType": "uint256",
          "name": "price",
          "type": "uint256"
        }
      ],
      "name": "AcceptProposal",
      "type": "event"
    },
    {
      "anonymous": false,
      "inputs": [
        {
          "indexed": false,
          "internalType": "uint256",
          "name": "id",
          "type": "uint256"
        },
        {
          "indexed": true,
          "internalType": "address",
          "name": "issuer",
          "type": "address"
        },
        {
          "indexed": true,
          "internalType": "address",
          "name": "fulfiller",
          "type": "address"
        },
        {
          "indexed": false,
          "internalType": "string",
          "name": "title",
          "type": "string"
        },
        {
          "indexed": false,
          "internalType": "uint256",
          "name": "price",
          "type": "uint256"
        }
      ],
      "name": "ContractCanceled",
      "type": "event"
    },
    {
      "anonymous": false,
      "inputs": [
        {
          "indexed": false,
          "internalType": "uint256",
          "name": "id",
          "type": "uint256"
        },
        {
          "indexed": true,
          "internalType": "address",
          "name": "issuer",
          "type": "address"
        },
        {
          "indexed": true,
          "internalType": "address",
          "name": "fulfiller",
          "type": "address"
        },
        {
          "indexed": false,
          "internalType": "string",
          "name": "title",
          "type": "string"
        },
        {
          "indexed": false,
          "internalType": "uint256",
          "name": "price",
          "type": "uint256"
        },
        {
          "indexed": false,
          "internalType": "uint256[]",
          "name": "ratings",
          "type": "uint256[]"
        }
      ],
      "name": "DeliveryAccepted",
      "type": "event"
    },
    {
      "anonymous": false,
      "inputs": [
        {
          "indexed": false,
          "internalType": "uint256",
          "name": "id",
          "type": "uint256"
        },
        {
          "indexed": true,
          "internalType": "address",
          "name": "issuer",
          "type": "address"
        },
        {
          "indexed": true,
          "internalType": "address",
          "name": "fulfiller",
          "type": "address"
        },
        {
          "indexed": false,
          "internalType": "string",
          "name": "title",
          "type": "string"
        },
        {
          "indexed": false,
          "internalType": "uint256",
          "name": "price",
          "type": "uint256"
        }
      ],
      "name": "DeliveryRejected",
      "type": "event"
    },
    {
      "anonymous": false,
      "inputs": [
        {
          "indexed": false,
          "internalType": "uint256",
          "name": "id",
          "type": "uint256"
        },
        {
          "indexed": true,
          "internalType": "address",
          "name": "issuer",
          "type": "address"
        },
        {
          "indexed": false,
          "internalType": "string",
          "name": "title",
          "type": "string"
        },
        {
          "indexed": false,
          "internalType": "uint256",
          "name": "price",
          "type": "uint256"
        }
      ],
      "name": "NewProject",
      "type": "event"
    },
    {
      "anonymous": false,
      "inputs": [
        {
          "indexed": false,
          "internalType": "uint256",
          "name": "id",
          "type": "uint256"
        },
        {
          "indexed": true,
          "internalType": "address",
          "name": "issuer",
          "type": "address"
        },
        {
          "indexed": true,
          "internalType": "address",
          "name": "fulfiller",
          "type": "address"
        },
        {
          "indexed": false,
          "internalType": "string",
          "name": "title",
          "type": "string"
        },
        {
          "indexed": false,
          "internalType": "uint256",
          "name": "price",
          "type": "uint256"
        }
      ],
      "name": "OfferCanceled",
      "type": "event"
    },
    {
      "anonymous": false,
      "inputs": [
        {
          "indexed": false,
          "internalType": "uint256",
          "name": "id",
          "type": "uint256"
        },
        {
          "indexed": true,
          "internalType": "address",
          "name": "issuer",
          "type": "address"
        },
        {
          "indexed": true,
          "internalType": "address",
          "name": "fulfiller",
          "type": "address"
        },
        {
          "indexed": false,
          "internalType": "string",
          "name": "title",
          "type": "string"
        },
        {
          "indexed": false,
          "internalType": "uint256",
          "name": "price",
          "type": "uint256"
        }
      ],
      "name": "OfferSubmitted",
      "type": "event"
    },
    {
      "anonymous": false,
      "inputs": [
        {
          "indexed": false,
          "internalType": "uint256",
          "name": "id",
          "type": "uint256"
        },
        {
          "indexed": true,
          "internalType": "address",
          "name": "issuer",
          "type": "address"
        },
        {
          "indexed": true,
          "internalType": "address",
          "name": "fulfiller",
          "type": "address"
        },
        {
          "indexed": false,
          "internalType": "string",
          "name": "title",
          "type": "string"
        },
        {
          "indexed": false,
          "internalType": "uint256",
          "name": "price",
          "type": "uint256"
        }
      ],
      "name": "ProjectDelivered",
      "type": "event"
    },
    {
      "anonymous": false,
      "inputs": [
        {
          "indexed": false,
          "internalType": "uint256",
          "name": "id",
          "type": "uint256"
        },
        {
          "indexed": true,
          "internalType": "address",
          "name": "issuer",
          "type": "address"
        },
        {
          "indexed": false,
          "internalType": "string",
          "name": "title",
          "type": "string"
        },
        {
          "indexed": false,
          "internalType": "uint256",
          "name": "price",
          "type": "uint256"
        },
        {
          "indexed": false,
          "internalType": "string",
          "name": "ipfsHash",
          "type": "string"
        }
      ],
      "name": "PublishedProject",
      "type": "event"
    },
    {
      "anonymous": false,
      "inputs": [
        {
          "indexed": false,
          "internalType": "uint256",
          "name": "id",
          "type": "uint256"
        },
        {
          "indexed": true,
          "internalType": "address",
          "name": "issuer",
          "type": "address"
        },
        {
          "indexed": true,
          "internalType": "address",
          "name": "fulfiller",
          "type": "address"
        },
        {
          "indexed": false,
          "internalType": "string",
          "name": "title",
          "type": "string"
        },
        {
          "indexed": false,
          "internalType": "uint256",
          "name": "price",
          "type": "uint256"
        }
      ],
      "name": "RejectProposal",
      "type": "event"
    },
    {
      "anonymous": false,
      "inputs": [
        {
          "indexed": false,
          "internalType": "uint256",
          "name": "id",
          "type": "uint256"
        },
        {
          "indexed": true,
          "internalType": "address",
          "name": "issuer",
          "type": "address"
        },
        {
          "indexed": false,
          "internalType": "string",
          "name": "title",
          "type": "string"
        }
      ],
      "name": "RemoveProject",
      "type": "event"
    },
    {
      "anonymous": false,
      "inputs": [
        {
          "indexed": false,
          "internalType": "uint256",
          "name": "id",
          "type": "uint256"
        },
        {
          "indexed": true,
          "internalType": "address",
          "name": "issuer",
          "type": "address"
        },
        {
          "indexed": true,
          "internalType": "address",
          "name": "fulfiller",
          "type": "address"
        },
        {
          "indexed": false,
          "internalType": "string",
          "name": "title",
          "type": "string"
        },
        {
          "indexed": false,
          "internalType": "uint256",
          "name": "price",
          "type": "uint256"
        }
      ],
      "name": "ServicesCanceled",
      "type": "event"
    },
    {
      "anonymous": false,
      "inputs": [
        {
          "indexed": false,
          "internalType": "uint256",
          "name": "id",
          "type": "uint256"
        },
        {
          "indexed": true,
          "internalType": "address",
          "name": "issuer",
          "type": "address"
        },
        {
          "indexed": false,
          "internalType": "string",
          "name": "title",
          "type": "string"
        },
        {
          "indexed": false,
          "internalType": "uint256",
          "name": "price",
          "type": "uint256"
        }
      ],
      "name": "UnpublishedProject",
      "type": "event"
    },
    {
      "anonymous": false,
      "inputs": [
        {
          "indexed": false,
          "internalType": "uint256",
          "name": "id",
          "type": "uint256"
        },
        {
          "indexed": true,
          "internalType": "address",
          "name": "issuer",
          "type": "address"
        },
        {
          "indexed": false,
          "internalType": "string",
          "name": "title",
          "type": "string"
        },
        {
          "indexed": false,
          "internalType": "uint256",
          "name": "price",
          "type": "uint256"
        }
      ],
      "name": "UpdateProject",
      "type": "event"
    },
    {
      "constant": true,
      "inputs": [
        {
          "internalType": "uint256",
          "name": "",
          "type": "uint256"
        }
      ],
      "name": "projects",
      "outputs": [
        {
          "internalType": "uint256",
          "name": "id",
          "type": "uint256"
        },
        {
          "internalType": "address payable",
          "name": "issuer",
          "type": "address"
        },
        {
          "internalType": "address payable",
          "name": "fulfiller",
          "type": "address"
        },
        {
          "internalType": "string",
          "name": "title",
          "type": "string"
        },
        {
          "internalType": "uint256",
          "name": "price",
          "type": "uint256"
        },
        {
          "internalType": "string",
          "name": "ipfsHash",
          "type": "string"
        },
        {
          "internalType": "enum ChainBizz.ProjectStatus",
          "name": "status",
          "type": "uint8"
        }
      ],
      "payable": false,
      "stateMutability": "view",
      "type": "function"
    },
    {
      "constant": false,
      "inputs": [],
      "name": "enableContract",
      "outputs": [],
      "payable": false,
      "stateMutability": "nonpayable",
      "type": "function"
    },
    {
      "constant": false,
      "inputs": [],
      "name": "disableContract",
      "outputs": [],
      "payable": false,
      "stateMutability": "nonpayable",
      "type": "function"
    },
    {
      "constant": false,
      "inputs": [
        {
          "internalType": "string",
          "name": "_title",
          "type": "string"
        },
        {
          "internalType": "uint256",
          "name": "_price",
          "type": "uint256"
        }
      ],
      "name": "addProject",
      "outputs": [],
      "payable": false,
      "stateMutability": "nonpayable",
      "type": "function"
    },
    {
      "constant": false,
      "inputs": [
        {
          "internalType": "uint256",
          "name": "_id",
          "type": "uint256"
        },
        {
          "internalType": "string",
          "name": "_title",
          "type": "string"
        },
        {
          "internalType": "uint256",
          "name": "_price",
          "type": "uint256"
        }
      ],
      "name": "updateProject",
      "outputs": [],
      "payable": false,
      "stateMutability": "nonpayable",
      "type": "function"
    },
    {
      "constant": false,
      "inputs": [
        {
          "internalType": "uint256",
          "name": "_id",
          "type": "uint256"
        }
      ],
      "name": "removeProject",
      "outputs": [],
      "payable": false,
      "stateMutability": "nonpayable",
      "type": "function"
    },
    {
      "constant": false,
      "inputs": [
        {
          "internalType": "string",
          "name": "_title",
          "type": "string"
        },
        {
          "internalType": "uint256",
          "name": "_price",
          "type": "uint256"
        },
        {
          "internalType": "string",
          "name": "_ipfsHash",
          "type": "string"
        }
      ],
      "name": "publishProject",
      "outputs": [],
      "payable": false,
      "stateMutability": "nonpayable",
      "type": "function"
    },
    {
      "constant": false,
      "inputs": [
        {
          "internalType": "uint256",
          "name": "_id",
          "type": "uint256"
        }
      ],
      "name": "publishProjectOld",
      "outputs": [],
      "payable": false,
      "stateMutability": "nonpayable",
      "type": "function"
    },
    {
      "constant": false,
      "inputs": [
        {
          "internalType": "uint256",
          "name": "_id",
          "type": "uint256"
        }
      ],
      "name": "unpublishProject",
      "outputs": [],
      "payable": false,
      "stateMutability": "nonpayable",
      "type": "function"
    },
    {
      "constant": false,
      "inputs": [
        {
          "internalType": "uint256",
          "name": "_id",
          "type": "uint256"
        }
      ],
      "name": "submitOffer",
      "outputs": [],
      "payable": false,
      "stateMutability": "nonpayable",
      "type": "function"
    },
    {
      "constant": false,
      "inputs": [
        {
          "internalType": "uint256",
          "name": "_id",
          "type": "uint256"
        }
      ],
      "name": "cancelOffer",
      "outputs": [],
      "payable": false,
      "stateMutability": "nonpayable",
      "type": "function"
    },
    {
      "constant": false,
      "inputs": [
        {
          "internalType": "uint256",
          "name": "_id",
          "type": "uint256"
        }
      ],
      "name": "acceptProposal",
      "outputs": [],
      "payable": true,
      "stateMutability": "payable",
      "type": "function"
    },
    {
      "constant": false,
      "inputs": [
        {
          "internalType": "uint256",
          "name": "_id",
          "type": "uint256"
        }
      ],
      "name": "rejectProposal",
      "outputs": [],
      "payable": false,
      "stateMutability": "nonpayable",
      "type": "function"
    },
    {
      "constant": false,
      "inputs": [
        {
          "internalType": "uint256",
          "name": "_id",
          "type": "uint256"
        }
      ],
      "name": "deliverProject",
      "outputs": [],
      "payable": false,
      "stateMutability": "nonpayable",
      "type": "function"
    },
    {
      "constant": false,
      "inputs": [
        {
          "internalType": "uint256",
          "name": "_id",
          "type": "uint256"
        }
      ],
      "name": "cancelServices",
      "outputs": [],
      "payable": false,
      "stateMutability": "nonpayable",
      "type": "function"
    },
    {
      "constant": false,
      "inputs": [
        {
          "internalType": "uint256",
          "name": "_id",
          "type": "uint256"
        },
        {
          "internalType": "uint256[]",
          "name": "_ratings",
          "type": "uint256[]"
        }
      ],
      "name": "acceptDelivery",
      "outputs": [],
      "payable": false,
      "stateMutability": "nonpayable",
      "type": "function"
    },
    {
      "constant": false,
      "inputs": [
        {
          "internalType": "uint256",
          "name": "_id",
          "type": "uint256"
        }
      ],
      "name": "rejectDelivery",
      "outputs": [],
      "payable": false,
      "stateMutability": "nonpayable",
      "type": "function"
    },
    {
      "constant": false,
      "inputs": [
        {
          "internalType": "uint256",
          "name": "_id",
          "type": "uint256"
        }
      ],
      "name": "cancelContract",
      "outputs": [],
      "payable": false,
      "stateMutability": "nonpayable",
      "type": "function"
    },
    {
      "constant": true,
      "inputs": [],
      "name": "isEnabled",
      "outputs": [
        {
          "internalType": "bool",
          "name": "",
          "type": "bool"
        }
      ],
      "payable": false,
      "stateMutability": "view",
      "type": "function"
    },
    {
      "constant": true,
      "inputs": [
        {
          "internalType": "uint256",
          "name": "_id",
          "type": "uint256"
        }
      ],
      "name": "getProject",
      "outputs": [
        {
          "internalType": "address",
          "name": "issuer",
          "type": "address"
        },
        {
          "internalType": "address",
          "name": "fulfiller",
          "type": "address"
        },
        {
          "internalType": "string",
          "name": "title",
          "type": "string"
        },
        {
          "internalType": "uint256",
          "name": "price",
          "type": "uint256"
        },
        {
          "internalType": "string",
          "name": "ipfsHash",
          "type": "string"
        },
        {
          "internalType": "enum ChainBizz.ProjectStatus",
          "name": "status",
          "type": "uint8"
        }
      ],
      "payable": false,
      "stateMutability": "view",
      "type": "function"
    },
    {
      "constant": true,
      "inputs": [],
      "name": "getAllProjects",
      "outputs": [
        {
          "internalType": "uint256[]",
          "name": "",
          "type": "uint256[]"
        }
      ],
      "payable": false,
      "stateMutability": "view",
      "type": "function"
    },
    {
      "constant": true,
      "inputs": [],
      "name": "getPublishedProjects",
      "outputs": [
        {
          "internalType": "uint256[]",
          "name": "",
          "type": "uint256[]"
        }
      ],
      "payable": false,
      "stateMutability": "view",
      "type": "function"
    },
    {
      "constant": true,
      "inputs": [],
      "name": "getMyProjects",
      "outputs": [
        {
          "internalType": "uint256[]",
          "name": "",
          "type": "uint256[]"
        }
      ],
      "payable": false,
      "stateMutability": "view",
      "type": "function"
    },
    {
      "constant": true,
      "inputs": [],
      "name": "getMyOffers",
      "outputs": [
        {
          "internalType": "uint256[]",
          "name": "",
          "type": "uint256[]"
        }
      ],
      "payable": false,
      "stateMutability": "view",
      "type": "function"
    },
    {
      "constant": true,
      "inputs": [],
      "name": "getMyReviews",
      "outputs": [
        {
          "internalType": "uint256[]",
          "name": "",
          "type": "uint256[]"
        }
      ],
      "payable": false,
      "stateMutability": "view",
      "type": "function"
    },
    {
      "constant": true,
      "inputs": [],
      "name": "getMyContracts",
      "outputs": [
        {
          "internalType": "uint256[]",
          "name": "",
          "type": "uint256[]"
        }
      ],
      "payable": false,
      "stateMutability": "view",
      "type": "function"
    },
    {
      "constant": true,
      "inputs": [],
      "name": "getDeliveries",
      "outputs": [
        {
          "internalType": "uint256[]",
          "name": "",
          "type": "uint256[]"
        }
      ],
      "payable": false,
      "stateMutability": "view",
      "type": "function"
    },
    {
      "constant": true,
      "inputs": [],
      "name": "getCompleted",
      "outputs": [
        {
          "internalType": "uint256[]",
          "name": "",
          "type": "uint256[]"
        }
      ],
      "payable": false,
      "stateMutability": "view",
      "type": "function"
    },
    {
      "constant": true,
      "inputs": [],
      "name": "getCanceled",
      "outputs": [
        {
          "internalType": "uint256[]",
          "name": "",
          "type": "uint256[]"
        }
      ],
      "payable": false,
      "stateMutability": "view",
      "type": "function"
    }
  ],
  "bytecode": "0x608060405234801561001057600080fd5b5060028054600160ff1990911617610100600160a81b0319166101003302179055614337806100406000396000f3fe6080604052600436106101c25760003560e01c80636aa633b6116100f7578063bc28d87811610095578063ef1b655311610064578063ef1b65531461093e578063ef706adf14610953578063f0f3f2c81461097d578063f7f2ccbf14610abb576101c2565b8063bc28d878146108d5578063bd140c4b146108ff578063c81bde1514610914578063e4f655b014610929576101c2565b806380d03829116100d157806380d0382914610857578063894ba8331461086c57806391ed206914610881578063b85a72d2146108ab576101c2565b80636aa633b6146106c65780636f65c717146106ef57806372f7c34e14610719576101c2565b8063367edd32116101645780635873f9981161013e5780635873f998146106405780635b54f9821461066a57806360c5cc3a1461067f578063629a064e1461069c576101c2565b8063367edd32146105615780634beb7e941461057657806357e583991461058b576101c2565b8063107046bd116101a0578063107046bd14610312578063138e0b261461046f578063280474501461048457806329ba314b146104ae576101c2565b8063037852c7146101c75780630850cd1e1461022c5780630a96054314610258575b600080fd5b3480156101d357600080fd5b506101dc610ae5565b60408051602080825283518183015283519192839290830191858101910280838360005b83811015610218578181015183820152602001610200565b505050509050019250505060405180910390f35b34801561023857600080fd5b506102566004803603602081101561024f57600080fd5b5035610c53565b005b34801561026457600080fd5b506102566004803603606081101561027b57600080fd5b81359190810190604081016020820135600160201b81111561029c57600080fd5b8201836020820111156102ae57600080fd5b803590602001918460018302840111600160201b831117156102cf57600080fd5b91908080601f0160208091040260200160405190810160405280939291908181526020018383808284376000920191909152509295505091359250610e45915050565b34801561031e57600080fd5b5061033c6004803603602081101561033557600080fd5b5035611074565b60405180888152602001876001600160a01b03166001600160a01b03168152602001866001600160a01b03166001600160a01b03168152602001806020018581526020018060200184600881111561039057fe5b60ff168152602001838103835287818151815260200191508051906020019080838360005b838110156103cd5781810151838201526020016103b5565b50505050905090810190601f1680156103fa5780820380516001836020036101000a031916815260200191505b50838103825285518152855160209182019187019080838360005b8381101561042d578181015183820152602001610415565b50505050905090810190601f16801561045a5780820380516001836020036101000a031916815260200191505b50995050505050505050505060405180910390f35b34801561047b57600080fd5b506101dc6111d3565b34801561049057600080fd5b50610256600480360360208110156104a757600080fd5b5035611358565b3480156104ba57600080fd5b50610256600480360360408110156104d157600080fd5b810190602081018135600160201b8111156104eb57600080fd5b8201836020820111156104fd57600080fd5b803590602001918460018302840111600160201b8311171561051e57600080fd5b91908080601f01602080910402602001604051908101604052809392919081815260200183838082843760009201919091525092955050913592506115df915050565b34801561056d57600080fd5b5061025661187e565b34801561058257600080fd5b506101dc6118db565b34801561059757600080fd5b50610256600480360360408110156105ae57600080fd5b81359190810190604081016020820135600160201b8111156105cf57600080fd5b8201836020820111156105e157600080fd5b803590602001918460208302840111600160201b8311171561060257600080fd5b919080806020026020016040519081016040528093929190818152602001838360200280828437600092019190915250929550611a3c945050505050565b34801561064c57600080fd5b506102566004803603602081101561066357600080fd5b5035611ce2565b34801561067657600080fd5b506101dc6120aa565b6102566004803603602081101561069557600080fd5b503561222f565b3480156106a857600080fd5b50610256600480360360208110156106bf57600080fd5b5035612442565b3480156106d257600080fd5b506106db612616565b604080519115158252519081900360200190f35b3480156106fb57600080fd5b506102566004803603602081101561071257600080fd5b503561261f565b34801561072557600080fd5b506102566004803603606081101561073c57600080fd5b810190602081018135600160201b81111561075657600080fd5b82018360208201111561076857600080fd5b803590602001918460018302840111600160201b8311171561078957600080fd5b91908080601f01602080910402602001604051908101604052809392919081815260200183838082843760009201919091525092958435959094909350604081019250602001359050600160201b8111156107e357600080fd5b8201836020820111156107f557600080fd5b803590602001918460018302840111600160201b8311171561081657600080fd5b91908080601f0160208091040260200160405190810160405280939291908181526020018383808284376000920191909152509295506127bc945050505050565b34801561086357600080fd5b506101dc612b0a565b34801561087857600080fd5b50610256612c3e565b34801561088d57600080fd5b50610256600480360360208110156108a457600080fd5b5035612dd4565b3480156108b757600080fd5b50610256600480360360208110156108ce57600080fd5b5035612fd7565b3480156108e157600080fd5b50610256600480360360208110156108f857600080fd5b5035613199565b34801561090b57600080fd5b506101dc6133bc565b34801561092057600080fd5b506101dc613541565b34801561093557600080fd5b506101dc6136ef565b34801561094a57600080fd5b506101dc61387d565b34801561095f57600080fd5b506102566004803603602081101561097657600080fd5b50356139de565b34801561098957600080fd5b506109a7600480360360208110156109a057600080fd5b5035613bc1565b604080516001600160a01b03808916825287166020820152606081018590529081016080820160a083018460088111156109dd57fe5b60ff168152602001838103835287818151815260200191508051906020019080838360005b83811015610a1a578181015183820152602001610a02565b50505050905090810190601f168015610a475780820380516001836020036101000a031916815260200191505b50838103825285518152855160209182019187019080838360005b83811015610a7a578181015183820152602001610a62565b50505050905090810190601f168015610aa75780820380516001836020036101000a031916815260200191505b509850505050505050505060405180910390f35b348015610ac757600080fd5b5061025660048036036020811015610ade57600080fd5b5035613e3e565b606060015460001415610b0c5760408051600080825260208201909252905b509050610c50565b6060600154604051908082528060200260200182016040528015610b3a578160200160208202803883390190505b509050600060015b6001548111610bdc576000818152602081905260409020600201546001600160a01b031633148015610b935750600260008281526020819052604090206006015460ff166008811115610b9157fe5b145b15610bd4576000818152602081905260409020548351849084908110610bb557fe5b6020908102919091010152610bd182600163ffffffff61402216565b91505b600101610b42565b50606081604051908082528060200260200182016040528015610c09578160200160208202803883390190505b50905060005b82811015610c4a57838181518110610c2357fe5b6020026020010151828281518110610c3757fe5b6020908102919091010152600101610c0f565b50925050505b90565b60025460ff161515600114610c995760405162461bcd60e51b815260040180806020018281038252602281526020018061423a6022913960400191505060405180910390fd5b600081815260208190526040902060018101546001600160a01b0316610cbf5750610e42565b60018101546001600160a01b03163314610d0a5760405162461bcd60e51b815260040180806020018281038252602681526020018061425c6026913960400191505060405180910390fd5b6001600682015460ff166008811115610d1f57fe5b14610d69576040805162461bcd60e51b815260206004820152601560248201527410d85b9b9bdd081899481d5b9c1d589b1a5cda1959605a1b604482015290519081900360640190fd5b60068101805460ff191690556004810154604080518481529081018290526060602082018181526003850180546002600182161561010002600019019091160492840183905233947f3525d4593ef70f97d7b99dfeab0e0be748aeb51f464f83bf0bbf5ab6badb45c894889492939192909190608083019085908015610e305780601f10610e0557610100808354040283529160200191610e30565b820191906000526020600020905b815481529060010190602001808311610e1357829003601f168201915b505094505050505060405180910390a2505b50565b60025460ff161515600114610e8b5760405162461bcd60e51b815260040180806020018281038252602281526020018061423a6022913960400191505060405180910390fd5b600083815260208190526040902060018101546001600160a01b0316610eb1575061106f565b60018101546001600160a01b03163314610efc5760405162461bcd60e51b815260040180806020018281038252602681526020018061425c6026913960400191505060405180910390fd5b6000600682015460ff166008811115610f1157fe5b14610f4d5760405162461bcd60e51b81526004018080602001828103825260218152602001806141f86021913960400191505060405180910390fd5b82518390610f98576040805162461bcd60e51b815260206004820152601360248201527210481d1a5d1b19481a5cc81c995c5d5a5c9959606a1b604482015290519081900360640190fd5b8351610fad9060038401906020870190614083565b50828260040181905550336001600160a01b03167f78ec34897e7f5ea3506eaaa6dcf2edc5ea8eea1c579f1f3d158e55233c602e6960015486866040518084815260200180602001838152602001828103825284818151815260200191508051906020019080838360005b83811015611030578181015183820152602001611018565b50505050905090810190601f16801561105d5780820380516001836020036101000a031916815260200191505b5094505050505060405180910390a250505b505050565b60006020818152918152604090819020805460018083015460028085015460038601805488516101009682161596909602600019011692909204601f810189900489028501890190975286845293966001600160a01b03928316969290941694939091908301828280156111295780601f106110fe57610100808354040283529160200191611129565b820191906000526020600020905b81548152906001019060200180831161110c57829003601f168201915b50505050600483015460058401805460408051602060026001851615610100026000190190941693909304601f810184900484028201840190925281815295969395939450908301828280156111c05780601f10611195576101008083540402835291602001916111c0565b820191906000526020600020905b8154815290600101906020018083116111a357829003601f168201915b5050506006909301549192505060ff1687565b6060600154600014156111f6576040805160008082526020820190925290610b04565b6060600154604051908082528060200260200182016040528015611224578160200160208202803883390190505b509050600060015b60015481116112ea576000818152602081905260409020600101546001600160a01b031633148061127657506000818152602081905260409020600201546001600160a01b031633145b80156112a15750600460008281526020819052604090206006015460ff16600881111561129f57fe5b145b156112e25760008181526020819052604090205483518490849081106112c357fe5b60209081029190910101526112df82600163ffffffff61402216565b91505b60010161122c565b50606081604051908082528060200260200182016040528015611317578160200160208202803883390190505b50905060005b82811015610c4a5783818151811061133157fe5b602002602001015182828151811061134557fe5b602090810291909101015260010161131d565b60025460ff16151560011461139e5760405162461bcd60e51b815260040180806020018281038252602281526020018061423a6022913960400191505060405180910390fd5b600081815260208190526040902060018101546001600160a01b03166113c45750610e42565b60018101546001600160a01b03163314611425576040805162461bcd60e51b815260206004820181905260248201527f596f7520617265206e6f74207468652070726f6a656374277320697373756572604482015290519081900360640190fd5b6003600682015460ff16600881111561143a57fe5b148061145857506004600682015460ff16600881111561145657fe5b145b6114a3576040805162461bcd60e51b815260206004820152601760248201527650726f6a656374206e6f7420696e2070726f677265737360481b604482015290519081900360640190fd5b600181015460048201546040516001600160a01b039092169181156108fc0291906000818181858888f193505050501580156114e3573d6000803e3d6000fd5b506006818101805460ff19169091179055600280820154600180840154600485015460408051888152908101829052606060208201818152600389018054610100978116159790970260001901909616979097049082018190526001600160a01b039586169695909316947fbe0490d452ff53df72b8d99df1c2a4711a2429c8dbb450f514d37b0b03e0db3794899490939291906080830190859080156115cb5780601f106115a0576101008083540402835291602001916115cb565b820191906000526020600020905b8154815290600101906020018083116115ae57829003601f168201915b505094505050505060405180910390a35050565b60025460ff1615156001146116255760405162461bcd60e51b815260040180806020018281038252602281526020018061423a6022913960400191505060405180910390fd5b81518290611670576040805162461bcd60e51b815260206004820152601360248201527210481d1a5d1b19481a5cc81c995c5d5a5c9959606a1b604482015290519081900360640190fd5b600180546116839163ffffffff61402216565b600181905560408051610100810182529182523360208084019190915260008383018190526060840187905260808401869052825191820190925281815260a083015260c0820190815260408051600680825260e08201909252602092830192909190820160c08038833950505090526001805460009081526020818152604091829020845181558482015193810180546001600160a01b03199081166001600160a01b0396871617909155928501516002820180549094169416939093179091556060830151805161175c9260038501920190614083565b506080820151600482015560a08201518051611782916005840191602090910190614083565b5060c082015160068201805460ff191660018360088111156117a057fe5b021790555060e082015180516117c0916007840191602090910190614101565b50905050336001600160a01b03167fc8e7a8f4fbf568a726fe7b162d56bb8a313fa7ec7f274c6390969cb322a0f79460015485856040518084815260200180602001838152602001828103825284818151815260200191508051906020019080838360005b8381101561183d578181015183820152602001611825565b50505050905090810190601f16801561186a5780820380516001836020036101000a031916815260200191505b5094505050505060405180910390a2505050565b60025461010090046001600160a01b031633146118cc5760405162461bcd60e51b81526004018080602001828103825260318152602001806142a36031913960400191505060405180910390fd5b6002805460ff19166001179055565b6060600154600014156118fe576040805160008082526020820190925290610b04565b606060015460405190808252806020026020018201604052801561192c578160200160208202803883390190505b509050600060015b60015481116119ce576000818152602081905260409020600101546001600160a01b0316158015906119855750600160008281526020819052604090206006015460ff16600881111561198357fe5b145b156119c65760008181526020819052604090205483518490849081106119a757fe5b60209081029190910101526119c382600163ffffffff61402216565b91505b600101611934565b506060816040519080825280602002602001820160405280156119fb578160200160208202803883390190505b50905060005b82811015610c4a57838181518110611a1557fe5b6020026020010151828281518110611a2957fe5b6020908102919091010152600101611a01565b60025460ff161515600114611a825760405162461bcd60e51b815260040180806020018281038252602281526020018061423a6022913960400191505060405180910390fd5b600082815260208190526040902060018101546001600160a01b0316611aa85750611cde565b60018101546001600160a01b03163314611af35760405162461bcd60e51b815260040180806020018281038252602681526020018061425c6026913960400191505060405180910390fd5b6004600682015460ff166008811115611b0857fe5b14611b445760405162461bcd60e51b81526004018080602001828103825260218152602001806142826021913960400191505060405180910390fd5b600281015460048201546040516001600160a01b039092169181156108fc0291906000818181858888f19350505050158015611b84573d6000803e3d6000fd5b5060068101805460ff191660051790558151611ba99060078301906020850190614101565b50600281810154600180840154600485015460408051898152908101829052608060208201818152600389018054610100978116159790970260001901909616979097049082018190526001600160a01b039586169695909316947f7699d998de1b400eed330d17d18b8b034449c0ad80efcd16165556de9c1bafd3948a9490939260078a01929091606083019060a084019087908015611c8b5780601f10611c6057610100808354040283529160200191611c8b565b820191906000526020600020905b815481529060010190602001808311611c6e57829003601f168201915b50508381038252848181548152602001915080548015611cca57602002820191906000526020600020905b815481526020019060010190808311611cb6575b5050965050505050505060405180910390a3505b5050565b60025460ff161515600114611d285760405162461bcd60e51b815260040180806020018281038252602281526020018061423a6022913960400191505060405180910390fd5b611d3061413b565b6000828152602081815260409182902082516101008082018552825482526001808401546001600160a01b0390811684870152600280860154909116848801526003850180548851938116159094026000190190931604601f810186900486028201860190965285815291949293606086019390830182828015611df55780601f10611dca57610100808354040283529160200191611df5565b820191906000526020600020905b815481529060010190602001808311611dd857829003601f168201915b5050509183525050600482015460208083019190915260058301805460408051601f60026000196101006001871615020190941693909304928301859004850281018501825282815294019392830182828015611e935780601f10611e6857610100808354040283529160200191611e93565b820191906000526020600020905b815481529060010190602001808311611e7657829003601f168201915b5050509183525050600682015460209091019060ff166008811115611eb457fe5b6008811115611ebf57fe5b815260200160078201805480602002602001604051908101604052809291908181526020018280548015611f1257602002820191906000526020600020905b815481526020019060010190808311611efe575b5050509190925250505060208101519091506001600160a01b0316611f375750610e42565b60208101516001600160a01b03163314611f825760405162461bcd60e51b815260040180806020018281038252602681526020018061425c6026913960400191505060405180910390fd5b606081015160008381526020819052604081208181556001810180546001600160a01b0319908116909155600282018054909116905590611fc6600383018261417f565b6004820160009055600582016000611fde919061417f565b60068201805460ff19169055611ff86007830160006141c3565b5050336001600160a01b03167f0bac8d70ddda9ec612d317fa2968f6f746b59169d04a223ec870eb6447a7c7f484836040518083815260200180602001828103825283818151815260200191508051906020019080838360005b8381101561206a578181015183820152602001612052565b50505050905090810190601f1680156120975780820380516001836020036101000a031916815260200191505b50935050505060405180910390a2505050565b6060600154600014156120cd576040805160008082526020820190925290610b04565b60606001546040519080825280602002602001820160405280156120fb578160200160208202803883390190505b509050600060015b60015481116121c1576000818152602081905260409020600101546001600160a01b031633148061214d57506000818152602081905260409020600201546001600160a01b031633145b80156121785750600560008281526020819052604090206006015460ff16600881111561217657fe5b145b156121b957600081815260208190526040902054835184908490811061219a57fe5b60209081029190910101526121b682600163ffffffff61402216565b91505b600101612103565b506060816040519080825280602002602001820160405280156121ee578160200160208202803883390190505b50905060005b82811015610c4a5783818151811061220857fe5b602002602001015182828151811061221c57fe5b60209081029190910101526001016121f4565b60025460ff1615156001146122755760405162461bcd60e51b815260040180806020018281038252602281526020018061423a6022913960400191505060405180910390fd5b600081815260208190526040902060018101546001600160a01b031661229b5750610e42565b60018101546001600160a01b031633146122e65760405162461bcd60e51b815260040180806020018281038252602681526020018061425c6026913960400191505060405180910390fd5b6002600682015460ff1660088111156122fb57fe5b14612346576040805162461bcd60e51b815260206004820152601660248201527550726f706f73616c206e6f7420696e2072657669657760501b604482015290519081900360640190fd5b806004015434146123885760405162461bcd60e51b815260040180806020018281038252602f8152602001806142d4602f913960400191505060405180910390fd5b60068101805460ff191660039081179091556002808301546001808501546004860154604080518981529081018290526060602082018181529789018054610100968116159690960260001901909516969096049581018690526001600160a01b039485169694909216947fd0ca6107f6c9513954ca859c885b1e8b434687b6cf5e40625574d53dda8422ed94899493916080830190859080156115cb5780601f106115a0576101008083540402835291602001916115cb565b60025460ff1615156001146124885760405162461bcd60e51b815260040180806020018281038252602281526020018061423a6022913960400191505060405180910390fd5b600081815260208190526040902060018101546001600160a01b03166124ae5750610e42565b60028101546001600160a01b031633146124f95760405162461bcd60e51b81526004018080602001828103825260218152602001806142196021913960400191505060405180910390fd5b6003600682015460ff16600881111561250e57fe5b1461255a576040805162461bcd60e51b815260206004820152601760248201527650726f6a656374206e6f7420696e2070726f677265737360481b604482015290519081900360640190fd5b60068101805460ff191660049081179091556002808301546001808501549385015460408051888152908101829052606060208201818152600389018054610100968116159690960260001901909516969096049082018190526001600160a01b039485169694909416947f2c29e86efe7dba61218108fc48fc467f0b2d89a5dd6741ff0df4b17bdf5cab68948994939291906080830190859080156115cb5780601f106115a0576101008083540402835291602001916115cb565b60025460ff1690565b60025460ff1615156001146126655760405162461bcd60e51b815260040180806020018281038252602281526020018061423a6022913960400191505060405180910390fd5b600081815260208190526040902060018101546001600160a01b031661268b5750610e42565b6001600682015460ff1660088111156126a057fe5b146126f2576040805162461bcd60e51b815260206004820152601960248201527f50726f6a656374206e6f206d6f726520617661696c61626c6500000000000000604482015290519081900360640190fd5b600280820180546001600160a01b0319163317905560068201805460ff191660018302179055506001818101546004830154604080518681529081018290526060602082018181526003870180546002610100988216159890980260001901169690960491830182905233956001600160a01b03909516947f337b4516025ec150291d21f457dad5d6d43ea3f7da34432124932cd2a6b700b194899491939092906080830190859080156115cb5780601f106115a0576101008083540402835291602001916115cb565b60025460ff1615156001146128025760405162461bcd60e51b815260040180806020018281038252602281526020018061423a6022913960400191505060405180910390fd5b8251839061284d576040805162461bcd60e51b815260206004820152601360248201527210481d1a5d1b19481a5cc81c995c5d5a5c9959606a1b604482015290519081900360640190fd5b815182906128a2576040805162461bcd60e51b815260206004820152601a60248201527f41206861736820746f2049504653206973207265717569726564000000000000604482015290519081900360640190fd5b600180546128b59163ffffffff61402216565b60018181556040805161010081018252928352336020840152600090830152606082018790526080820186905260a0820185905260c0820190815260408051600680825260e08201909252602092830192909190820160c08038833950505090526001805460009081526020818152604091829020845181558482015193810180546001600160a01b03199081166001600160a01b0396871617909155928501516002820180549094169416939093179091556060830151805161297f9260038501920190614083565b506080820151600482015560a082015180516129a5916005840191602090910190614083565b5060c082015160068201805460ff191660018360088111156129c357fe5b021790555060e082015180516129e3916007840191602090910190614101565b50905050336001600160a01b03167fea07c326ec88ddea19d72529e511ce438c2cd368f463f890406ab6582b2dc0db600154878787604051808581526020018060200184815260200180602001838103835286818151815260200191508051906020019080838360005b83811015612a65578181015183820152602001612a4d565b50505050905090810190601f168015612a925780820380516001836020036101000a031916815260200191505b50838103825284518152845160209182019186019080838360005b83811015612ac5578181015183820152602001612aad565b50505050905090810190601f168015612af25780820380516001836020036101000a031916815260200191505b50965050505050505060405180910390a25050505050565b606060015460001415612b2d576040805160008082526020820190925290610b04565b6060600154604051908082528060200260200182016040528015612b5b578160200160208202803883390190505b509050600060015b6001548111612bd0576000818152602081905260409020600101546001600160a01b031615612bc8576000818152602081905260409020548351849084908110612ba957fe5b6020908102919091010152612bc582600163ffffffff61402216565b91505b600101612b63565b50606081604051908082528060200260200182016040528015612bfd578160200160208202803883390190505b50905060005b82811015610c4a57838181518110612c1757fe5b6020026020010151828281518110612c2b57fe5b6020908102919091010152600101612c03565b60025461010090046001600160a01b03163314612c8c5760405162461bcd60e51b81526004018080602001828103825260318152602001806142a36031913960400191505060405180910390fd5b60025460ff161515600114612cd25760405162461bcd60e51b815260040180806020018281038252602281526020018061423a6022913960400191505060405180910390fd5b6002805460ff19169055600154612ce857612dd2565b6060600154604051908082528060200260200182016040528015612d16578160200160208202803883390190505b509050600060015b600154811161106f5760008181526020819052604090206003600682015460ff166008811115612d4a57fe5b1480612d6857506004600682015460ff166008811115612d6657fe5b145b15612dc957600481015415612db957600181015460048201546040516001600160a01b039092169181156108fc0291906000818181858888f19350505050158015612db7573d6000803e3d6000fd5b505b60068101805460ff191660071790555b50600101612d1e565b565b60025460ff161515600114612e1a5760405162461bcd60e51b815260040180806020018281038252602281526020018061423a6022913960400191505060405180910390fd5b600081815260208190526040902060018101546001600160a01b0316612e405750610e42565b60018101546001600160a01b03163314612e8b5760405162461bcd60e51b815260040180806020018281038252602681526020018061425c6026913960400191505060405180910390fd5b6000600682015460ff166008811115612ea057fe5b14612ee8576040805162461bcd60e51b815260206004820152601360248201527210d85b9b9bdd081899481c1d589b1a5cda1959606a1b604482015290519081900360640190fd5b60068101805460ff191660019081179091556004820154604080518581529081018290526080602082018181526003860180546002968116156101000260001901169590950491830182905233947fea07c326ec88ddea19d72529e511ce438c2cd368f463f890406ab6582b2dc0db9488949193909290606083019060a084019086908015612fb85780601f10612f8d57610100808354040283529160200191612fb8565b820191906000526020600020905b815481529060010190602001808311612f9b57829003601f168201915b5050928303905250600081526040805191829003019350915050a25050565b60025460ff16151560011461301d5760405162461bcd60e51b815260040180806020018281038252602281526020018061423a6022913960400191505060405180910390fd5b600081815260208190526040902060018101546001600160a01b03166130435750610e42565b60018101546001600160a01b0316331461308e5760405162461bcd60e51b815260040180806020018281038252602681526020018061425c6026913960400191505060405180910390fd5b6004600682015460ff1660088111156130a357fe5b146130df5760405162461bcd60e51b81526004018080602001828103825260218152602001806142826021913960400191505060405180910390fd5b60068101805460ff191660039081179091556002808301546001808501546004860154604080518981529081018290526060602082018181529789018054610100968116159690960260001901909516969096049581018690526001600160a01b039485169694909216947f45db355d424e661e8b7ea210fd36cd8224f4955611152ce93518a27f205467e494899493916080830190859080156115cb5780601f106115a0576101008083540402835291602001916115cb565b60025460ff1615156001146131df5760405162461bcd60e51b815260040180806020018281038252602281526020018061423a6022913960400191505060405180910390fd5b600081815260208190526040902060018101546001600160a01b03166132055750610e42565b60018101546001600160a01b031633146132505760405162461bcd60e51b815260040180806020018281038252602681526020018061425c6026913960400191505060405180910390fd5b6002600682015460ff16600881111561326557fe5b146132b0576040805162461bcd60e51b815260206004820152601660248201527550726f706f73616c206e6f7420696e2072657669657760501b604482015290519081900360640190fd5b6002818101805460068401805460ff191660019081179091556001600160a01b0319821690925581840154600485015460408051888152908101829052606060208201818152600389018054610100988116159890980260001901909716979097049082018190526001600160a01b0394851696879695909416947f4c596893f217ff7756c8fc77bea24399406130928fc25e6ace71d6121fd2643f948a94919391926080830190859080156133a75780601f1061337c576101008083540402835291602001916133a7565b820191906000526020600020905b81548152906001019060200180831161338a57829003601f168201915b505094505050505060405180910390a3505050565b6060600154600014156133df576040805160008082526020820190925290610b04565b606060015460405190808252806020026020018201604052801561340d578160200160208202803883390190505b509050600060015b60015481116134d3576000818152602081905260409020600101546001600160a01b031633148061345f57506000818152602081905260409020600201546001600160a01b031633145b801561348a5750600660008281526020819052604090206006015460ff16600881111561348857fe5b145b156134cb5760008181526020819052604090205483518490849081106134ac57fe5b60209081029190910101526134c882600163ffffffff61402216565b91505b600101613415565b50606081604051908082528060200260200182016040528015613500578160200160208202803883390190505b50905060005b82811015610c4a5783818151811061351a57fe5b602002602001015182828151811061352e57fe5b6020908102919091010152600101613506565b606060015460001415613564576040805160008082526020820190925290610b04565b6060600154604051908082528060200260200182016040528015613592578160200160208202803883390190505b509050600060015b6001548111613681576000818152602081905260409020600101546001600160a01b03163314806135e457506000818152602081905260409020600201546001600160a01b031633145b80156136385750600360008281526020819052604090206006015460ff16600881111561360d57fe5b14806136385750600460008281526020819052604090206006015460ff16600881111561363657fe5b145b1561367957600081815260208190526040902054835184908490811061365a57fe5b602090810291909101015261367682600163ffffffff61402216565b91505b60010161359a565b506060816040519080825280602002602001820160405280156136ae578160200160208202803883390190505b50905060005b82811015610c4a578381815181106136c857fe5b60200260200101518282815181106136dc57fe5b60209081029190910101526001016136b4565b606060015460001415613712576040805160008082526020820190925290610b04565b6060600154604051908082528060200260200182016040528015613740578160200160208202803883390190505b509050600060015b600154811161380f576000818152602081905260409020600101546001600160a01b03163314801561379a5750600560008281526020819052604090206006015460ff16600881111561379757fe5b14155b80156137c65750600660008281526020819052604090206006015460ff1660088111156137c357fe5b14155b156138075760008181526020819052604090205483518490849081106137e857fe5b602090810291909101015261380482600163ffffffff61402216565b91505b600101613748565b5060608160405190808252806020026020018201604052801561383c578160200160208202803883390190505b50905060005b82811015610c4a5783818151811061385657fe5b602002602001015182828151811061386a57fe5b6020908102919091010152600101613842565b6060600154600014156138a0576040805160008082526020820190925290610b04565b60606001546040519080825280602002602001820160405280156138ce578160200160208202803883390190505b509050600060015b6001548111613970576000818152602081905260409020600101546001600160a01b0316331480156139275750600260008281526020819052604090206006015460ff16600881111561392557fe5b145b1561396857600081815260208190526040902054835184908490811061394957fe5b602090810291909101015261396582600163ffffffff61402216565b91505b6001016138d6565b5060608160405190808252806020026020018201604052801561399d578160200160208202803883390190505b50905060005b82811015610c4a578381815181106139b757fe5b60200260200101518282815181106139cb57fe5b60209081029190910101526001016139a3565b60025460ff161515600114613a245760405162461bcd60e51b815260040180806020018281038252602281526020018061423a6022913960400191505060405180910390fd5b600081815260208190526040902060018101546001600160a01b0316613a4a5750610e42565b60028101546001600160a01b03163314613a955760405162461bcd60e51b81526004018080602001828103825260218152602001806142196021913960400191505060405180910390fd5b6002600682015460ff166008811115613aaa57fe5b14613af5576040805162461bcd60e51b815260206004820152601660248201527550726f706f73616c206e6f7420696e2072657669657760501b604482015290519081900360640190fd5b6002818101805460068401805460ff191660019081179091556001600160a01b0319821690925581840154600485015460408051888152908101829052606060208201818152600389018054610100988116159890980260001901909716979097049082018190526001600160a01b0394851696879695909416947fda2bae36f5d87ea886fd53cadaade9c848558e3ba0ce0b05a90d6203787fec45948a94919391926080830190859080156133a75780601f1061337c576101008083540402835291602001916133a7565b6000806060600060606000613bd461413b565b6000888152602081815260409182902082516101008082018552825482526001808401546001600160a01b0390811684870152600280860154909116848801526003850180548851938116159094026000190190931604601f810186900486028201860190965285815291949293606086019390830182828015613c995780601f10613c6e57610100808354040283529160200191613c99565b820191906000526020600020905b815481529060010190602001808311613c7c57829003601f168201915b5050509183525050600482015460208083019190915260058301805460408051601f60026000196101006001871615020190941693909304928301859004850281018501825282815294019392830182828015613d375780601f10613d0c57610100808354040283529160200191613d37565b820191906000526020600020905b815481529060010190602001808311613d1a57829003601f168201915b5050509183525050600682015460209091019060ff166008811115613d5857fe5b6008811115613d6357fe5b815260200160078201805480602002602001604051908101604052809291908181526020018280548015613db657602002820191906000526020600020905b815481526020019060010190808311613da2575b5050509190925250505060208101519091506001600160a01b0316613e06575050604080516020808201835260008083528351918201909352828152919650869550935084925090506008613e35565b602081015160408201516060830151608084015160a085015160c090950151939a509198509650945090925090505b91939550919395565b60025460ff161515600114613e845760405162461bcd60e51b815260040180806020018281038252602281526020018061423a6022913960400191505060405180910390fd5b600081815260208190526040902060018101546001600160a01b0316613eaa5750610e42565b60028101546001600160a01b03163314613ef55760405162461bcd60e51b81526004018080602001828103825260218152602001806142196021913960400191505060405180910390fd5b6003600682015460ff166008811115613f0a57fe5b14613f56576040805162461bcd60e51b815260206004820152601760248201527650726f6a656374206e6f7420696e2070726f677265737360481b604482015290519081900360640190fd5b6002818101805460068401805460ff191660019081179091556001600160a01b0319821690925581840154600485015460408051888152908101829052606060208201818152600389018054610100988116159890980260001901909716979097049082018190526001600160a01b0394851696879695909416947fd1ed06115c7e42f61501cf18bfd02f10359381afe0d93bc31f146a45a4fb78ab948a94919391926080830190859080156133a75780601f1061337c576101008083540402835291602001916133a7565b60008282018381101561407c576040805162461bcd60e51b815260206004820152601b60248201527f536166654d6174683a206164646974696f6e206f766572666c6f770000000000604482015290519081900360640190fd5b9392505050565b828054600181600116156101000203166002900490600052602060002090601f016020900481019282601f106140c457805160ff19168380011785556140f1565b828001600101855582156140f1579182015b828111156140f15782518255916020019190600101906140d6565b506140fd9291506141dd565b5090565b8280548282559060005260206000209081019282156140f157916020028201828111156140f15782518255916020019190600101906140d6565b604080516101008101825260008082526020820181905291810182905260608082018190526080820183905260a08201529060c08201908152602001606081525090565b50805460018160011615610100020316600290046000825580601f106141a55750610e42565b601f016020900490600052602060002090810190610e4291906141dd565b5080546000825590600052602060002090810190610e4291905b610c5091905b808211156140fd57600081556001016141e356fe43616e6e6f742062652075706461746564207768696c65207075626c6973686564596f7520617265206e6f742074686520736572766963652066756c66696c6c657254686520636f6e7472616374206973206e6f74206d6f726520617661696c61626c65596f7520617265206e6f742074686520697373756572206f6620746869732070726f6a65637450726f6a656374206e6f7420696e2076616c69646174696f6e2070726f63657373546869732063616c6c206973206f6e6c7920616c6c6f7765722062792074686520636f6e74726163742773206f776e6572596f7572206465706f73697420646f65736e2774206d617463682074686520636f6e74726163742773207072696365a265627a7a72315820ac3b2b82710ffc229c95ace87df347c64b15ad752cf6aa530071f4839506e4a264736f6c63430005100032",
  "source": "pragma solidity >=0.4.21 <0.7.0;\n\nimport \"openzeppelin-solidity/contracts/math/SafeMath.sol\";\n\n/// @title Decentralised business platform\n/// @author Said Eloudrhiri (ChainSkills) - Devoxx Morocco 2019\n/// @notice Learn how to create a smart contract to simulate a decentralised business platform to issue and fulfill projects\n/// @dev This smart contract is for illustration purpose only and should not be used in the mainNet\ncontract ChainBizz {\n    using SafeMath for uint256;\n\n    /*\n   * Enum\n   */\n\n    // Defines the status of the project\n    enum ProjectStatus {\n        Draft,\n        Available,\n        InReview,\n        OnGoing,\n        Validate,\n        Completed,\n        Canceled,\n        Refunded,\n        Unknown\n    }\n\n    /*\n   * Structs\n   */\n\n    // Description of a project\n    struct ProjectItem {\n        uint256 id; // unique ID\n        address payable issuer;\n        address payable fulfiller;\n        string title;\n        uint256 price; // price in Wei\n        string ipfsHash;\n        ProjectStatus status;\n        uint256[] ratings;\n    }\n\n    /*\n   * Storage\n   */\n\n    // List of projects\n    mapping(uint256 => ProjectItem) public projects;\n\n    // Number of registered projects\n    uint256 projectsCounter;\n\n    // Defines if the contract is still enable or not\n    bool enabledContract;\n\n    // Keep contract's issuer address\n    address owner;\n\n    /*\n   * Modifiers\n   */\n\n    modifier onlyEnable() {\n        require(enabledContract == true, \"The contract is not more available\");\n        _;\n    }\n\n    modifier onlyOwner() {\n        require(\n            msg.sender == owner,\n            \"This call is only allower by the contract's owner\"\n        );\n        _;\n    }\n\n    /*\n   * Events\n   */\n    event NewProject(\n        uint256 id,\n        address indexed issuer,\n        string title,\n        uint256 price\n    );\n    event UpdateProject(\n        uint256 id,\n        address indexed issuer,\n        string title,\n        uint256 price\n    );\n    event RemoveProject(uint256 id, address indexed issuer, string title);\n    event PublishedProject(\n        uint256 id,\n        address indexed issuer,\n        string title,\n        uint256 price,\n        string ipfsHash\n    );\n    event UnpublishedProject(\n        uint256 id,\n        address indexed issuer,\n        string title,\n        uint256 price\n    );\n    event OfferSubmitted(\n        uint256 id,\n        address indexed issuer,\n        address indexed fulfiller,\n        string title,\n        uint256 price\n    );\n    event OfferCanceled(\n        uint256 id,\n        address indexed issuer,\n        address indexed fulfiller,\n        string title,\n        uint256 price\n    );\n    event AcceptProposal(\n        uint256 id,\n        address indexed issuer,\n        address indexed fulfiller,\n        string title,\n        uint256 price\n    );\n    event RejectProposal(\n        uint256 id,\n        address indexed issuer,\n        address indexed fulfiller,\n        string title,\n        uint256 price\n    );\n    event ProjectDelivered(\n        uint256 id,\n        address indexed issuer,\n        address indexed fulfiller,\n        string title,\n        uint256 price\n    );\n    event ServicesCanceled(\n        uint256 id,\n        address indexed issuer,\n        address indexed fulfiller,\n        string title,\n        uint256 price\n    );\n    event DeliveryAccepted(\n        uint256 id,\n        address indexed issuer,\n        address indexed fulfiller,\n        string title,\n        uint256 price,\n        uint256[] ratings\n    );\n    event DeliveryRejected(\n        uint256 id,\n        address indexed issuer,\n        address indexed fulfiller,\n        string title,\n        uint256 price\n    );\n    event ContractCanceled(\n        uint256 id,\n        address indexed issuer,\n        address indexed fulfiller,\n        string title,\n        uint256 price\n    );\n\n    /*\n  * Public functions\n  */\n\n    constructor() public {\n        enabledContract = true;\n        owner = msg.sender;\n    }\n\n    /// @dev Enable the usage of the contract\n    function enableContract() public onlyOwner {\n        enabledContract = true;\n    }\n\n    /// @dev Disable the usage of the contract, change the status of all running projects and payback all issuers\n    function disableContract() public onlyOwner onlyEnable {\n        // First, we disable the contract\n        enabledContract = false;\n\n        // Then, we refund issuers for their running contracts\n\n        // At least one project?\n        if (projectsCounter == 0) {\n            return;\n        }\n\n        // prepare output array\n        uint256[] memory projectIDs = new uint256[](projectsCounter);\n\n        // iterate over projects\n        uint256 numberOfProjects = 0;\n        for (uint256 i = 1; i <= projectsCounter; i++) {\n            // retrieve the project\n            ProjectItem storage project = projects[i];\n\n            // check if this project is published\n            if (\n                (project.status == ProjectStatus.OnGoing) ||\n                (project.status == ProjectStatus.Validate)\n            ) {\n                // Refund the issuer\n                if (project.price > 0) {\n                    // pay back the issuer\n                    project.issuer.transfer(project.price);\n                }\n\n                // project refunded\n                project.status = ProjectStatus.Refunded;\n            }\n        }\n    }\n\n    //\n    // Setters\n    //\n\n    // Add a new project\n    function addProject(string memory _title, uint256 _price)\n        public\n        onlyEnable\n    {\n        // a title is required\n        bytes memory title = bytes(_title);\n        require(title.length > 0, \"A title is required\");\n\n        // new project\n        projectsCounter = projectsCounter.add(1);\n\n        // store the new project\n        projects[projectsCounter] = ProjectItem(\n            projectsCounter,\n            msg.sender,\n            address(0x0),\n            _title,\n            _price,\n            \"\",\n            ProjectStatus.Draft,\n            new uint256[](6)\n        );\n\n        emit NewProject(projectsCounter, msg.sender, _title, _price);\n    }\n\n    // Update an unpublished project\n    function updateProject(uint256 _id, string memory _title, uint256 _price)\n        public\n        onlyEnable\n    {\n        // retrieve the project\n        ProjectItem storage project = projects[_id];\n\n        // ensure that this project exists\n        if (project.issuer == address(0x0)) {\n            return;\n        }\n\n        // do we own this project?\n        require(\n            project.issuer == msg.sender,\n            \"You are not the issuer of this project\"\n        );\n\n        // ready to be published?\n        require(\n            project.status == ProjectStatus.Draft,\n            \"Cannot be updated while published\"\n        );\n\n        // a title is required\n        bytes memory title = bytes(_title);\n        require(title.length > 0, \"A title is required\");\n\n        // update the project\n        project.title = _title;\n        project.price = _price;\n\n        emit UpdateProject(projectsCounter, msg.sender, _title, _price);\n    }\n\n    // Remove an unpublished project\n    function removeProject(uint256 _id) public onlyEnable {\n        // retrieve the project\n        ProjectItem memory project = projects[_id];\n\n        // ensure that this project exists\n        if (project.issuer == address(0x0)) {\n            return;\n        }\n\n        // do we own this project?\n        require(\n            project.issuer == msg.sender,\n            \"You are not the issuer of this project\"\n        );\n\n        // keep title for future use\n        string memory title = project.title;\n\n        // remove the project\n        delete projects[_id];\n\n        emit RemoveProject(_id, msg.sender, title);\n    }\n\n    // Publish the project to seek for fulfillers\n    function publishProject(\n        string memory _title,\n        uint256 _price,\n        string memory _ipfsHash\n    ) public onlyEnable {\n        // a title is required\n        bytes memory title = bytes(_title);\n        require(title.length > 0, \"A title is required\");\n\n        // The hash to IPFS is required\n        bytes memory ipfsHash = bytes(_ipfsHash);\n        require(ipfsHash.length > 0, \"A hash to IPFS is required\");\n\n        // new project\n        projectsCounter = projectsCounter.add(1);\n\n        // store the new project\n        projects[projectsCounter] = ProjectItem(\n            projectsCounter,\n            msg.sender,\n            address(0x0),\n            _title,\n            _price,\n            _ipfsHash,\n            ProjectStatus.Available,\n            new uint256[](6)\n        );\n\n        emit PublishedProject(\n            projectsCounter,\n            msg.sender,\n            _title,\n            _price,\n            _ipfsHash\n        );\n    }\n\n    // Publish the project to seek for fulfillers\n    function publishProjectOld(uint256 _id) public onlyEnable {\n        // retrieve the project\n        ProjectItem storage project = projects[_id];\n\n        // ensure that this project exists\n        if (project.issuer == address(0x0)) {\n            return;\n        }\n\n        // do we own this project?\n        require(\n            project.issuer == msg.sender,\n            \"You are not the issuer of this project\"\n        );\n\n        // ready to be published?\n        require(project.status == ProjectStatus.Draft, \"Cannot be published\");\n\n        // publish the project to be available for services\n        project.status = ProjectStatus.Available;\n\n        emit PublishedProject(\n            _id,\n            msg.sender,\n            project.title,\n            project.price,\n            \"\"\n        );\n    }\n\n    // Unpublish the project\n    // A project can be unpublished ONLY if it's already published and not already part of a contract\n    function unpublishProject(uint256 _id) public onlyEnable {\n        // retrieve the project\n        ProjectItem storage project = projects[_id];\n\n        // ensure that this project exists\n        if (project.issuer == address(0x0)) {\n            return;\n        }\n\n        // do we own this project?\n        require(\n            project.issuer == msg.sender,\n            \"You are not the issuer of this project\"\n        );\n\n        // ready to be unpublished?\n        require(\n            project.status == ProjectStatus.Available,\n            \"Cannot be unpublished\"\n        );\n\n        // unpublish the project\n        project.status = ProjectStatus.Draft;\n\n        emit UnpublishedProject(_id, msg.sender, project.title, project.price);\n    }\n\n    // Offer services for the project\n    // A fulfiller offers his/her services to perform the project\n    function submitOffer(uint256 _id) public onlyEnable {\n        // retrieve the project\n        ProjectItem storage project = projects[_id];\n\n        // ensure that this project exists\n        if (project.issuer == address(0x0)) {\n            return;\n        }\n\n        // is the project available?\n        require(\n            project.status == ProjectStatus.Available,\n            \"Project no more available\"\n        );\n\n        // store the address of the fulfiller\n        project.fulfiller = msg.sender;\n\n        // project is under review\n        project.status = ProjectStatus.InReview;\n\n        emit OfferSubmitted(\n            _id,\n            project.issuer,\n            msg.sender,\n            project.title,\n            project.price\n        );\n    }\n\n    // Cancel offer made by the fulfiller\n    // A fulfiller cancels his/her offer to perform the project\n    function cancelOffer(uint256 _id) public onlyEnable {\n        // retrieve the project\n        ProjectItem storage project = projects[_id];\n\n        // ensure that this project exists\n        if (project.issuer == address(0x0)) {\n            return;\n        }\n\n        // are we the service fulfiller?\n        require(\n            project.fulfiller == msg.sender,\n            \"You are not the service fulfiller\"\n        );\n\n        // is the project in review?\n        require(\n            project.status == ProjectStatus.InReview,\n            \"Proposal not in review\"\n        );\n\n        // project is now available\n        address payable fulfiller = project.fulfiller;\n        project.status = ProjectStatus.Available;\n        project.fulfiller = address(0x0);\n\n        emit OfferCanceled(\n            _id,\n            project.issuer,\n            fulfiller,\n            project.title,\n            project.price\n        );\n    }\n\n    // Accept services from the fulfiller\n    // The issuer accepts the services offered by the fulfiller\n    function acceptProposal(uint256 _id) public payable onlyEnable {\n        // retrieve the project\n        ProjectItem storage project = projects[_id];\n\n        // ensure that this project exists\n        if (project.issuer == address(0x0)) {\n            return;\n        }\n\n        // do we own this project?\n        require(\n            project.issuer == msg.sender,\n            \"You are not the issuer of this project\"\n        );\n\n        // is the project in review?\n        require(\n            project.status == ProjectStatus.InReview,\n            \"Proposal not in review\"\n        );\n\n        // is the issuer has deposit the requeste amount?\n        require(\n            msg.value == project.price,\n            \"Your deposit doesn't match the contract's price\"\n        );\n\n        // project is now ongoing\n        project.status = ProjectStatus.OnGoing;\n\n        emit AcceptProposal(\n            _id,\n            project.issuer,\n            project.fulfiller,\n            project.title,\n            project.price\n        );\n    }\n\n    // Reject proposal from the fulfiller\n    // The issuer rejects the services offered by the fulfiller\n    function rejectProposal(uint256 _id) public onlyEnable {\n        // retrieve the project\n        ProjectItem storage project = projects[_id];\n\n        // ensure that this project exists\n        if (project.issuer == address(0x0)) {\n            return;\n        }\n\n        // do we own this project?\n        require(\n            project.issuer == msg.sender,\n            \"You are not the issuer of this project\"\n        );\n\n        // is the project in review?\n        require(\n            project.status == ProjectStatus.InReview,\n            \"Proposal not in review\"\n        );\n\n        // project is now available\n        address payable fulfiller = project.fulfiller;\n        project.status = ProjectStatus.Available;\n        project.fulfiller = address(0x0);\n\n        emit RejectProposal(\n            _id,\n            project.issuer,\n            fulfiller,\n            project.title,\n            project.price\n        );\n    }\n\n    // Deliver the project to the customer\n    // The fulfiller delivers the project to the issuer\n    function deliverProject(uint256 _id) public onlyEnable {\n        // retrieve the project\n        ProjectItem storage project = projects[_id];\n\n        // ensure that this project exists\n        if (project.issuer == address(0x0)) {\n            return;\n        }\n\n        // are we the service fulfiller?\n        require(\n            project.fulfiller == msg.sender,\n            \"You are not the service fulfiller\"\n        );\n\n        // is the project ongoing?\n        require(\n            project.status == ProjectStatus.OnGoing,\n            \"Project not in progress\"\n        );\n\n        // project is now validation process\n        project.status = ProjectStatus.Validate;\n\n        emit ProjectDelivered(\n            _id,\n            project.issuer,\n            project.fulfiller,\n            project.title,\n            project.price\n        );\n    }\n\n    // Cancel services from the fulfiller\n    // The fulfiller cancels the services performed for the project\n    function cancelServices(uint256 _id) public onlyEnable {\n        // retrieve the project\n        ProjectItem storage project = projects[_id];\n\n        // ensure that this project exists\n        if (project.issuer == address(0x0)) {\n            return;\n        }\n\n        // are we the service fulfiller?\n        require(\n            project.fulfiller == msg.sender,\n            \"You are not the service fulfiller\"\n        );\n\n        // is the project ongoing?\n        require(\n            project.status == ProjectStatus.OnGoing,\n            \"Project not in progress\"\n        );\n\n        // project becomes available\n        address payable fulfiller = project.fulfiller;\n        project.status = ProjectStatus.Available;\n        project.fulfiller = address(0x0);\n\n        emit ServicesCanceled(\n            _id,\n            project.issuer,\n            fulfiller,\n            project.title,\n            project.price\n        );\n    }\n\n    // Accept the project delivery from the fulfiller\n    // The issuer accepts the project delivered by the fulfiller\n    function acceptDelivery(uint256 _id, uint256[] memory _ratings)\n        public\n        onlyEnable\n    {\n        // retrieve the project\n        ProjectItem storage project = projects[_id];\n\n        // ensure that this project exists\n        if (project.issuer == address(0x0)) {\n            return;\n        }\n\n        // do we own this project?\n        require(\n            project.issuer == msg.sender,\n            \"You are not the issuer of this project\"\n        );\n\n        // is the project in review?\n        require(\n            project.status == ProjectStatus.Validate,\n            \"Project not in validation process\"\n        );\n\n        // pay the service provide\n        project.fulfiller.transfer(project.price);\n\n        // project is now completed\n        project.status = ProjectStatus.Completed;\n        project.ratings = _ratings;\n\n        emit DeliveryAccepted(\n            _id,\n            project.issuer,\n            project.fulfiller,\n            project.title,\n            project.price,\n            project.ratings\n        );\n    }\n\n    // Reject the project delivery from the fulfiller\n    // The issuer rejects the project delivered by the fulfiller\n    function rejectDelivery(uint256 _id) public onlyEnable {\n        // retrieve the project\n        ProjectItem storage project = projects[_id];\n\n        // ensure that this project exists\n        if (project.issuer == address(0x0)) {\n            return;\n        }\n\n        // do we own this project?\n        require(\n            project.issuer == msg.sender,\n            \"You are not the issuer of this project\"\n        );\n\n        // is the project in review?\n        require(\n            project.status == ProjectStatus.Validate,\n            \"Project not in validation process\"\n        );\n\n        // project remains ongoing\n        project.status = ProjectStatus.OnGoing;\n\n        emit DeliveryRejected(\n            _id,\n            project.issuer,\n            project.fulfiller,\n            project.title,\n            project.price\n        );\n    }\n\n    // Contract canceled by the issuer\n    // The issuer cancels the contract\n    function cancelContract(uint256 _id) public onlyEnable {\n        // retrieve the project\n        ProjectItem storage project = projects[_id];\n\n        // ensure that this project exists\n        if (project.issuer == address(0x0)) {\n            return;\n        }\n\n        // are we the service fulfiller?\n        require(\n            project.issuer == msg.sender,\n            \"You are not the project's issuer\"\n        );\n\n        // is the project ongoing?\n        require(\n            (project.status == ProjectStatus.OnGoing) ||\n                (project.status == ProjectStatus.Validate),\n            \"Project not in progress\"\n        );\n\n        // pay back the contract's issuer\n        project.issuer.transfer(project.price);\n\n        // contract becomes canceled\n        project.status = ProjectStatus.Canceled;\n\n        emit ContractCanceled(\n            _id,\n            project.issuer,\n            project.fulfiller,\n            project.title,\n            project.price\n        );\n    }\n\n    //\n    // Getters\n    //\n\n    // Retrieve if the contract is still enable or not\n    function isEnabled() public view returns (bool) {\n        return enabledContract;\n    }\n\n    // Retrieve a project from its id\n    function getProject(uint256 _id)\n        public\n        view\n        returns (\n            address issuer,\n            address fulfiller,\n            string memory title,\n            uint256 price,\n            string memory ipfsHash,\n            ProjectStatus status\n        )\n    {\n        ProjectItem memory project = projects[_id];\n\n        // ensure that we have a project to fetch\n        if (project.issuer == address(0x0)) {\n            return (\n                address(0x0),\n                address(0x0),\n                \"\",\n                0,\n                \"\",\n                ProjectStatus.Unknown\n            );\n        }\n\n        return (\n            project.issuer,\n            project.fulfiller,\n            project.title,\n            project.price,\n            project.ipfsHash,\n            project.status\n        );\n    }\n\n    // return all projects\n    function getAllProjects() public view returns (uint256[] memory) {\n        if (projectsCounter == 0) {\n            return new uint256[](0);\n        }\n\n        // prepare output array\n        uint256[] memory projectIDs = new uint256[](projectsCounter);\n\n        // iterate over projects\n        uint256 numberOfProjects = 0;\n        for (uint256 i = 1; i <= projectsCounter; i++) {\n            // skip deleted projects\n            if (projects[i].issuer != address(0x0)) {\n                projectIDs[numberOfProjects] = projects[i].id;\n                numberOfProjects = numberOfProjects.add(1);\n            }\n        }\n\n        // copy the project ID array into a smaller array\n        uint256[] memory allProjects = new uint256[](numberOfProjects);\n        for (uint256 j = 0; j < numberOfProjects; j++) {\n            allProjects[j] = projectIDs[j];\n        }\n\n        return allProjects;\n    }\n\n    // return all published projects\n    function getPublishedProjects() public view returns (uint256[] memory) {\n        if (projectsCounter == 0) {\n            return new uint256[](0);\n        }\n\n        // prepare output array\n        uint256[] memory projectIDs = new uint256[](projectsCounter);\n\n        // iterate over projects\n        uint256 numberOfProjects = 0;\n        for (uint256 i = 1; i <= projectsCounter; i++) {\n            // get only published and active projects\n            if (\n                (projects[i].issuer != address(0x0)) &&\n                (projects[i].status == ProjectStatus.Available)\n            ) {\n                projectIDs[numberOfProjects] = projects[i].id;\n                numberOfProjects = numberOfProjects.add(1);\n            }\n        }\n\n        // copy the project ID array into a smaller array\n        uint256[] memory allProjects = new uint256[](numberOfProjects);\n        for (uint256 j = 0; j < numberOfProjects; j++) {\n            allProjects[j] = projectIDs[j];\n        }\n\n        return allProjects;\n    }\n\n    // return all projects owned by the sender\n    function getMyProjects() public view returns (uint256[] memory) {\n        if (projectsCounter == 0) {\n            return new uint256[](0);\n        }\n\n        // prepare output array\n        uint256[] memory projectIDs = new uint256[](projectsCounter);\n\n        // iterate over projects\n        uint256 numberOfProjects = 0;\n        for (uint256 i = 1; i <= projectsCounter; i++) {\n            // keep the ID of the project owned by the caller\n            if (\n                (projects[i].issuer == msg.sender) &&\n                (projects[i].status != ProjectStatus.Completed) &&\n                (projects[i].status != ProjectStatus.Canceled)\n            ) {\n                projectIDs[numberOfProjects] = projects[i].id;\n\n                numberOfProjects = numberOfProjects.add(1);\n            }\n        }\n\n        // copy the project ID array into a smaller array\n        uint256[] memory myProjects = new uint256[](numberOfProjects);\n        for (uint256 j = 0; j < numberOfProjects; j++) {\n            myProjects[j] = projectIDs[j];\n        }\n\n        return myProjects;\n    }\n\n    // return all my offers waiting for review\n    function getMyOffers() public view returns (uint256[] memory) {\n        if (projectsCounter == 0) {\n            return new uint256[](0);\n        }\n\n        // prepare output array\n        uint256[] memory projectIDs = new uint256[](projectsCounter);\n\n        // iterate over projects\n        uint256 numberOfProjects = 0;\n        for (uint256 i = 1; i <= projectsCounter; i++) {\n            // keep the ID of the project with the sender as fulfiller and the project still in review process\n            if (\n                (projects[i].fulfiller == msg.sender) &&\n                (projects[i].status == ProjectStatus.InReview)\n            ) {\n                projectIDs[numberOfProjects] = projects[i].id;\n\n                numberOfProjects = numberOfProjects.add(1);\n            }\n        }\n\n        // copy the project ID array into a smaller array\n        uint256[] memory myOffers = new uint256[](numberOfProjects);\n        for (uint256 j = 0; j < numberOfProjects; j++) {\n            myOffers[j] = projectIDs[j];\n        }\n\n        return myOffers;\n    }\n\n    // return all projects waiting for review\n    function getMyReviews() public view returns (uint256[] memory) {\n        if (projectsCounter == 0) {\n            return new uint256[](0);\n        }\n\n        // prepare output array\n        uint256[] memory projectIDs = new uint256[](projectsCounter);\n\n        // iterate over projects\n        uint256 numberOfProjects = 0;\n        for (uint256 i = 1; i <= projectsCounter; i++) {\n            // keep the ID of the project owned by the caller and the project still in review process\n            if (\n                (projects[i].issuer == msg.sender) &&\n                (projects[i].status == ProjectStatus.InReview)\n            ) {\n                projectIDs[numberOfProjects] = projects[i].id;\n\n                numberOfProjects = numberOfProjects.add(1);\n            }\n        }\n\n        // copy the project ID array into a smaller array\n        uint256[] memory myReviews = new uint256[](numberOfProjects);\n        for (uint256 j = 0; j < numberOfProjects; j++) {\n            myReviews[j] = projectIDs[j];\n        }\n\n        return myReviews;\n    }\n\n    // return all ongoing contracts\n    function getMyContracts() public view returns (uint256[] memory) {\n        if (projectsCounter == 0) {\n            return new uint256[](0);\n        }\n\n        // prepare output array\n        uint256[] memory projectIDs = new uint256[](projectsCounter);\n\n        // iterate over projects\n        uint256 numberOfProjects = 0;\n        for (uint256 i = 1; i <= projectsCounter; i++) {\n            // get only ongoing and under validation contracts owned by the issuer or the service fulfiller\n            if (\n                ((projects[i].issuer == msg.sender) ||\n                    (projects[i].fulfiller == msg.sender)) &&\n                ((projects[i].status == ProjectStatus.OnGoing) ||\n                    (projects[i].status == ProjectStatus.Validate))\n            ) {\n                projectIDs[numberOfProjects] = projects[i].id;\n                numberOfProjects = numberOfProjects.add(1);\n            }\n        }\n\n        // copy the project ID array into a smaller array\n        uint256[] memory myContracts = new uint256[](numberOfProjects);\n        for (uint256 j = 0; j < numberOfProjects; j++) {\n            myContracts[j] = projectIDs[j];\n        }\n\n        return myContracts;\n    }\n\n    // return all deliveries to review\n    function getDeliveries() public view returns (uint256[] memory) {\n        if (projectsCounter == 0) {\n            return new uint256[](0);\n        }\n\n        // prepare output array\n        uint256[] memory projectIDs = new uint256[](projectsCounter);\n\n        // iterate over projects\n        uint256 numberOfProjects = 0;\n        for (uint256 i = 1; i <= projectsCounter; i++) {\n            // get only ongoing projects issued by the issuer or the fulfiller\n            if (\n                ((projects[i].issuer == msg.sender) ||\n                    (projects[i].fulfiller == msg.sender)) &&\n                (projects[i].status == ProjectStatus.Validate)\n            ) {\n                projectIDs[numberOfProjects] = projects[i].id;\n                numberOfProjects = numberOfProjects.add(1);\n            }\n        }\n\n        // copy the project ID array into a smaller array\n        uint256[] memory myDeliveries = new uint256[](numberOfProjects);\n        for (uint256 j = 0; j < numberOfProjects; j++) {\n            myDeliveries[j] = projectIDs[j];\n        }\n\n        return myDeliveries;\n    }\n\n    // return all completed contracts\n    function getCompleted() public view returns (uint256[] memory) {\n        if (projectsCounter == 0) {\n            return new uint256[](0);\n        }\n\n        // prepare output array\n        uint256[] memory projectIDs = new uint256[](projectsCounter);\n\n        // iterate over projects\n        uint256 numberOfProjects = 0;\n        for (uint256 i = 1; i <= projectsCounter; i++) {\n            // get only ongoing projects issued by the issuer or the fulfiller\n            if (\n                ((projects[i].issuer == msg.sender) ||\n                    (projects[i].fulfiller == msg.sender)) &&\n                (projects[i].status == ProjectStatus.Completed)\n            ) {\n                projectIDs[numberOfProjects] = projects[i].id;\n                numberOfProjects = numberOfProjects.add(1);\n            }\n        }\n\n        // copy the project ID array into a smaller array\n        uint256[] memory myCompleted = new uint256[](numberOfProjects);\n        for (uint256 j = 0; j < numberOfProjects; j++) {\n            myCompleted[j] = projectIDs[j];\n        }\n\n        return myCompleted;\n    }\n\n    // return all canceled contracts\n    function getCanceled() public view returns (uint256[] memory) {\n        if (projectsCounter == 0) {\n            return new uint256[](0);\n        }\n\n        // prepare output array\n        uint256[] memory projectIDs = new uint256[](projectsCounter);\n\n        // iterate over projects\n        uint256 numberOfProjects = 0;\n        for (uint256 i = 1; i <= projectsCounter; i++) {\n            // get only ongoing projects issued by the issuer or the fulfiller\n            if (\n                ((projects[i].issuer == msg.sender) ||\n                    (projects[i].fulfiller == msg.sender)) &&\n                (projects[i].status == ProjectStatus.Canceled)\n            ) {\n                projectIDs[numberOfProjects] = projects[i].id;\n                numberOfProjects = numberOfProjects.add(1);\n            }\n        }\n\n        // copy the project ID array into a smaller array\n        uint256[] memory myCanceled = new uint256[](numberOfProjects);\n        for (uint256 j = 0; j < numberOfProjects; j++) {\n            myCanceled[j] = projectIDs[j];\n        }\n\n        return myCanceled;\n    }\n}\n",
  "sourcePath": "/Users/eloudsa/ChainSkills/chainbizz/contracts/ChainBizz.sol",
  "compiler": {
    "name": "solc",
    "version": "0.5.16+commit.9c3226ce.Emscripten.clang"
  },
  "schemaVersion": "3.0.23",
  "updatedAt": "2020-02-22T17:12:37.343Z",
  "networkType": "ethereum",
  "devdoc": {
    "author": "Said Eloudrhiri (ChainSkills) - Devoxx Morocco 2019",
    "details": "This smart contract is for illustration purpose only and should not be used in the mainNet",
    "methods": {
      "disableContract()": {
        "details": "Disable the usage of the contract, change the status of all running projects and payback all issuers"
      },
      "enableContract()": {
        "details": "Enable the usage of the contract"
      }
    },
    "title": "Decentralised business platform"
  },
  "userdoc": {
    "methods": {},
    "notice": "Learn how to create a smart contract to simulate a decentralised business platform to issue and fulfill projects"
  }
}