{
  "contractName": "ChainBizz",
  "abi": [
    {
      "constant": true,
      "inputs": [
        {
          "name": "",
          "type": "uint256"
        }
      ],
      "name": "projects",
      "outputs": [
        {
          "name": "id",
          "type": "uint256"
        },
        {
          "name": "owner",
          "type": "address"
        },
        {
          "name": "provider",
          "type": "address"
        },
        {
          "name": "title",
          "type": "string"
        },
        {
          "name": "description",
          "type": "string"
        },
        {
          "name": "price",
          "type": "uint256"
        },
        {
          "name": "status",
          "type": "uint8"
        }
      ],
      "payable": false,
      "stateMutability": "view",
      "type": "function"
    },
    {
      "anonymous": false,
      "inputs": [
        {
          "indexed": false,
          "name": "id",
          "type": "uint256"
        },
        {
          "indexed": false,
          "name": "owner",
          "type": "address"
        },
        {
          "indexed": false,
          "name": "title",
          "type": "string"
        },
        {
          "indexed": false,
          "name": "price",
          "type": "uint256"
        }
      ],
      "name": "NewProject",
      "type": "event"
    },
    {
      "anonymous": false,
      "inputs": [
        {
          "indexed": false,
          "name": "id",
          "type": "uint256"
        },
        {
          "indexed": false,
          "name": "owner",
          "type": "address"
        },
        {
          "indexed": false,
          "name": "title",
          "type": "string"
        },
        {
          "indexed": false,
          "name": "price",
          "type": "uint256"
        }
      ],
      "name": "UpdateProject",
      "type": "event"
    },
    {
      "anonymous": false,
      "inputs": [
        {
          "indexed": false,
          "name": "id",
          "type": "uint256"
        },
        {
          "indexed": false,
          "name": "owner",
          "type": "address"
        },
        {
          "indexed": false,
          "name": "title",
          "type": "string"
        }
      ],
      "name": "RemoveProject",
      "type": "event"
    },
    {
      "anonymous": false,
      "inputs": [
        {
          "indexed": false,
          "name": "id",
          "type": "uint256"
        },
        {
          "indexed": false,
          "name": "owner",
          "type": "address"
        },
        {
          "indexed": false,
          "name": "title",
          "type": "string"
        },
        {
          "indexed": false,
          "name": "price",
          "type": "uint256"
        }
      ],
      "name": "PublishedProject",
      "type": "event"
    },
    {
      "anonymous": false,
      "inputs": [
        {
          "indexed": false,
          "name": "id",
          "type": "uint256"
        },
        {
          "indexed": false,
          "name": "owner",
          "type": "address"
        },
        {
          "indexed": false,
          "name": "title",
          "type": "string"
        },
        {
          "indexed": false,
          "name": "price",
          "type": "uint256"
        }
      ],
      "name": "UnpublishedProject",
      "type": "event"
    },
    {
      "anonymous": false,
      "inputs": [
        {
          "indexed": false,
          "name": "id",
          "type": "uint256"
        },
        {
          "indexed": false,
          "name": "owner",
          "type": "address"
        },
        {
          "indexed": false,
          "name": "title",
          "type": "string"
        },
        {
          "indexed": false,
          "name": "price",
          "type": "uint256"
        }
      ],
      "name": "OfferServices",
      "type": "event"
    },
    {
      "anonymous": false,
      "inputs": [
        {
          "indexed": false,
          "name": "id",
          "type": "uint256"
        },
        {
          "indexed": false,
          "name": "owner",
          "type": "address"
        },
        {
          "indexed": false,
          "name": "provider",
          "type": "address"
        },
        {
          "indexed": false,
          "name": "title",
          "type": "string"
        },
        {
          "indexed": false,
          "name": "price",
          "type": "uint256"
        }
      ],
      "name": "AcceptServices",
      "type": "event"
    },
    {
      "anonymous": false,
      "inputs": [
        {
          "indexed": false,
          "name": "id",
          "type": "uint256"
        },
        {
          "indexed": false,
          "name": "owner",
          "type": "address"
        },
        {
          "indexed": false,
          "name": "provider",
          "type": "address"
        },
        {
          "indexed": false,
          "name": "title",
          "type": "string"
        },
        {
          "indexed": false,
          "name": "price",
          "type": "uint256"
        }
      ],
      "name": "RejectServices",
      "type": "event"
    },
    {
      "constant": false,
      "inputs": [
        {
          "name": "_title",
          "type": "string"
        },
        {
          "name": "_description",
          "type": "string"
        },
        {
          "name": "_price",
          "type": "uint256"
        }
      ],
      "name": "addProject",
      "outputs": [],
      "payable": false,
      "stateMutability": "nonpayable",
      "type": "function"
    },
    {
      "constant": false,
      "inputs": [
        {
          "name": "_id",
          "type": "uint256"
        },
        {
          "name": "_title",
          "type": "string"
        },
        {
          "name": "_description",
          "type": "string"
        },
        {
          "name": "_price",
          "type": "uint256"
        }
      ],
      "name": "updateProject",
      "outputs": [],
      "payable": false,
      "stateMutability": "nonpayable",
      "type": "function"
    },
    {
      "constant": false,
      "inputs": [
        {
          "name": "_id",
          "type": "uint256"
        }
      ],
      "name": "removeProject",
      "outputs": [],
      "payable": false,
      "stateMutability": "nonpayable",
      "type": "function"
    },
    {
      "constant": false,
      "inputs": [
        {
          "name": "_id",
          "type": "uint256"
        }
      ],
      "name": "publishProject",
      "outputs": [],
      "payable": false,
      "stateMutability": "nonpayable",
      "type": "function"
    },
    {
      "constant": false,
      "inputs": [
        {
          "name": "_id",
          "type": "uint256"
        }
      ],
      "name": "unpublishProject",
      "outputs": [],
      "payable": false,
      "stateMutability": "nonpayable",
      "type": "function"
    },
    {
      "constant": false,
      "inputs": [
        {
          "name": "_id",
          "type": "uint256"
        }
      ],
      "name": "offerServices",
      "outputs": [],
      "payable": false,
      "stateMutability": "nonpayable",
      "type": "function"
    },
    {
      "constant": false,
      "inputs": [
        {
          "name": "_id",
          "type": "uint256"
        }
      ],
      "name": "acceptServices",
      "outputs": [],
      "payable": false,
      "stateMutability": "nonpayable",
      "type": "function"
    },
    {
      "constant": false,
      "inputs": [
        {
          "name": "_id",
          "type": "uint256"
        }
      ],
      "name": "rejectServices",
      "outputs": [],
      "payable": false,
      "stateMutability": "nonpayable",
      "type": "function"
    },
    {
      "constant": true,
      "inputs": [
        {
          "name": "_id",
          "type": "uint256"
        }
      ],
      "name": "getProject",
      "outputs": [
        {
          "name": "owner",
          "type": "address"
        },
        {
          "name": "provider",
          "type": "address"
        },
        {
          "name": "title",
          "type": "string"
        },
        {
          "name": "description",
          "type": "string"
        },
        {
          "name": "price",
          "type": "uint256"
        },
        {
          "name": "status",
          "type": "uint8"
        }
      ],
      "payable": false,
      "stateMutability": "view",
      "type": "function"
    },
    {
      "constant": true,
      "inputs": [],
      "name": "getAllProjects",
      "outputs": [
        {
          "name": "",
          "type": "uint256[]"
        }
      ],
      "payable": false,
      "stateMutability": "view",
      "type": "function"
    },
    {
      "constant": true,
      "inputs": [],
      "name": "getPublishedProjects",
      "outputs": [
        {
          "name": "",
          "type": "uint256[]"
        }
      ],
      "payable": false,
      "stateMutability": "view",
      "type": "function"
    },
    {
      "constant": true,
      "inputs": [],
      "name": "getMyProjects",
      "outputs": [
        {
          "name": "",
          "type": "uint256[]"
        }
      ],
      "payable": false,
      "stateMutability": "view",
      "type": "function"
    },
    {
      "constant": true,
      "inputs": [],
      "name": "getMyOffers",
      "outputs": [
        {
          "name": "",
          "type": "uint256[]"
        }
      ],
      "payable": false,
      "stateMutability": "view",
      "type": "function"
    },
    {
      "constant": true,
      "inputs": [],
      "name": "getMyReviews",
      "outputs": [
        {
          "name": "",
          "type": "uint256[]"
        }
      ],
      "payable": false,
      "stateMutability": "view",
      "type": "function"
    }
  ],
  "bytecode": "0x608060405234801561001057600080fd5b50612411806100206000396000f3fe608060405234801561001057600080fd5b50600436106100f55760003560e01c80635fd4f75811610097578063df8609e311610066578063df8609e3146105a2578063e4f655b0146105bf578063ef1b6553146105c7578063f0f3f2c8146105cf576100f5565b80635fd4f7581461032057806364a4277a1461044b57806380d0382914610468578063a7fa01a714610470576100f5565b8063107046bd116100d3578063107046bd1461018e5780632e8cc9c2146102de5780634beb7e94146102fb5780635873f99814610303576100f5565b8063037852c7146100fa5780630850cd1e146101525780630d181a2914610171575b600080fd5b610102610700565b60408051602080825283518183015283519192839290830191858101910280838360005b8381101561013e578181015183820152602001610126565b505050509050019250505060405180910390f35b61016f6004803603602081101561016857600080fd5b503561086f565b005b61016f6004803603602081101561018757600080fd5b5035610a30565b6101ab600480360360208110156101a457600080fd5b5035610c0a565b60405180888152602001876001600160a01b03166001600160a01b03168152602001866001600160a01b03166001600160a01b0316815260200180602001806020018581526020018460068111156101ff57fe5b60ff168152602001838103835287818151815260200191508051906020019080838360005b8381101561023c578181015183820152602001610224565b50505050905090810190601f1680156102695780820380516001836020036101000a031916815260200191505b50838103825286518152865160209182019188019080838360005b8381101561029c578181015183820152602001610284565b50505050905090810190601f1680156102c95780820380516001836020036101000a031916815260200191505b50995050505050505050505060405180910390f35b61016f600480360360208110156102f457600080fd5b5035610d69565b610102610eb6565b61016f6004803603602081101561031957600080fd5b5035611018565b61016f6004803603606081101561033657600080fd5b810190602081018135600160201b81111561035057600080fd5b82018360208201111561036257600080fd5b803590602001918460018302840111600160201b8311171561038357600080fd5b91908080601f0160208091040260200160405190810160405280939291908181526020018383808284376000920191909152509295949360208101935035915050600160201b8111156103d557600080fd5b8201836020820111156103e757600080fd5b803590602001918460018302840111600160201b8311171561040857600080fd5b91908080601f01602080910402602001604051908101604052809392919081815260200183838082843760009201919091525092955050913592506113a2915050565b61016f6004803603602081101561046157600080fd5b503561161b565b6101026117a0565b61016f6004803603608081101561048657600080fd5b81359190810190604081016020820135600160201b8111156104a757600080fd5b8201836020820111156104b957600080fd5b803590602001918460018302840111600160201b831117156104da57600080fd5b91908080601f0160208091040260200160405190810160405280939291908181526020018383808284376000920191909152509295949360208101935035915050600160201b81111561052c57600080fd5b82018360208201111561053e57600080fd5b803590602001918460018302840111600160201b8311171561055f57600080fd5b91908080601f01602080910402602001604051908101604052809392919081815260200183838082843760009201919091525092955050913592506118d4915050565b61016f600480360360208110156105b857600080fd5b5035611b50565b610102611d46565b610102611e7c565b6105ec600480360360208110156105e557600080fd5b5035611fde565b604080516001600160a01b03808916825287166020820152608081018490529081016060820160a0830184600681111561062257fe5b60ff168152602001838103835287818151815260200191508051906020019080838360005b8381101561065f578181015183820152602001610647565b50505050905090810190601f16801561068c5780820380516001836020036101000a031916815260200191505b50838103825286518152865160209182019188019080838360005b838110156106bf5781810151838201526020016106a7565b50505050905090810190601f1680156106ec5780820380516001836020036101000a031916815260200191505b509850505050505050505060405180910390f35b6060600154600014156107275760408051600080825260208201909252905b50905061086c565b6060600154604051908082528060200260200182016040528015610755578160200160208202803883390190505b509050600060015b60015481116107f8576000818152602081905260409020600201546001600160a01b0316331480156107af57506002600082815260208190526040902060069081015460ff16908111156107ad57fe5b145b156107f05760008181526020819052604090205483518490849081106107d157fe5b60209081029190910101526107ed82600163ffffffff61220516565b91505b60010161075d565b50606081604051908082528060200260200182016040528015610825578160200160208202803883390190505b50905060005b828110156108665783818151811061083f57fe5b602002602001015182828151811061085357fe5b602090810291909101015260010161082b565b50925050505b90565b600081815260208190526040902060018101546001600160a01b03166108955750610a2d565b60018101546001600160a01b031633146108e357604051600160e51b62461bcd0281526004018080602001828103825260258152602001806123c16025913960400191505060405180910390fd5b600160068083015460ff16908111156108f857fe5b1461094d5760408051600160e51b62461bcd02815260206004820152601560248201527f43616e6e6f7420626520756e7075626c69736865640000000000000000000000604482015290519081900360640190fd5b60068101805460ff191690556005810154604080518481523360208201819052606082018490526080928201838152600386018054600260018216156101000260001901909116049484018590527f3525d4593ef70f97d7b99dfeab0e0be748aeb51f464f83bf0bbf5ab6badb45c89588959394919390929060a083019085908015610a1a5780601f106109ef57610100808354040283529160200191610a1a565b820191906000526020600020905b8154815290600101906020018083116109fd57829003601f168201915b50509550505050505060405180910390a1505b50565b600081815260208190526040902060018101546001600160a01b0316610a565750610a2d565b60018101546001600160a01b03163314610aa457604051600160e51b62461bcd0281526004018080602001828103825260258152602001806123c16025913960400191505060405180910390fd5b600260068083015460ff1690811115610ab957fe5b14610b0e5760408051600160e51b62461bcd02815260206004820152601560248201527f50726f6a656374206e6f7420696e207265766965770000000000000000000000604482015290519081900360640190fd5b60068101805460ff1916600390811790915560028083015460058401546040805187815233602082018190526001600160a01b039094169181018290526080810183905260a06060820181815296880180546101006001821615026000190116969096049082018190527f2ee19927f98b43d5a8d4779ac634a6cd5ef6526d41bf507bbf454255cb8adfe39689969394929160c083019085908015610bf45780601f10610bc957610100808354040283529160200191610bf4565b820191906000526020600020905b815481529060010190602001808311610bd757829003601f168201915b5050965050505050505060405180910390a15050565b60006020818152918152604090819020805460018083015460028085015460038601805488516101009682161596909602600019011692909204601f810189900489028501890190975286845293966001600160a01b0392831696929094169493909190830182828015610cbf5780601f10610c9457610100808354040283529160200191610cbf565b820191906000526020600020905b815481529060010190602001808311610ca257829003601f168201915b5050505060048301805460408051602060026001851615610100026000190190941693909304601f8101849004840282018401909252818152949594935090830182828015610d4f5780601f10610d2457610100808354040283529160200191610d4f565b820191906000526020600020905b815481529060010190602001808311610d3257829003601f168201915b50505050600583015460069093015491929160ff16905087565b600081815260208190526040902060018101546001600160a01b0316610d8f5750610a2d565b600160068083015460ff1690811115610da457fe5b14610df95760408051600160e51b62461bcd02815260206004820152601960248201527f50726f6a656374206e6f206d6f726520617661696c61626c6500000000000000604482015290519081900360640190fd5b600280820180546001600160a01b0319163317905560068201805460ff191660018302179055506005810154604080518481523360208201819052606082018490526080928201838152600386018054600260001961010060018416150201909116049484018590527f0d4c28197bc48c30df4838b70fb3f01783519ca93e2e4cbfe0bb5e04d3d85d089588959394919390929060a083019085908015610a1a5780601f106109ef57610100808354040283529160200191610a1a565b606060015460001415610ed957604080516000808252602082019092529061071f565b6060600154604051908082528060200260200182016040528015610f07578160200160208202803883390190505b509050600060015b6001548111610faa576000818152602081905260409020600101546001600160a01b031615801590610f6157506001600082815260208190526040902060069081015460ff1690811115610f5f57fe5b145b15610fa2576000818152602081905260409020548351849084908110610f8357fe5b6020908102919091010152610f9f82600163ffffffff61220516565b91505b600101610f0f565b50606081604051908082528060200260200182016040528015610fd7578160200160208202803883390190505b50905060005b8281101561086657838181518110610ff157fe5b602002602001015182828151811061100557fe5b6020908102919091010152600101610fdd565b611020612269565b60008281526020818152604091829020825160e081018452815481526001808301546001600160a01b03908116838601526002808501549091168387015260038401805487516101009482161594909402600019011691909104601f8101869004860283018601909652858252919492936060860193919291908301828280156110eb5780601f106110c0576101008083540402835291602001916110eb565b820191906000526020600020905b8154815290600101906020018083116110ce57829003601f168201915b505050918352505060048201805460408051602060026001851615610100026000190190941693909304601f810184900484028201840190925281815293820193929183018282801561117f5780601f106111545761010080835404028352916020019161117f565b820191906000526020600020905b81548152906001019060200180831161116257829003601f168201915b50505091835250506005820154602082015260068083015460409092019160ff16908111156111aa57fe5b60068111156111b557fe5b90525060208101519091506001600160a01b03166111d35750610a2d565b60208101516001600160a01b0316331461122157604051600160e51b62461bcd0281526004018080602001828103825260258152602001806123c16025913960400191505060405180910390fd5b60008160c00151600681111561123357fe5b1461127257604051600160e51b62461bcd0281526004018080602001828103825260218152602001806123a06021913960400191505060405180910390fd5b606081015160008381526020819052604081208181556001810180546001600160a01b03199081169091556002820180549091169055906112b660038301826122a2565b6112c46004830160006122a2565b60058201600090556006820160006101000a81549060ff021916905550507f0bac8d70ddda9ec612d317fa2968f6f746b59169d04a223ec870eb6447a7c7f483338360405180848152602001836001600160a01b03166001600160a01b0316815260200180602001828103825283818151815260200191508051906020019080838360005b83811015611361578181015183820152602001611349565b50505050905090810190601f16801561138e5780820380516001836020036101000a031916815260200191505b5094505050505060405180910390a1505050565b825183906113fa5760408051600160e51b62461bcd02815260206004820152601360248201527f41207469746c6520697320726571756972656400000000000000000000000000604482015290519081900360640190fd5b825183906114525760408051600160e51b62461bcd02815260206004820152601960248201527f41206465736372697074696f6e20697320726571756972656400000000000000604482015290519081900360640190fd5b600180546114659163ffffffff61220516565b60018181556040805160e0810182528381523360208083019182526000838501818152606085018d8152608086018d905260a086018c905260c0860183905297825281835294902083518155915194820180546001600160a01b039687166001600160a01b031991821617909155935160028301805491909616941693909317909355925180516114fc92600385019201906122e6565b50608082015180516115189160048401916020909101906122e6565b5060a0820151816005015560c08201518160060160006101000a81548160ff0219169083600681111561154757fe5b02179055509050507fc8e7a8f4fbf568a726fe7b162d56bb8a313fa7ec7f274c6390969cb322a0f79460015433878660405180858152602001846001600160a01b03166001600160a01b0316815260200180602001838152602001828103825284818151815260200191508051906020019080838360005b838110156115d75781810151838201526020016115bf565b50505050905090810190601f1680156116045780820380516001836020036101000a031916815260200191505b509550505050505060405180910390a15050505050565b600081815260208190526040902060018101546001600160a01b03166116415750610a2d565b60018101546001600160a01b0316331461168f57604051600160e51b62461bcd0281526004018080602001828103825260258152602001806123c16025913960400191505060405180910390fd5b600060068083015460ff16908111156116a457fe5b146116f95760408051600160e51b62461bcd02815260206004820152601360248201527f43616e6e6f74206265207075626c697368656400000000000000000000000000604482015290519081900360640190fd5b60068101805460ff191660019081179091556005820154604080518581523360208201819052606082018490526080928201838152600387018054600297811615610100026000190116969096049383018490527f8312e76cb9523ff197151c20e9aa91aab65c750674f5a0f6df91434fc153adc995889592949093919060a083019085908015610a1a5780601f106109ef57610100808354040283529160200191610a1a565b6060600154600014156117c357604080516000808252602082019092529061071f565b60606001546040519080825280602002602001820160405280156117f1578160200160208202803883390190505b509050600060015b6001548111611866576000818152602081905260409020600101546001600160a01b03161561185e57600081815260208190526040902054835184908490811061183f57fe5b602090810291909101015261185b82600163ffffffff61220516565b91505b6001016117f9565b50606081604051908082528060200260200182016040528015611893578160200160208202803883390190505b50905060005b82811015610866578381815181106118ad57fe5b60200260200101518282815181106118c157fe5b6020908102919091010152600101611899565b600084815260208190526040902060018101546001600160a01b03166118fa5750611b4a565b60018101546001600160a01b0316331461194857604051600160e51b62461bcd0281526004018080602001828103825260258152602001806123c16025913960400191505060405180910390fd5b600060068083015460ff169081111561195d57fe5b1461199c57604051600160e51b62461bcd02815260040180806020018281038252602181526020018061237f6021913960400191505060405180910390fd5b835184906119f45760408051600160e51b62461bcd02815260206004820152601360248201527f41207469746c6520697320726571756972656400000000000000000000000000604482015290519081900360640190fd5b83518490611a4c5760408051600160e51b62461bcd02815260206004820152601960248201527f41206465736372697074696f6e20697320726571756972656400000000000000604482015290519081900360640190fd5b8551611a6190600385019060208901906122e6565b508451611a7790600485019060208801906122e6565b508383600501819055507f78ec34897e7f5ea3506eaaa6dcf2edc5ea8eea1c579f1f3d158e55233c602e6960015433888760405180858152602001846001600160a01b03166001600160a01b0316815260200180602001838152602001828103825284818151815260200191508051906020019080838360005b83811015611b09578181015183820152602001611af1565b50505050905090810190601f168015611b365780820380516001836020036101000a031916815260200191505b509550505050505060405180910390a15050505b50505050565b600081815260208190526040902060018101546001600160a01b0316611b765750610a2d565b60018101546001600160a01b03163314611bc457604051600160e51b62461bcd0281526004018080602001828103825260258152602001806123c16025913960400191505060405180910390fd5b600260068083015460ff1690811115611bd957fe5b14611c2e5760408051600160e51b62461bcd02815260206004820152601560248201527f50726f6a656374206e6f7420696e207265766965770000000000000000000000604482015290519081900360640190fd5b6002818101805460068401805460ff191660019081179091556001600160a01b0319821690925560058401546040805187815233602082018190526001600160a01b039094169181018290526080810183905260a0606082018181526003890180546101009881161598909802600019019097169790970490820181905291957f9ff34971c21077ec2e6f5a3b78f4349ae2f01b8e792e14780ad8465159cb4ef595899594889491939092909160c083019085908015611d2f5780601f10611d0457610100808354040283529160200191611d2f565b820191906000526020600020905b815481529060010190602001808311611d1257829003601f168201915b5050965050505050505060405180910390a1505050565b606060015460001415611d6957604080516000808252602082019092529061071f565b6060600154604051908082528060200260200182016040528015611d97578160200160208202803883390190505b509050600060015b6001548111611e0e576000818152602081905260409020600101546001600160a01b0316331415611e06576000818152602081905260409020548351849084908110611de757fe5b6020908102919091010152611e0382600163ffffffff61220516565b91505b600101611d9f565b50606081604051908082528060200260200182016040528015611e3b578160200160208202803883390190505b50905060005b8281101561086657838181518110611e5557fe5b6020026020010151828281518110611e6957fe5b6020908102919091010152600101611e41565b606060015460001415611e9f57604080516000808252602082019092529061071f565b6060600154604051908082528060200260200182016040528015611ecd578160200160208202803883390190505b509050600060015b6001548111611f70576000818152602081905260409020600101546001600160a01b031633148015611f2757506002600082815260208190526040902060069081015460ff1690811115611f2557fe5b145b15611f68576000818152602081905260409020548351849084908110611f4957fe5b6020908102919091010152611f6582600163ffffffff61220516565b91505b600101611ed5565b50606081604051908082528060200260200182016040528015611f9d578160200160208202803883390190505b50905060005b8281101561086657838181518110611fb757fe5b6020026020010151828281518110611fcb57fe5b6020908102919091010152600101611fa3565b600080606080600080611fef612269565b60008881526020818152604091829020825160e081018452815481526001808301546001600160a01b03908116838601526002808501549091168387015260038401805487516101009482161594909402600019011691909104601f8101869004860283018601909652858252919492936060860193919291908301828280156120ba5780601f1061208f576101008083540402835291602001916120ba565b820191906000526020600020905b81548152906001019060200180831161209d57829003601f168201915b505050918352505060048201805460408051602060026001851615610100026000190190941693909304601f810184900484028201840190925281815293820193929183018282801561214e5780601f106121235761010080835404028352916020019161214e565b820191906000526020600020905b81548152906001019060200180831161213157829003601f168201915b50505091835250506005820154602082015260068083015460409092019160ff169081111561217957fe5b600681111561218457fe5b90525060208101519091506001600160a01b03166121cd5750506040805160208082018352600080835283519182019093528281529196508695509350915083905060066121fc565b602081015160408201516060830151608084015160a085015160c090950151939a509198509650945090925090505b91939550919395565b6000828201838110156122625760408051600160e51b62461bcd02815260206004820152601b60248201527f536166654d6174683a206164646974696f6e206f766572666c6f770000000000604482015290519081900360640190fd5b9392505050565b6040805160e0810182526000808252602082018190529181018290526060808201819052608082015260a081018290529060c082015290565b50805460018160011615610100020316600290046000825580601f106122c85750610a2d565b601f016020900490600052602060002090810190610a2d9190612364565b828054600181600116156101000203166002900490600052602060002090601f016020900481019282601f1061232757805160ff1916838001178555612354565b82800160010185558215612354579182015b82811115612354578251825591602001919060010190612339565b50612360929150612364565b5090565b61086c91905b80821115612360576000815560010161236a56fe43616e6e6f742062652075706461746564207768696c65207075626c697368656443616e6e6f742062652072656d6f766564207768696c65207075626c6973686564596f7520617265206e6f7420746865206f776e6572206f6620746869732070726f6a656374a165627a7a72305820f8cc2826948d90c9c7452e4c40beeb85fb758e78212ddc46578418f3b90113f30029",
  "source": "pragma solidity >=0.4.21 <0.6.0;\n\nimport 'openzeppelin-solidity/contracts/math/SafeMath.sol';\n\n// @title Decentralised business platform\ncontract ChainBizz {\n  //\n  // OpenZeppelin specifics\n  //\n  using SafeMath for uint256;\n\n  // Defines the status of the project\n  enum ProjectStatus {\n    Draft,\n    Available, \n    InReview,\n    OnGoing, \n    Completed,\n    Canceled,\n    Unknown\n  }\n\n  //\n  // State variables\n  //\n\n  // Description of a project\n  struct ProjectItem {\n    uint256 id;               // unique ID\n    address owner;\n    address provider;             \n    string title;\n    string description;\n    uint256 price;            // price in Wei\n    ProjectStatus status;      \n  }\n\n  // List of projects\n  mapping(uint256 => ProjectItem) public projects;\n\n  // Number of registered projects\n  uint256 projectsCounter;\n  \n  //\n  // Events\n  //\n  event NewProject(uint256 id, address owner, string title, uint256 price);\n  event UpdateProject(uint256 id, address owner, string title, uint256 price);\n  event RemoveProject(uint256 id, address owner, string title);\n  event PublishedProject(uint256 id, address owner, string title, uint256 price);\n  event UnpublishedProject(uint256 id, address owner, string title, uint256 price);\n  event OfferServices(uint256 id, address owner, string title, uint256 price);\n  event AcceptServices(uint256 id, address owner, address provider, string title, uint256 price);\n  event RejectServices(uint256 id, address owner, address provider, string title, uint256 price);\n\n  //\n  // Implementation\n  //\n\n\n  //\n  // Setters\n  //\n  \n  // Add a new project\n  function addProject(string memory _title, string memory _description, uint256 _price) public {\n    \n    // a title is required\n    bytes memory title = bytes(_title);\n    require(title.length > 0, \"A title is required\");\n\n    // a description is required\n    bytes memory description = bytes(_description);\n    require(description.length > 0, \"A description is required\");\n\n    // new project\n    projectsCounter = projectsCounter.add(1);\n\n    // store the new project\n    projects[projectsCounter] = ProjectItem(projectsCounter, msg.sender, address(0x0), _title,  _description, _price, ProjectStatus.Draft);\n\n    emit NewProject(projectsCounter, msg.sender, _title, _price);\n  }\n\n  // Update an unpublished project\n  function updateProject(uint256 _id, string memory _title, string memory _description, uint256 _price) public {\n    \n    // retrieve the project\n    ProjectItem storage project = projects[_id];\n\n    // ensure that this project exists\n    if (project.owner == address(0x0)) {\n      return;\n    }\n \n    // do we own this project?\n    require(project.owner == msg.sender, \"You are not the owner of this project\");\n\n    // ready to be published?\n    require(project.status == ProjectStatus.Draft, \"Cannot be updated while published\");\n\n    // a title is required\n    bytes memory title = bytes(_title);\n    require(title.length > 0, \"A title is required\");\n\n    // a description is required\n    bytes memory description = bytes(_description);\n    require(description.length > 0, \"A description is required\");\n\n    // update the project\n    project.title = _title;\n    project.description = _description;\n    project.price = _price;\n\n    emit UpdateProject(projectsCounter, msg.sender, _title, _price);\n  }\n\n  // Remove an unpublished project\n  function removeProject(uint256 _id) public {\n    \n    // retrieve the project\n    ProjectItem memory project = projects[_id];\n\n    // ensure that this project exists\n    if (project.owner == address(0x0)) {\n      return;\n    }\n \n    // do we own this project?\n    require(project.owner == msg.sender, \"You are not the owner of this project\");\n\n    // ready to be removed?\n    require(project.status == ProjectStatus.Draft, \"Cannot be removed while published\");\n\n    // keep title for future use\n    string memory title = project.title;\n\n    // remove the project\n    delete projects[_id];\n\n    emit RemoveProject(_id, msg.sender, title);\n  }\n\n  // Publish the project to seek for providers\n  function publishProject(uint256 _id) public {\n    \n    // retrieve the project\n    ProjectItem storage project = projects[_id];\n\n    // ensure that this project exists\n    if (project.owner == address(0x0)) {\n      return;\n    }\n \n    // do we own this project?\n    require(project.owner == msg.sender, \"You are not the owner of this project\");\n\n    // ready to be published?\n    require(project.status == ProjectStatus.Draft, \"Cannot be published\");\n\n    // publish the project to be available for services\n    project.status = ProjectStatus.Available;\n\n    emit PublishedProject(_id, msg.sender, project.title, project.price);\n  }\n\n  // Unpublish the project\n  // A project can be unpublished ONLY if it's already published and not already part of a contract \n  function unpublishProject(uint256 _id) public {\n    \n    // retrieve the project\n    ProjectItem storage project = projects[_id];\n\n    // ensure that this project exists\n    if (project.owner == address(0x0)) {\n      return;\n    }\n \n    // do we own this project?\n    require(project.owner == msg.sender, \"You are not the owner of this project\");\n\n    // ready to be unpublished?\n    require(project.status == ProjectStatus.Available, \"Cannot be unpublished\");\n\n    // unpublish the project\n    project.status = ProjectStatus.Draft;\n\n    emit UnpublishedProject(_id, msg.sender, project.title, project.price);\n  }\n\n  // Offer services for the project\n  // A provider offers his/her services to perform the project \n  function offerServices(uint256 _id) public {\n    \n    // retrieve the project\n    ProjectItem storage project = projects[_id];\n\n    // ensure that this project exists\n    if (project.owner == address(0x0)) {\n      return;\n    }\n \n    // is the project available?\n    require(project.status == ProjectStatus.Available, \"Project no more available\");\n\n    // store the address of the provider\n    project.provider = msg.sender;\n\n    // project is under review\n    project.status = ProjectStatus.InReview;\n\n    emit OfferServices(_id, msg.sender, project.title, project.price);\n  }\n\n\n  // Accept services from the provider\n  // The owner accepts the services offered by the provider \n  function acceptServices(uint256 _id) public {\n    \n    // retrieve the project\n    ProjectItem storage project = projects[_id];\n\n    // ensure that this project exists\n    if (project.owner == address(0x0)) {\n      return;\n    }\n \n     // do we own this project?\n    require(project.owner == msg.sender, \"You are not the owner of this project\");\n\n    // is the project in review?\n    require(project.status == ProjectStatus.InReview, \"Project not in review\");\n\n    // project is now ongoing\n    project.status = ProjectStatus.OnGoing;\n\n    emit AcceptServices(_id, msg.sender, project.provider, project.title, project.price);\n  }\n\n\n  // Reject services from the provider\n  // The owner rejects the services offered by the provider \n  function rejectServices(uint256 _id) public {\n    \n    // retrieve the project\n    ProjectItem storage project = projects[_id];\n\n    // ensure that this project exists\n    if (project.owner == address(0x0)) {\n      return;\n    }\n \n     // do we own this project?\n    require(project.owner == msg.sender, \"You are not the owner of this project\");\n\n    // is the project in review?\n    require(project.status == ProjectStatus.InReview, \"Project not in review\");\n\n    // project is now available\n    address provider = project.provider;\n    project.status = ProjectStatus.Available;\n    project.provider = address(0x0);\n    \n    emit RejectServices(_id, msg.sender, provider, project.title, project.price);\n  }\n\n  //\n  // Getters\n  //\n\n  // Retrieve a project from its id\n  function getProject(uint256 _id) public view returns (\n    address owner,\n    address provider,\n    string memory title,\n    string memory description,\n    uint256 price,\n    ProjectStatus status) {\n\n    ProjectItem memory project = projects[_id];\n\n    // ensure that we have a project to fetch\n    if (project.owner == address(0x0)) {\n      return (address(0x0), address(0x0), \"\", \"\", 0, ProjectStatus.Unknown);\n    }\n\n    return (\n      project.owner,\n      project.provider,\n      project.title,\n      project.description,\n      project.price,\n      project.status);\n  }\n\n  // return all projects\n  function getAllProjects() view public returns (uint256[] memory) {\n    if (projectsCounter == 0) {\n      return new uint[](0);\n    }\n\n    // prepare output array\n    uint256[] memory projectIDs = new uint[](projectsCounter);\n\n    // iterate over projects\n    uint256 numberOfProjects = 0;\n    for (uint256 i = 1; i <= projectsCounter; i++) {\n      // skip deleted projects\n      if (projects[i].owner != address(0x0)) {\n        projectIDs[numberOfProjects] = projects[i].id;\n        numberOfProjects = numberOfProjects.add(1);\n      }\n    }\n\n    // copy the project ID array into a smaller array\n    uint256[] memory allProjects = new uint[](numberOfProjects);\n    for (uint j = 0; j < numberOfProjects; j++) {\n      allProjects[j] = projectIDs[j];\n    }\n\n    return allProjects;\n  }\n\n\n  // return all published projects\n  function getPublishedProjects() view public returns (uint256[] memory) {\n    if (projectsCounter == 0) {\n      return new uint[](0);\n    }\n\n    // prepare output array\n    uint256[] memory projectIDs = new uint[](projectsCounter);\n\n    // iterate over projects\n    uint256 numberOfProjects = 0;\n    for (uint256 i = 1; i <= projectsCounter; i++) {\n      // get only published and active projects \n      if ((projects[i].owner != address(0x0)) && (projects[i].status == ProjectStatus.Available)) {\n        projectIDs[numberOfProjects] = projects[i].id;\n        numberOfProjects = numberOfProjects.add(1);\n      }\n    }\n\n    // copy the project ID array into a smaller array\n    uint256[] memory allProjects = new uint[](numberOfProjects);\n    for (uint j = 0; j < numberOfProjects; j++) {\n      allProjects[j] = projectIDs[j];\n    }\n\n    return allProjects;\n  }\n\n\n  // return all projects owned by the sender\n  function getMyProjects() view public returns (uint256[] memory) {\n    if (projectsCounter == 0) {\n      return new uint256[](0);\n    }\n\n    // prepare output array\n    uint256[] memory projectIDs = new uint[](projectsCounter);\n\n    // iterate over projects\n    uint256 numberOfProjects = 0;\n    for (uint i = 1; i <= projectsCounter; i++) {\n      // keep the ID of the project owned by the caller\n      if (projects[i].owner == msg.sender) {\n        projectIDs[numberOfProjects] = projects[i].id;\n\n        numberOfProjects = numberOfProjects.add(1);\n      }\n    }\n\n    // copy the project ID array into a smaller array\n    uint256[] memory myProjects = new uint[](numberOfProjects);\n    for (uint j = 0; j < numberOfProjects; j++) {\n      myProjects[j] = projectIDs[j];\n    }\n\n    return myProjects;\n  }\n\n  // return all my offers waiting for review\n  function getMyOffers() view public returns (uint256[] memory) {\n    if (projectsCounter == 0) {\n      return new uint256[](0);\n    }\n\n    // prepare output array\n    uint256[] memory projectIDs = new uint[](projectsCounter);\n\n    // iterate over projects\n    uint256 numberOfProjects = 0;\n    for (uint i = 1; i <= projectsCounter; i++) {\n      // keep the ID of the project with the sender as provider and the project still in review process\n      if ((projects[i].provider == msg.sender) && (projects[i].status == ProjectStatus.InReview)) {\n        projectIDs[numberOfProjects] = projects[i].id;\n\n        numberOfProjects = numberOfProjects.add(1);\n      }\n    }\n\n    // copy the project ID array into a smaller array\n    uint256[] memory myOffers = new uint[](numberOfProjects);\n    for (uint j = 0; j < numberOfProjects; j++) {\n      myOffers[j] = projectIDs[j];\n    }\n\n    return myOffers;\n  }\n\n\n  // return all projects waiting for review\n  function getMyReviews() view public returns (uint256[] memory) {\n    if (projectsCounter == 0) {\n      return new uint256[](0);\n    }\n\n    // prepare output array\n    uint256[] memory projectIDs = new uint[](projectsCounter);\n\n    // iterate over projects\n    uint256 numberOfProjects = 0;\n    for (uint i = 1; i <= projectsCounter; i++) {\n      // keep the ID of the project owned by the caller and the project still in review process\n      if ((projects[i].owner == msg.sender) && (projects[i].status == ProjectStatus.InReview)) {\n        projectIDs[numberOfProjects] = projects[i].id;\n\n        numberOfProjects = numberOfProjects.add(1);\n      }\n    }\n\n    // copy the project ID array into a smaller array\n    uint256[] memory myReviews = new uint[](numberOfProjects);\n    for (uint j = 0; j < numberOfProjects; j++) {\n      myReviews[j] = projectIDs[j];\n    }\n\n    return myReviews;\n  }\n}",
  "sourcePath": "/Users/said.eloudrhiri/Projects/Devoxx/chainbizz/contracts/ChainBizz.sol",
  "compiler": {
    "name": "solc",
    "version": "0.5.8+commit.23d335f2.Emscripten.clang"
  },
  "schemaVersion": "3.0.16",
  "updatedAt": "2019-10-09T15:29:11.308Z",
  "devdoc": {
    "methods": {}
  },
  "userdoc": {
    "methods": {}
  }
}