{
  "contractName": "ChainBizz",
  "abi": [
    {
      "constant": true,
      "inputs": [
        {
          "name": "",
          "type": "uint256"
        }
      ],
      "name": "projects",
      "outputs": [
        {
          "name": "id",
          "type": "uint256"
        },
        {
          "name": "owner",
          "type": "address"
        },
        {
          "name": "provider",
          "type": "address"
        },
        {
          "name": "title",
          "type": "string"
        },
        {
          "name": "description",
          "type": "string"
        },
        {
          "name": "price",
          "type": "uint256"
        },
        {
          "name": "status",
          "type": "uint8"
        }
      ],
      "payable": false,
      "stateMutability": "view",
      "type": "function"
    },
    {
      "anonymous": false,
      "inputs": [
        {
          "indexed": false,
          "name": "id",
          "type": "uint256"
        },
        {
          "indexed": false,
          "name": "owner",
          "type": "address"
        },
        {
          "indexed": false,
          "name": "title",
          "type": "string"
        },
        {
          "indexed": false,
          "name": "price",
          "type": "uint256"
        }
      ],
      "name": "NewProject",
      "type": "event"
    },
    {
      "anonymous": false,
      "inputs": [
        {
          "indexed": false,
          "name": "id",
          "type": "uint256"
        },
        {
          "indexed": false,
          "name": "owner",
          "type": "address"
        },
        {
          "indexed": false,
          "name": "title",
          "type": "string"
        },
        {
          "indexed": false,
          "name": "price",
          "type": "uint256"
        }
      ],
      "name": "UpdateProject",
      "type": "event"
    },
    {
      "anonymous": false,
      "inputs": [
        {
          "indexed": false,
          "name": "id",
          "type": "uint256"
        },
        {
          "indexed": false,
          "name": "owner",
          "type": "address"
        },
        {
          "indexed": false,
          "name": "title",
          "type": "string"
        }
      ],
      "name": "RemoveProject",
      "type": "event"
    },
    {
      "anonymous": false,
      "inputs": [
        {
          "indexed": false,
          "name": "id",
          "type": "uint256"
        },
        {
          "indexed": false,
          "name": "owner",
          "type": "address"
        },
        {
          "indexed": false,
          "name": "title",
          "type": "string"
        },
        {
          "indexed": false,
          "name": "price",
          "type": "uint256"
        }
      ],
      "name": "PublishedProject",
      "type": "event"
    },
    {
      "constant": false,
      "inputs": [
        {
          "name": "_title",
          "type": "string"
        },
        {
          "name": "_description",
          "type": "string"
        },
        {
          "name": "_price",
          "type": "uint256"
        }
      ],
      "name": "addProject",
      "outputs": [],
      "payable": false,
      "stateMutability": "nonpayable",
      "type": "function"
    },
    {
      "constant": false,
      "inputs": [
        {
          "name": "_id",
          "type": "uint256"
        },
        {
          "name": "_title",
          "type": "string"
        },
        {
          "name": "_description",
          "type": "string"
        },
        {
          "name": "_price",
          "type": "uint256"
        }
      ],
      "name": "updateProject",
      "outputs": [],
      "payable": false,
      "stateMutability": "nonpayable",
      "type": "function"
    },
    {
      "constant": false,
      "inputs": [
        {
          "name": "_id",
          "type": "uint256"
        }
      ],
      "name": "removeProject",
      "outputs": [],
      "payable": false,
      "stateMutability": "nonpayable",
      "type": "function"
    },
    {
      "constant": false,
      "inputs": [
        {
          "name": "_id",
          "type": "uint256"
        }
      ],
      "name": "publishProject",
      "outputs": [],
      "payable": false,
      "stateMutability": "nonpayable",
      "type": "function"
    },
    {
      "constant": true,
      "inputs": [
        {
          "name": "_id",
          "type": "uint256"
        }
      ],
      "name": "getProject",
      "outputs": [
        {
          "name": "owner",
          "type": "address"
        },
        {
          "name": "provider",
          "type": "address"
        },
        {
          "name": "title",
          "type": "string"
        },
        {
          "name": "description",
          "type": "string"
        },
        {
          "name": "price",
          "type": "uint256"
        },
        {
          "name": "status",
          "type": "uint8"
        }
      ],
      "payable": false,
      "stateMutability": "view",
      "type": "function"
    },
    {
      "constant": true,
      "inputs": [],
      "name": "getAllProjects",
      "outputs": [
        {
          "name": "",
          "type": "uint256[]"
        }
      ],
      "payable": false,
      "stateMutability": "view",
      "type": "function"
    },
    {
      "constant": true,
      "inputs": [],
      "name": "getMyProjects",
      "outputs": [
        {
          "name": "",
          "type": "uint256[]"
        }
      ],
      "payable": false,
      "stateMutability": "view",
      "type": "function"
    }
  ],
  "bytecode": "0x608060405234801561001057600080fd5b50611855806100206000396000f3fe608060405234801561001057600080fd5b50600436106100885760003560e01c806380d038291161005b57806380d0382914610344578063a7fa01a71461039c578063e4f655b0146104ce578063f0f3f2c8146104d657610088565b8063107046bd1461008d5780635873f998146101dd5780635fd4f758146101fc57806364a4277a14610327575b600080fd5b6100aa600480360360208110156100a357600080fd5b5035610607565b60405180888152602001876001600160a01b03166001600160a01b03168152602001866001600160a01b03166001600160a01b0316815260200180602001806020018581526020018460058111156100fe57fe5b60ff168152602001838103835287818151815260200191508051906020019080838360005b8381101561013b578181015183820152602001610123565b50505050905090810190601f1680156101685780820380516001836020036101000a031916815260200191505b50838103825286518152865160209182019188019080838360005b8381101561019b578181015183820152602001610183565b50505050905090810190601f1680156101c85780820380516001836020036101000a031916815260200191505b50995050505050505050505060405180910390f35b6101fa600480360360208110156101f357600080fd5b5035610766565b005b6101fa6004803603606081101561021257600080fd5b810190602081018135600160201b81111561022c57600080fd5b82018360208201111561023e57600080fd5b803590602001918460018302840111600160201b8311171561025f57600080fd5b91908080601f0160208091040260200160405190810160405280939291908181526020018383808284376000920191909152509295949360208101935035915050600160201b8111156102b157600080fd5b8201836020820111156102c357600080fd5b803590602001918460018302840111600160201b831117156102e457600080fd5b91908080601f0160208091040260200160405190810160405280939291908181526020018383808284376000920191909152509295505091359250610af1915050565b6101fa6004803603602081101561033d57600080fd5b5035610d6a565b61034c610f2f565b60408051602080825283518183015283519192839290830191858101910280838360005b83811015610388578181015183820152602001610370565b505050509050019250505060405180910390f35b6101fa600480360360808110156103b257600080fd5b81359190810190604081016020820135600160201b8111156103d357600080fd5b8201836020820111156103e557600080fd5b803590602001918460018302840111600160201b8311171561040657600080fd5b91908080601f0160208091040260200160405190810160405280939291908181526020018383808284376000920191909152509295949360208101935035915050600160201b81111561045857600080fd5b82018360208201111561046a57600080fd5b803590602001918460018302840111600160201b8311171561048b57600080fd5b91908080601f0160208091040260200160405190810160405280939291908181526020018383808284376000920191909152509295505091359250611070915050565b61034c6112ec565b6104f3600480360360208110156104ec57600080fd5b5035611422565b604080516001600160a01b03808916825287166020820152608081018490529081016060820160a0830184600581111561052957fe5b60ff168152602001838103835287818151815260200191508051906020019080838360005b8381101561056657818101518382015260200161054e565b50505050905090810190601f1680156105935780820380516001836020036101000a031916815260200191505b50838103825286518152865160209182019188019080838360005b838110156105c65781810151838201526020016105ae565b50505050905090810190601f1680156105f35780820380516001836020036101000a031916815260200191505b509850505050505050505060405180910390f35b60006020818152918152604090819020805460018083015460028085015460038601805488516101009682161596909602600019011692909204601f810189900489028501890190975286845293966001600160a01b03928316969290941694939091908301828280156106bc5780601f10610691576101008083540402835291602001916106bc565b820191906000526020600020905b81548152906001019060200180831161069f57829003601f168201915b5050505060048301805460408051602060026001851615610100026000190190941693909304601f810184900484028201840190925281815294959493509083018282801561074c5780601f106107215761010080835404028352916020019161074c565b820191906000526020600020905b81548152906001019060200180831161072f57829003601f168201915b50505050600583015460069093015491929160ff16905087565b61076e6116ad565b60008281526020818152604091829020825160e081018452815481526001808301546001600160a01b03908116838601526002808501549091168387015260038401805487516101009482161594909402600019011691909104601f8101869004860283018601909652858252919492936060860193919291908301828280156108395780601f1061080e57610100808354040283529160200191610839565b820191906000526020600020905b81548152906001019060200180831161081c57829003601f168201915b505050918352505060048201805460408051602060026001851615610100026000190190941693909304601f81018490048402820184019092528181529382019392918301828280156108cd5780601f106108a2576101008083540402835291602001916108cd565b820191906000526020600020905b8154815290600101906020018083116108b057829003601f168201915b50505091835250506005828101546020830152600683015460409092019160ff16908111156108f857fe5b600581111561090357fe5b90525060208101519091506001600160a01b03166109215750610aee565b60208101516001600160a01b0316331461096f57604051600160e51b62461bcd0281526004018080602001828103825260258152602001806118056025913960400191505060405180910390fd5b60008160c00151600581111561098157fe5b146109c057604051600160e51b62461bcd0281526004018080602001828103825260218152602001806117e46021913960400191505060405180910390fd5b606081015160008381526020819052604081208181556001810180546001600160a01b0319908116909155600282018054909116905590610a0460038301826116e6565b610a126004830160006116e6565b60058201600090556006820160006101000a81549060ff021916905550507f0bac8d70ddda9ec612d317fa2968f6f746b59169d04a223ec870eb6447a7c7f483338360405180848152602001836001600160a01b03166001600160a01b0316815260200180602001828103825283818151815260200191508051906020019080838360005b83811015610aaf578181015183820152602001610a97565b50505050905090810190601f168015610adc5780820380516001836020036101000a031916815260200191505b5094505050505060405180910390a150505b50565b82518390610b495760408051600160e51b62461bcd02815260206004820152601360248201527f41207469746c6520697320726571756972656400000000000000000000000000604482015290519081900360640190fd5b82518390610ba15760408051600160e51b62461bcd02815260206004820152601960248201527f41206465736372697074696f6e20697320726571756972656400000000000000604482015290519081900360640190fd5b60018054610bb49163ffffffff61164916565b60018181556040805160e0810182528381523360208083019182526000838501818152606085018d8152608086018d905260a086018c905260c0860183905297825281835294902083518155915194820180546001600160a01b039687166001600160a01b03199182161790915593516002830180549190961694169390931790935592518051610c4b926003850192019061172a565b5060808201518051610c6791600484019160209091019061172a565b5060a0820151816005015560c08201518160060160006101000a81548160ff02191690836005811115610c9657fe5b02179055509050507fc8e7a8f4fbf568a726fe7b162d56bb8a313fa7ec7f274c6390969cb322a0f79460015433878660405180858152602001846001600160a01b03166001600160a01b0316815260200180602001838152602001828103825284818151815260200191508051906020019080838360005b83811015610d26578181015183820152602001610d0e565b50505050905090810190601f168015610d535780820380516001836020036101000a031916815260200191505b509550505050505060405180910390a15050505050565b600081815260208190526040902060018101546001600160a01b0316610d905750610aee565b60018101546001600160a01b03163314610dde57604051600160e51b62461bcd0281526004018080602001828103825260258152602001806118056025913960400191505060405180910390fd5b6000600682015460ff166005811115610df357fe5b14610e485760408051600160e51b62461bcd02815260206004820152601360248201527f43616e6e6f74206265207075626c697368656400000000000000000000000000604482015290519081900360640190fd5b60068101805460ff191660019081179091556005820154604080518581523360208201819052606082018490526080928201838152600387018054600297811615610100026000190116969096049383018490527f8312e76cb9523ff197151c20e9aa91aab65c750674f5a0f6df91434fc153adc995889592949093919060a083019085908015610f1a5780601f10610eef57610100808354040283529160200191610f1a565b820191906000526020600020905b815481529060010190602001808311610efd57829003601f168201915b50509550505050505060405180910390a15050565b606060015460001415610f565760408051600080825260208201909252905b50905061106d565b6060600154604051908082528060200260200182016040528015610f84578160200160208202803883390190505b509050600060015b6001548111610ff9576000818152602081905260409020600101546001600160a01b031615610ff1576000818152602081905260409020548351849084908110610fd257fe5b6020908102919091010152610fee82600163ffffffff61164916565b91505b600101610f8c565b50606081604051908082528060200260200182016040528015611026578160200160208202803883390190505b50905060005b828110156110675783818151811061104057fe5b602002602001015182828151811061105457fe5b602090810291909101015260010161102c565b50925050505b90565b600084815260208190526040902060018101546001600160a01b031661109657506112e6565b60018101546001600160a01b031633146110e457604051600160e51b62461bcd0281526004018080602001828103825260258152602001806118056025913960400191505060405180910390fd5b6000600682015460ff1660058111156110f957fe5b1461113857604051600160e51b62461bcd0281526004018080602001828103825260218152602001806117c36021913960400191505060405180910390fd5b835184906111905760408051600160e51b62461bcd02815260206004820152601360248201527f41207469746c6520697320726571756972656400000000000000000000000000604482015290519081900360640190fd5b835184906111e85760408051600160e51b62461bcd02815260206004820152601960248201527f41206465736372697074696f6e20697320726571756972656400000000000000604482015290519081900360640190fd5b85516111fd906003850190602089019061172a565b508451611213906004850190602088019061172a565b508383600501819055507f78ec34897e7f5ea3506eaaa6dcf2edc5ea8eea1c579f1f3d158e55233c602e6960015433888760405180858152602001846001600160a01b03166001600160a01b0316815260200180602001838152602001828103825284818151815260200191508051906020019080838360005b838110156112a557818101518382015260200161128d565b50505050905090810190601f1680156112d25780820380516001836020036101000a031916815260200191505b509550505050505060405180910390a15050505b50505050565b60606001546000141561130f576040805160008082526020820190925290610f4e565b606060015460405190808252806020026020018201604052801561133d578160200160208202803883390190505b509050600060015b60015481116113b4576000818152602081905260409020600101546001600160a01b03163314156113ac57600081815260208190526040902054835184908490811061138d57fe5b60209081029190910101526113a982600163ffffffff61164916565b91505b600101611345565b506060816040519080825280602002602001820160405280156113e1578160200160208202803883390190505b50905060005b82811015611067578381815181106113fb57fe5b602002602001015182828151811061140f57fe5b60209081029190910101526001016113e7565b6000806060806000806114336116ad565b60008881526020818152604091829020825160e081018452815481526001808301546001600160a01b03908116838601526002808501549091168387015260038401805487516101009482161594909402600019011691909104601f8101869004860283018601909652858252919492936060860193919291908301828280156114fe5780601f106114d3576101008083540402835291602001916114fe565b820191906000526020600020905b8154815290600101906020018083116114e157829003601f168201915b505050918352505060048201805460408051602060026001851615610100026000190190941693909304601f81018490048402820184019092528181529382019392918301828280156115925780601f1061156757610100808354040283529160200191611592565b820191906000526020600020905b81548152906001019060200180831161157557829003601f168201915b50505091835250506005828101546020830152600683015460409092019160ff16908111156115bd57fe5b60058111156115c857fe5b90525060208101519091506001600160a01b0316611611575050604080516020808201835260008083528351918201909352828152919650869550935091508390506005611640565b602081015160408201516060830151608084015160a085015160c090950151939a509198509650945090925090505b91939550919395565b6000828201838110156116a65760408051600160e51b62461bcd02815260206004820152601b60248201527f536166654d6174683a206164646974696f6e206f766572666c6f770000000000604482015290519081900360640190fd5b9392505050565b6040805160e0810182526000808252602082018190529181018290526060808201819052608082015260a081018290529060c082015290565b50805460018160011615610100020316600290046000825580601f1061170c5750610aee565b601f016020900490600052602060002090810190610aee91906117a8565b828054600181600116156101000203166002900490600052602060002090601f016020900481019282601f1061176b57805160ff1916838001178555611798565b82800160010185558215611798579182015b8281111561179857825182559160200191906001019061177d565b506117a49291506117a8565b5090565b61106d91905b808211156117a457600081556001016117ae56fe43616e6e6f742062652075706461746564207768696c65207075626c697368656443616e6e6f742062652072656d6f766564207768696c65207075626c6973686564596f7520617265206e6f7420746865206f776e6572206f6620746869732070726f6a656374a165627a7a723058208626828d78aca2a8c752f64235174eabec9e90272a7590ecabe15a065f60143f0029",
  "source": "pragma solidity >=0.4.21 <0.6.0;\n\nimport 'openzeppelin-solidity/contracts/math/SafeMath.sol';\n\n// @title Decentralised business platform\ncontract ChainBizz {\n  //\n  // OpenZeppelin specifics\n  //\n  using SafeMath for uint256;\n\n  // Defines the status of the project\n  enum ProjectStatus {\n    Draft,\n    Published, \n    OnGoing, \n    Completed,\n    Canceled,\n    Unknown\n  }\n\n  //\n  // State variables\n  //\n\n  // Description of a project\n  struct ProjectItem {\n    uint256 id;               // unique ID\n    address owner;\n    address provider;             \n    string title;\n    string description;\n    uint256 price;            // price in Wei\n    ProjectStatus status;      \n  }\n\n  // List of projects\n  mapping(uint256 => ProjectItem) public projects;\n\n  // Number of registered projects\n  uint256 projectsCounter;\n  \n  //\n  // Events\n  //\n  event NewProject(uint256 id, address owner, string title, uint256 price);\n  event UpdateProject(uint256 id, address owner, string title, uint256 price);\n  event RemoveProject(uint256 id, address owner, string title);\n  event PublishedProject(uint256 id, address owner, string title, uint256 price);\n\n  //\n  // Implementation\n  //\n\n  // Add a new project\n  function addProject(string memory _title, string memory _description, uint256 _price) public {\n    \n    // a title is required\n    bytes memory title = bytes(_title);\n    require(title.length > 0, \"A title is required\");\n\n    // a description is required\n    bytes memory description = bytes(_description);\n    require(description.length > 0, \"A description is required\");\n\n    // new project\n    projectsCounter = projectsCounter.add(1);\n\n    // store the new project\n    projects[projectsCounter] = ProjectItem(projectsCounter, msg.sender, address(0x0), _title,  _description, _price, ProjectStatus.Draft);\n\n    emit NewProject(projectsCounter, msg.sender, _title, _price);\n  }\n\n  // Update an unpublished project\n  function updateProject(uint256 _id, string memory _title, string memory _description, uint256 _price) public {\n    \n    // retrieve the project\n    ProjectItem storage project = projects[_id];\n\n    // ensure that this project exists\n    if (project.owner == address(0x0)) {\n      return;\n    }\n \n    // do we own this project?\n    require(project.owner == msg.sender, \"You are not the owner of this project\");\n\n    // ready to be published?\n    require(project.status == ProjectStatus.Draft, \"Cannot be updated while published\");\n\n    // a title is required\n    bytes memory title = bytes(_title);\n    require(title.length > 0, \"A title is required\");\n\n    // a description is required\n    bytes memory description = bytes(_description);\n    require(description.length > 0, \"A description is required\");\n\n    // update the project\n    project.title = _title;\n    project.description = _description;\n    project.price = _price;\n\n    emit UpdateProject(projectsCounter, msg.sender, _title, _price);\n  }\n\n  // Remove an unpublished project\n  function removeProject(uint256 _id) public {\n    \n    // retrieve the project\n    ProjectItem memory project = projects[_id];\n\n    // ensure that this project exists\n    if (project.owner == address(0x0)) {\n      return;\n    }\n \n    // do we own this project?\n    require(project.owner == msg.sender, \"You are not the owner of this project\");\n\n    // ready to be removed?\n    require(project.status == ProjectStatus.Draft, \"Cannot be removed while published\");\n\n    // keep title for future use\n    string memory title = project.title;\n\n    // remove the project\n    delete projects[_id];\n\n    emit RemoveProject(_id, msg.sender, title);\n  }\n\n  // Publish the project to seek for providers\n  function publishProject(uint256 _id) public {\n    \n    // retrieve the project\n    ProjectItem storage project = projects[_id];\n\n    // ensure that this project exists\n    if (project.owner == address(0x0)) {\n      return;\n    }\n \n    // do we own this project?\n    require(project.owner == msg.sender, \"You are not the owner of this project\");\n\n    // ready to be published?\n    require(project.status == ProjectStatus.Draft, \"Cannot be published\");\n\n    // publish the project\n    project.status = ProjectStatus.Published;\n\n    emit PublishedProject(_id, msg.sender, project.title, project.price);\n  }\n\n\n  // Retrieve a project from its id\n  function getProject(uint256 _id) public view returns (\n    address owner,\n    address provider,\n    string memory title,\n    string memory description,\n    uint256 price,\n    ProjectStatus status) {\n\n    ProjectItem memory project = projects[_id];\n\n    // ensure that we have a project to fetch\n    if (project.owner == address(0x0)) {\n      return (address(0x0), address(0x0), \"\", \"\", 0, ProjectStatus.Unknown);\n    }\n\n    return (\n      project.owner,\n      project.provider,\n      project.title,\n      project.description,\n      project.price,\n      project.status);\n  }\n\n  // return all projects\n  function getAllProjects() view public returns (uint256[] memory) {\n    if (projectsCounter == 0) {\n      return new uint[](0);\n    }\n\n    // prepare output array\n    uint256[] memory projectIDs = new uint[](projectsCounter);\n\n    // iterate over projects\n    uint256 numberOfProjects = 0;\n    for (uint256 i = 1; i <= projectsCounter; i++) {\n      // skip deleted projects\n      if (projects[i].owner != address(0x0)) {\n        projectIDs[numberOfProjects] = projects[i].id;\n        numberOfProjects = numberOfProjects.add(1);\n      }\n    }\n\n    // copy the project ID array into a smaller array\n    uint256[] memory allProjects = new uint[](numberOfProjects);\n    for (uint j = 0; j < numberOfProjects; j++) {\n      allProjects[j] = projectIDs[j];\n    }\n\n    return allProjects;\n  }\n\n\n  // return all projects owned by the sender\n  function getMyProjects() view public returns (uint256[] memory) {\n    if (projectsCounter == 0) {\n      return new uint256[](0);\n    }\n\n    // prepare output array\n    uint256[] memory projectIDs = new uint[](projectsCounter);\n\n    // iterate over projects\n    uint256 numberOfProjects = 0;\n    for (uint i = 1; i <= projectsCounter; i++) {\n      // keep the ID of the project owned by the caller\n      if (projects[i].owner == msg.sender) {\n        projectIDs[numberOfProjects] = projects[i].id;\n\n        numberOfProjects = numberOfProjects.add(1);\n      }\n    }\n\n    // copy the project ID array into a smaller array\n    uint256[] memory myProjects = new uint[](numberOfProjects);\n    for (uint j = 0; j < numberOfProjects; j++) {\n      myProjects[j] = projectIDs[j];\n    }\n\n    return myProjects;\n  }\n}",
  "sourcePath": "/Users/said.eloudrhiri/Projects/Devoxx/chainbizz/contracts/ChainBizz.sol",
  "compiler": {
    "name": "solc",
    "version": "0.5.8+commit.23d335f2.Emscripten.clang"
  },
  "schemaVersion": "3.0.16",
  "updatedAt": "2019-10-08T13:04:11.426Z",
  "devdoc": {
    "methods": {}
  },
  "userdoc": {
    "methods": {}
  }
}