{
  "contractName": "ChainBizz",
  "abi": [
    {
      "inputs": [],
      "payable": false,
      "stateMutability": "nonpayable",
      "type": "constructor"
    },
    {
      "anonymous": false,
      "inputs": [
        {
          "indexed": false,
          "internalType": "uint256",
          "name": "id",
          "type": "uint256"
        },
        {
          "indexed": true,
          "internalType": "address",
          "name": "issuer",
          "type": "address"
        },
        {
          "indexed": true,
          "internalType": "address",
          "name": "fulfiller",
          "type": "address"
        },
        {
          "indexed": false,
          "internalType": "string",
          "name": "title",
          "type": "string"
        },
        {
          "indexed": false,
          "internalType": "uint256",
          "name": "price",
          "type": "uint256"
        }
      ],
      "name": "AcceptProposal",
      "type": "event"
    },
    {
      "anonymous": false,
      "inputs": [
        {
          "indexed": false,
          "internalType": "uint256",
          "name": "id",
          "type": "uint256"
        },
        {
          "indexed": true,
          "internalType": "address",
          "name": "issuer",
          "type": "address"
        },
        {
          "indexed": true,
          "internalType": "address",
          "name": "fulfiller",
          "type": "address"
        },
        {
          "indexed": false,
          "internalType": "string",
          "name": "title",
          "type": "string"
        },
        {
          "indexed": false,
          "internalType": "uint256",
          "name": "price",
          "type": "uint256"
        }
      ],
      "name": "ContractCanceled",
      "type": "event"
    },
    {
      "anonymous": false,
      "inputs": [
        {
          "indexed": false,
          "internalType": "uint256",
          "name": "id",
          "type": "uint256"
        },
        {
          "indexed": true,
          "internalType": "address",
          "name": "issuer",
          "type": "address"
        },
        {
          "indexed": true,
          "internalType": "address",
          "name": "fulfiller",
          "type": "address"
        },
        {
          "indexed": false,
          "internalType": "string",
          "name": "title",
          "type": "string"
        },
        {
          "indexed": false,
          "internalType": "uint256",
          "name": "price",
          "type": "uint256"
        }
      ],
      "name": "DeliveryAccepted",
      "type": "event"
    },
    {
      "anonymous": false,
      "inputs": [
        {
          "indexed": false,
          "internalType": "uint256",
          "name": "id",
          "type": "uint256"
        },
        {
          "indexed": true,
          "internalType": "address",
          "name": "issuer",
          "type": "address"
        },
        {
          "indexed": true,
          "internalType": "address",
          "name": "fulfiller",
          "type": "address"
        },
        {
          "indexed": false,
          "internalType": "string",
          "name": "title",
          "type": "string"
        },
        {
          "indexed": false,
          "internalType": "uint256",
          "name": "price",
          "type": "uint256"
        }
      ],
      "name": "DeliveryRejected",
      "type": "event"
    },
    {
      "anonymous": false,
      "inputs": [
        {
          "indexed": false,
          "internalType": "uint256",
          "name": "id",
          "type": "uint256"
        },
        {
          "indexed": true,
          "internalType": "address",
          "name": "issuer",
          "type": "address"
        },
        {
          "indexed": true,
          "internalType": "address",
          "name": "fulfiller",
          "type": "address"
        },
        {
          "indexed": false,
          "internalType": "string",
          "name": "title",
          "type": "string"
        },
        {
          "indexed": false,
          "internalType": "uint256",
          "name": "price",
          "type": "uint256"
        }
      ],
      "name": "OfferCanceled",
      "type": "event"
    },
    {
      "anonymous": false,
      "inputs": [
        {
          "indexed": false,
          "internalType": "uint256",
          "name": "id",
          "type": "uint256"
        },
        {
          "indexed": true,
          "internalType": "address",
          "name": "issuer",
          "type": "address"
        },
        {
          "indexed": true,
          "internalType": "address",
          "name": "fulfiller",
          "type": "address"
        },
        {
          "indexed": false,
          "internalType": "string",
          "name": "title",
          "type": "string"
        },
        {
          "indexed": false,
          "internalType": "uint256",
          "name": "price",
          "type": "uint256"
        }
      ],
      "name": "OfferSubmitted",
      "type": "event"
    },
    {
      "anonymous": false,
      "inputs": [
        {
          "indexed": false,
          "internalType": "uint256",
          "name": "id",
          "type": "uint256"
        },
        {
          "indexed": true,
          "internalType": "address",
          "name": "issuer",
          "type": "address"
        },
        {
          "indexed": true,
          "internalType": "address",
          "name": "fulfiller",
          "type": "address"
        },
        {
          "indexed": false,
          "internalType": "string",
          "name": "title",
          "type": "string"
        },
        {
          "indexed": false,
          "internalType": "uint256",
          "name": "price",
          "type": "uint256"
        }
      ],
      "name": "ProjectDelivered",
      "type": "event"
    },
    {
      "anonymous": false,
      "inputs": [
        {
          "indexed": false,
          "internalType": "uint256",
          "name": "id",
          "type": "uint256"
        },
        {
          "indexed": true,
          "internalType": "address",
          "name": "issuer",
          "type": "address"
        },
        {
          "indexed": false,
          "internalType": "string",
          "name": "title",
          "type": "string"
        },
        {
          "indexed": false,
          "internalType": "uint256",
          "name": "price",
          "type": "uint256"
        },
        {
          "indexed": false,
          "internalType": "string",
          "name": "ipfsHash",
          "type": "string"
        }
      ],
      "name": "PublishedProject",
      "type": "event"
    },
    {
      "anonymous": false,
      "inputs": [
        {
          "indexed": false,
          "internalType": "uint256",
          "name": "id",
          "type": "uint256"
        },
        {
          "indexed": true,
          "internalType": "address",
          "name": "issuer",
          "type": "address"
        },
        {
          "indexed": false,
          "internalType": "uint256[]",
          "name": "ratings",
          "type": "uint256[]"
        }
      ],
      "name": "RatingsFulFiller",
      "type": "event"
    },
    {
      "anonymous": false,
      "inputs": [
        {
          "indexed": false,
          "internalType": "uint256",
          "name": "id",
          "type": "uint256"
        },
        {
          "indexed": true,
          "internalType": "address",
          "name": "fulfiller",
          "type": "address"
        },
        {
          "indexed": false,
          "internalType": "uint256[]",
          "name": "ratings",
          "type": "uint256[]"
        }
      ],
      "name": "RatingsIssuer",
      "type": "event"
    },
    {
      "anonymous": false,
      "inputs": [
        {
          "indexed": false,
          "internalType": "uint256",
          "name": "id",
          "type": "uint256"
        },
        {
          "indexed": true,
          "internalType": "address",
          "name": "issuer",
          "type": "address"
        },
        {
          "indexed": true,
          "internalType": "address",
          "name": "fulfiller",
          "type": "address"
        },
        {
          "indexed": false,
          "internalType": "string",
          "name": "title",
          "type": "string"
        },
        {
          "indexed": false,
          "internalType": "uint256",
          "name": "price",
          "type": "uint256"
        }
      ],
      "name": "RejectProposal",
      "type": "event"
    },
    {
      "anonymous": false,
      "inputs": [
        {
          "indexed": false,
          "internalType": "uint256",
          "name": "id",
          "type": "uint256"
        },
        {
          "indexed": true,
          "internalType": "address",
          "name": "issuer",
          "type": "address"
        },
        {
          "indexed": true,
          "internalType": "address",
          "name": "fulfiller",
          "type": "address"
        },
        {
          "indexed": false,
          "internalType": "string",
          "name": "title",
          "type": "string"
        },
        {
          "indexed": false,
          "internalType": "uint256",
          "name": "price",
          "type": "uint256"
        }
      ],
      "name": "ServicesCanceled",
      "type": "event"
    },
    {
      "anonymous": false,
      "inputs": [
        {
          "indexed": false,
          "internalType": "uint256",
          "name": "id",
          "type": "uint256"
        },
        {
          "indexed": true,
          "internalType": "address",
          "name": "issuer",
          "type": "address"
        },
        {
          "indexed": false,
          "internalType": "string",
          "name": "title",
          "type": "string"
        },
        {
          "indexed": false,
          "internalType": "uint256",
          "name": "price",
          "type": "uint256"
        }
      ],
      "name": "UnpublishedProject",
      "type": "event"
    },
    {
      "constant": true,
      "inputs": [
        {
          "internalType": "uint256",
          "name": "",
          "type": "uint256"
        }
      ],
      "name": "projects",
      "outputs": [
        {
          "internalType": "uint256",
          "name": "id",
          "type": "uint256"
        },
        {
          "internalType": "address payable",
          "name": "issuer",
          "type": "address"
        },
        {
          "internalType": "address payable",
          "name": "fulfiller",
          "type": "address"
        },
        {
          "internalType": "string",
          "name": "title",
          "type": "string"
        },
        {
          "internalType": "uint256",
          "name": "price",
          "type": "uint256"
        },
        {
          "internalType": "string",
          "name": "ipfsHash",
          "type": "string"
        },
        {
          "internalType": "enum ChainBizz.ProjectStatus",
          "name": "status",
          "type": "uint8"
        },
        {
          "internalType": "bool",
          "name": "ratingsIssuerDone",
          "type": "bool"
        },
        {
          "internalType": "bool",
          "name": "ratingsFulfillerDone",
          "type": "bool"
        }
      ],
      "payable": false,
      "stateMutability": "view",
      "type": "function"
    },
    {
      "constant": false,
      "inputs": [],
      "name": "enableContract",
      "outputs": [],
      "payable": false,
      "stateMutability": "nonpayable",
      "type": "function"
    },
    {
      "constant": false,
      "inputs": [],
      "name": "disableContract",
      "outputs": [],
      "payable": false,
      "stateMutability": "nonpayable",
      "type": "function"
    },
    {
      "constant": false,
      "inputs": [
        {
          "internalType": "string",
          "name": "_title",
          "type": "string"
        },
        {
          "internalType": "uint256",
          "name": "_price",
          "type": "uint256"
        },
        {
          "internalType": "string",
          "name": "_ipfsHash",
          "type": "string"
        }
      ],
      "name": "publishProject",
      "outputs": [],
      "payable": false,
      "stateMutability": "nonpayable",
      "type": "function"
    },
    {
      "constant": false,
      "inputs": [
        {
          "internalType": "uint256",
          "name": "_id",
          "type": "uint256"
        }
      ],
      "name": "publishProjectOld",
      "outputs": [],
      "payable": false,
      "stateMutability": "nonpayable",
      "type": "function"
    },
    {
      "constant": false,
      "inputs": [
        {
          "internalType": "uint256",
          "name": "_id",
          "type": "uint256"
        }
      ],
      "name": "unpublishProject",
      "outputs": [],
      "payable": false,
      "stateMutability": "nonpayable",
      "type": "function"
    },
    {
      "constant": false,
      "inputs": [
        {
          "internalType": "uint256",
          "name": "_id",
          "type": "uint256"
        }
      ],
      "name": "submitOffer",
      "outputs": [],
      "payable": false,
      "stateMutability": "nonpayable",
      "type": "function"
    },
    {
      "constant": false,
      "inputs": [
        {
          "internalType": "uint256",
          "name": "_id",
          "type": "uint256"
        }
      ],
      "name": "cancelOffer",
      "outputs": [],
      "payable": false,
      "stateMutability": "nonpayable",
      "type": "function"
    },
    {
      "constant": false,
      "inputs": [
        {
          "internalType": "uint256",
          "name": "_id",
          "type": "uint256"
        }
      ],
      "name": "acceptProposal",
      "outputs": [],
      "payable": true,
      "stateMutability": "payable",
      "type": "function"
    },
    {
      "constant": false,
      "inputs": [
        {
          "internalType": "uint256",
          "name": "_id",
          "type": "uint256"
        }
      ],
      "name": "rejectProposal",
      "outputs": [],
      "payable": false,
      "stateMutability": "nonpayable",
      "type": "function"
    },
    {
      "constant": false,
      "inputs": [
        {
          "internalType": "uint256",
          "name": "_id",
          "type": "uint256"
        }
      ],
      "name": "deliverProject",
      "outputs": [],
      "payable": false,
      "stateMutability": "nonpayable",
      "type": "function"
    },
    {
      "constant": false,
      "inputs": [
        {
          "internalType": "uint256",
          "name": "_id",
          "type": "uint256"
        }
      ],
      "name": "cancelServices",
      "outputs": [],
      "payable": false,
      "stateMutability": "nonpayable",
      "type": "function"
    },
    {
      "constant": false,
      "inputs": [
        {
          "internalType": "uint256",
          "name": "_id",
          "type": "uint256"
        }
      ],
      "name": "acceptDelivery",
      "outputs": [],
      "payable": false,
      "stateMutability": "nonpayable",
      "type": "function"
    },
    {
      "constant": false,
      "inputs": [
        {
          "internalType": "uint256",
          "name": "_id",
          "type": "uint256"
        },
        {
          "internalType": "uint256[]",
          "name": "_ratings",
          "type": "uint256[]"
        }
      ],
      "name": "setRatingsFulfiller",
      "outputs": [],
      "payable": false,
      "stateMutability": "nonpayable",
      "type": "function"
    },
    {
      "constant": false,
      "inputs": [
        {
          "internalType": "uint256",
          "name": "_id",
          "type": "uint256"
        },
        {
          "internalType": "uint256[]",
          "name": "_ratings",
          "type": "uint256[]"
        }
      ],
      "name": "setRatingsIssuer",
      "outputs": [],
      "payable": false,
      "stateMutability": "nonpayable",
      "type": "function"
    },
    {
      "constant": false,
      "inputs": [
        {
          "internalType": "uint256",
          "name": "_id",
          "type": "uint256"
        }
      ],
      "name": "rejectDelivery",
      "outputs": [],
      "payable": false,
      "stateMutability": "nonpayable",
      "type": "function"
    },
    {
      "constant": false,
      "inputs": [
        {
          "internalType": "uint256",
          "name": "_id",
          "type": "uint256"
        }
      ],
      "name": "cancelContract",
      "outputs": [],
      "payable": false,
      "stateMutability": "nonpayable",
      "type": "function"
    },
    {
      "constant": true,
      "inputs": [],
      "name": "isEnabled",
      "outputs": [
        {
          "internalType": "bool",
          "name": "",
          "type": "bool"
        }
      ],
      "payable": false,
      "stateMutability": "view",
      "type": "function"
    },
    {
      "constant": true,
      "inputs": [
        {
          "internalType": "uint256",
          "name": "_id",
          "type": "uint256"
        }
      ],
      "name": "getProject",
      "outputs": [
        {
          "internalType": "address",
          "name": "issuer",
          "type": "address"
        },
        {
          "internalType": "address",
          "name": "fulfiller",
          "type": "address"
        },
        {
          "internalType": "string",
          "name": "title",
          "type": "string"
        },
        {
          "internalType": "uint256",
          "name": "price",
          "type": "uint256"
        },
        {
          "internalType": "string",
          "name": "ipfsHash",
          "type": "string"
        },
        {
          "internalType": "enum ChainBizz.ProjectStatus",
          "name": "status",
          "type": "uint8"
        },
        {
          "internalType": "bool",
          "name": "ratingsIssuerDone",
          "type": "bool"
        },
        {
          "internalType": "bool",
          "name": "ratingsFulfillerDone",
          "type": "bool"
        },
        {
          "internalType": "uint256[]",
          "name": "ratingsIssuer",
          "type": "uint256[]"
        },
        {
          "internalType": "uint256[]",
          "name": "ratingsFulfiller",
          "type": "uint256[]"
        }
      ],
      "payable": false,
      "stateMutability": "view",
      "type": "function"
    },
    {
      "constant": true,
      "inputs": [],
      "name": "getAllProjects",
      "outputs": [
        {
          "internalType": "uint256[]",
          "name": "",
          "type": "uint256[]"
        }
      ],
      "payable": false,
      "stateMutability": "view",
      "type": "function"
    },
    {
      "constant": true,
      "inputs": [],
      "name": "getAllProjectsAsIssuer",
      "outputs": [
        {
          "internalType": "uint256[]",
          "name": "",
          "type": "uint256[]"
        }
      ],
      "payable": false,
      "stateMutability": "view",
      "type": "function"
    },
    {
      "constant": true,
      "inputs": [],
      "name": "getAllProjectsAsFulfiller",
      "outputs": [
        {
          "internalType": "uint256[]",
          "name": "",
          "type": "uint256[]"
        }
      ],
      "payable": false,
      "stateMutability": "view",
      "type": "function"
    },
    {
      "constant": true,
      "inputs": [],
      "name": "getPublishedProjects",
      "outputs": [
        {
          "internalType": "uint256[]",
          "name": "",
          "type": "uint256[]"
        }
      ],
      "payable": false,
      "stateMutability": "view",
      "type": "function"
    },
    {
      "constant": true,
      "inputs": [],
      "name": "getMyProjects",
      "outputs": [
        {
          "internalType": "uint256[]",
          "name": "",
          "type": "uint256[]"
        }
      ],
      "payable": false,
      "stateMutability": "view",
      "type": "function"
    },
    {
      "constant": true,
      "inputs": [],
      "name": "getMyOffers",
      "outputs": [
        {
          "internalType": "uint256[]",
          "name": "",
          "type": "uint256[]"
        }
      ],
      "payable": false,
      "stateMutability": "view",
      "type": "function"
    },
    {
      "constant": true,
      "inputs": [],
      "name": "getMyReviews",
      "outputs": [
        {
          "internalType": "uint256[]",
          "name": "",
          "type": "uint256[]"
        }
      ],
      "payable": false,
      "stateMutability": "view",
      "type": "function"
    },
    {
      "constant": true,
      "inputs": [],
      "name": "getMyContracts",
      "outputs": [
        {
          "internalType": "uint256[]",
          "name": "",
          "type": "uint256[]"
        }
      ],
      "payable": false,
      "stateMutability": "view",
      "type": "function"
    },
    {
      "constant": true,
      "inputs": [],
      "name": "getDeliveries",
      "outputs": [
        {
          "internalType": "uint256[]",
          "name": "",
          "type": "uint256[]"
        }
      ],
      "payable": false,
      "stateMutability": "view",
      "type": "function"
    },
    {
      "constant": true,
      "inputs": [],
      "name": "getCompleted",
      "outputs": [
        {
          "internalType": "uint256[]",
          "name": "",
          "type": "uint256[]"
        }
      ],
      "payable": false,
      "stateMutability": "view",
      "type": "function"
    },
    {
      "constant": true,
      "inputs": [],
      "name": "getCanceled",
      "outputs": [
        {
          "internalType": "uint256[]",
          "name": "",
          "type": "uint256[]"
        }
      ],
      "payable": false,
      "stateMutability": "view",
      "type": "function"
    },
    {
      "constant": true,
      "inputs": [],
      "name": "getRatingsAsIssuer",
      "outputs": [
        {
          "internalType": "uint256[]",
          "name": "ratings",
          "type": "uint256[]"
        },
        {
          "internalType": "uint256",
          "name": "nbProjects",
          "type": "uint256"
        }
      ],
      "payable": false,
      "stateMutability": "view",
      "type": "function"
    },
    {
      "constant": true,
      "inputs": [],
      "name": "getRatingsAsFulfiller",
      "outputs": [
        {
          "internalType": "uint256[]",
          "name": "ratings",
          "type": "uint256[]"
        },
        {
          "internalType": "uint256",
          "name": "nbProjects",
          "type": "uint256"
        }
      ],
      "payable": false,
      "stateMutability": "view",
      "type": "function"
    }
  ],
  "bytecode": "0x608060405234801561001057600080fd5b5060028054600160ff1990911617610100600160a81b0319166101003302179055614691806100406000396000f3fe6080604052600436106101e35760003560e01c80637dde9c6e11610102578063bd140c4b11610095578063ef1b655311610064578063ef1b65531461096c578063ef706adf14610981578063f0f3f2c8146109ab578063f7f2ccbf14610b85576101e3565b8063bd140c4b14610918578063c81bde151461092d578063e4f655b014610942578063ececbacc14610957576101e3565b806391ed2069116100d157806391ed20691461082a578063b0bfa89414610854578063b85a72d2146108c4578063bc28d878146108ee576101e3565b80637dde9c6e1461073657806380d03829146107eb578063894ba833146108005780638c87631414610815576101e3565b80634beb7e941161017a5780636aa633b6116101495780636aa633b61461057b5780636f65c717146105a457806372f7c34e146105ce5780637b422c4c1461070c576101e3565b80634beb7e941461050a5780635b54f9821461051f57806360c5cc3a14610534578063629a064e14610551576101e3565b8063138e0b26116101b6578063138e0b26146104015780632779df251461041657806328047450146104cb578063367edd32146104f5576101e3565b806302255d68146101e8578063037852c71461024d5780630850cd1e14610262578063107046bd1461028e575b600080fd5b3480156101f457600080fd5b506101fd610baf565b60408051602080825283518183015283519192839290830191858101910280838360005b83811015610239578181015183820152602001610221565b505050509050019250505060405180910390f35b34801561025957600080fd5b506101fd610cf2565b34801561026e57600080fd5b5061028c6004803603602081101561028557600080fd5b5035610e53565b005b34801561029a57600080fd5b506102b8600480360360208110156102b157600080fd5b5035611045565b604051808a8152602001896001600160a01b03166001600160a01b03168152602001886001600160a01b03166001600160a01b03168152602001806020018781526020018060200186600881111561030c57fe5b60ff1681526020018515151515815260200184151515158152602001838103835289818151815260200191508051906020019080838360005b8381101561035d578181015183820152602001610345565b50505050905090810190601f16801561038a5780820380516001836020036101000a031916815260200191505b50838103825287518152875160209182019189019080838360005b838110156103bd5781810151838201526020016103a5565b50505050905090810190601f1680156103ea5780820380516001836020036101000a031916815260200191505b509b50505050505050505050505060405180910390f35b34801561040d57600080fd5b506101fd6111b7565b34801561042257600080fd5b5061028c6004803603604081101561043957600080fd5b81359190810190604081016020820135600160201b81111561045a57600080fd5b82018360208201111561046c57600080fd5b803590602001918460208302840111600160201b8311171561048d57600080fd5b91908080602002602001604051908101604052809392919081815260200183836020028082843760009201919091525092955061133c945050505050565b3480156104d757600080fd5b5061028c600480360360208110156104ee57600080fd5b50356115bf565b34801561050157600080fd5b5061028c611846565b34801561051657600080fd5b506101fd6118a3565b34801561052b57600080fd5b506101fd611a04565b61028c6004803603602081101561054a57600080fd5b5035611b89565b34801561055d57600080fd5b5061028c6004803603602081101561057457600080fd5b5035611d9c565b34801561058757600080fd5b50610590611f70565b604080519115158252519081900360200190f35b3480156105b057600080fd5b5061028c600480360360208110156105c757600080fd5b5035611f79565b3480156105da57600080fd5b5061028c600480360360608110156105f157600080fd5b810190602081018135600160201b81111561060b57600080fd5b82018360208201111561061d57600080fd5b803590602001918460018302840111600160201b8311171561063e57600080fd5b91908080601f01602080910402602001604051908101604052809392919081815260200183838082843760009201919091525092958435959094909350604081019250602001359050600160201b81111561069857600080fd5b8201836020820111156106aa57600080fd5b803590602001918460018302840111600160201b831117156106cb57600080fd5b91908080601f016020809104026020016040519081016040528093929190818152602001838380828437600092019190915250929550612116945050505050565b34801561071857600080fd5b5061028c6004803603602081101561072f57600080fd5b50356124f0565b34801561074257600080fd5b5061028c6004803603604081101561075957600080fd5b81359190810190604081016020820135600160201b81111561077a57600080fd5b82018360208201111561078c57600080fd5b803590602001918460208302840111600160201b831117156107ad57600080fd5b9190808060200260200160405190810160405280939291908181526020018383602002808284376000920191909152509295506126f4945050505050565b3480156107f757600080fd5b506101fd612971565b34801561080c57600080fd5b5061028c612aa5565b34801561082157600080fd5b506101fd612c3f565b34801561083657600080fd5b5061028c6004803603602081101561084d57600080fd5b5035612d75565b34801561086057600080fd5b50610869612f78565b6040518080602001838152602001828103825284818151815260200191508051906020019060200280838360005b838110156108af578181015183820152602001610897565b50505050905001935050505060405180910390f35b3480156108d057600080fd5b5061028c600480360360208110156108e757600080fd5b50356130cf565b3480156108fa57600080fd5b5061028c6004803603602081101561091157600080fd5b5035613291565b34801561092457600080fd5b506101fd6134b4565b34801561093957600080fd5b506101fd613639565b34801561094e57600080fd5b506101fd6137e7565b34801561096357600080fd5b50610869613975565b34801561097857600080fd5b506101fd613a94565b34801561098d57600080fd5b5061028c600480360360208110156109a457600080fd5b5035613bf5565b3480156109b757600080fd5b506109d5600480360360208110156109ce57600080fd5b5035613dd8565b604080516001600160a01b03808d1682528b166020820152606081018990529081016080820160a08301886008811115610a0b57fe5b60ff1681526020018715151515815260200186151515158152602001806020018060200185810385528d818151815260200191508051906020019080838360005b83811015610a64578181015183820152602001610a4c565b50505050905090810190601f168015610a915780820380516001836020036101000a031916815260200191505b5085810384528b5181528b516020918201918d019080838360005b83811015610ac4578181015183820152602001610aac565b50505050905090810190601f168015610af15780820380516001836020036101000a031916815260200191505b508581038352875181528751602091820191808a01910280838360005b83811015610b26578181015183820152602001610b0e565b50505050905001858103825286818151815260200191508051906020019060200280838360005b83811015610b65578181015183820152602001610b4d565b505050509050019e50505050505050505050505050505060405180910390f35b348015610b9157600080fd5b5061028c60048036036020811015610ba857600080fd5b503561418e565b606060015460001415610bd65760408051600080825260208201909252905b509050610cef565b6060600154604051908082528060200260200182016040528015610c04578160200160208202803883390190505b509050600060015b6001548111610c7b576000818152602081905260409020600201546001600160a01b0316331415610c73576000818152602081905260409020548351849084908110610c5457fe5b6020908102919091010152610c7082600163ffffffff61437216565b91505b600101610c0c565b50606081604051908082528060200260200182016040528015610ca8578160200160208202803883390190505b50905060005b82811015610ce957838181518110610cc257fe5b6020026020010151828281518110610cd657fe5b6020908102919091010152600101610cae565b50925050505b90565b606060015460001415610d15576040805160008082526020820190925290610bce565b6060600154604051908082528060200260200182016040528015610d43578160200160208202803883390190505b509050600060015b6001548111610de5576000818152602081905260409020600201546001600160a01b031633148015610d9c5750600260008281526020819052604090206006015460ff166008811115610d9a57fe5b145b15610ddd576000818152602081905260409020548351849084908110610dbe57fe5b6020908102919091010152610dda82600163ffffffff61437216565b91505b600101610d4b565b50606081604051908082528060200260200182016040528015610e12578160200160208202803883390190505b50905060005b82811015610ce957838181518110610e2c57fe5b6020026020010151828281518110610e4057fe5b6020908102919091010152600101610e18565b60025460ff161515600114610e995760405162461bcd60e51b815260040180806020018281038252602281526020018061456b6022913960400191505060405180910390fd5b600081815260208190526040902060018101546001600160a01b0316610ebf5750611042565b60018101546001600160a01b03163314610f0a5760405162461bcd60e51b815260040180806020018281038252602681526020018061458d6026913960400191505060405180910390fd5b6001600682015460ff166008811115610f1f57fe5b14610f69576040805162461bcd60e51b815260206004820152601560248201527410d85b9b9bdd081899481d5b9c1d589b1a5cda1959605a1b604482015290519081900360640190fd5b60068101805460ff191690556004810154604080518481529081018290526060602082018181526003850180546002600182161561010002600019019091160492840183905233947f3525d4593ef70f97d7b99dfeab0e0be748aeb51f464f83bf0bbf5ab6badb45c8948894929391929091906080830190859080156110305780601f1061100557610100808354040283529160200191611030565b820191906000526020600020905b81548152906001019060200180831161101357829003601f168201915b505094505050505060405180910390a2505b50565b60006020818152918152604090819020805460018083015460028085015460038601805488516101009682161596909602600019011692909204601f810189900489028501890190975286845293966001600160a01b03928316969290941694939091908301828280156110fa5780601f106110cf576101008083540402835291602001916110fa565b820191906000526020600020905b8154815290600101906020018083116110dd57829003601f168201915b50505050600483015460058401805460408051602060026001851615610100026000190190941693909304601f810184900484028201840190925281815295969395939450908301828280156111915780601f1061116657610100808354040283529160200191611191565b820191906000526020600020905b81548152906001019060200180831161117457829003601f168201915b5050506006909301549192505060ff808216916101008104821691620100009091041689565b6060600154600014156111da576040805160008082526020820190925290610bce565b6060600154604051908082528060200260200182016040528015611208578160200160208202803883390190505b509050600060015b60015481116112ce576000818152602081905260409020600101546001600160a01b031633148061125a57506000818152602081905260409020600201546001600160a01b031633145b80156112855750600460008281526020819052604090206006015460ff16600881111561128357fe5b145b156112c65760008181526020819052604090205483518490849081106112a757fe5b60209081029190910101526112c382600163ffffffff61437216565b91505b600101611210565b506060816040519080825280602002602001820160405280156112fb578160200160208202803883390190505b50905060005b82811015610ce95783818151811061131557fe5b602002602001015182828151811061132957fe5b6020908102919091010152600101611301565b60025460ff1615156001146113825760405162461bcd60e51b815260040180806020018281038252602281526020018061456b6022913960400191505060405180910390fd5b600082815260208190526040902060068082015460ff1660088111156113a457fe5b14806113c257506005600682015460ff1660088111156113c057fe5b145b61140f576040805162461bcd60e51b8152602060048201526019602482015278141c9bda9958dd081b9bdd081e595d08199a5b985b1a5cd959603a1b604482015290519081900360640190fd5b60018101546001600160a01b031661142757506115bb565b60018101546001600160a01b031633146114725760405162461bcd60e51b815260040180806020018281038252602681526020018061458d6026913960400191505060405180910390fd5b600681015462010000900460ff16156114bc5760405162461bcd60e51b81526004018080602001828103825260268152602001806145246026913960400191505060405180910390fd5b6006825111156114fd5760405162461bcd60e51b81526004018080602001828103825260268152602001806144fe6026913960400191505060405180910390fd5b815161151290600883019060208501906143d3565b5060068101805462ff0000191662010000179055600181015460408051858152602081018281526008850180549383018490526001600160a01b03909416937fa1555a03b388d659ecb566f62d10590b459283a0d2829882262a15aaaf04a3c29388939192906060830190849080156115aa57602002820191906000526020600020905b815481526020019060010190808311611596575b5050935050505060405180910390a2505b5050565b60025460ff1615156001146116055760405162461bcd60e51b815260040180806020018281038252602281526020018061456b6022913960400191505060405180910390fd5b600081815260208190526040902060018101546001600160a01b031661162b5750611042565b60018101546001600160a01b0316331461168c576040805162461bcd60e51b815260206004820181905260248201527f596f7520617265206e6f74207468652070726f6a656374277320697373756572604482015290519081900360640190fd5b6003600682015460ff1660088111156116a157fe5b14806116bf57506004600682015460ff1660088111156116bd57fe5b145b61170a576040805162461bcd60e51b815260206004820152601760248201527650726f6a656374206e6f7420696e2070726f677265737360481b604482015290519081900360640190fd5b600181015460048201546040516001600160a01b039092169181156108fc0291906000818181858888f1935050505015801561174a573d6000803e3d6000fd5b506006818101805460ff19169091179055600280820154600180840154600485015460408051888152908101829052606060208201818152600389018054610100978116159790970260001901909616979097049082018190526001600160a01b039586169695909316947fbe0490d452ff53df72b8d99df1c2a4711a2429c8dbb450f514d37b0b03e0db3794899490939291906080830190859080156118325780601f1061180757610100808354040283529160200191611832565b820191906000526020600020905b81548152906001019060200180831161181557829003601f168201915b505094505050505060405180910390a35050565b60025461010090046001600160a01b031633146118945760405162461bcd60e51b81526004018080602001828103825260318152602001806145d46031913960400191505060405180910390fd5b6002805460ff19166001179055565b6060600154600014156118c6576040805160008082526020820190925290610bce565b60606001546040519080825280602002602001820160405280156118f4578160200160208202803883390190505b509050600060015b6001548111611996576000818152602081905260409020600101546001600160a01b03161580159061194d5750600160008281526020819052604090206006015460ff16600881111561194b57fe5b145b1561198e57600081815260208190526040902054835184908490811061196f57fe5b602090810291909101015261198b82600163ffffffff61437216565b91505b6001016118fc565b506060816040519080825280602002602001820160405280156119c3578160200160208202803883390190505b50905060005b82811015610ce9578381815181106119dd57fe5b60200260200101518282815181106119f157fe5b60209081029190910101526001016119c9565b606060015460001415611a27576040805160008082526020820190925290610bce565b6060600154604051908082528060200260200182016040528015611a55578160200160208202803883390190505b509050600060015b6001548111611b1b576000818152602081905260409020600101546001600160a01b0316331480611aa757506000818152602081905260409020600201546001600160a01b031633145b8015611ad25750600560008281526020819052604090206006015460ff166008811115611ad057fe5b145b15611b13576000818152602081905260409020548351849084908110611af457fe5b6020908102919091010152611b1082600163ffffffff61437216565b91505b600101611a5d565b50606081604051908082528060200260200182016040528015611b48578160200160208202803883390190505b50905060005b82811015610ce957838181518110611b6257fe5b6020026020010151828281518110611b7657fe5b6020908102919091010152600101611b4e565b60025460ff161515600114611bcf5760405162461bcd60e51b815260040180806020018281038252602281526020018061456b6022913960400191505060405180910390fd5b600081815260208190526040902060018101546001600160a01b0316611bf55750611042565b60018101546001600160a01b03163314611c405760405162461bcd60e51b815260040180806020018281038252602681526020018061458d6026913960400191505060405180910390fd5b6002600682015460ff166008811115611c5557fe5b14611ca0576040805162461bcd60e51b815260206004820152601660248201527550726f706f73616c206e6f7420696e2072657669657760501b604482015290519081900360640190fd5b80600401543414611ce25760405162461bcd60e51b815260040180806020018281038252602f81526020018061462e602f913960400191505060405180910390fd5b60068101805460ff191660039081179091556002808301546001808501546004860154604080518981529081018290526060602082018181529789018054610100968116159690960260001901909516969096049581018690526001600160a01b039485169694909216947fd0ca6107f6c9513954ca859c885b1e8b434687b6cf5e40625574d53dda8422ed94899493916080830190859080156118325780601f1061180757610100808354040283529160200191611832565b60025460ff161515600114611de25760405162461bcd60e51b815260040180806020018281038252602281526020018061456b6022913960400191505060405180910390fd5b600081815260208190526040902060018101546001600160a01b0316611e085750611042565b60028101546001600160a01b03163314611e535760405162461bcd60e51b815260040180806020018281038252602181526020018061454a6021913960400191505060405180910390fd5b6003600682015460ff166008811115611e6857fe5b14611eb4576040805162461bcd60e51b815260206004820152601760248201527650726f6a656374206e6f7420696e2070726f677265737360481b604482015290519081900360640190fd5b60068101805460ff191660049081179091556002808301546001808501549385015460408051888152908101829052606060208201818152600389018054610100968116159690960260001901909516969096049082018190526001600160a01b039485169694909416947f2c29e86efe7dba61218108fc48fc467f0b2d89a5dd6741ff0df4b17bdf5cab68948994939291906080830190859080156118325780601f1061180757610100808354040283529160200191611832565b60025460ff1690565b60025460ff161515600114611fbf5760405162461bcd60e51b815260040180806020018281038252602281526020018061456b6022913960400191505060405180910390fd5b600081815260208190526040902060018101546001600160a01b0316611fe55750611042565b6001600682015460ff166008811115611ffa57fe5b1461204c576040805162461bcd60e51b815260206004820152601960248201527f50726f6a656374206e6f206d6f726520617661696c61626c6500000000000000604482015290519081900360640190fd5b600280820180546001600160a01b0319163317905560068201805460ff191660018302179055506001818101546004830154604080518681529081018290526060602082018181526003870180546002610100988216159890980260001901169690960491830182905233956001600160a01b03909516947f337b4516025ec150291d21f457dad5d6d43ea3f7da34432124932cd2a6b700b194899491939092906080830190859080156118325780601f1061180757610100808354040283529160200191611832565b60025460ff16151560011461215c5760405162461bcd60e51b815260040180806020018281038252602281526020018061456b6022913960400191505060405180910390fd5b825183906121a7576040805162461bcd60e51b815260206004820152601360248201527210481d1a5d1b19481a5cc81c995c5d5a5c9959606a1b604482015290519081900360640190fd5b815182906121fc576040805162461bcd60e51b815260206004820152601a60248201527f41206861736820746f2049504653206973207265717569726564000000000000604482015290519081900360640190fd5b6001805461220f9163ffffffff61437216565b60018181556040805161016081018252928352336020840152600090830152606082018790526080820186905260a0820185905260c08201908152600060208083018290526040808401929092528151600480825260a0820190935260609093019291908201608080388339505050815260408051600680825260e08201909252602092830192909190820160c08038833950505090526001805460009081526020818152604091829020845181558482015193810180546001600160a01b03199081166001600160a01b0396871617909155928501516002820180549094169416939093179091556060830151805161230f926003850192019061441e565b506080820151600482015560a0820151805161233591600584019160209091019061441e565b5060c082015160068201805460ff1916600183600881111561235357fe5b021790555060e08201516006820180546101008086015161ff0019909216931515029290921762ff00001916620100009215159290920291909117905561012082015180516123ac9160078401916020909101906143d3565b5061014082015180516123c99160088401916020909101906143d3565b50905050336001600160a01b03167fea07c326ec88ddea19d72529e511ce438c2cd368f463f890406ab6582b2dc0db600154878787604051808581526020018060200184815260200180602001838103835286818151815260200191508051906020019080838360005b8381101561244b578181015183820152602001612433565b50505050905090810190601f1680156124785780820380516001836020036101000a031916815260200191505b50838103825284518152845160209182019186019080838360005b838110156124ab578181015183820152602001612493565b50505050905090810190601f1680156124d85780820380516001836020036101000a031916815260200191505b50965050505050505060405180910390a25050505050565b60025460ff1615156001146125365760405162461bcd60e51b815260040180806020018281038252602281526020018061456b6022913960400191505060405180910390fd5b600081815260208190526040902060018101546001600160a01b031661255c5750611042565b60018101546001600160a01b031633146125a75760405162461bcd60e51b815260040180806020018281038252602681526020018061458d6026913960400191505060405180910390fd5b6004600682015460ff1660088111156125bc57fe5b146125f85760405162461bcd60e51b81526004018080602001828103825260218152602001806145b36021913960400191505060405180910390fd5b600281015460048201546040516001600160a01b039092169181156108fc0291906000818181858888f19350505050158015612638573d6000803e3d6000fd5b5060068101805460ff19166005179055600280820154600180840154600485015460408051888152908101829052606060208201818152600389018054610100978116159790970260001901909616979097049082018190526001600160a01b039586169695909316947f72a87e41eb71c3d97ada3d99bed7a092d856bcdc4f034ef117099e051038cd7a94899490939291906080830190859080156118325780601f1061180757610100808354040283529160200191611832565b60025460ff16151560011461273a5760405162461bcd60e51b815260040180806020018281038252602281526020018061456b6022913960400191505060405180910390fd5b600082815260208190526040902060068082015460ff16600881111561275c57fe5b148061277a57506005600682015460ff16600881111561277857fe5b145b6127c7576040805162461bcd60e51b8152602060048201526019602482015278141c9bda9958dd081b9bdd081e595d08199a5b985b1a5cd959603a1b604482015290519081900360640190fd5b60018101546001600160a01b03166127df57506115bb565b6006810154610100900460ff16156128285760405162461bcd60e51b81526004018080602001828103825260268152602001806145246026913960400191505060405180910390fd5b60028101546001600160a01b031633146128735760405162461bcd60e51b81526004018080602001828103825260298152602001806146056029913960400191505060405180910390fd5b6004825111156128b45760405162461bcd60e51b81526004018080602001828103825260268152602001806144fe6026913960400191505060405180910390fd5b81516128c990600783019060208501906143d3565b5060068101805461ff001916610100179055600281015460408051858152602081018281526007850180549383018490526001600160a01b03909416937f302217e0f5d9a629b94eb6808aacbbfb80af259708456e33124728c358460d539388939192906060830190849080156115aa5760200282019190600052602060002090815481526020019060010190808311611596575050935050505060405180910390a2505050565b606060015460001415612994576040805160008082526020820190925290610bce565b60606001546040519080825280602002602001820160405280156129c2578160200160208202803883390190505b509050600060015b6001548111612a37576000818152602081905260409020600101546001600160a01b031615612a2f576000818152602081905260409020548351849084908110612a1057fe5b6020908102919091010152612a2c82600163ffffffff61437216565b91505b6001016129ca565b50606081604051908082528060200260200182016040528015612a64578160200160208202803883390190505b50905060005b82811015610ce957838181518110612a7e57fe5b6020026020010151828281518110612a9257fe5b6020908102919091010152600101612a6a565b60025461010090046001600160a01b03163314612af35760405162461bcd60e51b81526004018080602001828103825260318152602001806145d46031913960400191505060405180910390fd5b60025460ff161515600114612b395760405162461bcd60e51b815260040180806020018281038252602281526020018061456b6022913960400191505060405180910390fd5b6002805460ff19169055600154612b4f57612c3d565b6060600154604051908082528060200260200182016040528015612b7d578160200160208202803883390190505b509050600060015b6001548111612c395760008181526020819052604090206003600682015460ff166008811115612bb157fe5b1480612bcf57506004600682015460ff166008811115612bcd57fe5b145b15612c3057600481015415612c2057600181015460048201546040516001600160a01b039092169181156108fc0291906000818181858888f19350505050158015612c1e573d6000803e3d6000fd5b505b60068101805460ff191660071790555b50600101612b85565b5050505b565b606060015460001415612c62576040805160008082526020820190925290610bce565b6060600154604051908082528060200260200182016040528015612c90578160200160208202803883390190505b509050600060015b6001548111612d07576000818152602081905260409020600101546001600160a01b0316331415612cff576000818152602081905260409020548351849084908110612ce057fe5b6020908102919091010152612cfc82600163ffffffff61437216565b91505b600101612c98565b50606081604051908082528060200260200182016040528015612d34578160200160208202803883390190505b50905060005b82811015610ce957838181518110612d4e57fe5b6020026020010151828281518110612d6257fe5b6020908102919091010152600101612d3a565b60025460ff161515600114612dbb5760405162461bcd60e51b815260040180806020018281038252602281526020018061456b6022913960400191505060405180910390fd5b600081815260208190526040902060018101546001600160a01b0316612de15750611042565b60018101546001600160a01b03163314612e2c5760405162461bcd60e51b815260040180806020018281038252602681526020018061458d6026913960400191505060405180910390fd5b6000600682015460ff166008811115612e4157fe5b14612e89576040805162461bcd60e51b815260206004820152601360248201527210d85b9b9bdd081899481c1d589b1a5cda1959606a1b604482015290519081900360640190fd5b60068101805460ff191660019081179091556004820154604080518581529081018290526080602082018181526003860180546002968116156101000260001901169590950491830182905233947fea07c326ec88ddea19d72529e511ce438c2cd368f463f890406ab6582b2dc0db9488949193909290606083019060a084019086908015612f595780601f10612f2e57610100808354040283529160200191612f59565b820191906000526020600020905b815481529060010190602001808311612f3c57829003601f168201915b5050928303905250600081526040805191829003019350915050a25050565b6060600060015460001415612fb15760408051600480825260a082019092529060208201608080388339019050509150600090506130cb565b60408051600480825260a0820190925260609160208201608080388339019050509050600060015b60015481116130c4576000818152602081905260409020600101546001600160a01b031633148015613027575060008181526020819052604090206006015460ff6101009091041615156001145b156130bc5760005b60048110156130a757613088600080848152602001908152602001600020600701828154811061305b57fe5b906000526020600020015485838151811061307257fe5b602002602001015161437290919063ffffffff16565b84828151811061309457fe5b602090810291909101015260010161302f565b506130b982600163ffffffff61437216565b91505b600101612fd9565b5090925090505b9091565b60025460ff1615156001146131155760405162461bcd60e51b815260040180806020018281038252602281526020018061456b6022913960400191505060405180910390fd5b600081815260208190526040902060018101546001600160a01b031661313b5750611042565b60018101546001600160a01b031633146131865760405162461bcd60e51b815260040180806020018281038252602681526020018061458d6026913960400191505060405180910390fd5b6004600682015460ff16600881111561319b57fe5b146131d75760405162461bcd60e51b81526004018080602001828103825260218152602001806145b36021913960400191505060405180910390fd5b60068101805460ff191660039081179091556002808301546001808501546004860154604080518981529081018290526060602082018181529789018054610100968116159690960260001901909516969096049581018690526001600160a01b039485169694909216947f45db355d424e661e8b7ea210fd36cd8224f4955611152ce93518a27f205467e494899493916080830190859080156118325780601f1061180757610100808354040283529160200191611832565b60025460ff1615156001146132d75760405162461bcd60e51b815260040180806020018281038252602281526020018061456b6022913960400191505060405180910390fd5b600081815260208190526040902060018101546001600160a01b03166132fd5750611042565b60018101546001600160a01b031633146133485760405162461bcd60e51b815260040180806020018281038252602681526020018061458d6026913960400191505060405180910390fd5b6002600682015460ff16600881111561335d57fe5b146133a8576040805162461bcd60e51b815260206004820152601660248201527550726f706f73616c206e6f7420696e2072657669657760501b604482015290519081900360640190fd5b6002818101805460068401805460ff191660019081179091556001600160a01b0319821690925581840154600485015460408051888152908101829052606060208201818152600389018054610100988116159890980260001901909716979097049082018190526001600160a01b0394851696879695909416947f4c596893f217ff7756c8fc77bea24399406130928fc25e6ace71d6121fd2643f948a949193919260808301908590801561349f5780601f106134745761010080835404028352916020019161349f565b820191906000526020600020905b81548152906001019060200180831161348257829003601f168201915b505094505050505060405180910390a3505050565b6060600154600014156134d7576040805160008082526020820190925290610bce565b6060600154604051908082528060200260200182016040528015613505578160200160208202803883390190505b509050600060015b60015481116135cb576000818152602081905260409020600101546001600160a01b031633148061355757506000818152602081905260409020600201546001600160a01b031633145b80156135825750600660008281526020819052604090206006015460ff16600881111561358057fe5b145b156135c35760008181526020819052604090205483518490849081106135a457fe5b60209081029190910101526135c082600163ffffffff61437216565b91505b60010161350d565b506060816040519080825280602002602001820160405280156135f8578160200160208202803883390190505b50905060005b82811015610ce95783818151811061361257fe5b602002602001015182828151811061362657fe5b60209081029190910101526001016135fe565b60606001546000141561365c576040805160008082526020820190925290610bce565b606060015460405190808252806020026020018201604052801561368a578160200160208202803883390190505b509050600060015b6001548111613779576000818152602081905260409020600101546001600160a01b03163314806136dc57506000818152602081905260409020600201546001600160a01b031633145b80156137305750600360008281526020819052604090206006015460ff16600881111561370557fe5b14806137305750600460008281526020819052604090206006015460ff16600881111561372e57fe5b145b1561377157600081815260208190526040902054835184908490811061375257fe5b602090810291909101015261376e82600163ffffffff61437216565b91505b600101613692565b506060816040519080825280602002602001820160405280156137a6578160200160208202803883390190505b50905060005b82811015610ce9578381815181106137c057fe5b60200260200101518282815181106137d457fe5b60209081029190910101526001016137ac565b60606001546000141561380a576040805160008082526020820190925290610bce565b6060600154604051908082528060200260200182016040528015613838578160200160208202803883390190505b509050600060015b6001548111613907576000818152602081905260409020600101546001600160a01b0316331480156138925750600560008281526020819052604090206006015460ff16600881111561388f57fe5b14155b80156138be5750600660008281526020819052604090206006015460ff1660088111156138bb57fe5b14155b156138ff5760008181526020819052604090205483518490849081106138e057fe5b60209081029190910101526138fc82600163ffffffff61437216565b91505b600101613840565b50606081604051908082528060200260200182016040528015613934578160200160208202803883390190505b50905060005b82811015610ce95783818151811061394e57fe5b602002602001015182828151811061396257fe5b602090810291909101015260010161393a565b60606000600154600014156139ae5760408051600680825260e08201909252906020820160c080388339019050509150600090506130cb565b60408051600680825260e082019092526060916020820160c080388339019050509050600060015b60015481116130c4576000818152602081905260409020600201546001600160a01b031633148015613a24575060008181526020819052604090206006015462010000900460ff1615156001145b15613a8c5760005b6006811015613a7757613a58600080848152602001908152602001600020600801828154811061305b57fe5b848281518110613a6457fe5b6020908102919091010152600101613a2c565b50613a8982600163ffffffff61437216565b91505b6001016139d6565b606060015460001415613ab7576040805160008082526020820190925290610bce565b6060600154604051908082528060200260200182016040528015613ae5578160200160208202803883390190505b509050600060015b6001548111613b87576000818152602081905260409020600101546001600160a01b031633148015613b3e5750600260008281526020819052604090206006015460ff166008811115613b3c57fe5b145b15613b7f576000818152602081905260409020548351849084908110613b6057fe5b6020908102919091010152613b7c82600163ffffffff61437216565b91505b600101613aed565b50606081604051908082528060200260200182016040528015613bb4578160200160208202803883390190505b50905060005b82811015610ce957838181518110613bce57fe5b6020026020010151828281518110613be257fe5b6020908102919091010152600101613bba565b60025460ff161515600114613c3b5760405162461bcd60e51b815260040180806020018281038252602281526020018061456b6022913960400191505060405180910390fd5b600081815260208190526040902060018101546001600160a01b0316613c615750611042565b60028101546001600160a01b03163314613cac5760405162461bcd60e51b815260040180806020018281038252602181526020018061454a6021913960400191505060405180910390fd5b6002600682015460ff166008811115613cc157fe5b14613d0c576040805162461bcd60e51b815260206004820152601660248201527550726f706f73616c206e6f7420696e2072657669657760501b604482015290519081900360640190fd5b6002818101805460068401805460ff191660019081179091556001600160a01b0319821690925581840154600485015460408051888152908101829052606060208201818152600389018054610100988116159890980260001901909716979097049082018190526001600160a01b0394851696879695909416947fda2bae36f5d87ea886fd53cadaade9c848558e3ba0ce0b05a90d6203787fec45948a949193919260808301908590801561349f5780601f106134745761010080835404028352916020019161349f565b6000806060600060606000806000606080613df161448b565b60008c81526020818152604091829020825161016081018452815481526001808301546001600160a01b03908116838601526002808501549091168387015260038401805487516101009482161594909402600019011691909104601f810186900486028301860190965285825291949293606086019391929190830182828015613ebd5780601f10613e9257610100808354040283529160200191613ebd565b820191906000526020600020905b815481529060010190602001808311613ea057829003601f168201915b5050509183525050600482015460208083019190915260058301805460408051601f60026000196101006001871615020190941693909304928301859004850281018501825282815294019392830182828015613f5b5780601f10613f3057610100808354040283529160200191613f5b565b820191906000526020600020905b815481529060010190602001808311613f3e57829003601f168201915b5050509183525050600682015460209091019060ff166008811115613f7c57fe5b6008811115613f8757fe5b8152600682015460ff61010082048116151560208085019190915262010000909204161515604080840191909152600784018054825181850281018501909352808352606090940193919290919083018282801561400457602002820191906000526020600020905b815481526020019060010190808311613ff0575b505050505081526020016008820180548060200260200160405190810160405280929190818152602001828054801561405c57602002820191906000526020600020905b815481526020019060010190808311614048575b5050509190925250505060208101519091506001600160a01b0316614124576000806000600860008060046040519080825280602002602001820160405280156140b0578160200160208202803883390190505b5060408051600680825260e08201909252906020820160c08038833901905050879750869650604051806020016040528060008152509594939291908595506040518060200160405280600081525094939291908191508090509a509a509a509a509a509a509a509a509a509a5050614181565b80602001518160400151826060015183608001518460a001518560c001518660e001518761010001518861012001518961014001518999508898508797508595508191508090509a509a509a509a509a509a509a509a509a509a50505b9193959799509193959799565b60025460ff1615156001146141d45760405162461bcd60e51b815260040180806020018281038252602281526020018061456b6022913960400191505060405180910390fd5b600081815260208190526040902060018101546001600160a01b03166141fa5750611042565b60028101546001600160a01b031633146142455760405162461bcd60e51b815260040180806020018281038252602181526020018061454a6021913960400191505060405180910390fd5b6003600682015460ff16600881111561425a57fe5b146142a6576040805162461bcd60e51b815260206004820152601760248201527650726f6a656374206e6f7420696e2070726f677265737360481b604482015290519081900360640190fd5b6002818101805460068401805460ff191660019081179091556001600160a01b0319821690925581840154600485015460408051888152908101829052606060208201818152600389018054610100988116159890980260001901909716979097049082018190526001600160a01b0394851696879695909416947fd1ed06115c7e42f61501cf18bfd02f10359381afe0d93bc31f146a45a4fb78ab948a949193919260808301908590801561349f5780601f106134745761010080835404028352916020019161349f565b6000828201838110156143cc576040805162461bcd60e51b815260206004820152601b60248201527f536166654d6174683a206164646974696f6e206f766572666c6f770000000000604482015290519081900360640190fd5b9392505050565b82805482825590600052602060002090810192821561440e579160200282015b8281111561440e5782518255916020019190600101906143f3565b5061441a9291506144e3565b5090565b828054600181600116156101000203166002900490600052602060002090601f016020900481019282601f1061445f57805160ff191683800117855561440e565b8280016001018555821561440e579182018281111561440e5782518255916020019190600101906143f3565b604080516101608101825260008082526020820181905291810182905260608082018190526080820183905260a08201529060c082019081526000602082018190526040820152606080820181905260809091015290565b610cef91905b8082111561441a57600081556001016144e956fe546865206e756d626572206f6620726174696e67732065786365656420746865206c696d6974596f75206861766520616c72656164792070726f766964656420796f757220726174696e6773596f7520617265206e6f742074686520736572766963652066756c66696c6c657254686520636f6e7472616374206973206e6f74206d6f726520617661696c61626c65596f7520617265206e6f742074686520697373756572206f6620746869732070726f6a65637450726f6a656374206e6f7420696e2076616c69646174696f6e2070726f63657373546869732063616c6c206973206f6e6c7920616c6c6f7765722062792074686520636f6e74726163742773206f776e6572596f7520617265206e6f74207468652066756c66696c6c6572206f6620746869732070726f6a656374596f7572206465706f73697420646f65736e2774206d617463682074686520636f6e74726163742773207072696365a265627a7a72315820e0b8a73a2e2cefee18ae781a0020025b6d2eba2bae8ff6ab73c904d7f23d581164736f6c63430005100032",
  "source": "pragma solidity >=0.4.21 <0.7.0;\n\nimport \"openzeppelin-solidity/contracts/math/SafeMath.sol\";\n\n/// @title Decentralised business platform\n/// @author Said Eloudrhiri (ChainSkills) - Devoxx Morocco 2019\n/// @notice Learn how to create a smart contract to simulate a decentralised business platform to issue and fulfill projects\n/// @dev This smart contract is for illustration purpose only and should not be used in the mainNet\ncontract ChainBizz {\n    using SafeMath for uint256;\n\n    /*\n   * Enum\n   */\n\n    // Defines the status of the project\n    enum ProjectStatus {\n        Draft,\n        Available,\n        InReview,\n        OnGoing,\n        Validate,\n        Completed,\n        Canceled,\n        Refunded,\n        Unknown\n    }\n\n    // Defines the ratings for the fulfiller\n    enum RatingFulfiller {\n        OnTime,\n        OnBudget,\n        HardSkills,\n        SoftSkills,\n        Quality,\n        Recommend\n    }\n\n    uint256 constant MAX_RATINGS_FULFILLER = 6;\n\n    // Defines the ratings for the issuer\n    enum RatingIssuer {Precise, SoftSkills, Serious, Recommend}\n\n    uint256 constant MAX_RATINGS_ISSUER = 4;\n\n    /*\n   * Structs\n   */\n\n    // Description of a project\n    struct ProjectItem {\n        uint256 id; // unique ID\n        address payable issuer;\n        address payable fulfiller;\n        string title;\n        uint256 price; // price in Wei\n        string ipfsHash;\n        ProjectStatus status;\n        bool ratingsIssuerDone;\n        bool ratingsFulfillerDone;\n        uint256[] ratingsIssuer;\n        uint256[] ratingsFulfiller;\n    }\n\n    /*\n   * Storage\n   */\n\n    // List of projects\n    mapping(uint256 => ProjectItem) public projects;\n\n    // Number of registered projects\n    uint256 projectsCounter;\n\n    // Defines if the contract is still enable or not\n    bool enabledContract;\n\n    // Keep contract's issuer address\n    address owner;\n\n    /*\n   * Modifiers\n   */\n\n    modifier onlyEnable() {\n        require(enabledContract == true, \"The contract is not more available\");\n        _;\n    }\n\n    modifier onlyOwner() {\n        require(\n            msg.sender == owner,\n            \"This call is only allower by the contract's owner\"\n        );\n        _;\n    }\n\n    /*\n   * Events\n   */\n    event PublishedProject(\n        uint256 id,\n        address indexed issuer,\n        string title,\n        uint256 price,\n        string ipfsHash\n    );\n    event UnpublishedProject(\n        uint256 id,\n        address indexed issuer,\n        string title,\n        uint256 price\n    );\n    event OfferSubmitted(\n        uint256 id,\n        address indexed issuer,\n        address indexed fulfiller,\n        string title,\n        uint256 price\n    );\n    event OfferCanceled(\n        uint256 id,\n        address indexed issuer,\n        address indexed fulfiller,\n        string title,\n        uint256 price\n    );\n    event AcceptProposal(\n        uint256 id,\n        address indexed issuer,\n        address indexed fulfiller,\n        string title,\n        uint256 price\n    );\n    event RejectProposal(\n        uint256 id,\n        address indexed issuer,\n        address indexed fulfiller,\n        string title,\n        uint256 price\n    );\n    event ProjectDelivered(\n        uint256 id,\n        address indexed issuer,\n        address indexed fulfiller,\n        string title,\n        uint256 price\n    );\n    event ServicesCanceled(\n        uint256 id,\n        address indexed issuer,\n        address indexed fulfiller,\n        string title,\n        uint256 price\n    );\n    event DeliveryAccepted(\n        uint256 id,\n        address indexed issuer,\n        address indexed fulfiller,\n        string title,\n        uint256 price\n    );\n    event DeliveryRejected(\n        uint256 id,\n        address indexed issuer,\n        address indexed fulfiller,\n        string title,\n        uint256 price\n    );\n    event ContractCanceled(\n        uint256 id,\n        address indexed issuer,\n        address indexed fulfiller,\n        string title,\n        uint256 price\n    );\n    event RatingsIssuer(\n        uint256 id,\n        address indexed fulfiller,\n        uint256[] ratings\n    );\n    event RatingsFulFiller(\n        uint256 id,\n        address indexed issuer,\n        uint256[] ratings\n    );\n\n    /*\n  * Public functions\n  */\n\n    constructor() public {\n        enabledContract = true;\n        owner = msg.sender;\n    }\n\n    /// @dev Enable the usage of the contract\n    function enableContract() public onlyOwner {\n        enabledContract = true;\n    }\n\n    /// @dev Disable the usage of the contract, change the status of all running projects and payback all issuers\n    function disableContract() public onlyOwner onlyEnable {\n        // First, we disable the contract\n        enabledContract = false;\n\n        // Then, we refund issuers for their running contracts\n\n        // At least one project?\n        if (projectsCounter == 0) {\n            return;\n        }\n\n        // prepare output array\n        uint256[] memory projectIDs = new uint256[](projectsCounter);\n\n        // iterate over projects\n        uint256 numberOfProjects = 0;\n        for (uint256 i = 1; i <= projectsCounter; i++) {\n            // retrieve the project\n            ProjectItem storage project = projects[i];\n\n            // check if this project is published\n            if (\n                (project.status == ProjectStatus.OnGoing) ||\n                (project.status == ProjectStatus.Validate)\n            ) {\n                // Refund the issuer\n                if (project.price > 0) {\n                    // pay back the issuer\n                    project.issuer.transfer(project.price);\n                }\n\n                // project refunded\n                project.status = ProjectStatus.Refunded;\n            }\n        }\n    }\n\n    //\n    // Setters\n    //\n\n    // Publish the project to seek for fulfillers\n    function publishProject(\n        string memory _title,\n        uint256 _price,\n        string memory _ipfsHash\n    ) public onlyEnable {\n        // a title is required\n        bytes memory title = bytes(_title);\n        require(title.length > 0, \"A title is required\");\n\n        // The hash to IPFS is required\n        bytes memory ipfsHash = bytes(_ipfsHash);\n        require(ipfsHash.length > 0, \"A hash to IPFS is required\");\n\n        // new project\n        projectsCounter = projectsCounter.add(1);\n\n        // store the new project\n        projects[projectsCounter] = ProjectItem(\n            projectsCounter,\n            msg.sender,\n            address(0x0),\n            _title,\n            _price,\n            _ipfsHash,\n            ProjectStatus.Available,\n            false,\n            false,\n            new uint256[](MAX_RATINGS_ISSUER),\n            new uint256[](MAX_RATINGS_FULFILLER)\n        );\n\n        emit PublishedProject(\n            projectsCounter,\n            msg.sender,\n            _title,\n            _price,\n            _ipfsHash\n        );\n    }\n\n    // Publish the project to seek for fulfillers\n    function publishProjectOld(uint256 _id) public onlyEnable {\n        // retrieve the project\n        ProjectItem storage project = projects[_id];\n\n        // ensure that this project exists\n        if (project.issuer == address(0x0)) {\n            return;\n        }\n\n        // do we own this project?\n        require(\n            project.issuer == msg.sender,\n            \"You are not the issuer of this project\"\n        );\n\n        // ready to be published?\n        require(project.status == ProjectStatus.Draft, \"Cannot be published\");\n\n        // publish the project to be available for services\n        project.status = ProjectStatus.Available;\n\n        emit PublishedProject(\n            _id,\n            msg.sender,\n            project.title,\n            project.price,\n            \"\"\n        );\n    }\n\n    // Unpublish the project\n    // A project can be unpublished ONLY if it's already published and not already part of a contract\n    function unpublishProject(uint256 _id) public onlyEnable {\n        // retrieve the project\n        ProjectItem storage project = projects[_id];\n\n        // ensure that this project exists\n        if (project.issuer == address(0x0)) {\n            return;\n        }\n\n        // do we own this project?\n        require(\n            project.issuer == msg.sender,\n            \"You are not the issuer of this project\"\n        );\n\n        // ready to be unpublished?\n        require(\n            project.status == ProjectStatus.Available,\n            \"Cannot be unpublished\"\n        );\n\n        // unpublish the project\n        project.status = ProjectStatus.Draft;\n\n        emit UnpublishedProject(_id, msg.sender, project.title, project.price);\n    }\n\n    // Offer services for the project\n    // A fulfiller offers his/her services to perform the project\n    function submitOffer(uint256 _id) public onlyEnable {\n        // retrieve the project\n        ProjectItem storage project = projects[_id];\n\n        // ensure that this project exists\n        if (project.issuer == address(0x0)) {\n            return;\n        }\n\n        // is the project available?\n        require(\n            project.status == ProjectStatus.Available,\n            \"Project no more available\"\n        );\n\n        // store the address of the fulfiller\n        project.fulfiller = msg.sender;\n\n        // project is under review\n        project.status = ProjectStatus.InReview;\n\n        emit OfferSubmitted(\n            _id,\n            project.issuer,\n            msg.sender,\n            project.title,\n            project.price\n        );\n    }\n\n    // Cancel offer made by the fulfiller\n    // A fulfiller cancels his/her offer to perform the project\n    function cancelOffer(uint256 _id) public onlyEnable {\n        // retrieve the project\n        ProjectItem storage project = projects[_id];\n\n        // ensure that this project exists\n        if (project.issuer == address(0x0)) {\n            return;\n        }\n\n        // are we the service fulfiller?\n        require(\n            project.fulfiller == msg.sender,\n            \"You are not the service fulfiller\"\n        );\n\n        // is the project in review?\n        require(\n            project.status == ProjectStatus.InReview,\n            \"Proposal not in review\"\n        );\n\n        // project is now available\n        address payable fulfiller = project.fulfiller;\n        project.status = ProjectStatus.Available;\n        project.fulfiller = address(0x0);\n\n        emit OfferCanceled(\n            _id,\n            project.issuer,\n            fulfiller,\n            project.title,\n            project.price\n        );\n    }\n\n    // Accept services from the fulfiller\n    // The issuer accepts the services offered by the fulfiller\n    function acceptProposal(uint256 _id) public payable onlyEnable {\n        // retrieve the project\n        ProjectItem storage project = projects[_id];\n\n        // ensure that this project exists\n        if (project.issuer == address(0x0)) {\n            return;\n        }\n\n        // do we own this project?\n        require(\n            project.issuer == msg.sender,\n            \"You are not the issuer of this project\"\n        );\n\n        // is the project in review?\n        require(\n            project.status == ProjectStatus.InReview,\n            \"Proposal not in review\"\n        );\n\n        // is the issuer has deposit the requeste amount?\n        require(\n            msg.value == project.price,\n            \"Your deposit doesn't match the contract's price\"\n        );\n\n        // project is now ongoing\n        project.status = ProjectStatus.OnGoing;\n\n        emit AcceptProposal(\n            _id,\n            project.issuer,\n            project.fulfiller,\n            project.title,\n            project.price\n        );\n    }\n\n    // Reject proposal from the fulfiller\n    // The issuer rejects the services offered by the fulfiller\n    function rejectProposal(uint256 _id) public onlyEnable {\n        // retrieve the project\n        ProjectItem storage project = projects[_id];\n\n        // ensure that this project exists\n        if (project.issuer == address(0x0)) {\n            return;\n        }\n\n        // do we own this project?\n        require(\n            project.issuer == msg.sender,\n            \"You are not the issuer of this project\"\n        );\n\n        // is the project in review?\n        require(\n            project.status == ProjectStatus.InReview,\n            \"Proposal not in review\"\n        );\n\n        // project is now available\n        address payable fulfiller = project.fulfiller;\n        project.status = ProjectStatus.Available;\n        project.fulfiller = address(0x0);\n\n        emit RejectProposal(\n            _id,\n            project.issuer,\n            fulfiller,\n            project.title,\n            project.price\n        );\n    }\n\n    // Deliver the project to the customer\n    // The fulfiller delivers the project to the issuer\n    function deliverProject(uint256 _id) public onlyEnable {\n        // retrieve the project\n        ProjectItem storage project = projects[_id];\n\n        // ensure that this project exists\n        if (project.issuer == address(0x0)) {\n            return;\n        }\n\n        // are we the service fulfiller?\n        require(\n            project.fulfiller == msg.sender,\n            \"You are not the service fulfiller\"\n        );\n\n        // is the project ongoing?\n        require(\n            project.status == ProjectStatus.OnGoing,\n            \"Project not in progress\"\n        );\n\n        // project is now validation process\n        project.status = ProjectStatus.Validate;\n\n        emit ProjectDelivered(\n            _id,\n            project.issuer,\n            project.fulfiller,\n            project.title,\n            project.price\n        );\n    }\n\n    // Cancel services from the fulfiller\n    // The fulfiller cancels the services performed for the project\n    function cancelServices(uint256 _id) public onlyEnable {\n        // retrieve the project\n        ProjectItem storage project = projects[_id];\n\n        // ensure that this project exists\n        if (project.issuer == address(0x0)) {\n            return;\n        }\n\n        // are we the service fulfiller?\n        require(\n            project.fulfiller == msg.sender,\n            \"You are not the service fulfiller\"\n        );\n\n        // is the project ongoing?\n        require(\n            project.status == ProjectStatus.OnGoing,\n            \"Project not in progress\"\n        );\n\n        // project becomes available\n        address payable fulfiller = project.fulfiller;\n        project.status = ProjectStatus.Available;\n        project.fulfiller = address(0x0);\n\n        emit ServicesCanceled(\n            _id,\n            project.issuer,\n            fulfiller,\n            project.title,\n            project.price\n        );\n    }\n\n    // Accept the project delivery from the fulfiller\n    // The issuer accepts the project delivered by the fulfiller\n    function acceptDelivery(uint256 _id) public onlyEnable {\n        // retrieve the project\n        ProjectItem storage project = projects[_id];\n\n        // ensure that this project exists\n        if (project.issuer == address(0x0)) {\n            return;\n        }\n\n        // do we own this project?\n        require(\n            project.issuer == msg.sender,\n            \"You are not the issuer of this project\"\n        );\n\n        // is the project in review?\n        require(\n            project.status == ProjectStatus.Validate,\n            \"Project not in validation process\"\n        );\n\n        // pay the service provide\n        project.fulfiller.transfer(project.price);\n\n        // project is now completed\n        project.status = ProjectStatus.Completed;\n\n        emit DeliveryAccepted(\n            _id,\n            project.issuer,\n            project.fulfiller,\n            project.title,\n            project.price\n        );\n    }\n\n    // The issuer evaluates the fulfiller\n    function setRatingsFulfiller(uint256 _id, uint256[] memory _ratings)\n        public\n        onlyEnable\n    {\n        // retrieve the project\n        ProjectItem storage project = projects[_id];\n\n        // is the project completed or cancelled?\n        require(\n            (project.status == ProjectStatus.Canceled) ||\n                (project.status == ProjectStatus.Completed),\n            \"Project not yet finalised\"\n        );\n\n        // ensure that this project exists\n        if (project.issuer == address(0x0)) {\n            return;\n        }\n\n        // do we own this project?\n        require(\n            project.issuer == msg.sender,\n            \"You are not the issuer of this project\"\n        );\n\n        // do not allow changes on ratings\n        require(\n            project.ratingsFulfillerDone == false,\n            \"You have already provided your ratings\"\n        );\n\n        // avoid overflow\n        require(\n            _ratings.length <= MAX_RATINGS_FULFILLER,\n            \"The number of ratings exceed the limit\"\n        );\n\n        // save ratings from the issuer\n        project.ratingsFulfiller = _ratings;\n        project.ratingsFulfillerDone = true;\n\n        emit RatingsFulFiller(_id, project.issuer, project.ratingsFulfiller);\n    }\n\n    // The fulfiller evaluates the issuer\n    function setRatingsIssuer(uint256 _id, uint256[] memory _ratings)\n        public\n        onlyEnable\n    {\n        // retrieve the project\n        ProjectItem storage project = projects[_id];\n\n        // is the project completed or cancelled?\n        require(\n            (project.status == ProjectStatus.Canceled) ||\n                (project.status == ProjectStatus.Completed),\n            \"Project not yet finalised\"\n        );\n\n        // ensure that this project exists\n        if (project.issuer == address(0x0)) {\n            return;\n        }\n\n        // do not allow changes on ratings\n        require(\n            project.ratingsIssuerDone == false,\n            \"You have already provided your ratings\"\n        );\n\n        // do we own this project?\n        require(\n            project.fulfiller == msg.sender,\n            \"You are not the fulfiller of this project\"\n        );\n\n        // avoid overflow\n        require(\n            _ratings.length <= MAX_RATINGS_ISSUER,\n            \"The number of ratings exceed the limit\"\n        );\n\n        // save ratings from the fulfiller\n        project.ratingsIssuer = _ratings;\n        project.ratingsIssuerDone = true;\n\n        emit RatingsIssuer(_id, project.fulfiller, project.ratingsIssuer);\n    }\n\n    // Reject the project delivery from the fulfiller\n    // The issuer rejects the project delivered by the fulfiller\n    function rejectDelivery(uint256 _id) public onlyEnable {\n        // retrieve the project\n        ProjectItem storage project = projects[_id];\n\n        // ensure that this project exists\n        if (project.issuer == address(0x0)) {\n            return;\n        }\n\n        // do we own this project?\n        require(\n            project.issuer == msg.sender,\n            \"You are not the issuer of this project\"\n        );\n\n        // is the project in review?\n        require(\n            project.status == ProjectStatus.Validate,\n            \"Project not in validation process\"\n        );\n\n        // project remains ongoing\n        project.status = ProjectStatus.OnGoing;\n\n        emit DeliveryRejected(\n            _id,\n            project.issuer,\n            project.fulfiller,\n            project.title,\n            project.price\n        );\n    }\n\n    // Contract canceled by the issuer\n    // The issuer cancels the contract\n    function cancelContract(uint256 _id) public onlyEnable {\n        // retrieve the project\n        ProjectItem storage project = projects[_id];\n\n        // ensure that this project exists\n        if (project.issuer == address(0x0)) {\n            return;\n        }\n\n        // are we the service fulfiller?\n        require(\n            project.issuer == msg.sender,\n            \"You are not the project's issuer\"\n        );\n\n        // is the project ongoing?\n        require(\n            (project.status == ProjectStatus.OnGoing) ||\n                (project.status == ProjectStatus.Validate),\n            \"Project not in progress\"\n        );\n\n        // pay back the contract's issuer\n        project.issuer.transfer(project.price);\n\n        // contract becomes canceled\n        project.status = ProjectStatus.Canceled;\n\n        emit ContractCanceled(\n            _id,\n            project.issuer,\n            project.fulfiller,\n            project.title,\n            project.price\n        );\n    }\n\n    //\n    // Getters\n    //\n\n    // Retrieve if the contract is still enable or not\n    function isEnabled() public view returns (bool) {\n        return enabledContract;\n    }\n\n    // Retrieve a project from its id\n    function getProject(uint256 _id)\n        public\n        view\n        returns (\n            address issuer,\n            address fulfiller,\n            string memory title,\n            uint256 price,\n            string memory ipfsHash,\n            ProjectStatus status,\n            bool ratingsIssuerDone,\n            bool ratingsFulfillerDone,\n            uint256[] memory ratingsIssuer,\n            uint256[] memory ratingsFulfiller\n        )\n    {\n        ProjectItem memory project = projects[_id];\n\n        // ensure that we have a project to fetch\n        if (project.issuer == address(0x0)) {\n            return (\n                address(0x0),\n                address(0x0),\n                \"\",\n                0,\n                \"\",\n                ProjectStatus.Unknown,\n                false,\n                false,\n                new uint256[](MAX_RATINGS_ISSUER),\n                new uint256[](MAX_RATINGS_FULFILLER)\n            );\n        }\n\n        return (\n            project.issuer,\n            project.fulfiller,\n            project.title,\n            project.price,\n            project.ipfsHash,\n            project.status,\n            project.ratingsIssuerDone,\n            project.ratingsFulfillerDone,\n            project.ratingsIssuer,\n            project.ratingsFulfiller\n        );\n    }\n\n    // return all projects\n    function getAllProjects() public view returns (uint256[] memory) {\n        if (projectsCounter == 0) {\n            return new uint256[](0);\n        }\n\n        // prepare output array\n        uint256[] memory projectIDs = new uint256[](projectsCounter);\n\n        // iterate over projects\n        uint256 numberOfProjects = 0;\n        for (uint256 i = 1; i <= projectsCounter; i++) {\n            // skip deleted projects\n            if (projects[i].issuer != address(0x0)) {\n                projectIDs[numberOfProjects] = projects[i].id;\n                numberOfProjects = numberOfProjects.add(1);\n            }\n        }\n\n        // copy the project ID array into a smaller array\n        uint256[] memory allProjects = new uint256[](numberOfProjects);\n        for (uint256 j = 0; j < numberOfProjects; j++) {\n            allProjects[j] = projectIDs[j];\n        }\n\n        return allProjects;\n    }\n\n    // return all projects published as issued\n    function getAllProjectsAsIssuer() public view returns (uint256[] memory) {\n        if (projectsCounter == 0) {\n            return new uint256[](0);\n        }\n\n        // prepare output array\n        uint256[] memory projectIDs = new uint256[](projectsCounter);\n\n        // iterate over projects\n        uint256 numberOfProjects = 0;\n        for (uint256 i = 1; i <= projectsCounter; i++) {\n            // skip deleted projects\n            if (projects[i].issuer == msg.sender) {\n                projectIDs[numberOfProjects] = projects[i].id;\n                numberOfProjects = numberOfProjects.add(1);\n            }\n        }\n\n        // copy the project ID array into a smaller array\n        uint256[] memory allProjects = new uint256[](numberOfProjects);\n        for (uint256 j = 0; j < numberOfProjects; j++) {\n            allProjects[j] = projectIDs[j];\n        }\n\n        return allProjects;\n    }\n\n    // return all projects performed by the fulfiller\n    function getAllProjectsAsFulfiller()\n        public\n        view\n        returns (uint256[] memory)\n    {\n        if (projectsCounter == 0) {\n            return new uint256[](0);\n        }\n\n        // prepare output array\n        uint256[] memory projectIDs = new uint256[](projectsCounter);\n\n        // iterate over projects\n        uint256 numberOfProjects = 0;\n        for (uint256 i = 1; i <= projectsCounter; i++) {\n            // skip deleted projects\n            if (projects[i].fulfiller == msg.sender) {\n                projectIDs[numberOfProjects] = projects[i].id;\n                numberOfProjects = numberOfProjects.add(1);\n            }\n        }\n\n        // copy the project ID array into a smaller array\n        uint256[] memory allProjects = new uint256[](numberOfProjects);\n        for (uint256 j = 0; j < numberOfProjects; j++) {\n            allProjects[j] = projectIDs[j];\n        }\n\n        return allProjects;\n    }\n\n    // return all published projects\n    function getPublishedProjects() public view returns (uint256[] memory) {\n        if (projectsCounter == 0) {\n            return new uint256[](0);\n        }\n\n        // prepare output array\n        uint256[] memory projectIDs = new uint256[](projectsCounter);\n\n        // iterate over projects\n        uint256 numberOfProjects = 0;\n        for (uint256 i = 1; i <= projectsCounter; i++) {\n            // get only published and active projects\n            if (\n                (projects[i].issuer != address(0x0)) &&\n                (projects[i].status == ProjectStatus.Available)\n            ) {\n                projectIDs[numberOfProjects] = projects[i].id;\n                numberOfProjects = numberOfProjects.add(1);\n            }\n        }\n\n        // copy the project ID array into a smaller array\n        uint256[] memory allProjects = new uint256[](numberOfProjects);\n        for (uint256 j = 0; j < numberOfProjects; j++) {\n            allProjects[j] = projectIDs[j];\n        }\n\n        return allProjects;\n    }\n\n    // return all projects owned by the sender\n    function getMyProjects() public view returns (uint256[] memory) {\n        if (projectsCounter == 0) {\n            return new uint256[](0);\n        }\n\n        // prepare output array\n        uint256[] memory projectIDs = new uint256[](projectsCounter);\n\n        // iterate over projects\n        uint256 numberOfProjects = 0;\n        for (uint256 i = 1; i <= projectsCounter; i++) {\n            // keep the ID of the project owned by the caller\n            if (\n                (projects[i].issuer == msg.sender) &&\n                (projects[i].status != ProjectStatus.Completed) &&\n                (projects[i].status != ProjectStatus.Canceled)\n            ) {\n                projectIDs[numberOfProjects] = projects[i].id;\n\n                numberOfProjects = numberOfProjects.add(1);\n            }\n        }\n\n        // copy the project ID array into a smaller array\n        uint256[] memory myProjects = new uint256[](numberOfProjects);\n        for (uint256 j = 0; j < numberOfProjects; j++) {\n            myProjects[j] = projectIDs[j];\n        }\n\n        return myProjects;\n    }\n\n    // return all my offers waiting for review\n    function getMyOffers() public view returns (uint256[] memory) {\n        if (projectsCounter == 0) {\n            return new uint256[](0);\n        }\n\n        // prepare output array\n        uint256[] memory projectIDs = new uint256[](projectsCounter);\n\n        // iterate over projects\n        uint256 numberOfProjects = 0;\n        for (uint256 i = 1; i <= projectsCounter; i++) {\n            // keep the ID of the project with the sender as fulfiller and the project still in review process\n            if (\n                (projects[i].fulfiller == msg.sender) &&\n                (projects[i].status == ProjectStatus.InReview)\n            ) {\n                projectIDs[numberOfProjects] = projects[i].id;\n\n                numberOfProjects = numberOfProjects.add(1);\n            }\n        }\n\n        // copy the project ID array into a smaller array\n        uint256[] memory myOffers = new uint256[](numberOfProjects);\n        for (uint256 j = 0; j < numberOfProjects; j++) {\n            myOffers[j] = projectIDs[j];\n        }\n\n        return myOffers;\n    }\n\n    // return all projects waiting for review\n    function getMyReviews() public view returns (uint256[] memory) {\n        if (projectsCounter == 0) {\n            return new uint256[](0);\n        }\n\n        // prepare output array\n        uint256[] memory projectIDs = new uint256[](projectsCounter);\n\n        // iterate over projects\n        uint256 numberOfProjects = 0;\n        for (uint256 i = 1; i <= projectsCounter; i++) {\n            // keep the ID of the project owned by the caller and the project still in review process\n            if (\n                (projects[i].issuer == msg.sender) &&\n                (projects[i].status == ProjectStatus.InReview)\n            ) {\n                projectIDs[numberOfProjects] = projects[i].id;\n\n                numberOfProjects = numberOfProjects.add(1);\n            }\n        }\n\n        // copy the project ID array into a smaller array\n        uint256[] memory myReviews = new uint256[](numberOfProjects);\n        for (uint256 j = 0; j < numberOfProjects; j++) {\n            myReviews[j] = projectIDs[j];\n        }\n\n        return myReviews;\n    }\n\n    // return all ongoing contracts\n    function getMyContracts() public view returns (uint256[] memory) {\n        if (projectsCounter == 0) {\n            return new uint256[](0);\n        }\n\n        // prepare output array\n        uint256[] memory projectIDs = new uint256[](projectsCounter);\n\n        // iterate over projects\n        uint256 numberOfProjects = 0;\n        for (uint256 i = 1; i <= projectsCounter; i++) {\n            // get only ongoing and under validation contracts owned by the issuer or the service fulfiller\n            if (\n                ((projects[i].issuer == msg.sender) ||\n                    (projects[i].fulfiller == msg.sender)) &&\n                ((projects[i].status == ProjectStatus.OnGoing) ||\n                    (projects[i].status == ProjectStatus.Validate))\n            ) {\n                projectIDs[numberOfProjects] = projects[i].id;\n                numberOfProjects = numberOfProjects.add(1);\n            }\n        }\n\n        // copy the project ID array into a smaller array\n        uint256[] memory myContracts = new uint256[](numberOfProjects);\n        for (uint256 j = 0; j < numberOfProjects; j++) {\n            myContracts[j] = projectIDs[j];\n        }\n\n        return myContracts;\n    }\n\n    // return all deliveries to review\n    function getDeliveries() public view returns (uint256[] memory) {\n        if (projectsCounter == 0) {\n            return new uint256[](0);\n        }\n\n        // prepare output array\n        uint256[] memory projectIDs = new uint256[](projectsCounter);\n\n        // iterate over projects\n        uint256 numberOfProjects = 0;\n        for (uint256 i = 1; i <= projectsCounter; i++) {\n            // get only ongoing projects issued by the issuer or the fulfiller\n            if (\n                ((projects[i].issuer == msg.sender) ||\n                    (projects[i].fulfiller == msg.sender)) &&\n                (projects[i].status == ProjectStatus.Validate)\n            ) {\n                projectIDs[numberOfProjects] = projects[i].id;\n                numberOfProjects = numberOfProjects.add(1);\n            }\n        }\n\n        // copy the project ID array into a smaller array\n        uint256[] memory myDeliveries = new uint256[](numberOfProjects);\n        for (uint256 j = 0; j < numberOfProjects; j++) {\n            myDeliveries[j] = projectIDs[j];\n        }\n\n        return myDeliveries;\n    }\n\n    // return all completed contracts\n    function getCompleted() public view returns (uint256[] memory) {\n        if (projectsCounter == 0) {\n            return new uint256[](0);\n        }\n\n        // prepare output array\n        uint256[] memory projectIDs = new uint256[](projectsCounter);\n\n        // iterate over projects\n        uint256 numberOfProjects = 0;\n        for (uint256 i = 1; i <= projectsCounter; i++) {\n            // get only ongoing projects issued by the issuer or the fulfiller\n            if (\n                ((projects[i].issuer == msg.sender) ||\n                    (projects[i].fulfiller == msg.sender)) &&\n                (projects[i].status == ProjectStatus.Completed)\n            ) {\n                projectIDs[numberOfProjects] = projects[i].id;\n                numberOfProjects = numberOfProjects.add(1);\n            }\n        }\n\n        // copy the project ID array into a smaller array\n        uint256[] memory myCompleted = new uint256[](numberOfProjects);\n        for (uint256 j = 0; j < numberOfProjects; j++) {\n            myCompleted[j] = projectIDs[j];\n        }\n\n        return myCompleted;\n    }\n\n    // return all canceled contracts\n    function getCanceled() public view returns (uint256[] memory) {\n        if (projectsCounter == 0) {\n            return new uint256[](0);\n        }\n\n        // prepare output array\n        uint256[] memory projectIDs = new uint256[](projectsCounter);\n\n        // iterate over projects\n        uint256 numberOfProjects = 0;\n        for (uint256 i = 1; i <= projectsCounter; i++) {\n            // get only ongoing projects issued by the issuer or the fulfiller\n            if (\n                ((projects[i].issuer == msg.sender) ||\n                    (projects[i].fulfiller == msg.sender)) &&\n                (projects[i].status == ProjectStatus.Canceled)\n            ) {\n                projectIDs[numberOfProjects] = projects[i].id;\n                numberOfProjects = numberOfProjects.add(1);\n            }\n        }\n\n        // copy the project ID array into a smaller array\n        uint256[] memory myCanceled = new uint256[](numberOfProjects);\n        for (uint256 j = 0; j < numberOfProjects; j++) {\n            myCanceled[j] = projectIDs[j];\n        }\n\n        return myCanceled;\n    }\n\n    // retrieve sum of ratings for all projects for the issuer\n    function getRatingsAsIssuer()\n        public\n        view\n        returns (uint256[] memory ratings, uint256 nbProjects)\n    {\n        if (projectsCounter == 0) {\n            return (new uint256[](MAX_RATINGS_ISSUER), 0);\n        }\n\n        // prepare output array\n        uint256[] memory allRatings = new uint256[](MAX_RATINGS_ISSUER);\n\n        // iterate over projects to get all ratings\n        uint256 numberOfProjects = 0;\n        for (uint256 i = 1; i <= projectsCounter; i++) {\n            // get only projects issued by the issuer\n            if (\n                (projects[i].issuer == msg.sender) &&\n                (projects[i].ratingsIssuerDone == true)\n            ) {\n                for (\n                    uint256 indexRating = 0;\n                    indexRating < MAX_RATINGS_ISSUER;\n                    indexRating++\n                ) {\n                    allRatings[indexRating] = allRatings[indexRating].add(\n                        projects[i].ratingsIssuer[indexRating]\n                    );\n                }\n\n                numberOfProjects = numberOfProjects.add(1);\n            }\n        }\n\n        return (allRatings, numberOfProjects);\n    }\n\n    // retrieve sum of ratings for all projects for the fulfiller\n    function getRatingsAsFulfiller()\n        public\n        view\n        returns (uint256[] memory ratings, uint256 nbProjects)\n    {\n        if (projectsCounter == 0) {\n            return (new uint256[](MAX_RATINGS_FULFILLER), 0);\n        }\n\n        // prepare output array\n        uint256[] memory allRatings = new uint256[](MAX_RATINGS_FULFILLER);\n\n        // iterate over projects to get all ratings\n        uint256 numberOfProjects = 0;\n        for (uint256 i = 1; i <= projectsCounter; i++) {\n            // get only projects issued by the fulfiller\n            if (\n                (projects[i].fulfiller == msg.sender) &&\n                (projects[i].ratingsFulfillerDone == true)\n            ) {\n                for (\n                    uint256 indexRating = 0;\n                    indexRating < MAX_RATINGS_FULFILLER;\n                    indexRating++\n                ) {\n                    allRatings[indexRating] = allRatings[indexRating].add(\n                        projects[i].ratingsFulfiller[indexRating]\n                    );\n                }\n\n                numberOfProjects = numberOfProjects.add(1);\n            }\n        }\n\n        return (allRatings, numberOfProjects);\n    }\n\n}\n",
  "sourcePath": "/Users/saideloudrhiri/Projects/ChainSkills/chainbizz/contracts/ChainBizz.sol",
  "compiler": {
    "name": "solc",
    "version": "0.5.16+commit.9c3226ce.Emscripten.clang"
  },
  "schemaVersion": "3.0.23",
  "updatedAt": "2020-03-02T14:27:40.881Z",
  "networkType": "ethereum",
  "devdoc": {
    "author": "Said Eloudrhiri (ChainSkills) - Devoxx Morocco 2019",
    "details": "This smart contract is for illustration purpose only and should not be used in the mainNet",
    "methods": {
      "disableContract()": {
        "details": "Disable the usage of the contract, change the status of all running projects and payback all issuers"
      },
      "enableContract()": {
        "details": "Enable the usage of the contract"
      }
    },
    "title": "Decentralised business platform"
  },
  "userdoc": {
    "methods": {},
    "notice": "Learn how to create a smart contract to simulate a decentralised business platform to issue and fulfill projects"
  }
}