{
  "contractName": "ChainBizz",
  "abi": [
    {
      "inputs": [],
      "payable": false,
      "stateMutability": "nonpayable",
      "type": "constructor"
    },
    {
      "anonymous": false,
      "inputs": [
        {
          "indexed": false,
          "internalType": "uint256",
          "name": "id",
          "type": "uint256"
        },
        {
          "indexed": true,
          "internalType": "address",
          "name": "issuer",
          "type": "address"
        },
        {
          "indexed": true,
          "internalType": "address",
          "name": "fulfiller",
          "type": "address"
        },
        {
          "indexed": false,
          "internalType": "string",
          "name": "title",
          "type": "string"
        },
        {
          "indexed": false,
          "internalType": "uint256",
          "name": "price",
          "type": "uint256"
        }
      ],
      "name": "AcceptProposal",
      "type": "event"
    },
    {
      "anonymous": false,
      "inputs": [
        {
          "indexed": false,
          "internalType": "uint256",
          "name": "id",
          "type": "uint256"
        },
        {
          "indexed": true,
          "internalType": "address",
          "name": "issuer",
          "type": "address"
        },
        {
          "indexed": true,
          "internalType": "address",
          "name": "fulfiller",
          "type": "address"
        },
        {
          "indexed": false,
          "internalType": "string",
          "name": "title",
          "type": "string"
        },
        {
          "indexed": false,
          "internalType": "uint256",
          "name": "price",
          "type": "uint256"
        }
      ],
      "name": "ContractCanceled",
      "type": "event"
    },
    {
      "anonymous": false,
      "inputs": [
        {
          "indexed": false,
          "internalType": "uint256",
          "name": "id",
          "type": "uint256"
        },
        {
          "indexed": true,
          "internalType": "address",
          "name": "issuer",
          "type": "address"
        },
        {
          "indexed": true,
          "internalType": "address",
          "name": "fulfiller",
          "type": "address"
        },
        {
          "indexed": false,
          "internalType": "string",
          "name": "title",
          "type": "string"
        },
        {
          "indexed": false,
          "internalType": "uint256",
          "name": "price",
          "type": "uint256"
        }
      ],
      "name": "DeliveryAccepted",
      "type": "event"
    },
    {
      "anonymous": false,
      "inputs": [
        {
          "indexed": false,
          "internalType": "uint256",
          "name": "id",
          "type": "uint256"
        },
        {
          "indexed": true,
          "internalType": "address",
          "name": "issuer",
          "type": "address"
        },
        {
          "indexed": true,
          "internalType": "address",
          "name": "fulfiller",
          "type": "address"
        },
        {
          "indexed": false,
          "internalType": "string",
          "name": "title",
          "type": "string"
        },
        {
          "indexed": false,
          "internalType": "uint256",
          "name": "price",
          "type": "uint256"
        }
      ],
      "name": "DeliveryRejected",
      "type": "event"
    },
    {
      "anonymous": false,
      "inputs": [
        {
          "indexed": false,
          "internalType": "uint256",
          "name": "id",
          "type": "uint256"
        },
        {
          "indexed": true,
          "internalType": "address",
          "name": "issuer",
          "type": "address"
        },
        {
          "indexed": true,
          "internalType": "address",
          "name": "fulfiller",
          "type": "address"
        },
        {
          "indexed": false,
          "internalType": "string",
          "name": "title",
          "type": "string"
        },
        {
          "indexed": false,
          "internalType": "uint256",
          "name": "price",
          "type": "uint256"
        }
      ],
      "name": "OfferCanceled",
      "type": "event"
    },
    {
      "anonymous": false,
      "inputs": [
        {
          "indexed": false,
          "internalType": "uint256",
          "name": "id",
          "type": "uint256"
        },
        {
          "indexed": true,
          "internalType": "address",
          "name": "issuer",
          "type": "address"
        },
        {
          "indexed": true,
          "internalType": "address",
          "name": "fulfiller",
          "type": "address"
        },
        {
          "indexed": false,
          "internalType": "string",
          "name": "title",
          "type": "string"
        },
        {
          "indexed": false,
          "internalType": "uint256",
          "name": "price",
          "type": "uint256"
        }
      ],
      "name": "OfferSubmitted",
      "type": "event"
    },
    {
      "anonymous": false,
      "inputs": [
        {
          "indexed": false,
          "internalType": "uint256",
          "name": "id",
          "type": "uint256"
        },
        {
          "indexed": true,
          "internalType": "address",
          "name": "issuer",
          "type": "address"
        },
        {
          "indexed": true,
          "internalType": "address",
          "name": "fulfiller",
          "type": "address"
        },
        {
          "indexed": false,
          "internalType": "string",
          "name": "title",
          "type": "string"
        },
        {
          "indexed": false,
          "internalType": "uint256",
          "name": "price",
          "type": "uint256"
        }
      ],
      "name": "ProjectDelivered",
      "type": "event"
    },
    {
      "anonymous": false,
      "inputs": [
        {
          "indexed": false,
          "internalType": "uint256",
          "name": "id",
          "type": "uint256"
        },
        {
          "indexed": true,
          "internalType": "address",
          "name": "issuer",
          "type": "address"
        },
        {
          "indexed": false,
          "internalType": "string",
          "name": "title",
          "type": "string"
        },
        {
          "indexed": false,
          "internalType": "uint256",
          "name": "price",
          "type": "uint256"
        },
        {
          "indexed": false,
          "internalType": "string",
          "name": "ipfsHash",
          "type": "string"
        }
      ],
      "name": "PublishedProject",
      "type": "event"
    },
    {
      "anonymous": false,
      "inputs": [
        {
          "indexed": false,
          "internalType": "uint256",
          "name": "id",
          "type": "uint256"
        },
        {
          "indexed": true,
          "internalType": "address",
          "name": "issuer",
          "type": "address"
        },
        {
          "indexed": false,
          "internalType": "uint256[]",
          "name": "ratings",
          "type": "uint256[]"
        }
      ],
      "name": "RatingsFulFiller",
      "type": "event"
    },
    {
      "anonymous": false,
      "inputs": [
        {
          "indexed": false,
          "internalType": "uint256",
          "name": "id",
          "type": "uint256"
        },
        {
          "indexed": true,
          "internalType": "address",
          "name": "fulfiller",
          "type": "address"
        },
        {
          "indexed": false,
          "internalType": "uint256[]",
          "name": "ratings",
          "type": "uint256[]"
        }
      ],
      "name": "RatingsIssuer",
      "type": "event"
    },
    {
      "anonymous": false,
      "inputs": [
        {
          "indexed": false,
          "internalType": "uint256",
          "name": "id",
          "type": "uint256"
        },
        {
          "indexed": true,
          "internalType": "address",
          "name": "issuer",
          "type": "address"
        },
        {
          "indexed": true,
          "internalType": "address",
          "name": "fulfiller",
          "type": "address"
        },
        {
          "indexed": false,
          "internalType": "string",
          "name": "title",
          "type": "string"
        },
        {
          "indexed": false,
          "internalType": "uint256",
          "name": "price",
          "type": "uint256"
        }
      ],
      "name": "RejectProposal",
      "type": "event"
    },
    {
      "anonymous": false,
      "inputs": [
        {
          "indexed": false,
          "internalType": "uint256",
          "name": "id",
          "type": "uint256"
        },
        {
          "indexed": true,
          "internalType": "address",
          "name": "issuer",
          "type": "address"
        },
        {
          "indexed": true,
          "internalType": "address",
          "name": "fulfiller",
          "type": "address"
        },
        {
          "indexed": false,
          "internalType": "string",
          "name": "title",
          "type": "string"
        },
        {
          "indexed": false,
          "internalType": "uint256",
          "name": "price",
          "type": "uint256"
        }
      ],
      "name": "ServicesCanceled",
      "type": "event"
    },
    {
      "anonymous": false,
      "inputs": [
        {
          "indexed": false,
          "internalType": "uint256",
          "name": "id",
          "type": "uint256"
        },
        {
          "indexed": true,
          "internalType": "address",
          "name": "issuer",
          "type": "address"
        },
        {
          "indexed": false,
          "internalType": "string",
          "name": "title",
          "type": "string"
        },
        {
          "indexed": false,
          "internalType": "uint256",
          "name": "price",
          "type": "uint256"
        }
      ],
      "name": "UnpublishedProject",
      "type": "event"
    },
    {
      "constant": true,
      "inputs": [
        {
          "internalType": "uint256",
          "name": "",
          "type": "uint256"
        }
      ],
      "name": "projects",
      "outputs": [
        {
          "internalType": "uint256",
          "name": "id",
          "type": "uint256"
        },
        {
          "internalType": "address payable",
          "name": "issuer",
          "type": "address"
        },
        {
          "internalType": "address payable",
          "name": "fulfiller",
          "type": "address"
        },
        {
          "internalType": "string",
          "name": "title",
          "type": "string"
        },
        {
          "internalType": "uint256",
          "name": "price",
          "type": "uint256"
        },
        {
          "internalType": "string",
          "name": "ipfsHash",
          "type": "string"
        },
        {
          "internalType": "enum ChainBizz.ProjectStatus",
          "name": "status",
          "type": "uint8"
        },
        {
          "internalType": "bool",
          "name": "ratingsIssuerDone",
          "type": "bool"
        },
        {
          "internalType": "bool",
          "name": "ratingsFulfillerDone",
          "type": "bool"
        }
      ],
      "payable": false,
      "stateMutability": "view",
      "type": "function"
    },
    {
      "constant": false,
      "inputs": [],
      "name": "enableContract",
      "outputs": [],
      "payable": false,
      "stateMutability": "nonpayable",
      "type": "function"
    },
    {
      "constant": false,
      "inputs": [],
      "name": "disableContract",
      "outputs": [],
      "payable": false,
      "stateMutability": "nonpayable",
      "type": "function"
    },
    {
      "constant": false,
      "inputs": [
        {
          "internalType": "string",
          "name": "_title",
          "type": "string"
        },
        {
          "internalType": "uint256",
          "name": "_price",
          "type": "uint256"
        },
        {
          "internalType": "string",
          "name": "_ipfsHash",
          "type": "string"
        }
      ],
      "name": "publishProject",
      "outputs": [],
      "payable": false,
      "stateMutability": "nonpayable",
      "type": "function"
    },
    {
      "constant": false,
      "inputs": [
        {
          "internalType": "uint256",
          "name": "_id",
          "type": "uint256"
        }
      ],
      "name": "publishProjectOld",
      "outputs": [],
      "payable": false,
      "stateMutability": "nonpayable",
      "type": "function"
    },
    {
      "constant": false,
      "inputs": [
        {
          "internalType": "uint256",
          "name": "_id",
          "type": "uint256"
        }
      ],
      "name": "unpublishProject",
      "outputs": [],
      "payable": false,
      "stateMutability": "nonpayable",
      "type": "function"
    },
    {
      "constant": false,
      "inputs": [
        {
          "internalType": "uint256",
          "name": "_id",
          "type": "uint256"
        }
      ],
      "name": "submitOffer",
      "outputs": [],
      "payable": false,
      "stateMutability": "nonpayable",
      "type": "function"
    },
    {
      "constant": false,
      "inputs": [
        {
          "internalType": "uint256",
          "name": "_id",
          "type": "uint256"
        }
      ],
      "name": "cancelOffer",
      "outputs": [],
      "payable": false,
      "stateMutability": "nonpayable",
      "type": "function"
    },
    {
      "constant": false,
      "inputs": [
        {
          "internalType": "uint256",
          "name": "_id",
          "type": "uint256"
        }
      ],
      "name": "acceptProposal",
      "outputs": [],
      "payable": true,
      "stateMutability": "payable",
      "type": "function"
    },
    {
      "constant": false,
      "inputs": [
        {
          "internalType": "uint256",
          "name": "_id",
          "type": "uint256"
        }
      ],
      "name": "rejectProposal",
      "outputs": [],
      "payable": false,
      "stateMutability": "nonpayable",
      "type": "function"
    },
    {
      "constant": false,
      "inputs": [
        {
          "internalType": "uint256",
          "name": "_id",
          "type": "uint256"
        }
      ],
      "name": "deliverProject",
      "outputs": [],
      "payable": false,
      "stateMutability": "nonpayable",
      "type": "function"
    },
    {
      "constant": false,
      "inputs": [
        {
          "internalType": "uint256",
          "name": "_id",
          "type": "uint256"
        }
      ],
      "name": "cancelServices",
      "outputs": [],
      "payable": false,
      "stateMutability": "nonpayable",
      "type": "function"
    },
    {
      "constant": false,
      "inputs": [
        {
          "internalType": "uint256",
          "name": "_id",
          "type": "uint256"
        }
      ],
      "name": "acceptDelivery",
      "outputs": [],
      "payable": false,
      "stateMutability": "nonpayable",
      "type": "function"
    },
    {
      "constant": false,
      "inputs": [
        {
          "internalType": "uint256",
          "name": "_id",
          "type": "uint256"
        },
        {
          "internalType": "uint256[]",
          "name": "_ratings",
          "type": "uint256[]"
        }
      ],
      "name": "setRatingsFulfiller",
      "outputs": [],
      "payable": false,
      "stateMutability": "nonpayable",
      "type": "function"
    },
    {
      "constant": false,
      "inputs": [
        {
          "internalType": "uint256",
          "name": "_id",
          "type": "uint256"
        },
        {
          "internalType": "uint256[]",
          "name": "_ratings",
          "type": "uint256[]"
        }
      ],
      "name": "setRatingsIssuer",
      "outputs": [],
      "payable": false,
      "stateMutability": "nonpayable",
      "type": "function"
    },
    {
      "constant": false,
      "inputs": [
        {
          "internalType": "uint256",
          "name": "_id",
          "type": "uint256"
        }
      ],
      "name": "rejectDelivery",
      "outputs": [],
      "payable": false,
      "stateMutability": "nonpayable",
      "type": "function"
    },
    {
      "constant": false,
      "inputs": [
        {
          "internalType": "uint256",
          "name": "_id",
          "type": "uint256"
        }
      ],
      "name": "cancelContract",
      "outputs": [],
      "payable": false,
      "stateMutability": "nonpayable",
      "type": "function"
    },
    {
      "constant": true,
      "inputs": [],
      "name": "isEnabled",
      "outputs": [
        {
          "internalType": "bool",
          "name": "",
          "type": "bool"
        }
      ],
      "payable": false,
      "stateMutability": "view",
      "type": "function"
    },
    {
      "constant": true,
      "inputs": [
        {
          "internalType": "uint256",
          "name": "_id",
          "type": "uint256"
        }
      ],
      "name": "getProject",
      "outputs": [
        {
          "internalType": "address",
          "name": "issuer",
          "type": "address"
        },
        {
          "internalType": "address",
          "name": "fulfiller",
          "type": "address"
        },
        {
          "internalType": "string",
          "name": "title",
          "type": "string"
        },
        {
          "internalType": "uint256",
          "name": "price",
          "type": "uint256"
        },
        {
          "internalType": "string",
          "name": "ipfsHash",
          "type": "string"
        },
        {
          "internalType": "enum ChainBizz.ProjectStatus",
          "name": "status",
          "type": "uint8"
        },
        {
          "internalType": "bool",
          "name": "ratingsIssuerDone",
          "type": "bool"
        },
        {
          "internalType": "bool",
          "name": "ratingsFulfillerDone",
          "type": "bool"
        },
        {
          "internalType": "uint256[]",
          "name": "ratingsIssuer",
          "type": "uint256[]"
        },
        {
          "internalType": "uint256[]",
          "name": "ratingsFulfiller",
          "type": "uint256[]"
        }
      ],
      "payable": false,
      "stateMutability": "view",
      "type": "function"
    },
    {
      "constant": true,
      "inputs": [],
      "name": "getAllProjects",
      "outputs": [
        {
          "internalType": "uint256[]",
          "name": "",
          "type": "uint256[]"
        }
      ],
      "payable": false,
      "stateMutability": "view",
      "type": "function"
    },
    {
      "constant": true,
      "inputs": [],
      "name": "getPublishedProjects",
      "outputs": [
        {
          "internalType": "uint256[]",
          "name": "",
          "type": "uint256[]"
        }
      ],
      "payable": false,
      "stateMutability": "view",
      "type": "function"
    },
    {
      "constant": true,
      "inputs": [],
      "name": "getMyProjects",
      "outputs": [
        {
          "internalType": "uint256[]",
          "name": "",
          "type": "uint256[]"
        }
      ],
      "payable": false,
      "stateMutability": "view",
      "type": "function"
    },
    {
      "constant": true,
      "inputs": [],
      "name": "getMyOffers",
      "outputs": [
        {
          "internalType": "uint256[]",
          "name": "",
          "type": "uint256[]"
        }
      ],
      "payable": false,
      "stateMutability": "view",
      "type": "function"
    },
    {
      "constant": true,
      "inputs": [],
      "name": "getMyReviews",
      "outputs": [
        {
          "internalType": "uint256[]",
          "name": "",
          "type": "uint256[]"
        }
      ],
      "payable": false,
      "stateMutability": "view",
      "type": "function"
    },
    {
      "constant": true,
      "inputs": [],
      "name": "getMyContracts",
      "outputs": [
        {
          "internalType": "uint256[]",
          "name": "",
          "type": "uint256[]"
        }
      ],
      "payable": false,
      "stateMutability": "view",
      "type": "function"
    },
    {
      "constant": true,
      "inputs": [],
      "name": "getDeliveries",
      "outputs": [
        {
          "internalType": "uint256[]",
          "name": "",
          "type": "uint256[]"
        }
      ],
      "payable": false,
      "stateMutability": "view",
      "type": "function"
    },
    {
      "constant": true,
      "inputs": [],
      "name": "getCompleted",
      "outputs": [
        {
          "internalType": "uint256[]",
          "name": "",
          "type": "uint256[]"
        }
      ],
      "payable": false,
      "stateMutability": "view",
      "type": "function"
    },
    {
      "constant": true,
      "inputs": [],
      "name": "getCanceled",
      "outputs": [
        {
          "internalType": "uint256[]",
          "name": "",
          "type": "uint256[]"
        }
      ],
      "payable": false,
      "stateMutability": "view",
      "type": "function"
    }
  ],
  "bytecode": "0x608060405234801561001057600080fd5b5060028054600160ff1990911617610100600160a81b03191661010033021790556140d4806100406000396000f3fe6080604052600436106101b75760003560e01c80637b422c4c116100ec578063bd140c4b1161008a578063ef1b655311610064578063ef1b655314610891578063ef706adf146108a6578063f0f3f2c8146108d0578063f7f2ccbf14610aaa576101b7565b8063bd140c4b14610852578063c81bde1514610867578063e4f655b01461087c576101b7565b8063894ba833116100c6578063894ba833146107bf57806391ed2069146107d4578063b85a72d2146107fe578063bc28d87814610828576101b7565b80637b422c4c146106cb5780637dde9c6e146106f557806380d03829146107aa576101b7565b80634beb7e9411610159578063629a064e11610133578063629a064e146105105780636aa633b61461053a5780636f65c7171461056357806372f7c34e1461058d576101b7565b80634beb7e94146104c95780635b54f982146104de57806360c5cc3a146104f3576101b7565b8063138e0b2611610195578063138e0b26146103c05780632779df25146103d5578063280474501461048a578063367edd32146104b4576101b7565b8063037852c7146101bc5780630850cd1e14610221578063107046bd1461024d575b600080fd5b3480156101c857600080fd5b506101d1610ad4565b60408051602080825283518183015283519192839290830191858101910280838360005b8381101561020d5781810151838201526020016101f5565b505050509050019250505060405180910390f35b34801561022d57600080fd5b5061024b6004803603602081101561024457600080fd5b5035610c42565b005b34801561025957600080fd5b506102776004803603602081101561027057600080fd5b5035610e34565b604051808a8152602001896001600160a01b03166001600160a01b03168152602001886001600160a01b03166001600160a01b0316815260200180602001878152602001806020018660088111156102cb57fe5b60ff1681526020018515151515815260200184151515158152602001838103835289818151815260200191508051906020019080838360005b8381101561031c578181015183820152602001610304565b50505050905090810190601f1680156103495780820380516001836020036101000a031916815260200191505b50838103825287518152875160209182019189019080838360005b8381101561037c578181015183820152602001610364565b50505050905090810190601f1680156103a95780820380516001836020036101000a031916815260200191505b509b50505050505050505050505060405180910390f35b3480156103cc57600080fd5b506101d1610fa6565b3480156103e157600080fd5b5061024b600480360360408110156103f857600080fd5b81359190810190604081016020820135600160201b81111561041957600080fd5b82018360208201111561042b57600080fd5b803590602001918460208302840111600160201b8311171561044c57600080fd5b91908080602002602001604051908101604052809392919081815260200183836020028082843760009201919091525092955061112b945050505050565b34801561049657600080fd5b5061024b600480360360208110156104ad57600080fd5b50356113ae565b3480156104c057600080fd5b5061024b611635565b3480156104d557600080fd5b506101d1611692565b3480156104ea57600080fd5b506101d16117f3565b61024b6004803603602081101561050957600080fd5b5035611978565b34801561051c57600080fd5b5061024b6004803603602081101561053357600080fd5b5035611b8b565b34801561054657600080fd5b5061054f611d5f565b604080519115158252519081900360200190f35b34801561056f57600080fd5b5061024b6004803603602081101561058657600080fd5b5035611d68565b34801561059957600080fd5b5061024b600480360360608110156105b057600080fd5b810190602081018135600160201b8111156105ca57600080fd5b8201836020820111156105dc57600080fd5b803590602001918460018302840111600160201b831117156105fd57600080fd5b91908080601f01602080910402602001604051908101604052809392919081815260200183838082843760009201919091525092958435959094909350604081019250602001359050600160201b81111561065757600080fd5b82018360208201111561066957600080fd5b803590602001918460018302840111600160201b8311171561068a57600080fd5b91908080601f016020809104026020016040519081016040528093929190818152602001838380828437600092019190915250929550611f05945050505050565b3480156106d757600080fd5b5061024b600480360360208110156106ee57600080fd5b50356122df565b34801561070157600080fd5b5061024b6004803603604081101561071857600080fd5b81359190810190604081016020820135600160201b81111561073957600080fd5b82018360208201111561074b57600080fd5b803590602001918460208302840111600160201b8311171561076c57600080fd5b9190808060200260200160405190810160405280939291908181526020018383602002808284376000920191909152509295506124e3945050505050565b3480156107b657600080fd5b506101d1612760565b3480156107cb57600080fd5b5061024b612894565b3480156107e057600080fd5b5061024b600480360360208110156107f757600080fd5b5035612a2e565b34801561080a57600080fd5b5061024b6004803603602081101561082157600080fd5b5035612c31565b34801561083457600080fd5b5061024b6004803603602081101561084b57600080fd5b5035612df3565b34801561085e57600080fd5b506101d1613016565b34801561087357600080fd5b506101d161319b565b34801561088857600080fd5b506101d1613349565b34801561089d57600080fd5b506101d16134d7565b3480156108b257600080fd5b5061024b600480360360208110156108c957600080fd5b5035613638565b3480156108dc57600080fd5b506108fa600480360360208110156108f357600080fd5b503561381b565b604080516001600160a01b03808d1682528b166020820152606081018990529081016080820160a0830188600881111561093057fe5b60ff1681526020018715151515815260200186151515158152602001806020018060200185810385528d818151815260200191508051906020019080838360005b83811015610989578181015183820152602001610971565b50505050905090810190601f1680156109b65780820380516001836020036101000a031916815260200191505b5085810384528b5181528b516020918201918d019080838360005b838110156109e95781810151838201526020016109d1565b50505050905090810190601f168015610a165780820380516001836020036101000a031916815260200191505b508581038352875181528751602091820191808a01910280838360005b83811015610a4b578181015183820152602001610a33565b50505050905001858103825286818151815260200191508051906020019060200280838360005b83811015610a8a578181015183820152602001610a72565b505050509050019e50505050505050505050505050505060405180910390f35b348015610ab657600080fd5b5061024b60048036036020811015610acd57600080fd5b5035613bd1565b606060015460001415610afb5760408051600080825260208201909252905b509050610c3f565b6060600154604051908082528060200260200182016040528015610b29578160200160208202803883390190505b509050600060015b6001548111610bcb576000818152602081905260409020600201546001600160a01b031633148015610b825750600260008281526020819052604090206006015460ff166008811115610b8057fe5b145b15610bc3576000818152602081905260409020548351849084908110610ba457fe5b6020908102919091010152610bc082600163ffffffff613db516565b91505b600101610b31565b50606081604051908082528060200260200182016040528015610bf8578160200160208202803883390190505b50905060005b82811015610c3957838181518110610c1257fe5b6020026020010151828281518110610c2657fe5b6020908102919091010152600101610bfe565b50925050505b90565b60025460ff161515600114610c885760405162461bcd60e51b8152600401808060200182810382526022815260200180613fae6022913960400191505060405180910390fd5b600081815260208190526040902060018101546001600160a01b0316610cae5750610e31565b60018101546001600160a01b03163314610cf95760405162461bcd60e51b8152600401808060200182810382526026815260200180613fd06026913960400191505060405180910390fd5b6001600682015460ff166008811115610d0e57fe5b14610d58576040805162461bcd60e51b815260206004820152601560248201527410d85b9b9bdd081899481d5b9c1d589b1a5cda1959605a1b604482015290519081900360640190fd5b60068101805460ff191690556004810154604080518481529081018290526060602082018181526003850180546002600182161561010002600019019091160492840183905233947f3525d4593ef70f97d7b99dfeab0e0be748aeb51f464f83bf0bbf5ab6badb45c894889492939192909190608083019085908015610e1f5780601f10610df457610100808354040283529160200191610e1f565b820191906000526020600020905b815481529060010190602001808311610e0257829003601f168201915b505094505050505060405180910390a2505b50565b60006020818152918152604090819020805460018083015460028085015460038601805488516101009682161596909602600019011692909204601f810189900489028501890190975286845293966001600160a01b0392831696929094169493909190830182828015610ee95780601f10610ebe57610100808354040283529160200191610ee9565b820191906000526020600020905b815481529060010190602001808311610ecc57829003601f168201915b50505050600483015460058401805460408051602060026001851615610100026000190190941693909304601f81018490048402820184019092528181529596939593945090830182828015610f805780601f10610f5557610100808354040283529160200191610f80565b820191906000526020600020905b815481529060010190602001808311610f6357829003601f168201915b5050506006909301549192505060ff808216916101008104821691620100009091041689565b606060015460001415610fc9576040805160008082526020820190925290610af3565b6060600154604051908082528060200260200182016040528015610ff7578160200160208202803883390190505b509050600060015b60015481116110bd576000818152602081905260409020600101546001600160a01b031633148061104957506000818152602081905260409020600201546001600160a01b031633145b80156110745750600460008281526020819052604090206006015460ff16600881111561107257fe5b145b156110b557600081815260208190526040902054835184908490811061109657fe5b60209081029190910101526110b282600163ffffffff613db516565b91505b600101610fff565b506060816040519080825280602002602001820160405280156110ea578160200160208202803883390190505b50905060005b82811015610c395783818151811061110457fe5b602002602001015182828151811061111857fe5b60209081029190910101526001016110f0565b60025460ff1615156001146111715760405162461bcd60e51b8152600401808060200182810382526022815260200180613fae6022913960400191505060405180910390fd5b600082815260208190526040902060068082015460ff16600881111561119357fe5b14806111b157506005600682015460ff1660088111156111af57fe5b145b6111fe576040805162461bcd60e51b8152602060048201526019602482015278141c9bda9958dd081b9bdd081e595d08199a5b985b1a5cd959603a1b604482015290519081900360640190fd5b60018101546001600160a01b031661121657506113aa565b60018101546001600160a01b031633146112615760405162461bcd60e51b8152600401808060200182810382526026815260200180613fd06026913960400191505060405180910390fd5b600681015462010000900460ff16156112ab5760405162461bcd60e51b8152600401808060200182810382526026815260200180613f676026913960400191505060405180910390fd5b6006825111156112ec5760405162461bcd60e51b8152600401808060200182810382526026815260200180613f416026913960400191505060405180910390fd5b81516113019060088301906020850190613e16565b5060068101805462ff0000191662010000179055600181015460408051858152602081018281526008850180549383018490526001600160a01b03909416937fa1555a03b388d659ecb566f62d10590b459283a0d2829882262a15aaaf04a3c293889391929060608301908490801561139957602002820191906000526020600020905b815481526020019060010190808311611385575b5050935050505060405180910390a2505b5050565b60025460ff1615156001146113f45760405162461bcd60e51b8152600401808060200182810382526022815260200180613fae6022913960400191505060405180910390fd5b600081815260208190526040902060018101546001600160a01b031661141a5750610e31565b60018101546001600160a01b0316331461147b576040805162461bcd60e51b815260206004820181905260248201527f596f7520617265206e6f74207468652070726f6a656374277320697373756572604482015290519081900360640190fd5b6003600682015460ff16600881111561149057fe5b14806114ae57506004600682015460ff1660088111156114ac57fe5b145b6114f9576040805162461bcd60e51b815260206004820152601760248201527650726f6a656374206e6f7420696e2070726f677265737360481b604482015290519081900360640190fd5b600181015460048201546040516001600160a01b039092169181156108fc0291906000818181858888f19350505050158015611539573d6000803e3d6000fd5b506006818101805460ff19169091179055600280820154600180840154600485015460408051888152908101829052606060208201818152600389018054610100978116159790970260001901909616979097049082018190526001600160a01b039586169695909316947fbe0490d452ff53df72b8d99df1c2a4711a2429c8dbb450f514d37b0b03e0db3794899490939291906080830190859080156116215780601f106115f657610100808354040283529160200191611621565b820191906000526020600020905b81548152906001019060200180831161160457829003601f168201915b505094505050505060405180910390a35050565b60025461010090046001600160a01b031633146116835760405162461bcd60e51b81526004018080602001828103825260318152602001806140176031913960400191505060405180910390fd5b6002805460ff19166001179055565b6060600154600014156116b5576040805160008082526020820190925290610af3565b60606001546040519080825280602002602001820160405280156116e3578160200160208202803883390190505b509050600060015b6001548111611785576000818152602081905260409020600101546001600160a01b03161580159061173c5750600160008281526020819052604090206006015460ff16600881111561173a57fe5b145b1561177d57600081815260208190526040902054835184908490811061175e57fe5b602090810291909101015261177a82600163ffffffff613db516565b91505b6001016116eb565b506060816040519080825280602002602001820160405280156117b2578160200160208202803883390190505b50905060005b82811015610c39578381815181106117cc57fe5b60200260200101518282815181106117e057fe5b60209081029190910101526001016117b8565b606060015460001415611816576040805160008082526020820190925290610af3565b6060600154604051908082528060200260200182016040528015611844578160200160208202803883390190505b509050600060015b600154811161190a576000818152602081905260409020600101546001600160a01b031633148061189657506000818152602081905260409020600201546001600160a01b031633145b80156118c15750600560008281526020819052604090206006015460ff1660088111156118bf57fe5b145b156119025760008181526020819052604090205483518490849081106118e357fe5b60209081029190910101526118ff82600163ffffffff613db516565b91505b60010161184c565b50606081604051908082528060200260200182016040528015611937578160200160208202803883390190505b50905060005b82811015610c395783818151811061195157fe5b602002602001015182828151811061196557fe5b602090810291909101015260010161193d565b60025460ff1615156001146119be5760405162461bcd60e51b8152600401808060200182810382526022815260200180613fae6022913960400191505060405180910390fd5b600081815260208190526040902060018101546001600160a01b03166119e45750610e31565b60018101546001600160a01b03163314611a2f5760405162461bcd60e51b8152600401808060200182810382526026815260200180613fd06026913960400191505060405180910390fd5b6002600682015460ff166008811115611a4457fe5b14611a8f576040805162461bcd60e51b815260206004820152601660248201527550726f706f73616c206e6f7420696e2072657669657760501b604482015290519081900360640190fd5b80600401543414611ad15760405162461bcd60e51b815260040180806020018281038252602f815260200180614071602f913960400191505060405180910390fd5b60068101805460ff191660039081179091556002808301546001808501546004860154604080518981529081018290526060602082018181529789018054610100968116159690960260001901909516969096049581018690526001600160a01b039485169694909216947fd0ca6107f6c9513954ca859c885b1e8b434687b6cf5e40625574d53dda8422ed94899493916080830190859080156116215780601f106115f657610100808354040283529160200191611621565b60025460ff161515600114611bd15760405162461bcd60e51b8152600401808060200182810382526022815260200180613fae6022913960400191505060405180910390fd5b600081815260208190526040902060018101546001600160a01b0316611bf75750610e31565b60028101546001600160a01b03163314611c425760405162461bcd60e51b8152600401808060200182810382526021815260200180613f8d6021913960400191505060405180910390fd5b6003600682015460ff166008811115611c5757fe5b14611ca3576040805162461bcd60e51b815260206004820152601760248201527650726f6a656374206e6f7420696e2070726f677265737360481b604482015290519081900360640190fd5b60068101805460ff191660049081179091556002808301546001808501549385015460408051888152908101829052606060208201818152600389018054610100968116159690960260001901909516969096049082018190526001600160a01b039485169694909416947f2c29e86efe7dba61218108fc48fc467f0b2d89a5dd6741ff0df4b17bdf5cab68948994939291906080830190859080156116215780601f106115f657610100808354040283529160200191611621565b60025460ff1690565b60025460ff161515600114611dae5760405162461bcd60e51b8152600401808060200182810382526022815260200180613fae6022913960400191505060405180910390fd5b600081815260208190526040902060018101546001600160a01b0316611dd45750610e31565b6001600682015460ff166008811115611de957fe5b14611e3b576040805162461bcd60e51b815260206004820152601960248201527f50726f6a656374206e6f206d6f726520617661696c61626c6500000000000000604482015290519081900360640190fd5b600280820180546001600160a01b0319163317905560068201805460ff191660018302179055506001818101546004830154604080518681529081018290526060602082018181526003870180546002610100988216159890980260001901169690960491830182905233956001600160a01b03909516947f337b4516025ec150291d21f457dad5d6d43ea3f7da34432124932cd2a6b700b194899491939092906080830190859080156116215780601f106115f657610100808354040283529160200191611621565b60025460ff161515600114611f4b5760405162461bcd60e51b8152600401808060200182810382526022815260200180613fae6022913960400191505060405180910390fd5b82518390611f96576040805162461bcd60e51b815260206004820152601360248201527210481d1a5d1b19481a5cc81c995c5d5a5c9959606a1b604482015290519081900360640190fd5b81518290611feb576040805162461bcd60e51b815260206004820152601a60248201527f41206861736820746f2049504653206973207265717569726564000000000000604482015290519081900360640190fd5b60018054611ffe9163ffffffff613db516565b60018181556040805161016081018252928352336020840152600090830152606082018790526080820186905260a0820185905260c08201908152600060208083018290526040808401929092528151600480825260a0820190935260609093019291908201608080388339505050815260408051600680825260e08201909252602092830192909190820160c08038833950505090526001805460009081526020818152604091829020845181558482015193810180546001600160a01b03199081166001600160a01b039687161790915592850151600282018054909416941693909317909155606083015180516120fe9260038501920190613e61565b506080820151600482015560a08201518051612124916005840191602090910190613e61565b5060c082015160068201805460ff1916600183600881111561214257fe5b021790555060e08201516006820180546101008086015161ff0019909216931515029290921762ff000019166201000092151592909202919091179055610120820151805161219b916007840191602090910190613e16565b5061014082015180516121b8916008840191602090910190613e16565b50905050336001600160a01b03167fea07c326ec88ddea19d72529e511ce438c2cd368f463f890406ab6582b2dc0db600154878787604051808581526020018060200184815260200180602001838103835286818151815260200191508051906020019080838360005b8381101561223a578181015183820152602001612222565b50505050905090810190601f1680156122675780820380516001836020036101000a031916815260200191505b50838103825284518152845160209182019186019080838360005b8381101561229a578181015183820152602001612282565b50505050905090810190601f1680156122c75780820380516001836020036101000a031916815260200191505b50965050505050505060405180910390a25050505050565b60025460ff1615156001146123255760405162461bcd60e51b8152600401808060200182810382526022815260200180613fae6022913960400191505060405180910390fd5b600081815260208190526040902060018101546001600160a01b031661234b5750610e31565b60018101546001600160a01b031633146123965760405162461bcd60e51b8152600401808060200182810382526026815260200180613fd06026913960400191505060405180910390fd5b6004600682015460ff1660088111156123ab57fe5b146123e75760405162461bcd60e51b8152600401808060200182810382526021815260200180613ff66021913960400191505060405180910390fd5b600281015460048201546040516001600160a01b039092169181156108fc0291906000818181858888f19350505050158015612427573d6000803e3d6000fd5b5060068101805460ff19166005179055600280820154600180840154600485015460408051888152908101829052606060208201818152600389018054610100978116159790970260001901909616979097049082018190526001600160a01b039586169695909316947f72a87e41eb71c3d97ada3d99bed7a092d856bcdc4f034ef117099e051038cd7a94899490939291906080830190859080156116215780601f106115f657610100808354040283529160200191611621565b60025460ff1615156001146125295760405162461bcd60e51b8152600401808060200182810382526022815260200180613fae6022913960400191505060405180910390fd5b600082815260208190526040902060068082015460ff16600881111561254b57fe5b148061256957506005600682015460ff16600881111561256757fe5b145b6125b6576040805162461bcd60e51b8152602060048201526019602482015278141c9bda9958dd081b9bdd081e595d08199a5b985b1a5cd959603a1b604482015290519081900360640190fd5b60018101546001600160a01b03166125ce57506113aa565b6006810154610100900460ff16156126175760405162461bcd60e51b8152600401808060200182810382526026815260200180613f676026913960400191505060405180910390fd5b60028101546001600160a01b031633146126625760405162461bcd60e51b81526004018080602001828103825260298152602001806140486029913960400191505060405180910390fd5b6004825111156126a35760405162461bcd60e51b8152600401808060200182810382526026815260200180613f416026913960400191505060405180910390fd5b81516126b89060078301906020850190613e16565b5060068101805461ff001916610100179055600281015460408051858152602081018281526007850180549383018490526001600160a01b03909416937f302217e0f5d9a629b94eb6808aacbbfb80af259708456e33124728c358460d539388939192906060830190849080156113995760200282019190600052602060002090815481526020019060010190808311611385575050935050505060405180910390a2505050565b606060015460001415612783576040805160008082526020820190925290610af3565b60606001546040519080825280602002602001820160405280156127b1578160200160208202803883390190505b509050600060015b6001548111612826576000818152602081905260409020600101546001600160a01b03161561281e5760008181526020819052604090205483518490849081106127ff57fe5b602090810291909101015261281b82600163ffffffff613db516565b91505b6001016127b9565b50606081604051908082528060200260200182016040528015612853578160200160208202803883390190505b50905060005b82811015610c395783818151811061286d57fe5b602002602001015182828151811061288157fe5b6020908102919091010152600101612859565b60025461010090046001600160a01b031633146128e25760405162461bcd60e51b81526004018080602001828103825260318152602001806140176031913960400191505060405180910390fd5b60025460ff1615156001146129285760405162461bcd60e51b8152600401808060200182810382526022815260200180613fae6022913960400191505060405180910390fd5b6002805460ff1916905560015461293e57612a2c565b606060015460405190808252806020026020018201604052801561296c578160200160208202803883390190505b509050600060015b6001548111612a285760008181526020819052604090206003600682015460ff1660088111156129a057fe5b14806129be57506004600682015460ff1660088111156129bc57fe5b145b15612a1f57600481015415612a0f57600181015460048201546040516001600160a01b039092169181156108fc0291906000818181858888f19350505050158015612a0d573d6000803e3d6000fd5b505b60068101805460ff191660071790555b50600101612974565b5050505b565b60025460ff161515600114612a745760405162461bcd60e51b8152600401808060200182810382526022815260200180613fae6022913960400191505060405180910390fd5b600081815260208190526040902060018101546001600160a01b0316612a9a5750610e31565b60018101546001600160a01b03163314612ae55760405162461bcd60e51b8152600401808060200182810382526026815260200180613fd06026913960400191505060405180910390fd5b6000600682015460ff166008811115612afa57fe5b14612b42576040805162461bcd60e51b815260206004820152601360248201527210d85b9b9bdd081899481c1d589b1a5cda1959606a1b604482015290519081900360640190fd5b60068101805460ff191660019081179091556004820154604080518581529081018290526080602082018181526003860180546002968116156101000260001901169590950491830182905233947fea07c326ec88ddea19d72529e511ce438c2cd368f463f890406ab6582b2dc0db9488949193909290606083019060a084019086908015612c125780601f10612be757610100808354040283529160200191612c12565b820191906000526020600020905b815481529060010190602001808311612bf557829003601f168201915b5050928303905250600081526040805191829003019350915050a25050565b60025460ff161515600114612c775760405162461bcd60e51b8152600401808060200182810382526022815260200180613fae6022913960400191505060405180910390fd5b600081815260208190526040902060018101546001600160a01b0316612c9d5750610e31565b60018101546001600160a01b03163314612ce85760405162461bcd60e51b8152600401808060200182810382526026815260200180613fd06026913960400191505060405180910390fd5b6004600682015460ff166008811115612cfd57fe5b14612d395760405162461bcd60e51b8152600401808060200182810382526021815260200180613ff66021913960400191505060405180910390fd5b60068101805460ff191660039081179091556002808301546001808501546004860154604080518981529081018290526060602082018181529789018054610100968116159690960260001901909516969096049581018690526001600160a01b039485169694909216947f45db355d424e661e8b7ea210fd36cd8224f4955611152ce93518a27f205467e494899493916080830190859080156116215780601f106115f657610100808354040283529160200191611621565b60025460ff161515600114612e395760405162461bcd60e51b8152600401808060200182810382526022815260200180613fae6022913960400191505060405180910390fd5b600081815260208190526040902060018101546001600160a01b0316612e5f5750610e31565b60018101546001600160a01b03163314612eaa5760405162461bcd60e51b8152600401808060200182810382526026815260200180613fd06026913960400191505060405180910390fd5b6002600682015460ff166008811115612ebf57fe5b14612f0a576040805162461bcd60e51b815260206004820152601660248201527550726f706f73616c206e6f7420696e2072657669657760501b604482015290519081900360640190fd5b6002818101805460068401805460ff191660019081179091556001600160a01b0319821690925581840154600485015460408051888152908101829052606060208201818152600389018054610100988116159890980260001901909716979097049082018190526001600160a01b0394851696879695909416947f4c596893f217ff7756c8fc77bea24399406130928fc25e6ace71d6121fd2643f948a94919391926080830190859080156130015780601f10612fd657610100808354040283529160200191613001565b820191906000526020600020905b815481529060010190602001808311612fe457829003601f168201915b505094505050505060405180910390a3505050565b606060015460001415613039576040805160008082526020820190925290610af3565b6060600154604051908082528060200260200182016040528015613067578160200160208202803883390190505b509050600060015b600154811161312d576000818152602081905260409020600101546001600160a01b03163314806130b957506000818152602081905260409020600201546001600160a01b031633145b80156130e45750600660008281526020819052604090206006015460ff1660088111156130e257fe5b145b1561312557600081815260208190526040902054835184908490811061310657fe5b602090810291909101015261312282600163ffffffff613db516565b91505b60010161306f565b5060608160405190808252806020026020018201604052801561315a578160200160208202803883390190505b50905060005b82811015610c395783818151811061317457fe5b602002602001015182828151811061318857fe5b6020908102919091010152600101613160565b6060600154600014156131be576040805160008082526020820190925290610af3565b60606001546040519080825280602002602001820160405280156131ec578160200160208202803883390190505b509050600060015b60015481116132db576000818152602081905260409020600101546001600160a01b031633148061323e57506000818152602081905260409020600201546001600160a01b031633145b80156132925750600360008281526020819052604090206006015460ff16600881111561326757fe5b14806132925750600460008281526020819052604090206006015460ff16600881111561329057fe5b145b156132d35760008181526020819052604090205483518490849081106132b457fe5b60209081029190910101526132d082600163ffffffff613db516565b91505b6001016131f4565b50606081604051908082528060200260200182016040528015613308578160200160208202803883390190505b50905060005b82811015610c395783818151811061332257fe5b602002602001015182828151811061333657fe5b602090810291909101015260010161330e565b60606001546000141561336c576040805160008082526020820190925290610af3565b606060015460405190808252806020026020018201604052801561339a578160200160208202803883390190505b509050600060015b6001548111613469576000818152602081905260409020600101546001600160a01b0316331480156133f45750600560008281526020819052604090206006015460ff1660088111156133f157fe5b14155b80156134205750600660008281526020819052604090206006015460ff16600881111561341d57fe5b14155b1561346157600081815260208190526040902054835184908490811061344257fe5b602090810291909101015261345e82600163ffffffff613db516565b91505b6001016133a2565b50606081604051908082528060200260200182016040528015613496578160200160208202803883390190505b50905060005b82811015610c39578381815181106134b057fe5b60200260200101518282815181106134c457fe5b602090810291909101015260010161349c565b6060600154600014156134fa576040805160008082526020820190925290610af3565b6060600154604051908082528060200260200182016040528015613528578160200160208202803883390190505b509050600060015b60015481116135ca576000818152602081905260409020600101546001600160a01b0316331480156135815750600260008281526020819052604090206006015460ff16600881111561357f57fe5b145b156135c25760008181526020819052604090205483518490849081106135a357fe5b60209081029190910101526135bf82600163ffffffff613db516565b91505b600101613530565b506060816040519080825280602002602001820160405280156135f7578160200160208202803883390190505b50905060005b82811015610c395783818151811061361157fe5b602002602001015182828151811061362557fe5b60209081029190910101526001016135fd565b60025460ff16151560011461367e5760405162461bcd60e51b8152600401808060200182810382526022815260200180613fae6022913960400191505060405180910390fd5b600081815260208190526040902060018101546001600160a01b03166136a45750610e31565b60028101546001600160a01b031633146136ef5760405162461bcd60e51b8152600401808060200182810382526021815260200180613f8d6021913960400191505060405180910390fd5b6002600682015460ff16600881111561370457fe5b1461374f576040805162461bcd60e51b815260206004820152601660248201527550726f706f73616c206e6f7420696e2072657669657760501b604482015290519081900360640190fd5b6002818101805460068401805460ff191660019081179091556001600160a01b0319821690925581840154600485015460408051888152908101829052606060208201818152600389018054610100988116159890980260001901909716979097049082018190526001600160a01b0394851696879695909416947fda2bae36f5d87ea886fd53cadaade9c848558e3ba0ce0b05a90d6203787fec45948a94919391926080830190859080156130015780601f10612fd657610100808354040283529160200191613001565b6000806060600060606000806000606080613834613ece565b60008c81526020818152604091829020825161016081018452815481526001808301546001600160a01b03908116838601526002808501549091168387015260038401805487516101009482161594909402600019011691909104601f8101869004860283018601909652858252919492936060860193919291908301828280156139005780601f106138d557610100808354040283529160200191613900565b820191906000526020600020905b8154815290600101906020018083116138e357829003601f168201915b5050509183525050600482015460208083019190915260058301805460408051601f6002600019610100600187161502019094169390930492830185900485028101850182528281529401939283018282801561399e5780601f106139735761010080835404028352916020019161399e565b820191906000526020600020905b81548152906001019060200180831161398157829003601f168201915b5050509183525050600682015460209091019060ff1660088111156139bf57fe5b60088111156139ca57fe5b8152600682015460ff610100820481161515602080850191909152620100009092041615156040808401919091526007840180548251818502810185019093528083526060909401939192909190830182828015613a4757602002820191906000526020600020905b815481526020019060010190808311613a33575b5050505050815260200160088201805480602002602001604051908101604052809291908181526020018280548015613a9f57602002820191906000526020600020905b815481526020019060010190808311613a8b575b5050509190925250505060208101519091506001600160a01b0316613b6757600080600060086000806004604051908082528060200260200182016040528015613af3578160200160208202803883390190505b5060408051600680825260e08201909252906020820160c08038833901905050879750869650604051806020016040528060008152509594939291908595506040518060200160405280600081525094939291908191508090509a509a509a509a509a509a509a509a509a509a5050613bc4565b80602001518160400151826060015183608001518460a001518560c001518660e001518761010001518861012001518961014001518999508898508797508595508191508090509a509a509a509a509a509a509a509a509a509a50505b9193959799509193959799565b60025460ff161515600114613c175760405162461bcd60e51b8152600401808060200182810382526022815260200180613fae6022913960400191505060405180910390fd5b600081815260208190526040902060018101546001600160a01b0316613c3d5750610e31565b60028101546001600160a01b03163314613c885760405162461bcd60e51b8152600401808060200182810382526021815260200180613f8d6021913960400191505060405180910390fd5b6003600682015460ff166008811115613c9d57fe5b14613ce9576040805162461bcd60e51b815260206004820152601760248201527650726f6a656374206e6f7420696e2070726f677265737360481b604482015290519081900360640190fd5b6002818101805460068401805460ff191660019081179091556001600160a01b0319821690925581840154600485015460408051888152908101829052606060208201818152600389018054610100988116159890980260001901909716979097049082018190526001600160a01b0394851696879695909416947fd1ed06115c7e42f61501cf18bfd02f10359381afe0d93bc31f146a45a4fb78ab948a94919391926080830190859080156130015780601f10612fd657610100808354040283529160200191613001565b600082820183811015613e0f576040805162461bcd60e51b815260206004820152601b60248201527f536166654d6174683a206164646974696f6e206f766572666c6f770000000000604482015290519081900360640190fd5b9392505050565b828054828255906000526020600020908101928215613e51579160200282015b82811115613e51578251825591602001919060010190613e36565b50613e5d929150613f26565b5090565b828054600181600116156101000203166002900490600052602060002090601f016020900481019282601f10613ea257805160ff1916838001178555613e51565b82800160010185558215613e515791820182811115613e51578251825591602001919060010190613e36565b604080516101608101825260008082526020820181905291810182905260608082018190526080820183905260a08201529060c082019081526000602082018190526040820152606080820181905260809091015290565b610c3f91905b80821115613e5d5760008155600101613f2c56fe546865206e756d626572206f6620726174696e67732065786365656420746865206c696d6974596f75206861766520616c72656164792070726f766964656420796f757220726174696e6773596f7520617265206e6f742074686520736572766963652066756c66696c6c657254686520636f6e7472616374206973206e6f74206d6f726520617661696c61626c65596f7520617265206e6f742074686520697373756572206f6620746869732070726f6a65637450726f6a656374206e6f7420696e2076616c69646174696f6e2070726f63657373546869732063616c6c206973206f6e6c7920616c6c6f7765722062792074686520636f6e74726163742773206f776e6572596f7520617265206e6f74207468652066756c66696c6c6572206f6620746869732070726f6a656374596f7572206465706f73697420646f65736e2774206d617463682074686520636f6e74726163742773207072696365a265627a7a72315820f7ee13ee70ec6a91f991600c0daed987d8d4648543b77aa537c62092d58f4c0264736f6c63430005100032",
  "source": "pragma solidity >=0.4.21 <0.7.0;\n\nimport \"openzeppelin-solidity/contracts/math/SafeMath.sol\";\n\n/// @title Decentralised business platform\n/// @author Said Eloudrhiri (ChainSkills) - Devoxx Morocco 2019\n/// @notice Learn how to create a smart contract to simulate a decentralised business platform to issue and fulfill projects\n/// @dev This smart contract is for illustration purpose only and should not be used in the mainNet\ncontract ChainBizz {\n    using SafeMath for uint256;\n\n    /*\n   * Enum\n   */\n\n    // Defines the status of the project\n    enum ProjectStatus {\n        Draft,\n        Available,\n        InReview,\n        OnGoing,\n        Validate,\n        Completed,\n        Canceled,\n        Refunded,\n        Unknown\n    }\n\n    // Defines the ratings for the fulfiller\n    enum RatingFulfiller {\n        OnTime,\n        OnBudget,\n        HardSkills,\n        SoftSkills,\n        Quality,\n        Recommend\n    }\n\n    uint256 constant MAX_RATINGS_FULFILLER = 6;\n\n    // Defines the ratings for the issuer\n    enum RatingIssuer {Precise, SoftSkills, Serious, Recommend}\n\n    uint256 constant MAX_RATINGS_ISSUER = 4;\n\n    /*\n   * Structs\n   */\n\n    // Description of a project\n    struct ProjectItem {\n        uint256 id; // unique ID\n        address payable issuer;\n        address payable fulfiller;\n        string title;\n        uint256 price; // price in Wei\n        string ipfsHash;\n        ProjectStatus status;\n        bool ratingsIssuerDone;\n        bool ratingsFulfillerDone;\n        uint256[] ratingsIssuer;\n        uint256[] ratingsFulfiller;\n    }\n\n    /*\n   * Storage\n   */\n\n    // List of projects\n    mapping(uint256 => ProjectItem) public projects;\n\n    // Number of registered projects\n    uint256 projectsCounter;\n\n    // Defines if the contract is still enable or not\n    bool enabledContract;\n\n    // Keep contract's issuer address\n    address owner;\n\n    /*\n   * Modifiers\n   */\n\n    modifier onlyEnable() {\n        require(enabledContract == true, \"The contract is not more available\");\n        _;\n    }\n\n    modifier onlyOwner() {\n        require(\n            msg.sender == owner,\n            \"This call is only allower by the contract's owner\"\n        );\n        _;\n    }\n\n    /*\n   * Events\n   */\n    event PublishedProject(\n        uint256 id,\n        address indexed issuer,\n        string title,\n        uint256 price,\n        string ipfsHash\n    );\n    event UnpublishedProject(\n        uint256 id,\n        address indexed issuer,\n        string title,\n        uint256 price\n    );\n    event OfferSubmitted(\n        uint256 id,\n        address indexed issuer,\n        address indexed fulfiller,\n        string title,\n        uint256 price\n    );\n    event OfferCanceled(\n        uint256 id,\n        address indexed issuer,\n        address indexed fulfiller,\n        string title,\n        uint256 price\n    );\n    event AcceptProposal(\n        uint256 id,\n        address indexed issuer,\n        address indexed fulfiller,\n        string title,\n        uint256 price\n    );\n    event RejectProposal(\n        uint256 id,\n        address indexed issuer,\n        address indexed fulfiller,\n        string title,\n        uint256 price\n    );\n    event ProjectDelivered(\n        uint256 id,\n        address indexed issuer,\n        address indexed fulfiller,\n        string title,\n        uint256 price\n    );\n    event ServicesCanceled(\n        uint256 id,\n        address indexed issuer,\n        address indexed fulfiller,\n        string title,\n        uint256 price\n    );\n    event DeliveryAccepted(\n        uint256 id,\n        address indexed issuer,\n        address indexed fulfiller,\n        string title,\n        uint256 price\n    );\n    event DeliveryRejected(\n        uint256 id,\n        address indexed issuer,\n        address indexed fulfiller,\n        string title,\n        uint256 price\n    );\n    event ContractCanceled(\n        uint256 id,\n        address indexed issuer,\n        address indexed fulfiller,\n        string title,\n        uint256 price\n    );\n    event RatingsIssuer(\n        uint256 id,\n        address indexed fulfiller,\n        uint256[] ratings\n    );\n    event RatingsFulFiller(\n        uint256 id,\n        address indexed issuer,\n        uint256[] ratings\n    );\n\n    /*\n  * Public functions\n  */\n\n    constructor() public {\n        enabledContract = true;\n        owner = msg.sender;\n    }\n\n    /// @dev Enable the usage of the contract\n    function enableContract() public onlyOwner {\n        enabledContract = true;\n    }\n\n    /// @dev Disable the usage of the contract, change the status of all running projects and payback all issuers\n    function disableContract() public onlyOwner onlyEnable {\n        // First, we disable the contract\n        enabledContract = false;\n\n        // Then, we refund issuers for their running contracts\n\n        // At least one project?\n        if (projectsCounter == 0) {\n            return;\n        }\n\n        // prepare output array\n        uint256[] memory projectIDs = new uint256[](projectsCounter);\n\n        // iterate over projects\n        uint256 numberOfProjects = 0;\n        for (uint256 i = 1; i <= projectsCounter; i++) {\n            // retrieve the project\n            ProjectItem storage project = projects[i];\n\n            // check if this project is published\n            if (\n                (project.status == ProjectStatus.OnGoing) ||\n                (project.status == ProjectStatus.Validate)\n            ) {\n                // Refund the issuer\n                if (project.price > 0) {\n                    // pay back the issuer\n                    project.issuer.transfer(project.price);\n                }\n\n                // project refunded\n                project.status = ProjectStatus.Refunded;\n            }\n        }\n    }\n\n    //\n    // Setters\n    //\n\n    // Publish the project to seek for fulfillers\n    function publishProject(\n        string memory _title,\n        uint256 _price,\n        string memory _ipfsHash\n    ) public onlyEnable {\n        // a title is required\n        bytes memory title = bytes(_title);\n        require(title.length > 0, \"A title is required\");\n\n        // The hash to IPFS is required\n        bytes memory ipfsHash = bytes(_ipfsHash);\n        require(ipfsHash.length > 0, \"A hash to IPFS is required\");\n\n        // new project\n        projectsCounter = projectsCounter.add(1);\n\n        // store the new project\n        projects[projectsCounter] = ProjectItem(\n            projectsCounter,\n            msg.sender,\n            address(0x0),\n            _title,\n            _price,\n            _ipfsHash,\n            ProjectStatus.Available,\n            false,\n            false,\n            new uint256[](MAX_RATINGS_ISSUER),\n            new uint256[](MAX_RATINGS_FULFILLER)\n        );\n\n        emit PublishedProject(\n            projectsCounter,\n            msg.sender,\n            _title,\n            _price,\n            _ipfsHash\n        );\n    }\n\n    // Publish the project to seek for fulfillers\n    function publishProjectOld(uint256 _id) public onlyEnable {\n        // retrieve the project\n        ProjectItem storage project = projects[_id];\n\n        // ensure that this project exists\n        if (project.issuer == address(0x0)) {\n            return;\n        }\n\n        // do we own this project?\n        require(\n            project.issuer == msg.sender,\n            \"You are not the issuer of this project\"\n        );\n\n        // ready to be published?\n        require(project.status == ProjectStatus.Draft, \"Cannot be published\");\n\n        // publish the project to be available for services\n        project.status = ProjectStatus.Available;\n\n        emit PublishedProject(\n            _id,\n            msg.sender,\n            project.title,\n            project.price,\n            \"\"\n        );\n    }\n\n    // Unpublish the project\n    // A project can be unpublished ONLY if it's already published and not already part of a contract\n    function unpublishProject(uint256 _id) public onlyEnable {\n        // retrieve the project\n        ProjectItem storage project = projects[_id];\n\n        // ensure that this project exists\n        if (project.issuer == address(0x0)) {\n            return;\n        }\n\n        // do we own this project?\n        require(\n            project.issuer == msg.sender,\n            \"You are not the issuer of this project\"\n        );\n\n        // ready to be unpublished?\n        require(\n            project.status == ProjectStatus.Available,\n            \"Cannot be unpublished\"\n        );\n\n        // unpublish the project\n        project.status = ProjectStatus.Draft;\n\n        emit UnpublishedProject(_id, msg.sender, project.title, project.price);\n    }\n\n    // Offer services for the project\n    // A fulfiller offers his/her services to perform the project\n    function submitOffer(uint256 _id) public onlyEnable {\n        // retrieve the project\n        ProjectItem storage project = projects[_id];\n\n        // ensure that this project exists\n        if (project.issuer == address(0x0)) {\n            return;\n        }\n\n        // is the project available?\n        require(\n            project.status == ProjectStatus.Available,\n            \"Project no more available\"\n        );\n\n        // store the address of the fulfiller\n        project.fulfiller = msg.sender;\n\n        // project is under review\n        project.status = ProjectStatus.InReview;\n\n        emit OfferSubmitted(\n            _id,\n            project.issuer,\n            msg.sender,\n            project.title,\n            project.price\n        );\n    }\n\n    // Cancel offer made by the fulfiller\n    // A fulfiller cancels his/her offer to perform the project\n    function cancelOffer(uint256 _id) public onlyEnable {\n        // retrieve the project\n        ProjectItem storage project = projects[_id];\n\n        // ensure that this project exists\n        if (project.issuer == address(0x0)) {\n            return;\n        }\n\n        // are we the service fulfiller?\n        require(\n            project.fulfiller == msg.sender,\n            \"You are not the service fulfiller\"\n        );\n\n        // is the project in review?\n        require(\n            project.status == ProjectStatus.InReview,\n            \"Proposal not in review\"\n        );\n\n        // project is now available\n        address payable fulfiller = project.fulfiller;\n        project.status = ProjectStatus.Available;\n        project.fulfiller = address(0x0);\n\n        emit OfferCanceled(\n            _id,\n            project.issuer,\n            fulfiller,\n            project.title,\n            project.price\n        );\n    }\n\n    // Accept services from the fulfiller\n    // The issuer accepts the services offered by the fulfiller\n    function acceptProposal(uint256 _id) public payable onlyEnable {\n        // retrieve the project\n        ProjectItem storage project = projects[_id];\n\n        // ensure that this project exists\n        if (project.issuer == address(0x0)) {\n            return;\n        }\n\n        // do we own this project?\n        require(\n            project.issuer == msg.sender,\n            \"You are not the issuer of this project\"\n        );\n\n        // is the project in review?\n        require(\n            project.status == ProjectStatus.InReview,\n            \"Proposal not in review\"\n        );\n\n        // is the issuer has deposit the requeste amount?\n        require(\n            msg.value == project.price,\n            \"Your deposit doesn't match the contract's price\"\n        );\n\n        // project is now ongoing\n        project.status = ProjectStatus.OnGoing;\n\n        emit AcceptProposal(\n            _id,\n            project.issuer,\n            project.fulfiller,\n            project.title,\n            project.price\n        );\n    }\n\n    // Reject proposal from the fulfiller\n    // The issuer rejects the services offered by the fulfiller\n    function rejectProposal(uint256 _id) public onlyEnable {\n        // retrieve the project\n        ProjectItem storage project = projects[_id];\n\n        // ensure that this project exists\n        if (project.issuer == address(0x0)) {\n            return;\n        }\n\n        // do we own this project?\n        require(\n            project.issuer == msg.sender,\n            \"You are not the issuer of this project\"\n        );\n\n        // is the project in review?\n        require(\n            project.status == ProjectStatus.InReview,\n            \"Proposal not in review\"\n        );\n\n        // project is now available\n        address payable fulfiller = project.fulfiller;\n        project.status = ProjectStatus.Available;\n        project.fulfiller = address(0x0);\n\n        emit RejectProposal(\n            _id,\n            project.issuer,\n            fulfiller,\n            project.title,\n            project.price\n        );\n    }\n\n    // Deliver the project to the customer\n    // The fulfiller delivers the project to the issuer\n    function deliverProject(uint256 _id) public onlyEnable {\n        // retrieve the project\n        ProjectItem storage project = projects[_id];\n\n        // ensure that this project exists\n        if (project.issuer == address(0x0)) {\n            return;\n        }\n\n        // are we the service fulfiller?\n        require(\n            project.fulfiller == msg.sender,\n            \"You are not the service fulfiller\"\n        );\n\n        // is the project ongoing?\n        require(\n            project.status == ProjectStatus.OnGoing,\n            \"Project not in progress\"\n        );\n\n        // project is now validation process\n        project.status = ProjectStatus.Validate;\n\n        emit ProjectDelivered(\n            _id,\n            project.issuer,\n            project.fulfiller,\n            project.title,\n            project.price\n        );\n    }\n\n    // Cancel services from the fulfiller\n    // The fulfiller cancels the services performed for the project\n    function cancelServices(uint256 _id) public onlyEnable {\n        // retrieve the project\n        ProjectItem storage project = projects[_id];\n\n        // ensure that this project exists\n        if (project.issuer == address(0x0)) {\n            return;\n        }\n\n        // are we the service fulfiller?\n        require(\n            project.fulfiller == msg.sender,\n            \"You are not the service fulfiller\"\n        );\n\n        // is the project ongoing?\n        require(\n            project.status == ProjectStatus.OnGoing,\n            \"Project not in progress\"\n        );\n\n        // project becomes available\n        address payable fulfiller = project.fulfiller;\n        project.status = ProjectStatus.Available;\n        project.fulfiller = address(0x0);\n\n        emit ServicesCanceled(\n            _id,\n            project.issuer,\n            fulfiller,\n            project.title,\n            project.price\n        );\n    }\n\n    // Accept the project delivery from the fulfiller\n    // The issuer accepts the project delivered by the fulfiller\n    function acceptDelivery(uint256 _id) public onlyEnable {\n        // retrieve the project\n        ProjectItem storage project = projects[_id];\n\n        // ensure that this project exists\n        if (project.issuer == address(0x0)) {\n            return;\n        }\n\n        // do we own this project?\n        require(\n            project.issuer == msg.sender,\n            \"You are not the issuer of this project\"\n        );\n\n        // is the project in review?\n        require(\n            project.status == ProjectStatus.Validate,\n            \"Project not in validation process\"\n        );\n\n        // pay the service provide\n        project.fulfiller.transfer(project.price);\n\n        // project is now completed\n        project.status = ProjectStatus.Completed;\n\n        emit DeliveryAccepted(\n            _id,\n            project.issuer,\n            project.fulfiller,\n            project.title,\n            project.price\n        );\n    }\n\n    // The issuer evaluates the fulfiller\n    function setRatingsFulfiller(uint256 _id, uint256[] memory _ratings)\n        public\n        onlyEnable\n    {\n        // retrieve the project\n        ProjectItem storage project = projects[_id];\n\n        // is the project completed or cancelled?\n        require(\n            (project.status == ProjectStatus.Canceled) ||\n                (project.status == ProjectStatus.Completed),\n            \"Project not yet finalised\"\n        );\n\n        // ensure that this project exists\n        if (project.issuer == address(0x0)) {\n            return;\n        }\n\n        // do we own this project?\n        require(\n            project.issuer == msg.sender,\n            \"You are not the issuer of this project\"\n        );\n\n        // do not allow changes on ratings\n        require(\n            project.ratingsFulfillerDone == false,\n            \"You have already provided your ratings\"\n        );\n\n        // avoid overflow\n        require(\n            _ratings.length <= MAX_RATINGS_FULFILLER,\n            \"The number of ratings exceed the limit\"\n        );\n\n        // save ratings from the issuer\n        project.ratingsFulfiller = _ratings;\n        project.ratingsFulfillerDone = true;\n\n        emit RatingsFulFiller(_id, project.issuer, project.ratingsFulfiller);\n    }\n\n    // The fulfiller evaluates the issuer\n    function setRatingsIssuer(uint256 _id, uint256[] memory _ratings)\n        public\n        onlyEnable\n    {\n        // retrieve the project\n        ProjectItem storage project = projects[_id];\n\n        // is the project completed or cancelled?\n        require(\n            (project.status == ProjectStatus.Canceled) ||\n                (project.status == ProjectStatus.Completed),\n            \"Project not yet finalised\"\n        );\n\n        // ensure that this project exists\n        if (project.issuer == address(0x0)) {\n            return;\n        }\n\n        // do not allow changes on ratings\n        require(\n            project.ratingsIssuerDone == false,\n            \"You have already provided your ratings\"\n        );\n\n        // do we own this project?\n        require(\n            project.fulfiller == msg.sender,\n            \"You are not the fulfiller of this project\"\n        );\n\n        // avoid overflow\n        require(\n            _ratings.length <= MAX_RATINGS_ISSUER,\n            \"The number of ratings exceed the limit\"\n        );\n\n        // save ratings from the fulfiller\n        project.ratingsIssuer = _ratings;\n        project.ratingsIssuerDone = true;\n\n        emit RatingsIssuer(_id, project.fulfiller, project.ratingsIssuer);\n    }\n\n    // Reject the project delivery from the fulfiller\n    // The issuer rejects the project delivered by the fulfiller\n    function rejectDelivery(uint256 _id) public onlyEnable {\n        // retrieve the project\n        ProjectItem storage project = projects[_id];\n\n        // ensure that this project exists\n        if (project.issuer == address(0x0)) {\n            return;\n        }\n\n        // do we own this project?\n        require(\n            project.issuer == msg.sender,\n            \"You are not the issuer of this project\"\n        );\n\n        // is the project in review?\n        require(\n            project.status == ProjectStatus.Validate,\n            \"Project not in validation process\"\n        );\n\n        // project remains ongoing\n        project.status = ProjectStatus.OnGoing;\n\n        emit DeliveryRejected(\n            _id,\n            project.issuer,\n            project.fulfiller,\n            project.title,\n            project.price\n        );\n    }\n\n    // Contract canceled by the issuer\n    // The issuer cancels the contract\n    function cancelContract(uint256 _id) public onlyEnable {\n        // retrieve the project\n        ProjectItem storage project = projects[_id];\n\n        // ensure that this project exists\n        if (project.issuer == address(0x0)) {\n            return;\n        }\n\n        // are we the service fulfiller?\n        require(\n            project.issuer == msg.sender,\n            \"You are not the project's issuer\"\n        );\n\n        // is the project ongoing?\n        require(\n            (project.status == ProjectStatus.OnGoing) ||\n                (project.status == ProjectStatus.Validate),\n            \"Project not in progress\"\n        );\n\n        // pay back the contract's issuer\n        project.issuer.transfer(project.price);\n\n        // contract becomes canceled\n        project.status = ProjectStatus.Canceled;\n\n        emit ContractCanceled(\n            _id,\n            project.issuer,\n            project.fulfiller,\n            project.title,\n            project.price\n        );\n    }\n\n    //\n    // Getters\n    //\n\n    // Retrieve if the contract is still enable or not\n    function isEnabled() public view returns (bool) {\n        return enabledContract;\n    }\n\n    // Retrieve a project from its id\n    function getProject(uint256 _id)\n        public\n        view\n        returns (\n            address issuer,\n            address fulfiller,\n            string memory title,\n            uint256 price,\n            string memory ipfsHash,\n            ProjectStatus status,\n            bool ratingsIssuerDone,\n            bool ratingsFulfillerDone,\n            uint256[] memory ratingsIssuer,\n            uint256[] memory ratingsFulfiller\n        )\n    {\n        ProjectItem memory project = projects[_id];\n\n        // ensure that we have a project to fetch\n        if (project.issuer == address(0x0)) {\n            return (\n                address(0x0),\n                address(0x0),\n                \"\",\n                0,\n                \"\",\n                ProjectStatus.Unknown,\n                false,\n                false,\n                new uint256[](MAX_RATINGS_ISSUER),\n                new uint256[](MAX_RATINGS_FULFILLER)\n            );\n        }\n\n        return (\n            project.issuer,\n            project.fulfiller,\n            project.title,\n            project.price,\n            project.ipfsHash,\n            project.status,\n            project.ratingsIssuerDone,\n            project.ratingsFulfillerDone,\n            project.ratingsIssuer,\n            project.ratingsFulfiller\n        );\n    }\n\n    // return all projects\n    function getAllProjects() public view returns (uint256[] memory) {\n        if (projectsCounter == 0) {\n            return new uint256[](0);\n        }\n\n        // prepare output array\n        uint256[] memory projectIDs = new uint256[](projectsCounter);\n\n        // iterate over projects\n        uint256 numberOfProjects = 0;\n        for (uint256 i = 1; i <= projectsCounter; i++) {\n            // skip deleted projects\n            if (projects[i].issuer != address(0x0)) {\n                projectIDs[numberOfProjects] = projects[i].id;\n                numberOfProjects = numberOfProjects.add(1);\n            }\n        }\n\n        // copy the project ID array into a smaller array\n        uint256[] memory allProjects = new uint256[](numberOfProjects);\n        for (uint256 j = 0; j < numberOfProjects; j++) {\n            allProjects[j] = projectIDs[j];\n        }\n\n        return allProjects;\n    }\n\n    // return all published projects\n    function getPublishedProjects() public view returns (uint256[] memory) {\n        if (projectsCounter == 0) {\n            return new uint256[](0);\n        }\n\n        // prepare output array\n        uint256[] memory projectIDs = new uint256[](projectsCounter);\n\n        // iterate over projects\n        uint256 numberOfProjects = 0;\n        for (uint256 i = 1; i <= projectsCounter; i++) {\n            // get only published and active projects\n            if (\n                (projects[i].issuer != address(0x0)) &&\n                (projects[i].status == ProjectStatus.Available)\n            ) {\n                projectIDs[numberOfProjects] = projects[i].id;\n                numberOfProjects = numberOfProjects.add(1);\n            }\n        }\n\n        // copy the project ID array into a smaller array\n        uint256[] memory allProjects = new uint256[](numberOfProjects);\n        for (uint256 j = 0; j < numberOfProjects; j++) {\n            allProjects[j] = projectIDs[j];\n        }\n\n        return allProjects;\n    }\n\n    // return all projects owned by the sender\n    function getMyProjects() public view returns (uint256[] memory) {\n        if (projectsCounter == 0) {\n            return new uint256[](0);\n        }\n\n        // prepare output array\n        uint256[] memory projectIDs = new uint256[](projectsCounter);\n\n        // iterate over projects\n        uint256 numberOfProjects = 0;\n        for (uint256 i = 1; i <= projectsCounter; i++) {\n            // keep the ID of the project owned by the caller\n            if (\n                (projects[i].issuer == msg.sender) &&\n                (projects[i].status != ProjectStatus.Completed) &&\n                (projects[i].status != ProjectStatus.Canceled)\n            ) {\n                projectIDs[numberOfProjects] = projects[i].id;\n\n                numberOfProjects = numberOfProjects.add(1);\n            }\n        }\n\n        // copy the project ID array into a smaller array\n        uint256[] memory myProjects = new uint256[](numberOfProjects);\n        for (uint256 j = 0; j < numberOfProjects; j++) {\n            myProjects[j] = projectIDs[j];\n        }\n\n        return myProjects;\n    }\n\n    // return all my offers waiting for review\n    function getMyOffers() public view returns (uint256[] memory) {\n        if (projectsCounter == 0) {\n            return new uint256[](0);\n        }\n\n        // prepare output array\n        uint256[] memory projectIDs = new uint256[](projectsCounter);\n\n        // iterate over projects\n        uint256 numberOfProjects = 0;\n        for (uint256 i = 1; i <= projectsCounter; i++) {\n            // keep the ID of the project with the sender as fulfiller and the project still in review process\n            if (\n                (projects[i].fulfiller == msg.sender) &&\n                (projects[i].status == ProjectStatus.InReview)\n            ) {\n                projectIDs[numberOfProjects] = projects[i].id;\n\n                numberOfProjects = numberOfProjects.add(1);\n            }\n        }\n\n        // copy the project ID array into a smaller array\n        uint256[] memory myOffers = new uint256[](numberOfProjects);\n        for (uint256 j = 0; j < numberOfProjects; j++) {\n            myOffers[j] = projectIDs[j];\n        }\n\n        return myOffers;\n    }\n\n    // return all projects waiting for review\n    function getMyReviews() public view returns (uint256[] memory) {\n        if (projectsCounter == 0) {\n            return new uint256[](0);\n        }\n\n        // prepare output array\n        uint256[] memory projectIDs = new uint256[](projectsCounter);\n\n        // iterate over projects\n        uint256 numberOfProjects = 0;\n        for (uint256 i = 1; i <= projectsCounter; i++) {\n            // keep the ID of the project owned by the caller and the project still in review process\n            if (\n                (projects[i].issuer == msg.sender) &&\n                (projects[i].status == ProjectStatus.InReview)\n            ) {\n                projectIDs[numberOfProjects] = projects[i].id;\n\n                numberOfProjects = numberOfProjects.add(1);\n            }\n        }\n\n        // copy the project ID array into a smaller array\n        uint256[] memory myReviews = new uint256[](numberOfProjects);\n        for (uint256 j = 0; j < numberOfProjects; j++) {\n            myReviews[j] = projectIDs[j];\n        }\n\n        return myReviews;\n    }\n\n    // return all ongoing contracts\n    function getMyContracts() public view returns (uint256[] memory) {\n        if (projectsCounter == 0) {\n            return new uint256[](0);\n        }\n\n        // prepare output array\n        uint256[] memory projectIDs = new uint256[](projectsCounter);\n\n        // iterate over projects\n        uint256 numberOfProjects = 0;\n        for (uint256 i = 1; i <= projectsCounter; i++) {\n            // get only ongoing and under validation contracts owned by the issuer or the service fulfiller\n            if (\n                ((projects[i].issuer == msg.sender) ||\n                    (projects[i].fulfiller == msg.sender)) &&\n                ((projects[i].status == ProjectStatus.OnGoing) ||\n                    (projects[i].status == ProjectStatus.Validate))\n            ) {\n                projectIDs[numberOfProjects] = projects[i].id;\n                numberOfProjects = numberOfProjects.add(1);\n            }\n        }\n\n        // copy the project ID array into a smaller array\n        uint256[] memory myContracts = new uint256[](numberOfProjects);\n        for (uint256 j = 0; j < numberOfProjects; j++) {\n            myContracts[j] = projectIDs[j];\n        }\n\n        return myContracts;\n    }\n\n    // return all deliveries to review\n    function getDeliveries() public view returns (uint256[] memory) {\n        if (projectsCounter == 0) {\n            return new uint256[](0);\n        }\n\n        // prepare output array\n        uint256[] memory projectIDs = new uint256[](projectsCounter);\n\n        // iterate over projects\n        uint256 numberOfProjects = 0;\n        for (uint256 i = 1; i <= projectsCounter; i++) {\n            // get only ongoing projects issued by the issuer or the fulfiller\n            if (\n                ((projects[i].issuer == msg.sender) ||\n                    (projects[i].fulfiller == msg.sender)) &&\n                (projects[i].status == ProjectStatus.Validate)\n            ) {\n                projectIDs[numberOfProjects] = projects[i].id;\n                numberOfProjects = numberOfProjects.add(1);\n            }\n        }\n\n        // copy the project ID array into a smaller array\n        uint256[] memory myDeliveries = new uint256[](numberOfProjects);\n        for (uint256 j = 0; j < numberOfProjects; j++) {\n            myDeliveries[j] = projectIDs[j];\n        }\n\n        return myDeliveries;\n    }\n\n    // return all completed contracts\n    function getCompleted() public view returns (uint256[] memory) {\n        if (projectsCounter == 0) {\n            return new uint256[](0);\n        }\n\n        // prepare output array\n        uint256[] memory projectIDs = new uint256[](projectsCounter);\n\n        // iterate over projects\n        uint256 numberOfProjects = 0;\n        for (uint256 i = 1; i <= projectsCounter; i++) {\n            // get only ongoing projects issued by the issuer or the fulfiller\n            if (\n                ((projects[i].issuer == msg.sender) ||\n                    (projects[i].fulfiller == msg.sender)) &&\n                (projects[i].status == ProjectStatus.Completed)\n            ) {\n                projectIDs[numberOfProjects] = projects[i].id;\n                numberOfProjects = numberOfProjects.add(1);\n            }\n        }\n\n        // copy the project ID array into a smaller array\n        uint256[] memory myCompleted = new uint256[](numberOfProjects);\n        for (uint256 j = 0; j < numberOfProjects; j++) {\n            myCompleted[j] = projectIDs[j];\n        }\n\n        return myCompleted;\n    }\n\n    // return all canceled contracts\n    function getCanceled() public view returns (uint256[] memory) {\n        if (projectsCounter == 0) {\n            return new uint256[](0);\n        }\n\n        // prepare output array\n        uint256[] memory projectIDs = new uint256[](projectsCounter);\n\n        // iterate over projects\n        uint256 numberOfProjects = 0;\n        for (uint256 i = 1; i <= projectsCounter; i++) {\n            // get only ongoing projects issued by the issuer or the fulfiller\n            if (\n                ((projects[i].issuer == msg.sender) ||\n                    (projects[i].fulfiller == msg.sender)) &&\n                (projects[i].status == ProjectStatus.Canceled)\n            ) {\n                projectIDs[numberOfProjects] = projects[i].id;\n                numberOfProjects = numberOfProjects.add(1);\n            }\n        }\n\n        // copy the project ID array into a smaller array\n        uint256[] memory myCanceled = new uint256[](numberOfProjects);\n        for (uint256 j = 0; j < numberOfProjects; j++) {\n            myCanceled[j] = projectIDs[j];\n        }\n\n        return myCanceled;\n    }\n}\n",
  "sourcePath": "/Users/saideloudrhiri/Projects/ChainSkills/chainbizz/contracts/ChainBizz.sol",
  "compiler": {
    "name": "solc",
    "version": "0.5.16+commit.9c3226ce.Emscripten.clang"
  },
  "schemaVersion": "3.0.23",
  "updatedAt": "2020-03-01T16:55:29.199Z",
  "networkType": "ethereum",
  "devdoc": {
    "author": "Said Eloudrhiri (ChainSkills) - Devoxx Morocco 2019",
    "details": "This smart contract is for illustration purpose only and should not be used in the mainNet",
    "methods": {
      "disableContract()": {
        "details": "Disable the usage of the contract, change the status of all running projects and payback all issuers"
      },
      "enableContract()": {
        "details": "Enable the usage of the contract"
      }
    },
    "title": "Decentralised business platform"
  },
  "userdoc": {
    "methods": {},
    "notice": "Learn how to create a smart contract to simulate a decentralised business platform to issue and fulfill projects"
  }
}