{
  "contractName": "ChainBizz",
  "abi": [
    {
      "constant": true,
      "inputs": [
        {
          "name": "",
          "type": "uint256"
        }
      ],
      "name": "projects",
      "outputs": [
        {
          "name": "id",
          "type": "uint256"
        },
        {
          "name": "owner",
          "type": "address"
        },
        {
          "name": "provider",
          "type": "address"
        },
        {
          "name": "title",
          "type": "string"
        },
        {
          "name": "description",
          "type": "string"
        },
        {
          "name": "price",
          "type": "uint256"
        },
        {
          "name": "status",
          "type": "uint8"
        }
      ],
      "payable": false,
      "stateMutability": "view",
      "type": "function"
    },
    {
      "anonymous": false,
      "inputs": [
        {
          "indexed": false,
          "name": "id",
          "type": "uint256"
        },
        {
          "indexed": false,
          "name": "owner",
          "type": "address"
        },
        {
          "indexed": false,
          "name": "title",
          "type": "string"
        },
        {
          "indexed": false,
          "name": "price",
          "type": "uint256"
        }
      ],
      "name": "NewProject",
      "type": "event"
    },
    {
      "anonymous": false,
      "inputs": [
        {
          "indexed": false,
          "name": "id",
          "type": "uint256"
        },
        {
          "indexed": false,
          "name": "owner",
          "type": "address"
        },
        {
          "indexed": false,
          "name": "title",
          "type": "string"
        },
        {
          "indexed": false,
          "name": "price",
          "type": "uint256"
        }
      ],
      "name": "UpdateProject",
      "type": "event"
    },
    {
      "anonymous": false,
      "inputs": [
        {
          "indexed": false,
          "name": "id",
          "type": "uint256"
        },
        {
          "indexed": false,
          "name": "owner",
          "type": "address"
        },
        {
          "indexed": false,
          "name": "title",
          "type": "string"
        }
      ],
      "name": "RemoveProject",
      "type": "event"
    },
    {
      "anonymous": false,
      "inputs": [
        {
          "indexed": false,
          "name": "id",
          "type": "uint256"
        },
        {
          "indexed": false,
          "name": "owner",
          "type": "address"
        },
        {
          "indexed": false,
          "name": "title",
          "type": "string"
        },
        {
          "indexed": false,
          "name": "price",
          "type": "uint256"
        }
      ],
      "name": "PublishedProject",
      "type": "event"
    },
    {
      "anonymous": false,
      "inputs": [
        {
          "indexed": false,
          "name": "id",
          "type": "uint256"
        },
        {
          "indexed": false,
          "name": "owner",
          "type": "address"
        },
        {
          "indexed": false,
          "name": "title",
          "type": "string"
        },
        {
          "indexed": false,
          "name": "price",
          "type": "uint256"
        }
      ],
      "name": "UnpublishedProject",
      "type": "event"
    },
    {
      "anonymous": false,
      "inputs": [
        {
          "indexed": false,
          "name": "id",
          "type": "uint256"
        },
        {
          "indexed": false,
          "name": "owner",
          "type": "address"
        },
        {
          "indexed": false,
          "name": "title",
          "type": "string"
        },
        {
          "indexed": false,
          "name": "price",
          "type": "uint256"
        }
      ],
      "name": "OfferSubmitted",
      "type": "event"
    },
    {
      "anonymous": false,
      "inputs": [
        {
          "indexed": false,
          "name": "id",
          "type": "uint256"
        },
        {
          "indexed": false,
          "name": "owner",
          "type": "address"
        },
        {
          "indexed": false,
          "name": "provider",
          "type": "address"
        },
        {
          "indexed": false,
          "name": "title",
          "type": "string"
        },
        {
          "indexed": false,
          "name": "price",
          "type": "uint256"
        }
      ],
      "name": "OfferCancelled",
      "type": "event"
    },
    {
      "anonymous": false,
      "inputs": [
        {
          "indexed": false,
          "name": "id",
          "type": "uint256"
        },
        {
          "indexed": false,
          "name": "owner",
          "type": "address"
        },
        {
          "indexed": false,
          "name": "provider",
          "type": "address"
        },
        {
          "indexed": false,
          "name": "title",
          "type": "string"
        },
        {
          "indexed": false,
          "name": "price",
          "type": "uint256"
        }
      ],
      "name": "AcceptProposal",
      "type": "event"
    },
    {
      "anonymous": false,
      "inputs": [
        {
          "indexed": false,
          "name": "id",
          "type": "uint256"
        },
        {
          "indexed": false,
          "name": "owner",
          "type": "address"
        },
        {
          "indexed": false,
          "name": "provider",
          "type": "address"
        },
        {
          "indexed": false,
          "name": "title",
          "type": "string"
        },
        {
          "indexed": false,
          "name": "price",
          "type": "uint256"
        }
      ],
      "name": "RejectProposal",
      "type": "event"
    },
    {
      "anonymous": false,
      "inputs": [
        {
          "indexed": false,
          "name": "id",
          "type": "uint256"
        },
        {
          "indexed": false,
          "name": "owner",
          "type": "address"
        },
        {
          "indexed": false,
          "name": "provider",
          "type": "address"
        },
        {
          "indexed": false,
          "name": "title",
          "type": "string"
        },
        {
          "indexed": false,
          "name": "price",
          "type": "uint256"
        }
      ],
      "name": "ProjectDelivered",
      "type": "event"
    },
    {
      "anonymous": false,
      "inputs": [
        {
          "indexed": false,
          "name": "id",
          "type": "uint256"
        },
        {
          "indexed": false,
          "name": "owner",
          "type": "address"
        },
        {
          "indexed": false,
          "name": "provider",
          "type": "address"
        },
        {
          "indexed": false,
          "name": "title",
          "type": "string"
        },
        {
          "indexed": false,
          "name": "price",
          "type": "uint256"
        }
      ],
      "name": "DeliveryAccepted",
      "type": "event"
    },
    {
      "anonymous": false,
      "inputs": [
        {
          "indexed": false,
          "name": "id",
          "type": "uint256"
        },
        {
          "indexed": false,
          "name": "owner",
          "type": "address"
        },
        {
          "indexed": false,
          "name": "provider",
          "type": "address"
        },
        {
          "indexed": false,
          "name": "title",
          "type": "string"
        },
        {
          "indexed": false,
          "name": "price",
          "type": "uint256"
        }
      ],
      "name": "DeliveryRejected",
      "type": "event"
    },
    {
      "anonymous": false,
      "inputs": [
        {
          "indexed": false,
          "name": "id",
          "type": "uint256"
        },
        {
          "indexed": false,
          "name": "owner",
          "type": "address"
        },
        {
          "indexed": false,
          "name": "provider",
          "type": "address"
        },
        {
          "indexed": false,
          "name": "title",
          "type": "string"
        },
        {
          "indexed": false,
          "name": "price",
          "type": "uint256"
        }
      ],
      "name": "ProjectLeaved",
      "type": "event"
    },
    {
      "anonymous": false,
      "inputs": [
        {
          "indexed": false,
          "name": "id",
          "type": "uint256"
        },
        {
          "indexed": false,
          "name": "owner",
          "type": "address"
        },
        {
          "indexed": false,
          "name": "provider",
          "type": "address"
        },
        {
          "indexed": false,
          "name": "title",
          "type": "string"
        },
        {
          "indexed": false,
          "name": "price",
          "type": "uint256"
        }
      ],
      "name": "ServicesCancelled",
      "type": "event"
    },
    {
      "constant": false,
      "inputs": [
        {
          "name": "_title",
          "type": "string"
        },
        {
          "name": "_description",
          "type": "string"
        },
        {
          "name": "_price",
          "type": "uint256"
        }
      ],
      "name": "addProject",
      "outputs": [],
      "payable": false,
      "stateMutability": "nonpayable",
      "type": "function"
    },
    {
      "constant": false,
      "inputs": [
        {
          "name": "_id",
          "type": "uint256"
        },
        {
          "name": "_title",
          "type": "string"
        },
        {
          "name": "_description",
          "type": "string"
        },
        {
          "name": "_price",
          "type": "uint256"
        }
      ],
      "name": "updateProject",
      "outputs": [],
      "payable": false,
      "stateMutability": "nonpayable",
      "type": "function"
    },
    {
      "constant": false,
      "inputs": [
        {
          "name": "_id",
          "type": "uint256"
        }
      ],
      "name": "removeProject",
      "outputs": [],
      "payable": false,
      "stateMutability": "nonpayable",
      "type": "function"
    },
    {
      "constant": false,
      "inputs": [
        {
          "name": "_id",
          "type": "uint256"
        }
      ],
      "name": "publishProject",
      "outputs": [],
      "payable": false,
      "stateMutability": "nonpayable",
      "type": "function"
    },
    {
      "constant": false,
      "inputs": [
        {
          "name": "_id",
          "type": "uint256"
        }
      ],
      "name": "unpublishProject",
      "outputs": [],
      "payable": false,
      "stateMutability": "nonpayable",
      "type": "function"
    },
    {
      "constant": false,
      "inputs": [
        {
          "name": "_id",
          "type": "uint256"
        }
      ],
      "name": "submitOffer",
      "outputs": [],
      "payable": false,
      "stateMutability": "nonpayable",
      "type": "function"
    },
    {
      "constant": false,
      "inputs": [
        {
          "name": "_id",
          "type": "uint256"
        }
      ],
      "name": "cancelOffer",
      "outputs": [],
      "payable": false,
      "stateMutability": "nonpayable",
      "type": "function"
    },
    {
      "constant": false,
      "inputs": [
        {
          "name": "_id",
          "type": "uint256"
        }
      ],
      "name": "acceptProposal",
      "outputs": [],
      "payable": false,
      "stateMutability": "nonpayable",
      "type": "function"
    },
    {
      "constant": false,
      "inputs": [
        {
          "name": "_id",
          "type": "uint256"
        }
      ],
      "name": "rejectProposal",
      "outputs": [],
      "payable": false,
      "stateMutability": "nonpayable",
      "type": "function"
    },
    {
      "constant": false,
      "inputs": [
        {
          "name": "_id",
          "type": "uint256"
        }
      ],
      "name": "deliverProject",
      "outputs": [],
      "payable": false,
      "stateMutability": "nonpayable",
      "type": "function"
    },
    {
      "constant": false,
      "inputs": [
        {
          "name": "_id",
          "type": "uint256"
        }
      ],
      "name": "acceptDelivery",
      "outputs": [],
      "payable": false,
      "stateMutability": "nonpayable",
      "type": "function"
    },
    {
      "constant": false,
      "inputs": [
        {
          "name": "_id",
          "type": "uint256"
        }
      ],
      "name": "rejectDelivery",
      "outputs": [],
      "payable": false,
      "stateMutability": "nonpayable",
      "type": "function"
    },
    {
      "constant": false,
      "inputs": [
        {
          "name": "_id",
          "type": "uint256"
        }
      ],
      "name": "leaveProject",
      "outputs": [],
      "payable": false,
      "stateMutability": "nonpayable",
      "type": "function"
    },
    {
      "constant": false,
      "inputs": [
        {
          "name": "_id",
          "type": "uint256"
        }
      ],
      "name": "cancelServices",
      "outputs": [],
      "payable": false,
      "stateMutability": "nonpayable",
      "type": "function"
    },
    {
      "constant": true,
      "inputs": [
        {
          "name": "_id",
          "type": "uint256"
        }
      ],
      "name": "getProject",
      "outputs": [
        {
          "name": "owner",
          "type": "address"
        },
        {
          "name": "provider",
          "type": "address"
        },
        {
          "name": "title",
          "type": "string"
        },
        {
          "name": "description",
          "type": "string"
        },
        {
          "name": "price",
          "type": "uint256"
        },
        {
          "name": "status",
          "type": "uint8"
        }
      ],
      "payable": false,
      "stateMutability": "view",
      "type": "function"
    },
    {
      "constant": true,
      "inputs": [],
      "name": "getAllProjects",
      "outputs": [
        {
          "name": "",
          "type": "uint256[]"
        }
      ],
      "payable": false,
      "stateMutability": "view",
      "type": "function"
    },
    {
      "constant": true,
      "inputs": [],
      "name": "getPublishedProjects",
      "outputs": [
        {
          "name": "",
          "type": "uint256[]"
        }
      ],
      "payable": false,
      "stateMutability": "view",
      "type": "function"
    },
    {
      "constant": true,
      "inputs": [],
      "name": "getMyProjects",
      "outputs": [
        {
          "name": "",
          "type": "uint256[]"
        }
      ],
      "payable": false,
      "stateMutability": "view",
      "type": "function"
    },
    {
      "constant": true,
      "inputs": [],
      "name": "getMyOffers",
      "outputs": [
        {
          "name": "",
          "type": "uint256[]"
        }
      ],
      "payable": false,
      "stateMutability": "view",
      "type": "function"
    },
    {
      "constant": true,
      "inputs": [],
      "name": "getMyReviews",
      "outputs": [
        {
          "name": "",
          "type": "uint256[]"
        }
      ],
      "payable": false,
      "stateMutability": "view",
      "type": "function"
    },
    {
      "constant": true,
      "inputs": [],
      "name": "getMyContracts",
      "outputs": [
        {
          "name": "",
          "type": "uint256[]"
        }
      ],
      "payable": false,
      "stateMutability": "view",
      "type": "function"
    }
  ],
  "bytecode": "0x608060405234801561001057600080fd5b506130e5806100206000396000f3fe608060405234801561001057600080fd5b50600436106101425760003560e01c80637b422c4c116100b8578063c81bde151161007c578063c81bde1514610680578063e4f655b014610688578063ef1b655314610690578063ef706adf14610698578063f0f3f2c8146106b5578063f7f2ccbf146107e657610142565b80637b422c4c146104ef57806380d038291461050c578063a7fa01a714610514578063b85a72d214610646578063bc28d8781461066357610142565b80635873f9981161010a5780635873f998146103335780635fd4f7581461035057806360c5cc3a1461047b578063629a064e1461049857806364a4277a146104b55780636f65c717146104d257610142565b8063037852c7146101475780630850cd1e1461019f578063107046bd146101be578063267a39971461030e5780634beb7e941461032b575b600080fd5b61014f610803565b60408051602080825283518183015283519192839290830191858101910280838360005b8381101561018b578181015183820152602001610173565b505050509050019250505060405180910390f35b6101bc600480360360208110156101b557600080fd5b5035610971565b005b6101db600480360360208110156101d457600080fd5b5035610b32565b60405180888152602001876001600160a01b03166001600160a01b03168152602001866001600160a01b03166001600160a01b03168152602001806020018060200185815260200184600781111561022f57fe5b60ff168152602001838103835287818151815260200191508051906020019080838360005b8381101561026c578181015183820152602001610254565b50505050905090810190601f1680156102995780820380516001836020036101000a031916815260200191505b50838103825286518152865160209182019188019080838360005b838110156102cc5781810151838201526020016102b4565b50505050905090810190601f1680156102f95780820380516001836020036101000a031916815260200191505b50995050505050505050505060405180910390f35b6101bc6004803603602081101561032457600080fd5b5035610c91565b61014f610e9d565b6101bc6004803603602081101561034957600080fd5b5035610ffe565b6101bc6004803603606081101561036657600080fd5b810190602081018135600160201b81111561038057600080fd5b82018360208201111561039257600080fd5b803590602001918460018302840111600160201b831117156103b357600080fd5b91908080601f0160208091040260200160405190810160405280939291908181526020018383808284376000920191909152509295949360208101935035915050600160201b81111561040557600080fd5b82018360208201111561041757600080fd5b803590602001918460018302840111600160201b8311171561043857600080fd5b91908080601f0160208091040260200160405190810160405280939291908181526020018383808284376000920191909152509295505091359250611388915050565b6101bc6004803603602081101561049157600080fd5b50356115fa565b6101bc600480360360208110156104ae57600080fd5b50356117d4565b6101bc600480360360208110156104cb57600080fd5b5035611985565b6101bc600480360360208110156104e857600080fd5b5035611b0a565b6101bc6004803603602081101561050557600080fd5b5035611c57565b61014f611ddf565b6101bc6004803603608081101561052a57600080fd5b81359190810190604081016020820135600160201b81111561054b57600080fd5b82018360208201111561055d57600080fd5b803590602001918460018302840111600160201b8311171561057e57600080fd5b91908080601f0160208091040260200160405190810160405280939291908181526020018383808284376000920191909152509295949360208101935035915050600160201b8111156105d057600080fd5b8201836020820111156105e257600080fd5b803590602001918460018302840111600160201b8311171561060357600080fd5b91908080601f0160208091040260200160405190810160405280939291908181526020018383808284376000920191909152509295505091359250611f13915050565b6101bc6004803603602081101561065c57600080fd5b503561218f565b6101bc6004803603602081101561067957600080fd5b503561232d565b61014f6124e1565b61014f612666565b61014f61279c565b6101bc600480360360208110156106ae57600080fd5b50356128fd565b6106d2600480360360208110156106cb57600080fd5b5035612ac7565b604080516001600160a01b03808916825287166020820152608081018490529081016060820160a0830184600781111561070857fe5b60ff168152602001838103835287818151815260200191508051906020019080838360005b8381101561074557818101518382015260200161072d565b50505050905090810190601f1680156107725780820380516001836020036101000a031916815260200191505b50838103825286518152865160209182019188019080838360005b838110156107a557818101518382015260200161078d565b50505050905090810190601f1680156107d25780820380516001836020036101000a031916815260200191505b509850505050505050505060405180910390f35b6101bc600480360360208110156107fc57600080fd5b5035612cee565b60606001546000141561082a5760408051600080825260208201909252905b50905061096e565b6060600154604051908082528060200260200182016040528015610858578160200160208202803883390190505b509050600060015b60015481116108fa576000818152602081905260409020600201546001600160a01b0316331480156108b15750600260008281526020819052604090206006015460ff1660078111156108af57fe5b145b156108f25760008181526020819052604090205483518490849081106108d357fe5b60209081029190910101526108ef82600163ffffffff612eb816565b91505b600101610860565b50606081604051908082528060200260200182016040528015610927578160200160208202803883390190505b50905060005b828110156109685783818151811061094157fe5b602002602001015182828151811061095557fe5b602090810291909101015260010161092d565b50925050505b90565b600081815260208190526040902060018101546001600160a01b03166109975750610b2f565b60018101546001600160a01b031633146109e557604051600160e51b62461bcd0281526004018080602001828103825260258152602001806130956025913960400191505060405180910390fd5b6001600682015460ff1660078111156109fa57fe5b14610a4f5760408051600160e51b62461bcd02815260206004820152601560248201527f43616e6e6f7420626520756e7075626c69736865640000000000000000000000604482015290519081900360640190fd5b60068101805460ff191690556005810154604080518481523360208201819052606082018490526080928201838152600386018054600260018216156101000260001901909116049484018590527f3525d4593ef70f97d7b99dfeab0e0be748aeb51f464f83bf0bbf5ab6badb45c89588959394919390929060a083019085908015610b1c5780601f10610af157610100808354040283529160200191610b1c565b820191906000526020600020905b815481529060010190602001808311610aff57829003601f168201915b50509550505050505060405180910390a1505b50565b60006020818152918152604090819020805460018083015460028085015460038601805488516101009682161596909602600019011692909204601f810189900489028501890190975286845293966001600160a01b0392831696929094169493909190830182828015610be75780601f10610bbc57610100808354040283529160200191610be7565b820191906000526020600020905b815481529060010190602001808311610bca57829003601f168201915b5050505060048301805460408051602060026001851615610100026000190190941693909304601f8101849004840282018401909252818152949594935090830182828015610c775780601f10610c4c57610100808354040283529160200191610c77565b820191906000526020600020905b815481529060010190602001808311610c5a57829003601f168201915b50505050600583015460069093015491929160ff16905087565b600081815260208190526040902060018101546001600160a01b0316610cb75750610b2f565b60028101546001600160a01b03163314610d1b5760408051600160e51b62461bcd02815260206004820181905260248201527f596f7520617265206e6f742074686520736572766963652070726f7669646572604482015290519081900360640190fd5b6003600682015460ff166007811115610d3057fe5b14610d855760408051600160e51b62461bcd02815260206004820152601760248201527f50726f6a656374206e6f7420696e2070726f6772657373000000000000000000604482015290519081900360640190fd5b6002818101805460068401805460ff191660019081179091556001600160a01b0319821690925560058401546040805187815233602082018190526001600160a01b039094169181018290526080810183905260a0606082018181526003890180546101009881161598909802600019019097169790970490820181905291957f4ecc930667d99ccea5750e5aeedca52dd10176e968803c48a1114f10b01fdc6c95899594889491939092909160c083019085908015610e865780601f10610e5b57610100808354040283529160200191610e86565b820191906000526020600020905b815481529060010190602001808311610e6957829003601f168201915b5050965050505050505060405180910390a1505050565b606060015460001415610ec0576040805160008082526020820190925290610822565b6060600154604051908082528060200260200182016040528015610eee578160200160208202803883390190505b509050600060015b6001548111610f90576000818152602081905260409020600101546001600160a01b031615801590610f475750600160008281526020819052604090206006015460ff166007811115610f4557fe5b145b15610f88576000818152602081905260409020548351849084908110610f6957fe5b6020908102919091010152610f8582600163ffffffff612eb816565b91505b600101610ef6565b50606081604051908082528060200260200182016040528015610fbd578160200160208202803883390190505b50905060005b8281101561096857838181518110610fd757fe5b6020026020010151828281518110610feb57fe5b6020908102919091010152600101610fc3565b611006612f1c565b60008281526020818152604091829020825160e081018452815481526001808301546001600160a01b03908116838601526002808501549091168387015260038401805487516101009482161594909402600019011691909104601f8101869004860283018601909652858252919492936060860193919291908301828280156110d15780601f106110a6576101008083540402835291602001916110d1565b820191906000526020600020905b8154815290600101906020018083116110b457829003601f168201915b505050918352505060048201805460408051602060026001851615610100026000190190941693909304601f81018490048402820184019092528181529382019392918301828280156111655780601f1061113a57610100808354040283529160200191611165565b820191906000526020600020905b81548152906001019060200180831161114857829003601f168201915b505050918352505060058201546020820152600682015460409091019060ff16600781111561119057fe5b600781111561119b57fe5b90525060208101519091506001600160a01b03166111b95750610b2f565b60208101516001600160a01b0316331461120757604051600160e51b62461bcd0281526004018080602001828103825260258152602001806130956025913960400191505060405180910390fd5b60008160c00151600781111561121957fe5b1461125857604051600160e51b62461bcd0281526004018080602001828103825260218152602001806130536021913960400191505060405180910390fd5b606081015160008381526020819052604081208181556001810180546001600160a01b031990811690915560028201805490911690559061129c6003830182612f55565b6112aa600483016000612f55565b60058201600090556006820160006101000a81549060ff021916905550507f0bac8d70ddda9ec612d317fa2968f6f746b59169d04a223ec870eb6447a7c7f483338360405180848152602001836001600160a01b03166001600160a01b0316815260200180602001828103825283818151815260200191508051906020019080838360005b8381101561134757818101518382015260200161132f565b50505050905090810190601f1680156113745780820380516001836020036101000a031916815260200191505b5094505050505060405180910390a1505050565b825183906113e05760408051600160e51b62461bcd02815260206004820152601360248201527f41207469746c6520697320726571756972656400000000000000000000000000604482015290519081900360640190fd5b825183906114385760408051600160e51b62461bcd02815260206004820152601960248201527f41206465736372697074696f6e20697320726571756972656400000000000000604482015290519081900360640190fd5b6001805461144b9163ffffffff612eb816565b60018181556040805160e0810182528381523360208083019182526000838501818152606085018d8152608086018d905260a086018c905260c0860183905297825281835294902083518155915194820180546001600160a01b039687166001600160a01b031991821617909155935160028301805491909616941693909317909355925180516114e29260038501920190612f99565b50608082015180516114fe916004840191602090910190612f99565b5060a0820151600582015560c082015160068201805460ff1916600183600781111561152657fe5b02179055509050507fc8e7a8f4fbf568a726fe7b162d56bb8a313fa7ec7f274c6390969cb322a0f79460015433878660405180858152602001846001600160a01b03166001600160a01b0316815260200180602001838152602001828103825284818151815260200191508051906020019080838360005b838110156115b657818101518382015260200161159e565b50505050905090810190601f1680156115e35780820380516001836020036101000a031916815260200191505b509550505050505060405180910390a15050505050565b600081815260208190526040902060018101546001600160a01b03166116205750610b2f565b60018101546001600160a01b0316331461166e57604051600160e51b62461bcd0281526004018080602001828103825260258152602001806130956025913960400191505060405180910390fd5b6002600682015460ff16600781111561168357fe5b146116d85760408051600160e51b62461bcd02815260206004820152601660248201527f50726f706f73616c206e6f7420696e2072657669657700000000000000000000604482015290519081900360640190fd5b60068101805460ff1916600390811790915560028083015460058401546040805187815233602082018190526001600160a01b039094169181018290526080810183905260a06060820181815296880180546101006001821615026000190116969096049082018190527fd0ca6107f6c9513954ca859c885b1e8b434687b6cf5e40625574d53dda8422ed9689969394929160c0830190859080156117be5780601f10611793576101008083540402835291602001916117be565b820191906000526020600020905b8154815290600101906020018083116117a157829003601f168201915b5050965050505050505060405180910390a15050565b600081815260208190526040902060018101546001600160a01b03166117fa5750610b2f565b60028101546001600160a01b0316331461185e5760408051600160e51b62461bcd02815260206004820181905260248201527f596f7520617265206e6f742074686520736572766963652070726f7669646572604482015290519081900360640190fd5b6003600682015460ff16600781111561187357fe5b146118c85760408051600160e51b62461bcd02815260206004820152601760248201527f50726f6a656374206e6f7420696e2070726f6772657373000000000000000000604482015290519081900360640190fd5b60068101805460ff1916600417905560028082015460058301546040805186815233602082018190526001600160a01b039094169181018290526080810183905260a0606082018181526003880180546101006001821615026000190116979097049183018290527f2c29e86efe7dba61218108fc48fc467f0b2d89a5dd6741ff0df4b17bdf5cab68968996959093909290919060c0830190859080156117be5780601f10611793576101008083540402835291602001916117be565b600081815260208190526040902060018101546001600160a01b03166119ab5750610b2f565b60018101546001600160a01b031633146119f957604051600160e51b62461bcd0281526004018080602001828103825260258152602001806130956025913960400191505060405180910390fd5b6000600682015460ff166007811115611a0e57fe5b14611a635760408051600160e51b62461bcd02815260206004820152601360248201527f43616e6e6f74206265207075626c697368656400000000000000000000000000604482015290519081900360640190fd5b60068101805460ff191660019081179091556005820154604080518581523360208201819052606082018490526080928201838152600387018054600297811615610100026000190116969096049383018490527f8312e76cb9523ff197151c20e9aa91aab65c750674f5a0f6df91434fc153adc995889592949093919060a083019085908015610b1c5780601f10610af157610100808354040283529160200191610b1c565b600081815260208190526040902060018101546001600160a01b0316611b305750610b2f565b6001600682015460ff166007811115611b4557fe5b14611b9a5760408051600160e51b62461bcd02815260206004820152601960248201527f50726f6a656374206e6f206d6f726520617661696c61626c6500000000000000604482015290519081900360640190fd5b600280820180546001600160a01b0319163317905560068201805460ff191660018302179055506005810154604080518481523360208201819052606082018490526080928201838152600386018054600260001961010060018416150201909116049484018590527f79af99d8f87b40930ee58bf8914b0366fb392a8cd22c3705f2b9a30e2fae31e09588959394919390929060a083019085908015610b1c5780601f10610af157610100808354040283529160200191610b1c565b600081815260208190526040902060018101546001600160a01b0316611c7d5750610b2f565b60018101546001600160a01b03163314611ccb57604051600160e51b62461bcd0281526004018080602001828103825260258152602001806130956025913960400191505060405180910390fd5b6004600682015460ff166007811115611ce057fe5b14611d1f57604051600160e51b62461bcd0281526004018080602001828103825260218152602001806130746021913960400191505060405180910390fd5b60068101805460ff19166005908117909155600280830154918301546040805186815233602082018190526001600160a01b039095169181018290526080810183905260a0606082018181526003880180546101006001821615026000190116969096049183018290527f72a87e41eb71c3d97ada3d99bed7a092d856bcdc4f034ef117099e051038cd7a96899690959093909290919060c0830190859080156117be5780601f10611793576101008083540402835291602001916117be565b606060015460001415611e02576040805160008082526020820190925290610822565b6060600154604051908082528060200260200182016040528015611e30578160200160208202803883390190505b509050600060015b6001548111611ea5576000818152602081905260409020600101546001600160a01b031615611e9d576000818152602081905260409020548351849084908110611e7e57fe5b6020908102919091010152611e9a82600163ffffffff612eb816565b91505b600101611e38565b50606081604051908082528060200260200182016040528015611ed2578160200160208202803883390190505b50905060005b8281101561096857838181518110611eec57fe5b6020026020010151828281518110611f0057fe5b6020908102919091010152600101611ed8565b600084815260208190526040902060018101546001600160a01b0316611f395750612189565b60018101546001600160a01b03163314611f8757604051600160e51b62461bcd0281526004018080602001828103825260258152602001806130956025913960400191505060405180910390fd5b6000600682015460ff166007811115611f9c57fe5b14611fdb57604051600160e51b62461bcd0281526004018080602001828103825260218152602001806130326021913960400191505060405180910390fd5b835184906120335760408051600160e51b62461bcd02815260206004820152601360248201527f41207469746c6520697320726571756972656400000000000000000000000000604482015290519081900360640190fd5b8351849061208b5760408051600160e51b62461bcd02815260206004820152601960248201527f41206465736372697074696f6e20697320726571756972656400000000000000604482015290519081900360640190fd5b85516120a09060038501906020890190612f99565b5084516120b69060048501906020880190612f99565b508383600501819055507f78ec34897e7f5ea3506eaaa6dcf2edc5ea8eea1c579f1f3d158e55233c602e6960015433888760405180858152602001846001600160a01b03166001600160a01b0316815260200180602001838152602001828103825284818151815260200191508051906020019080838360005b83811015612148578181015183820152602001612130565b50505050905090810190601f1680156121755780820380516001836020036101000a031916815260200191505b509550505050505060405180910390a15050505b50505050565b600081815260208190526040902060018101546001600160a01b03166121b55750610b2f565b60018101546001600160a01b0316331461220357604051600160e51b62461bcd0281526004018080602001828103825260258152602001806130956025913960400191505060405180910390fd5b6004600682015460ff16600781111561221857fe5b1461225757604051600160e51b62461bcd0281526004018080602001828103825260218152602001806130746021913960400191505060405180910390fd5b6002818101805460068401805460ff191660019081179091556001600160a01b0319821690925560058401546040805187815233602082018190526001600160a01b039094169181018290526080810183905260a0606082018181526003890180546101009881161598909802600019019097169790970490820181905291957f45db355d424e661e8b7ea210fd36cd8224f4955611152ce93518a27f205467e495899594889491939092909160c083019085908015610e865780601f10610e5b57610100808354040283529160200191610e86565b600081815260208190526040902060018101546001600160a01b03166123535750610b2f565b60018101546001600160a01b031633146123a157604051600160e51b62461bcd0281526004018080602001828103825260258152602001806130956025913960400191505060405180910390fd5b6002600682015460ff1660078111156123b657fe5b1461240b5760408051600160e51b62461bcd02815260206004820152601660248201527f50726f706f73616c206e6f7420696e2072657669657700000000000000000000604482015290519081900360640190fd5b6002818101805460068401805460ff191660019081179091556001600160a01b0319821690925560058401546040805187815233602082018190526001600160a01b039094169181018290526080810183905260a0606082018181526003890180546101009881161598909802600019019097169790970490820181905291957f4c596893f217ff7756c8fc77bea24399406130928fc25e6ace71d6121fd2643f95899594889491939092909160c083019085908015610e865780601f10610e5b57610100808354040283529160200191610e86565b606060015460001415612504576040805160008082526020820190925290610822565b6060600154604051908082528060200260200182016040528015612532578160200160208202803883390190505b509050600060015b60015481116125f8576000818152602081905260409020600101546001600160a01b031633148061258457506000818152602081905260409020600201546001600160a01b031633145b80156125af5750600360008281526020819052604090206006015460ff1660078111156125ad57fe5b145b156125f05760008181526020819052604090205483518490849081106125d157fe5b60209081029190910101526125ed82600163ffffffff612eb816565b91505b60010161253a565b50606081604051908082528060200260200182016040528015612625578160200160208202803883390190505b50905060005b828110156109685783818151811061263f57fe5b602002602001015182828151811061265357fe5b602090810291909101015260010161262b565b606060015460001415612689576040805160008082526020820190925290610822565b60606001546040519080825280602002602001820160405280156126b7578160200160208202803883390190505b509050600060015b600154811161272e576000818152602081905260409020600101546001600160a01b031633141561272657600081815260208190526040902054835184908490811061270757fe5b602090810291909101015261272382600163ffffffff612eb816565b91505b6001016126bf565b5060608160405190808252806020026020018201604052801561275b578160200160208202803883390190505b50905060005b828110156109685783818151811061277557fe5b602002602001015182828151811061278957fe5b6020908102919091010152600101612761565b6060600154600014156127bf576040805160008082526020820190925290610822565b60606001546040519080825280602002602001820160405280156127ed578160200160208202803883390190505b509050600060015b600154811161288f576000818152602081905260409020600101546001600160a01b0316331480156128465750600260008281526020819052604090206006015460ff16600781111561284457fe5b145b1561288757600081815260208190526040902054835184908490811061286857fe5b602090810291909101015261288482600163ffffffff612eb816565b91505b6001016127f5565b506060816040519080825280602002602001820160405280156128bc578160200160208202803883390190505b50905060005b82811015610968578381815181106128d657fe5b60200260200101518282815181106128ea57fe5b60209081029190910101526001016128c2565b600081815260208190526040902060018101546001600160a01b03166129235750610b2f565b60028101546001600160a01b031633146129875760408051600160e51b62461bcd02815260206004820181905260248201527f596f7520617265206e6f742074686520736572766963652070726f7669646572604482015290519081900360640190fd5b6002600682015460ff16600781111561299c57fe5b146129f15760408051600160e51b62461bcd02815260206004820152601660248201527f50726f706f73616c206e6f7420696e2072657669657700000000000000000000604482015290519081900360640190fd5b6002818101805460068401805460ff191660019081179091556001600160a01b0319821690925560058401546040805187815233602082018190526001600160a01b039094169181018290526080810183905260a0606082018181526003890180546101009881161598909802600019019097169790970490820181905291957f78a50b976d392dc292f12805e95fe0f6835d2adba9ff593aba1702d4b179b8f795899594889491939092909160c083019085908015610e865780601f10610e5b57610100808354040283529160200191610e86565b600080606080600080612ad8612f1c565b60008881526020818152604091829020825160e081018452815481526001808301546001600160a01b03908116838601526002808501549091168387015260038401805487516101009482161594909402600019011691909104601f810186900486028301860190965285825291949293606086019391929190830182828015612ba35780601f10612b7857610100808354040283529160200191612ba3565b820191906000526020600020905b815481529060010190602001808311612b8657829003601f168201915b505050918352505060048201805460408051602060026001851615610100026000190190941693909304601f8101849004840282018401909252818152938201939291830182828015612c375780601f10612c0c57610100808354040283529160200191612c37565b820191906000526020600020905b815481529060010190602001808311612c1a57829003601f168201915b505050918352505060058201546020820152600682015460409091019060ff166007811115612c6257fe5b6007811115612c6d57fe5b90525060208101519091506001600160a01b0316612cb6575050604080516020808201835260008083528351918201909352828152919650869550935091508390506007612ce5565b602081015160408201516060830151608084015160a085015160c090950151939a509198509650945090925090505b91939550919395565b600081815260208190526040902060018101546001600160a01b0316612d145750610b2f565b60018101546001600160a01b03163314612d785760408051600160e51b62461bcd02815260206004820152601f60248201527f596f7520617265206e6f74207468652070726f6a6563742773206f776e657200604482015290519081900360640190fd5b6003600682015460ff166007811115612d8d57fe5b14612de25760408051600160e51b62461bcd02815260206004820152601760248201527f50726f6a656374206e6f7420696e2070726f6772657373000000000000000000604482015290519081900360640190fd5b6002818101805460068401805460ff191660019081179091556001600160a01b0319821690925560058401546040805187815233602082018190526001600160a01b039094169181018290526080810183905260a0606082018181526003890180546101009881161598909802600019019097169790970490820181905291957fedd31b82626c4b504580eae0d067d064d264a97b8a7954e1619807de26ee352595899594889491939092909160c083019085908015610e865780601f10610e5b57610100808354040283529160200191610e86565b600082820183811015612f155760408051600160e51b62461bcd02815260206004820152601b60248201527f536166654d6174683a206164646974696f6e206f766572666c6f770000000000604482015290519081900360640190fd5b9392505050565b6040805160e0810182526000808252602082018190529181018290526060808201819052608082015260a081018290529060c082015290565b50805460018160011615610100020316600290046000825580601f10612f7b5750610b2f565b601f016020900490600052602060002090810190610b2f9190613017565b828054600181600116156101000203166002900490600052602060002090601f016020900481019282601f10612fda57805160ff1916838001178555613007565b82800160010185558215613007579182015b82811115613007578251825591602001919060010190612fec565b50613013929150613017565b5090565b61096e91905b80821115613013576000815560010161301d56fe43616e6e6f742062652075706461746564207768696c65207075626c697368656443616e6e6f742062652072656d6f766564207768696c65207075626c697368656450726f6a656374206e6f7420696e2076616c69646174696f6e2070726f63657373596f7520617265206e6f7420746865206f776e6572206f6620746869732070726f6a656374a165627a7a72305820d5bcc527d8eaeac21a8b3a9cccd9aac91f0060f30de5e85e32e10b53f0de371a0029",
  "source": "pragma solidity >=0.4.21 <0.6.0;\n\nimport 'openzeppelin-solidity/contracts/math/SafeMath.sol';\n\n// @title Decentralised business platform\ncontract ChainBizz {\n  //\n  // OpenZeppelin specifics\n  //\n  using SafeMath for uint256;\n\n  // Defines the status of the project\n  enum ProjectStatus {\n    Draft,\n    Available, \n    InReview,\n    OnGoing, \n    Validate,\n    Completed,\n    Canceled,\n    Unknown\n  }\n\n  //\n  // State variables\n  //\n\n  // Description of a project\n  struct ProjectItem {\n    uint256 id;               // unique ID\n    address owner;\n    address provider;             \n    string title;\n    string description;\n    uint256 price;            // price in Wei\n    ProjectStatus status;      \n  }\n\n  // List of projects\n  mapping(uint256 => ProjectItem) public projects;\n\n  // Number of registered projects\n  uint256 projectsCounter;\n  \n  //\n  // Events\n  //\n  event NewProject(uint256 id, address owner, string title, uint256 price);\n  event UpdateProject(uint256 id, address owner, string title, uint256 price);\n  event RemoveProject(uint256 id, address owner, string title);\n  event PublishedProject(uint256 id, address owner, string title, uint256 price);\n  event UnpublishedProject(uint256 id, address owner, string title, uint256 price);\n  event OfferSubmitted(uint256 id, address owner, string title, uint256 price);\n  event OfferCancelled(uint256 id, address owner, address provider, string title, uint256 price);\n  event AcceptProposal(uint256 id, address owner, address provider, string title, uint256 price);\n  event RejectProposal(uint256 id, address owner, address provider, string title, uint256 price);\n  event ProjectDelivered(uint256 id, address owner, address provider, string title, uint256 price);\n  event DeliveryAccepted(uint256 id, address owner, address provider, string title, uint256 price);\n  event DeliveryRejected(uint256 id, address owner, address provider, string title, uint256 price);\n  event ProjectLeaved(uint256 id, address owner, address provider, string title, uint256 price);\n  event ServicesCancelled(uint256 id, address owner, address provider, string title, uint256 price);\n\n  //\n  // Implementation\n  //\n\n\n  //\n  // Setters\n  //\n  \n  // Add a new project\n  function addProject(string memory _title, string memory _description, uint256 _price) public {\n    \n    // a title is required\n    bytes memory title = bytes(_title);\n    require(title.length > 0, \"A title is required\");\n\n    // a description is required\n    bytes memory description = bytes(_description);\n    require(description.length > 0, \"A description is required\");\n\n    // new project\n    projectsCounter = projectsCounter.add(1);\n\n    // store the new project\n    projects[projectsCounter] = ProjectItem(projectsCounter, msg.sender, address(0x0), _title,  _description, _price, ProjectStatus.Draft);\n\n    emit NewProject(projectsCounter, msg.sender, _title, _price);\n  }\n\n  // Update an unpublished project\n  function updateProject(uint256 _id, string memory _title, string memory _description, uint256 _price) public {\n    \n    // retrieve the project\n    ProjectItem storage project = projects[_id];\n\n    // ensure that this project exists\n    if (project.owner == address(0x0)) {\n      return;\n    }\n \n    // do we own this project?\n    require(project.owner == msg.sender, \"You are not the owner of this project\");\n\n    // ready to be published?\n    require(project.status == ProjectStatus.Draft, \"Cannot be updated while published\");\n\n    // a title is required\n    bytes memory title = bytes(_title);\n    require(title.length > 0, \"A title is required\");\n\n    // a description is required\n    bytes memory description = bytes(_description);\n    require(description.length > 0, \"A description is required\");\n\n    // update the project\n    project.title = _title;\n    project.description = _description;\n    project.price = _price;\n\n    emit UpdateProject(projectsCounter, msg.sender, _title, _price);\n  }\n\n  // Remove an unpublished project\n  function removeProject(uint256 _id) public {\n    \n    // retrieve the project\n    ProjectItem memory project = projects[_id];\n\n    // ensure that this project exists\n    if (project.owner == address(0x0)) {\n      return;\n    }\n \n    // do we own this project?\n    require(project.owner == msg.sender, \"You are not the owner of this project\");\n\n    // ready to be removed?\n    require(project.status == ProjectStatus.Draft, \"Cannot be removed while published\");\n\n    // keep title for future use\n    string memory title = project.title;\n\n    // remove the project\n    delete projects[_id];\n\n    emit RemoveProject(_id, msg.sender, title);\n  }\n\n  // Publish the project to seek for providers\n  function publishProject(uint256 _id) public {\n    \n    // retrieve the project\n    ProjectItem storage project = projects[_id];\n\n    // ensure that this project exists\n    if (project.owner == address(0x0)) {\n      return;\n    }\n \n    // do we own this project?\n    require(project.owner == msg.sender, \"You are not the owner of this project\");\n\n    // ready to be published?\n    require(project.status == ProjectStatus.Draft, \"Cannot be published\");\n\n    // publish the project to be available for services\n    project.status = ProjectStatus.Available;\n\n    emit PublishedProject(_id, msg.sender, project.title, project.price);\n  }\n\n  // Unpublish the project\n  // A project can be unpublished ONLY if it's already published and not already part of a contract \n  function unpublishProject(uint256 _id) public {\n    \n    // retrieve the project\n    ProjectItem storage project = projects[_id];\n\n    // ensure that this project exists\n    if (project.owner == address(0x0)) {\n      return;\n    }\n \n    // do we own this project?\n    require(project.owner == msg.sender, \"You are not the owner of this project\");\n\n    // ready to be unpublished?\n    require(project.status == ProjectStatus.Available, \"Cannot be unpublished\");\n\n    // unpublish the project\n    project.status = ProjectStatus.Draft;\n\n    emit UnpublishedProject(_id, msg.sender, project.title, project.price);\n  }\n\n  // Offer services for the project\n  // A provider offers his/her services to perform the project \n  function submitOffer(uint256 _id) public {\n    \n    // retrieve the project\n    ProjectItem storage project = projects[_id];\n\n    // ensure that this project exists\n    if (project.owner == address(0x0)) {\n      return;\n    }\n \n    // is the project available?\n    require(project.status == ProjectStatus.Available, \"Project no more available\");\n\n    // store the address of the provider\n    project.provider = msg.sender;\n\n    // project is under review\n    project.status = ProjectStatus.InReview;\n\n    emit OfferSubmitted(_id, msg.sender, project.title, project.price);\n  }\n\n  // Cancel offer made by the provider\n  // A provider cancels his/her offer to perform the project \n  function cancelOffer(uint256 _id) public {\n    \n    // retrieve the project\n    ProjectItem storage project = projects[_id];\n\n    // ensure that this project exists\n    if (project.owner == address(0x0)) {\n      return;\n    }\n \n     // are we the service provider?\n    require(project.provider == msg.sender, \"You are not the service provider\");\n\n    // is the project in review?\n    require(project.status == ProjectStatus.InReview , \"Proposal not in review\");\n\n    // project is now available\n    address provider = project.provider;\n    project.status = ProjectStatus.Available;\n    project.provider = address(0x0);\n\n    emit OfferCancelled(_id, msg.sender, provider, project.title, project.price);\n  }\n\n  // Accept services from the provider\n  // The owner accepts the services offered by the provider \n  function acceptProposal(uint256 _id) public {\n    \n    // retrieve the project\n    ProjectItem storage project = projects[_id];\n\n    // ensure that this project exists\n    if (project.owner == address(0x0)) {\n      return;\n    }\n \n     // do we own this project?\n    require(project.owner == msg.sender, \"You are not the owner of this project\");\n\n    // is the project in review?\n    require(project.status == ProjectStatus.InReview, \"Proposal not in review\");\n\n    // project is now ongoing\n    project.status = ProjectStatus.OnGoing;\n\n    emit AcceptProposal(_id, msg.sender, project.provider, project.title, project.price);\n  }\n\n  // Reject proposal from the provider\n  // The owner rejects the services offered by the provider \n  function rejectProposal(uint256 _id) public {\n    \n    // retrieve the project\n    ProjectItem storage project = projects[_id];\n\n    // ensure that this project exists\n    if (project.owner == address(0x0)) {\n      return;\n    }\n \n     // do we own this project?\n    require(project.owner == msg.sender, \"You are not the owner of this project\");\n\n    // is the project in review?\n    require(project.status == ProjectStatus.InReview , \"Proposal not in review\");\n\n    // project is now available\n    address provider = project.provider;\n    project.status = ProjectStatus.Available;\n    project.provider = address(0x0);\n    \n    emit RejectProposal(_id, msg.sender, provider, project.title, project.price);\n  }\n\n  // Deliver the project to the customer\n  // The provider delivers the project to the owner \n  function deliverProject(uint256 _id) public {\n    \n    // retrieve the project\n    ProjectItem storage project = projects[_id];\n\n    // ensure that this project exists\n    if (project.owner == address(0x0)) {\n      return;\n    }\n \n    // are we the service provider?\n    require(project.provider == msg.sender, \"You are not the service provider\");\n\n    // is the project ongoing?\n    require(project.status == ProjectStatus.OnGoing, \"Project not in progress\");\n\n    // project is now validation process\n    project.status = ProjectStatus.Validate;\n\n    emit ProjectDelivered(_id, msg.sender, project.provider, project.title, project.price);\n  }\n\n  // Accept the project delivery from the provider\n  // The owner accepts the project delivered by the provider \n  function acceptDelivery(uint256 _id) public {\n    \n    // retrieve the project\n    ProjectItem storage project = projects[_id];\n\n    // ensure that this project exists\n    if (project.owner == address(0x0)) {\n      return;\n    }\n \n     // do we own this project?\n    require(project.owner == msg.sender, \"You are not the owner of this project\");\n\n    // is the project in review?\n    require(project.status == ProjectStatus.Validate, \"Project not in validation process\");\n\n    // project is now completed\n    project.status = ProjectStatus.Completed;\n\n    emit DeliveryAccepted(_id, msg.sender, project.provider, project.title, project.price);\n  }\n\n  // Reject the project delivery from the provider\n  // The owner rejects the project delivered by the provider \n  function rejectDelivery(uint256 _id) public {\n    \n    // retrieve the project\n    ProjectItem storage project = projects[_id];\n\n    // ensure that this project exists\n    if (project.owner == address(0x0)) {\n      return;\n    }\n \n     // do we own this project?\n    require(project.owner == msg.sender, \"You are not the owner of this project\");\n\n    // is the project in review?\n    require(project.status == ProjectStatus.Validate, \"Project not in validation process\");\n\n    // project becomes available\n    address provider = project.provider;\n    project.status = ProjectStatus.Available;\n    project.provider = address(0x0);\n    \n    emit DeliveryRejected(_id, msg.sender, provider, project.title, project.price);\n  }\n\n\n  // Leave project from the provider\n  // The provider leaves the project \n  function leaveProject(uint256 _id) public {\n    \n    // retrieve the project\n    ProjectItem storage project = projects[_id];\n\n    // ensure that this project exists\n    if (project.owner == address(0x0)) {\n      return;\n    }\n \n    // are we the service provider?\n    require(project.provider == msg.sender, \"You are not the service provider\");\n\n    // is the project ongoing?\n    require(project.status == ProjectStatus.OnGoing, \"Project not in progress\");\n\n    // project becomes available\n    address provider = project.provider;\n    project.status = ProjectStatus.Available;\n    project.provider = address(0x0);\n    \n    emit ProjectLeaved(_id, msg.sender, provider, project.title, project.price);\n  }\n\n  // Cancel services from the ower\n  // The owner cancels the services \n  function cancelServices(uint256 _id) public {\n    \n    // retrieve the project\n    ProjectItem storage project = projects[_id];\n\n    // ensure that this project exists\n    if (project.owner == address(0x0)) {\n      return;\n    }\n \n    // are we the service provider?\n    require(project.owner == msg.sender, \"You are not the project's owner\");\n\n    // is the project ongoing?\n    require(project.status == ProjectStatus.OnGoing, \"Project not in progress\");\n\n   // project becomes available\n    address provider = project.provider;\n    project.status = ProjectStatus.Available;\n    project.provider = address(0x0);\n    \n    emit ServicesCancelled(_id, msg.sender, provider, project.title, project.price);\n  }\n\n  //\n  // Getters\n  //\n\n  // Retrieve a project from its id\n  function getProject(uint256 _id) public view returns (\n    address owner,\n    address provider,\n    string memory title,\n    string memory description,\n    uint256 price,\n    ProjectStatus status) {\n\n    ProjectItem memory project = projects[_id];\n\n    // ensure that we have a project to fetch\n    if (project.owner == address(0x0)) {\n      return (address(0x0), address(0x0), \"\", \"\", 0, ProjectStatus.Unknown);\n    }\n\n    return (\n      project.owner,\n      project.provider,\n      project.title,\n      project.description,\n      project.price,\n      project.status);\n  }\n\n  // return all projects\n  function getAllProjects() view public returns (uint256[] memory) {\n    if (projectsCounter == 0) {\n      return new uint[](0);\n    }\n\n    // prepare output array\n    uint256[] memory projectIDs = new uint[](projectsCounter);\n\n    // iterate over projects\n    uint256 numberOfProjects = 0;\n    for (uint256 i = 1; i <= projectsCounter; i++) {\n      // skip deleted projects\n      if (projects[i].owner != address(0x0)) {\n        projectIDs[numberOfProjects] = projects[i].id;\n        numberOfProjects = numberOfProjects.add(1);\n      }\n    }\n\n    // copy the project ID array into a smaller array\n    uint256[] memory allProjects = new uint[](numberOfProjects);\n    for (uint j = 0; j < numberOfProjects; j++) {\n      allProjects[j] = projectIDs[j];\n    }\n\n    return allProjects;\n  }\n\n\n  // return all published projects\n  function getPublishedProjects() view public returns (uint256[] memory) {\n    if (projectsCounter == 0) {\n      return new uint[](0);\n    }\n\n    // prepare output array\n    uint256[] memory projectIDs = new uint[](projectsCounter);\n\n    // iterate over projects\n    uint256 numberOfProjects = 0;\n    for (uint256 i = 1; i <= projectsCounter; i++) {\n      // get only published and active projects \n      if ((projects[i].owner != address(0x0)) && (projects[i].status == ProjectStatus.Available)) {\n        projectIDs[numberOfProjects] = projects[i].id;\n        numberOfProjects = numberOfProjects.add(1);\n      }\n    }\n\n    // copy the project ID array into a smaller array\n    uint256[] memory allProjects = new uint[](numberOfProjects);\n    for (uint j = 0; j < numberOfProjects; j++) {\n      allProjects[j] = projectIDs[j];\n    }\n\n    return allProjects;\n  }\n\n\n  // return all projects owned by the sender\n  function getMyProjects() view public returns (uint256[] memory) {\n    if (projectsCounter == 0) {\n      return new uint256[](0);\n    }\n\n    // prepare output array\n    uint256[] memory projectIDs = new uint[](projectsCounter);\n\n    // iterate over projects\n    uint256 numberOfProjects = 0;\n    for (uint i = 1; i <= projectsCounter; i++) {\n      // keep the ID of the project owned by the caller\n      if (projects[i].owner == msg.sender) {\n        projectIDs[numberOfProjects] = projects[i].id;\n\n        numberOfProjects = numberOfProjects.add(1);\n      }\n    }\n\n    // copy the project ID array into a smaller array\n    uint256[] memory myProjects = new uint[](numberOfProjects);\n    for (uint j = 0; j < numberOfProjects; j++) {\n      myProjects[j] = projectIDs[j];\n    }\n\n    return myProjects;\n  }\n\n  // return all my offers waiting for review\n  function getMyOffers() view public returns (uint256[] memory) {\n    if (projectsCounter == 0) {\n      return new uint256[](0);\n    }\n\n    // prepare output array\n    uint256[] memory projectIDs = new uint[](projectsCounter);\n\n    // iterate over projects\n    uint256 numberOfProjects = 0;\n    for (uint i = 1; i <= projectsCounter; i++) {\n      // keep the ID of the project with the sender as provider and the project still in review process\n      if ((projects[i].provider == msg.sender) && (projects[i].status == ProjectStatus.InReview)) {\n        projectIDs[numberOfProjects] = projects[i].id;\n\n        numberOfProjects = numberOfProjects.add(1);\n      }\n    }\n\n    // copy the project ID array into a smaller array\n    uint256[] memory myOffers = new uint[](numberOfProjects);\n    for (uint j = 0; j < numberOfProjects; j++) {\n      myOffers[j] = projectIDs[j];\n    }\n\n    return myOffers;\n  }\n\n\n  // return all projects waiting for review\n  function getMyReviews() view public returns (uint256[] memory) {\n    if (projectsCounter == 0) {\n      return new uint256[](0);\n    }\n\n    // prepare output array\n    uint256[] memory projectIDs = new uint[](projectsCounter);\n\n    // iterate over projects\n    uint256 numberOfProjects = 0;\n    for (uint i = 1; i <= projectsCounter; i++) {\n      // keep the ID of the project owned by the caller and the project still in review process\n      if ((projects[i].owner == msg.sender) && (projects[i].status == ProjectStatus.InReview)) {\n        projectIDs[numberOfProjects] = projects[i].id;\n\n        numberOfProjects = numberOfProjects.add(1);\n      }\n    }\n\n    // copy the project ID array into a smaller array\n    uint256[] memory myReviews = new uint[](numberOfProjects);\n    for (uint j = 0; j < numberOfProjects; j++) {\n      myReviews[j] = projectIDs[j];\n    }\n\n    return myReviews;\n  }\n\n  // return all ongoing contracts\n  function getMyContracts() view public returns (uint256[] memory) {\n    if (projectsCounter == 0) {\n      return new uint[](0);\n    }\n\n    // prepare output array\n    uint256[] memory projectIDs = new uint[](projectsCounter);\n\n    // iterate over projects\n    uint256 numberOfProjects = 0;\n    for (uint256 i = 1; i <= projectsCounter; i++) {\n      // get only ongoing contracts owner by the contract's owner or the service provider \n      if (((projects[i].owner == msg.sender) || (projects[i].provider == msg.sender)) && (projects[i].status == ProjectStatus.OnGoing)) {\n        projectIDs[numberOfProjects] = projects[i].id;\n        numberOfProjects = numberOfProjects.add(1);\n      }\n    }\n\n    // copy the project ID array into a smaller array\n    uint256[] memory myContracts = new uint[](numberOfProjects);\n    for (uint j = 0; j < numberOfProjects; j++) {\n      myContracts[j] = projectIDs[j];\n    }\n\n    return myContracts;\n  }\n}",
  "sourcePath": "/Users/said.eloudrhiri/Projects/Devoxx/chainbizz/contracts/ChainBizz.sol",
  "compiler": {
    "name": "solc",
    "version": "0.5.8+commit.23d335f2.Emscripten.clang"
  },
  "schemaVersion": "3.0.16",
  "updatedAt": "2019-10-12T11:26:12.880Z",
  "devdoc": {
    "methods": {}
  },
  "userdoc": {
    "methods": {}
  }
}