{
  "contractName": "ChainBizz",
  "abi": [
    {
      "inputs": [],
      "payable": false,
      "stateMutability": "nonpayable",
      "type": "constructor"
    },
    {
      "anonymous": false,
      "inputs": [
        {
          "indexed": false,
          "internalType": "uint256",
          "name": "id",
          "type": "uint256"
        },
        {
          "indexed": true,
          "internalType": "address",
          "name": "issuer",
          "type": "address"
        },
        {
          "indexed": true,
          "internalType": "address",
          "name": "fulfiller",
          "type": "address"
        },
        {
          "indexed": false,
          "internalType": "string",
          "name": "title",
          "type": "string"
        },
        {
          "indexed": false,
          "internalType": "uint256",
          "name": "price",
          "type": "uint256"
        }
      ],
      "name": "AcceptProposal",
      "type": "event"
    },
    {
      "anonymous": false,
      "inputs": [
        {
          "indexed": false,
          "internalType": "uint256",
          "name": "id",
          "type": "uint256"
        },
        {
          "indexed": true,
          "internalType": "address",
          "name": "issuer",
          "type": "address"
        },
        {
          "indexed": true,
          "internalType": "address",
          "name": "fulfiller",
          "type": "address"
        },
        {
          "indexed": false,
          "internalType": "string",
          "name": "title",
          "type": "string"
        },
        {
          "indexed": false,
          "internalType": "uint256",
          "name": "price",
          "type": "uint256"
        }
      ],
      "name": "ContractCanceled",
      "type": "event"
    },
    {
      "anonymous": false,
      "inputs": [
        {
          "indexed": false,
          "internalType": "uint256",
          "name": "id",
          "type": "uint256"
        },
        {
          "indexed": true,
          "internalType": "address",
          "name": "issuer",
          "type": "address"
        },
        {
          "indexed": true,
          "internalType": "address",
          "name": "fulfiller",
          "type": "address"
        },
        {
          "indexed": false,
          "internalType": "string",
          "name": "title",
          "type": "string"
        },
        {
          "indexed": false,
          "internalType": "uint256",
          "name": "price",
          "type": "uint256"
        }
      ],
      "name": "DeliveryAccepted",
      "type": "event"
    },
    {
      "anonymous": false,
      "inputs": [
        {
          "indexed": false,
          "internalType": "uint256",
          "name": "id",
          "type": "uint256"
        },
        {
          "indexed": true,
          "internalType": "address",
          "name": "issuer",
          "type": "address"
        },
        {
          "indexed": true,
          "internalType": "address",
          "name": "fulfiller",
          "type": "address"
        },
        {
          "indexed": false,
          "internalType": "string",
          "name": "title",
          "type": "string"
        },
        {
          "indexed": false,
          "internalType": "uint256",
          "name": "price",
          "type": "uint256"
        }
      ],
      "name": "DeliveryRejected",
      "type": "event"
    },
    {
      "anonymous": false,
      "inputs": [
        {
          "indexed": false,
          "internalType": "uint256",
          "name": "id",
          "type": "uint256"
        },
        {
          "indexed": true,
          "internalType": "address",
          "name": "issuer",
          "type": "address"
        },
        {
          "indexed": false,
          "internalType": "string",
          "name": "title",
          "type": "string"
        },
        {
          "indexed": false,
          "internalType": "uint256",
          "name": "price",
          "type": "uint256"
        }
      ],
      "name": "NewProject",
      "type": "event"
    },
    {
      "anonymous": false,
      "inputs": [
        {
          "indexed": false,
          "internalType": "uint256",
          "name": "id",
          "type": "uint256"
        },
        {
          "indexed": true,
          "internalType": "address",
          "name": "issuer",
          "type": "address"
        },
        {
          "indexed": true,
          "internalType": "address",
          "name": "fulfiller",
          "type": "address"
        },
        {
          "indexed": false,
          "internalType": "string",
          "name": "title",
          "type": "string"
        },
        {
          "indexed": false,
          "internalType": "uint256",
          "name": "price",
          "type": "uint256"
        }
      ],
      "name": "OfferCanceled",
      "type": "event"
    },
    {
      "anonymous": false,
      "inputs": [
        {
          "indexed": false,
          "internalType": "uint256",
          "name": "id",
          "type": "uint256"
        },
        {
          "indexed": true,
          "internalType": "address",
          "name": "issuer",
          "type": "address"
        },
        {
          "indexed": true,
          "internalType": "address",
          "name": "fulfiller",
          "type": "address"
        },
        {
          "indexed": false,
          "internalType": "string",
          "name": "title",
          "type": "string"
        },
        {
          "indexed": false,
          "internalType": "uint256",
          "name": "price",
          "type": "uint256"
        }
      ],
      "name": "OfferSubmitted",
      "type": "event"
    },
    {
      "anonymous": false,
      "inputs": [
        {
          "indexed": false,
          "internalType": "uint256",
          "name": "id",
          "type": "uint256"
        },
        {
          "indexed": true,
          "internalType": "address",
          "name": "issuer",
          "type": "address"
        },
        {
          "indexed": true,
          "internalType": "address",
          "name": "fulfiller",
          "type": "address"
        },
        {
          "indexed": false,
          "internalType": "string",
          "name": "title",
          "type": "string"
        },
        {
          "indexed": false,
          "internalType": "uint256",
          "name": "price",
          "type": "uint256"
        }
      ],
      "name": "ProjectDelivered",
      "type": "event"
    },
    {
      "anonymous": false,
      "inputs": [
        {
          "indexed": false,
          "internalType": "uint256",
          "name": "id",
          "type": "uint256"
        },
        {
          "indexed": true,
          "internalType": "address",
          "name": "issuer",
          "type": "address"
        },
        {
          "indexed": false,
          "internalType": "string",
          "name": "title",
          "type": "string"
        },
        {
          "indexed": false,
          "internalType": "uint256",
          "name": "price",
          "type": "uint256"
        },
        {
          "indexed": false,
          "internalType": "string",
          "name": "ipfsHash",
          "type": "string"
        }
      ],
      "name": "PublishedProject",
      "type": "event"
    },
    {
      "anonymous": false,
      "inputs": [
        {
          "indexed": false,
          "internalType": "uint256",
          "name": "id",
          "type": "uint256"
        },
        {
          "indexed": true,
          "internalType": "address",
          "name": "issuer",
          "type": "address"
        },
        {
          "indexed": true,
          "internalType": "address",
          "name": "fulfiller",
          "type": "address"
        },
        {
          "indexed": false,
          "internalType": "string",
          "name": "title",
          "type": "string"
        },
        {
          "indexed": false,
          "internalType": "uint256",
          "name": "price",
          "type": "uint256"
        }
      ],
      "name": "RejectProposal",
      "type": "event"
    },
    {
      "anonymous": false,
      "inputs": [
        {
          "indexed": false,
          "internalType": "uint256",
          "name": "id",
          "type": "uint256"
        },
        {
          "indexed": true,
          "internalType": "address",
          "name": "issuer",
          "type": "address"
        },
        {
          "indexed": false,
          "internalType": "string",
          "name": "title",
          "type": "string"
        }
      ],
      "name": "RemoveProject",
      "type": "event"
    },
    {
      "anonymous": false,
      "inputs": [
        {
          "indexed": false,
          "internalType": "uint256",
          "name": "id",
          "type": "uint256"
        },
        {
          "indexed": true,
          "internalType": "address",
          "name": "issuer",
          "type": "address"
        },
        {
          "indexed": true,
          "internalType": "address",
          "name": "fulfiller",
          "type": "address"
        },
        {
          "indexed": false,
          "internalType": "string",
          "name": "title",
          "type": "string"
        },
        {
          "indexed": false,
          "internalType": "uint256",
          "name": "price",
          "type": "uint256"
        }
      ],
      "name": "ServicesCanceled",
      "type": "event"
    },
    {
      "anonymous": false,
      "inputs": [
        {
          "indexed": false,
          "internalType": "uint256",
          "name": "id",
          "type": "uint256"
        },
        {
          "indexed": true,
          "internalType": "address",
          "name": "issuer",
          "type": "address"
        },
        {
          "indexed": false,
          "internalType": "string",
          "name": "title",
          "type": "string"
        },
        {
          "indexed": false,
          "internalType": "uint256",
          "name": "price",
          "type": "uint256"
        }
      ],
      "name": "UnpublishedProject",
      "type": "event"
    },
    {
      "anonymous": false,
      "inputs": [
        {
          "indexed": false,
          "internalType": "uint256",
          "name": "id",
          "type": "uint256"
        },
        {
          "indexed": true,
          "internalType": "address",
          "name": "issuer",
          "type": "address"
        },
        {
          "indexed": false,
          "internalType": "string",
          "name": "title",
          "type": "string"
        },
        {
          "indexed": false,
          "internalType": "uint256",
          "name": "price",
          "type": "uint256"
        }
      ],
      "name": "UpdateProject",
      "type": "event"
    },
    {
      "constant": true,
      "inputs": [
        {
          "internalType": "uint256",
          "name": "",
          "type": "uint256"
        }
      ],
      "name": "projects",
      "outputs": [
        {
          "internalType": "uint256",
          "name": "id",
          "type": "uint256"
        },
        {
          "internalType": "address payable",
          "name": "issuer",
          "type": "address"
        },
        {
          "internalType": "address payable",
          "name": "fulfiller",
          "type": "address"
        },
        {
          "internalType": "string",
          "name": "title",
          "type": "string"
        },
        {
          "internalType": "string",
          "name": "description",
          "type": "string"
        },
        {
          "internalType": "uint256",
          "name": "price",
          "type": "uint256"
        },
        {
          "internalType": "string",
          "name": "ipfsHash",
          "type": "string"
        },
        {
          "internalType": "enum ChainBizz.ProjectStatus",
          "name": "status",
          "type": "uint8"
        }
      ],
      "payable": false,
      "stateMutability": "view",
      "type": "function"
    },
    {
      "constant": false,
      "inputs": [],
      "name": "enableContract",
      "outputs": [],
      "payable": false,
      "stateMutability": "nonpayable",
      "type": "function"
    },
    {
      "constant": false,
      "inputs": [],
      "name": "disableContract",
      "outputs": [],
      "payable": false,
      "stateMutability": "nonpayable",
      "type": "function"
    },
    {
      "constant": false,
      "inputs": [
        {
          "internalType": "string",
          "name": "_title",
          "type": "string"
        },
        {
          "internalType": "string",
          "name": "_description",
          "type": "string"
        },
        {
          "internalType": "uint256",
          "name": "_price",
          "type": "uint256"
        }
      ],
      "name": "addProject",
      "outputs": [],
      "payable": false,
      "stateMutability": "nonpayable",
      "type": "function"
    },
    {
      "constant": false,
      "inputs": [
        {
          "internalType": "uint256",
          "name": "_id",
          "type": "uint256"
        },
        {
          "internalType": "string",
          "name": "_title",
          "type": "string"
        },
        {
          "internalType": "string",
          "name": "_description",
          "type": "string"
        },
        {
          "internalType": "uint256",
          "name": "_price",
          "type": "uint256"
        }
      ],
      "name": "updateProject",
      "outputs": [],
      "payable": false,
      "stateMutability": "nonpayable",
      "type": "function"
    },
    {
      "constant": false,
      "inputs": [
        {
          "internalType": "uint256",
          "name": "_id",
          "type": "uint256"
        }
      ],
      "name": "removeProject",
      "outputs": [],
      "payable": false,
      "stateMutability": "nonpayable",
      "type": "function"
    },
    {
      "constant": false,
      "inputs": [
        {
          "internalType": "string",
          "name": "_title",
          "type": "string"
        },
        {
          "internalType": "string",
          "name": "_description",
          "type": "string"
        },
        {
          "internalType": "uint256",
          "name": "_price",
          "type": "uint256"
        },
        {
          "internalType": "string",
          "name": "_ipfsHash",
          "type": "string"
        }
      ],
      "name": "publishProject",
      "outputs": [],
      "payable": false,
      "stateMutability": "nonpayable",
      "type": "function"
    },
    {
      "constant": false,
      "inputs": [
        {
          "internalType": "uint256",
          "name": "_id",
          "type": "uint256"
        }
      ],
      "name": "publishProjectOld",
      "outputs": [],
      "payable": false,
      "stateMutability": "nonpayable",
      "type": "function"
    },
    {
      "constant": false,
      "inputs": [
        {
          "internalType": "uint256",
          "name": "_id",
          "type": "uint256"
        }
      ],
      "name": "unpublishProject",
      "outputs": [],
      "payable": false,
      "stateMutability": "nonpayable",
      "type": "function"
    },
    {
      "constant": false,
      "inputs": [
        {
          "internalType": "uint256",
          "name": "_id",
          "type": "uint256"
        }
      ],
      "name": "submitOffer",
      "outputs": [],
      "payable": false,
      "stateMutability": "nonpayable",
      "type": "function"
    },
    {
      "constant": false,
      "inputs": [
        {
          "internalType": "uint256",
          "name": "_id",
          "type": "uint256"
        }
      ],
      "name": "cancelOffer",
      "outputs": [],
      "payable": false,
      "stateMutability": "nonpayable",
      "type": "function"
    },
    {
      "constant": false,
      "inputs": [
        {
          "internalType": "uint256",
          "name": "_id",
          "type": "uint256"
        }
      ],
      "name": "acceptProposal",
      "outputs": [],
      "payable": true,
      "stateMutability": "payable",
      "type": "function"
    },
    {
      "constant": false,
      "inputs": [
        {
          "internalType": "uint256",
          "name": "_id",
          "type": "uint256"
        }
      ],
      "name": "rejectProposal",
      "outputs": [],
      "payable": false,
      "stateMutability": "nonpayable",
      "type": "function"
    },
    {
      "constant": false,
      "inputs": [
        {
          "internalType": "uint256",
          "name": "_id",
          "type": "uint256"
        }
      ],
      "name": "deliverProject",
      "outputs": [],
      "payable": false,
      "stateMutability": "nonpayable",
      "type": "function"
    },
    {
      "constant": false,
      "inputs": [
        {
          "internalType": "uint256",
          "name": "_id",
          "type": "uint256"
        }
      ],
      "name": "cancelServices",
      "outputs": [],
      "payable": false,
      "stateMutability": "nonpayable",
      "type": "function"
    },
    {
      "constant": false,
      "inputs": [
        {
          "internalType": "uint256",
          "name": "_id",
          "type": "uint256"
        }
      ],
      "name": "acceptDelivery",
      "outputs": [],
      "payable": false,
      "stateMutability": "nonpayable",
      "type": "function"
    },
    {
      "constant": false,
      "inputs": [
        {
          "internalType": "uint256",
          "name": "_id",
          "type": "uint256"
        }
      ],
      "name": "rejectDelivery",
      "outputs": [],
      "payable": false,
      "stateMutability": "nonpayable",
      "type": "function"
    },
    {
      "constant": false,
      "inputs": [
        {
          "internalType": "uint256",
          "name": "_id",
          "type": "uint256"
        }
      ],
      "name": "cancelContract",
      "outputs": [],
      "payable": false,
      "stateMutability": "nonpayable",
      "type": "function"
    },
    {
      "constant": true,
      "inputs": [],
      "name": "isEnabled",
      "outputs": [
        {
          "internalType": "bool",
          "name": "",
          "type": "bool"
        }
      ],
      "payable": false,
      "stateMutability": "view",
      "type": "function"
    },
    {
      "constant": true,
      "inputs": [
        {
          "internalType": "uint256",
          "name": "_id",
          "type": "uint256"
        }
      ],
      "name": "getProject",
      "outputs": [
        {
          "internalType": "address",
          "name": "issuer",
          "type": "address"
        },
        {
          "internalType": "address",
          "name": "fulfiller",
          "type": "address"
        },
        {
          "internalType": "string",
          "name": "title",
          "type": "string"
        },
        {
          "internalType": "string",
          "name": "description",
          "type": "string"
        },
        {
          "internalType": "uint256",
          "name": "price",
          "type": "uint256"
        },
        {
          "internalType": "string",
          "name": "ipfsHash",
          "type": "string"
        },
        {
          "internalType": "enum ChainBizz.ProjectStatus",
          "name": "status",
          "type": "uint8"
        }
      ],
      "payable": false,
      "stateMutability": "view",
      "type": "function"
    },
    {
      "constant": true,
      "inputs": [],
      "name": "getAllProjects",
      "outputs": [
        {
          "internalType": "uint256[]",
          "name": "",
          "type": "uint256[]"
        }
      ],
      "payable": false,
      "stateMutability": "view",
      "type": "function"
    },
    {
      "constant": true,
      "inputs": [],
      "name": "getPublishedProjects",
      "outputs": [
        {
          "internalType": "uint256[]",
          "name": "",
          "type": "uint256[]"
        }
      ],
      "payable": false,
      "stateMutability": "view",
      "type": "function"
    },
    {
      "constant": true,
      "inputs": [],
      "name": "getMyProjects",
      "outputs": [
        {
          "internalType": "uint256[]",
          "name": "",
          "type": "uint256[]"
        }
      ],
      "payable": false,
      "stateMutability": "view",
      "type": "function"
    },
    {
      "constant": true,
      "inputs": [],
      "name": "getMyOffers",
      "outputs": [
        {
          "internalType": "uint256[]",
          "name": "",
          "type": "uint256[]"
        }
      ],
      "payable": false,
      "stateMutability": "view",
      "type": "function"
    },
    {
      "constant": true,
      "inputs": [],
      "name": "getMyReviews",
      "outputs": [
        {
          "internalType": "uint256[]",
          "name": "",
          "type": "uint256[]"
        }
      ],
      "payable": false,
      "stateMutability": "view",
      "type": "function"
    },
    {
      "constant": true,
      "inputs": [],
      "name": "getMyContracts",
      "outputs": [
        {
          "internalType": "uint256[]",
          "name": "",
          "type": "uint256[]"
        }
      ],
      "payable": false,
      "stateMutability": "view",
      "type": "function"
    },
    {
      "constant": true,
      "inputs": [],
      "name": "getDeliveries",
      "outputs": [
        {
          "internalType": "uint256[]",
          "name": "",
          "type": "uint256[]"
        }
      ],
      "payable": false,
      "stateMutability": "view",
      "type": "function"
    },
    {
      "constant": true,
      "inputs": [],
      "name": "getCompleted",
      "outputs": [
        {
          "internalType": "uint256[]",
          "name": "",
          "type": "uint256[]"
        }
      ],
      "payable": false,
      "stateMutability": "view",
      "type": "function"
    },
    {
      "constant": true,
      "inputs": [],
      "name": "getCanceled",
      "outputs": [
        {
          "internalType": "uint256[]",
          "name": "",
          "type": "uint256[]"
        }
      ],
      "payable": false,
      "stateMutability": "view",
      "type": "function"
    }
  ],
  "bytecode": "0x608060405234801561001057600080fd5b5060028054600160ff1990911617610100600160a81b03191661010033021790556145f5806100406000396000f3fe6080604052600436106101c25760003560e01c80636f65c717116100f7578063bc28d87811610095578063ef1b655311610064578063ef1b655314610aa8578063ef706adf14610abd578063f0f3f2c814610ae7578063f7f2ccbf14610c8b576101c2565b8063bc28d87814610a3f578063bd140c4b14610a69578063c81bde1514610a7e578063e4f655b014610a93576101c2565b8063894ba833116100d1578063894ba8331461089757806391ed2069146108ac578063a7fa01a7146108d6578063b85a72d214610a15576101c2565b80636f65c7171461082e5780637b422c4c1461085857806380d0382914610882576101c2565b80634beb7e94116101645780635fd4f7581161013e5780635fd4f7581461068657806360c5cc3a146107be578063629a064e146107db5780636aa633b614610805576101c2565b80634beb7e94146106325780635873f998146106475780635b54f98214610671576101c2565b8063138e0b26116101a0578063138e0b261461041b5780631e1061f71461043057806328047450146105f3578063367edd321461061d576101c2565b8063037852c7146101c75780630850cd1e1461022c578063107046bd14610258575b600080fd5b3480156101d357600080fd5b506101dc610cb5565b60408051602080825283518183015283519192839290830191858101910280838360005b83811015610218578181015183820152602001610200565b505050509050019250505060405180910390f35b34801561023857600080fd5b506102566004803603602081101561024f57600080fd5b5035610e23565b005b34801561026457600080fd5b506102826004803603602081101561027b57600080fd5b5035611015565b60405180898152602001886001600160a01b03166001600160a01b03168152602001876001600160a01b03166001600160a01b031681526020018060200180602001868152602001806020018560088111156102da57fe5b60ff168152602001848103845289818151815260200191508051906020019080838360005b838110156103175781810151838201526020016102ff565b50505050905090810190601f1680156103445780820380516001836020036101000a031916815260200191505b5084810383528851815288516020918201918a019080838360005b8381101561037757818101518382015260200161035f565b50505050905090810190601f1680156103a45780820380516001836020036101000a031916815260200191505b50848103825286518152865160209182019188019080838360005b838110156103d75781810151838201526020016103bf565b50505050905090810190601f1680156104045780820380516001836020036101000a031916815260200191505b509b50505050505050505050505060405180910390f35b34801561042757600080fd5b506101dc611204565b34801561043c57600080fd5b506102566004803603608081101561045357600080fd5b810190602081018135600160201b81111561046d57600080fd5b82018360208201111561047f57600080fd5b803590602001918460018302840111600160201b831117156104a057600080fd5b91908080601f0160208091040260200160405190810160405280939291908181526020018383808284376000920191909152509295949360208101935035915050600160201b8111156104f257600080fd5b82018360208201111561050457600080fd5b803590602001918460018302840111600160201b8311171561052557600080fd5b91908080601f01602080910402602001604051908101604052809392919081815260200183838082843760009201919091525092958435959094909350604081019250602001359050600160201b81111561057f57600080fd5b82018360208201111561059157600080fd5b803590602001918460018302840111600160201b831117156105b257600080fd5b91908080601f016020809104026020016040519081016040528093929190818152602001838380828437600092019190915250929550611389945050505050565b3480156105ff57600080fd5b506102566004803603602081101561061657600080fd5b50356116ff565b34801561062957600080fd5b50610256611985565b34801561063e57600080fd5b506101dc6119e2565b34801561065357600080fd5b506102566004803603602081101561066a57600080fd5b5035611b43565b34801561067d57600080fd5b506101dc611f3e565b34801561069257600080fd5b50610256600480360360608110156106a957600080fd5b810190602081018135600160201b8111156106c357600080fd5b8201836020820111156106d557600080fd5b803590602001918460018302840111600160201b831117156106f657600080fd5b91908080601f0160208091040260200160405190810160405280939291908181526020018383808284376000920191909152509295949360208101935035915050600160201b81111561074857600080fd5b82018360208201111561075a57600080fd5b803590602001918460018302840111600160201b8311171561077b57600080fd5b91908080601f01602080910402602001604051908101604052809392919081815260200183838082843760009201919091525092955050913592506120c3915050565b610256600480360360208110156107d457600080fd5b5035612383565b3480156107e757600080fd5b50610256600480360360208110156107fe57600080fd5b5035612596565b34801561081157600080fd5b5061081a612769565b604080519115158252519081900360200190f35b34801561083a57600080fd5b506102566004803603602081101561085157600080fd5b5035612772565b34801561086457600080fd5b506102566004803603602081101561087b57600080fd5b503561290f565b34801561088e57600080fd5b506101dc612b14565b3480156108a357600080fd5b50610256612c48565b3480156108b857600080fd5b50610256600480360360208110156108cf57600080fd5b5035612de3565b3480156108e257600080fd5b50610256600480360360808110156108f957600080fd5b81359190810190604081016020820135600160201b81111561091a57600080fd5b82018360208201111561092c57600080fd5b803590602001918460018302840111600160201b8311171561094d57600080fd5b91908080601f0160208091040260200160405190810160405280939291908181526020018383808284376000920191909152509295949360208101935035915050600160201b81111561099f57600080fd5b8201836020820111156109b157600080fd5b803590602001918460018302840111600160201b831117156109d257600080fd5b91908080601f0160208091040260200160405190810160405280939291908181526020018383808284376000920191909152509295505091359250612fe6915050565b348015610a2157600080fd5b5061025660048036036020811015610a3857600080fd5b503561327e565b348015610a4b57600080fd5b5061025660048036036020811015610a6257600080fd5b5035613440565b348015610a7557600080fd5b506101dc613663565b348015610a8a57600080fd5b506101dc6137e8565b348015610a9f57600080fd5b506101dc613996565b348015610ab457600080fd5b506101dc613b24565b348015610ac957600080fd5b5061025660048036036020811015610ae057600080fd5b5035613c85565b348015610af357600080fd5b50610b1160048036036020811015610b0a57600080fd5b5035613e68565b604080516001600160a01b03808a16825288166020820152608081018590529081016060820160a0830160c08401856008811115610b4b57fe5b60ff168152602001848103845289818151815260200191508051906020019080838360005b83811015610b88578181015183820152602001610b70565b50505050905090810190601f168015610bb55780820380516001836020036101000a031916815260200191505b5084810383528851815288516020918201918a019080838360005b83811015610be8578181015183820152602001610bd0565b50505050905090810190601f168015610c155780820380516001836020036101000a031916815260200191505b50848103825286518152865160209182019188019080838360005b83811015610c48578181015183820152602001610c30565b50505050905090810190601f168015610c755780820380516001836020036101000a031916815260200191505b509a505050505050505050505060405180910390f35b348015610c9757600080fd5b5061025660048036036020811015610cae57600080fd5b5035614137565b606060015460001415610cdc5760408051600080825260208201909252905b509050610e20565b6060600154604051908082528060200260200182016040528015610d0a578160200160208202803883390190505b509050600060015b6001548111610dac576000818152602081905260409020600201546001600160a01b031633148015610d635750600260008281526020819052604090206007015460ff166008811115610d6157fe5b145b15610da4576000818152602081905260409020548351849084908110610d8557fe5b6020908102919091010152610da182600163ffffffff61431b16565b91505b600101610d12565b50606081604051908082528060200260200182016040528015610dd9578160200160208202803883390190505b50905060005b82811015610e1a57838181518110610df357fe5b6020026020010151828281518110610e0757fe5b6020908102919091010152600101610ddf565b50925050505b90565b60025460ff161515600114610e695760405162461bcd60e51b81526004018080602001828103825260228152602001806144f86022913960400191505060405180910390fd5b600081815260208190526040902060018101546001600160a01b0316610e8f5750611012565b60018101546001600160a01b03163314610eda5760405162461bcd60e51b815260040180806020018281038252602681526020018061451a6026913960400191505060405180910390fd5b6001600782015460ff166008811115610eef57fe5b14610f39576040805162461bcd60e51b815260206004820152601560248201527410d85b9b9bdd081899481d5b9c1d589b1a5cda1959605a1b604482015290519081900360640190fd5b60078101805460ff191690556005810154604080518481529081018290526060602082018181526003850180546002600182161561010002600019019091160492840183905233947f3525d4593ef70f97d7b99dfeab0e0be748aeb51f464f83bf0bbf5ab6badb45c8948894929391929091906080830190859080156110005780601f10610fd557610100808354040283529160200191611000565b820191906000526020600020905b815481529060010190602001808311610fe357829003601f168201915b505094505050505060405180910390a2505b50565b60006020818152918152604090819020805460018083015460028085015460038601805488516101009682161596909602600019011692909204601f810189900489028501890190975286845293966001600160a01b03928316969290941694939091908301828280156110ca5780601f1061109f576101008083540402835291602001916110ca565b820191906000526020600020905b8154815290600101906020018083116110ad57829003601f168201915b5050505060048301805460408051602060026001851615610100026000190190941693909304601f810184900484028201840190925281815294959493509083018282801561115a5780601f1061112f5761010080835404028352916020019161115a565b820191906000526020600020905b81548152906001019060200180831161113d57829003601f168201915b50505050600583015460068401805460408051602060026001851615610100026000190190941693909304601f810184900484028201840190925281815295969395939450908301828280156111f15780601f106111c6576101008083540402835291602001916111f1565b820191906000526020600020905b8154815290600101906020018083116111d457829003601f168201915b5050506007909301549192505060ff1688565b606060015460001415611227576040805160008082526020820190925290610cd4565b6060600154604051908082528060200260200182016040528015611255578160200160208202803883390190505b509050600060015b600154811161131b576000818152602081905260409020600101546001600160a01b03163314806112a757506000818152602081905260409020600201546001600160a01b031633145b80156112d25750600460008281526020819052604090206007015460ff1660088111156112d057fe5b145b156113135760008181526020819052604090205483518490849081106112f457fe5b602090810291909101015261131082600163ffffffff61431b16565b91505b60010161125d565b50606081604051908082528060200260200182016040528015611348578160200160208202803883390190505b50905060005b82811015610e1a5783818151811061136257fe5b602002602001015182828151811061137657fe5b602090810291909101015260010161134e565b60025460ff1615156001146113cf5760405162461bcd60e51b81526004018080602001828103825260228152602001806144f86022913960400191505060405180910390fd5b8351849061141a576040805162461bcd60e51b815260206004820152601360248201527210481d1a5d1b19481a5cc81c995c5d5a5c9959606a1b604482015290519081900360640190fd5b8351849061146b576040805162461bcd60e51b8152602060048201526019602482015278104819195cd8dc9a5c1d1a5bdb881a5cc81c995c5d5a5c9959603a1b604482015290519081900360640190fd5b825183906114c0576040805162461bcd60e51b815260206004820152601a60248201527f41206861736820746f2049504653206973207265717569726564000000000000604482015290519081900360640190fd5b600180546114d39163ffffffff61431b16565b600181815560408051610100810182528381523360208083019182526000838501818152606085018f8152608086018f905260a086018e905260c086018d905260e0860188905297825281835294902083518155915194820180546001600160a01b039687166001600160a01b03199182161790915593516002830180549190961694169390931790935592518051611572926003850192019061437c565b506080820151805161158e91600484019160209091019061437c565b5060a0820151600582015560c082015180516115b491600684019160209091019061437c565b5060e082015160078201805460ff191660018360088111156115d257fe5b0217905550905050336001600160a01b03167fea07c326ec88ddea19d72529e511ce438c2cd368f463f890406ab6582b2dc0db600154898888604051808581526020018060200184815260200180602001838103835286818151815260200191508051906020019080838360005b83811015611658578181015183820152602001611640565b50505050905090810190601f1680156116855780820380516001836020036101000a031916815260200191505b50838103825284518152845160209182019186019080838360005b838110156116b85781810151838201526020016116a0565b50505050905090810190601f1680156116e55780820380516001836020036101000a031916815260200191505b50965050505050505060405180910390a250505050505050565b60025460ff1615156001146117455760405162461bcd60e51b81526004018080602001828103825260228152602001806144f86022913960400191505060405180910390fd5b600081815260208190526040902060018101546001600160a01b031661176b5750611012565b60018101546001600160a01b031633146117cc576040805162461bcd60e51b815260206004820181905260248201527f596f7520617265206e6f74207468652070726f6a656374277320697373756572604482015290519081900360640190fd5b6003600782015460ff1660088111156117e157fe5b14806117ff57506004600782015460ff1660088111156117fd57fe5b145b61184a576040805162461bcd60e51b815260206004820152601760248201527650726f6a656374206e6f7420696e2070726f677265737360481b604482015290519081900360640190fd5b600181015460058201546040516001600160a01b039092169181156108fc0291906000818181858888f1935050505015801561188a573d6000803e3d6000fd5b5060078101805460ff19166006179055600280820154600180840154600585015460408051888152908101829052606060208201818152600389018054610100978116159790970260001901909616979097049082018190526001600160a01b039586169695909316947fbe0490d452ff53df72b8d99df1c2a4711a2429c8dbb450f514d37b0b03e0db3794899490939291906080830190859080156119715780601f1061194657610100808354040283529160200191611971565b820191906000526020600020905b81548152906001019060200180831161195457829003601f168201915b505094505050505060405180910390a35050565b60025461010090046001600160a01b031633146119d35760405162461bcd60e51b81526004018080602001828103825260318152602001806145616031913960400191505060405180910390fd5b6002805460ff19166001179055565b606060015460001415611a05576040805160008082526020820190925290610cd4565b6060600154604051908082528060200260200182016040528015611a33578160200160208202803883390190505b509050600060015b6001548111611ad5576000818152602081905260409020600101546001600160a01b031615801590611a8c5750600160008281526020819052604090206007015460ff166008811115611a8a57fe5b145b15611acd576000818152602081905260409020548351849084908110611aae57fe5b6020908102919091010152611aca82600163ffffffff61431b16565b91505b600101611a3b565b50606081604051908082528060200260200182016040528015611b02578160200160208202803883390190505b50905060005b82811015610e1a57838181518110611b1c57fe5b6020026020010151828281518110611b3057fe5b6020908102919091010152600101611b08565b60025460ff161515600114611b895760405162461bcd60e51b81526004018080602001828103825260228152602001806144f86022913960400191505060405180910390fd5b611b916143fa565b6000828152602081815260409182902082516101008082018552825482526001808401546001600160a01b0390811684870152600280860154909116848801526003850180548851938116159094026000190190931604601f810186900486028201860190965285815291949293606086019390830182828015611c565780601f10611c2b57610100808354040283529160200191611c56565b820191906000526020600020905b815481529060010190602001808311611c3957829003601f168201915b505050918352505060048201805460408051602060026001851615610100026000190190941693909304601f8101849004840282018401909252818152938201939291830182828015611cea5780601f10611cbf57610100808354040283529160200191611cea565b820191906000526020600020905b815481529060010190602001808311611ccd57829003601f168201915b5050509183525050600582015460208083019190915260068301805460408051601f60026000196101006001871615020190941693909304928301859004850281018501825282815294019392830182828015611d885780601f10611d5d57610100808354040283529160200191611d88565b820191906000526020600020905b815481529060010190602001808311611d6b57829003601f168201915b5050509183525050600782015460209091019060ff166008811115611da957fe5b6008811115611db457fe5b90525060208101519091506001600160a01b0316611dd25750611012565b60208101516001600160a01b03163314611e1d5760405162461bcd60e51b815260040180806020018281038252602681526020018061451a6026913960400191505060405180910390fd5b606081015160008381526020819052604081208181556001810180546001600160a01b0319908116909155600282018054909116905590611e61600383018261445b565b611e6f60048301600061445b565b6005820160009055600682016000611e87919061445b565b50600701805460ff19169055604080518481526020808201838152845193830193909352835133937f0bac8d70ddda9ec612d317fa2968f6f746b59169d04a223ec870eb6447a7c7f49388938793919291606084019185019080838360005b83811015611efe578181015183820152602001611ee6565b50505050905090810190601f168015611f2b5780820380516001836020036101000a031916815260200191505b50935050505060405180910390a2505050565b606060015460001415611f61576040805160008082526020820190925290610cd4565b6060600154604051908082528060200260200182016040528015611f8f578160200160208202803883390190505b509050600060015b6001548111612055576000818152602081905260409020600101546001600160a01b0316331480611fe157506000818152602081905260409020600201546001600160a01b031633145b801561200c5750600560008281526020819052604090206007015460ff16600881111561200a57fe5b145b1561204d57600081815260208190526040902054835184908490811061202e57fe5b602090810291909101015261204a82600163ffffffff61431b16565b91505b600101611f97565b50606081604051908082528060200260200182016040528015612082578160200160208202803883390190505b50905060005b82811015610e1a5783818151811061209c57fe5b60200260200101518282815181106120b057fe5b6020908102919091010152600101612088565b60025460ff1615156001146121095760405162461bcd60e51b81526004018080602001828103825260228152602001806144f86022913960400191505060405180910390fd5b82518390612154576040805162461bcd60e51b815260206004820152601360248201527210481d1a5d1b19481a5cc81c995c5d5a5c9959606a1b604482015290519081900360640190fd5b825183906121a5576040805162461bcd60e51b8152602060048201526019602482015278104819195cd8dc9a5c1d1a5bdb881a5cc81c995c5d5a5c9959603a1b604482015290519081900360640190fd5b600180546121b89163ffffffff61431b16565b600181815560408051610100810182528381523360208083019182526000838501818152606085018d8152608086018d905260a086018c90528651808501885283815260c087015260e0860183905297825281835294902083518155915194820180546001600160a01b039687166001600160a01b0319918216179091559351600283018054919096169416939093179093559251805161225f926003850192019061437c565b506080820151805161227b91600484019160209091019061437c565b5060a0820151600582015560c082015180516122a191600684019160209091019061437c565b5060e082015160078201805460ff191660018360088111156122bf57fe5b0217905550905050336001600160a01b03167fc8e7a8f4fbf568a726fe7b162d56bb8a313fa7ec7f274c6390969cb322a0f79460015487866040518084815260200180602001838152602001828103825284818151815260200191508051906020019080838360005b83811015612340578181015183820152602001612328565b50505050905090810190601f16801561236d5780820380516001836020036101000a031916815260200191505b5094505050505060405180910390a25050505050565b60025460ff1615156001146123c95760405162461bcd60e51b81526004018080602001828103825260228152602001806144f86022913960400191505060405180910390fd5b600081815260208190526040902060018101546001600160a01b03166123ef5750611012565b60018101546001600160a01b0316331461243a5760405162461bcd60e51b815260040180806020018281038252602681526020018061451a6026913960400191505060405180910390fd5b6002600782015460ff16600881111561244f57fe5b1461249a576040805162461bcd60e51b815260206004820152601660248201527550726f706f73616c206e6f7420696e2072657669657760501b604482015290519081900360640190fd5b806005015434146124dc5760405162461bcd60e51b815260040180806020018281038252602f815260200180614592602f913960400191505060405180910390fd5b60078101805460ff191660039081179091556002808301546001808501546005860154604080518981529081018290526060602082018181529789018054610100968116159690960260001901909516969096049581018690526001600160a01b039485169694909216947fd0ca6107f6c9513954ca859c885b1e8b434687b6cf5e40625574d53dda8422ed94899493916080830190859080156119715780601f1061194657610100808354040283529160200191611971565b60025460ff1615156001146125dc5760405162461bcd60e51b81526004018080602001828103825260228152602001806144f86022913960400191505060405180910390fd5b600081815260208190526040902060018101546001600160a01b03166126025750611012565b60028101546001600160a01b0316331461264d5760405162461bcd60e51b81526004018080602001828103825260218152602001806144d76021913960400191505060405180910390fd5b6003600782015460ff16600881111561266257fe5b146126ae576040805162461bcd60e51b815260206004820152601760248201527650726f6a656374206e6f7420696e2070726f677265737360481b604482015290519081900360640190fd5b60078101805460ff19166004179055600280820154600180840154600585015460408051888152908101829052606060208201818152600389018054610100978116159790970260001901909616979097049082018190526001600160a01b039586169695909316947f2c29e86efe7dba61218108fc48fc467f0b2d89a5dd6741ff0df4b17bdf5cab6894899490939291906080830190859080156119715780601f1061194657610100808354040283529160200191611971565b60025460ff1690565b60025460ff1615156001146127b85760405162461bcd60e51b81526004018080602001828103825260228152602001806144f86022913960400191505060405180910390fd5b600081815260208190526040902060018101546001600160a01b03166127de5750611012565b6001600782015460ff1660088111156127f357fe5b14612845576040805162461bcd60e51b815260206004820152601960248201527f50726f6a656374206e6f206d6f726520617661696c61626c6500000000000000604482015290519081900360640190fd5b600280820180546001600160a01b0319163317905560078201805460ff191660018302179055506001818101546005830154604080518681529081018290526060602082018181526003870180546002610100988216159890980260001901169690960491830182905233956001600160a01b03909516947f337b4516025ec150291d21f457dad5d6d43ea3f7da34432124932cd2a6b700b194899491939092906080830190859080156119715780601f1061194657610100808354040283529160200191611971565b60025460ff1615156001146129555760405162461bcd60e51b81526004018080602001828103825260228152602001806144f86022913960400191505060405180910390fd5b600081815260208190526040902060018101546001600160a01b031661297b5750611012565b60018101546001600160a01b031633146129c65760405162461bcd60e51b815260040180806020018281038252602681526020018061451a6026913960400191505060405180910390fd5b6004600782015460ff1660088111156129db57fe5b14612a175760405162461bcd60e51b81526004018080602001828103825260218152602001806145406021913960400191505060405180910390fd5b600281015460058201546040516001600160a01b039092169181156108fc0291906000818181858888f19350505050158015612a57573d6000803e3d6000fd5b5060078101805460ff191660059081179091556002808301546001808501549385015460408051888152908101829052606060208201818152600389018054610100968116159690960260001901909516969096049082018190526001600160a01b039485169694909416947f72a87e41eb71c3d97ada3d99bed7a092d856bcdc4f034ef117099e051038cd7a948994939291906080830190859080156119715780601f1061194657610100808354040283529160200191611971565b606060015460001415612b37576040805160008082526020820190925290610cd4565b6060600154604051908082528060200260200182016040528015612b65578160200160208202803883390190505b509050600060015b6001548111612bda576000818152602081905260409020600101546001600160a01b031615612bd2576000818152602081905260409020548351849084908110612bb357fe5b6020908102919091010152612bcf82600163ffffffff61431b16565b91505b600101612b6d565b50606081604051908082528060200260200182016040528015612c07578160200160208202803883390190505b50905060005b82811015610e1a57838181518110612c2157fe5b6020026020010151828281518110612c3557fe5b6020908102919091010152600101612c0d565b60025461010090046001600160a01b03163314612c965760405162461bcd60e51b81526004018080602001828103825260318152602001806145616031913960400191505060405180910390fd5b60025460ff161515600114612cdc5760405162461bcd60e51b81526004018080602001828103825260228152602001806144f86022913960400191505060405180910390fd5b6002805460ff19169055600154612cf257612de1565b6060600154604051908082528060200260200182016040528015612d20578160200160208202803883390190505b509050600060015b6001548111612ddd5760008181526020819052604090206003600782015460ff166008811115612d5457fe5b1480612d7257506004600782015460ff166008811115612d7057fe5b145b15612dd457600581015415612dc357600181015460058201546040516001600160a01b039092169181156108fc0291906000818181858888f19350505050158015612dc1573d6000803e3d6000fd5b505b6007818101805460ff191690911790555b50600101612d28565b5050505b565b60025460ff161515600114612e295760405162461bcd60e51b81526004018080602001828103825260228152602001806144f86022913960400191505060405180910390fd5b600081815260208190526040902060018101546001600160a01b0316612e4f5750611012565b60018101546001600160a01b03163314612e9a5760405162461bcd60e51b815260040180806020018281038252602681526020018061451a6026913960400191505060405180910390fd5b6000600782015460ff166008811115612eaf57fe5b14612ef7576040805162461bcd60e51b815260206004820152601360248201527210d85b9b9bdd081899481c1d589b1a5cda1959606a1b604482015290519081900360640190fd5b60078101805460ff191660019081179091556005820154604080518581529081018290526080602082018181526003860180546002968116156101000260001901169590950491830182905233947fea07c326ec88ddea19d72529e511ce438c2cd368f463f890406ab6582b2dc0db9488949193909290606083019060a084019086908015612fc75780601f10612f9c57610100808354040283529160200191612fc7565b820191906000526020600020905b815481529060010190602001808311612faa57829003601f168201915b5050928303905250600081526040805191829003019350915050a25050565b60025460ff16151560011461302c5760405162461bcd60e51b81526004018080602001828103825260228152602001806144f86022913960400191505060405180910390fd5b600084815260208190526040902060018101546001600160a01b03166130525750613278565b60018101546001600160a01b0316331461309d5760405162461bcd60e51b815260040180806020018281038252602681526020018061451a6026913960400191505060405180910390fd5b6000600782015460ff1660088111156130b257fe5b146130ee5760405162461bcd60e51b81526004018080602001828103825260218152602001806144b66021913960400191505060405180910390fd5b83518490613139576040805162461bcd60e51b815260206004820152601360248201527210481d1a5d1b19481a5cc81c995c5d5a5c9959606a1b604482015290519081900360640190fd5b8351849061318a576040805162461bcd60e51b8152602060048201526019602482015278104819195cd8dc9a5c1d1a5bdb881a5cc81c995c5d5a5c9959603a1b604482015290519081900360640190fd5b855161319f906003850190602089019061437c565b5084516131b5906004850190602088019061437c565b50838360050181905550336001600160a01b03167f78ec34897e7f5ea3506eaaa6dcf2edc5ea8eea1c579f1f3d158e55233c602e6960015488876040518084815260200180602001838152602001828103825284818151815260200191508051906020019080838360005b83811015613238578181015183820152602001613220565b50505050905090810190601f1680156132655780820380516001836020036101000a031916815260200191505b5094505050505060405180910390a25050505b50505050565b60025460ff1615156001146132c45760405162461bcd60e51b81526004018080602001828103825260228152602001806144f86022913960400191505060405180910390fd5b600081815260208190526040902060018101546001600160a01b03166132ea5750611012565b60018101546001600160a01b031633146133355760405162461bcd60e51b815260040180806020018281038252602681526020018061451a6026913960400191505060405180910390fd5b6004600782015460ff16600881111561334a57fe5b146133865760405162461bcd60e51b81526004018080602001828103825260218152602001806145406021913960400191505060405180910390fd5b60078101805460ff191660039081179091556002808301546001808501546005860154604080518981529081018290526060602082018181529789018054610100968116159690960260001901909516969096049581018690526001600160a01b039485169694909216947f45db355d424e661e8b7ea210fd36cd8224f4955611152ce93518a27f205467e494899493916080830190859080156119715780601f1061194657610100808354040283529160200191611971565b60025460ff1615156001146134865760405162461bcd60e51b81526004018080602001828103825260228152602001806144f86022913960400191505060405180910390fd5b600081815260208190526040902060018101546001600160a01b03166134ac5750611012565b60018101546001600160a01b031633146134f75760405162461bcd60e51b815260040180806020018281038252602681526020018061451a6026913960400191505060405180910390fd5b6002600782015460ff16600881111561350c57fe5b14613557576040805162461bcd60e51b815260206004820152601660248201527550726f706f73616c206e6f7420696e2072657669657760501b604482015290519081900360640190fd5b6002818101805460078401805460ff191660019081179091556001600160a01b0319821690925581840154600585015460408051888152908101829052606060208201818152600389018054610100988116159890980260001901909716979097049082018190526001600160a01b0394851696879695909416947f4c596893f217ff7756c8fc77bea24399406130928fc25e6ace71d6121fd2643f948a949193919260808301908590801561364e5780601f106136235761010080835404028352916020019161364e565b820191906000526020600020905b81548152906001019060200180831161363157829003601f168201915b505094505050505060405180910390a3505050565b606060015460001415613686576040805160008082526020820190925290610cd4565b60606001546040519080825280602002602001820160405280156136b4578160200160208202803883390190505b509050600060015b600154811161377a576000818152602081905260409020600101546001600160a01b031633148061370657506000818152602081905260409020600201546001600160a01b031633145b80156137315750600660008281526020819052604090206007015460ff16600881111561372f57fe5b145b1561377257600081815260208190526040902054835184908490811061375357fe5b602090810291909101015261376f82600163ffffffff61431b16565b91505b6001016136bc565b506060816040519080825280602002602001820160405280156137a7578160200160208202803883390190505b50905060005b82811015610e1a578381815181106137c157fe5b60200260200101518282815181106137d557fe5b60209081029190910101526001016137ad565b60606001546000141561380b576040805160008082526020820190925290610cd4565b6060600154604051908082528060200260200182016040528015613839578160200160208202803883390190505b509050600060015b6001548111613928576000818152602081905260409020600101546001600160a01b031633148061388b57506000818152602081905260409020600201546001600160a01b031633145b80156138df5750600360008281526020819052604090206007015460ff1660088111156138b457fe5b14806138df5750600460008281526020819052604090206007015460ff1660088111156138dd57fe5b145b1561392057600081815260208190526040902054835184908490811061390157fe5b602090810291909101015261391d82600163ffffffff61431b16565b91505b600101613841565b50606081604051908082528060200260200182016040528015613955578160200160208202803883390190505b50905060005b82811015610e1a5783818151811061396f57fe5b602002602001015182828151811061398357fe5b602090810291909101015260010161395b565b6060600154600014156139b9576040805160008082526020820190925290610cd4565b60606001546040519080825280602002602001820160405280156139e7578160200160208202803883390190505b509050600060015b6001548111613ab6576000818152602081905260409020600101546001600160a01b031633148015613a415750600560008281526020819052604090206007015460ff166008811115613a3e57fe5b14155b8015613a6d5750600660008281526020819052604090206007015460ff166008811115613a6a57fe5b14155b15613aae576000818152602081905260409020548351849084908110613a8f57fe5b6020908102919091010152613aab82600163ffffffff61431b16565b91505b6001016139ef565b50606081604051908082528060200260200182016040528015613ae3578160200160208202803883390190505b50905060005b82811015610e1a57838181518110613afd57fe5b6020026020010151828281518110613b1157fe5b6020908102919091010152600101613ae9565b606060015460001415613b47576040805160008082526020820190925290610cd4565b6060600154604051908082528060200260200182016040528015613b75578160200160208202803883390190505b509050600060015b6001548111613c17576000818152602081905260409020600101546001600160a01b031633148015613bce5750600260008281526020819052604090206007015460ff166008811115613bcc57fe5b145b15613c0f576000818152602081905260409020548351849084908110613bf057fe5b6020908102919091010152613c0c82600163ffffffff61431b16565b91505b600101613b7d565b50606081604051908082528060200260200182016040528015613c44578160200160208202803883390190505b50905060005b82811015610e1a57838181518110613c5e57fe5b6020026020010151828281518110613c7257fe5b6020908102919091010152600101613c4a565b60025460ff161515600114613ccb5760405162461bcd60e51b81526004018080602001828103825260228152602001806144f86022913960400191505060405180910390fd5b600081815260208190526040902060018101546001600160a01b0316613cf15750611012565b60028101546001600160a01b03163314613d3c5760405162461bcd60e51b81526004018080602001828103825260218152602001806144d76021913960400191505060405180910390fd5b6002600782015460ff166008811115613d5157fe5b14613d9c576040805162461bcd60e51b815260206004820152601660248201527550726f706f73616c206e6f7420696e2072657669657760501b604482015290519081900360640190fd5b6002818101805460078401805460ff191660019081179091556001600160a01b0319821690925581840154600585015460408051888152908101829052606060208201818152600389018054610100988116159890980260001901909716979097049082018190526001600160a01b0394851696879695909416947fda2bae36f5d87ea886fd53cadaade9c848558e3ba0ce0b05a90d6203787fec45948a949193919260808301908590801561364e5780601f106136235761010080835404028352916020019161364e565b600080606080600060606000613e7c6143fa565b6000898152602081815260409182902082516101008082018552825482526001808401546001600160a01b0390811684870152600280860154909116848801526003850180548851938116159094026000190190931604601f810186900486028201860190965285815291949293606086019390830182828015613f415780601f10613f1657610100808354040283529160200191613f41565b820191906000526020600020905b815481529060010190602001808311613f2457829003601f168201915b505050918352505060048201805460408051602060026001851615610100026000190190941693909304601f8101849004840282018401909252818152938201939291830182828015613fd55780601f10613faa57610100808354040283529160200191613fd5565b820191906000526020600020905b815481529060010190602001808311613fb857829003601f168201915b5050509183525050600582015460208083019190915260068301805460408051601f600260001961010060018716150201909416939093049283018590048502810185018252828152940193928301828280156140735780601f1061404857610100808354040283529160200191614073565b820191906000526020600020905b81548152906001019060200180831161405657829003601f168201915b5050509183525050600782015460209091019060ff16600881111561409457fe5b600881111561409f57fe5b90525060208101519091506001600160a01b03166140f55750506040805160208082018352600080835283518083018552818152845192830190945280825298508897509095509093508592509050600861412c565b602081015160408201516060830151608084015160a085015160c086015160e090960151949c50929a509098509650945090925090505b919395979092949650565b60025460ff16151560011461417d5760405162461bcd60e51b81526004018080602001828103825260228152602001806144f86022913960400191505060405180910390fd5b600081815260208190526040902060018101546001600160a01b03166141a35750611012565b60028101546001600160a01b031633146141ee5760405162461bcd60e51b81526004018080602001828103825260218152602001806144d76021913960400191505060405180910390fd5b6003600782015460ff16600881111561420357fe5b1461424f576040805162461bcd60e51b815260206004820152601760248201527650726f6a656374206e6f7420696e2070726f677265737360481b604482015290519081900360640190fd5b6002818101805460078401805460ff191660019081179091556001600160a01b0319821690925581840154600585015460408051888152908101829052606060208201818152600389018054610100988116159890980260001901909716979097049082018190526001600160a01b0394851696879695909416947fd1ed06115c7e42f61501cf18bfd02f10359381afe0d93bc31f146a45a4fb78ab948a949193919260808301908590801561364e5780601f106136235761010080835404028352916020019161364e565b600082820183811015614375576040805162461bcd60e51b815260206004820152601b60248201527f536166654d6174683a206164646974696f6e206f766572666c6f770000000000604482015290519081900360640190fd5b9392505050565b828054600181600116156101000203166002900490600052602060002090601f016020900481019282601f106143bd57805160ff19168380011785556143ea565b828001600101855582156143ea579182015b828111156143ea5782518255916020019190600101906143cf565b506143f692915061449b565b5090565b6040518061010001604052806000815260200160006001600160a01b0316815260200160006001600160a01b03168152602001606081526020016060815260200160008152602001606081526020016000600881111561445657fe5b905290565b50805460018160011615610100020316600290046000825580601f106144815750611012565b601f01602090049060005260206000209081019061101291905b610e2091905b808211156143f657600081556001016144a156fe43616e6e6f742062652075706461746564207768696c65207075626c6973686564596f7520617265206e6f742074686520736572766963652066756c66696c6c657254686520636f6e7472616374206973206e6f74206d6f726520617661696c61626c65596f7520617265206e6f742074686520697373756572206f6620746869732070726f6a65637450726f6a656374206e6f7420696e2076616c69646174696f6e2070726f63657373546869732063616c6c206973206f6e6c7920616c6c6f7765722062792074686520636f6e74726163742773206f776e6572596f7572206465706f73697420646f65736e2774206d617463682074686520636f6e74726163742773207072696365a265627a7a72315820200327feebb7522b23e80858d5e9b950ff74d2fca71881e3902fa1f1eb4041e164736f6c63430005100032",
  "source": "pragma solidity >=0.4.21 <0.7.0;\n\nimport \"openzeppelin-solidity/contracts/math/SafeMath.sol\";\n\n/// @title Decentralised business platform\n/// @author Said Eloudrhiri (ChainSkills) - Devoxx Morocco 2019\n/// @notice Learn how to create a smart contract to simulate a decentralised business platform to issue and fulfill projects\n/// @dev This smart contract is for illustration purpose only and should not be used in the mainNet\ncontract ChainBizz {\n    using SafeMath for uint256;\n\n    /*\n   * Enum\n   */\n\n    // Defines the status of the project\n    enum ProjectStatus {\n        Draft,\n        Available,\n        InReview,\n        OnGoing,\n        Validate,\n        Completed,\n        Canceled,\n        Refunded,\n        Unknown\n    }\n\n    /*\n   * Structs\n   */\n\n    // Description of a project\n    struct ProjectItem {\n        uint256 id; // unique ID\n        address payable issuer;\n        address payable fulfiller;\n        string title;\n        string description;\n        uint256 price; // price in Wei\n        string ipfsHash;\n        ProjectStatus status;\n    }\n\n    /*\n   * Storage\n   */\n\n    // List of projects\n    mapping(uint256 => ProjectItem) public projects;\n\n    // Number of registered projects\n    uint256 projectsCounter;\n\n    // Defines if the contract is still enable or not\n    bool enabledContract;\n\n    // Keep contract's issuer address\n    address owner;\n\n    /*\n   * Modifiers\n   */\n\n    modifier onlyEnable() {\n        require(enabledContract == true, \"The contract is not more available\");\n        _;\n    }\n\n    modifier onlyOwner() {\n        require(\n            msg.sender == owner,\n            \"This call is only allower by the contract's owner\"\n        );\n        _;\n    }\n\n    /*\n   * Events\n   */\n    event NewProject(\n        uint256 id,\n        address indexed issuer,\n        string title,\n        uint256 price\n    );\n    event UpdateProject(\n        uint256 id,\n        address indexed issuer,\n        string title,\n        uint256 price\n    );\n    event RemoveProject(uint256 id, address indexed issuer, string title);\n    event PublishedProject(\n        uint256 id,\n        address indexed issuer,\n        string title,\n        uint256 price,\n        string ipfsHash\n    );\n    event UnpublishedProject(\n        uint256 id,\n        address indexed issuer,\n        string title,\n        uint256 price\n    );\n    event OfferSubmitted(\n        uint256 id,\n        address indexed issuer,\n        address indexed fulfiller,\n        string title,\n        uint256 price\n    );\n    event OfferCanceled(\n        uint256 id,\n        address indexed issuer,\n        address indexed fulfiller,\n        string title,\n        uint256 price\n    );\n    event AcceptProposal(\n        uint256 id,\n        address indexed issuer,\n        address indexed fulfiller,\n        string title,\n        uint256 price\n    );\n    event RejectProposal(\n        uint256 id,\n        address indexed issuer,\n        address indexed fulfiller,\n        string title,\n        uint256 price\n    );\n    event ProjectDelivered(\n        uint256 id,\n        address indexed issuer,\n        address indexed fulfiller,\n        string title,\n        uint256 price\n    );\n    event ServicesCanceled(\n        uint256 id,\n        address indexed issuer,\n        address indexed fulfiller,\n        string title,\n        uint256 price\n    );\n    event DeliveryAccepted(\n        uint256 id,\n        address indexed issuer,\n        address indexed fulfiller,\n        string title,\n        uint256 price\n    );\n    event DeliveryRejected(\n        uint256 id,\n        address indexed issuer,\n        address indexed fulfiller,\n        string title,\n        uint256 price\n    );\n    event ContractCanceled(\n        uint256 id,\n        address indexed issuer,\n        address indexed fulfiller,\n        string title,\n        uint256 price\n    );\n\n    /*\n  * Public functions\n  */\n\n    constructor() public {\n        enabledContract = true;\n        owner = msg.sender;\n    }\n\n    /// @dev Enable the usage of the contract\n    function enableContract() public onlyOwner {\n        enabledContract = true;\n    }\n\n    /// @dev Disable the usage of the contract, change the status of all running projects and payback all issuers\n    function disableContract() public onlyOwner onlyEnable {\n        // First, we disable the contract\n        enabledContract = false;\n\n        // Then, we refund issuers for their running contracts\n\n        // At least one project?\n        if (projectsCounter == 0) {\n            return;\n        }\n\n        // prepare output array\n        uint256[] memory projectIDs = new uint256[](projectsCounter);\n\n        // iterate over projects\n        uint256 numberOfProjects = 0;\n        for (uint256 i = 1; i <= projectsCounter; i++) {\n            // retrieve the project\n            ProjectItem storage project = projects[i];\n\n            // check if this project is published\n            if (\n                (project.status == ProjectStatus.OnGoing) ||\n                (project.status == ProjectStatus.Validate)\n            ) {\n                // Refund the issuer\n                if (project.price > 0) {\n                    // pay back the issuer\n                    project.issuer.transfer(project.price);\n                }\n\n                // project refunded\n                project.status = ProjectStatus.Refunded;\n            }\n        }\n    }\n\n    //\n    // Setters\n    //\n\n    // Add a new project\n    function addProject(\n        string memory _title,\n        string memory _description,\n        uint256 _price\n    ) public onlyEnable {\n        // a title is required\n        bytes memory title = bytes(_title);\n        require(title.length > 0, \"A title is required\");\n\n        // a description is required\n        bytes memory description = bytes(_description);\n        require(description.length > 0, \"A description is required\");\n\n        // new project\n        projectsCounter = projectsCounter.add(1);\n\n        // store the new project\n        projects[projectsCounter] = ProjectItem(\n            projectsCounter,\n            msg.sender,\n            address(0x0),\n            _title,\n            _description,\n            _price,\n            \"\",\n            ProjectStatus.Draft\n        );\n\n        emit NewProject(projectsCounter, msg.sender, _title, _price);\n    }\n\n    // Update an unpublished project\n    function updateProject(\n        uint256 _id,\n        string memory _title,\n        string memory _description,\n        uint256 _price\n    ) public onlyEnable {\n        // retrieve the project\n        ProjectItem storage project = projects[_id];\n\n        // ensure that this project exists\n        if (project.issuer == address(0x0)) {\n            return;\n        }\n\n        // do we own this project?\n        require(\n            project.issuer == msg.sender,\n            \"You are not the issuer of this project\"\n        );\n\n        // ready to be published?\n        require(\n            project.status == ProjectStatus.Draft,\n            \"Cannot be updated while published\"\n        );\n\n        // a title is required\n        bytes memory title = bytes(_title);\n        require(title.length > 0, \"A title is required\");\n\n        // a description is required\n        bytes memory description = bytes(_description);\n        require(description.length > 0, \"A description is required\");\n\n        // update the project\n        project.title = _title;\n        project.description = _description;\n        project.price = _price;\n\n        emit UpdateProject(projectsCounter, msg.sender, _title, _price);\n    }\n\n    // Remove an unpublished project\n    function removeProject(uint256 _id) public onlyEnable {\n        // retrieve the project\n        ProjectItem memory project = projects[_id];\n\n        // ensure that this project exists\n        if (project.issuer == address(0x0)) {\n            return;\n        }\n\n        // do we own this project?\n        require(\n            project.issuer == msg.sender,\n            \"You are not the issuer of this project\"\n        );\n\n        /*\n        // ready to be removed?\n        require(\n            project.status == ProjectStatus.Draft,\n            \"Cannot be removed while published\"\n        );\n        */\n\n        // keep title for future use\n        string memory title = project.title;\n\n        // remove the project\n        delete projects[_id];\n\n        emit RemoveProject(_id, msg.sender, title);\n    }\n\n    // Publish the project to seek for fulfillers\n    function publishProject(\n        string memory _title,\n        string memory _description,\n        uint256 _price,\n        string memory _ipfsHash\n    ) public onlyEnable {\n        // a title is required\n        bytes memory title = bytes(_title);\n        require(title.length > 0, \"A title is required\");\n\n        // a description is required\n        bytes memory description = bytes(_description);\n        require(description.length > 0, \"A description is required\");\n\n        // The hash to IPFS is required\n        bytes memory ipfsHash = bytes(_ipfsHash);\n        require(ipfsHash.length > 0, \"A hash to IPFS is required\");\n\n        // new project\n        projectsCounter = projectsCounter.add(1);\n\n        // store the new project\n        projects[projectsCounter] = ProjectItem(\n            projectsCounter,\n            msg.sender,\n            address(0x0),\n            _title,\n            _description,\n            _price,\n            _ipfsHash,\n            ProjectStatus.Available\n        );\n\n        emit PublishedProject(\n            projectsCounter,\n            msg.sender,\n            _title,\n            _price,\n            _ipfsHash\n        );\n    }\n\n    // Publish the project to seek for fulfillers\n    function publishProjectOld(uint256 _id) public onlyEnable {\n        // retrieve the project\n        ProjectItem storage project = projects[_id];\n\n        // ensure that this project exists\n        if (project.issuer == address(0x0)) {\n            return;\n        }\n\n        // do we own this project?\n        require(\n            project.issuer == msg.sender,\n            \"You are not the issuer of this project\"\n        );\n\n        // ready to be published?\n        require(project.status == ProjectStatus.Draft, \"Cannot be published\");\n\n        // publish the project to be available for services\n        project.status = ProjectStatus.Available;\n\n        emit PublishedProject(\n            _id,\n            msg.sender,\n            project.title,\n            project.price,\n            \"\"\n        );\n    }\n\n    // Unpublish the project\n    // A project can be unpublished ONLY if it's already published and not already part of a contract\n    function unpublishProject(uint256 _id) public onlyEnable {\n        // retrieve the project\n        ProjectItem storage project = projects[_id];\n\n        // ensure that this project exists\n        if (project.issuer == address(0x0)) {\n            return;\n        }\n\n        // do we own this project?\n        require(\n            project.issuer == msg.sender,\n            \"You are not the issuer of this project\"\n        );\n\n        // ready to be unpublished?\n        require(\n            project.status == ProjectStatus.Available,\n            \"Cannot be unpublished\"\n        );\n\n        // unpublish the project\n        project.status = ProjectStatus.Draft;\n\n        emit UnpublishedProject(_id, msg.sender, project.title, project.price);\n    }\n\n    // Offer services for the project\n    // A fulfiller offers his/her services to perform the project\n    function submitOffer(uint256 _id) public onlyEnable {\n        // retrieve the project\n        ProjectItem storage project = projects[_id];\n\n        // ensure that this project exists\n        if (project.issuer == address(0x0)) {\n            return;\n        }\n\n        // is the project available?\n        require(\n            project.status == ProjectStatus.Available,\n            \"Project no more available\"\n        );\n\n        // store the address of the fulfiller\n        project.fulfiller = msg.sender;\n\n        // project is under review\n        project.status = ProjectStatus.InReview;\n\n        emit OfferSubmitted(\n            _id,\n            project.issuer,\n            msg.sender,\n            project.title,\n            project.price\n        );\n    }\n\n    // Cancel offer made by the fulfiller\n    // A fulfiller cancels his/her offer to perform the project\n    function cancelOffer(uint256 _id) public onlyEnable {\n        // retrieve the project\n        ProjectItem storage project = projects[_id];\n\n        // ensure that this project exists\n        if (project.issuer == address(0x0)) {\n            return;\n        }\n\n        // are we the service fulfiller?\n        require(\n            project.fulfiller == msg.sender,\n            \"You are not the service fulfiller\"\n        );\n\n        // is the project in review?\n        require(\n            project.status == ProjectStatus.InReview,\n            \"Proposal not in review\"\n        );\n\n        // project is now available\n        address payable fulfiller = project.fulfiller;\n        project.status = ProjectStatus.Available;\n        project.fulfiller = address(0x0);\n\n        emit OfferCanceled(\n            _id,\n            project.issuer,\n            fulfiller,\n            project.title,\n            project.price\n        );\n    }\n\n    // Accept services from the fulfiller\n    // The issuer accepts the services offered by the fulfiller\n    function acceptProposal(uint256 _id) public payable onlyEnable {\n        // retrieve the project\n        ProjectItem storage project = projects[_id];\n\n        // ensure that this project exists\n        if (project.issuer == address(0x0)) {\n            return;\n        }\n\n        // do we own this project?\n        require(\n            project.issuer == msg.sender,\n            \"You are not the issuer of this project\"\n        );\n\n        // is the project in review?\n        require(\n            project.status == ProjectStatus.InReview,\n            \"Proposal not in review\"\n        );\n\n        // is the issuer has deposit the requeste amount?\n        require(\n            msg.value == project.price,\n            \"Your deposit doesn't match the contract's price\"\n        );\n\n        // project is now ongoing\n        project.status = ProjectStatus.OnGoing;\n\n        emit AcceptProposal(\n            _id,\n            project.issuer,\n            project.fulfiller,\n            project.title,\n            project.price\n        );\n    }\n\n    // Reject proposal from the fulfiller\n    // The issuer rejects the services offered by the fulfiller\n    function rejectProposal(uint256 _id) public onlyEnable {\n        // retrieve the project\n        ProjectItem storage project = projects[_id];\n\n        // ensure that this project exists\n        if (project.issuer == address(0x0)) {\n            return;\n        }\n\n        // do we own this project?\n        require(\n            project.issuer == msg.sender,\n            \"You are not the issuer of this project\"\n        );\n\n        // is the project in review?\n        require(\n            project.status == ProjectStatus.InReview,\n            \"Proposal not in review\"\n        );\n\n        // project is now available\n        address payable fulfiller = project.fulfiller;\n        project.status = ProjectStatus.Available;\n        project.fulfiller = address(0x0);\n\n        emit RejectProposal(\n            _id,\n            project.issuer,\n            fulfiller,\n            project.title,\n            project.price\n        );\n    }\n\n    // Deliver the project to the customer\n    // The fulfiller delivers the project to the issuer\n    function deliverProject(uint256 _id) public onlyEnable {\n        // retrieve the project\n        ProjectItem storage project = projects[_id];\n\n        // ensure that this project exists\n        if (project.issuer == address(0x0)) {\n            return;\n        }\n\n        // are we the service fulfiller?\n        require(\n            project.fulfiller == msg.sender,\n            \"You are not the service fulfiller\"\n        );\n\n        // is the project ongoing?\n        require(\n            project.status == ProjectStatus.OnGoing,\n            \"Project not in progress\"\n        );\n\n        // project is now validation process\n        project.status = ProjectStatus.Validate;\n\n        emit ProjectDelivered(\n            _id,\n            project.issuer,\n            project.fulfiller,\n            project.title,\n            project.price\n        );\n    }\n\n    // Cancel services from the fulfiller\n    // The fulfiller cancels the services performed for the project\n    function cancelServices(uint256 _id) public onlyEnable {\n        // retrieve the project\n        ProjectItem storage project = projects[_id];\n\n        // ensure that this project exists\n        if (project.issuer == address(0x0)) {\n            return;\n        }\n\n        // are we the service fulfiller?\n        require(\n            project.fulfiller == msg.sender,\n            \"You are not the service fulfiller\"\n        );\n\n        // is the project ongoing?\n        require(\n            project.status == ProjectStatus.OnGoing,\n            \"Project not in progress\"\n        );\n\n        // project becomes available\n        address payable fulfiller = project.fulfiller;\n        project.status = ProjectStatus.Available;\n        project.fulfiller = address(0x0);\n\n        emit ServicesCanceled(\n            _id,\n            project.issuer,\n            fulfiller,\n            project.title,\n            project.price\n        );\n    }\n\n    // Accept the project delivery from the fulfiller\n    // The issuer accepts the project delivered by the fulfiller\n    function acceptDelivery(uint256 _id) public onlyEnable {\n        // retrieve the project\n        ProjectItem storage project = projects[_id];\n\n        // ensure that this project exists\n        if (project.issuer == address(0x0)) {\n            return;\n        }\n\n        // do we own this project?\n        require(\n            project.issuer == msg.sender,\n            \"You are not the issuer of this project\"\n        );\n\n        // is the project in review?\n        require(\n            project.status == ProjectStatus.Validate,\n            \"Project not in validation process\"\n        );\n\n        // pay the service provide\n        project.fulfiller.transfer(project.price);\n\n        // project is now completed\n        project.status = ProjectStatus.Completed;\n\n        emit DeliveryAccepted(\n            _id,\n            project.issuer,\n            project.fulfiller,\n            project.title,\n            project.price\n        );\n    }\n\n    // Reject the project delivery from the fulfiller\n    // The issuer rejects the project delivered by the fulfiller\n    function rejectDelivery(uint256 _id) public onlyEnable {\n        // retrieve the project\n        ProjectItem storage project = projects[_id];\n\n        // ensure that this project exists\n        if (project.issuer == address(0x0)) {\n            return;\n        }\n\n        // do we own this project?\n        require(\n            project.issuer == msg.sender,\n            \"You are not the issuer of this project\"\n        );\n\n        // is the project in review?\n        require(\n            project.status == ProjectStatus.Validate,\n            \"Project not in validation process\"\n        );\n\n        // project remains ongoing\n        project.status = ProjectStatus.OnGoing;\n\n        emit DeliveryRejected(\n            _id,\n            project.issuer,\n            project.fulfiller,\n            project.title,\n            project.price\n        );\n    }\n\n    // Contract canceled by the issuer\n    // The issuer cancels the contract\n    function cancelContract(uint256 _id) public onlyEnable {\n        // retrieve the project\n        ProjectItem storage project = projects[_id];\n\n        // ensure that this project exists\n        if (project.issuer == address(0x0)) {\n            return;\n        }\n\n        // are we the service fulfiller?\n        require(\n            project.issuer == msg.sender,\n            \"You are not the project's issuer\"\n        );\n\n        // is the project ongoing?\n        require(\n            (project.status == ProjectStatus.OnGoing) ||\n                (project.status == ProjectStatus.Validate),\n            \"Project not in progress\"\n        );\n\n        // pay back the contract's issuer\n        project.issuer.transfer(project.price);\n\n        // contract becomes canceled\n        project.status = ProjectStatus.Canceled;\n\n        emit ContractCanceled(\n            _id,\n            project.issuer,\n            project.fulfiller,\n            project.title,\n            project.price\n        );\n    }\n\n    //\n    // Getters\n    //\n\n    // Retrieve if the contract is still enable or not\n    function isEnabled() public view returns (bool) {\n        return enabledContract;\n    }\n\n    // Retrieve a project from its id\n    function getProject(uint256 _id)\n        public\n        view\n        returns (\n            address issuer,\n            address fulfiller,\n            string memory title,\n            string memory description,\n            uint256 price,\n            string memory ipfsHash,\n            ProjectStatus status\n        )\n    {\n        ProjectItem memory project = projects[_id];\n\n        // ensure that we have a project to fetch\n        if (project.issuer == address(0x0)) {\n            return (\n                address(0x0),\n                address(0x0),\n                \"\",\n                \"\",\n                0,\n                \"\",\n                ProjectStatus.Unknown\n            );\n        }\n\n        return (\n            project.issuer,\n            project.fulfiller,\n            project.title,\n            project.description,\n            project.price,\n            project.ipfsHash,\n            project.status\n        );\n    }\n\n    // return all projects\n    function getAllProjects() public view returns (uint256[] memory) {\n        if (projectsCounter == 0) {\n            return new uint256[](0);\n        }\n\n        // prepare output array\n        uint256[] memory projectIDs = new uint256[](projectsCounter);\n\n        // iterate over projects\n        uint256 numberOfProjects = 0;\n        for (uint256 i = 1; i <= projectsCounter; i++) {\n            // skip deleted projects\n            if (projects[i].issuer != address(0x0)) {\n                projectIDs[numberOfProjects] = projects[i].id;\n                numberOfProjects = numberOfProjects.add(1);\n            }\n        }\n\n        // copy the project ID array into a smaller array\n        uint256[] memory allProjects = new uint256[](numberOfProjects);\n        for (uint256 j = 0; j < numberOfProjects; j++) {\n            allProjects[j] = projectIDs[j];\n        }\n\n        return allProjects;\n    }\n\n    // return all published projects\n    function getPublishedProjects() public view returns (uint256[] memory) {\n        if (projectsCounter == 0) {\n            return new uint256[](0);\n        }\n\n        // prepare output array\n        uint256[] memory projectIDs = new uint256[](projectsCounter);\n\n        // iterate over projects\n        uint256 numberOfProjects = 0;\n        for (uint256 i = 1; i <= projectsCounter; i++) {\n            // get only published and active projects\n            if (\n                (projects[i].issuer != address(0x0)) &&\n                (projects[i].status == ProjectStatus.Available)\n            ) {\n                projectIDs[numberOfProjects] = projects[i].id;\n                numberOfProjects = numberOfProjects.add(1);\n            }\n        }\n\n        // copy the project ID array into a smaller array\n        uint256[] memory allProjects = new uint256[](numberOfProjects);\n        for (uint256 j = 0; j < numberOfProjects; j++) {\n            allProjects[j] = projectIDs[j];\n        }\n\n        return allProjects;\n    }\n\n    // return all projects owned by the sender\n    function getMyProjects() public view returns (uint256[] memory) {\n        if (projectsCounter == 0) {\n            return new uint256[](0);\n        }\n\n        // prepare output array\n        uint256[] memory projectIDs = new uint256[](projectsCounter);\n\n        // iterate over projects\n        uint256 numberOfProjects = 0;\n        for (uint256 i = 1; i <= projectsCounter; i++) {\n            // keep the ID of the project owned by the caller\n            if (\n                (projects[i].issuer == msg.sender) &&\n                (projects[i].status != ProjectStatus.Completed) &&\n                (projects[i].status != ProjectStatus.Canceled)\n            ) {\n                projectIDs[numberOfProjects] = projects[i].id;\n\n                numberOfProjects = numberOfProjects.add(1);\n            }\n        }\n\n        // copy the project ID array into a smaller array\n        uint256[] memory myProjects = new uint256[](numberOfProjects);\n        for (uint256 j = 0; j < numberOfProjects; j++) {\n            myProjects[j] = projectIDs[j];\n        }\n\n        return myProjects;\n    }\n\n    // return all my offers waiting for review\n    function getMyOffers() public view returns (uint256[] memory) {\n        if (projectsCounter == 0) {\n            return new uint256[](0);\n        }\n\n        // prepare output array\n        uint256[] memory projectIDs = new uint256[](projectsCounter);\n\n        // iterate over projects\n        uint256 numberOfProjects = 0;\n        for (uint256 i = 1; i <= projectsCounter; i++) {\n            // keep the ID of the project with the sender as fulfiller and the project still in review process\n            if (\n                (projects[i].fulfiller == msg.sender) &&\n                (projects[i].status == ProjectStatus.InReview)\n            ) {\n                projectIDs[numberOfProjects] = projects[i].id;\n\n                numberOfProjects = numberOfProjects.add(1);\n            }\n        }\n\n        // copy the project ID array into a smaller array\n        uint256[] memory myOffers = new uint256[](numberOfProjects);\n        for (uint256 j = 0; j < numberOfProjects; j++) {\n            myOffers[j] = projectIDs[j];\n        }\n\n        return myOffers;\n    }\n\n    // return all projects waiting for review\n    function getMyReviews() public view returns (uint256[] memory) {\n        if (projectsCounter == 0) {\n            return new uint256[](0);\n        }\n\n        // prepare output array\n        uint256[] memory projectIDs = new uint256[](projectsCounter);\n\n        // iterate over projects\n        uint256 numberOfProjects = 0;\n        for (uint256 i = 1; i <= projectsCounter; i++) {\n            // keep the ID of the project owned by the caller and the project still in review process\n            if (\n                (projects[i].issuer == msg.sender) &&\n                (projects[i].status == ProjectStatus.InReview)\n            ) {\n                projectIDs[numberOfProjects] = projects[i].id;\n\n                numberOfProjects = numberOfProjects.add(1);\n            }\n        }\n\n        // copy the project ID array into a smaller array\n        uint256[] memory myReviews = new uint256[](numberOfProjects);\n        for (uint256 j = 0; j < numberOfProjects; j++) {\n            myReviews[j] = projectIDs[j];\n        }\n\n        return myReviews;\n    }\n\n    // return all ongoing contracts\n    function getMyContracts() public view returns (uint256[] memory) {\n        if (projectsCounter == 0) {\n            return new uint256[](0);\n        }\n\n        // prepare output array\n        uint256[] memory projectIDs = new uint256[](projectsCounter);\n\n        // iterate over projects\n        uint256 numberOfProjects = 0;\n        for (uint256 i = 1; i <= projectsCounter; i++) {\n            // get only ongoing and under validation contracts owned by the issuer or the service fulfiller\n            if (\n                ((projects[i].issuer == msg.sender) ||\n                    (projects[i].fulfiller == msg.sender)) &&\n                ((projects[i].status == ProjectStatus.OnGoing) ||\n                    (projects[i].status == ProjectStatus.Validate))\n            ) {\n                projectIDs[numberOfProjects] = projects[i].id;\n                numberOfProjects = numberOfProjects.add(1);\n            }\n        }\n\n        // copy the project ID array into a smaller array\n        uint256[] memory myContracts = new uint256[](numberOfProjects);\n        for (uint256 j = 0; j < numberOfProjects; j++) {\n            myContracts[j] = projectIDs[j];\n        }\n\n        return myContracts;\n    }\n\n    // return all deliveries to review\n    function getDeliveries() public view returns (uint256[] memory) {\n        if (projectsCounter == 0) {\n            return new uint256[](0);\n        }\n\n        // prepare output array\n        uint256[] memory projectIDs = new uint256[](projectsCounter);\n\n        // iterate over projects\n        uint256 numberOfProjects = 0;\n        for (uint256 i = 1; i <= projectsCounter; i++) {\n            // get only ongoing projects issued by the issuer or the fulfiller\n            if (\n                ((projects[i].issuer == msg.sender) ||\n                    (projects[i].fulfiller == msg.sender)) &&\n                (projects[i].status == ProjectStatus.Validate)\n            ) {\n                projectIDs[numberOfProjects] = projects[i].id;\n                numberOfProjects = numberOfProjects.add(1);\n            }\n        }\n\n        // copy the project ID array into a smaller array\n        uint256[] memory myDeliveries = new uint256[](numberOfProjects);\n        for (uint256 j = 0; j < numberOfProjects; j++) {\n            myDeliveries[j] = projectIDs[j];\n        }\n\n        return myDeliveries;\n    }\n\n    // return all completed contracts\n    function getCompleted() public view returns (uint256[] memory) {\n        if (projectsCounter == 0) {\n            return new uint256[](0);\n        }\n\n        // prepare output array\n        uint256[] memory projectIDs = new uint256[](projectsCounter);\n\n        // iterate over projects\n        uint256 numberOfProjects = 0;\n        for (uint256 i = 1; i <= projectsCounter; i++) {\n            // get only ongoing projects issued by the issuer or the fulfiller\n            if (\n                ((projects[i].issuer == msg.sender) ||\n                    (projects[i].fulfiller == msg.sender)) &&\n                (projects[i].status == ProjectStatus.Completed)\n            ) {\n                projectIDs[numberOfProjects] = projects[i].id;\n                numberOfProjects = numberOfProjects.add(1);\n            }\n        }\n\n        // copy the project ID array into a smaller array\n        uint256[] memory myCompleted = new uint256[](numberOfProjects);\n        for (uint256 j = 0; j < numberOfProjects; j++) {\n            myCompleted[j] = projectIDs[j];\n        }\n\n        return myCompleted;\n    }\n\n    // return all canceled contracts\n    function getCanceled() public view returns (uint256[] memory) {\n        if (projectsCounter == 0) {\n            return new uint256[](0);\n        }\n\n        // prepare output array\n        uint256[] memory projectIDs = new uint256[](projectsCounter);\n\n        // iterate over projects\n        uint256 numberOfProjects = 0;\n        for (uint256 i = 1; i <= projectsCounter; i++) {\n            // get only ongoing projects issued by the issuer or the fulfiller\n            if (\n                ((projects[i].issuer == msg.sender) ||\n                    (projects[i].fulfiller == msg.sender)) &&\n                (projects[i].status == ProjectStatus.Canceled)\n            ) {\n                projectIDs[numberOfProjects] = projects[i].id;\n                numberOfProjects = numberOfProjects.add(1);\n            }\n        }\n\n        // copy the project ID array into a smaller array\n        uint256[] memory myCanceled = new uint256[](numberOfProjects);\n        for (uint256 j = 0; j < numberOfProjects; j++) {\n            myCanceled[j] = projectIDs[j];\n        }\n\n        return myCanceled;\n    }\n}\n",
  "sourcePath": "/Users/eloudsa/ChainSkills/chainbizz/contracts/ChainBizz.sol",
  "compiler": {
    "name": "solc",
    "version": "0.5.16+commit.9c3226ce.Emscripten.clang"
  },
  "schemaVersion": "3.0.23",
  "updatedAt": "2020-02-17T20:22:46.584Z",
  "networkType": "ethereum",
  "devdoc": {
    "author": "Said Eloudrhiri (ChainSkills) - Devoxx Morocco 2019",
    "details": "This smart contract is for illustration purpose only and should not be used in the mainNet",
    "methods": {
      "disableContract()": {
        "details": "Disable the usage of the contract, change the status of all running projects and payback all issuers"
      },
      "enableContract()": {
        "details": "Enable the usage of the contract"
      }
    },
    "title": "Decentralised business platform"
  },
  "userdoc": {
    "methods": {},
    "notice": "Learn how to create a smart contract to simulate a decentralised business platform to issue and fulfill projects"
  }
}