{
  "contractName": "ChainBizz",
  "abi": [
    {
      "inputs": [],
      "payable": false,
      "stateMutability": "nonpayable",
      "type": "constructor"
    },
    {
      "anonymous": false,
      "inputs": [
        {
          "indexed": false,
          "internalType": "uint256",
          "name": "id",
          "type": "uint256"
        },
        {
          "indexed": true,
          "internalType": "address",
          "name": "issuer",
          "type": "address"
        },
        {
          "indexed": true,
          "internalType": "address",
          "name": "fulfiller",
          "type": "address"
        },
        {
          "indexed": false,
          "internalType": "string",
          "name": "title",
          "type": "string"
        },
        {
          "indexed": false,
          "internalType": "uint256",
          "name": "price",
          "type": "uint256"
        }
      ],
      "name": "AcceptProposal",
      "type": "event"
    },
    {
      "anonymous": false,
      "inputs": [
        {
          "indexed": false,
          "internalType": "uint256",
          "name": "id",
          "type": "uint256"
        },
        {
          "indexed": true,
          "internalType": "address",
          "name": "issuer",
          "type": "address"
        },
        {
          "indexed": true,
          "internalType": "address",
          "name": "fulfiller",
          "type": "address"
        },
        {
          "indexed": false,
          "internalType": "string",
          "name": "title",
          "type": "string"
        },
        {
          "indexed": false,
          "internalType": "uint256",
          "name": "price",
          "type": "uint256"
        }
      ],
      "name": "ContractCanceled",
      "type": "event"
    },
    {
      "anonymous": false,
      "inputs": [
        {
          "indexed": false,
          "internalType": "uint256",
          "name": "id",
          "type": "uint256"
        },
        {
          "indexed": true,
          "internalType": "address",
          "name": "issuer",
          "type": "address"
        },
        {
          "indexed": true,
          "internalType": "address",
          "name": "fulfiller",
          "type": "address"
        },
        {
          "indexed": false,
          "internalType": "string",
          "name": "title",
          "type": "string"
        },
        {
          "indexed": false,
          "internalType": "uint256",
          "name": "price",
          "type": "uint256"
        }
      ],
      "name": "DeliveryAccepted",
      "type": "event"
    },
    {
      "anonymous": false,
      "inputs": [
        {
          "indexed": false,
          "internalType": "uint256",
          "name": "id",
          "type": "uint256"
        },
        {
          "indexed": true,
          "internalType": "address",
          "name": "issuer",
          "type": "address"
        },
        {
          "indexed": true,
          "internalType": "address",
          "name": "fulfiller",
          "type": "address"
        },
        {
          "indexed": false,
          "internalType": "string",
          "name": "title",
          "type": "string"
        },
        {
          "indexed": false,
          "internalType": "uint256",
          "name": "price",
          "type": "uint256"
        }
      ],
      "name": "DeliveryRejected",
      "type": "event"
    },
    {
      "anonymous": false,
      "inputs": [
        {
          "indexed": false,
          "internalType": "uint256",
          "name": "id",
          "type": "uint256"
        },
        {
          "indexed": true,
          "internalType": "address",
          "name": "issuer",
          "type": "address"
        },
        {
          "indexed": false,
          "internalType": "string",
          "name": "title",
          "type": "string"
        },
        {
          "indexed": false,
          "internalType": "uint256",
          "name": "price",
          "type": "uint256"
        }
      ],
      "name": "NewProject",
      "type": "event"
    },
    {
      "anonymous": false,
      "inputs": [
        {
          "indexed": false,
          "internalType": "uint256",
          "name": "id",
          "type": "uint256"
        },
        {
          "indexed": true,
          "internalType": "address",
          "name": "issuer",
          "type": "address"
        },
        {
          "indexed": true,
          "internalType": "address",
          "name": "fulfiller",
          "type": "address"
        },
        {
          "indexed": false,
          "internalType": "string",
          "name": "title",
          "type": "string"
        },
        {
          "indexed": false,
          "internalType": "uint256",
          "name": "price",
          "type": "uint256"
        }
      ],
      "name": "OfferCanceled",
      "type": "event"
    },
    {
      "anonymous": false,
      "inputs": [
        {
          "indexed": false,
          "internalType": "uint256",
          "name": "id",
          "type": "uint256"
        },
        {
          "indexed": true,
          "internalType": "address",
          "name": "issuer",
          "type": "address"
        },
        {
          "indexed": true,
          "internalType": "address",
          "name": "fulfiller",
          "type": "address"
        },
        {
          "indexed": false,
          "internalType": "string",
          "name": "title",
          "type": "string"
        },
        {
          "indexed": false,
          "internalType": "uint256",
          "name": "price",
          "type": "uint256"
        }
      ],
      "name": "OfferSubmitted",
      "type": "event"
    },
    {
      "anonymous": false,
      "inputs": [
        {
          "indexed": false,
          "internalType": "uint256",
          "name": "id",
          "type": "uint256"
        },
        {
          "indexed": true,
          "internalType": "address",
          "name": "issuer",
          "type": "address"
        },
        {
          "indexed": true,
          "internalType": "address",
          "name": "fulfiller",
          "type": "address"
        },
        {
          "indexed": false,
          "internalType": "string",
          "name": "title",
          "type": "string"
        },
        {
          "indexed": false,
          "internalType": "uint256",
          "name": "price",
          "type": "uint256"
        }
      ],
      "name": "ProjectDelivered",
      "type": "event"
    },
    {
      "anonymous": false,
      "inputs": [
        {
          "indexed": false,
          "internalType": "uint256",
          "name": "id",
          "type": "uint256"
        },
        {
          "indexed": true,
          "internalType": "address",
          "name": "issuer",
          "type": "address"
        },
        {
          "indexed": false,
          "internalType": "string",
          "name": "title",
          "type": "string"
        },
        {
          "indexed": false,
          "internalType": "uint256",
          "name": "price",
          "type": "uint256"
        },
        {
          "indexed": false,
          "internalType": "string",
          "name": "ipfsHash",
          "type": "string"
        }
      ],
      "name": "PublishedProject",
      "type": "event"
    },
    {
      "anonymous": false,
      "inputs": [
        {
          "indexed": false,
          "internalType": "uint256",
          "name": "id",
          "type": "uint256"
        },
        {
          "indexed": true,
          "internalType": "address",
          "name": "issuer",
          "type": "address"
        },
        {
          "indexed": true,
          "internalType": "address",
          "name": "fulfiller",
          "type": "address"
        },
        {
          "indexed": false,
          "internalType": "string",
          "name": "title",
          "type": "string"
        },
        {
          "indexed": false,
          "internalType": "uint256",
          "name": "price",
          "type": "uint256"
        }
      ],
      "name": "RejectProposal",
      "type": "event"
    },
    {
      "anonymous": false,
      "inputs": [
        {
          "indexed": false,
          "internalType": "uint256",
          "name": "id",
          "type": "uint256"
        },
        {
          "indexed": true,
          "internalType": "address",
          "name": "issuer",
          "type": "address"
        },
        {
          "indexed": false,
          "internalType": "string",
          "name": "title",
          "type": "string"
        }
      ],
      "name": "RemoveProject",
      "type": "event"
    },
    {
      "anonymous": false,
      "inputs": [
        {
          "indexed": false,
          "internalType": "uint256",
          "name": "id",
          "type": "uint256"
        },
        {
          "indexed": true,
          "internalType": "address",
          "name": "issuer",
          "type": "address"
        },
        {
          "indexed": true,
          "internalType": "address",
          "name": "fulfiller",
          "type": "address"
        },
        {
          "indexed": false,
          "internalType": "string",
          "name": "title",
          "type": "string"
        },
        {
          "indexed": false,
          "internalType": "uint256",
          "name": "price",
          "type": "uint256"
        }
      ],
      "name": "ServicesCanceled",
      "type": "event"
    },
    {
      "anonymous": false,
      "inputs": [
        {
          "indexed": false,
          "internalType": "uint256",
          "name": "id",
          "type": "uint256"
        },
        {
          "indexed": true,
          "internalType": "address",
          "name": "issuer",
          "type": "address"
        },
        {
          "indexed": false,
          "internalType": "string",
          "name": "title",
          "type": "string"
        },
        {
          "indexed": false,
          "internalType": "uint256",
          "name": "price",
          "type": "uint256"
        }
      ],
      "name": "UnpublishedProject",
      "type": "event"
    },
    {
      "anonymous": false,
      "inputs": [
        {
          "indexed": false,
          "internalType": "uint256",
          "name": "id",
          "type": "uint256"
        },
        {
          "indexed": true,
          "internalType": "address",
          "name": "issuer",
          "type": "address"
        },
        {
          "indexed": false,
          "internalType": "string",
          "name": "title",
          "type": "string"
        },
        {
          "indexed": false,
          "internalType": "uint256",
          "name": "price",
          "type": "uint256"
        }
      ],
      "name": "UpdateProject",
      "type": "event"
    },
    {
      "constant": true,
      "inputs": [
        {
          "internalType": "uint256",
          "name": "",
          "type": "uint256"
        }
      ],
      "name": "projects",
      "outputs": [
        {
          "internalType": "uint256",
          "name": "id",
          "type": "uint256"
        },
        {
          "internalType": "address payable",
          "name": "issuer",
          "type": "address"
        },
        {
          "internalType": "address payable",
          "name": "fulfiller",
          "type": "address"
        },
        {
          "internalType": "string",
          "name": "title",
          "type": "string"
        },
        {
          "internalType": "uint256",
          "name": "price",
          "type": "uint256"
        },
        {
          "internalType": "string",
          "name": "ipfsHash",
          "type": "string"
        },
        {
          "internalType": "enum ChainBizz.ProjectStatus",
          "name": "status",
          "type": "uint8"
        }
      ],
      "payable": false,
      "stateMutability": "view",
      "type": "function"
    },
    {
      "constant": false,
      "inputs": [],
      "name": "enableContract",
      "outputs": [],
      "payable": false,
      "stateMutability": "nonpayable",
      "type": "function"
    },
    {
      "constant": false,
      "inputs": [],
      "name": "disableContract",
      "outputs": [],
      "payable": false,
      "stateMutability": "nonpayable",
      "type": "function"
    },
    {
      "constant": false,
      "inputs": [
        {
          "internalType": "string",
          "name": "_title",
          "type": "string"
        },
        {
          "internalType": "uint256",
          "name": "_price",
          "type": "uint256"
        }
      ],
      "name": "addProject",
      "outputs": [],
      "payable": false,
      "stateMutability": "nonpayable",
      "type": "function"
    },
    {
      "constant": false,
      "inputs": [
        {
          "internalType": "uint256",
          "name": "_id",
          "type": "uint256"
        },
        {
          "internalType": "string",
          "name": "_title",
          "type": "string"
        },
        {
          "internalType": "uint256",
          "name": "_price",
          "type": "uint256"
        }
      ],
      "name": "updateProject",
      "outputs": [],
      "payable": false,
      "stateMutability": "nonpayable",
      "type": "function"
    },
    {
      "constant": false,
      "inputs": [
        {
          "internalType": "uint256",
          "name": "_id",
          "type": "uint256"
        }
      ],
      "name": "removeProject",
      "outputs": [],
      "payable": false,
      "stateMutability": "nonpayable",
      "type": "function"
    },
    {
      "constant": false,
      "inputs": [
        {
          "internalType": "string",
          "name": "_title",
          "type": "string"
        },
        {
          "internalType": "uint256",
          "name": "_price",
          "type": "uint256"
        },
        {
          "internalType": "string",
          "name": "_ipfsHash",
          "type": "string"
        }
      ],
      "name": "publishProject",
      "outputs": [],
      "payable": false,
      "stateMutability": "nonpayable",
      "type": "function"
    },
    {
      "constant": false,
      "inputs": [
        {
          "internalType": "uint256",
          "name": "_id",
          "type": "uint256"
        }
      ],
      "name": "publishProjectOld",
      "outputs": [],
      "payable": false,
      "stateMutability": "nonpayable",
      "type": "function"
    },
    {
      "constant": false,
      "inputs": [
        {
          "internalType": "uint256",
          "name": "_id",
          "type": "uint256"
        }
      ],
      "name": "unpublishProject",
      "outputs": [],
      "payable": false,
      "stateMutability": "nonpayable",
      "type": "function"
    },
    {
      "constant": false,
      "inputs": [
        {
          "internalType": "uint256",
          "name": "_id",
          "type": "uint256"
        }
      ],
      "name": "submitOffer",
      "outputs": [],
      "payable": false,
      "stateMutability": "nonpayable",
      "type": "function"
    },
    {
      "constant": false,
      "inputs": [
        {
          "internalType": "uint256",
          "name": "_id",
          "type": "uint256"
        }
      ],
      "name": "cancelOffer",
      "outputs": [],
      "payable": false,
      "stateMutability": "nonpayable",
      "type": "function"
    },
    {
      "constant": false,
      "inputs": [
        {
          "internalType": "uint256",
          "name": "_id",
          "type": "uint256"
        }
      ],
      "name": "acceptProposal",
      "outputs": [],
      "payable": true,
      "stateMutability": "payable",
      "type": "function"
    },
    {
      "constant": false,
      "inputs": [
        {
          "internalType": "uint256",
          "name": "_id",
          "type": "uint256"
        }
      ],
      "name": "rejectProposal",
      "outputs": [],
      "payable": false,
      "stateMutability": "nonpayable",
      "type": "function"
    },
    {
      "constant": false,
      "inputs": [
        {
          "internalType": "uint256",
          "name": "_id",
          "type": "uint256"
        }
      ],
      "name": "deliverProject",
      "outputs": [],
      "payable": false,
      "stateMutability": "nonpayable",
      "type": "function"
    },
    {
      "constant": false,
      "inputs": [
        {
          "internalType": "uint256",
          "name": "_id",
          "type": "uint256"
        }
      ],
      "name": "cancelServices",
      "outputs": [],
      "payable": false,
      "stateMutability": "nonpayable",
      "type": "function"
    },
    {
      "constant": false,
      "inputs": [
        {
          "internalType": "uint256",
          "name": "_id",
          "type": "uint256"
        }
      ],
      "name": "acceptDelivery",
      "outputs": [],
      "payable": false,
      "stateMutability": "nonpayable",
      "type": "function"
    },
    {
      "constant": false,
      "inputs": [
        {
          "internalType": "uint256",
          "name": "_id",
          "type": "uint256"
        }
      ],
      "name": "rejectDelivery",
      "outputs": [],
      "payable": false,
      "stateMutability": "nonpayable",
      "type": "function"
    },
    {
      "constant": false,
      "inputs": [
        {
          "internalType": "uint256",
          "name": "_id",
          "type": "uint256"
        }
      ],
      "name": "cancelContract",
      "outputs": [],
      "payable": false,
      "stateMutability": "nonpayable",
      "type": "function"
    },
    {
      "constant": true,
      "inputs": [],
      "name": "isEnabled",
      "outputs": [
        {
          "internalType": "bool",
          "name": "",
          "type": "bool"
        }
      ],
      "payable": false,
      "stateMutability": "view",
      "type": "function"
    },
    {
      "constant": true,
      "inputs": [
        {
          "internalType": "uint256",
          "name": "_id",
          "type": "uint256"
        }
      ],
      "name": "getProject",
      "outputs": [
        {
          "internalType": "address",
          "name": "issuer",
          "type": "address"
        },
        {
          "internalType": "address",
          "name": "fulfiller",
          "type": "address"
        },
        {
          "internalType": "string",
          "name": "title",
          "type": "string"
        },
        {
          "internalType": "uint256",
          "name": "price",
          "type": "uint256"
        },
        {
          "internalType": "string",
          "name": "ipfsHash",
          "type": "string"
        },
        {
          "internalType": "enum ChainBizz.ProjectStatus",
          "name": "status",
          "type": "uint8"
        }
      ],
      "payable": false,
      "stateMutability": "view",
      "type": "function"
    },
    {
      "constant": true,
      "inputs": [],
      "name": "getAllProjects",
      "outputs": [
        {
          "internalType": "uint256[]",
          "name": "",
          "type": "uint256[]"
        }
      ],
      "payable": false,
      "stateMutability": "view",
      "type": "function"
    },
    {
      "constant": true,
      "inputs": [],
      "name": "getPublishedProjects",
      "outputs": [
        {
          "internalType": "uint256[]",
          "name": "",
          "type": "uint256[]"
        }
      ],
      "payable": false,
      "stateMutability": "view",
      "type": "function"
    },
    {
      "constant": true,
      "inputs": [],
      "name": "getMyProjects",
      "outputs": [
        {
          "internalType": "uint256[]",
          "name": "",
          "type": "uint256[]"
        }
      ],
      "payable": false,
      "stateMutability": "view",
      "type": "function"
    },
    {
      "constant": true,
      "inputs": [],
      "name": "getMyOffers",
      "outputs": [
        {
          "internalType": "uint256[]",
          "name": "",
          "type": "uint256[]"
        }
      ],
      "payable": false,
      "stateMutability": "view",
      "type": "function"
    },
    {
      "constant": true,
      "inputs": [],
      "name": "getMyReviews",
      "outputs": [
        {
          "internalType": "uint256[]",
          "name": "",
          "type": "uint256[]"
        }
      ],
      "payable": false,
      "stateMutability": "view",
      "type": "function"
    },
    {
      "constant": true,
      "inputs": [],
      "name": "getMyContracts",
      "outputs": [
        {
          "internalType": "uint256[]",
          "name": "",
          "type": "uint256[]"
        }
      ],
      "payable": false,
      "stateMutability": "view",
      "type": "function"
    },
    {
      "constant": true,
      "inputs": [],
      "name": "getDeliveries",
      "outputs": [
        {
          "internalType": "uint256[]",
          "name": "",
          "type": "uint256[]"
        }
      ],
      "payable": false,
      "stateMutability": "view",
      "type": "function"
    },
    {
      "constant": true,
      "inputs": [],
      "name": "getCompleted",
      "outputs": [
        {
          "internalType": "uint256[]",
          "name": "",
          "type": "uint256[]"
        }
      ],
      "payable": false,
      "stateMutability": "view",
      "type": "function"
    },
    {
      "constant": true,
      "inputs": [],
      "name": "getCanceled",
      "outputs": [
        {
          "internalType": "uint256[]",
          "name": "",
          "type": "uint256[]"
        }
      ],
      "payable": false,
      "stateMutability": "view",
      "type": "function"
    }
  ],
  "bytecode": "0x608060405234801561001057600080fd5b5060028054600160ff1990911617610100600160a81b0319166101003302179055614045806100406000396000f3fe6080604052600436106101c25760003560e01c80636f65c717116100f7578063bc28d87811610095578063ef1b655311610064578063ef1b6553146108b3578063ef706adf146108c8578063f0f3f2c8146108f2578063f7f2ccbf14610a30576101c2565b8063bc28d8781461084a578063bd140c4b14610874578063c81bde1514610889578063e4f655b01461089e576101c2565b806380d03829116100d157806380d03829146107cc578063894ba833146107e157806391ed2069146107f6578063b85a72d214610820576101c2565b80636f65c7171461063a57806372f7c34e146106645780637b422c4c146107a2576101c2565b8063367edd32116101645780635b54f9821161013e5780635b54f982146105b557806360c5cc3a146105ca578063629a064e146105e75780636aa633b614610611576101c2565b8063367edd32146105615780634beb7e94146105765780635873f9981461058b576101c2565b8063107046bd116101a0578063107046bd14610312578063138e0b261461046f578063280474501461048457806329ba314b146104ae576101c2565b8063037852c7146101c75780630850cd1e1461022c5780630a96054314610258575b600080fd5b3480156101d357600080fd5b506101dc610a5a565b60408051602080825283518183015283519192839290830191858101910280838360005b83811015610218578181015183820152602001610200565b505050509050019250505060405180910390f35b34801561023857600080fd5b506102566004803603602081101561024f57600080fd5b5035610bc8565b005b34801561026457600080fd5b506102566004803603606081101561027b57600080fd5b81359190810190604081016020820135600160201b81111561029c57600080fd5b8201836020820111156102ae57600080fd5b803590602001918460018302840111600160201b831117156102cf57600080fd5b91908080601f0160208091040260200160405190810160405280939291908181526020018383808284376000920191909152509295505091359250610dba915050565b34801561031e57600080fd5b5061033c6004803603602081101561033557600080fd5b5035610fe9565b60405180888152602001876001600160a01b03166001600160a01b03168152602001866001600160a01b03166001600160a01b03168152602001806020018581526020018060200184600881111561039057fe5b60ff168152602001838103835287818151815260200191508051906020019080838360005b838110156103cd5781810151838201526020016103b5565b50505050905090810190601f1680156103fa5780820380516001836020036101000a031916815260200191505b50838103825285518152855160209182019187019080838360005b8381101561042d578181015183820152602001610415565b50505050905090810190601f16801561045a5780820380516001836020036101000a031916815260200191505b50995050505050505050505060405180910390f35b34801561047b57600080fd5b506101dc611148565b34801561049057600080fd5b50610256600480360360208110156104a757600080fd5b50356112cd565b3480156104ba57600080fd5b50610256600480360360408110156104d157600080fd5b810190602081018135600160201b8111156104eb57600080fd5b8201836020820111156104fd57600080fd5b803590602001918460018302840111600160201b8311171561051e57600080fd5b91908080601f0160208091040260200160405190810160405280939291908181526020018383808284376000920191909152509295505091359250611554915050565b34801561056d57600080fd5b5061025661179d565b34801561058257600080fd5b506101dc6117fa565b34801561059757600080fd5b50610256600480360360208110156105ae57600080fd5b503561195b565b3480156105c157600080fd5b506101dc611cba565b610256600480360360208110156105e057600080fd5b5035611e3f565b3480156105f357600080fd5b506102566004803603602081101561060a57600080fd5b5035612052565b34801561061d57600080fd5b50610626612226565b604080519115158252519081900360200190f35b34801561064657600080fd5b506102566004803603602081101561065d57600080fd5b503561222f565b34801561067057600080fd5b506102566004803603606081101561068757600080fd5b810190602081018135600160201b8111156106a157600080fd5b8201836020820111156106b357600080fd5b803590602001918460018302840111600160201b831117156106d457600080fd5b91908080601f01602080910402602001604051908101604052809392919081815260200183838082843760009201919091525092958435959094909350604081019250602001359050600160201b81111561072e57600080fd5b82018360208201111561074057600080fd5b803590602001918460018302840111600160201b8311171561076157600080fd5b91908080601f0160208091040260200160405190810160405280939291908181526020018383808284376000920191909152509295506123cc945050505050565b3480156107ae57600080fd5b50610256600480360360208110156107c557600080fd5b50356126cb565b3480156107d857600080fd5b506101dc6128cf565b3480156107ed57600080fd5b50610256612a03565b34801561080257600080fd5b506102566004803603602081101561081957600080fd5b5035612b99565b34801561082c57600080fd5b506102566004803603602081101561084357600080fd5b5035612d9c565b34801561085657600080fd5b506102566004803603602081101561086d57600080fd5b5035612f5e565b34801561088057600080fd5b506101dc613181565b34801561089557600080fd5b506101dc613306565b3480156108aa57600080fd5b506101dc6134b4565b3480156108bf57600080fd5b506101dc613642565b3480156108d457600080fd5b50610256600480360360208110156108eb57600080fd5b50356137a3565b3480156108fe57600080fd5b5061091c6004803603602081101561091557600080fd5b5035613986565b604080516001600160a01b03808916825287166020820152606081018590529081016080820160a0830184600881111561095257fe5b60ff168152602001838103835287818151815260200191508051906020019080838360005b8381101561098f578181015183820152602001610977565b50505050905090810190601f1680156109bc5780820380516001836020036101000a031916815260200191505b50838103825285518152855160209182019187019080838360005b838110156109ef5781810151838201526020016109d7565b50505050905090810190601f168015610a1c5780820380516001836020036101000a031916815260200191505b509850505050505050505060405180910390f35b348015610a3c57600080fd5b5061025660048036036020811015610a5357600080fd5b5035613baf565b606060015460001415610a815760408051600080825260208201909252905b509050610bc5565b6060600154604051908082528060200260200182016040528015610aaf578160200160208202803883390190505b509050600060015b6001548111610b51576000818152602081905260409020600201546001600160a01b031633148015610b085750600260008281526020819052604090206006015460ff166008811115610b0657fe5b145b15610b49576000818152602081905260409020548351849084908110610b2a57fe5b6020908102919091010152610b4682600163ffffffff613d9316565b91505b600101610ab7565b50606081604051908082528060200260200182016040528015610b7e578160200160208202803883390190505b50905060005b82811015610bbf57838181518110610b9857fe5b6020026020010151828281518110610bac57fe5b6020908102919091010152600101610b84565b50925050505b90565b60025460ff161515600114610c0e5760405162461bcd60e51b8152600401808060200182810382526022815260200180613f486022913960400191505060405180910390fd5b600081815260208190526040902060018101546001600160a01b0316610c345750610db7565b60018101546001600160a01b03163314610c7f5760405162461bcd60e51b8152600401808060200182810382526026815260200180613f6a6026913960400191505060405180910390fd5b6001600682015460ff166008811115610c9457fe5b14610cde576040805162461bcd60e51b815260206004820152601560248201527410d85b9b9bdd081899481d5b9c1d589b1a5cda1959605a1b604482015290519081900360640190fd5b60068101805460ff191690556004810154604080518481529081018290526060602082018181526003850180546002600182161561010002600019019091160492840183905233947f3525d4593ef70f97d7b99dfeab0e0be748aeb51f464f83bf0bbf5ab6badb45c894889492939192909190608083019085908015610da55780601f10610d7a57610100808354040283529160200191610da5565b820191906000526020600020905b815481529060010190602001808311610d8857829003601f168201915b505094505050505060405180910390a2505b50565b60025460ff161515600114610e005760405162461bcd60e51b8152600401808060200182810382526022815260200180613f486022913960400191505060405180910390fd5b600083815260208190526040902060018101546001600160a01b0316610e265750610fe4565b60018101546001600160a01b03163314610e715760405162461bcd60e51b8152600401808060200182810382526026815260200180613f6a6026913960400191505060405180910390fd5b6000600682015460ff166008811115610e8657fe5b14610ec25760405162461bcd60e51b8152600401808060200182810382526021815260200180613f066021913960400191505060405180910390fd5b82518390610f0d576040805162461bcd60e51b815260206004820152601360248201527210481d1a5d1b19481a5cc81c995c5d5a5c9959606a1b604482015290519081900360640190fd5b8351610f229060038401906020870190613df4565b50828260040181905550336001600160a01b03167f78ec34897e7f5ea3506eaaa6dcf2edc5ea8eea1c579f1f3d158e55233c602e6960015486866040518084815260200180602001838152602001828103825284818151815260200191508051906020019080838360005b83811015610fa5578181015183820152602001610f8d565b50505050905090810190601f168015610fd25780820380516001836020036101000a031916815260200191505b5094505050505060405180910390a250505b505050565b60006020818152918152604090819020805460018083015460028085015460038601805488516101009682161596909602600019011692909204601f810189900489028501890190975286845293966001600160a01b039283169692909416949390919083018282801561109e5780601f106110735761010080835404028352916020019161109e565b820191906000526020600020905b81548152906001019060200180831161108157829003601f168201915b50505050600483015460058401805460408051602060026001851615610100026000190190941693909304601f810184900484028201840190925281815295969395939450908301828280156111355780601f1061110a57610100808354040283529160200191611135565b820191906000526020600020905b81548152906001019060200180831161111857829003601f168201915b5050506006909301549192505060ff1687565b60606001546000141561116b576040805160008082526020820190925290610a79565b6060600154604051908082528060200260200182016040528015611199578160200160208202803883390190505b509050600060015b600154811161125f576000818152602081905260409020600101546001600160a01b03163314806111eb57506000818152602081905260409020600201546001600160a01b031633145b80156112165750600460008281526020819052604090206006015460ff16600881111561121457fe5b145b1561125757600081815260208190526040902054835184908490811061123857fe5b602090810291909101015261125482600163ffffffff613d9316565b91505b6001016111a1565b5060608160405190808252806020026020018201604052801561128c578160200160208202803883390190505b50905060005b82811015610bbf578381815181106112a657fe5b60200260200101518282815181106112ba57fe5b6020908102919091010152600101611292565b60025460ff1615156001146113135760405162461bcd60e51b8152600401808060200182810382526022815260200180613f486022913960400191505060405180910390fd5b600081815260208190526040902060018101546001600160a01b03166113395750610db7565b60018101546001600160a01b0316331461139a576040805162461bcd60e51b815260206004820181905260248201527f596f7520617265206e6f74207468652070726f6a656374277320697373756572604482015290519081900360640190fd5b6003600682015460ff1660088111156113af57fe5b14806113cd57506004600682015460ff1660088111156113cb57fe5b145b611418576040805162461bcd60e51b815260206004820152601760248201527650726f6a656374206e6f7420696e2070726f677265737360481b604482015290519081900360640190fd5b600181015460048201546040516001600160a01b039092169181156108fc0291906000818181858888f19350505050158015611458573d6000803e3d6000fd5b506006818101805460ff19169091179055600280820154600180840154600485015460408051888152908101829052606060208201818152600389018054610100978116159790970260001901909616979097049082018190526001600160a01b039586169695909316947fbe0490d452ff53df72b8d99df1c2a4711a2429c8dbb450f514d37b0b03e0db3794899490939291906080830190859080156115405780601f1061151557610100808354040283529160200191611540565b820191906000526020600020905b81548152906001019060200180831161152357829003601f168201915b505094505050505060405180910390a35050565b60025460ff16151560011461159a5760405162461bcd60e51b8152600401808060200182810382526022815260200180613f486022913960400191505060405180910390fd5b815182906115e5576040805162461bcd60e51b815260206004820152601360248201527210481d1a5d1b19481a5cc81c995c5d5a5c9959606a1b604482015290519081900360640190fd5b600180546115f89163ffffffff613d9316565b60018181556040805160e0810182528381523360208083019182526000838501818152606085018b8152608086018b90528651808501885283815260a087015260c0860183905297825281835294902083518155915194820180546001600160a01b039687166001600160a01b031991821617909155935160028301805491909616941693909317909355925180516116979260038501920190613df4565b506080820151600482015560a082015180516116bd916005840191602090910190613df4565b5060c082015160068201805460ff191660018360088111156116db57fe5b0217905550905050336001600160a01b03167fc8e7a8f4fbf568a726fe7b162d56bb8a313fa7ec7f274c6390969cb322a0f79460015485856040518084815260200180602001838152602001828103825284818151815260200191508051906020019080838360005b8381101561175c578181015183820152602001611744565b50505050905090810190601f1680156117895780820380516001836020036101000a031916815260200191505b5094505050505060405180910390a2505050565b60025461010090046001600160a01b031633146117eb5760405162461bcd60e51b8152600401808060200182810382526031815260200180613fb16031913960400191505060405180910390fd5b6002805460ff19166001179055565b60606001546000141561181d576040805160008082526020820190925290610a79565b606060015460405190808252806020026020018201604052801561184b578160200160208202803883390190505b509050600060015b60015481116118ed576000818152602081905260409020600101546001600160a01b0316158015906118a45750600160008281526020819052604090206006015460ff1660088111156118a257fe5b145b156118e55760008181526020819052604090205483518490849081106118c657fe5b60209081029190910101526118e282600163ffffffff613d9316565b91505b600101611853565b5060608160405190808252806020026020018201604052801561191a578160200160208202803883390190505b50905060005b82811015610bbf5783818151811061193457fe5b602002602001015182828151811061194857fe5b6020908102919091010152600101611920565b60025460ff1615156001146119a15760405162461bcd60e51b8152600401808060200182810382526022815260200180613f486022913960400191505060405180910390fd5b6119a9613e72565b60008281526020818152604091829020825160e081018452815481526001808301546001600160a01b03908116838601526002808501549091168387015260038401805487516101009482161594909402600019011691909104601f810186900486028301860190965285825291949293606086019391929190830182828015611a745780601f10611a4957610100808354040283529160200191611a74565b820191906000526020600020905b815481529060010190602001808311611a5757829003601f168201915b5050509183525050600482015460208083019190915260058301805460408051601f60026000196101006001871615020190941693909304928301859004850281018501825282815294019392830182828015611b125780601f10611ae757610100808354040283529160200191611b12565b820191906000526020600020905b815481529060010190602001808311611af557829003601f168201915b5050509183525050600682015460209091019060ff166008811115611b3357fe5b6008811115611b3e57fe5b90525060208101519091506001600160a01b0316611b5c5750610db7565b60208101516001600160a01b03163314611ba75760405162461bcd60e51b8152600401808060200182810382526026815260200180613f6a6026913960400191505060405180910390fd5b606081015160008381526020819052604081208181556001810180546001600160a01b0319908116909155600282018054909116905590611beb6003830182613eab565b6004820160009055600582016000611c039190613eab565b50600601805460ff19169055604080518481526020808201838152845193830193909352835133937f0bac8d70ddda9ec612d317fa2968f6f746b59169d04a223ec870eb6447a7c7f49388938793919291606084019185019080838360005b83811015611c7a578181015183820152602001611c62565b50505050905090810190601f168015611ca75780820380516001836020036101000a031916815260200191505b50935050505060405180910390a2505050565b606060015460001415611cdd576040805160008082526020820190925290610a79565b6060600154604051908082528060200260200182016040528015611d0b578160200160208202803883390190505b509050600060015b6001548111611dd1576000818152602081905260409020600101546001600160a01b0316331480611d5d57506000818152602081905260409020600201546001600160a01b031633145b8015611d885750600560008281526020819052604090206006015460ff166008811115611d8657fe5b145b15611dc9576000818152602081905260409020548351849084908110611daa57fe5b6020908102919091010152611dc682600163ffffffff613d9316565b91505b600101611d13565b50606081604051908082528060200260200182016040528015611dfe578160200160208202803883390190505b50905060005b82811015610bbf57838181518110611e1857fe5b6020026020010151828281518110611e2c57fe5b6020908102919091010152600101611e04565b60025460ff161515600114611e855760405162461bcd60e51b8152600401808060200182810382526022815260200180613f486022913960400191505060405180910390fd5b600081815260208190526040902060018101546001600160a01b0316611eab5750610db7565b60018101546001600160a01b03163314611ef65760405162461bcd60e51b8152600401808060200182810382526026815260200180613f6a6026913960400191505060405180910390fd5b6002600682015460ff166008811115611f0b57fe5b14611f56576040805162461bcd60e51b815260206004820152601660248201527550726f706f73616c206e6f7420696e2072657669657760501b604482015290519081900360640190fd5b80600401543414611f985760405162461bcd60e51b815260040180806020018281038252602f815260200180613fe2602f913960400191505060405180910390fd5b60068101805460ff191660039081179091556002808301546001808501546004860154604080518981529081018290526060602082018181529789018054610100968116159690960260001901909516969096049581018690526001600160a01b039485169694909216947fd0ca6107f6c9513954ca859c885b1e8b434687b6cf5e40625574d53dda8422ed94899493916080830190859080156115405780601f1061151557610100808354040283529160200191611540565b60025460ff1615156001146120985760405162461bcd60e51b8152600401808060200182810382526022815260200180613f486022913960400191505060405180910390fd5b600081815260208190526040902060018101546001600160a01b03166120be5750610db7565b60028101546001600160a01b031633146121095760405162461bcd60e51b8152600401808060200182810382526021815260200180613f276021913960400191505060405180910390fd5b6003600682015460ff16600881111561211e57fe5b1461216a576040805162461bcd60e51b815260206004820152601760248201527650726f6a656374206e6f7420696e2070726f677265737360481b604482015290519081900360640190fd5b60068101805460ff191660049081179091556002808301546001808501549385015460408051888152908101829052606060208201818152600389018054610100968116159690960260001901909516969096049082018190526001600160a01b039485169694909416947f2c29e86efe7dba61218108fc48fc467f0b2d89a5dd6741ff0df4b17bdf5cab68948994939291906080830190859080156115405780601f1061151557610100808354040283529160200191611540565b60025460ff1690565b60025460ff1615156001146122755760405162461bcd60e51b8152600401808060200182810382526022815260200180613f486022913960400191505060405180910390fd5b600081815260208190526040902060018101546001600160a01b031661229b5750610db7565b6001600682015460ff1660088111156122b057fe5b14612302576040805162461bcd60e51b815260206004820152601960248201527f50726f6a656374206e6f206d6f726520617661696c61626c6500000000000000604482015290519081900360640190fd5b600280820180546001600160a01b0319163317905560068201805460ff191660018302179055506001818101546004830154604080518681529081018290526060602082018181526003870180546002610100988216159890980260001901169690960491830182905233956001600160a01b03909516947f337b4516025ec150291d21f457dad5d6d43ea3f7da34432124932cd2a6b700b194899491939092906080830190859080156115405780601f1061151557610100808354040283529160200191611540565b60025460ff1615156001146124125760405162461bcd60e51b8152600401808060200182810382526022815260200180613f486022913960400191505060405180910390fd5b8251839061245d576040805162461bcd60e51b815260206004820152601360248201527210481d1a5d1b19481a5cc81c995c5d5a5c9959606a1b604482015290519081900360640190fd5b815182906124b2576040805162461bcd60e51b815260206004820152601a60248201527f41206861736820746f2049504653206973207265717569726564000000000000604482015290519081900360640190fd5b600180546124c59163ffffffff613d9316565b60018181556040805160e0810182528381523360208083019182526000838501818152606085018d8152608086018d905260a086018c905260c0860188905297825281835294902083518155915194820180546001600160a01b039687166001600160a01b0319918216179091559351600283018054919096169416939093179093559251805161255c9260038501920190613df4565b506080820151600482015560a08201518051612582916005840191602090910190613df4565b5060c082015160068201805460ff191660018360088111156125a057fe5b0217905550905050336001600160a01b03167fea07c326ec88ddea19d72529e511ce438c2cd368f463f890406ab6582b2dc0db600154878787604051808581526020018060200184815260200180602001838103835286818151815260200191508051906020019080838360005b8381101561262657818101518382015260200161260e565b50505050905090810190601f1680156126535780820380516001836020036101000a031916815260200191505b50838103825284518152845160209182019186019080838360005b8381101561268657818101518382015260200161266e565b50505050905090810190601f1680156126b35780820380516001836020036101000a031916815260200191505b50965050505050505060405180910390a25050505050565b60025460ff1615156001146127115760405162461bcd60e51b8152600401808060200182810382526022815260200180613f486022913960400191505060405180910390fd5b600081815260208190526040902060018101546001600160a01b03166127375750610db7565b60018101546001600160a01b031633146127825760405162461bcd60e51b8152600401808060200182810382526026815260200180613f6a6026913960400191505060405180910390fd5b6004600682015460ff16600881111561279757fe5b146127d35760405162461bcd60e51b8152600401808060200182810382526021815260200180613f906021913960400191505060405180910390fd5b600281015460048201546040516001600160a01b039092169181156108fc0291906000818181858888f19350505050158015612813573d6000803e3d6000fd5b5060068101805460ff19166005179055600280820154600180840154600485015460408051888152908101829052606060208201818152600389018054610100978116159790970260001901909616979097049082018190526001600160a01b039586169695909316947f72a87e41eb71c3d97ada3d99bed7a092d856bcdc4f034ef117099e051038cd7a94899490939291906080830190859080156115405780601f1061151557610100808354040283529160200191611540565b6060600154600014156128f2576040805160008082526020820190925290610a79565b6060600154604051908082528060200260200182016040528015612920578160200160208202803883390190505b509050600060015b6001548111612995576000818152602081905260409020600101546001600160a01b03161561298d57600081815260208190526040902054835184908490811061296e57fe5b602090810291909101015261298a82600163ffffffff613d9316565b91505b600101612928565b506060816040519080825280602002602001820160405280156129c2578160200160208202803883390190505b50905060005b82811015610bbf578381815181106129dc57fe5b60200260200101518282815181106129f057fe5b60209081029190910101526001016129c8565b60025461010090046001600160a01b03163314612a515760405162461bcd60e51b8152600401808060200182810382526031815260200180613fb16031913960400191505060405180910390fd5b60025460ff161515600114612a975760405162461bcd60e51b8152600401808060200182810382526022815260200180613f486022913960400191505060405180910390fd5b6002805460ff19169055600154612aad57612b97565b6060600154604051908082528060200260200182016040528015612adb578160200160208202803883390190505b509050600060015b6001548111610fe45760008181526020819052604090206003600682015460ff166008811115612b0f57fe5b1480612b2d57506004600682015460ff166008811115612b2b57fe5b145b15612b8e57600481015415612b7e57600181015460048201546040516001600160a01b039092169181156108fc0291906000818181858888f19350505050158015612b7c573d6000803e3d6000fd5b505b60068101805460ff191660071790555b50600101612ae3565b565b60025460ff161515600114612bdf5760405162461bcd60e51b8152600401808060200182810382526022815260200180613f486022913960400191505060405180910390fd5b600081815260208190526040902060018101546001600160a01b0316612c055750610db7565b60018101546001600160a01b03163314612c505760405162461bcd60e51b8152600401808060200182810382526026815260200180613f6a6026913960400191505060405180910390fd5b6000600682015460ff166008811115612c6557fe5b14612cad576040805162461bcd60e51b815260206004820152601360248201527210d85b9b9bdd081899481c1d589b1a5cda1959606a1b604482015290519081900360640190fd5b60068101805460ff191660019081179091556004820154604080518581529081018290526080602082018181526003860180546002968116156101000260001901169590950491830182905233947fea07c326ec88ddea19d72529e511ce438c2cd368f463f890406ab6582b2dc0db9488949193909290606083019060a084019086908015612d7d5780601f10612d5257610100808354040283529160200191612d7d565b820191906000526020600020905b815481529060010190602001808311612d6057829003601f168201915b5050928303905250600081526040805191829003019350915050a25050565b60025460ff161515600114612de25760405162461bcd60e51b8152600401808060200182810382526022815260200180613f486022913960400191505060405180910390fd5b600081815260208190526040902060018101546001600160a01b0316612e085750610db7565b60018101546001600160a01b03163314612e535760405162461bcd60e51b8152600401808060200182810382526026815260200180613f6a6026913960400191505060405180910390fd5b6004600682015460ff166008811115612e6857fe5b14612ea45760405162461bcd60e51b8152600401808060200182810382526021815260200180613f906021913960400191505060405180910390fd5b60068101805460ff191660039081179091556002808301546001808501546004860154604080518981529081018290526060602082018181529789018054610100968116159690960260001901909516969096049581018690526001600160a01b039485169694909216947f45db355d424e661e8b7ea210fd36cd8224f4955611152ce93518a27f205467e494899493916080830190859080156115405780601f1061151557610100808354040283529160200191611540565b60025460ff161515600114612fa45760405162461bcd60e51b8152600401808060200182810382526022815260200180613f486022913960400191505060405180910390fd5b600081815260208190526040902060018101546001600160a01b0316612fca5750610db7565b60018101546001600160a01b031633146130155760405162461bcd60e51b8152600401808060200182810382526026815260200180613f6a6026913960400191505060405180910390fd5b6002600682015460ff16600881111561302a57fe5b14613075576040805162461bcd60e51b815260206004820152601660248201527550726f706f73616c206e6f7420696e2072657669657760501b604482015290519081900360640190fd5b6002818101805460068401805460ff191660019081179091556001600160a01b0319821690925581840154600485015460408051888152908101829052606060208201818152600389018054610100988116159890980260001901909716979097049082018190526001600160a01b0394851696879695909416947f4c596893f217ff7756c8fc77bea24399406130928fc25e6ace71d6121fd2643f948a949193919260808301908590801561316c5780601f106131415761010080835404028352916020019161316c565b820191906000526020600020905b81548152906001019060200180831161314f57829003601f168201915b505094505050505060405180910390a3505050565b6060600154600014156131a4576040805160008082526020820190925290610a79565b60606001546040519080825280602002602001820160405280156131d2578160200160208202803883390190505b509050600060015b6001548111613298576000818152602081905260409020600101546001600160a01b031633148061322457506000818152602081905260409020600201546001600160a01b031633145b801561324f5750600660008281526020819052604090206006015460ff16600881111561324d57fe5b145b1561329057600081815260208190526040902054835184908490811061327157fe5b602090810291909101015261328d82600163ffffffff613d9316565b91505b6001016131da565b506060816040519080825280602002602001820160405280156132c5578160200160208202803883390190505b50905060005b82811015610bbf578381815181106132df57fe5b60200260200101518282815181106132f357fe5b60209081029190910101526001016132cb565b606060015460001415613329576040805160008082526020820190925290610a79565b6060600154604051908082528060200260200182016040528015613357578160200160208202803883390190505b509050600060015b6001548111613446576000818152602081905260409020600101546001600160a01b03163314806133a957506000818152602081905260409020600201546001600160a01b031633145b80156133fd5750600360008281526020819052604090206006015460ff1660088111156133d257fe5b14806133fd5750600460008281526020819052604090206006015460ff1660088111156133fb57fe5b145b1561343e57600081815260208190526040902054835184908490811061341f57fe5b602090810291909101015261343b82600163ffffffff613d9316565b91505b60010161335f565b50606081604051908082528060200260200182016040528015613473578160200160208202803883390190505b50905060005b82811015610bbf5783818151811061348d57fe5b60200260200101518282815181106134a157fe5b6020908102919091010152600101613479565b6060600154600014156134d7576040805160008082526020820190925290610a79565b6060600154604051908082528060200260200182016040528015613505578160200160208202803883390190505b509050600060015b60015481116135d4576000818152602081905260409020600101546001600160a01b03163314801561355f5750600560008281526020819052604090206006015460ff16600881111561355c57fe5b14155b801561358b5750600660008281526020819052604090206006015460ff16600881111561358857fe5b14155b156135cc5760008181526020819052604090205483518490849081106135ad57fe5b60209081029190910101526135c982600163ffffffff613d9316565b91505b60010161350d565b50606081604051908082528060200260200182016040528015613601578160200160208202803883390190505b50905060005b82811015610bbf5783818151811061361b57fe5b602002602001015182828151811061362f57fe5b6020908102919091010152600101613607565b606060015460001415613665576040805160008082526020820190925290610a79565b6060600154604051908082528060200260200182016040528015613693578160200160208202803883390190505b509050600060015b6001548111613735576000818152602081905260409020600101546001600160a01b0316331480156136ec5750600260008281526020819052604090206006015460ff1660088111156136ea57fe5b145b1561372d57600081815260208190526040902054835184908490811061370e57fe5b602090810291909101015261372a82600163ffffffff613d9316565b91505b60010161369b565b50606081604051908082528060200260200182016040528015613762578160200160208202803883390190505b50905060005b82811015610bbf5783818151811061377c57fe5b602002602001015182828151811061379057fe5b6020908102919091010152600101613768565b60025460ff1615156001146137e95760405162461bcd60e51b8152600401808060200182810382526022815260200180613f486022913960400191505060405180910390fd5b600081815260208190526040902060018101546001600160a01b031661380f5750610db7565b60028101546001600160a01b0316331461385a5760405162461bcd60e51b8152600401808060200182810382526021815260200180613f276021913960400191505060405180910390fd5b6002600682015460ff16600881111561386f57fe5b146138ba576040805162461bcd60e51b815260206004820152601660248201527550726f706f73616c206e6f7420696e2072657669657760501b604482015290519081900360640190fd5b6002818101805460068401805460ff191660019081179091556001600160a01b0319821690925581840154600485015460408051888152908101829052606060208201818152600389018054610100988116159890980260001901909716979097049082018190526001600160a01b0394851696879695909416947fda2bae36f5d87ea886fd53cadaade9c848558e3ba0ce0b05a90d6203787fec45948a949193919260808301908590801561316c5780601f106131415761010080835404028352916020019161316c565b6000806060600060606000613999613e72565b60008881526020818152604091829020825160e081018452815481526001808301546001600160a01b03908116838601526002808501549091168387015260038401805487516101009482161594909402600019011691909104601f810186900486028301860190965285825291949293606086019391929190830182828015613a645780601f10613a3957610100808354040283529160200191613a64565b820191906000526020600020905b815481529060010190602001808311613a4757829003601f168201915b5050509183525050600482015460208083019190915260058301805460408051601f60026000196101006001871615020190941693909304928301859004850281018501825282815294019392830182828015613b025780601f10613ad757610100808354040283529160200191613b02565b820191906000526020600020905b815481529060010190602001808311613ae557829003601f168201915b5050509183525050600682015460209091019060ff166008811115613b2357fe5b6008811115613b2e57fe5b90525060208101519091506001600160a01b0316613b77575050604080516020808201835260008083528351918201909352828152919650869550935084925090506008613ba6565b602081015160408201516060830151608084015160a085015160c090950151939a509198509650945090925090505b91939550919395565b60025460ff161515600114613bf55760405162461bcd60e51b8152600401808060200182810382526022815260200180613f486022913960400191505060405180910390fd5b600081815260208190526040902060018101546001600160a01b0316613c1b5750610db7565b60028101546001600160a01b03163314613c665760405162461bcd60e51b8152600401808060200182810382526021815260200180613f276021913960400191505060405180910390fd5b6003600682015460ff166008811115613c7b57fe5b14613cc7576040805162461bcd60e51b815260206004820152601760248201527650726f6a656374206e6f7420696e2070726f677265737360481b604482015290519081900360640190fd5b6002818101805460068401805460ff191660019081179091556001600160a01b0319821690925581840154600485015460408051888152908101829052606060208201818152600389018054610100988116159890980260001901909716979097049082018190526001600160a01b0394851696879695909416947fd1ed06115c7e42f61501cf18bfd02f10359381afe0d93bc31f146a45a4fb78ab948a949193919260808301908590801561316c5780601f106131415761010080835404028352916020019161316c565b600082820183811015613ded576040805162461bcd60e51b815260206004820152601b60248201527f536166654d6174683a206164646974696f6e206f766572666c6f770000000000604482015290519081900360640190fd5b9392505050565b828054600181600116156101000203166002900490600052602060002090601f016020900481019282601f10613e3557805160ff1916838001178555613e62565b82800160010185558215613e62579182015b82811115613e62578251825591602001919060010190613e47565b50613e6e929150613eeb565b5090565b6040805160e08101825260008082526020820181905291810182905260608082018190526080820183905260a08201529060c082015290565b50805460018160011615610100020316600290046000825580601f10613ed15750610db7565b601f016020900490600052602060002090810190610db791905b610bc591905b80821115613e6e5760008155600101613ef156fe43616e6e6f742062652075706461746564207768696c65207075626c6973686564596f7520617265206e6f742074686520736572766963652066756c66696c6c657254686520636f6e7472616374206973206e6f74206d6f726520617661696c61626c65596f7520617265206e6f742074686520697373756572206f6620746869732070726f6a65637450726f6a656374206e6f7420696e2076616c69646174696f6e2070726f63657373546869732063616c6c206973206f6e6c7920616c6c6f7765722062792074686520636f6e74726163742773206f776e6572596f7572206465706f73697420646f65736e2774206d617463682074686520636f6e74726163742773207072696365a265627a7a7231582086049878a788a257a247ed00eda6fafe82b7c741b1dd017a2c42221769bce54a64736f6c63430005100032",
  "source": "pragma solidity >=0.4.21 <0.7.0;\n\nimport \"openzeppelin-solidity/contracts/math/SafeMath.sol\";\n\n/// @title Decentralised business platform\n/// @author Said Eloudrhiri (ChainSkills) - Devoxx Morocco 2019\n/// @notice Learn how to create a smart contract to simulate a decentralised business platform to issue and fulfill projects\n/// @dev This smart contract is for illustration purpose only and should not be used in the mainNet\ncontract ChainBizz {\n    using SafeMath for uint256;\n\n    /*\n   * Enum\n   */\n\n    // Defines the status of the project\n    enum ProjectStatus {\n        Draft,\n        Available,\n        InReview,\n        OnGoing,\n        Validate,\n        Completed,\n        Canceled,\n        Refunded,\n        Unknown\n    }\n\n    /*\n   * Structs\n   */\n\n    // Description of a project\n    struct ProjectItem {\n        uint256 id; // unique ID\n        address payable issuer;\n        address payable fulfiller;\n        string title;\n        uint256 price; // price in Wei\n        string ipfsHash;\n        ProjectStatus status;\n    }\n\n    /*\n   * Storage\n   */\n\n    // List of projects\n    mapping(uint256 => ProjectItem) public projects;\n\n    // Number of registered projects\n    uint256 projectsCounter;\n\n    // Defines if the contract is still enable or not\n    bool enabledContract;\n\n    // Keep contract's issuer address\n    address owner;\n\n    /*\n   * Modifiers\n   */\n\n    modifier onlyEnable() {\n        require(enabledContract == true, \"The contract is not more available\");\n        _;\n    }\n\n    modifier onlyOwner() {\n        require(\n            msg.sender == owner,\n            \"This call is only allower by the contract's owner\"\n        );\n        _;\n    }\n\n    /*\n   * Events\n   */\n    event NewProject(\n        uint256 id,\n        address indexed issuer,\n        string title,\n        uint256 price\n    );\n    event UpdateProject(\n        uint256 id,\n        address indexed issuer,\n        string title,\n        uint256 price\n    );\n    event RemoveProject(uint256 id, address indexed issuer, string title);\n    event PublishedProject(\n        uint256 id,\n        address indexed issuer,\n        string title,\n        uint256 price,\n        string ipfsHash\n    );\n    event UnpublishedProject(\n        uint256 id,\n        address indexed issuer,\n        string title,\n        uint256 price\n    );\n    event OfferSubmitted(\n        uint256 id,\n        address indexed issuer,\n        address indexed fulfiller,\n        string title,\n        uint256 price\n    );\n    event OfferCanceled(\n        uint256 id,\n        address indexed issuer,\n        address indexed fulfiller,\n        string title,\n        uint256 price\n    );\n    event AcceptProposal(\n        uint256 id,\n        address indexed issuer,\n        address indexed fulfiller,\n        string title,\n        uint256 price\n    );\n    event RejectProposal(\n        uint256 id,\n        address indexed issuer,\n        address indexed fulfiller,\n        string title,\n        uint256 price\n    );\n    event ProjectDelivered(\n        uint256 id,\n        address indexed issuer,\n        address indexed fulfiller,\n        string title,\n        uint256 price\n    );\n    event ServicesCanceled(\n        uint256 id,\n        address indexed issuer,\n        address indexed fulfiller,\n        string title,\n        uint256 price\n    );\n    event DeliveryAccepted(\n        uint256 id,\n        address indexed issuer,\n        address indexed fulfiller,\n        string title,\n        uint256 price\n    );\n    event DeliveryRejected(\n        uint256 id,\n        address indexed issuer,\n        address indexed fulfiller,\n        string title,\n        uint256 price\n    );\n    event ContractCanceled(\n        uint256 id,\n        address indexed issuer,\n        address indexed fulfiller,\n        string title,\n        uint256 price\n    );\n\n    /*\n  * Public functions\n  */\n\n    constructor() public {\n        enabledContract = true;\n        owner = msg.sender;\n    }\n\n    /// @dev Enable the usage of the contract\n    function enableContract() public onlyOwner {\n        enabledContract = true;\n    }\n\n    /// @dev Disable the usage of the contract, change the status of all running projects and payback all issuers\n    function disableContract() public onlyOwner onlyEnable {\n        // First, we disable the contract\n        enabledContract = false;\n\n        // Then, we refund issuers for their running contracts\n\n        // At least one project?\n        if (projectsCounter == 0) {\n            return;\n        }\n\n        // prepare output array\n        uint256[] memory projectIDs = new uint256[](projectsCounter);\n\n        // iterate over projects\n        uint256 numberOfProjects = 0;\n        for (uint256 i = 1; i <= projectsCounter; i++) {\n            // retrieve the project\n            ProjectItem storage project = projects[i];\n\n            // check if this project is published\n            if (\n                (project.status == ProjectStatus.OnGoing) ||\n                (project.status == ProjectStatus.Validate)\n            ) {\n                // Refund the issuer\n                if (project.price > 0) {\n                    // pay back the issuer\n                    project.issuer.transfer(project.price);\n                }\n\n                // project refunded\n                project.status = ProjectStatus.Refunded;\n            }\n        }\n    }\n\n    //\n    // Setters\n    //\n\n    // Add a new project\n    function addProject(string memory _title, uint256 _price)\n        public\n        onlyEnable\n    {\n        // a title is required\n        bytes memory title = bytes(_title);\n        require(title.length > 0, \"A title is required\");\n\n        // new project\n        projectsCounter = projectsCounter.add(1);\n\n        // store the new project\n        projects[projectsCounter] = ProjectItem(\n            projectsCounter,\n            msg.sender,\n            address(0x0),\n            _title,\n            _price,\n            \"\",\n            ProjectStatus.Draft\n        );\n\n        emit NewProject(projectsCounter, msg.sender, _title, _price);\n    }\n\n    // Update an unpublished project\n    function updateProject(uint256 _id, string memory _title, uint256 _price)\n        public\n        onlyEnable\n    {\n        // retrieve the project\n        ProjectItem storage project = projects[_id];\n\n        // ensure that this project exists\n        if (project.issuer == address(0x0)) {\n            return;\n        }\n\n        // do we own this project?\n        require(\n            project.issuer == msg.sender,\n            \"You are not the issuer of this project\"\n        );\n\n        // ready to be published?\n        require(\n            project.status == ProjectStatus.Draft,\n            \"Cannot be updated while published\"\n        );\n\n        // a title is required\n        bytes memory title = bytes(_title);\n        require(title.length > 0, \"A title is required\");\n\n        // update the project\n        project.title = _title;\n        project.price = _price;\n\n        emit UpdateProject(projectsCounter, msg.sender, _title, _price);\n    }\n\n    // Remove an unpublished project\n    function removeProject(uint256 _id) public onlyEnable {\n        // retrieve the project\n        ProjectItem memory project = projects[_id];\n\n        // ensure that this project exists\n        if (project.issuer == address(0x0)) {\n            return;\n        }\n\n        // do we own this project?\n        require(\n            project.issuer == msg.sender,\n            \"You are not the issuer of this project\"\n        );\n\n        // keep title for future use\n        string memory title = project.title;\n\n        // remove the project\n        delete projects[_id];\n\n        emit RemoveProject(_id, msg.sender, title);\n    }\n\n    // Publish the project to seek for fulfillers\n    function publishProject(\n        string memory _title,\n        uint256 _price,\n        string memory _ipfsHash\n    ) public onlyEnable {\n        // a title is required\n        bytes memory title = bytes(_title);\n        require(title.length > 0, \"A title is required\");\n\n        // The hash to IPFS is required\n        bytes memory ipfsHash = bytes(_ipfsHash);\n        require(ipfsHash.length > 0, \"A hash to IPFS is required\");\n\n        // new project\n        projectsCounter = projectsCounter.add(1);\n\n        // store the new project\n        projects[projectsCounter] = ProjectItem(\n            projectsCounter,\n            msg.sender,\n            address(0x0),\n            _title,\n            _price,\n            _ipfsHash,\n            ProjectStatus.Available\n        );\n\n        emit PublishedProject(\n            projectsCounter,\n            msg.sender,\n            _title,\n            _price,\n            _ipfsHash\n        );\n    }\n\n    // Publish the project to seek for fulfillers\n    function publishProjectOld(uint256 _id) public onlyEnable {\n        // retrieve the project\n        ProjectItem storage project = projects[_id];\n\n        // ensure that this project exists\n        if (project.issuer == address(0x0)) {\n            return;\n        }\n\n        // do we own this project?\n        require(\n            project.issuer == msg.sender,\n            \"You are not the issuer of this project\"\n        );\n\n        // ready to be published?\n        require(project.status == ProjectStatus.Draft, \"Cannot be published\");\n\n        // publish the project to be available for services\n        project.status = ProjectStatus.Available;\n\n        emit PublishedProject(\n            _id,\n            msg.sender,\n            project.title,\n            project.price,\n            \"\"\n        );\n    }\n\n    // Unpublish the project\n    // A project can be unpublished ONLY if it's already published and not already part of a contract\n    function unpublishProject(uint256 _id) public onlyEnable {\n        // retrieve the project\n        ProjectItem storage project = projects[_id];\n\n        // ensure that this project exists\n        if (project.issuer == address(0x0)) {\n            return;\n        }\n\n        // do we own this project?\n        require(\n            project.issuer == msg.sender,\n            \"You are not the issuer of this project\"\n        );\n\n        // ready to be unpublished?\n        require(\n            project.status == ProjectStatus.Available,\n            \"Cannot be unpublished\"\n        );\n\n        // unpublish the project\n        project.status = ProjectStatus.Draft;\n\n        emit UnpublishedProject(_id, msg.sender, project.title, project.price);\n    }\n\n    // Offer services for the project\n    // A fulfiller offers his/her services to perform the project\n    function submitOffer(uint256 _id) public onlyEnable {\n        // retrieve the project\n        ProjectItem storage project = projects[_id];\n\n        // ensure that this project exists\n        if (project.issuer == address(0x0)) {\n            return;\n        }\n\n        // is the project available?\n        require(\n            project.status == ProjectStatus.Available,\n            \"Project no more available\"\n        );\n\n        // store the address of the fulfiller\n        project.fulfiller = msg.sender;\n\n        // project is under review\n        project.status = ProjectStatus.InReview;\n\n        emit OfferSubmitted(\n            _id,\n            project.issuer,\n            msg.sender,\n            project.title,\n            project.price\n        );\n    }\n\n    // Cancel offer made by the fulfiller\n    // A fulfiller cancels his/her offer to perform the project\n    function cancelOffer(uint256 _id) public onlyEnable {\n        // retrieve the project\n        ProjectItem storage project = projects[_id];\n\n        // ensure that this project exists\n        if (project.issuer == address(0x0)) {\n            return;\n        }\n\n        // are we the service fulfiller?\n        require(\n            project.fulfiller == msg.sender,\n            \"You are not the service fulfiller\"\n        );\n\n        // is the project in review?\n        require(\n            project.status == ProjectStatus.InReview,\n            \"Proposal not in review\"\n        );\n\n        // project is now available\n        address payable fulfiller = project.fulfiller;\n        project.status = ProjectStatus.Available;\n        project.fulfiller = address(0x0);\n\n        emit OfferCanceled(\n            _id,\n            project.issuer,\n            fulfiller,\n            project.title,\n            project.price\n        );\n    }\n\n    // Accept services from the fulfiller\n    // The issuer accepts the services offered by the fulfiller\n    function acceptProposal(uint256 _id) public payable onlyEnable {\n        // retrieve the project\n        ProjectItem storage project = projects[_id];\n\n        // ensure that this project exists\n        if (project.issuer == address(0x0)) {\n            return;\n        }\n\n        // do we own this project?\n        require(\n            project.issuer == msg.sender,\n            \"You are not the issuer of this project\"\n        );\n\n        // is the project in review?\n        require(\n            project.status == ProjectStatus.InReview,\n            \"Proposal not in review\"\n        );\n\n        // is the issuer has deposit the requeste amount?\n        require(\n            msg.value == project.price,\n            \"Your deposit doesn't match the contract's price\"\n        );\n\n        // project is now ongoing\n        project.status = ProjectStatus.OnGoing;\n\n        emit AcceptProposal(\n            _id,\n            project.issuer,\n            project.fulfiller,\n            project.title,\n            project.price\n        );\n    }\n\n    // Reject proposal from the fulfiller\n    // The issuer rejects the services offered by the fulfiller\n    function rejectProposal(uint256 _id) public onlyEnable {\n        // retrieve the project\n        ProjectItem storage project = projects[_id];\n\n        // ensure that this project exists\n        if (project.issuer == address(0x0)) {\n            return;\n        }\n\n        // do we own this project?\n        require(\n            project.issuer == msg.sender,\n            \"You are not the issuer of this project\"\n        );\n\n        // is the project in review?\n        require(\n            project.status == ProjectStatus.InReview,\n            \"Proposal not in review\"\n        );\n\n        // project is now available\n        address payable fulfiller = project.fulfiller;\n        project.status = ProjectStatus.Available;\n        project.fulfiller = address(0x0);\n\n        emit RejectProposal(\n            _id,\n            project.issuer,\n            fulfiller,\n            project.title,\n            project.price\n        );\n    }\n\n    // Deliver the project to the customer\n    // The fulfiller delivers the project to the issuer\n    function deliverProject(uint256 _id) public onlyEnable {\n        // retrieve the project\n        ProjectItem storage project = projects[_id];\n\n        // ensure that this project exists\n        if (project.issuer == address(0x0)) {\n            return;\n        }\n\n        // are we the service fulfiller?\n        require(\n            project.fulfiller == msg.sender,\n            \"You are not the service fulfiller\"\n        );\n\n        // is the project ongoing?\n        require(\n            project.status == ProjectStatus.OnGoing,\n            \"Project not in progress\"\n        );\n\n        // project is now validation process\n        project.status = ProjectStatus.Validate;\n\n        emit ProjectDelivered(\n            _id,\n            project.issuer,\n            project.fulfiller,\n            project.title,\n            project.price\n        );\n    }\n\n    // Cancel services from the fulfiller\n    // The fulfiller cancels the services performed for the project\n    function cancelServices(uint256 _id) public onlyEnable {\n        // retrieve the project\n        ProjectItem storage project = projects[_id];\n\n        // ensure that this project exists\n        if (project.issuer == address(0x0)) {\n            return;\n        }\n\n        // are we the service fulfiller?\n        require(\n            project.fulfiller == msg.sender,\n            \"You are not the service fulfiller\"\n        );\n\n        // is the project ongoing?\n        require(\n            project.status == ProjectStatus.OnGoing,\n            \"Project not in progress\"\n        );\n\n        // project becomes available\n        address payable fulfiller = project.fulfiller;\n        project.status = ProjectStatus.Available;\n        project.fulfiller = address(0x0);\n\n        emit ServicesCanceled(\n            _id,\n            project.issuer,\n            fulfiller,\n            project.title,\n            project.price\n        );\n    }\n\n    // Accept the project delivery from the fulfiller\n    // The issuer accepts the project delivered by the fulfiller\n    function acceptDelivery(uint256 _id) public onlyEnable {\n        // retrieve the project\n        ProjectItem storage project = projects[_id];\n\n        // ensure that this project exists\n        if (project.issuer == address(0x0)) {\n            return;\n        }\n\n        // do we own this project?\n        require(\n            project.issuer == msg.sender,\n            \"You are not the issuer of this project\"\n        );\n\n        // is the project in review?\n        require(\n            project.status == ProjectStatus.Validate,\n            \"Project not in validation process\"\n        );\n\n        // pay the service provide\n        project.fulfiller.transfer(project.price);\n\n        // project is now completed\n        project.status = ProjectStatus.Completed;\n\n        emit DeliveryAccepted(\n            _id,\n            project.issuer,\n            project.fulfiller,\n            project.title,\n            project.price\n        );\n    }\n\n    // Reject the project delivery from the fulfiller\n    // The issuer rejects the project delivered by the fulfiller\n    function rejectDelivery(uint256 _id) public onlyEnable {\n        // retrieve the project\n        ProjectItem storage project = projects[_id];\n\n        // ensure that this project exists\n        if (project.issuer == address(0x0)) {\n            return;\n        }\n\n        // do we own this project?\n        require(\n            project.issuer == msg.sender,\n            \"You are not the issuer of this project\"\n        );\n\n        // is the project in review?\n        require(\n            project.status == ProjectStatus.Validate,\n            \"Project not in validation process\"\n        );\n\n        // project remains ongoing\n        project.status = ProjectStatus.OnGoing;\n\n        emit DeliveryRejected(\n            _id,\n            project.issuer,\n            project.fulfiller,\n            project.title,\n            project.price\n        );\n    }\n\n    // Contract canceled by the issuer\n    // The issuer cancels the contract\n    function cancelContract(uint256 _id) public onlyEnable {\n        // retrieve the project\n        ProjectItem storage project = projects[_id];\n\n        // ensure that this project exists\n        if (project.issuer == address(0x0)) {\n            return;\n        }\n\n        // are we the service fulfiller?\n        require(\n            project.issuer == msg.sender,\n            \"You are not the project's issuer\"\n        );\n\n        // is the project ongoing?\n        require(\n            (project.status == ProjectStatus.OnGoing) ||\n                (project.status == ProjectStatus.Validate),\n            \"Project not in progress\"\n        );\n\n        // pay back the contract's issuer\n        project.issuer.transfer(project.price);\n\n        // contract becomes canceled\n        project.status = ProjectStatus.Canceled;\n\n        emit ContractCanceled(\n            _id,\n            project.issuer,\n            project.fulfiller,\n            project.title,\n            project.price\n        );\n    }\n\n    //\n    // Getters\n    //\n\n    // Retrieve if the contract is still enable or not\n    function isEnabled() public view returns (bool) {\n        return enabledContract;\n    }\n\n    // Retrieve a project from its id\n    function getProject(uint256 _id)\n        public\n        view\n        returns (\n            address issuer,\n            address fulfiller,\n            string memory title,\n            uint256 price,\n            string memory ipfsHash,\n            ProjectStatus status\n        )\n    {\n        ProjectItem memory project = projects[_id];\n\n        // ensure that we have a project to fetch\n        if (project.issuer == address(0x0)) {\n            return (\n                address(0x0),\n                address(0x0),\n                \"\",\n                0,\n                \"\",\n                ProjectStatus.Unknown\n            );\n        }\n\n        return (\n            project.issuer,\n            project.fulfiller,\n            project.title,\n            project.price,\n            project.ipfsHash,\n            project.status\n        );\n    }\n\n    // return all projects\n    function getAllProjects() public view returns (uint256[] memory) {\n        if (projectsCounter == 0) {\n            return new uint256[](0);\n        }\n\n        // prepare output array\n        uint256[] memory projectIDs = new uint256[](projectsCounter);\n\n        // iterate over projects\n        uint256 numberOfProjects = 0;\n        for (uint256 i = 1; i <= projectsCounter; i++) {\n            // skip deleted projects\n            if (projects[i].issuer != address(0x0)) {\n                projectIDs[numberOfProjects] = projects[i].id;\n                numberOfProjects = numberOfProjects.add(1);\n            }\n        }\n\n        // copy the project ID array into a smaller array\n        uint256[] memory allProjects = new uint256[](numberOfProjects);\n        for (uint256 j = 0; j < numberOfProjects; j++) {\n            allProjects[j] = projectIDs[j];\n        }\n\n        return allProjects;\n    }\n\n    // return all published projects\n    function getPublishedProjects() public view returns (uint256[] memory) {\n        if (projectsCounter == 0) {\n            return new uint256[](0);\n        }\n\n        // prepare output array\n        uint256[] memory projectIDs = new uint256[](projectsCounter);\n\n        // iterate over projects\n        uint256 numberOfProjects = 0;\n        for (uint256 i = 1; i <= projectsCounter; i++) {\n            // get only published and active projects\n            if (\n                (projects[i].issuer != address(0x0)) &&\n                (projects[i].status == ProjectStatus.Available)\n            ) {\n                projectIDs[numberOfProjects] = projects[i].id;\n                numberOfProjects = numberOfProjects.add(1);\n            }\n        }\n\n        // copy the project ID array into a smaller array\n        uint256[] memory allProjects = new uint256[](numberOfProjects);\n        for (uint256 j = 0; j < numberOfProjects; j++) {\n            allProjects[j] = projectIDs[j];\n        }\n\n        return allProjects;\n    }\n\n    // return all projects owned by the sender\n    function getMyProjects() public view returns (uint256[] memory) {\n        if (projectsCounter == 0) {\n            return new uint256[](0);\n        }\n\n        // prepare output array\n        uint256[] memory projectIDs = new uint256[](projectsCounter);\n\n        // iterate over projects\n        uint256 numberOfProjects = 0;\n        for (uint256 i = 1; i <= projectsCounter; i++) {\n            // keep the ID of the project owned by the caller\n            if (\n                (projects[i].issuer == msg.sender) &&\n                (projects[i].status != ProjectStatus.Completed) &&\n                (projects[i].status != ProjectStatus.Canceled)\n            ) {\n                projectIDs[numberOfProjects] = projects[i].id;\n\n                numberOfProjects = numberOfProjects.add(1);\n            }\n        }\n\n        // copy the project ID array into a smaller array\n        uint256[] memory myProjects = new uint256[](numberOfProjects);\n        for (uint256 j = 0; j < numberOfProjects; j++) {\n            myProjects[j] = projectIDs[j];\n        }\n\n        return myProjects;\n    }\n\n    // return all my offers waiting for review\n    function getMyOffers() public view returns (uint256[] memory) {\n        if (projectsCounter == 0) {\n            return new uint256[](0);\n        }\n\n        // prepare output array\n        uint256[] memory projectIDs = new uint256[](projectsCounter);\n\n        // iterate over projects\n        uint256 numberOfProjects = 0;\n        for (uint256 i = 1; i <= projectsCounter; i++) {\n            // keep the ID of the project with the sender as fulfiller and the project still in review process\n            if (\n                (projects[i].fulfiller == msg.sender) &&\n                (projects[i].status == ProjectStatus.InReview)\n            ) {\n                projectIDs[numberOfProjects] = projects[i].id;\n\n                numberOfProjects = numberOfProjects.add(1);\n            }\n        }\n\n        // copy the project ID array into a smaller array\n        uint256[] memory myOffers = new uint256[](numberOfProjects);\n        for (uint256 j = 0; j < numberOfProjects; j++) {\n            myOffers[j] = projectIDs[j];\n        }\n\n        return myOffers;\n    }\n\n    // return all projects waiting for review\n    function getMyReviews() public view returns (uint256[] memory) {\n        if (projectsCounter == 0) {\n            return new uint256[](0);\n        }\n\n        // prepare output array\n        uint256[] memory projectIDs = new uint256[](projectsCounter);\n\n        // iterate over projects\n        uint256 numberOfProjects = 0;\n        for (uint256 i = 1; i <= projectsCounter; i++) {\n            // keep the ID of the project owned by the caller and the project still in review process\n            if (\n                (projects[i].issuer == msg.sender) &&\n                (projects[i].status == ProjectStatus.InReview)\n            ) {\n                projectIDs[numberOfProjects] = projects[i].id;\n\n                numberOfProjects = numberOfProjects.add(1);\n            }\n        }\n\n        // copy the project ID array into a smaller array\n        uint256[] memory myReviews = new uint256[](numberOfProjects);\n        for (uint256 j = 0; j < numberOfProjects; j++) {\n            myReviews[j] = projectIDs[j];\n        }\n\n        return myReviews;\n    }\n\n    // return all ongoing contracts\n    function getMyContracts() public view returns (uint256[] memory) {\n        if (projectsCounter == 0) {\n            return new uint256[](0);\n        }\n\n        // prepare output array\n        uint256[] memory projectIDs = new uint256[](projectsCounter);\n\n        // iterate over projects\n        uint256 numberOfProjects = 0;\n        for (uint256 i = 1; i <= projectsCounter; i++) {\n            // get only ongoing and under validation contracts owned by the issuer or the service fulfiller\n            if (\n                ((projects[i].issuer == msg.sender) ||\n                    (projects[i].fulfiller == msg.sender)) &&\n                ((projects[i].status == ProjectStatus.OnGoing) ||\n                    (projects[i].status == ProjectStatus.Validate))\n            ) {\n                projectIDs[numberOfProjects] = projects[i].id;\n                numberOfProjects = numberOfProjects.add(1);\n            }\n        }\n\n        // copy the project ID array into a smaller array\n        uint256[] memory myContracts = new uint256[](numberOfProjects);\n        for (uint256 j = 0; j < numberOfProjects; j++) {\n            myContracts[j] = projectIDs[j];\n        }\n\n        return myContracts;\n    }\n\n    // return all deliveries to review\n    function getDeliveries() public view returns (uint256[] memory) {\n        if (projectsCounter == 0) {\n            return new uint256[](0);\n        }\n\n        // prepare output array\n        uint256[] memory projectIDs = new uint256[](projectsCounter);\n\n        // iterate over projects\n        uint256 numberOfProjects = 0;\n        for (uint256 i = 1; i <= projectsCounter; i++) {\n            // get only ongoing projects issued by the issuer or the fulfiller\n            if (\n                ((projects[i].issuer == msg.sender) ||\n                    (projects[i].fulfiller == msg.sender)) &&\n                (projects[i].status == ProjectStatus.Validate)\n            ) {\n                projectIDs[numberOfProjects] = projects[i].id;\n                numberOfProjects = numberOfProjects.add(1);\n            }\n        }\n\n        // copy the project ID array into a smaller array\n        uint256[] memory myDeliveries = new uint256[](numberOfProjects);\n        for (uint256 j = 0; j < numberOfProjects; j++) {\n            myDeliveries[j] = projectIDs[j];\n        }\n\n        return myDeliveries;\n    }\n\n    // return all completed contracts\n    function getCompleted() public view returns (uint256[] memory) {\n        if (projectsCounter == 0) {\n            return new uint256[](0);\n        }\n\n        // prepare output array\n        uint256[] memory projectIDs = new uint256[](projectsCounter);\n\n        // iterate over projects\n        uint256 numberOfProjects = 0;\n        for (uint256 i = 1; i <= projectsCounter; i++) {\n            // get only ongoing projects issued by the issuer or the fulfiller\n            if (\n                ((projects[i].issuer == msg.sender) ||\n                    (projects[i].fulfiller == msg.sender)) &&\n                (projects[i].status == ProjectStatus.Completed)\n            ) {\n                projectIDs[numberOfProjects] = projects[i].id;\n                numberOfProjects = numberOfProjects.add(1);\n            }\n        }\n\n        // copy the project ID array into a smaller array\n        uint256[] memory myCompleted = new uint256[](numberOfProjects);\n        for (uint256 j = 0; j < numberOfProjects; j++) {\n            myCompleted[j] = projectIDs[j];\n        }\n\n        return myCompleted;\n    }\n\n    // return all canceled contracts\n    function getCanceled() public view returns (uint256[] memory) {\n        if (projectsCounter == 0) {\n            return new uint256[](0);\n        }\n\n        // prepare output array\n        uint256[] memory projectIDs = new uint256[](projectsCounter);\n\n        // iterate over projects\n        uint256 numberOfProjects = 0;\n        for (uint256 i = 1; i <= projectsCounter; i++) {\n            // get only ongoing projects issued by the issuer or the fulfiller\n            if (\n                ((projects[i].issuer == msg.sender) ||\n                    (projects[i].fulfiller == msg.sender)) &&\n                (projects[i].status == ProjectStatus.Canceled)\n            ) {\n                projectIDs[numberOfProjects] = projects[i].id;\n                numberOfProjects = numberOfProjects.add(1);\n            }\n        }\n\n        // copy the project ID array into a smaller array\n        uint256[] memory myCanceled = new uint256[](numberOfProjects);\n        for (uint256 j = 0; j < numberOfProjects; j++) {\n            myCanceled[j] = projectIDs[j];\n        }\n\n        return myCanceled;\n    }\n}\n",
  "sourcePath": "/Users/eloudsa/ChainSkills/chainbizz/contracts/ChainBizz.sol",
  "compiler": {
    "name": "solc",
    "version": "0.5.16+commit.9c3226ce.Emscripten.clang"
  },
  "schemaVersion": "3.0.23",
  "updatedAt": "2020-02-22T14:21:35.958Z",
  "networkType": "ethereum",
  "devdoc": {
    "author": "Said Eloudrhiri (ChainSkills) - Devoxx Morocco 2019",
    "details": "This smart contract is for illustration purpose only and should not be used in the mainNet",
    "methods": {
      "disableContract()": {
        "details": "Disable the usage of the contract, change the status of all running projects and payback all issuers"
      },
      "enableContract()": {
        "details": "Enable the usage of the contract"
      }
    },
    "title": "Decentralised business platform"
  },
  "userdoc": {
    "methods": {},
    "notice": "Learn how to create a smart contract to simulate a decentralised business platform to issue and fulfill projects"
  }
}